:100000000C94BF010C94E7010C94E7010C94E701F8
:100010000C94E7010C94E7010C94E7010C94E701C0
:100020000C94E7010C94E7010C9447040C94B6047B
:100030000C94E7010C94E7010C94E7010C94E701A0
:100040000C94E7010C94E7010C94E7010C94E70190
:100050000C94E7010C94E7010C94E7010C94E8067A
:100060000C94E7010C94E7010C94E7010C94E70170
:100070000C94E7010C94E7010C94E7010C94E70160
:100080000C94E7010C94E7010C94E7010C94E70150
:100090000C94E7010C94E7010C94E7010C94E70140
:1000A0000C94E7010C94E7010C94E701F0F89C8EA6
:1000B0008783878E9CF8F00000FEFF030303030391
:1000C000070EFCF80000FEFF0303030303070EFC0A
:1000D000F80000FFFF00000000000000FFFF00002C
:1000E000FEFF8383838383C7EE7C380000F8FC0E19
:1000F00007030303070EFCF800003F7FE0C0808089
:10010000C0E07F3FFFFF01010101010101FFFF008E
:1001100000FFFF0C0C0C0C1C3E77E3C100007FFFBE
:10012000C0C0C0C0C0E0703F1F00001F3F70E0C0F3
:10013000C0C0E0703F1F00007FFFC1C1C1C1C1E36B
:10014000773E1C00001F3F70E0C0C0C0E0703F1F42
:10015000000000000001FFFF01000000D5F08D1439
:10016000A1C881CFD9F1AF20003C380000000000C9
:1001700080F8FE0FE3FB1B0B0B8BFBF3F7F6F6F699
:100180000606ECECECECECECECECECECECECECEC7B
:10019000EEE6F6F6F6F7F3FBFBCBCBFBE30FFEF850
:1001A000801E332121339E00000080F8FF0FE0F80D
:1001B000F9F9F9F9F9F9F9F1F3F3F3F3F0F0FFFFD5
:1001C000FFFFFFFFFFFFFFFFFFFFFFFFFFFFFFFF3F
:1001D000FFFFFFFFFFFFFF7F7FFEE00FFFF88006BE
:1001E0000600000000000F3FF0C6070404070707E1
:1001F000070707070707070707FFFFFFFFFFFFFFC7
:10020000FFFFFFFFFFFFFFFFFF0707070707078746
:1002100087070726860707C6F03F1F00808000007B
:100220000000000000030784C4E4E4E4E4E4E4E440
:10023000E4C49C003FE7E7E7E7E7E7E7E7E7E7C76E
:10024000870F1F0FC7E7E0ECE4E4E4E5E5E4C4044E
:100250000404070300C040C30311000000000000B5
:10026000000000FFFFFFFFFF393939FFFFFF0FE0FC
:10027000E0EFEF0FFFFF183879FFFFF703E0E0EF43
:10028000EF0FFFF9F0F0FCFDFDFD0DECE0E0E0000C
:1002900000012101000000000080C0602060C080DB
:1002A000000000000C0C007EFE803C3E1C1C1C1C50
:1002B0001C0C0C0E0C0C0C0C0E1E1C1C1C1C3C3EB6
:1002C00080FE7E00000000C0E0E0C00000000003EF
:1002D0000300000E1B3166C680D060311B0E00008B
:1002E0003828380001471E3820202020301010D038
:1002F000D0101090103020202020381E0701000060
:1003000006060000010100000000000000000008D7
:100310000B000202020000090400000102020000BA
:10032000052400100105240101010424020605240E
:100330000600010705810310004009040100020ABC
:10034000000000070502024000000705830240008C
:10035000000403090412010002EF020140412336A8
:100360008000010102030141726475696E6F204CC7
:100370004C430041726475626F7900006507112477
:100380001FBECFEFDAE0DEBFCDBF11E0A0E0B1E0ED
:10039000E4E9F4E102C005900D92AC32B107D9F75F
:1003A00025E0ACE2B1E001C01D92A63AB207E1F748
:1003B00011E0CFEBD1E004C02197FE010E94420A78
:1003C000CE3BD107C9F70E9487070C94480A0C94CA
:1003D0000000EBE4F1E0A0E0B8E000800EBC811189
:1003E000012C1197A0FDFDCF0192B9F70DB408952E
:1003F000FC0180914A01882311F13FB7F89482E013
:100400008093E9002091F200822F90E018161906DF
:1004100014F481E090E0882339F0289844E6409372
:1004200049014091F1004083222339F02091F200EC
:10043000211103C02BE62093E8003FBF08958FEF02
:100440009FEF08952FB7F89483E08093E90090918F
:10045000E800892F807295FF04C09091F20080E43B
:10046000891B2FBF08958091410181110DC082E049
:1004700080933D0184E080933E01109240011092F0
:100480003F0181E0809341018DE391E00895CF9396
:10049000DF931F92CDB7DEB76983DC01ED91FC914C
:1004A0000280F381E02D41E050E0BE016F5F7F4F9D
:1004B00009950F90DF91CF91089583E08093E90033
:1004C0008091F200882319F08AE38093E800089570
:1004D0000E94220290E00895CF93DF931F92CDB740
:1004E000DEB7FC018485958597FD08C02FEF3FEFAF
:1004F000358724870F90DF91CF910895CE01019623
:100500000E94F801019719F4898190E0F3CF8FEFF1
:100510009FEFF0CF0F931F93CF93DF931F92CDB731
:10052000DEB78C01FC018485958597FF0BC0CE0159
:1005300001960E94F801019771F4898190E0F80119
:1005400095878487F801848595850F90DF91CF91F9
:100550001F910F9108958FEF9FEFF1CFFC018485DC
:10056000958597FD0BC09FB7F89482E08093E900D2
:100570008091F2009FBF90E0019608959FB7F89494
:1005800082E08093E9008091F2009FBF90E008959F
:100590004091370150913801209135013091360159
:1005A00042175307B4F49091E8009570E1F39091ED
:1005B000E80092FD19C08093F1008091370190917D
:1005C000380101968F739927892B19F48EEF809348
:1005D000E80080913701909138010196909338019D
:1005E0008093370181E0089580E00895DF92EF92D3
:1005F000FF920F931F93CF93DF93D82E8A01EB01C5
:100600007B01E40EF51ECE15DF0559F0D7FE12C0B2
:10061000FE0184910E94C80221968111F4CF0FEF50
:100620001FEFC801DF91CF911F910F91FF90EF90C5
:10063000DF9008958881EECF0F931F93CF93DF93C0
:100640001F92CDB7DEB782E0898342E450E06FE0CD
:1006500073E080E80E94F6020E943302DC011296E9
:100660000D911C910115110589F0D801ED91FC91B6
:100670000280F381E02DBE016F5F7F4FC8010995B5
:1006800097FD04C0F80100851185ECCF89810F909A
:10069000DF91CF911F910F910895615030F020911B
:1006A000F100FC0120830196F8CF289884E680931E
:1006B000490108953FB7F89480913101909132013A
:1006C000A0913301B091340126B5A89B05C02F3FFE
:1006D00019F00196A11DB11D3FBFBA2FA92F982F68
:1006E0008827BC01CD01620F711D811D911D42E063
:1006F000660F771F881F991F4A95D1F708958F922B
:100700009F92AF92BF92CF92DF92EF92FF926B01D6
:100710007C010E945A034B015C01C114D104E10425
:10072000F104B9F00E945A03681979098A099B09F2
:10073000683E73408105910580F321E0C21AD1081B
:10074000E108F10888EE880E83E0981EA11CB11C18
:10075000E4CFFF90EF90DF90CF90BF90AF909F904D
:100760008F9008958F929F92AF92BF92CF92DF9217
:10077000EF92FF920F931F93CF93DF936C017B0156
:100780008A0180910B01882309F45CC080914A01A1
:10079000882309F457C080913C0180FF05C08091F7
:1007A000E00082608093E000E801B12C8AEFA82E7F
:1007B00093E0892E2AE3922E209711F4BB20D9F1E1
:1007C0000E94220281110AC0AA94AA20D9F161E0F4
:1007D00070E080E090E00E947F03EECF8C171D0652
:1007E00011F00CF08C2F9FB7F8948092E9002091C3
:1007F000E80025FD02C09FBFDFCF282F30E0C21BDD
:10080000D30BF701815020F041914093F100FACFD2
:10081000E20EF31EBB2021F09092E800B12CEBCF4A
:100820008091E80085FDE7CF9092E800BB24B39467
:10083000209709F3F3CF5D9884E680933B0110166F
:1008400011063CF081E090E0F6019383828310E092
:1008500000E0C801DF91CF911F910F91FF90EF90C1
:10086000DF90CF90BF90AF909F908F9008950895A4
:100870002D9A0895BC0190E080E00C947F038FB125
:100880008095807F669B88601C9B846008951F9282
:100890000F920FB60F9211248F939F938091E100D6
:1008A0009091E100937F9093E10083FF0FC010923D
:1008B000E90091E09093EB001092EC0092E39093AA
:1008C000ED0010924A0198E09093F00082FF22C060
:1008D00093E09093E9009091F200992319F09AE344
:1008E0009093E80090913B01992341F090913B0156
:1008F000915090933B01911101C05D9A90914901F3
:10090000992341F09091490191509093490191119F
:1009100001C0289A84FF18C08091E2008E7E816019
:100920008093E2008091E1008F7E8093E1008091CE
:100930003C018E7E806180933C019F918F910F904E
:100940000FBE0F901F90189580FFF7CF8091E200A7
:100950008E7E80618093E2008091E1008E7E8093A4
:10096000E10080913C018E7E8160E5CF1F920F9265
:100970000FB60F921124CF92DF92EF92FF920F9356
:100980001F932F933F934F935F936F937F938F9317
:100990009F93AF93BF93EF93FF93CF93DF93CDB725
:1009A000DEB76C97DEBFCDBF1092E9008091E80002
:1009B00083FF25C068E0CE0145960E944D0382EF7B
:1009C0008093E8008D8987FF39C09091E80090FFFF
:1009D000FCCF982F907609F034C19E894F89588DAD
:1009E0002F89F88C911131C0803861F580913A01DE
:1009F0008093F1001092F1008EEF8093E8006C96E6
:100A00000FB6F894DEBF0FBECDBFDF91CF91FF913F
:100A1000EF91BF91AF919F918F917F916F915F9176
:100A20004F913F912F911F910F91FF90EF90DF9089
:100A3000CF900F900FBE0F901F9018959EEF909340
:100A4000E800C7CF1092F100D5CF913059F4811151
:100A5000D3CF4130510581F680913A018D7F80934B
:100A60003A01CACF933049F48111C6CF41305105C4
:100A700019F680913A018260F2CF953041F480916D
:100A8000E80080FFFCCF20682093E300B5CF9630CC
:100A900009F0A9C00B8D1C8D22E01092E900109284
:100AA000380110923701F2122EC0109236011092C6
:100AB00035010E941C031F8299E09983FA8291E01C
:100AC0009E8390EA98879AEF998720913701309119
:100AD0003801275F3F4F3C832B838D831092E900C1
:100AE00010923801109237011093360100933501AE
:100AF00049E050E0BE016F5F7F4F80E00E94F60248
:100B00000E941C0379CF10933601009335010E9497
:100B10003302DC0112960D911C910115110509F4A7
:100B200051C1D801ED91FC910480F581E02DBE0109
:100B30006B5E7F4FC8010995009709F03EC1F8012F
:100B400000851185EACFF3E0FF120EC08F8988235C
:100B500009F440C0823061F440E867E083E793E045
:100B60000E943207811148CF81E28093EB0047CF8A
:100B7000813029F440E86BE087E693E0F1CF8330E1
:100B800099F70E943302DC011296ED90FC908E01E1
:100B90000F5F1F4F6801E114F10479F0D701ED9167
:100BA000FC910680F781E02DB801C7010995080F77
:100BB000111DF701E084F184EECFD8011C92F601FB
:100BC00001900020E9F73197BF016C197D0940E0E1
:100BD000C601C6CF61E573E0FB01449150E080E8B7
:100BE0000E94F60209CF973009F4BECF983021F465
:100BF00081E08093F10000CF993009F0FDCE837041
:100C000009F0B2CFEDE0F1E081E031E096E321912F
:100C1000222371F08093E9003093EB00DF011197FC
:100C20002C912093EC009093ED008F5F873079F743
:100C30008EE78093EA001092EA008F8980934A0140
:100C4000DBCE8B8D9C8D1092E900109238011092B2
:100C500037019093360180933501898D811192C0BF
:100C60008E899D89913A49F4813209F07DCF47E020
:100C700050E064E071E080E0B3CF913209F074CFCE
:100C8000833269F48F89988DB0E0A0E080930001F1
:100C900090930101A0930201B0930301ADCE803285
:100CA00069F48091E80082FFFCCF67E084E091E086
:100CB0000E944D038BEF8093E8009ECE823209F0B4
:100CC0009BCE8F8980930B01EEEFFFE78591949186
:100CD0008B3F9C4D51F1E0E0F8E080910401909150
:100CE0000501A0910601B0910701803B9440A10548
:100CF000B105F1F480910B0180FD1AC0EE3F8AE04E
:100D0000F80789F587E797E79183808380916000F2
:100D10008093390188E19BE00FB6F894A895809301
:100D200060000FBE9093600067CEEEEFFAE0D5CF83
:100D3000808191818737974709F05ECEA895809191
:100D40006000886180936000809139018093600029
:100D5000EE3F2AE0F20789F08091FE0A9091FF0AA7
:100D60009183808349CE808191818737980751F2A2
:100D70009093FF0A8093FE0AC5CF1092FF0A10924B
:100D8000FE0A3ACE0E943302DC0112960D911C91AC
:100D90000115110509F4E8CED801ED91FC910190FF
:100DA000F081E02DBE016B5E7F4FC8010995811176
:100DB00023CEF80100851185EBCF181619060CF427
:100DC0001BCED2CEF1E0FF12BECE65E573E004CFBC
:100DD0001F920F920FB60F9211242F933F938F9370
:100DE0009F93AF93BF9380912D0190912E01A0917D
:100DF0002F01B091300130912C0123E0230F2D37CA
:100E000058F50196A11DB11D20932C0180932D0151
:100E100090932E01A0932F01B09330018091310166
:100E200090913201A0913301B09134010196A11D3E
:100E3000B11D8093310190933201A0933301B0939F
:100E40003401BF91AF919F918F913F912F910F905E
:100E50000FBE0F901F90189526E8230F0296A11D34
:100E6000B11DD2CFEF92FF920F931F93CF93DF93D9
:100E7000F82E192FE62E042F81E0860F880F0E948E
:100E8000C80283E00E94C802CF2DD12FEC0EFD2EA8
:100E9000F11CCE15DF05B9F007FF13C0FE018491E8
:100EA0000E94C802182F80E00E94C8028123219668
:100EB0008111EFCFDF91CF911F910F91FF90EF90B4
:100EC00008958881EDCF81E0F5CFEBE4F5E0138262
:100ED000128288EE93E0A0E0B0E084839583A6833D
:100EE000B78387E191E0918380838FEF9FEF9587B0
:100EF0008487EBE9F5E089E291E0918380831582B4
:100F0000168280E187831482138211860895789473
:100F100084B5826084BD84B5816084BD85B58260FE
:100F200085BD85B5816085BD80916E0081608093AF
:100F30006E00109281008091810082608093810018
:100F40008091810081608093810080918000816028
:100F500080938000809191008260809391008091C5
:100F600091008160809391008091900081608093D6
:100F700090008091C10084608093C1008091C10085
:100F800082608093C1008091C10081608093C10024
:100F90008091C30081608093C3008091C000826013
:100FA0008093C0008091C20081608093C2008091D4
:100FB0007A00846080937A0080917A0082608093C6
:100FC0007A0080917A00816080937A0080917A0023
:100FD000806880937A0010924A0110923A01109230
:100FE0003C018091D70081608093D70080EA809394
:100FF000D80089B5806189BD89B5826089BD09B491
:1010000000FEFDCF61E070E080E090E00E947F0391
:101010008091D8008F7C80618093D8008091E0001F
:10102000807F8093E0008091E1008E7E8093E100DC
:101030008DE08093E200559A209A81EC80937C00A9
:1010400085B1806F85B984B1877E84B984B1876E9C
:1010500084B95E9A5F988AB1806D8AB9769A6E98E3
:1010600081B3806F81BB899880B38D7080BB80E530
:101070008CBD81E08DBD85E090E00E943A045F9ACE
:1010800085E090E00E943A045E985C98ECE5F1E01F
:1010900084918EBD00000DB407FEFDCF319641E076
:1010A000E936F407A9F75C9A81E88093640080919F
:1010B000650081608093650080E00E94E9010E94E4
:1010C0003F0487FF15C05C9885EA8EBD00000DB413
:1010D00007FEFDCF5C9A2E982F982D988091640082
:1010E00080628093640081E083BF889513BEFCCF4B
:1010F0000E943F0482FF48C02D980E943F048478DC
:101100008438E1F40E94380488EC90E00E943A04AC
:101110002F9882E090E00E942C0A8F3F29F06FEF19
:1011200082E090E00E94340A84EF91E00E943A0449
:101130002F9A0E943F0484788438D9F30E943F0498
:1011400084718431E1F40E94380488EC90E00E94BC
:101150003A042E9882E090E00E942C0A882329F01D
:1011600060E082E090E00E94340A84EF91E00E9407
:101170003A042E9A0E943F0484718431D9F388EC9A
:1011800090E00E943A04B4CF0E94380482E090E0DC
:101190000E942C0A882309F45AC03E9A3F9A81E0A3
:1011A00090E00E942C0A8470982E81E090E00E94CA
:1011B0002C0A81FF11C091102E98C0EFDFEF08E0DC
:1011C00010E0ACE6EA2EF12C0E943F0486FF42C0FC
:1011D0002E9A2F9A0E94380482E390E00E943A04EB
:1011E0000E943F048111F8CF80E18093A20566241C
:1011F0006394CBE4D1E039E6A32E31E0B32E0AE6C6
:1012000011E04EE5742E50E0E52E50E0F52E9924C5
:1012100093948FB7F89440912D0150912E016091D5
:101220002F01709130018FBF8091A305942F981BDF
:101230008091A405882309F49DC09093A505109280
:10124000A405E114F10429F30E940000E2CF3E98C6
:101250003F98A5CF992029F0C430D10511F42E9ADA
:101260002F9881E00E94E9019E01D7FF04C0222748
:1012700033272C1B3D0B27703327CE01D7FD079654
:10128000F3E095958795FA95E1F7D7FF05C00197AB
:10129000F801E21BF30B9F01BC017695762F6627C0
:1012A00077956795655B7E4FB0E0A0E02801421A14
:1012B000530A8F3FFFEF9F070CF43CC048E550E016
:1012C000FD01EC5FFE4F5F013B01F0E86F0E711C0A
:1012D0008F3F9807A1F0F501E41BF50BE49167013E
:1012E000C41AD50AC60ED71EF0E01F01022E01C097
:1012F000220C0A94EAF7F601808028282082211522
:101300003105A9F0F501E41BF50BE4916701C41A5E
:10131000D50AC60CD71CF0E01F01042C02C035947E
:1013200027940A94E2F7F601808028282082415011
:10133000510971F60196A85ABF4F60587F4FA03BE4
:10134000B10509F0B6CF80E00E94E9018FE090E09E
:101350000E943A042196C931D10509F035CF992070
:1013600011F02F9A2D9880E991E00E943A040E9492
:10137000380432CF2091A205921740F49F5F921754
:1013800008F05FCF63BE889513BE5BCF9092A40533
:101390004093A305FE0181118FEF00248193819377
:1013A000819381930394D1F7F5018491F80194918D
:1013B0002EE5822E871508F4882E20919E05309107
:1013C0009F052F5F3F4F30939F0520939E0531E08F
:1013D000292F277009F430E0969596959695532E0F
:1013E000590EF8E0F51510F498E0592E412C6BE6F3
:1013F00071E042E250E090E0541451F1DA01A55B53
:10140000BE4F30E020E02815E8F4FB01E20FF31FA7
:101410002490E0E12E9E1001112447FE0CC06D01C6
:10142000F0E8CF0ED11CF6012080322830822F5FE9
:101430003F4F1196E8CFDC90D228DC92F6E0F4150D
:10144000B4F3EDCF680F791F40585F4F4394D4CF6A
:1014500080E00E94E901F5CEF999FECF92BD81BDF1
:10146000F89A992780B50895262FF999FECF1FBACB
:1014700092BD81BD20BD0FB6F894FA9AF99A0FBEBD
:1014800001960895EE0FFF1F0590F491E02D099449
:04149000F894FFCFFE
:10149400FFFFFFFF00E100000000000000C18081A9
:1014A400000000000000004702B20368025D02AEC3
:0C14B400026C028A0200000000370400F5
:00000001FF
