:100000000C94A1090C94C9090C94C9090C94C90950
:100010000C94C9090C94C9090C94C9090C94C90918
:100020000C94C9090C94C9090C94D2180C94411968
:100030000C94C9090C94C9090C94C9090C94C909F8
:100040000C94C9090C94C9090C94C9090C94C909E8
:100050000C94C9090C94C9090C94C9090C9488180A
:100060000C94C9090C94C9090C94C9090C94C909C8
:100070000C94C9090C94C9090C94C9090C94C909B8
:100080000C94731B0C94C9090C94C9090C94C909EC
:100090000C94C9090C94C9090C94C9090C94C90998
:1000A0000C94C9090C94C9090C94C9093C38000086
:1000B00000000080F8FE0FE3FB1B0B0B8BFBF3F73C
:1000C000F6F6F60606ECECECECECECECECECECEC1E
:1000D000ECECECEEE6F6F6F6F7F3FBFBCBCBFBE352
:1000E0000FFEF8801E332121339E00000080F8FFB0
:1000F0000FE0F8F9F9F9F9F9F9F9F1F3F3F3F3F09D
:10010000F0FFFFFFFFFFFFFFFFFFFFFFFFFFFFFF0E
:10011000FFFFFFFFFFFFFFFFFFFF7F7FFEE00FFFFF
:10012000F880060600000000000F3FF0C607040438
:10013000070707070707070707070707FFFFFFFF6F
:10014000FFFFFFFFFFFFFFFFFFFFFFFF070707079F
:1001500007078787070726860707C6F03F1F008027
:100160008000000000000000030784C4E4E4E4E42D
:10017000E4E4E4E4C49C000FE7E7E7E7E7E7E7E748
:10018000E7E7C7870F1F0FC7E7E0ECE4E4E4E5E526
:10019000E4C4040404070300C040C30311000000CA
:1001A000000000000000FFFFFFFFFF393939FFFFAB
:1001B000FF0FE0E0EFEF0FFFFF183879FFFFF703C5
:1001C000E0E0EFEF0FFFF9F0F0FCFDFDFD0DECE0DE
:1001D000E0E00000012101000000000080C060207C
:1001E00060C080000000000C0C007EFE803C3E1CC5
:1001F0001C1C1C1C0C0C0E0C0C0C0C0E1E1C1C1CB9
:100200001C3C3E80FE7E00000000C0E0E0C000001C
:100210000000030300000E1B3166C680D060311B56
:100220000E00003828380001471E382020202030DA
:100230001010D0D0101090103020202020381E0731
:10024000010000060600000101000000000000009F
:10025000000014087F417777417F4155555D7F410C
:100260005F5F7F417575717F7F417575717F415FFC
:100270005F7F417575417F717747717F7F5D415D1C
:100280007F417B77417F4175757D7F415D5D417F1A
:100290007F415D5D5D7F415D5D417F417B77417F5A
:1002A0004175757F7F515555457F4175757D7F49F6
:1002B0007777497F000000007F415D5D417F417598
:1002C000757D7F4175757D7F000000007F415D5D1C
:1002D000417F417B77417F0000000000000000006B
:1002E00020400000000000000000000000000000AE
:1002F000000080E0E070703030303030303030302E
:10030000303000000000000000000000000000008D
:100310000000FFFF0000000000000000008040A07F
:1003200050A80000000000000000000000000000D5
:100330000000FFFF0000000000000080048A55AAB2
:1003400055AA0000000000000000000000000000AE
:100350000000FFFF000000A050AA55AA55AA55AA08
:1003600055AA00000000000000000000000000008E
:100370000000FFFF00000082858A958A958A958A91
:10038000958A00000000000000000000000000004E
:100390000000FFFF800000070404FC80FC0404FF51
:1003A0008094000000000000000000000000000039
:1003B00000000107070E0E0C0C0C0C0C0C0C0C0CA6
:1003C0000C0C000000000000000000000000000015
:1003D000000000000000000000000000000000001D
:1003E000000030303030303030303030303030306D
:1003F00030303030303030303030303030303030FD
:10040000303054AA54AA55AA552A552A552A552A95
:10041000552A552A0500000040A855AA55AA55AAF4
:1004200055AA55AA55AA50A850A850A850A850A8F7
:1004300050A850A850A850A854AA55AA158A150A21
:10044000050241804180418041804180410001009E
:10045000018041A051AA55AA55AA55AA550A0000E3
:100460000000958A958A958A958A85828080808801
:10047000958A958A150A050A050201000000000008
:10048000000094949CFF80ECECEC80FF8080FE11D7
:10049000FE8080FF00FE82DADA82FEA0FE82DADAD7
:1004A000A2FE0C0C0C0C0C0C0C0C0C0C0C0C0C0C04
:1004B0000C0C0C0C0C0C0C0C0C0C0C0C0C0C0C0C7C
:1004C0000C0C000000000000000000000000000014
:1004D000000000000000000000000000000000001C
:1004E000000030303030303030303030303030306C
:1004F00030303030303030303030303030303030FC
:1005000030305428000000000040FF7FFF40000012
:10051000003C8613C113C50AFC00000000FF003E2A
:10052000C3CF000000000000003CFF3FFF3C000084
:10053000000007F8FF1FFFF807000000031FFFFF80
:100540007E1E00000000000000FCFCFCFCC0DCDCA7
:10055000DCDCDCDCFCFCFC380000FCFCFCFC00000F
:100560001C1C000000000000001F1F1F9F809C9C9F
:100570009C9C9C9C9F9F8F8780809F9F9F9F80803B
:100580008080A0FE82BAAA8AFEA0E000FF80809C44
:100590009484FF80ECECEC80FF8080FE11FE808074
:1005A000FF800C0C0C0C0C0C0C0C0C0C0C0C0C0C24
:1005B0000C0C0C0C0C0C0C0C0C0C0C0C0C0C0C0C7B
:1005C0000C0C000000000000000000000000000013
:1005D000000000000000000000000000000000001B
:1005E000000030303030303030303030307070E03B
:1005F000E08000000000000000000000000000009B
:1006000000003E00000006FF06FFF1FF8000000131
:10061000FFFF0000000000000000000000000000DC
:100620000000DFDF000000FF01FFFFF01F000000FF
:10063000FFFF0000000000000000000000000000BC
:1006400000001C1C1CDCDCDC1C1C1C1C1C00000036
:10065000FFFF00000000000000000000000000009C
:1006600000008080809F9F9F8080808080000000AD
:10067000FFFF00000000000000000000000000007C
:1006800000009494949CFF9094949484FF000080C4
:10069000FFFF00000000000000000000000000005C
:1006A00000000C0C0C0C0C0C0C0C0C0C0C0E0E07A3
:1006B0000701000000000000000000000000000032
:1006C000000000000000000000000000000000002A
:1006D000000000000000000000000000000000001A
:1006E0000000601800000000000000000000000092
:1006F0000000000000000000000000007F415D5588
:10070000577F416D6D517F4155555D7F416D6D4105
:100710007F057D417D057F4155555D7F415D5D6371
:100720003E007F415D55497F117747711F000000F2
:1007300000000000000000000000000000000000B9
:10074000000000000000000000007F416D6D417F4F
:10075000007F4175151D7F417F515555457F41777C
:1007600077417F007F415D55577F416D6D417F41EE
:100770005F50507F415F50507F4155555D7F415DD7
:100780005D633E007F415F685F417F416D6D417FEA
:10079000417B77417F415D5D637F416D6D417F00AE
:1007A00000000000007F416D6D417F417B77417FFC
:1007B000415D5D633E007F417D137D417F416D6DF5
:1007C000417F417B77417F117747711F007F417DDA
:1007D000137D417F416D6D417F417B77417F117773
:1007E00047711F007F415D5D417F057D417D057F34
:1007F000417777417F4155555D7F416D6D517F5107
:100800005555457F1010FF1FC7737BFBFBFBFBFBA0
:10081000EBFBF3C71FFFFFE08F1E1E1F1D1F1F1FD7
:1008200013131F8FE0FFFFFF07919DFCFEFEFEFEEE
:10083000F8FDF107FFFFFFFFF0871F1F1E1F1F1F9F
:10084000191F87F0FFFFFF3F9F8FCFEF2FCFCFCF35
:10085000EFEFCF9F3FFFFFE08F1F1F1F1F1F1F1FC7
:100860000E0F1F8FE0FF7F3FBFBFBF3F7F7F7F7FA8
:100870003FBFBFBF3F7FA00F1F1B1F1F171F1F1FA3
:1008800007071F1F0FA01010FF00BE0056D29A08C6
:100890004CC4D6D200BE00FFFF007F006C6C6963C1
:1008A000664C1832007F00FF101000FCDE7EFC3E1C
:1008B0001E1C00161E1E1C1C1E0E005E7E7A3E00B4
:1008C00000000000000060F0F07000161E1E1E1EEA
:1008D0000E1C001E1C3EFEFEFADCE070F0F0E00094
:1008E0000000000000007DFDF9FC005E7F7B3E0003
:1008F0000000000000000E1E161C0066FFBDFEF882
:10090000D0F0B000E070F0F0B0E000161F1D0F0056
:100910000000000000005EFCF67E60F0D0F0F0E029
:10092000B0E00070F0B8FEFEF67C000E161C1E1E35
:100930001E0C000A1E0E1E1C1E0C60F0D0F0E00003
:1009400060F0B0F0E0F0F070D000004EDFDB9E0011
:10095000000000000000FEECFE76007F2F7B6F00A1
:100960000000000000007EFCEE7A000000000000A5
:100970000000000000000000000000000000000077
:100980000000000000000000000000EE2EAEAE2EC1
:100990002E2EAEAE2EAEAE2EEE0000FF84F787F404
:1009A000F784B7E784E7F784FF0000FEFEFEFE0051
:1009B000FEFA00BCBCB4F4F4B4BC00FFFFFFFFE0DF
:1009C0000B6A600D8D8D8D8D8D8DACECEC6C6CECAF
:1009D00000FAFE00FEFEFEFEFEFE8D8D8D8D8D0D5D
:1009E000606A0BE0FFFFFFFFFFFF01EC2EAE2E2E33
:1009F0002E2E2E2E2E2EAE20E001FCFD8D013C3F32
:100A0000003E00003C00018DFDFCFEFE7E7E7E7EF1
:100A10007EFEFEFEFEFE7E7E7E7E0202020303025C
:100A20000202020202020203030300BE7EFEFEFE79
:100A3000FEFC0000000000000000000000000000BC
:100A4000000000DEFEFEFE7EBEFE007CFEFE7EBEE0
:100A5000DEEEF0EEDE9E7EFEFEFC00FEFEFEFCFB09
:100A6000F3EF0FEFF7FBFDFE7E7E003E9ECEF6FA23
:100A7000E8FCFEFCF872E6DE9E3E00F9F3E7ED9F2F
:100A80003F7FFF7F3F9FEBE6F9F900FCEEFEFAFCAB
:100A9000EAF6E65E3ECEEAF6FAF0007FBBCFAF772D
:100AA000FBF9FEFE7F7FFFDFFB7F007C6E3E9A68D6
:100AB000E2FEFEFE7E7EBABEBE92007FBBFFFFDF7F
:100AC000FCE1D9BE7F7FFFDFFB7F00FCEEFEFAFE7C
:100AD000EEFEFEFEFEFEFAFEFEF2007FBBFFFFDF33
:100AE000FFFFFFFF7F7FBFCFEB7700FCEEFEFAFE3C
:100AF000EEFEFEFEFEFEFAFEFEF2007FBBFFFFDF13
:100B0000FFFFFFFF7F7FFFDFFB7F06080000000085
:100B100000000000000000000A1F0A1F0A1F0A1F31
:100B2000040E0004040E0004000000000000000099
:100B30000001010202020200030304040404101075
:100B4000002020F0C0E000C080CF8EFFA0FE2CFE71
:100B50005CFE5CFE18FC84FE82CF00C300800000B7
:100B60000000000000030307041F013F0B7F0B7F01
:100B7000037F48FF6BFF017F001F0E1F000F000067
:100B8000000000C080C302CF8EDF80FE28FC5CFE28
:100B90005CFE5CFE28FC80FE8EDF02CF008300003E
:100BA000000000010103020F001F017F4BFF4BFFFC
:100BB000007F4BFF4BFF017F003F3E7F1F3F001F29
:100BC00000000000000000C382CF84FE18FC5CFE21
:100BD0005CFE2CFEA0FE8EFF00CF80C000800000D7
:100BE0000000000000030207041F017F6BFF48FFA5
:100BF000037F0B7F0B7F003F0F1F1F3F0F1F000F57
:100C00000003020702CF8ADF8EFF60FE98FDACFF73
:100C10006CFF74FF68FC00F800800000008000801A
:100C2000000000000001002F207F6FFF50FF10FF29
:100C30004FFF60FF6BFF43EF00670007050F050FD5
:100C40000003020702CF8ADF8EFF20FE58FDACFFB3
:100C5000ACFF74FF68FC00F800800080008000801A
:100C6000000000000001000F0D3F207F4FFF50FFEC
:100C700010FF0FFF70FF60FF056F050F050F050FD9
:100C80000003020702CF8ADF8EFF20FE98FD6CFF73
:100C9000ACFFB4FF68FC00F880C040E0C0E000E0BA
:100CA000000000000001000F0D3F207F60FF4FFF9C
:100CB00010FF10FF4FFF60FF0267010300010000FB
:100CC000000000030207028F0A9F0EFF10FF6CFF57
:100CD0006CFF6CFE30FC003800800080008000005B
:100CE0000000000000000003031F001F1EFF21FF83
:100CF00021FF5EFF40FF0ADF050F0307000300002E
:100D00000000000000030207020F0AFF8EFFA0FF91
:100D10006CFF6CFE28FC0038008080C080C000C0E2
:100D20000000000000000020207F4FFF50FF10FF58
:100D30000F3F107F58FF6AFF257F02370103000134
:100D40000003020702CF8ADF8EFF60FE98FDACFF32
:100D50006CFF74FF68FC00F80080000000800080D9
:100D6000000000000001002F207F6FFF50FF10FFE8
:100D70004FFF60FF6BFF43EF00670007050F050F94
:100D80000003020702CF8ADF8EFF20FE58FDACFF72
:100D9000ACFF74FF68FC00F80080008000800080D9
:100DA000000000000001000F0D3F207F4FFF50FFAB
:100DB00010FF0FFF70FF60FF056F050F050F050F98
:100DC00000000000000000C302CF84FE30FC64FE7F
:100DD00074FE64FEA8FE8EFF02CF80C3C0E000E078
:100DE00000000000000F0F1F001F017F6BFF48FF76
:100DF000027F0B7F0B7F013F061F030700030000EC
:100E000000000000000302CF8EDF80FE28FC74FE8D
:100E100064FE74FE28FC80FE8EDF02CF80C300C01B
:100E20000000001E1E3F3F7F003F067F49FF4AFF34
:100E3000007F4AFF4BFF017F061F030F01030001E4
:100E40000000000000C080C302CF8EDF88FE64FE79
:100E500074FE64FE30FC84FE82CF00C300000000FC
:100E600000000000001E1E3F3F7F1E3F017F0B7FE2
:100E7000027F48FF6BFF017F041F02070003000091
:100E80000003020702CF8ADF8EFF60FE98FDACFFF1
:100E90006CFF74FF68FC00F8008000000080008098
:100EA000000000000001002F207F6FFF50FF10FFA7
:100EB0004FFF60FF6BFF43EF00670007050F050F53
:100EC0000003020702CF8ADF8EFF20FE58FDACFF31
:100ED000ACFF74FF68FC00F8008000800080008098
:100EE000000000000001000F0D3F207F4FFF50FF6A
:100EF00010FF0FFF70FF60FF056F050F050F050F57
:100F000000E0C0E040E080C000F868FCF4FFECFFC7
:100F10006CFF98FDA0FE8EFF8ADF02CF0207000360
:100F2000000000010103026765FF42FF0CFF0CFF98
:100F300042FF66FF217F0133000100010000000035
:100F40000000008000800080007870FCECFE6CFFE8
:100F50006CFF10FF0EFF0A9F028F020700030000C4
:100F6000000000030307050F0ADF54FF48FF32FFAC
:100F700035FF0BFF033F011F0003000000000000CE
:100F800000C080C080C00080007868FC6CFE6CFFF0
:100F900020FF0EFF0AFF028F02070003000000007F
:100FA000000101030237257F6AFF54FF187F193FB4
:100FB00003FF5BFF41FF20730020000000000000E2
:100FC000008000800000008000F868FC74FF6CFF67
:100FD000ACFF98FD60FE8EFF8ADF02CF02070003A0
:100FE000050F050F0007006743EF6BFF60FF4FFF22
:100FF00010FF50FF6FFF207F002F00010000000056
:10100000008000800080008000F868FC74FFACFF66
:10101000ACFF58FD20FE8EFF8ADF02CF02070003DF
:10102000050F050F050F056F60FF70FF0FFF10FF25
:1010300050FF4FFF207F0D3F000F00010000000018
:10104000000102011010FCF903583FBF9FCF871722
:10105000D405E1F4F603F31909E0278BD3971F9F1A
:10106000C9E0C90998F000ECC6067E7E7E7E1EDED1
:10107000DE1E7E7E7C00003F7F3F007F7F7F7C7C8A
:101080007C7C7F7F3F00FFFFFFFFFFFFFFFFFFFF35
:10109000FFFFFFFFFFFFFFFFFFFFFFFFFFFFFFFF60
:1010A000FFFFFFFFFFFFFFFFFFFFFFFFFFFFFFFF50
:1010B000FFFFFFFFFFFFFFFFFFFFFFFFFFFFFFFF40
:1010C000FFFFFFFFFFFFFFFFFFFFFFFFFFFFFFFF30
:1010D000FFFFFFFFFFFFFFFFFFFFFFFFFFFFFFFF20
:1010E000FFFFFFFFFFFFFFFFFFFFFFFFFFFFFFFF10
:1010F000FFFFFFFFFFFFFFFFFFFFFFFFFFFFFFFF00
:10110000FFFFFFFFFFFFFFFFFFFFFFFFFFFFFFFFEF
:10111000FFFFFFFFFFFFFFFFFFFFFFFFFFFFFFFFDF
:10112000FFFFFFFFFFFFFFFFFFFFFFFFFFFFFFFFCF
:10113000FFFFFFFFFFFFFFFFFFFFFFFFFFFFFFFFBF
:10114000FFFFFFFFFFFF080B00020202000009047F
:101150000000010202000005240010010524010125
:10116000010424020605240600010705810310007E
:101170004009040100020A000000070502024000C5
:101180000007058302400000040309041201000265
:10119000EF02014041233680000101020301417248
:1011A0006475696E6F204C4C430041726475626FC8
:1011B000790097113C113311DB1021115A18D2100C
:1011C000BF14B710B61000000000240027002A004A
:1011D0002D00300000000000250028002B002E000C
:1011E000310004040404040304050202020204039F
:1011F00002020202060606060606040402020204B1
:101200000404080201104080401020408040800803
:101210000204018040201002011080102040402074
:101220000000000200090F0000030401000C000090
:10123000000000000000000000000000000000DDD1
:10124000DDFDDFFDDFDDDDDF5FDA5ADA5ADF5F4427
:10125000447AA7DDDD8FF94414FF5FDD5FDA5FF5C7
:10126000FDA5ADA5ADF5FDC55CC55CC55CC55C4027
:1012700044F5FFF5DDF5AD40147557C55CC55C8FD1
:10128000F9DDDDFAAF4444DA5FDD5FFF5F443444EB
:1012900044EEEEEEEE44444414EE5EEE5E4434F56D
:1012A000ADF5DDF5FF4244C55CC55CC55C4234402C
:1012B00044E5EEE5EE42444014E55EE55E42346608
:1012C00066666666666666DF2FDFFFDFDDFFFFF3BB
:1012D000FDFFFDDDFDFFFFC32CCFFCDDDDFFFFFFCC
:1012E000FFDDFDFFFDF1FDFF2FFFFFFFFFF1FFF32E
:1012F000FDEEFDEEFDF1FDC32CFEFFFEDDF1FDFF79
:10130000FFDFDDDFFFDF0FDF2FDFEEDFEEDF0FF3CD
:10131000FFFFFFFFFFFF0FC32CFFEFDDEFDF0FFF2E
:10132000FFDDDDCFFCC10CDF2FDDEFFFEFC10CF3E4
:10133000FDFEDDFEFFC10CC32CFEEFFEEFC10C0075
:10134000C61B11241FBECFEFDAE0DEBFCDBF12E017
:10135000A0E0B1E0EEE8F2E402C005900D92A03307
:10136000B107D9F727E0A0E3B2E001C01D92AF3981
:10137000B207E1F719E0C1EAD9E004C02197FE0104
:101380000E940E20C03AD107C9F70E94031C0C949A
:1013900045210C940000CF93DF93A1E9B7E0CD91F4
:1013A000DC9111978881E7E9F7E09081892B8883A8
:1013B000CD91DC91119788819081892B8883C09190
:1013C0009307D091940798818091980780958923FD
:1013D00088830D90BC91A02D9C918081809589235C
:1013E0008C93DF91CF9108954FB18CB123B190E0F0
:1013F0008095909533E0959587953A95E1F78870BB
:1014000030E02095309535952795359527952470B2
:10141000822B942F9095907F892B0895CF93C82F7E
:101420000E94F40980919A078C2329F480919907EE
:10143000C82381E009F480E0CF9108957F928F92D4
:101440009F92AF92BF92CF92DF92EF92FF920F9353
:101450001F93CF93DF937C01EA01FA011491319637
:10146000549122962223F1F0A1E0B0E0852F8770FD
:1014700011F4B0E0A0E0E52FE695E695E695EA0FD9
:10148000FB2FF11D1E9FC0011F9F900D11240330E3
:1014900011F4880F991F289FF001299FF00D112446
:1014A000CE0FDF1FA12F012E000CBB0BF701EA0F9F
:1014B000FB1F1E161F060CF05FC180E8E816F10442
:1014C0000CF05AC1CB01850F911D57FD9A95181646
:1014D00019060CF051C1603471050CF04DC1209714
:1014E00009F44AC1CB0177FF04C088279927861BDE
:1014F000970B382F3770CB0177FD079623E0959532
:1015000087952A95E1F7282F77FF07C0332329F025
:101510002FEF280F88E0831B382FAA24BB24AE1896
:10152000BF08F7FC02C0B12CA12C90E89E19E0384E
:10153000F1050CF4912F9A19622F022E000C770BF3
:10154000462F40952F3F0CF040E0852F877887FF8E
:1015500003C08150886F8F5F9924939418160CF004
:10156000912C57FD595F559555955595950E690DDB
:10157000711D693071051CF058E0952E921A941A6D
:10158000240F50E82503B00111246E0D7F1D6A0D54
:101590007B1D1403F0011124EA0DFB1DAE014E0F5B
:1015A0005F1FE32E032E000CFF08033009F48FC0E9
:1015B0000A3F09F448C0023009F0DEC0CFEFD0E0A6
:1015C0000E2C02C0CC0FDD1F0A94E2F7C095D09517
:1015D0008D2EA058B109461B570B920E291509F400
:1015E000CBC08B01E02FE61BE91708F064C0F801BF
:1015F000E40FF51FA490B12C0E2C02C0AA0CBB1C4A
:101600000A94E2F727FD0AC0E0917803F09179038C
:10161000E00FF11FD080DC22DA28D082332381F062
:10162000273074F4E0917803F0917903680180E841
:10163000C80ED11CEC0DFD1DD080D820DB28D08237
:101640000F5F1F4FCFCFA058B109461B570B920E0B
:10165000921609F491C0EB018C2F861B891788F52F
:10166000FA01EC0FFD1FE491F0E05F010E2C02C0C7
:10167000AA0CBB1C0A94E2F727FD0AC0009178036C
:10168000109179030C0F1D1FF80180818A29808336
:10169000332379F027306CF4C0907803D09079032D
:1016A0008E0100581F4F0C0D1D1DF80180818B29E4
:1016B00080832196D1CF2F5F60587F4F4A0F5B1FE9
:1016C0008DCF2F5F60587F4F4A0F5B1FC1CFE090D7
:1016D0007803F0907903C92FD0E0E40FF51F87015C
:1016E000060F171F60587F4F6E0D7F1D40E850E0BA
:1016F0004C1B5D0BAC1BBD0B7D01EE0CFF1CC1E058
:10170000D0E0032E01C0CC0F0A94EAF7D92FB12CF8
:1017100090E080E0D12CC12C7D2E892CD801AC2EFC
:10172000CF93DF93C62FD72FC5908591332361F0D8
:10173000CA9CC02CD12C8A9D802D27302CF4B880D7
:101740001094B120BD28B992BC9022231AF0809544
:10175000B822BC28BD92DA9539F79A9451F0D72D6A
:1017600023951124EE0DF11DA40FB11DC40FD11D41
:10177000DBCFDF91CF911124DF91CF911F910F919A
:10178000FF90EF90DF90CF90BF90AF909F908F90A1
:101790007F9008950F930AEF0E941E0A0F910895FB
:1017A000DC012D913C912031310500F5DB01ED91FB
:1017B000FC91E031F105D0F4A90183E055954795FE
:1017C0008A95E1F7EE0FE40FF52FF11DEA5FFC4F6C
:1017D0002770332781E090E001C0880F2A95EAF74F
:1017E0009081982381E019F480E0089581E00895C4
:1017F0002F923F924F925F926F927F928F929F9221
:10180000AF92BF92CF92DF92EF92FF920F931F930E
:10181000CF93DF93CDB7DEB72A970FB6F894DEBF2C
:101820000FBECDBF2A01FC01A080B1807501B7FEBB
:1018300003C0FFE3EF0EF11CE6E0F594E794EA95B0
:10184000E1F7F886EF82FB01C080D1808601D7FEE8
:1018500002C0015C1F4F66E0159507956A95E1F798
:101860001E830D83BE016B5F7F4FCE0107960E94E2
:10187000D00B40E181117AC04701FFEF8F1A9F0A18
:101880009A828982BE016B5F7F4FCE0101960E94D2
:10189000D00B282E380121E0621A71087A82698201
:1018A000BE016F5F7F4FCE0107960E94D00B382E8E
:1018B00041E0E41AF108FA82E982BE016B5F7F4FD2
:1018C000CE0101960E94D00B330CE4E08E9FC00144
:1018D0001124382A23280F5F1F4F1A830983BE0162
:1018E0006F5F7F4FCE0107960E94D00BF8E08F9F6D
:1018F000C00111248229482FC9F57A8269829C820D
:101900008B82BE016F5F7F4FCE0103960E94D00B8A
:10191000782EFC82EB82BE016F5F7F4FCE01039673
:101920000E94D00BF82E1A830983BE016F5F7F4F90
:10193000CE0103960E94D00BFF0C24E0829FC001D1
:101940001124F82AF7289C828B82BE016F5F7F4F9B
:10195000CE0103960E94D00B48E0849FC001112461
:101960008F2940E1480F811101C040E0C50160E4CA
:1019700070E00E94FA1F97FD0F969C0154E0359588
:1019800027955A95E1F7C60160E470E00E94FA1FBE
:1019900097FD0F9633E0969587953A95E1F78E7F00
:1019A0009170E22FE695E80FF92FF11D88E0489F2E
:1019B000A0011124E40FF51FE15CFD4E849190E03D
:1019C000E22FE170E9871A8629853A85220F331FB5
:1019D000220F331F02C0959587952A95E2F78F70E5
:1019E0008F3031F4C20164E070E00E94FA1F815F21
:1019F0002A960FB6F894DEBF0FBECDBFDF91CF9110
:101A00001F910F91FF90EF90DF90CF90BF90AF901C
:101A10009F908F907F906F905F904F903F902F900E
:101A2000089550E040E00E94F80B91E08B3008F000
:101A300090E0892F0895CF93DF93E901FC01A08105
:101A4000B181A031B10540F5FB0120813181203108
:101A5000310510F5FA018081869586958695829FDD
:101A6000F001839FF00D1124CD0123E0959587951A
:101A70002A95E1F7E80FF91FEA5FFC4F3081A77064
:101A8000BB2781E090E001C0880FAA95EAF7288182
:101A9000222329F0832B8083DF91CF9108958095B5
:101AA0008323F9CFFC0180917002882311F13FB7A5
:101AB000F89482E08093E9002091F200822F90E078
:101AC0001816190614F481E090E0882339F028985C
:101AD00044E640936F024091F1004083222339F0A5
:101AE0002091F200211103C02BE62093E8003FBFB4
:101AF00008958FEF9FEF08952FB7F89483E08093B8
:101B0000E9009091E800892F807295FF04C09091C0
:101B1000F20080E4891B2FBF089580916702811134
:101B20000DC082E08093630284E08093640210928F
:101B300066021092650281E08093670283E692E07C
:101B40000895282F30E0F901E05EFD4E9491F901EF
:101B5000EF5FFD4E84912E513E4EF90124912223D8
:101B600009F430C09923E9F091509F30D0F4E92F67
:101B7000F0E0E354F24F0C940E20EB0DEF0DCC0D82
:101B8000E30DE70DD10DD10DD10DF20DF80DFC0DCA
:101B9000000E060ED10D0A0E909180009F77909353
:101BA0008000E22FF0E0EE0FFF1FEC52FE4EA591F9
:101BB000B4919FB7F894EC91611132C080958E2357
:101BC0008C939FBF0895909180009F7DE8CF909166
:101BD0008000977FE4CF94B59F7794BDE2CF94B512
:101BE0009F7DFBCF909190009F7790939000D9CFED
:101BF000909190009F7DF9CF90919000977FF5CFC5
:101C00009091C0009F779093C000CBCF9091C0007F
:101C10009F7DF9CF9091C200977F9093C200C1CF72
:101C20008E2BCECFCF93DF9390E0FC01EF5FFD4E84
:101C300024918E519E4EFC0184918823C9F090E03E
:101C4000880F991FFC01EA53FE4EA591B491FC0147
:101C5000EC52FE4EC591D49161110DC09FB7F8941E
:101C60008C91209582238C938881282328839FBF81
:101C7000DF91CF910895623051F49FB7F8943C9171
:101C8000822F809583238C93E8812E2BEFCF8FB703
:101C9000F894EC912E2B2C938FBFEACF3FB7F8949A
:101CA00080915F0290916002A0916102B091620206
:101CB00026B5A89B05C02F3F19F00196A11DB11DA7
:101CC0003FBFBA2FA92F982F8827BC01CD01620FE3
:101CD000711D811D911D42E0660F771F881F991F9E
:101CE0004A95D1F708958F929F92AF92BF92CF926B
:101CF000DF92EF92FF924B015C010E944E0E6B014E
:101D00007C010E944E0E6C197D098E099F09683E68
:101D1000734081059105A8F321E0821A9108A1087A
:101D2000B10888EEC80E83E0D81EE11CF11C8114B6
:101D30009104A104B10429F7FF90EF90DF90CF90B8
:101D4000BF90AF909F908F90089580937C0080E229
:101D500080937B0062E070E080E090E00E94730E70
:101D600080917A00806480937A0080917A0086FD69
:101D7000FCCF8091780090917900089540915202B3
:101D80005091530220915002309151024217530753
:101D9000B4F49091E8009570E1F39091E80092FD21
:101DA00019C08093F10080915202909153020196E4
:101DB0008F739927892B19F48EEF8093E800809117
:101DC00052029091530201969093530280935202D3
:101DD00081E0089580E00895EF92FF920F931F93A2
:101DE000CF93DF93F82E192FE62E042F81E0860F74
:101DF000880F0E94BE0E83E00E94BE0ECF2DD12F11
:101E0000EC0EFD2EF11CCE15DF05B9F007FF13C057
:101E1000FE0184910E94BE0E182F80E00E94BE0E2B
:101E2000812321968111EFCFDF91CF911F910F91E7
:101E3000FF90EF9008958881EDCF81E0F5CFDF929C
:101E4000EF92FF920F931F93CF93DF93D82E8A01C7
:101E5000EB017B01E40EF51ECE15DF0559F0D7FE30
:101E600012C0FE0184910E94BE0E21968111F4CF12
:101E70000FEF1FEFC801DF91CF911F910F91FF90DE
:101E8000EF90DF9008958881EECF0F931F93CF934B
:101E9000DF931F92CDB7DEB782E0898342E450E042
:101EA00066E471E180E80E941F0F0E948D0DDC0145
:101EB00012960D911C910115110589F0D801ED9133
:101EC000FC910280F381E02DBE016F5F7F4FC8015E
:101ED000099597FD04C0F80100851185ECCF898133
:101EE0000F90DF91CF911F910F910895615030F0C5
:101EF0002091F100FC0120830196F8CF289884E618
:101F000080936F020895AF92BF92CF92DF92EF92CB
:101F1000FF920F931F93CF93DF936C017B018B0193
:101F2000040F151FEB015E01AE18BF08C017D107E3
:101F300059F06991D601ED91FC910190F081E02D6D
:101F4000C6010995892B79F7C501DF91CF911F91C2
:101F50000F91FF90EF90DF90CF90BF90AF900895DA
:101F60008F929F92AF92BF92CF92DF92EF92FF92A9
:101F70000F931F93CF93DF936C017B018A018091B4
:101F80000C01882309F45CC080917002882309F455
:101F900057C08091560280FF05C08091E0008260AA
:101FA0008093E000E801B12C8AEFA82E93E0892EFF
:101FB0002AE3922E209711F4BB20D9F10E947C0DC8
:101FC00081110AC0AA94AA20D9F161E070E080E0F2
:101FD00090E00E94730EEECF8C171D0611F00CF0EE
:101FE0008C2F9FB7F8948092E9002091E80025FD9E
:101FF00002C09FBFDFCF282F30E0C21BD30BF701F9
:10200000815020F041914093F100FACFE20EF31E8F
:10201000BB2021F09092E800B12CEBCF8091E8003A
:1020200085FDE7CF9092E800BB24B394209709F395
:10203000F3CF5D9884E680935502101611063CF0AC
:1020400081E090E0F6019383828310E000E0C80114
:10205000DF91CF911F910F91FF90EF90DF90CF9084
:10206000BF90AF909F908F900895CF93DF931F9272
:10207000CDB7DEB76983DC01ED91FC910280F3817D
:10208000E02D41E050E0BE016F5F7F4F09950F905A
:10209000DF91CF91089583E08093E9008091F20071
:1020A000882319F08AE38093E80008950E947C0D4C
:1020B00090E00895CF93DF931F92CDB7DEB7FC0178
:1020C0008485958597FD08C02FEF3FEF35872487DE
:1020D0000F90DF91CF910895CE0101960E94520D8D
:1020E000019719F4898190E0F3CF8FEF9FEFF0CF44
:1020F0000F931F93CF93DF931F92CDB7DEB78C0161
:10210000FC018485958597FF0BC0CE0101960E9446
:10211000520D019771F4898190E0F80195878487C9
:10212000F801848595850F90DF91CF911F910F91D4
:1021300008958FEF9FEFF1CFFC018485958597FD82
:102140000BC09FB7F89482E08093E9008091F20081
:102150009FBF90E0019608959FB7F89482E0809326
:10216000E9008091F2009FBF90E00895089520E07B
:1021700044E450E16DE270E083E090E00E94CA0B1D
:1021800021E044E450E165E070E084E090E00E94EA
:10219000CA0B88E00E940E0A882319F087E080931A
:1021A00059020895809145028F5F8093450287E030
:1021B00080935902089510921601109217011092FF
:1021C00018011092190186E08093590208950F9327
:1021D000FC012681211115C064817581809149021D
:1021E00090914A02681B790B82819381E0914702AA
:1021F000F091480202E046E858E08E1B9F0B0E94D7
:102200001E0A0F9108950F93FC012681211117C01A
:10221000648175818091490290914A02681B790B13
:1022200082819381E0914702F091480202E020917F
:10223000460244E058E08E1B9F0B0E941E0A0F913D
:10224000089520E042EE56E064E270E080E190E024
:102250000E94CA0B8CE00E940E0A882319F081E0CC
:102260008093590208958CE00E940E0A882319F089
:1022700081E0809359020895CF92DF92EF92FF920E
:102280000F931F93CF93DF9385E1E82EF12C02E0AB
:1022900010E0D12CC12CDEEFD00F2D2F40EE52E0FC
:1022A00070E060E0C6010E94CA0BC09100012D2FB2
:1022B00042E552E068E370E0C017110611F06CE3EC
:1022C00070E0C7010E94CA0B80E2C80ED11C0F5FEC
:1022D0001F4F86E1E80EF11C06301105E1F680E49F
:1022E0000E940E0A882329F0C53018F4CF5FC093EE
:1022F000000180E20E940E0A882339F080910001DB
:10230000833018F081508093000184E00E940E0A0F
:10231000882321F08091000180935902DF91CF91B1
:102320001F910F91FF90EF90DF90CF900895CF9382
:10233000C0914402CF5FC093440220E04CEA50E0D9
:1023400064E070E082E290E00E94CA0BC53B18F0A6
:1023500081E080935902CF91089508958EBD0000C9
:102360000DB407FEFDCF8EB50895089590E080E08E
:102370000895FC0101900020E9F73197AF01481B57
:10238000590BBC0186E293E00C94B00F8F929F92A0
:10239000AF92BF920F931F93CF93DF93CDB7DEB76A
:1023A000A1970FB6F894DEBF0FBECDBF19A2423081
:1023B00008F44AE08E010F5D1F4F842E912CB12C42
:1023C000A12CA50194010E94A71FE62FB901CA0103
:1023D000EA30F4F4E05DD801EE938D01232B242B39
:1023E000252B79F790E080E0109719F0CD010E943D
:1023F000B911A1960FB6F894DEBF0FBECDBFDF9125
:10240000CF911F910F91BF90AF909F908F900895A3
:10241000E95CE1CFCF93DF930E94B911EC0185E530
:1024200091E00E94B9118C0F9D1FDF91CF9108950B
:102430000C94B9112F923F924F925F926F927F92BC
:102440008F929F92AF92BF92CF92DF92EF92FF92C4
:102450000F931F93CF93DF93CDB7DEB72A970FB6B5
:10246000F894DEBF0FBECDBF6B017C0188E591E023
:102470000E941812E6E0F3E08FEF819323E0E6324A
:10248000F207D9F783E791E00E940A1289E791E009
:102490000E941812C114D104E104F10421F0C70113
:1024A000B6010E94561F83E791E00E940A128EE84F
:1024B00091E00E94181260ED262E62E0362E810116
:1024C000F12C73E0D72EEAE04E2E512C612C712CAA
:1024D000F4E08F2E912CA12CB12CD8011496DC9213
:1024E00014971596DC920E94071FA30192010E9487
:1024F000751F672B682B692B21F4F80184818F5F8E
:1025000084830E94071FA30192010E94751F672BFD
:10251000682B692B39F4D80115968C9115978F5F2C
:1025200015968C93EE24EA940E94071FA50194014E
:102530000E94751FF801718360830E94071FA50127
:1025400094010E94751F7A876987D80113967C933E
:102550006E931297E0EDF2E060E071E06F1599F094
:10256000D8014D915C91208131814217530741F48C
:102570002281338189859A858217930709F470E057
:102580006F5F3696EBCF711103C0EA94E110CCCFA8
:10259000F3940A5F1F4F99E0F9129FCF83E791E010
:1025A0000E940A128DE991E00E94181200ED12E0DB
:1025B000C12CD12C760150E1752E87EB91E00E9461
:1025C00018124AE0C701B6010E94C6118FE691E0D9
:1025D0000E941812D8018D919C911197880F991F14
:1025E000880F991F019611969C938E9312968D9148
:1025F0009C911397880F991F880F991F0196139626
:102600009C938E931297612CF8018481681650F583
:10261000512C862C912CD80115968C911597581613
:10262000F8F41D827F8212968D919C911397850DEF
:10263000911D9A8389838D919C91880D991D9C830E
:102640008B839E012B5F3F4FAE01495F5F4FBE0101
:102650006F5F7F4FCE0103960E941B0D5394DBCF1B
:102660006394D2CFBFEFCB1ADB0AEB0AFB0A0A5FF7
:102670001F4FE9E0CE16D104E104F10409F09DCF2B
:1026800083E791E00E940A128BEB91E00E941812FE
:1026900090E0692E93E0792E00ED12E020E1522EB9
:1026A000D8012D913C9111972F5F3F4F12964D917C
:1026B0005C9113974F5F5F4F5E834D8316968D91AC
:1026C0009C91179701969C838B8318968D909C9074
:1026D000BFEF8B1A9B0A821B930B61E070E0181608
:1026E000190614F070E060E0892F881F8827881F82
:1026F0006B01C81AD108F401E41BF50BAF0181E0AE
:1027000090E01E161F0614F090E080E0452F441F55
:102710004427441F7C01E41AF1083A832983298164
:102720003A818B819C8128173907B1F018865F8226
:102730009E01285F3F4FAE01495F5F4FBE016B5F57
:102740007F4FCE0101960E941B0D89819A818C0DCD
:102750009D1D9A838983E3CF8D819E819A8389838E
:1027600089819A8118865F828816990691F09E0168
:10277000285F3F4FAE01495F5F4FBE016F5F7F4FE4
:10278000CE0103960E941B0D89819A818E0D9F1D9B
:10279000E5CF8B819C81C80ED91EDA82C9829E0149
:1027A000285F3F4FAE01495F5F4FBE016B5F7F4FB8
:1027B000CE0101960E941B0D18865F828D819E813D
:1027C0008E199F099A8389839E01285F3F4FAE012E
:1027D000495F5F4FBE016F5F7F4FCE0103960E943E
:1027E0001B0D0A5F1F4F6016710609F059CF83E772
:1027F00091E00E940A128091D0029091D10201963C
:1028000016E0880F991F1A95E1F790930E018093B7
:102810000D018091D2029091D302019606E0880FBB
:10282000991F0A95E1F79093100180930F01109280
:1028300099021092A2021092AB021092B40210926E
:10284000BD021092C6021092CF0201E712E081E9A8
:10285000E82E82E0F82ED8018D919D918D01009790
:1028600011F00E94BC20F801329711821082E0160C
:10287000F10689F74091E4025091E50266E0440FC9
:10288000551F6A95E1F76091E2027091E302E6E07C
:10289000660F771FEA95E1F781E0F9E0FF2EEE245D
:1028A000E39490ECA0E8DA2EB0E1CB2EE1E9F2E07F
:1028B00030E020E0833009F03FC0A085A1112FC097
:1028C000F29EF001F39EF00D1124EF56FD4FE086CD
:1028D000718360835383428394839583D682C782B6
:1028E0008F5FF6E02F0E311C883001F72A960FB665
:1028F000F894DEBF0FBECDBFDF91CF911F910F9136
:10290000FF90EF90DF90CF90BF90AF909F908F900F
:102910007F906F905F904F903F902F9008952F5F22
:102920003F4F39962730310541F6DACF2F5F3F4FC1
:10293000399627303105A1F2A085A111F7CFF10119
:10294000A085B18506811781F29EF001F39EF00DFE
:102950001124EF56FD4FE08626E0000F111F2A9547
:10296000E1F71183008336E0AA0FBB1F3A95E1F728
:10297000B383A283948395831682F782B1CF2F927B
:102980003F924F925F926F927F928F929F92AF92FF
:10299000BF92CF92DF92EF92FF920F931F93CF934C
:1029A000DF93CDB7DEB72A970FB6F894DEBF0FBE20
:1029B000CDBF8091490290914A029C01207F3A87C5
:1029C0002987A0904702B090480230EFA322D12C73
:1029D000C12CA9E04A2E512C612C712CF12CE12C38
:1029E00029843A842E0C3F1C609147027091480262
:1029F0006C0D7D1D77FF02C0615E7F4FF5E0759520
:102A00006795FA95E1F78091490290914A028E0DFF
:102A10009F1D97FD0F96E4E095958795EA95E1F760
:102A2000680F791F072E000C880B990B6115710533
:102A30008105910511F00E94561F0E94071FA301F6
:102A400092010E94751F43E050E0633071058105DB
:102A500091053CF40E94071FA30192010E94751F7B
:102A6000AB010091490210914A02C8018E0D9F1DD1
:102A70009A8389838090470290904802C4018C0D0C
:102A80009D1D9C838B83BE016F5F7F4FCE0103969C
:102A90000E94F80BB101601B710B02E0282F48EA7D
:102AA00058E0C501881999090E941E0A40E1E40E08
:102AB000F11C50E5E516F10409F092CF60E1C60E75
:102AC000D11C70E1A70EB11C80E9C816D10409F031
:102AD00085CF109211010E94F409E0900F01F0904F
:102AE000100100910D0110910E0184FF9FC082E042
:102AF000809313016701A0E1CA0ED11CDA82C9825A
:102B0000C80103969C838B83BE016F5F7F4FCE010C
:102B100003960E94110D811116C0DE82CD82045FE2
:102B20001F4F18870F83BE016B5F7F4FCE01079643
:102B30000E94110D811107C0B2E0EB0EF11CF09262
:102B40001001E0920F0181E08093110180910D014D
:102B500090910E018833910514F488E390E0C897B2
:102B6000909348028093470280910F019091100149
:102B70008831910514F488E190E0489790934A02D7
:102B8000809349020E94F40983FDE5C088E00E9419
:102B90000E0A882309F4E6C0C0904502C394C0928F
:102BA000450281E791E00E940A1281E791E00E94CC
:102BB0000A1281E791E00E940A128EED91E00E94D4
:102BC0001812D12CF12CE12C4AE0C701B6010E9469
:102BD000C61188EE91E00E940A12C701B6010E9458
:102BE0001A121C821B820B811C81013111050CF011
:102BF000B9C01A821982E980FA8061E1E616F1040F
:102C00000CF001C2BE016D5F7F4FCE0101960E94A4
:102C1000D00B882309F4F4C181E791E00E941812D7
:102C20007FEFE71AF70AFA82E982E5CF0E94F409FA
:102C300085FF2DC083E080931301C70103969A831B
:102C400089836801E1E0CE1AD108DC82CB82BE0123
:102C50006F5F7F4FCE0103960E94110D811173CFDC
:102C6000FCE0EF0EF11CFE82ED82D886CF82BE0121
:102C70006B5F7F4FCE0107960E94110D0250110924
:102C8000811161CF10930E0100930D015CCF0E9462
:102C9000F40987FF29C010921301670121E0C21ACD
:102CA000D108DA82C982C80103969C838B83BE0156
:102CB0006F5F7F4FCE0103960E94110D811143CFAC
:102CC000DE82CD82045F1F4F18870F83BE016B5FCA
:102CD0007F4FCE0107960E94110D32E0E31AF108F2
:102CE000882309F42CCF2FCF0E94F40986FF29C036
:102CF00081E080931301C70103969A838983680159
:102D000040E1C40ED11CDC82CB82BE016F5F7F4FDD
:102D1000CE0103960E94110D811115CF5CE0E50EE6
:102D2000F11CFE82ED82D886CF82BE016B5F7F4FA1
:102D3000CE0107960E94110D811105CF0E5F1F4F26
:102D4000A1CF84E00E940E0A882309F4FFCE81E01F
:102D500080931201FBCE0E94F40982FF17CF88E016
:102D600080935902809180039091810365E070E027
:102D70000E94E61F892B31F4809146028F5F837099
:102D80008093460251E9E52E52E0F52E01E712E06C
:102D9000D8018D919D918D01009721F1FC01228137
:102DA000338140910D0150910E01241B350B2158A8
:102DB0003F4F2F3F310508F02FC1248135814091CD
:102DC0000F0150911001241B350B21583F4F2F3F0D
:102DD000310508F021C10190F081E02D0190F081D2
:102DE000E02D0995E016F10699F601E912E090ED63
:102DF000492E92E0592E28E2622E21E0722E33E015
:102E0000232E4EE2842E41E0942EC0900D01D090EE
:102E10000E01E0900F01F0901001F8012081318146
:102E2000C216D3060CF46BC08481820F932F911DC0
:102E3000C816D9060CF063C022813381E216F3066E
:102E40000CF45DC08581820F932F911DE816F90661
:102E50000CF055C081E7A82E82E0B82E312CD801A5
:102E600017968C911797882309F449C0F5012081A2
:102E70003181232BE9F5815017968C93179716967D
:102E80008C9187FDDBC08AE092E00E940A128CE000
:102E900090E00E942020FC01D80116968C91169794
:102EA0008F77868312962D913C91285B3F4F832D1F
:102EB000622D0E94D81F492FB0E18B9FC0011124C1
:102EC000820F931FD8012D913C91285B3F4FB0E1B9
:102ED0004B9FA0011124240F351F918280823383E0
:102EE00022839583848310870783D501ED93FC9318
:102EF0003394B2E0AB0EB11CE0E13E12B0CF075FFD
:102F00001F4F4016510609F080CF20918003309169
:102F10008103C90187709927892B51F48091110190
:102F2000882331F0809114018F5F837080931401A6
:102F300023703327232B89F480911201882329F0F1
:102F4000809115018F5F8093150180911501873065
:102F500020F0109215011092120120911301322FCE
:102F6000330F330F320F6090490270904A02B7015D
:102F70006619770961507109809047029090480264
:102F8000C60188199909019720911201222309F499
:102F900086C0A0901501B12CF501E95CF44F249195
:102FA000230F03E04EE35BE00E941E0AF501E05DA3
:102FB000F44F2491B701661977096A5F7F4FC60104
:102FC000881999094AE05BE00F960E941E0A2A962A
:102FD0000FB6F894DEBF0FBECDBFDF91CF911F912A
:102FE0000F91FF90EF90DF90CF90BF90AF909F90A8
:102FF0008F907F906F905F904F903F902F900895AB
:103000008CED91E00BCE81E791E00E940A120F5FF8
:103010001F4F1C830B83E7CDDC011796ED91FC91CC
:1030200027812F5F27830E94BC20F80132971182ED
:1030300010828CEE91E00E940A12D4CE8CE192E0D4
:103040000E940A128BE090E00E942020FC01D8012F
:1030500016966C9116976F7712968D919C91805C65
:103060009F4F232D26952695B0E12B9F900111248B
:10307000820F931FD8012D913C91205C3F4F432D2F
:103080004370B0E14B9FA0011124240F351F7182C2
:1030900060823383228395838483668324CFE09187
:1030A0001401F0E0E05CFF4E2491230F03E04EE3B7
:1030B0005BE08BCF80E40E940E0A882359F061E028
:1030C00085E00E94120E61E08DE00E94120E81E008
:1030D00080937E0380E20E940E0A882351F060E014
:1030E00085E00E94120E60E08DE00E94120E1092A8
:1030F0007E038CE00E940E0A882349F060917E03D3
:1031000082E090E00E94671F81E080935902089559
:103110001F920F920FB60F9211242F933F938F930C
:103120009F93AF93BF9380915B0290915C02A091BB
:103130005D02B0915E0230915A0223E0230F2D37D9
:1031400058F50196A11DB11D20935A0280935B0290
:1031500090935C02A0935D02B0935E0280915F0247
:1031600090916002A0916102B09162020196A11D4E
:10317000B11D80935F0290936002A0936102B093AF
:103180006202BF91AF919F918F913F912F910F90CC
:103190000FBE0F901F90189526E8230F0296A11DD1
:1031A000B11DD2CF1F920F920FB60F9211248F93A1
:1031B0009F938091E1009091E100937F9093E100D3
:1031C00083FF0FC01092E90091E09093EB00109202
:1031D000EC0092E39093ED001092700298E09093CF
:1031E000F00082FF22C093E09093E9009091F200FA
:1031F000992319F09AE39093E8009091550299234E
:1032000041F090915502915090935502911101C057
:103210005D9A90916F02992341F090916F029150C5
:1032200090936F02911101C0289A84FF18C0809179
:10323000E2008E7E81608093E2008091E1008F7ECB
:103240008093E100809156028E7E806180935602C9
:103250009F918F910F900FBE0F901F90189580FF38
:10326000F7CF8091E2008E7E80618093E2008091B2
:10327000E1008E7E8093E100809156028E7E816017
:10328000E5CF1F920F920FB60F921124CF92DF92CB
:10329000EF92FF920F931F932F933F934F935F9360
:1032A0006F937F938F939F93AF93BF93EF93FF930E
:1032B000CF93DF93CDB7DEB76C97DEBFCDBF109253
:1032C000E9008091E80083FF25C068E0CE014596C3
:1032D0000E94760F82EF8093E8008D8987FF39C0C6
:1032E0009091E80090FFFCCF982F907609F034C1C0
:1032F0009E894F89588D2F89F88C911131C0803863
:1033000061F5809157028093F1001092F1008EEFE9
:103310008093E8006C960FB6F894DEBF0FBECDBF69
:10332000DF91CF91FF91EF91BF91AF919F918F91DD
:103330007F916F915F914F913F912F911F910F91CD
:10334000FF90EF90DF90CF900F900FBE0F901F90E7
:1033500018959EEF9093E800C7CF1092F100D5CF5B
:10336000913059F48111D3CF4130510581F68091CC
:1033700057028D7F80935702CACF933049F4811151
:10338000C6CF4130510519F6809157028260F2CFC5
:10339000953041F48091E80080FFFCCF20682093B5
:1033A000E300B5CF963009F0A9C00B8D1C8D22E04B
:1033B0001092E9001092530210925202F2122EC0A3
:1033C00010925102109250020E94450F1F8299E004
:1033D0009983FA8291E09E8390EA98879AEF998781
:1033E0002091520230915302275F3F4F3C832B8341
:1033F0008D831092E90010925302109252021093A2
:1034000051020093500249E050E0BE016F5F7F4FD0
:1034100080E00E941F0F0E94450F79CF1093510248
:10342000009350020E948D0DDC0112960D911C91AB
:103430000115110509F451C1D801ED91FC910480E9
:10344000F581E02DBE016B5E7F4FC80109950097A5
:1034500009F03EC1F80100851185EACFF3E0FF12C3
:103460000EC08F89882309F440C0823061F440E89F
:1034700067E08AEA91E10E94EC0E811148CF81E277
:103480008093EB0047CF813029F440E86BE08EE970
:1034900091E1F1CF833099F70E948D0DDC011296F6
:1034A000ED90FC908E010F5F1F4F6801E114F10455
:1034B00079F0D701ED91FC910680F781E02DB801FC
:1034C000C7010995080F111DF701E084F184EECFC3
:1034D000D8011C92F60101900020E9F73197BF0155
:1034E0006C197D0940E0C601C6CF68E871E1FB01B7
:1034F000449150E080E80E941F0F09CF973009F4F3
:10350000BECF983021F481E08093F10000CF993054
:1035100009F0FDCE837009F0B2CFE1E3F1E081E084
:1035200031E096E32191222371F08093E9003093FA
:10353000EB00DF0111972C912093EC009093ED00AC
:103540008F5F873079F78EE78093EA001092EA0068
:103550008F8980937002DBCE8B8D9C8D1092E90059
:103560001092530210925202909351028093500293
:10357000898D811192C08E899D89913A49F4813259
:1035800009F07DCF47E050E065E071E080E0B3CF27
:10359000913209F074CF833269F48F89988DB0E04D
:1035A000A0E08093010190930201A0930301B093E6
:1035B0000401ADCE803269F48091E80082FFFCCF37
:1035C00067E085E091E00E94760F8BEF8093E80042
:1035D0009ECE823209F09BCE8F8980930C01EEEF54
:1035E000FFE7859194918B3F9C4D51F1E0E0F8E02D
:1035F0008091050190910601A0910701B091080109
:10360000803B9440A105B105F1F480910C0180FD4F
:103610001AC0EE3F8AE0F80789F587E797E79183BC
:103620008083809160008093540288E19BE00FB614
:10363000F894A895809360000FBE9093600067CEC9
:10364000EEEFFAE0D5CF808191818737974709F077
:103650005ECEA89580916000886180936000809123
:10366000540280936000EE3F2AE0F20789F08091D7
:10367000FE0A9091FF0A9183808349CE80819181D7
:103680008737980751F29093FF0A8093FE0AC5CFBF
:103690001092FF0A1092FE0A3ACE0E948D0DDC01B4
:1036A00012960D911C910115110509F4E8CED8016F
:1036B000ED91FC910190F081E02DBE016B5E7F4F9A
:1036C000C8010995811123CEF80100851185EBCF42
:1036D000181619060CF41BCED2CEF1E0FF12BECEA6
:1036E0006CE871E104CF1F920F920FB60F92112474
:1036F0008F939F93AF93BF9380914C0290914D0213
:10370000A0914E02B0914F02892B8A2B8B2B81F115
:1037100090914B0280910000892780930000809156
:103720004C0290914D02A0914E02B0914F0218169A
:1037300019061A061B069CF480914C0290914D02CA
:10374000A0914E02B0914F020197A109B109809357
:103750004C0290934D02A0934E02B0934F02BF9142
:10376000AF919F918F910F900FBE0F901F90189562
:10377000809171008D7F8093710080914B029091B8
:1037800000008095892380930000E9CFE6E2F3E012
:103790001382128288EE93E0A0E0B0E084839583E8
:1037A000A683B7838BE391E0918380838FEF9FEFB4
:1037B00095878487EAE7F3E0138212828DE491E033
:1037C0009183808314828CE385831782168280E143
:1037D00080871186128613861486158616861786AC
:1037E000108A118A128A1092990710929A07A6E7F6
:1037F000B3E01196FC93EE938DE893E013969C93BF
:103800008E9312970895789484B5826084BD84B5B0
:10381000816084BD85B5826085BD85B5816085BDCB
:1038200080916E00816080936E0010928100809183
:10383000810082608093810080918100816080930B
:103840008100809180008160809380008091910050
:1038500082608093910080919100816080939100BB
:10386000809190008160809390008091C10084607D
:103870008093C1008091C10082608093C1008091DB
:10388000C10081608093C1008091C30081608093FA
:10389000C3008091C00082608093C0008091C2000C
:1038A00081608093C20080917A00846080937A0066
:1038B00080917A00826080937A0080917A008160A2
:1038C00080937A0080917A00806880937A001092C9
:1038D000700210925702109256028091D7008160B8
:1038E0008093D70080EA8093D80089B5806189BD34
:1038F00089B5826089BD09B400FEFDCF61E070E04A
:1039000080E090E00E94730E8091D8008F7C8061EF
:103910008093D8008091E000807F8093E0008091C8
:10392000E1008E7E8093E1008DE08093E200559A65
:10393000209A8FEF9FEF9093330380933203CFB79A
:10394000F89480915802811127C0E3EFF1E184914E
:10395000E2E1F2E19491E82FF0E0EE0FFF1FEA536D
:10396000FE4EA591B491EC91E92321F461E081E14F
:103970000E94A10D61E081E10E94120E8CB5806170
:103980008CBD8CB580648CBD61E08FE00E94120E0E
:1039900061E080E10E94120E809158028F5F809357
:1039A0005802CFBF61E084E00E94120E61E08CE01B
:1039B0000E94120E62E084E10E94120E62E083E136
:1039C0000E94120E62E082E10E94120E62E085E126
:1039D0000E94120E62E087E00E94120E62E088E010
:1039E0000E94120EEEEEF1E1E491F0E0EE0FFF1F07
:1039F000EC52FE4E8591949190939207809391079B
:103A0000EDE0F2E1E491E0939707E6EEF1E1E49175
:103A1000F0E0EE0FFF1FEC52FE4E859194919093D3
:103A2000940780939307E5E0F2E1E491E09398072F
:103A300061E086E00E94120E61E086E00E94A10D26
:103A400061E070E080E090E00E94730E60E086E04C
:103A50000E94A10D6AE070E080E090E00E94730E89
:103A600061E086E00E94A10D0E94CB098EEA0E94CF
:103A7000AE1185ED0E94AE1180EF0E94AE1188EA72
:103A80000E94AE118FE30E94AE1183ED0E94AE1131
:103A900080E00E94AE1180E40E94AE118DE80E9489
:103AA000AE1184E10E94AE1180E20E94AE1180E06E
:103AB0000E94AE1181EA0E94AE1188EC0E94AE1104
:103AC0008AED0E94AE1182E10E94AE1181E80E944F
:103AD000AE118FEC0E94AE1189ED0E94AE1181EF04
:103AE0000E94AE118BED0E94AE1180E40E94AE11D7
:103AF00084EA0E94AE1186EA0E94AE118FEA0E940B
:103B0000AE110E94CB0980E20E94AE1180E00E94BB
:103B1000AE1181E20E94AE1180E00E94AE118FE7EB
:103B20000E94AE1182E20E94AE1180E00E94AE11AE
:103B300087E00E94AE11E0919307F0919407808195
:103B400090919807892B8083E0919107F0919207DB
:103B50009081809197078095892380830E94F40942
:103B6000807A803A59F4CDE8D3E089910E94AE1171
:103B700037E0CD38D307C9F70000FECF82E090E0F0
:103B80000E945F1F882359F061E085E00E94120EB9
:103B900061E08DE00E94120E81E080937E038091AF
:103BA00064008160809364008091640082608093EF
:103BB0006400809164008068809364008091640058
:103BC00080648093640080916500816080936500CB
:103BD00082E380937F0384E1809382038091640079
:103BE0008E7F8093640087EC0E94A50E8C018EE589
:103BF0000E94A50EEC010E944E0E00951095C095F6
:103C0000D0950C9FD0010D9FB00D1C9FB00D1124BD
:103C10009B01AC0120953095409550950E94941FD2
:103C20006B017C010E944E0E6C0D7D1D8E1D9F1D33
:103C3000611571058105910511F00E94561F809153
:103C4000640081608093640061E070E080E090E057
:103C50000E941A120DE813E02DE8E22E27E0F22E62
:103C6000C0E0D0E0DD24D3942FB7F89480915B02BC
:103C700090915C02A0915D02B0915E022FBF2091F5
:103C80008B03222391F020918303E82FE21BE09322
:103C90008C0320918003309181032F5F3F4F30933D
:103CA00081032093800310928B03409187035091EE
:103CB00088036091890370918A0384179507A6078A
:103CC000B7079CF4481B423050F083B7817F83BF15
:103CD00083B7816083BF889583B78E7F83BF20972A
:103CE00009F4C2CF0E940000BFCF20918203AC0133
:103CF000BD01420F511D611D711D409387035093FB
:103D000088036093890370938A038093830390935D
:103D10008403A0938503B0938603D0928B03809194
:103D2000990780939A070E94F4098093990780E08D
:103D3000B82FB111BFEFF8010024B193B193B19343
:103D4000B1930394D1F7E0915902F0E0EE0FFF1F19
:103D5000EE54FE4E85919491FC0109959DE8A92EA3
:103D600093E0B92EF50181915F010E94AE11EA1432
:103D7000FB04C1F7B4CF8F929F92AF92BF92CF92C4
:103D8000DF92EF92FF92CF93DF93EC01688179810C
:103D90008A819B81611571058105910521F464E299
:103DA00079ED8BE597E02DE133EF41E050E00E94A3
:103DB000751F49015A019B01AC01A7EAB1E40E94B9
:103DC000941F6B017C01ACEEB4EFA50194010E943D
:103DD000A21FC60ED71EE81EF91EF7FE06C081E020
:103DE000C81AD108E10880E8F80AC882D982EA82B4
:103DF000FB82C701B6019F77DF91CF91FF90EF90D3
:103E0000DF90CF90BF90AF909F908F9008958F924A
:103E10009F92AF92BF92CF92DF92EF92FF9260910A
:103E20001A0170911B0180911C0190911D01611577
:103E300071058105910521F464E279ED8BE597E048
:103E40002DE133EF41E050E00E94751F49015A0116
:103E50009B01AC01A7EAB1E40E94941F6B017C01B5
:103E6000ACEEB4EFA50194010E94A21FC60ED71EAE
:103E7000E81EF91EF7FE06C081E0C81AD108E10865
:103E800080E8F80AC0921A01D0921B01E0921C014E
:103E9000F0921D01C701B6019F77FF90EF90DF9070
:103EA000CF90BF90AF909F908F90089560931A012C
:103EB00070931B0180931C0190931D010895F99943
:103EC000FECF92BD81BDF89A992780B50895262F1F
:103ED000F999FECF1FBA92BD81BD20BD0FB6F894EF
:103EE000FA9AF99A0FBE01960895052E97FB1EF4D3
:103EF00000940E948C1F57FD07D00E94A71F07FC4B
:103F000003D04EF40C948C1F50954095309521951C
:103F10003F4F4F4F5F4F08959095809570956195F5
:103F20007F4F8F4F9F4F08950E94C91FA59F900DEF
:103F3000B49F900DA49F800D911D11240895B7FF8B
:103F40000C94941F0E94941F821B930B0895A1E26E
:103F50001A2EAA1BBB1BFD010DC0AA1FBB1FEE1F03
:103F6000FF1FA217B307E407F50720F0A21BB30B4E
:103F7000E40BF50B661F771F881F991F1A9469F7CA
:103F800060957095809590959B01AC01BD01CF0126
:103F90000895A29FB001B39FC001A39F700D811D22
:103FA0001124911DB29F700D811D1124911D089542
:103FB00087FB082E062687FD819567FD61950E9487
:103FC00014200EF4919507FC81950895AA1BBB1B44
:103FD00051E107C0AA1FBB1FA617B70710F0A61B09
:103FE000B70B881F991F5A95A9F780959095BC012A
:103FF000CD01089597FB072E16F4009407D077FDA6
:1040000009D00E94E61F07FC05D03EF490958195EB
:104010009F4F0895709561957F4F0895EE0FFF1F94
:104020000590F491E02D0994991B79E004C0991F43
:10403000961708F0961B881F7A95C9F78095089502
:104040000F931F93CF93DF938230910510F482E09A
:1040500090E0E0919D07F0919E0730E020E0B0E015
:10406000A0E0309799F42115310509F44AC0281BC6
:10407000390B24303105D8F58A819B816115710592
:1040800089F1FB0193838283FE0111C0408151813C
:104090000281138148175907E0F04817590799F42E
:1040A000109761F012960C93129713961C93329608
:1040B000CF01DF91CF911F910F91089500939D073C
:1040C00010939E07F4CF2115310551F04217530785
:1040D00038F0A901DB019A01BD01DF01F801C1CF70
:1040E000EF01F9CF90939E0780939D07CDCFFE01FE
:1040F000E20FF31F81939193225031093983288372
:10410000D7CF20919B0730919C07232B41F420911E
:1041100020013091210130939C0720939B0720912F
:104120001E0130911F012115310541F42DB73EB715
:104130004091220150912301241B350BE0919B07F4
:10414000F0919C07E217F307A0F42E1B3F0B2817F2
:10415000390778F0AC014E5F5F4F2417350748F000
:104160004E0F5F1F50939C0740939B078193919341
:104170009FCFF0E0E0E09CCFCF93DF930097E9F092
:10418000FC01329713821282A0919D07B0919E0785
:10419000ED0130E020E01097A1F420813181820F01
:1041A000931F20919B0730919C072817390709F02E
:1041B00061C0F0939C07E0939B07DF91CF91089536
:1041C000EA01CE17DF07E8F54A815B819E014115C0
:1041D0005105B1F7E901FB83EA8349915991C40F75
:1041E000D51FEC17FD0761F4808191810296840F41
:1041F000951FE90199838883828193819B838A83B8
:10420000F0E0E0E012968D919C9113970097B9F53C
:104210002D913C911197CD010296820F931F209111
:104220009B0730919C072817390739F6309751F5CD
:1042300010929E0710929D07B0939C07A0939B0736
:10424000BCCFD383C28340815181840F951FC8178F
:10425000D90761F44E5F5F4F88819981480F591FDC
:10426000518340838A819B81938382832115310509
:1042700009F0B0CFF0939E07E0939D079ECFFD011C
:0E428000DC01C0CF13821282D7CFF894FFCF9B
:10428E0003FFFFFFFF00E100000000000014001418
:10429E00000000020000000000000100000000000D
:1042AE009F07800000000000E710000000000311CF
:1042BE0000C18081000000000000003510B00F56D4
:1042CE00104B109C105A10781000000000AD118396
:1042DE000FB611B5110D0A0053657420616C6C2078
:1042EE006368756E6B7320746F20736F6C696420D6
:1042FE002D2000446F6E6521005365742073656533
:10430E006420746F206C6576656C202D2000506CD7
:10431E0061636520726F6F6D73202D2000496D7083
:10432E0072696E7420726F6F6D7320746F2061727C
:10433E00726179202D2000723A20004372656174FB
:10434E00652068616C6C776179732062657477653E
:10435E00656E20726F6F6D73202D200023002D2D42
:10436E002D4C6576656C20002D2D2D0044657374E3
:10437E00726F79656420616E204F626A6563742086
:10438E006F7220456E746974790043726561746949
:10439E006E6720616E20456E656D790043726561B2
:1043AE0074696E6720616E20456E746974790000C1
:00000001FF
