:100000000C9412130C943A130C943A130C943A1364
:100010000C943A130C943A130C943A130C943A132C
:100020000C943A130C943A130C941E250C948D25C1
:100030000C943A130C943A130C943A130C943A130C
:100040000C943A130C943A130C943A130C943A13FC
:100050000C943A130C943A130C943A130C94D42441
:100060000C943A130C943A130C943A130C943A13DC
:100070000C943A130C943A130C943A130C943A13CC
:100080000C943A130C943A130C943A130C943A13BC
:100090000C943A130C943A130C943A130C943A13AC
:1000A0000C943A130C943A130C943A130401038FF2
:1000B00080C000400000000000000000FF40404001
:1000C000404040404040404040FF40404040404071
:1000D000404040404040FF40404040404040404061
:1000E0004040400101030301010303041F08020310
:1000F000F9000F0400000000020A121A22C0020BCD
:10010000000020C1660931000000900E00000500CB
:1001100000A17B83AB00003000000801C200650035
:100120000000000040000B00000000000000000084
:100130000050000F0005000000000000000050000B
:100140001300090000000000000000100000000D76
:100150000000000000000000050501010303041F6A
:10016000101800F0F0F8F0F8F8FCF8FCFCFEFCFECB
:10017000FEFFFEFFFCFEFCFEF8FCF8FCF0F8F0F8D9
:1001800000F0006363FF7FFFFFFF9FFFE7FFF9FFC2
:10019000FFFFFFFFFFFFFFFFFFFFFFFF7FFF7FFF6F
:1001A000007F000E0C1E0C1F183F1A3F357F357F55
:1001B0006BFF6BFF357F357F1A3F183F0C1F0C1EFE
:1001C000000E00F0F0F8F0F8F8FCF8FCFCFEFCFE85
:1001D000FEFFFEFFFCFEFCFEF8FCF8FCF0F8F0F879
:1001E00000F0007F7FFF7FFFFFFFFFFFFFFFFFFFAC
:1001F000FFFFFFFFF9FFE7FF9FFFFFFF7FFF63FFA9
:100200000063000E0C1E0C1F183F1A3F357F357F10
:100210006BFF6BFF357F357F1A3F183F0C1F0C1E9D
:10022000000E00F0F0F8F0F8F8FCF8FCFCFEFCFE24
:10023000FEFFFEFF7CFE7CFE38FCB8FC10F8F0F8F8
:1002400000F0007F7FFF7FFFF9FFE7FF9FFFFFFFC9
:10025000FFFFF0FFF9FFF8FFFCFFFCFF7EFF63FFED
:100260000063000E0C1E0C1F183F1A3F357F357FB0
:100270006BFF6BFF357F357F1A3F183F0C1F0C1E3D
:10028000000E00F0F0F810F8B8FC38FC7CFE7CFEA4
:10029000FEFFFEFFFCFEFCFEF8FCF8FCF0F8F0F8B8
:1002A00000F0006363FF7EFFFCFFFCFFF8FFF9FF37
:1002B000F0FFFFFFFFFF9FFFE7FFF9FF7FFF7FFFDB
:1002C000007F000E0C1E0C1F183F1A3F357F357F34
:1002D0006BFF6BFF357F357F1A3F183F0C1F0C1EDD
:1002E000000E101800F0F0F8F0F8F8FCF8FCFCFE36
:1002F000FCFEFEFFFEFFFCFEFCFEF8FC80F800802A
:100300000000000000FFFFFFFFFF7FFFBFFF3FFF78
:10031000FFFFFFFFFFFFFFFFFFFFFFFFFFFFFFFFED
:10032000FCFF00FC000F0F1F0F1F1C3F1D3F3E7FF7
:100330003F7F7FFF7FFF3F7F3F7F1F3F1F3F0F1F9D
:100340000F1F000F00000000008080F8F8FCFCFE8A
:10035000FCFEFEFFFEFFFCFEFCFEF8FCF8FCF0F8E5
:10036000F0F800F000FCFCFFFFFFFFFFFFFFFFFFC6
:10037000FFFFFFFFFFFFFFFF3FFFBFFF7FFFFFFF0D
:10038000FFFF00FF000F0F1F0F1F1F3F1F3F3F7F8B
:100390003F7F7FFF7FFF3F7F3E7F1D3F1C3F0F1F43
:1003A0000F1F000F000000000000008080C0C0E0B0
:1003B000C0E0E0F0E0F0F0F8F0F8F8FC78FC70F85D
:1003C000F0F800F000E0E0F8F8FCFCFF7FFF7FFFB2
:1003D000FFFFFFFFFFFF41FF6CFF20FF36FF10FF15
:1003E000FFFF00FF000F0F1F0F1F1F3F1C3F3B7F32
:1003F000387F7FFF7FFF207F377F163F1A3F081F20
:100400000F1F000F00F0F0F870F878FCF8FCF0F81F
:10041000F0F8E0F0E0F0C0E0C0E080C00080000054
:100420000000000000FFFFFF10FF36FF20FF6CFF01
:1004300041FFFFFFFFFFFFFF7FFF7FFFFCFFF8FC97
:10044000E0F800E0000F0F1F081F1A3F163F377F2C
:10045000207F7FFF7FFF387F3B7F1C3F1F3F0F1FA9
:100460000F1F000F0000000000000000000000004F
:10047000000000000000000000000000000000007C
:100480000000000000E0E0F0F0F8F8FCF8FCFCFEF2
:10049000FCFEECFED4FEB4FEB4FEA8FCD8FCF0F8E2
:1004A000E0F000E00009010B031F071F073F0F3FAB
:1004B0000F3F0F3F0F3F0F3F0F3F073F071F031F28
:1004C000010B000900000000008080C0C0E0E0F0E7
:1004D000E0F060F0A0F0A0F060F0C0E080C000802C
:1004E000000000000000003F3F7F7FFFFFFFFFFF95
:1004F000FFFFFEFFF9FFF7FFF7FFF8FF7FFF3F7FEA
:10050000003F0000000000080008001C001D013F23
:10051000013F013F013F013F013F001D001C00085A
:10052000000800000000000000E0E0F8F8FCFCFE1D
:10053000FEFFE6FF1AFFF6FF0CFEF8FCE0F800E015
:1005400000000000000000000007071F1F3F3F7F62
:100550007FFF7FFF7FFF7EFF3F7F1F3F071F00075B
:10056000000000000000000000080008001C001C43
:10057000003E003E003E003E001C001C000800083B
:10058000000000000000000000000000008080C0AB
:1005900080C080C080C080C080C00080000000009B
:1005A00000000000000000FCFCFEFEFFFFFFFFFF5C
:1005B000FFFFF9FFE6FFDEFFDDFFE3FFFEFFFCFECE
:1005C00000FC0000000000080009011F031F073F96
:1005D000073F073F073F073F073F031F011F000972
:1005E0000008000000F0D0F8D0F8B0FCB0FC70FEBD
:1005F00060FEE0FFE6FF7CFE7CFEB8FCB8FCD0F8B5
:10060000D0F800F000E0A0F1A0F171FB41FFBBFFCA
:10061000BBFF76FF76FFBBFFBBFF41FF71FBA0F185
:10062000A0F100E0000F0F1F0F1F173F173F327F91
:10063000327F7DFF7DFF3E7F3E7F1F3F1F3F0F1FAD
:100640000F1F000F00F0D0F8D0F8B8FCB8FC7CFE0B
:100650007CFEE6FFE0FF60FE70FEB0FCB0FCD0F870
:10066000D0F800F000E0A0F1A0F171FB41FFBBFF6A
:10067000BBFF76FF76FFBBFFBBFF41FF71FBA0F125
:10068000A0F100E0000F0F1F0F1F1F3F1F3F3E7F15
:100690003E7F7DFF7DFF327F327F173F173F0F1F69
:1006A0000F1F000F00F0D0F8D0F8B8FCB8FC7CFEAB
:1006B0007CFECEFF0EFF0CFE1CFE98FC18FCD0F852
:1006C000D0F800F000E0A0F1A0F171FB41FFBBFF0A
:1006D000BBFF76FF76FFBBFFB8FF41FF70FBA0F1C9
:1006E000A0F100E0000F0F1F0F1F193F193F367FC9
:1006F000367F7DFF7DFF3E7F3E7F1F3F1F3F0F1FE9
:100700000F1F000F00F0D0F8D0F818FC98FC1CFE6A
:100710000CFE0EFFCEFF7CFE7CFEB8FCB8FCD0F8D1
:10072000D0F800F000E0A0F1A0F170FB41FFB8FFAD
:10073000BBFF76FF76FFBBFFBBFF41FF71FBA0F164
:10074000A0F100E0000F0F1F0F1F1F3F1F3F3E7F54
:100750003E7F7DFF7DFF367F367F193F193F0F1F9C
:100760000F1F000F081000FE00FE38FE38FE38FE96
:1007700000FE00FE000000270027022700270227B6
:10078000002700270000000000FF1CFF38FE38FE95
:1007900000FC000000000000001301270027024FAA
:1007A000004F000000000000000000FF1CFF00FCE4
:1007B000000000000000000000000013012F004FA7
:1007C00000000000000000000000000000FF00002A
:1007D000000000000000000000000000004F0000CA
:1007E0000000000000000000000000FC1CFF00FFF3
:1007F00000000000000000000000004F012F001367
:10080000000000000000000000FC38FE38FE1CFF65
:1008100000FF000000000000004F024F00270127EA
:1008200000130000000000FEFCFE3CFE3CFE3CFE0F
:10083000FCFE00FE000000270327022702270227F4
:10084000032700270000000000FFFEFF3CFEF8FE2B
:1008500000FC000000000000001301270227074FE2
:10086000004F000000000000000000FFFCFF00FC43
:10087000000000000000000000000013012F004FE6
:1008800000000000000000000000000000FF000069
:10089000000000000000000000000000004F000009
:1008A0000000000000000000000000FCFEFF00FF50
:1008B00000000000000000000000004F012F0013A6
:1008C000000000000000000000FCF8FE3CFEFEFFFF
:1008D00000FF000000000000004F074F0227012723
:1008E00000130000000000FCA8FCA8FEA0FE80FE93
:1008F00000FC00FC00000027022702270227022735
:10090000022700270000000000FE54FEA0FE00FEAB
:1009100000F8000000000000001301270227044F28
:10092000004F000000000000000000FE00FE00F884
:10093000000000000000000000000013002F004F26
:1009400000000000000000000000000000FE0000A9
:10095000000000000000000000000000004F000048
:100960000000000000000000000000F800FE00FE93
:1009700000000000000000000000004F002F0013E6
:10098000000000000000000000F800FEA0FE54FE81
:1009900000FE000000000000004F044F0227012766
:1009A0000013000000000038007C00FE08FE08FE76
:1009B000107C0038000000200020002000200020D3
:1009C0000020002000000000001C00FE08FE20FEA9
:1009D0000070000000000000001000200020004017
:1009E00000400000000000000000001C00FE00703D
:1009F0000000000000000000000000100020004087
:100A000000000000000000000000000000FE0000E8
:100A10000000000000000000000000000040000096
:100A200000000000000000000000007000FE001C3C
:100A30000000000000000000000000400020001046
:100A40000000000000000000007000FE08FE08FE2C
:100A5000001C0000000000000040004000200020BA
:100A600000100000000000FCF8FC00FCA8FCA8FC42
:100A7000F8FC00FC000000270327002702270227BC
:100A8000032700270000000000FEFCFEA8FCF0FC8D
:100A900000F8000000000000001301270227074FA4
:100AA000004F000000000000000000FEF0FE00F813
:100AB000000000000000000000000013032F004FA2
:100AC00000000000000000000000000000FE000028
:100AD000000000000000000000000000004F0000C7
:100AE0000000000000000000000000F8F0FE00FE22
:100AF00000000000000000000000004F032F001362
:100B0000000000000000000000F8F0FCA8FCFCFE63
:100B100000FE000000000000004F074F02270127E1
:100B200000130000000000F848FC48FC9CFE9CFEFE
:100B300048FC48FC00F8003F017F017F02FF02FFF4
:100B4000017F017F003F00F888FC88FC1CFE1CFE32
:100B500088FC88FC00F8003F027F027F05FF05FF4C
:100B6000027F027F003F00F808FC08FC1CFE1CFE10
:100B700008FC08FC00F8003F057F057F0AFF0AFF1C
:100B8000057F057F003F00F808FC08FC1CFE1CFEEA
:100B900008FC08FC00F8003F0A7F0A7F14FF14FFDE
:100BA0000A7F0A7F003F00F808FC08FC1CFE1CFEC0
:100BB00008FC08FC00F8003F147F147F28FF28FF82
:100BC000147F147F003F00F808FC08FC1CFE1CFE8C
:100BD00008FC08FC00F8003F287F287F50FF50FFEA
:100BE000287F287F003F007858FC5CFEBEFFBEFFD8
:100BF0005CFE58FC0078003C307E307E60FF60FF79
:100C0000307E307E003C007858FC5CFEBEFFBEFFAC
:100C10005CFE58FC0078003C307E307E60FF60FF58
:100C2000307E307E003C007858FC5CFEBEFFBEFF8C
:100C30005CFE58FC0078003C307E307E60FF60FF38
:100C4000307E307E003C007840FC40FE80FF80FF1C
:100C500040FE40FC0078003C307E307E60FF60FF4C
:100C6000307E307E003C007840FC40FE80FF80FFFC
:100C700040FE40FC0078003C307E307E60FF60FF2C
:100C8000307E307E003C007840FC40FE80FF80FFDC
:100C900040FE40FC0078003C307E307E60FF60FF0C
:100CA000307E307E003C008080C0C0E0E0F0E0F0AC
:100CB000C0E080C00080003F3D7F3D7F7BFF7BFF29
:100CC0003D7F3D7F003F008080C0C0E0E0F0E0F06D
:100CD000C0E080C00080003F3D7F3D7F7BFF7BFF09
:100CE0003D7F3D7F003F008080C0C0E0E0F0E0F04D
:100CF000C0E080C00080003F3D7F3D7F7BFF7BFFE9
:100D00003D7F3D7F003F008000C000E000F000F02C
:100D100000E000C00080003F027F027F04FF04FF6C
:100D2000027F027F003F008000C000E000F000F082
:100D300000E000C00080003F027F027F04FF04FF4C
:100D4000027F027F003F008000C000E000F000F062
:100D500000E000C00080003F027F027F04FF04FF2C
:100D6000027F027F003F171000000000000000809B
:100D700080C0C0E0C0E0E0F0E0F070F878FCB8FCC3
:100D8000BCFEDCFEEEFFECFE74FE70FC78FCF0F8BE
:100D9000F0F8E0F000E000F8F8FCFCFFFFFF1FFFB8
:100DA000EFFFF3FF3DFF1EFF0FFF07FF03FF03FFF2
:100DB00001FFFEFFFEFFFFFFFFFFFFFF00FFFFFF42
:100DC000FFFF00FF00E0E0F0F0F8F0F878FC70FCC6
:100DD00074FEECFEEEFFDCFEBCFEB8FC78FC70F8A6
:100DE000E0F0E0F0C0E0C0E080C000800000000063
:100DF000000000FFFFFFFFFF00FFFFFFFFFFFFFFFF
:100E0000FEFFFEFF01FF03FF03FF07FF0FFF1EFFB3
:100E10003DFFF3FFEFFF1FFFFFFFFCFFF8FC00F8B3
:100E2000000000000000008080C0C0E0C0E0E0F0F2
:100E3000E0F070F878FCB8FCBCFEDCFEEEFFECFEE7
:100E400074FE70FC78FCF0F8F0F8E0F000E000F8D8
:100E5000F8FCFCFFFFFF1FFFEFFFF3FF3DFF1E3F0E
:100E60000F1F070F0307030701FFFEFFFEFFFFFF32
:100E7000FFFFFFFF00FFFFFFFFFF00FF00E0E0F0CC
:100E8000F0F8F0F878FC70FC74FEECFEEEFFDCFE8F
:100E9000BCFEB8FC78FC70F8E0F0E0F0C0E0C0E028
:100EA00080C0008000000000000000FFFFFFFFFF87
:100EB00000FFFFFFFFFFFFFFFEFFFEFF01FF030735
:100EC0000307070F0F1F1E3F3DFFF3FFEFFF1FFF3D
:100ED000FFFFFCFFF8FC00F80F2000FF00FF00FF01
:100EE00000FF00FF00FFFFFF8FFF4FFF1FFFFFFF0F
:100EF00000FFFFFFFFFF00FF00FF00FF00FF00FFFC
:100F000000FF00FFFFFFFFFFFFFFFFFFFFFF00FFEE
:100F1000FFFFFFFF00FF80FFC0FFC0FFE0FFE0FF1B
:100F2000F0FFF7FFEFFFEFFF5FFF5FFF007F3F7F07
:100F30001F3F003F0F1F070F070F030703070103A2
:100F4000010300010001000000000000000000009B
:100F5000000000FFFFFFFFFF00FFFFFF1FFF4FFF2D
:100F60008FFFFFFF00FF00FF00FF00FF00FF00FFFB
:100F700000FFFFFFFFFF00FFFFFFFFFFFFFFFFFF7F
:100F8000FFFF00FF00FF00FF00FF00FF00FF003F2A
:100F90001F3F3F7F007F5FFF5FFFEFFFEFFFF7FF28
:100FA000F0FFE0FFE0FFC0FFC0FF80FF0000000097
:100FB0000000000000000000000100010103010327
:100FC00003070307070F070F0F1F000000000000B3
:100FD0000000000000FFFFFF8FFF4FFF1FFFFFFF1C
:100FE00000FFFFFFFFFF00FF000000000000000007
:100FF000000000FFFFFFFFFFFFFFFFFFFFFF00FFFD
:10100000FFFFFFFF00FF80C0C0E0C0E0E0F0E0F0C5
:10101000F0FFF7FFEFFFEFFF5FFF5FFF007F3F7F16
:101020001F3F003F0F1F070F070F030703070103B1
:1010300001030001000100000000000000000000AA
:10104000000000FFFFFFFFFF00FFFFFF1FFF4FFF3C
:101050008FFFFFFF00FF0000000000000000000005
:1010600000FFFFFFFFFF00FFFFFFFFFFFFFFFFFF8E
:10107000FFFF00FF00000000000000000000003F34
:101080001F3F3F7F007F5FFF5FFFEFFFEFFFF7FF37
:10109000F0FFE0F0E0F0C0E0C0E080C00000000041
:1010A0000000000000000000000100010103010336
:1010B00003070307070F070F0F1F0820FDFFFCFFA3
:1010C000FEFF7CFF00FFFFFFFFFF00FF03FF7BFF32
:1010D0007CFFFEFF00FFFFFFFFFF00FF7FFF3EFFE3
:1010E000DEFFC0FF00FFFFFFFFFF00FF3EFF7FFFAF
:1010F0003FFF3F7F007F1F3F1F3F001F00FFFFFF9D
:10110000FFFF00FF7DFFFEFFFCFFFDFF00FFFFFF75
:10111000FFFF00FFFEFF7CFF7BFF03FF00FFFFFFE1
:10112000FFFF00FFC0FFDEFF3EFF7FFF001F1F3FEE
:101130001F3F003FBFFF3FFF7FFF3EFF00FFFFFF5E
:10114000FFFFFFFF00FFFFFFFFFF00FF00FFFFFFAC
:10115000FFFFFFFF00FFFFFFFFFF00FF00FFFFFF9C
:10116000FFFFFFFF00FFFFFFFFFF00FF0007070F6C
:10117000070F0F1F003F1F3F1F3F001F00FFFFFF14
:10118000FFFF00FFFFFFFFFFFFFF00FF00FFFFFF6C
:10119000FFFF00FFFFFFFFFFFFFF00FF00FFFFFF5C
:1011A000FFFF00FFFFFFFFFFFFFF00FF001F1F3FCC
:1011B0001F3F003F0F1F070F070F00070A20808007
:1011C000000050500000A8A80000000000AA000085
:1011D0000055AAAA000055550000AAAA0000000068
:1011E00000AA00200055AAAA000055550000AAAA8E
:1011F0000000000000AA000000550A0A00000505D2
:101200000000020200000000000A00000005005576
:10121000000000AA00000000A8A800005050000034
:1012200080800055002000AA00000000AAAA00004B
:1012300055550000AAAA0055000000AA00000000B1
:10124000AAAA000055550000AAAA00050000000A3D
:101250000000000002020000050500000A0A00006C
:101260000040000000A0000000000000000000009E
:10127000000000000055000000AA0000000000006F
:1012800000000020000000000055000000AA00003F
:101290000000000000000000000000000005000049
:1012A000000200000000000000000000000000003C
:1012B0000000000000000000000000A80000004046
:1012C000000000000020000000000000000000AA54
:1012D00000000055000000000000000000000000B9
:1012E000000000AA000000550000000000000000FF
:1012F00000000000000000020000000500000A28B5
:101300002040402090CCE2FAF9FD9FEFE0F0E7E7C3
:101310000F07F7F93F1FDFE7F3FDFCFE7CBCF0F899
:10132000F3F307037B7CFE7F0F030106020300003B
:101330000000FDF9FAE2CC9020404020F9F7070FB9
:10134000E7E7F0E0EF9FBC7CFEFCFDF3E7DF1F3F2B
:101350007FFE7C7B0307F3F3F8F00000000003023C
:101360000601030F1610000000000000000000003E
:10137000000080808080C0C0C0C0E0E0E0E0C0C06D
:10138000C0C08080808000000000000000000000DD
:101390000000040404040E0E0E0E1F1F1F1F3F3F0B
:1013A0003F3F7F7F7F7FFFFFFFFF7F7F7F7F3F3F4D
:1013B0003F3F1F1F1F1F0E0E0E0E040404040000EB
:1013C000000000F0E0F010F8D0F838FCB8FC7CFE2B
:1013D0007CFEFEFFFEFF7CFE7CFEB8FCB8FC50F8F5
:1013E00050F8A0F000F0000000000000000000072E
:1013F0000307000F070F001F0F1F003F1F3F007F55
:101400002A7F153F153F0A1F0A1F050F050F020708
:10141000000700000000F0F008F8D0F0A0E040C0A5
:10142000FEFE01FFC6FE38F806FEF9FFC6FE38F8DC
:1014300070F08CFC02FEFCFCC0C030F0CCFC02FE64
:10144000FCFC04040707080F0F0F1E1F1D1F203F81
:101450003F3F7C7F437FFFFF8FFF717F7E7F3F3F5A
:10146000203F1B1F1C1F0F0F080F0707040400005D
:1014700000000000808040C020E010F008F804FC6C
:1014800002FEABFF55FF02FE04FC08F810F020E05E
:1014900040C0808000000000000004040606090F20
:1014A000080F101F101F203F203F407F407FAAFFE2
:1014B000D5FF407F407F203F203F101F101F080FA7
:1014C000090F060604040000000000000000008070
:1014D000008000C080C000E0C0E000E0E0E000E08C
:1014E000C0E000C080C0008000800000000000005C
:1014F0000000000E040E001F0E1F003F1F3F207F44
:101500002F7F70FF77FFF8FFFBFF70FF77FF207FD3
:101510002F7F003F1F3F001F0E1F000E040E2D1EC9
:101520002A1ECC1DB71DA21D8D1D781D631D621DB9
:10153000301E6E1B611B541B471B3A1B2D1B201BAF
:10154000131B061BF91AEC1ADF1AD21AC51AB81A9D
:10155000AB1A9E1A6F1B03081F111F121F101D15B7
:101560001711151F07041F17151D1F151D01011F3A
:101570001F151F17151F03087F417F427F407949C0
:101580004F41497F0F087F4F49797F497901017F9A
:101590007F497F4F497F050800007E00007D7D0068
:1015A000007F06067670707676760000F0F0F70021
:1015B0000070707606060000760606FEFEFE00004D
:1015C000000076000070707600000508FEFFFFFF47
:1015D000FEFEBFBFBFFEFEAFAFAFFEFEABABABFECE
:1015E00007081F11151511111F07081F19191F1FB3
:1015F0001F1F05080E1F1D190E020800FFFFFF5DCB
:101600000880BE8888BE80BEAAAAA280BEA0AFAF56
:1016100080BE8AEAEEE0FFFFFF80BE8AEAEE80BE6F
:10162000A0AFAF80BE9292BE80EE88B88EE0FFFF82
:10163000FF88A2BEA280BE84C990BE80BE8AEAE2B4
:1016400080BEA2A2BE80FFFFFF80BEA2A280BEA27B
:10165000A2BE80BE84C990BE80BE8AEAE2F8FFFFC7
:10166000FFFFFFFFFFFFFFFFFFFFFFFF80AEAAAA04
:10167000BA80BEA2A2BE80BEA0A0BE80BE84C99019
:10168000BE80BEA2A29CC1FFFFFFFFFF80BEA2A240
:10169000BE80BE8AEAE280BE8AEAE2F8FFFFFFFF70
:1016A000FF80BEA2A2BE80BE848890BE80FFFFFFE6
:1016B000FFFFFFFFFFFFFFFFFFFFFF804000000075
:1016C000000000000000000000000000000000001A
:1016D0000000000000C0603058CC647266ECD8B0E6
:1016E00060C0E038C8EC7474747474747474747486
:1016F000E4ECECE8E8D8D090B0206040C0808000F6
:1017000000008020202020202020202020202020B9
:1017100020202020800000000000000000000000C9
:1017200000000000000000000000000000000000B9
:1017300000000000000000000000000000000000A9
:101740000000000000000000000000000000000099
:1017500080C0406020A0B19B9E8C2E73F87F3F9F7D
:10176000DE04F00EE3FC3E1F0F2F2F2F5F3FFFFE26
:10177000FEFE7E7C3DBDB97BFBF7F7E6EE0CFD3B44
:1017800082F6ECE8DAB262CA82028282828282AA9D
:1017900082AA00002A800000000000000000000073
:1017A00000A0080888888888888888888888888829
:1017B0008888080808A000000000000000000080E1
:1017C000E030C8ECE4F4F6767676746448D8D8EC69
:1017D000E7F0FA7B3B93C79FBF3F4FE03E03017C9E
:1017E00083387F70E7EFEFEFCFDEDEDEDEDE9FBF18
:1017F000BFBCBC7C7C78787370FF7F1FC3388FE0E0
:10180000FFFFFFFFFFFFFF7C81FE380000000000AC
:1018100000802008A8AA28282828A828282828A83E
:10182000088A280A08A08A8080808080808080AA18
:101830008080AA0000AA0000000000000080807FD5
:10184000C01E7FFFFFE1CC9EB3A1A1B192DCC1FF1E
:10185000FF83FCB8E79F7FFFFFFFFEFDFAFA3A899E
:10186000E5E6E8CEDEDEDEDDBDBDBD797B7BFBF3EC
:10187000F77767EFEFEFCF5F5E5E5E4F617C7F478C
:101880007379FDFDFDFD7D787B7A7A7A7274E4C808
:1018900090B2C0888A20202020222220202802A066
:1018A00028020000000228A08000000000000000C4
:1018B0000000000000AA00808080808080808080FE
:1018C0008103F2FE05F5F7FBFBFBFBFDFDFDCDCE35
:1018D000E666666666680FECF5FBFBFDFDFDEDCD8B
:1018E000CD8D8B37C7FBFDFDFEFEFEFF03E7E6CE89
:1018F0009E9DC23EDAE5F6F7F7F3F37373FFFFFF41
:10190000FFFFFEFEF900FFFFFFFFFFFFFF0FE626D0
:10191000C6FEFEFEFEFDFAF408D0E8F4FAFAFAFA82
:10192000FA1AFAFAF4E8907088F6F4F4E8E8E8E8CD
:10193000D0A0A0A0A0AAA04080008080802020206D
:101940002020231FFEE11FFFFFFFFFFFFFFFFFE03F
:101950001C6642424242A7AC3BD3C7CFCFDFFFFF5A
:10196000FF7F7FFE19171F1FDFDFBF3FF0B7FB1D93
:101970001E1E11D05FDFBF7FFFBFFF3C3C1FDFDFBC
:10198000BF3FFFBFFD101F1F1FFFFF1F1F1C1BD8E6
:10199000DFBF3FFF9FCFCF63F0CF3F7FFFFFFFFF52
:1019A000C7C6C7E7777703F0FFFFFFFFFFFFFF071B
:1019B000F3190919131313180F20202020A2A2A233
:1019C000A2A2A2A2A18F3EF1CFCFCFCF4FC7A7A790
:1019D000A6A7B3B3B3B3B3B9A9ACA4A4A4A4A4A455
:1019E000A4A6A2FF80808080BFB2DBCFF0BFFF80C3
:1019F000808080F7CE8CB7F8AFBFF0C0C080BFB298
:101A0000DBCFF0AFFF80808080FFFF80808080BFD1
:101A1000B4DBCFF0BFA2A2A2A2A3A3A2A4A4A4A4B9
:101A2000A4A4A4A4A2AEB0B3B3A7A7A7A727B89FA6
:101A3000A7A0A2A2A2A2A2A2A2A2A2A2A2AAAAAA6B
:101A4000AAAAAAAAAAAAAAAAAAAAA8873CFF000088
:101A50000000000000000000000000000000000086
:101A60000000000000000000000000000000000076
:101A70000000000000000000000000000000000066
:101A80000000000000000000000000000000000056
:101A90000000000000000000000000000000000046
:101AA00000000000000000000000000FA0AAAAAA89
:101AB000AAAAAAAAAAAAAAAAAAAAAAAAAA3C380010
:101AC0000000000080F8FE0FE3FB1B0B0B8BFBF309
:101AD000F7F6F6F60606ECECECECECECECECECECE9
:101AE000ECECECECEEE6F6F6F6F7F3FBFBCBCBFB1F
:101AF000E30FFEF8801E332121339E00000080F8A2
:101B0000FF0FE0F8F9F9F9F9F9F9F9F1F3F3F3F363
:101B1000F0F0FFFFFFFFFFFFFFFFFFFFFFFFFFFFF3
:101B2000FFFFFFFFFFFFFFFFFFFFFF7F7FFEE00FD5
:101B3000FFF880060600000000000F3FF0C6070413
:101B400004070707070707070707070707FFFFFF40
:101B5000FFFFFFFFFFFFFFFFFFFFFFFFFF0707077D
:101B60000707078787070726860707C6F03F1F0076
:101B7000808000000000000000030784C4E4E4E467
:101B8000E4E4E4E4E4C49C000FE7E7E7E7E7E7E721
:101B9000E7E7E7C7870F1F0FC7E7E0ECE4E4E4E5FA
:101BA000E5E4C4040404070300C040C303110000BB
:101BB00000000000000000FFFFFFFFFF393939FF80
:101BC000FFFF0FE0E0EFEF0FFFFF183879FFFFF79F
:101BD00003E0E0EFEF0FFFF9F0F0FCFDFDFD0DEC91
:101BE000E0E0E00000012101000000000080C06092
:101BF0002060C080000000000C0C007EFE803C3E97
:101C00001C1C1C1C1C0C0C0E0C0C0C0C0E1E1C1C8E
:101C10001C1C3C3E80FE7E00000000C0E0E0C000D6
:101C2000000000030300000E1B3166C680D0603147
:101C30001B0E00003828380001471E3820202020C5
:101C4000301010D0D0101090103020202020381EDE
:101C5000070100000606000001010000000000006E
:101C600000000060180000000000000000000000FC
:101C7000000000000000000000000000007F415D47
:101C800055577F416D6D517F4155555D7F416D6D5C
:101C9000417F057D417D057F4155555D7F415D5DFE
:101CA000633E007F415D55497F117747711F0000FA
:101CB0000000000000000000000000000000000024
:101CC00000000000000000000000007F416D6D4139
:101CD0007F007F4175151D7F417F515555457F41DF
:101CE0007777417F007F415D55577F416D6D417F23
:101CF000415F50507F415F50507F4155555D7F415E
:101D00005D5D633E007F415F685F417F416D6D4176
:101D10007F417B77417F415D5D637F416D6D417F99
:101D20000000000000007F416D6D417F417B7741E5
:101D30007F415D5D633E007F417D137D417F416D4D
:101D40006D417F417B77417F117747711F007F4154
:101D50007D137D417F416D6D417F417B77417F11D7
:101D60007747711F007F415D5D417F057D417D05A6
:101D70007F417777417F4155555D7F416D6D517F43
:101D8000515555457F0308007F3E7F007F8040000E
:101D90000000000000000000000000000000000043
:101DA00000000000000000008080C0C04060602093
:101DB000B0B0D0D8D8D8D8D8581898D8D8D8D8D87B
:101DC000B0B0B0706060C0C0808000000000000053
:101DD0000000000000000000000000000040404043
:101DE00040401010101010505010101010105000E3
:101DF00000000000000000000000000000000000E3
:101E000000000000000000000000000000000000D2
:101E100000000000000000000000000000000000C2
:101E20000000000080F03C87F3FDFCFEFEFFFFFF9A
:101E3000FFFFFFFF7F8FE3790EE3FDFEDE5D5D1B9D
:101E40009BFBFBF7F7E6EEECCDDDD99B3BFAE60C0E
:101E5000F8E0005404044414111111111104044455
:101E600044444101055040000114400000000001BD
:101E700005041040400000000000000000000000C9
:101E80000000000000000000000000000000000052
:101E90000000000000000000000000000000000042
:101EA00000C0F83EC3FCFEFFFFFF1FDFDFDFDF9F48
:101EB0003FFFFF1FC0FFC3D8DF9FBDB93A7A7B7BCE
:101EC000FFFFCFCEC6D6DABCFCFF1FC1FC0FE17C02
:101ED0000701000114400154400111151110404048
:101EE0004445444410101114000001144000000047
:101EF0000000000000010104040010101000404028
:101F00000000000000000000000000000000008051
:101F1000808080808080808080808080800080F0D1
:101F20007F8FF1FCFFFFFFFFFFF0877FFFFFFFFFC9
:101F3000FEC11CBEBEBCBD7D797B7BF3F7F7E7EF2E
:101F4000EECEDEDDDDDDD99BBB39BC9FC07F0780D7
:101F50008080808080154000014141414141101046
:101F60001010101004040404144000000550000078
:101F7000000000000000000000000000000000055C
:101F80005040008080808080808080808080808041
:101F900080808080808080800000008080F89FC1E9
:101FA000FCFF7F7F7F7F7F7F7F7FFFF8E31FFFFF47
:101FB000FFFFF08FFFFFFF7F7F7F7F7E7EFEFEFDB6
:101FC000FD7D7D7B7BBBBBA7B07EF147BCA0A0A005
:101FD000A0A0A0A060E0D540404154404040404017
:101FE000C0C0808080808080808194808085540003
:101FF0000000000000000000000000808080808061
:10200000808184904000008080808080808080205B
:1020100020202020202020007EFFC33DFDFEFEFE6C
:10202000FEFEFFFFE313F3F313E7E64EBDFB047F71
:10203000A7DBDDFEEEE6E6E7E7FFFFFFFFFEFEFDC6
:10204000F201FFFFFFFFFFFFFF00FF00FFFFFFFFA9
:10205000FFFFFFFF009D7EFFFFFFFFFFFBFBF3E79E
:10206000C609F7FBFDFEFEFEFE8EE6FEFDFDF30F4C
:102070001EECF6F6FAFAFAFA3A9A3BF3FDFEFEFE89
:10208000FEFEFD7D83FFFE0020202020202020A2D8
:10209000A2A2A2A2A2A2A2A2A007FFFC837FFFFF8E
:1020A000FFFFFFFFFFF837373B9B9D4E4F333C70E0
:1020B000CF9F3F7F7F7F3FDCE8ED2F2F2F2F2FEF2C
:1020C0002F20272F2FEF2F2F2F2C2BE82F2F2F2FC5
:1020D0002FEF2F2F202D2CE8292B2F2F2FEF2F2FF5
:1020E0002F2027EFEFDF3F7F7F713131399DCDF01A
:1020F000C73F7FFFFFFFFFCFD0DFE0FFFFFFFFFF06
:10210000FFFF07F8FF0FA0A2A2A2A2A2A2A2A2AA6A
:10211000AAAAAAAAAAAAAAAAAAAAA08F9FB8A7A747
:10212000B393939389A9A6A7A3A8AAAAAAAAAAAA7D
:10213000A8A9A9AAAAAA80BF7F7F40404040407FAB
:1021400040404040407F40404040407F4040404011
:10215000407F40404040407F40404040407F4040C2
:102160004040407F7FBF80AAAAAAA9A9A9A8AAA87F
:10217000A9ABA2A4A4A4A9A9A9AC8993939393936E
:1021800097989F8FA1A8AAAAAAAAAAAAAAAAAA802F
:1021900040000000000000000000000000000000FF
:1021A000000050040404044444444444444444446B
:1021B000444444444444444444040404946010C8E3
:1021C000E8E4F4F4F4F4F6F2FAFAFAFAFAFAFAFABB
:1021D000FAFAFAFAFAFAFAFAFAFAFAFAFAFAFAFA5F
:1021E000FAFAF2F6F4C810E00010101010101010F7
:1021F00010101010101010101010101010400000CF
:1022000000000000000000000000000000000000CE
:10221000000000000000500404444444444444448A
:1022200004500500005005000054000000000000AC
:102230000000000000005400001500FF01E6F30B51
:10224000050505258585050506060E8E8E2E0E0EC6
:102250000E0606060606060626868606060606A656
:102260002606060EFCFDFB00FF00015101010101E5
:1022700001010101010151010154400000550044D8
:10228000444444444444444444040404500000008E
:1022900000000000005401005540444040404040D0
:1022A00000550000000504040404040404040404AC
:1022B0000404040404040404040400FF00FFFFE019
:1022C000000000002020000A0A0A2220000000006E
:1022D00000000000000000002008080202020808B8
:1022E000200000FEFFFF1FC0FF0010111010101093
:1022F00010101010101011101010150000005500D3
:1023000044404040404040444055000055000000DB
:1023100000808000005500005004040404040404FC
:10232000500500005401010181C161B1B1D9D9E961
:102330006969696969E9D9D9B171E0CFFC8177B779
:10234000B7D7D6D6D6D6D6D6D6D6D6B67A1AEAEA5B
:10235000EAEAEAEAEAEADADAD6D6D6D6D6D6D6D69D
:10236000B7B7B7B3DBDBD0BFA1A464C4C484848493
:10237000848484848484848404040450000055008C
:102380000404040404040404040450000154008000
:102390008080808095808080958080808080800093
:1023A000550000005500F89E63FCFFFFFFFFFFFF94
:1023B000FC820E6E6E7434B1B1B4B78F8FB47B7B78
:1023C000FDFDFCFC1C39FFFFFF7F7FFFFF00FFFFCF
:1023D000FFFFFFFF7FFF00FC00FFFFFFFFFFFFFF8E
:1023E0007F81F900FFFFFFFFFFFFFF3E01FBFDFDC7
:1023F000FEFEFEFE9EE6FEFEFDF30EF8000000551A
:102400000080808080808080808095808095808022
:10241000802020202020202020202020202020205C
:10242000252020202020212F1C3367CF9F9F3F3F56
:102430001FE7F8FCFEFFFFFFFFE119F9B97363C75F
:10244000CE1CFAE60E3E7EFEFEFFFFFEFDF8E3C761
:10245000E7F33D9EE702F0FBFCFEFEFEFE8EE6FE8D
:10246000FCFDF9C007FBFDFDFDFDFDFCF8773737EE
:1024700037777773013139399BC37C0F20202025B2
:10248000202020202020202020202020202020204C
:1024900020A2A2A2A2A2A2A2A2A2A2A2A2A2A2A29E
:1024A000A2A2A2A2A2A2A2A2A2A2A2A2A2A1A19F11
:1024B00078E79F3F3F7F7FFF3FDFE8E72F2C2E2706
:1024C00029EE2F232C2F26EC2923272F2FEF2F2720
:1024D000292C27E32F28272F2FEF2F2F2F2121E122
:1024E000292D2D2128EFEFDF3FFFFF7F81FE07A37E
:1024F000A3A2A2A2A3A1A1A1A1A2A2A2A2A2A2A2BE
:10250000A2A2A2A2A2A2A2A2A2A2A2A2A2A2A2A2AB
:10251000A2AAAAAAAAAAAAAAAAAAAAAAAAAAAAAA23
:10252000AAAAAAAAAAAAAAAAAAAAAAAAAAAAAAAA0B
:10253000AAAAA9A9ABAAA6A480BF7F7F4040404019
:10254000407F40404040407F40404040407F4040CE
:102550004040407F40404040407F40404040407FBE
:1025600040404040407F7F3F80A9A9AEA7A9AAAACA
:10257000AAAAAAAAAAAAAAAAAAAAAAAAAAAAAAAABB
:10258000AAAAAAAAAAAAAAAAAAAAAAAAAAAAAAAAAB
:10259000AA080B0002020200000904000001020266
:1025A0000000052400100105240101010424020695
:1025B00005240600010705810310004009040100FD
:1025C000020A00000007050202400000070583021E
:1025D0004000000403090412010002EF020140411F
:1025E00023368000010102030141726475696E6F38
:1025F000204C4C430041726475626F7900D5F08DB8
:1026000014A1C881CFD9F1AF2000A019C919971919
:1026100060188519741F79215F212F1CAF208E202F
:10262000ED1BBF2711241FBECFEFDAE0DEBFCDBF09
:1026300011E0A0E0B1E0E8E5F3E502C005900D92FD
:10264000AE32B107D9F726E0AEE2B1E001C01D928B
:10265000A93BB207E1F713E1C2E1D3E104C021973E
:10266000FE010E949D29C131D107C9F70E94DE27D2
:102670000C94AA290C9400008130A9F028F0823033
:1026800019F1833059F1089586E0689FF001112413
:10269000E757F94F828193810197938382838081E9
:1026A000918102970EC086E0689FF0011124E757E0
:1026B000F94F8281938101979383828380819181F5
:1026C000029691838083089586E0689FF00111242B
:1026D000E757F94F828193810196EECF86E0689F9C
:1026E000F0011124E757F94F828193810196D5CFEC
:1026F000FC0180915E05882311F13FB7F89482E0D8
:102700008093E9002091F200822F90E018161906BC
:1027100014F481E090E0882339F0289844E640934F
:102720005D054091F1004083222339F02091F200B1
:10273000211103C02BE62093E8003FBF08958FEFDF
:102740009FEF08952FB7F89483E08093E90090916C
:10275000E800892F807295FF04C09091F20080E418
:10276000891B2FBF08958091550581110DC082E00E
:102770008093510584E08093520510925405109285
:10278000530581E08093550581E595E008953FB7B5
:10279000F89480914D0590914E05A0914F05B09110
:1027A000500526B5A89B05C02F3F19F00196A11D25
:1027B000B11D3FBFBA2FA92F982F8827BC01CD018B
:1027C000620F711D811D911D42E0660F771F881FEA
:1027D000991F4A95D1F708958F929F92AF92BF9219
:1027E000CF92DF92EF92FF926B017C010E94C713A0
:1027F0004B015C01C114D104E104F104B9F00E9461
:10280000C713681979098A099B09683E73408105D5
:10281000910580F321E0C21AD108E108F10888EEA1
:10282000880E83E0981EA11CB11CE4CFFF90EF90AE
:10283000DF90CF90BF90AF909F908F90089565E00C
:1028400070E080E090E00C94EC1340913B015091DB
:102850003C012091390130913A0142175307B4F4F9
:102860009091E8009570E1F39091E80092FD19C015
:102870008093F10080913B0190913C0101968F7310
:102880009927892B19F48EEF8093E80080913B0102
:1028900090913C01019690933C0180933B0181E033
:1028A000089580E00895EF92FF920F931F93CF93C6
:1028B000DF93F82E192FE62E042F81E0860F880F64
:1028C0000E94251483E00E942514CF2DD12FEC0EF9
:1028D000FD2EF11CCE15DF05B9F007FF13C0FE0178
:1028E00084910E942514182F80E00E9425148123D2
:1028F00021968111EFCFDF91CF911F910F91FF9022
:10290000EF9008958881EDCF81E0F5CFDF92EF92CF
:10291000FF920F931F93CF93DF93D82E8A01EB0181
:102920007B01E40EF51ECE15DF0559F0D7FE12C06F
:10293000FE0184910E94251421968111F4CF0FEF9E
:102940001FEFC801DF91CF911F910F91FF90EF9082
:10295000DF9008958881EECF0F931F93CF93DF937D
:102960001F92CDB7DEB782E0898342E450E061E98F
:1029700075E280E80E9486140E94B313DC0112966F
:102980000D911C910115110589F0D801ED91FC9173
:102990000280F381E02DBE016F5F7F4FC801099572
:1029A00097FD04C0F80100851185ECCF89810F9057
:1029B000DF91CF911F910F910895615030F02091D8
:1029C000F100FC0120830196F8CF289884E68093DB
:1029D0005D0508958F929F92AF92BF92CF92DF9242
:1029E000EF92FF920F931F93CF93DF936C017B01C4
:1029F0008A0180910E01882309F45CC080915E05F4
:102A0000882309F457C080913F0180FF05C0809161
:102A1000E00082608093E000E801B12C8AEFA82EEC
:102A200093E0892E2AE3922E209711F4BB20D9F14E
:102A30000E94A21381110AC0AA94AA20D9F161E0D0
:102A400070E080E090E00E94EC13EECF8C171D0642
:102A500011F00CF08C2F9FB7F8948092E900209130
:102A6000E80025FD02C09FBFDFCF282F30E0C21B4A
:102A7000D30BF701815020F041914093F100FACF40
:102A8000E20EF31EBB2021F09092E800B12CEBCFB8
:102A90008091E80085FDE7CF9092E800BB24B394D5
:102AA000209709F3F3CF5D9884E680933E011016DA
:102AB00011063CF081E090E0F6019383828310E000
:102AC00000E0C801DF91CF911F910F91FF90EF902F
:102AD000DF90CF90BF90AF909F908F900895CF934D
:102AE000DF931F92CDB7DEB76983DC01ED91FC91D6
:102AF0000280F381E02D41E050E0BE016F5F7F4F27
:102B000009950F90DF91CF91089583E08093E900BC
:102B10008091F200882319F08AE38093E8000895F9
:102B20000E94A21390E00895CF93DF931F92CDB738
:102B3000DEB7FC018485958597FD08C02FEF3FEF38
:102B4000358724870F90DF91CF910895CE010196AC
:102B50000E947813019719F4898190E0F3CF8FEFE9
:102B60009FEFF0CF0F931F93CF93DF931F92CDB7BB
:102B7000DEB78C01FC018485958597FF0BC0CE01E3
:102B800001960E947813019771F4898190E0F80111
:102B900095878487F801848595850F90DF91CF9183
:102BA0001F910F9108958FEF9FEFF1CFFC01848566
:102BB000958597FD0BC09FB7F89482E08093E9005C
:102BC0008091F2009FBF90E0019608959FB7F8941E
:102BD00082E08093E9008091F2009FBF90E0089529
:102BE0004F925F926F927F928F929F92AF92BF921D
:102BF000CF92DF92EF92FF920F931F93CF93DF93C9
:102C00004C015901FC2DC02FD0E0CE01880D991D3B
:102C1000181619060CF06CC020E8821691040CF00E
:102C200067C09B012E0D311D121613060CF060C0FB
:102C3000603471050CF05CC04115510509F458C0B1
:102C4000E62FE770FE2EDB0177FD179633E0B59592
:102C5000A7953A95E1F73A2F77FF04C0FF2011F0CE
:102C60003FEF3A0F662777276819790997FC02C06A
:102C700070E060E0803891050CF44BC090E8981942
:102C8000961BA32F032E000CBB0B1A2F10953F3F52
:102C90000CF010E021E08E2D877009F420E0E6941E
:102CA000E694E694E20EAE0DB11D19971CF028E0F3
:102CB000E22EE31AE11A310F20E83203D001112489
:102CC000A80DB91DA60FB71F019F600D711D11241E
:102CD000460F571F0F2D0F2C000C110BF33009F46A
:102CE0001CC1C8F4F13009F4D0C0F23009F47CC042
:102CF000DF91CF911F910F91FF90EF90DF90CF90D8
:102D0000BF90AF909F908F907F906F905F904F900B
:102D10000895902FB5CFFA3FB1F1232F2E0DFB3F31
:102D200039F7321729F3BD016B5B7E4FD12CC12CD3
:102D3000C91608F0A4C0FA01EC0DFD1DE491F0E005
:102D40004F01002E02C0880C991C0A94E2F737FD4F
:102D500006C0FB018081E82CE0948E218083FF2057
:102D600061F0373054F45B01F0E8AF0EB11CE92C90
:102D7000E094F50180818E218083FFEFCF1ADF0A76
:102D80006F5F7F4FD5CF232F2E0D321709F4B0CFB1
:102D9000BD016B5B7E4FD12CC12CC91608F069C0F8
:102DA000FA01EC0DFD1DE491F0E04F01002E02C090
:102DB000880C991C0A94E2F737FD04C0FB0180815E
:102DC00088298083FF2051F0373044F45B01F0E81C
:102DD000AF0EB11CF501808189298083FFEFCF1AE6
:102DE000DF0A6F5F7F4FD9CF6FEF70E00F2C02C00B
:102DF000660F771F0A94E2F760957095772E232F60
:102E00002E0D321709F474CFFD01EB5BFE4F6F01FD
:102E1000B12CA12CA91638F5FA01EA0DFB1DE4919D
:102E2000F0E02F01002E02C0440C551C0A94E2F77A
:102E300037FD05C0F6018081862384298083FF2029
:102E400059F037304CF44601F0E88F0E911CF40134
:102E50008081872185298083FFEFAF1ABF0A8FEF1A
:102E6000C81AD80AD7CF3F5F4C0F5D1FA058BF4F7D
:102E7000C8CF3F5F4C0F5D1FA058BF4F86CF3F5F4D
:102E80004C0F5D1FA058BF4F4CCF6A0D7B1D232FE9
:102E90002E0D321709F42CCFFD01EB5BFE4F6F01B5
:102EA000B12CA12CA91688F5FB01EA0DFB1D84901D
:102EB000912C002E02C0880C991C0A94E2F7809491
:102EC0009094FA01EA0DFB1D6490712C002E02C053
:102ED000660C771C0A94E2F737FD05C0F601808185
:102EE000882186298083FF2049F037303CF4F601A1
:102EF000E058FF4F8081892187298083FFEFAF1A37
:102F0000BF0A8FEFC81AD80ACDCF3F5F4C0F5D1FA5
:102F10006C0F7D1FA058BF4FBCCFC92ED12CFA011A
:102F2000E60FF71FAB5BBE4F00E810E00C191D0960
:102F3000CC19DD09BE01660F771F41E050E06A0140
:102F40000F2C01C0CC0C0A94EAF7592F2E2D792EA4
:102F5000CF93DF93ED01EF96EF9622968590A590A3
:102F6000FF2059F08C9C4001AC9C500137302CF470
:102F7000E880B094EB20E928E99233233AF0EC9012
:102F8000A094EA20E828ED920C94C71711965A9560
:102F900029F72A9551F0572D33951124E60FF11D8D
:102FA000A00FB11DC00FD11DD9CFDF91CF9111243A
:102FB0009FCECF92EF920F93FA0104913196E49055
:102FC0004E5F5F4F2223F9F0A1E0B0E03E2D377055
:102FD00011F4B0E0A0E0EE2DE695E695E695EA0F57
:102FE000FB2FF11D0E9FD0010F9FB00D112430E07B
:102FF000220F331FA29FF001A39FF00DB29FF00D8F
:1030000011244E0F5F1F23E0C22E30E020E00E940B
:10301000F0150F91EF90CF900895CF92EF920F930C
:10302000CF93DF93DC01FA0104913196E4904E5F77
:103030005F4F2223D1F0C1E0D0E09E2D977011F4B4
:10304000D0E0C0E0EE2DE695E695E695EC0FFD2F7D
:10305000F11D0E9FE0010F9FD00D11242C9FC00188
:103060002D9F900D1124480F591F8AEFC82E30E074
:1030700020E0CD010E94F015DF91CF910F91EF90EC
:10308000CF9008958FB18095807F669B88601C9B50
:1030900084600895109238013E983F9808953E9AB2
:1030A0003F9A81E0809338010895909145059823D7
:1030B00029F490914605982381E009F480E0089571
:1030C00010923101109232011092330110923401AA
:1030D000EFE5F5E086E886838EE18783108682E05F
:1030E00090E09583848311868CE082871092300172
:1030F0001092350188E080934705089596E0899FF6
:10310000F0011124E757F94F8481282F30E093E034
:10311000359527959A95E1F72370660F6150260F34
:10312000220F220F220F2871877E282B24830895D7
:10313000E0910A0685E0E89FF0011124E659FA4F74
:1031400081818F7D8183089580912F01823009F0E4
:1031500093C0809199068770823009F44AC028F4A0
:10316000882361F0813061F10895843009F472C0E0
:1031700008F459C0853009F47CC008958091680531
:103180008076803609F478C00E949818809168058E
:10319000805E809368058091310190913201A09109
:1031A0003301B09134018C599F4FAF4FBF4F809383
:1031B000310190933201A0933301B093340108950B
:1031C000809168058871883109F456C00E9498186A
:1031D00080916805885F80936805809131019091A6
:1031E0003201A0913301B09134010A96A11DB11DA5
:1031F000DECF8091630590916405833091052CF4B6
:10320000019690936405809363050E9498188091BD
:10321000310190913201A0913301B0913401449673
:10322000A11DB11DC4CF80916805982F977097306C
:1032300019F18F5F809368050E9498188091310181
:1032400090913201A0913301B09134014E96A11DAD
:10325000B11DADCF0E94981880913101909132013B
:10326000A0913301B091340188539F4FAF4FBF4FAE
:103270009ECF8BE0809347050895A0913601B091D1
:103280003701AA0FBB1F2A9FF0012B9FF00D1124BD
:10329000660F771F57FD2CC0443051054CF4423067
:1032A0005105E9F04330510519F14130510551F014
:1032B000680F791FE75AFF4F81E0E617F70774F4AC
:1032C00080E00CC09C01261B370BB9012FE030E0D9
:1032D0002E1B3F0B81E06217730794F30895EA54A5
:1032E000FF4F680F791F81E0E617F707BCF3E8CFBF
:1032F0009C01261B370BB9012FEA3FEF2E1B3F0B1A
:1033000081E02617370754F7DBCF20E043E65CE186
:1033100064E170E080E190E00E940D188CE00E9472
:103320005518882319F081E08093470508958CE0B3
:103330000E945518882319F081E08093470508956D
:10334000809130018F5F8093300120E04DEB5AE196
:1033500064E070E082E290E00E940D1881E08093CA
:103360004705089520E04BEB56E170E060E090E007
:1033700080E00E940D188091470565E00E947D293C
:10338000282F4FEF55E168E370E081E190E00C9465
:103390000D180F931F93CF930E94B2198091410192
:1033A00080FD0AC080910101909102019F5F90937E
:1033B000020181508093010180910201833218F053
:1033C00081E18093020180910101823118F483E24E
:1033D00080930101C09100012C2F2250330BC901B1
:1033E00028E1289F8001299F100D1124809102015E
:1033F00020E045E85DE168E370E0800F912F911DCA
:103400000E94D9178091010120E045E85DE168E361
:1034100070E0800F912F911D0E94D91780E40E94C7
:103420005518882329F0C53018F4CF5FC0930001E8
:1034300080E20E945518882339F080910001833082
:1034400018F08150809300018CE00E945518882369
:1034500021F08091000180934705CF911F910F913A
:103460000895AF92BF92CF92DF92EF92FF920F93A7
:103470001F93CF93DF939EEFE92EFF24FA9410E081
:1034800000E0C0913601D0913701BE01675E7F4FE9
:10349000600F711F20E04EEF52E1C7010E940D182E
:1034A000BE01601B710B21E04EEF52E1C701CE96C9
:1034B0000E940D18055011098AE0E80EF11C023E29
:1034C000EFEF1E07F1F66B9600E310E05801FCE306
:1034D000AF1AB1086E01780120E044E653E1B6016D
:1034E000C7010E94D9178CE0E81AF108E6E0CE0E79
:1034F000D11CEA14FB0481F7045F1F4F26960C369B
:10350000110521F7CBE0D6E009E316E0E991F0E000
:10351000EE0FFF1FE25EFA4E85919491FC01099532
:103520000C171D0799F7DF91CF911F910F91FF9015
:10353000EF90DF90CF90BF90AF90089560913601EB
:1035400070913701615D7F4F23E04CEB51E183E1E6
:1035500090E00C94D91760913601709137016A5C44
:103560007F4F23E04AEB50E18DE190E00C94D917B6
:1035700060913601709137016A5C7F4F23E048ED1E
:103580005EE08EE090E00C94D91760913601709166
:1035900037016A5D7F4F23E046E65DE08EE090E014
:1035A0000C94D9176091360170913701615D7F4F9E
:1035B00022E04CEB51E189E590E00C94D917609141
:1035C0003601709137016A5C7F4F22E04AEB50E18F
:1035D00081E590E00C94D917609136017091370124
:1035E0006A5C7F4F22E048ED5EE089E590E00C9454
:1035F000D91760913601709137016A5D7F4F22E0E3
:1036000046E65DE081E590E00C94D91760913601C3
:1036100070913701625F7F4F21E04CEB51E185E50E
:1036200090E00C94D91760913601709137016B5E70
:103630007F4F21E04AEB50E18FE590E00C94D917E1
:1036400060913601709137016B5E7F4F21E048ED4C
:103650005EE080E590E00C94D9176091360170919E
:1036600037016B5F7F4F21E046E65DE080E590E04B
:103670000C94D9176091360170913701625F7F4FCA
:1036800020E04CEB51E188E190E00C94D917609177
:103690003601709137016B5E7F4F20E04AEB50E1BD
:1036A00080E190E00C94D917609136017091370158
:1036B0006B5E7F4F20E048ED5EE088E190E00C9487
:1036C000D91760913601709137016B5F7F4F20E011
:1036D00046E65DE080E190E00C94D91708950895E6
:1036E0009F92AF92BF92CF92DF92EF92FF920F9391
:1036F0001F93CF93DF9325E0829FF0011124E659B9
:10370000FA4FE180F12C3DE0839FA0011124C9E82C
:10371000D6E007E010E0862F8150990BDC01AA0F5C
:10372000BB1FA05FBE4F415F5F4F25E0A22E36E07A
:10373000B32E6CE0962E1C82C701002E02C0959518
:1037400087950A94E2F780FF37C08D919C9111977D
:10375000FA01E01BF10BE80FF91F249130E083E040
:10376000359527958A95E1F7822F6A2D0E947D294C
:103770008B9DB00111246C5F7F4F621B730B969E73
:103780006001979ED00C112493E0C90ED11CD98200
:10379000C882B29EB001B39E700D11246E5E7F4F41
:1037A00028EE382F2303C0011124860F971F9B8317
:1037B0008A83E491E770EC8326960150110908F0A2
:1037C000BACFDF91CF911F910F91FF90EF90DF90D3
:1037D000CF90BF90AF909F900895CF93E0910A064D
:1037E00065E06E9FF0011124E659FA4FA281A09383
:1037F0000A06EFE5F5E02285822F0E947D29C6E0CA
:103800008C9FA00111244C5F5F4F421B51099CE02B
:10381000949FB001959F700D11246D5F7F4F718350
:1038200060832C9F900111242E5E3F4F482F58EE4D
:103830005403C0011124820F931F2091360130914F
:103840003701820F931F9383828310866091350125
:103850008A2F0E94701BC0934705CF9108953F9215
:103860004F925F926F927F928F929F92AF92BF9290
:10387000CF92DF92EF92FF920F931F93CF93DF933C
:10388000609135016F5F6093350110920A068CE0FC
:103890008093690582EF9FEF909337018093360103
:1038A00083E390E09093600580935F058CE190E066
:1038B0009093620580936105862F8150990BFC01DE
:1038C000EE0FFF1FE05FFE4F2081318140E050E0AE
:1038D00095E0392E7DE079019FE0E90EF11C812C05
:1038E000912C54018394F9018491481708F05AC02F
:1038F000042F10E0309ED001319EB00D1124A65946
:10390000BA4FED01219611961C92119712961C92B6
:10391000129713961C92139714961C921497479F14
:10392000C0011124FC013396E20FF31FE491EC93E4
:10393000A7E0B0E06701C80ED91EF601EA1BFB0B39
:10394000E491EE2369F0E881240135010A2E04C0D8
:10395000440C551C661C771C0A94D2F74E2A4882E8
:10396000119758F7FC013A96E20FF31F8491877084
:103970008530B1F4F9019491979FE02D1124ED5F0A
:10398000E50FFF27FF1FE20FF31FE491809FD00197
:10399000819FB00D1124A659BA4F1296EC935F5F28
:1039A0004F5FA1CF80E00E94701B86E080934705A7
:1039B000DF91CF911F910F91FF90EF90DF90CF900B
:1039C000BF90AF909F908F907F906F905F904F903F
:1039D0003F9008959AEA899FA001112485E591E01E
:1039E000689F9001699F300D1124CA01820F931FB7
:1039F0008FEC890F90E064E0959587956A95E1F7E3
:103A0000982F990F990F890F241B350B92E1930F73
:103A100092959F70890F08950F93CF93C22F57FDF2
:103A200020C0443051054CF442305105B9F04330C8
:103A30005105B9F04130510571F0645088500E9431
:103A4000EA1C80932E01E0912E01E93168F080E0BC
:103A5000CF910F9108956450885FF1CF6D5F8A5FB9
:103A6000EECF6D5F8650EBCFF0E0E55FF94F8285DA
:103A700080932F018B3159F3CC2321F0893039F316
:103A800081E0E6CF011119C0882309F38930C1F71D
:103A90008091650583FDF4CF209163053091640525
:103AA00021503109309364052093630512161306E3
:103AB0003CF4886080936505E3CF813039F7C7CF48
:103AC0008861F8CF0895E9E8F6E026A5277064A597
:103AD00075A58091360190913701680F791F675F56
:103AE0007F4F82A593A544E653E103970C94D91721
:103AF000E9E8F6E020A5277066A177A1809136015C
:103B000090913701680F791F675F7F4F84A195A15E
:103B100044E653E103970C94D917E9E8F6E022A1B3
:103B2000277060A171A18091360190913701680FD3
:103B3000791F675F7F4F868D978D44E653E103972A
:103B40000C94D917E9E8F6E0248D2770628D738D07
:103B50008091360190913701680F791F675F7F4F21
:103B6000808D918D44E653E103970C94D917E9E8D1
:103B7000F6E02689277064897589809136019091D5
:103B80003701680F791F675F7F4F8289938944E609
:103B900053E103970C94D917809141019091420110
:103BA00087709927892B41F480919A068F5F66E090
:103BB0000E947D2990939A06809199068770282FFC
:103BC000220F280F220F80919A06280F60919706E6
:103BD000709198068091360190913701680F791F96
:103BE0006A5F7F4F809195069091960644E657E074
:103BF00004960C94D91796E0899FF0011124E75799
:103C0000F94F8481282F30E087708130C1F018F09F
:103C10008230C1F0089593E0359527959A95E1F7A4
:103C20002370628173818091360190913701680F12
:103C3000791F42EE52E0808191810C94D917258141
:103C40002C5FEFCF83E0359527958A95E1F72370B8
:103C5000285FE7CF81E00C94FB1D80E00C94FB1DF6
:103C60002091650522FF0DC0237060916105709160
:103C7000620540E651E080915F05909160050C94EB
:103C8000D917089540916505842F807629F0809199
:103C900067058F5F809367058091360190913701AA
:103CA000437020915F0530916005423081F14330CF
:103CB000D1F14130A1F097FF08C0019690933701F0
:103CC000809336012250310913C080916105909193
:103CD000620501979093620580936105F3CF97FF8A
:103CE0000CC0019690933701809336012E5F3F4FB1
:103CF0003093600520935F05089580916105909150
:103D0000620501979093620580936105EFCF833E32
:103D10004FEF940714F00197E5CF809161059091E2
:103D200062050196EFCF833E4FEF940714F00197A1
:103D3000C5CF80916105909162050196CBCFCF925E
:103D4000DF92EF92FF920F931F93CF93DF934EE298
:103D500050E06BE170E08BE096E00E94A329E091D7
:103D60000A064E2F50E025E0E29FF0011124E659AB
:103D7000FA4F808187FF09C09BE090930B069CE07F
:103D800090930C069DE090930E0683FF03C09EE087
:103D900090930F0686FF09C09FE09093100690E174
:103DA0009093110691E19093130682FF03C092E174
:103DB0009093140685FF09C093E190932E0694E139
:103DC00090932F0695E19093310681FF03C096E111
:103DD0009093320684FF09C097E19093330698E1EF
:103DE0009093340699E19093360680FF03C08AE1F0
:103DF0008093370680916505982F907609F03FC033
:103E0000E0916905F0E0E55FF94F89E0828785E0A0
:103E1000849FF001859FF00D1124E659FA4F01812E
:103E200010E089E8C82E86E0D82ED0E0C0E097E008
:103E3000E92EF12CC7018C1B9D0BF80102C0F595F2
:103E4000E7958A95E2F7E0FF0AC0F601628180817A
:103E50000E94EA1CE82FF0E0E55FF94FC287219647
:103E600036E0C30ED11CC830D10521F7DF91CF91C8
:103E70001F910F91FF90EF90DF90CF900895282F22
:103E80002072982F907483708230B1F0833001F1EA
:103E9000813061F0222319F089E080930D06992387
:103EA00009F4B5CF89E080933006B1CF2223B9F36E
:103EB00089E080931206F3CF222319F089E08093E2
:103EC0003006992309F4A3CF89E080930D069FCF94
:103ED000222319F089E080933506992309F497CFBE
:103EE00089E08093120693CFCF93DF930E94B2199B
:103EF0008091410180FD0AC08091010190910201F1
:103F00009F5F909302018150809301018091020193
:103F1000833218F081E180930201809101018231A6
:103F200018F483E280930101C091380188E1C89FB1
:103F3000E0011124809102018C0F9D2F911D20E042
:103F400045E85DE168E370E088960E94D9178091AA
:103F500001018C0F9D2F911D20E045E85DE168E394
:103F600070E088960E94D91780E40E94551881114C
:103F70000E944F1880E20E94551881110E944A1831
:103F80008CE00E945518882381F0C091380182E0AE
:103F900090E00E946729C81729F06C2F82E090E01A
:103FA0000E946F2981E080934705DF91CF910895AA
:103FB0003F924F925F926F927F928F929F92AF92B9
:103FC000BF92CF92DF92EF92FF920F931F93CF9306
:103FD000DF93CDB7DEB72A970FB6F894DEBF0FBEDA
:103FE000CDBFE82E862ECA01B9012AE0AE014F5F8F
:103FF0005F4F5A010E942629F50101900020E9F740
:104000003197EA19FB096E2E8BEF089F802D112442
:10401000895F8E1B482E082E000C5508011113C015
:1040200010E0E6E0FE2E14151504C4F41F9DC00137
:10403000112420E046E955E166E370E08B960E948A
:104040000D181F5FF0CF18164CF420E046E755E13D
:1040500070E060E089E790E00E940D18F12C6201A9
:10406000CC0CDD1CCC0CDD1CCE0CDF1C440C551C18
:104070004C0C5D1C10E0062C000C7708912C76E0AF
:10408000372E812F90E08615970584F5F501E80F0E
:10409000F91F20812133A4F020532A3088F4013005
:1040A00089F00230C9F046E955E166E370E0C201EB
:1040B000139D800D911D11240E940D181F5FE1CFEB
:1040C00020E0EDCF880F991F880F991F46E755E133
:1040D000B4018C0D9D1DF0CF880F991F880F991F7B
:1040E00046E555E1B4018E0D9F1DE6CF2A960FB629
:1040F000F894DEBF0FBECDBFDF91CF911F910F911E
:10410000FF90EF90DF90CF90BF90AF909F908F90F7
:104110007F906F905F904F903F9008950F9320E0B5
:104120004FE851E270E060E090E080E00E940D18FE
:10413000209131013091320140913301509134018D
:1041400000E066E38BE20E94D81F8CE00E945518C5
:10415000882319F081E0809347050F9108950F930C
:1041600020E04DE85DE170E060E090E080E00E94DA
:104170000D1820913101309132014091330150915D
:10418000340100E066E38BE20E94D81F8CE00E94BD
:104190005518882319F086E0809347050F910895FC
:1041A0000F93CF93DF93D0E0C0E020E049EF55E1DB
:1041B000BE0186E790E00E94D9172896C034D10549
:1041C000A1F720910A0630E050E040E001E060E015
:1041D00089E70E94D81F20916805277030E050E0E1
:1041E00040E002E067E18BE70E94D81F20E042EF49
:1041F00055E16DE170E08AE790E00E940D18209192
:10420000680530E083E0359527958A95E1F72370BE
:104210003327032E000C440B550B66E28BE70E94FC
:10422000D81F20E049EE55E16CE270E089E790E0AC
:104230000E940D182091680530E095E0359527958E
:104240009A95E1F723703327032E000C440B550B8E
:1042500065E38BE70E94D81F20E040EE55E16BE359
:1042600070E089E790E00E940D18809141019091E3
:10427000420164E170E00E948929892B59F4809100
:1042800063059091640502972CF480916505805830
:10429000809365058091650587FF0DC020916305BA
:1042A0004AEC55E16BE070E08AE790E0DF91CF9156
:1042B0000F910C940D18DF91CF910F9108950E94EA
:1042C0009F1E0E94311A80916705853038F48091D5
:1042D000410180FF0E94421E0C94D020109267057D
:1042E000809165058F7B8093650586E08093470507
:1042F000F3CF6F927F928F929F92AF92BF92CF92A5
:10430000DF92EF92FF920F931F93CF93DF930E9460
:104310009F1E0E94311AE0916505E5FD81C1E4FD13
:104320006DC08091410180FD61C0C0913601D09186
:104330003701609161056C1B80915F050E94EA1C4A
:10434000893110F4809369050E94421887FF9DC04F
:10435000809165058C7FF82E80936505009161053D
:1043600010916205E0905F05D090600521E050E07B
:1043700040E0B8018E2D9D2D0E943D19811110C085
:10438000B8016C1B7D0B00E021E050E040E08E2D79
:104390009D2D0E940C1D811127C00E94421E26C027
:1043A000602F6C1B8E2D0E94EA1C8230F9F4E09184
:1043B0000A0685E0E89FF0011124E659FA4F808152
:1043C00087FF14C083FD12C08F2D80628093650526
:1043D0008BE190E09093600580935F056E96D0939B
:1043E0006205C093610502C00E94A41888E00E9483
:1043F0005518882319F089E0809347058091650559
:1044000083FFD2C1209141013091420123703327B3
:10441000232B49F49091660591509093660594E0A2
:1044200089278093650580916605811108C0809178
:1044300065059EE190936605877F80936505809171
:10444000650584FD12C0809141019091420166E0B2
:1044500070E00E948929C9E8D6E0F8E0AF2EB12CBF
:10446000ADE08A2E892B09F4AEC1DF91CF911F9167
:104470000F91FF90EF90DF90CF90BF90AF909F9003
:104480008F907F906F900C94D0200E94421886FFEE
:104490003FC080916505F82EE894F1F88F2D81607A
:1044A000809365050091610510916205E0905F05BC
:1044B000D090600521E041E050E0B8018E2D9D2DA7
:1044C0000E943D198823E1F0602F6C1B8E2D0E9405
:1044D000EA1C8A3009F08ACFE0910A06A5E0EA9F3B
:1044E000F0011124E659FA4F808186FF7FCF82FDCB
:1044F0007DCF8F2D8162809365058BE490E06ACF3C
:10450000B8016C1B7D0B00E021E041E050E03FCFA3
:104510000E94421884FF44C080916505F82EE894FB
:10452000F0F88F2D826080936505009161051091F0
:104530006205E0905F05D090600521E042E050E028
:10454000B8018E2D9D2D0E943D19882309F1602F01
:104550006C1B8E2D0E94EA1C863109F047CFE0913A
:104560000A0635E0E39FF0011124E659FA4F8081F5
:1045700085FF3CCF81FD3ACF8F2D82628093650508
:104580008BE490E09093600580935F05E69627CFDB
:10459000B8016C1B7D0B00E021E042E050E0F7CE5B
:1045A0000E94421885FF22CFF09065058F2D836011
:1045B000809365050091610510916205E0905F05AB
:1045C000D090600521E043E050E0B8018E2D9D2D94
:1045D0000E943D198823E1F0602F6C1B8E2D0E94F4
:1045E000EA1C8E3009F002CFE0910A0695E0E99FBF
:1045F000F0011124E659FA4F808184FFF7CE80FD47
:10460000F5CE8F2D8362809365058BE190E0BACF64
:10461000B8016C1B7D0B00E021E043E050E0B7CE19
:1046200080916705853038F48091410180FDE6CEA8
:104630000E94421EE3CE30913501832F8150990BA9
:10464000DC01AA0FBB1FA05FBE4FE370F0E0349601
:1046500080910A069DE0899FE00DF11D11248D9146
:104660009C91E80FF91F84918370823059F0833058
:1046700009F478C0813009F07AC08AE08093690536
:104680002AE079C086E18093690526E14DED5FEF70
:104690005093370140933601E491F0E0F595E795AA
:1046A000F595E795E0930A06822F65E00E947D2943
:1046B000682F70E0A6E08A9FC00111240496821B37
:1046C0009109FCE0FF2EF89ED001F99EB00D112457
:1046D00013962A3009F457C008F050C0223009F46C
:1046E00055C00A0F1B1F1093600500935F05A6E0DD
:1046F0002A9FC0011124429618EE1603D001179F7D
:10470000B00D11248A0F9B1F2A3009F44AC008F00B
:1047100040C0223009F445C0C80FD91FC40FD51FAF
:10472000D0936205C093610510926705632F8E2FA9
:104730000E94701B809165058F7D80648093650564
:1047400087E080934705DF91CF911F910F91FF90F4
:10475000EF90DF90CF90BF90AF909F908F907F9021
:104760006F9008958EE0809369052EE08FCF82E0F0
:104770008093690522E047EF5FEF8ACF2E3031F05A
:10478000263109F0AECF0AE010E0ABCF06EF1FEF05
:10479000A8CF2E3019F0263109F0BECFC5E0D0E009
:1047A000BBCFCBEFDFEFB8CF80916305909164056D
:1047B000181619060CF443CE8AE0809347053FCEC5
:1047C000E9E0AE2EB12C8D818F5F83708D83A09137
:1047D0003501A150BB0BAA0FBB1FA05FBE4F80913C
:1047E0000A069501889D200D311D1124ED91FC9143
:1047F000E20FF31FE491EE2351F08C81E82EF12CAF
:1048000087708130C1F148F0823009F48BC0269660
:1048100029E0A216B104A1F628CE63E0F594E7944E
:104820006A95E1F733E0E322FF246A807B80C88049
:10483000D98020E0A701B301C6010E943D191A2DBD
:104840001170811115C0012F20E0A701B301C6012D
:104850000E940C1D81110CC08C8190E023E0959585
:1048600087952A95E1F7612F83700E943C13CFCF83
:1048700061E0812F19C053E0F594E7945A95E1F770
:1048800083E0E822FF246A807B80C880D98020E012
:10489000A701B301C6010E943D199A2D9170992E6E
:1048A000882329F061E0892D0E947E18B0CF092F5E
:1048B00020E0A701B301C6010E940C1D8111F2CFB7
:1048C0008C8190E043E0959587954A95E1F7692DB5
:1048D00083700E943C13EA80FB80C880D98043E348
:1048E00050E08EE190E0F601FF27D701BB279C0145
:1048F0002E513109BA01E617F70731F489010E5E2E
:104900001F4FA017B10781F16C5071092A5F3F4F0B
:104910008217930781F70696445F5F4F8C339105AA
:1049200031F775CF33E0F594E7943A95E1F7A3E0DA
:10493000EA22FF246A807B80C880D98020E0A7011A
:10494000B301C6010E943D191A2D1170882311F080
:1049500060E08FCF012F20E0A701B301C6010E94C4
:104960000C1D8111F5CF78CF6C80712C83E075948C
:1049700067948A95E1F733E06322772481E0681A2F
:10498000710820E0A301B701C6010E943D19811101
:104990003ECF092D20E0A301B701C6010E940C1DE6
:1049A000811135CF60E07FCF1F920F920FB60F922B
:1049B00011242F933F938F939F93AF93BF93809135
:1049C000490590914A05A0914B05B0914C05309155
:1049D000480523E0230F2D3758F50196A11DB11D81
:1049E000209348058093490590934A05A0934B0571
:1049F000B0934C0580914D0590914E05A0914F05C7
:104A0000B09150050196A11DB11D80934D05909365
:104A10004E05A0934F05B0935005BF91AF919F9164
:104A20008F913F912F910F900FBE0F901F9018956F
:104A300026E8230F0296A11DB11DD2CF1F920F921F
:104A40000FB60F9211248F939F938091E100909164
:104A5000E100937F9093E10083FF0FC01092E90083
:104A600091E09093EB001092EC0092E39093ED00B4
:104A700010925E0598E09093F00082FF22C093E0D0
:104A80009093E9009091F200992319F09AE39093A2
:104A9000E80090913E01992341F090913E019150A0
:104AA00090933E01911101C05D9A90915D0599230B
:104AB00041F090915D05915090935D05911101C079
:104AC000289A84FF18C08091E2008E7E81608093D6
:104AD000E2008091E1008F7E8093E10080913F01B0
:104AE0008E7E806180933F019F918F910F900FBECA
:104AF0000F901F90189580FFF7CF8091E2008E7E77
:104B000080618093E2008091E1008E7E8093E100DD
:104B100080913F018E7E8160E5CF1F920F920FB68C
:104B20000F921124CF92DF92EF92FF920F931F9377
:104B30002F933F934F935F936F937F938F939F93A5
:104B4000AF93BF93EF93FF93CF93DF93CDB7DEB7D0
:104B50006C97DEBFCDBF1092E9008091E80083FF23
:104B600025C068E0CE0145960E94DD1482EF809357
:104B7000E8008D8987FF39C09091E80090FFFCCF55
:104B8000982F907609F034C19E894F89588D2F89CE
:104B9000F88C911131C0803861F58091400180938B
:104BA000F1001092F1008EEF8093E8006C960FB642
:104BB000F894DEBF0FBECDBFDF91CF91FF91EF9193
:104BC000BF91AF919F918F917F916F915F914F9125
:104BD0003F912F911F910F91FF90EF90DF90CF9019
:104BE0000F900FBE0F901F9018959EEF9093E800C6
:104BF000C7CF1092F100D5CF913059F48111D3CFA6
:104C00004130510581F6809140018D7F80934001B4
:104C1000CACF933049F48111C6CF4130510519F6FE
:104C2000809140018260F2CF953041F48091E8009C
:104C300080FFFCCF20682093E300B5CF963009F0C9
:104C4000A9C00B8D1C8D22E01092E90010923C014E
:104C500010923B01F2122EC010923A0110923901CB
:104C60000E94AC141F8299E09983FA8291E09E839E
:104C700090EA98879AEF998720913B0130913C0107
:104C8000275F3F4F3C832B838D831092E900109266
:104C90003C0110923B0110933A010093390149E025
:104CA00050E0BE016F5F7F4F80E00E9486140E943B
:104CB000AC1479CF10933A01009339010E94B313D9
:104CC000DC0112960D911C910115110509F451C1D9
:104CD000D801ED91FC910480F581E02DBE016B5E61
:104CE0007F4FC8010995009709F03EC1F801008582
:104CF0001185EACFF3E0FF120EC08F89882309F4F3
:104D000040C0823061F440E867E085EF95E20E94A0
:104D10005314811148CF81E28093EB0047CF81305B
:104D200029F440E86BE089EE95E2F1CF833099F702
:104D30000E94B313DC011296ED90FC908E010F5F80
:104D40001F4F6801E114F10479F0D701ED91FC9156
:104D50000680F781E02DB801C7010995080F111DE4
:104D6000F701E084F184EECFD8011C92F6010190A6
:104D70000020E9F73197BF016C197D0940E0C601B9
:104D8000C6CF63ED75E2FB01449150E080E80E94DC
:104D9000861409CF973009F4BECF983021F481E012
:104DA0008093F10000CF993009F0FDCE837009F0B7
:104DB000B2CFE5E1F1E081E031E096E321912223F9
:104DC00071F08093E9003093EB00DF0111972C9193
:104DD0002093EC009093ED008F5F873079F78EE79A
:104DE0008093EA001092EA008F8980935E05DBCE03
:104DF0008B8D9C8D1092E90010923C0110923B012A
:104E000090933A0180933901898D811192C08E89E6
:104E10009D89913A49F4813209F07DCF47E050E015
:104E200067E071E080E0B3CF913209F074CF833254
:104E300069F48F89988DB0E0A0E08093030190938E
:104E40000401A0930501B0930601ADCE803269F450
:104E50008091E80082FFFCCF67E087E091E00E944C
:104E6000DD148BEF8093E8009ECE823209F09BCE5A
:104E70008F8980930E01EEEFFFE7859194918B3F30
:104E80009C4D51F1E0E0F8E080910701909108011C
:104E9000A0910901B0910A01803B9440A105B105A0
:104EA000F1F480910E0180FD1AC0EE3F8AE0F80710
:104EB00089F587E797E791838083809160008093ED
:104EC0003D0188E19BE00FB6F894A89580936000BF
:104ED0000FBE9093600067CEEEEFFAE0D5CF8081F1
:104EE00091818737974709F05ECEA8958091600041
:104EF00088618093600080913D0180936000EE3F67
:104F00002AE0F20789F08091FE0A9091FF0A9183CE
:104F1000808349CE808191818737980751F29093A1
:104F2000FF0A8093FE0AC5CF1092FF0A1092FE0A74
:104F30003ACE0E94B313DC0112960D911C9101151B
:104F4000110509F4E8CED801ED91FC910190F081B2
:104F5000E02DBE016B5E7F4FC8010995811123CE04
:104F6000F80100851185EBCF181619060CF41BCE3D
:104F7000D2CEF1E0FF12BECE67ED75E204CFE9E3D9
:104F8000F6E01382128288EE93E0A0E0B0E0848322
:104F90009583A683B7838FE191E0918380838FEF20
:104FA0009FEF95878487E9E8F6E014821286108ADD
:104FB000168A148E12A210A616A60895789484B5A7
:104FC000826084BD84B5816084BD85B5826085BD05
:104FD00085B5816085BD80916E00816080936E0093
:104FE0001092810080918100826080938100809185
:104FF0008100816080938100809180008160809336
:105000008000809191008260809391008091910056
:1050100081608093910080919000816080939000E6
:105020008091C10084608093C1008091C100826042
:105030008093C1008091C10081608093C100809104
:10504000C30081608093C3008091C0008260809320
:10505000C0008091C20081608093C20080917A007C
:10506000846080937A0080917A00826080937A00D5
:1050700080917A00816080937A0080917A008068C4
:1050800080937A0010925E051092400110923F01C9
:105090008091D70081608093D70080EA8093D80008
:1050A00089B5806189BD89B5826089BD09B400FE7A
:1050B000FDCF61E070E080E090E00E94EC13809111
:1050C000D8008F7C80618093D8008091E000807F41
:1050D0008093E0008091E1008E7E8093E1008DE07E
:1050E0008093E200559A209A81EC80937C0085B1F0
:1050F000806F85B984B1877E84B984B1876E84B9A5
:105100005E9A5F988AB1806D8AB9769A6E9881B3FB
:10511000806F81BB899880B38D7080BB80E58CBD2A
:1051200081E08DBD0E941F145F9A0E941F145E983B
:105130005C98EDEFF5E28AE096E224912EBD000046
:105140000DB407FEFDCF31968E179F07B1F75C9A1D
:1051500081E88093640080916500816080936500A0
:1051600082E090E00E946729882321F10E944F1875
:1051700080E180930F01EE24E394C5E4D1E000E0E8
:1051800010E0DD24D3948FB7F894409149055091F5
:105190004A0560914B0570914C058FBFF09043011B
:1051A000FF2059F0109243010115110561F30E948F
:1051B0000000E9CF0E944A18DBCF80914401942F70
:1051C000981B892F90910F01891738F48F5F8917E9
:1051D00058F7E3BE889513BEE7CFD09243014093C2
:1051E00044018091410190914201019690934201C6
:1051F0008093410180914605809345050E944218A5
:10520000809346058F2DFE0181118FEF002481933D
:105210008193819381930394D1F7E0914705F0E066
:10522000EE0FFF1FE65FF94D85919491FC01099502
:10523000FE0180E098E000800EBCF110012C019787
:1052400080FDFDCF0192B9F70DB4AECFBB272A3058
:1052500051F4992342F4BDE2909580957095619543
:105260007F4F8F4F9F4F0C943629BB27FA01A62FF3
:105270006217710581059105330B30FB66F0AA2793
:10528000660F771F881F991FAA1FA21710F0A21B75
:1052900063953850A9F7A05DAA3308F0A95DA193E2
:1052A00036F7B111B1931082CA010C945729DC0171
:1052B000FC01672F71917723E1F7329704C07C914D
:1052C0006D9370836291AE17BF07C8F30895F99983
:1052D000FECF92BD81BDF89A992780B50895262FFB
:1052E000F999FECF1FBA92BD81BD20BD0FB6F894CB
:1052F000FA9AF99A0FBE01960895991B79E004C0B5
:10530000991F961708F0961B881F7A95C9F7809504
:105310000895AA1BBB1B51E107C0AA1FBB1FA617FC
:10532000B70710F0A61BB70B881F991F5A95A9F74E
:1053300080959095BC01CD010895EE0FFF1F05905B
:10534000F491E02D0994DC0101C06D93415050406F
:08535000E0F70895F894FFCF87
:10535800032311FFFFFFFF00E10000000000001021
:10536800ED00AC0000C18081000000000000006F6B
:0E53780015EA1490158515D6159415B215007A
:00000001FF
