:100000000C94990D0C94C10D0C94C10D0C94C10D60
:100010000C94C10D0C94C10D0C94C10D0C94C10D28
:100020000C94C10D0C94C10D0C949D200C940C21CA
:100030000C94C10D0C94C10D0C94C10D0C94C10D08
:100040000C94C10D0C94C10D0C94C10D0C94C10DF8
:100050000C94C10D0C94C10D0C94C10D0C943E2355
:100060000C94C10D0C94C10D0C94C10D0C94C10DD8
:100070000C94C10D0C94C10D0C94C10D0C94C10DC8
:100080000C94C10D0C94C10D0C94C10D0C94C10DB8
:100090000C94C10D0C94C10D0C94C10D0C94C10DA8
:1000A0000C94C10D0C94FD260C94C10D16089D797D
:1000B000C199B1A3E3F7E6FEFEFE0EE6F7E3A3B1B6
:1000C00099C1799D9D79C191B3A3E3F7E6FEFEFE48
:1000D0000EE6F7E3A3B391C1799D9971C393B3A3DE
:1000E000E7D7E6FEFEFE0EE6D7E7A3B393C371990A
:1000F0009973E3C3C3C7C7C7EEFEFEFE0EEEC7C7C4
:10010000C7C3C3E373999373E3E3C7C7C7CFEEFED7
:10011000FEFE0EEECFC7C7C7E3E3739301020203EF
:1001200003040404030302804000008080000000F8
:1001300000000000000000000000000000000000BF
:1001400000000000000000000000FFF8E0E0C0C078
:10015000C0C000000000000000000000000000001F
:10016000000000007EFE4E0686CCFC700000000001
:10017000000000000000000000808000000000007F
:100180004040404060E0F8FF000000000000000038
:10019000000000000000000000000000000000005F
:1001A000000000000000000000000000FFFF202011
:1001B000202021FFFF0100E0F09090B0E001FFFE61
:1001C0000010F0F0101030E0F0101737F7EF1FEFCD
:1001D000F79790B0E012FEFC101060F090B0B010F5
:1001E000000060F0F89C0E070309142850A0C0908E
:1001F000381C0C04040000000000FFFF202020A099
:1002000021FFFF011EEFF7171030F0E010F0F010A3
:100210001030E0F0101031FFFE00E0F09090B0E000
:100220000060F090B0B01000000000080F0F080050
:10023000000000030706040307040406020407077E
:1002400004040707040004070704000407173473B5
:10025000F7F4F4F4E280030704040206040407033D
:10026000000000000103070E1C1C0E070200010223
:10027000070E1C18180C060000080F0F88E0F8FF86
:10028000FCFB773614030704040407030407070480
:10029000000003070404040707040307040406021C
:1002A00000020604040703000000000078FEFFFFC0
:1002B000FFFE00F0FCFEFEFEFEFCE0F8FCFCFCFC99
:1002C000F800401E3F3F3F3F3F5E404040404040BF
:1002D0004041434347870F0E1C1C18B8B87070F498
:1002E000F4EEEEEEEFEFDFDFDFDFDFDFEFEFEEEE7E
:1002F000EEF4F47070B8B8181C1C0E0F8747434317
:100300004140404040404040405E3F3F3F3F3F1EF5
:10031000403CFEFEFEFEFCF03EFFFFFFFFFEF8004D
:10032000FEFFFFFFFE7800000000F008E4F1F3F3A9
:10033000F3F1E0CF9F9F9FCFE3C09F3F3F3F1F87D9
:100340007841414141414141414141414141414166
:10035000414141417E807F000000FCFFFFFF3FDE06
:100360001DC3FF07E1E1307878308000E1E107FF4D
:10037000C31DDE37F9D9DFFC0000007F807E4141DC
:10038000414141414141414141414141414141415D
:10039000417E81770FCFCFE7F0F1E7CFCFCFC7E036
:1003A000E1F3F3F3F1E408F00000070817979797DB
:1003B0009797171707FB05F20A0A0A0A0A0A0A0A98
:1003C0000A0A0A0A0A0A0A0A0A0A0AF205F90101CD
:1003D00001010101010000000000FF03FD050426EA
:1003E000272F2F1E191B3736363636371B191E2F6F
:1003F0002F27260405FD03FF000000000001010176
:1004000001010101F905F20A0A0A0A0A0A0A0A0A9E
:100410000A0A0A0A0A0A0A0A0A0AF205FB07171751
:100420001797979797170807000000003FFFFFFFF7
:10043000FFFFFF3FCCF3F4FBFAFAFAFAFAFAFAFA02
:10044000FAFAFAFAFAFAFAFAFAFCFCFD7C7D7C7CFC
:100450007C7C38000000000000003FF8E718C080F6
:1004600040C0C0C0C0C0C0C0404080C0C0C0C0C04C
:10047000C04080C018E7F83F000000000000001CEA
:100480003E3E3E3E7E7E7DFCFCFCFAFAFAFAFAFA2B
:10049000FAFAFAFAFAFAFAFAFAFAFBF4F3CC3FFFAC
:1004A000FFFFFFFFFF3F00000000000000011BF7FF
:1004B000F7EFEFAEA3A7A72F2F2F6F6F6F6F6F6FA1
:1004C000575717070303030101808080C0C0C0A0F5
:1004D000A0A060707070F0E8E8DCDCD9B7AF988756
:1004E0009C830307070D8B9B9B9B9F8F0F07070325
:1004F000839C8798AFB7D9DCDCE8E8F07070706057
:10050000A0A0A0C0C0C08080800101030303071722
:1005100057576F6F6F6F6F6F2F2F2FA7A7A3AEEF78
:10052000EFF7F71B01000000001C241C241C090F1E
:1005300003060C3C38000000000080F8FE0FE3FBCF
:100540001B0B0B8BFBF3F7F6F6F60606ECECECEC6C
:10055000ECECECECECECECECECECEEE6F6F6F6F7B6
:10056000F3FBFBCBCBFBE30FFEF8801E33212133E3
:100570009E00000080F8FF0FE0F8F9F9F9F9F9F9A9
:10058000F9F1F3F3F3F3F0F0FFFFFFFFFFFFFFFFDD
:10059000FFFFFFFFFFFFFFFFFFFFFFFFFFFFFFFF6B
:1005A000FF7F7FFEE00FFFF88006060000000000DE
:1005B0000F3FF0C6070404070707070707070707E9
:1005C000070707FFFFFFFFFFFFFFFFFFFFFFFFFF23
:1005D000FFFFFF0707070707078787070726860725
:1005E00007C6F03F1F0080800000000000000003ED
:1005F0000784C4E4E4E4E4E4E4E4E4C49C000FE736
:10060000E7E7E7E7E7E7E7E7E7C7870F1F0FC7E792
:10061000E0ECE4E4E4E5E5E4C4040404070300C01A
:1006200040C30311000000000000000000FFFFFFB6
:10063000FFFF393939FFFFFF0FE0E0EFEF0FFFFF5A
:10064000183879FFFFF703E0E0EFEF0FFFF9F0F064
:10065000FCFDFDFD0DECE0E0E000000121010000EB
:1006600000000080C0602060C080000000000C0C12
:10067000007EFE803C3E1C1C1C1C1C0C0C0E0C0C3A
:100680000C0C0E1E1C1C1C1C3C3E80FE7E00000040
:1006900000C0E0E0C000000000030300000E1B31BA
:1006A00066C680D060311B0E000038283800014734
:1006B0001E3820202020301010D0D0101090103084
:1006C00020202020381E070100000606000001013E
:1006D0000000000000000000001308001B1B001FAA
:1006E000000A0A0E1F000F0F0F1F001A1A18001A17
:1006F0001A181F000F0F0F1F001616001F181B03DC
:10070000180E000E1F001D1B17001F001A1A1E1FB7
:10071000000E0E00000E0E0F1F000E0E001F001D1B
:100720001B001F001A1A1E601800000000000000C5
:1007300000000000000000000000000000000000B9
:10074000007F415D55577F416D6D517F4155555D2E
:100750007F416D6D417F057D417D057F4155555D33
:100760007F415D5D633E007F415D55497F11774765
:10077000711F0000000000000000000000000000E9
:100780000000000000000000000000000000007FEA
:10079000416D6D417F007F4175151D7F417F515532
:1007A00055457F417777417F007F415D55577F41B8
:1007B0006D6D417F415F50507F415F50507F41558B
:1007C000555D7F415D5D633E007F415F685F417FB6
:1007D000416D6D417F417B77417F415D5D637F412D
:1007E0006D6D417F0000000000007F416D6D417F15
:1007F000417B77417F415D5D633E007F417D137D9D
:10080000417F416D6D417F417B77417F117747711A
:100810001F007F417D137D417F416D6D417F417B95
:1008200077417F117747711F007F415D5D417F05F3
:100830007D417D057F417777417F4155555D7F4102
:100840006D6D517F515555457F13081F1F080A0ACA
:10085000021F001A1A1E1F0E0411040E1F1F1F1F55
:10086000000E0E001F001A1A1E1F001A1A1E1F1F4C
:100870001F1F1F1F1F1F1F1F1F1F1F1F1F1F1F1F88
:100880001F1F1F1F1F1F1F1F000E0E001F001D1BFD
:1008900017001F1F1F1F1F340713353C370D0F8014
:1008A000809090A0A0001000100010020200010033
:1008B000020000E1933B3C813612B13229139224AD
:1008C0001E3983101000000000000000000000002E
:1008D0000000000000000000000000000000000018
:1008E00000000000000004020606263030B0B08090
:1008F000B0B0303030000003010203030041216139
:1009000060610000000000000000004020606060A6
:1009100000000000000000060204060600000303B9
:100920000303030000808000A0B03034B2868686C6
:10093000800000000001000109050C0C0D011911D7
:100940001918180000101000000000E0F0C0E3F6D5
:10095000C0C08080C0000000003C7FFFFF7F3F3FA1
:100960007FFFFF7F3D0200000000209CF8F0F8F9B7
:10097000F0E0C060C000000000003EFFFF3F0F0F2E
:100980003FFFFF1F020000000000002C06C0F8F02F
:10099000C0800000200000000060F8FC7F7F3F3F27
:1009A0003F7FFCF0600000000000000200001C0E11
:1009B000100000000000000070F8FC7E7E3F3F3F0A
:1009C0007F7EFEFFFE70000A1000022AAA96A6BAD9
:1009D0002A0200000000022939020000000F200056
:1009E000806010180C0EEA0E0C181060800000FFDA
:1009F0000082828282FB828A9AAA00FF00C05FC0C6
:100A0000D8D0C0C0DEC0C0C0C0C05FC000020000FF
:100A10000202020202020200000200101000FC8228
:100A200094AE3EBEBEBEBE3EBABC82FC00001E00FE
:100A3000181C1C1B1A1A1B181418001E0000010297
:100A40000300000000020202020202001008FFFF81
:100A5000FFFFFFFFFFFFFFFFFFFFFFFFFFFF101084
:100A6000000000C080C080C080F870F8E0F000E0B6
:100A7000C0F070F8B8FC80FC80C080C000C00000EE
:100A8000007070F8F8FDE5FF65FF67FFAEFFBEFF81
:100A9000BEFFAFFF67FF65FFE5FFF8FD70F8007070
:100AA0000000006040E0C0E0C0FCB8FC70F800F05E
:100AB00060F8B8FCDCFEC0FEC0E040E00060000072
:100AC0000000007070FCFCFFF2FF63FF27FF3FFF98
:100AD0003FFF27FF62FFF2FFFCFF70FC0070000089
:100AE00000000018103830F8B0FFAEFFDCFEC0FC8C
:100AF000D8FECEFFB7FFB0FF30F810380018000066
:100B000000000000003E3EFFFCFFF8FF19FF0FFF52
:100B10000FFF19FFF8FFFCFF3EFF003E0000000042
:100B20000000006040E0C0E0C0FCB8FC70F800F0DD
:100B300060F8B8FCDCFEC0FEC0E040E000600000F1
:100B40000000007878FEFEFFF2FF63FF27FFBFFF83
:100B5000BFFF27FF63FFF2FFFEFF78FE0078000073
:100B600040100E4EEEE6E0E4EEEC0E4EAEEEE2E4A9
:100B7000E2400AC6EEEEE2E4EEE60E6EAEEEE0E431
:100B8000EA4E0A66AE66E0CEEECC0E6CAA62E06C6F
:100B9000EEEE0E4EEECCA0C6EEEC0E6CAA60E0EED1
:100BA000EEC60A66AE66E0CEEECC0E6DA961E06CD4
:100BB000EEEE0E4EEECCA0C6EEEC0E6CAA60E0EEB1
:100BC000EEC60E4EEEE6E0E4EEEC0E4EAEEEE2E4E5
:100BD000E2400AC6EEEEE2E4EEE60E6EAEEEE0E4D1
:100BE000EA4E0F0800606078787E7E7F787E6078BD
:100BF000187E7E7F787E6078187E7E7F787E607833
:100C000000600610FEFF01FFFDFFFDFFBFFFFEFFBE
:100C1000070F0E0F0F0F0B0F080F070F00FEFEFF41
:100C200001FFBDFFFEFF00FE0007070F080F080FC2
:100C3000070F0007000000FFFFFFFFFF00FF00009D
:100C40000000000F0F0F0F0F000F000000FEFEFF4F
:100C5000BDFF01FFFEFF00FE0007070F080F080F92
:100C6000070F0007FEFFBFFFFDFFFDFF01FFFEFFB7
:100C7000070F080F0B0F0F0F0E0F070F00010203D6
:100C800004030201101000000000000000E0E0F08A
:100C9000F0F8C0FBE3F7F6FFC0FEC0E080C080C004
:100CA000C0E000E000000000003C3C7F7FFFF3FF5D
:100CB00063FF6FFF3FFF3FFF6FFF63FFF3FF7FFFA8
:100CC0003D7F023F000200000000002020FE9CFE4D
:100CD000F8FCF0F8F8FDF9FFF0F960F040F060F092
:100CE000C0E000C0000000000000003E3EFFFCFF2E
:100CF000F8FF19FF0FFF0FFF1CFFFCFFFEFF1FFF98
:100D0000021F00030000000000000000002C2C7EE9
:100D100006FFC0FFF8FCF0F8C0F080C000800020A3
:100D20002070002000000000006060F8F8FCE4FF84
:100D3000E7FF6FFF1FFF1FFF6FFFE7FFE4FFF0FC00
:100D400060F00060000000000000000000020207E8
:100D5000000200BC1CBE0E9F10BF0010008000806F
:100D6000000000000000007070F8F8FCE4FEE6FFF0
:100D70006EFF2FFF3FFF3FFF2FFF6EFFE6FFE7FFF6
:100D8000FEFF70FE00700518007878FE8EFF78FE7A
:100D90000078000000FFFFFF00FF0000000000FFE0
:100DA000FFFF00FF0000130800FF76FF00FF06CFE3
:100DB00041EFC6FF90FF24FE2C7E287E2C7E247EF1
:100DC00010FFA2FFD5FF15FF031F0003000000FF67
:100DD00076FF00FF060F018F86FFD0FFA4FE2CFEDA
:100DE000287E2C7E24FED0FFA6FF01FF153F153F75
:100DF000031F000300FF76FF00FF060F010F067FB1
:100E000010FFA4FEACFE28FE2CFEA4FED0FF26FFA1
:100E1000017F051F153F133F001B2908000000003C
:100E20000008081C081C1C3E143E143E143E081CFE
:100E3000081C081C081C081C081C081C081C001C9A
:100E40000C1F011F0D7F49FFC2FF88FF28FE287E6F
:100E5000287E287E287E08FFA2FFC9FF09FF011F08
:100E60000B1F081F081C081C081C081C001C000085
:100E70000008081C081C1C3E143E143E143E081CAE
:100E8000081C081C081C081C081C081C081C001C4A
:100E90000C1E001F0D1F091F019F8AFFC8FFA8FE1F
:100EA00028FE287E287E28FEC0FFAAFF09FF011F1A
:100EB000091F0B1F081F081C081C081C001C000031
:100EC0000008081C081C1C3E143E143E143E081C5E
:100ED000081C081C081C081C081C081C081C001CFA
:100EE0000C1E001E0C1F0B1F011F091F0A3F08FFCD
:100EF000A8FEA8FE28FE28FEA0FEC8FF2AFF017F4C
:100F0000091F091F0B1F081F081C081C001C0000DC
:100F10000000120800000003036741EFC6FF90FFC6
:100F200024FE2C7E287E2C7E247E00FF92FFD5FF9F
:100F300005FF030F000300000003031F153F11BF4F
:100F400086FFD0FFA4FE2CFE287E2C7E24FED0FF40
:100F5000A6FF01FF153F153F031F0003001B133FB2
:100F6000153F011F067F10FFA4FEACFE28FE2CFEDD
:100F7000A4FED0FF26FF017F051F153F133F001B76
:100F80001510006040E0C0E040E040E000F878FC70
:100F90007CFEFCFEFEFF3EFFDEFF5EFF7CFEFCFEF5
:100FA00058FC40F840E0C0E040E000600000000075
:100FB000000101030207000F0F1F0E1F163F173F0E
:100FC000173F163F1E3F0F1F0F1F020F020701039F
:100FD000000100000000071000F070FCDCFE98FE2D
:100FE0009EFFBAFFFCFF00FFAEFF78FFCFFFB1FF0F
:100FF000A0FFA0FF10080004040E0E1F0A1F0A1F06
:10100000041F040E040E040E040E040E040E0E1F24
:101010000E1F0A1F001B0910CEFFB6FF96FF9EFF92
:10102000DEFF7CFEFCFEF0FC00F0A0FFA0FFB1FFA5
:10103000CFFFF8FF7EFFAFFFAFFF00FF13080018E0
:10104000183C103C0C3E061F0C1E081C00B800F893
:10105000A0F820F810F850F850F800F8A0F8B0F810
:1010600030F80070081000000006023F3D7F7DFF51
:1010700002FF000600000000000000000000000069
:10108000000000000000000C040E02FFFDFFFDFF49
:1010900002FF040E000C000000000007070F0F1FE6
:1010A000001F00000000101000C0C0E080E020F031
:1010B00040E000DC1DFF3FFFBFFFB3FF1FFF1FFF2E
:1010C00033FFBFFF01FF0000000000010001001915
:1010D0001038307C247F0B3F033F0B1F081F0B3F52
:1010E000207F173F173F001F14080018183C103CC2
:1010F000043E0C7E087C08FCB0FC38FCB8FC80FC8C
:10110000B8FC30FC007C087C0C7E0C1E001E0C1E03
:10111000000C19080018183C103C0C3E061F0E1F4E
:101120000C7E007C00FC90FC50FC88FCA8FCA8FC19
:1011300050FC10FC007C047E060F030F040F060F0A
:10114000000F060F0006121000C000E060F060F013
:1011500040E000CE0EDF1FFFBFFFB9FFAFFF2FFF44
:1011600039FF1FFF00DF40E060F000E000030207EE
:10117000020700030000007F297F357F287F0A7F58
:101180000A3F153F011F061F000F070F030700034B
:1011900017080018183C103C0C3E061F0E1F0C1EB2
:1011A000001C00FC90FC50FC88FCA8FCA8FC50FC37
:1011B00010FC003C0C1E061F0C3E103C183C001896
:1011C0001310008080C000C040E0C0E080CE0EDF81
:1011D0001FFFBFFFB9FF2FFFAFFF39FF1FFF80DFEA
:1011E00040E000E080C00080000101030103000333
:1011F0000001000100FF6BFF337F0B3F08FF6BFF17
:10120000337F003F000100030103010300011208C6
:101210000000000E060F061F147E50FC40FC10FC60
:1012200088FCA8FCA8FC50FC10FC40FC047E060FC7
:10123000000E0000000E060F067F54FE50FC00FC5E
:1012400090FC50FC88FCA8FCA8FC50FC10FC40FC66
:1012500054FE067F060F000E000E066F46FF54FE7A
:10126000107C00FC90FC50FC88FCA8FCA8FC50FC06
:1012700010FC007C54FE46FF066F000E0D08183C63
:10128000247E187E183C183C183C081C000C0000FA
:101290000000000000000000183C247E5AFF18FFE8
:1012A000183C183C183C183C183C183C183C081CCE
:1012B000000C16100000000000000000008080E01C
:1012C000E0F0E0F0F0F8F0F8F0F870F870F8F0F80E
:1012D00060F0E0F080E0008000000000000000000E
:1012E0000000000000000000003F3F7F67FF47EF65
:1012F00001CF0001000100010101010100C141FF16
:101300003F7F003F000000000000000000C080C0E0
:101310000080008000C0C0F0F0F870F838FCF8FCE5
:10132000E8FC28FC28FCE8FCF0F830F8C0F000C02D
:101330000080008080C000C0000101030307030794
:10134000033F387F7FFF60FF00E1000301030103DB
:101350000103010300E360FF3F7F003F0307030732
:10136000010300010000000000000000008080E098
:10137000E0F0E0F0F0F8F0F8B0F830F830F8B0F85D
:10138000E0F0E0F080E000800000000000000000DD
:101390000000000000000000003F3F7F7FFF61FF72
:1013A00001E341E301E341E301E341E301E361FFE1
:1013B0003F7F003F000000000000000040E0C0E070
:1013C000C0FEBCFE78FC80F8E0F0E0F0F0F8F0F849
:1013D000F0F8F0F8F0F8F0F8E0F0E0F080E00080ED
:1013E00000000000000000000000000100010001FA
:1013F000003F3F7F7FFF7FFF61FF40E340E340E32B
:1014000040E340E340E361FF3F7F003F0000000016
:10141000000000000000000000000000008080E0EC
:10142000E0FFAFFF5AFF58FEB0F8B0F8B0F8B0F8E0
:1014300058FE5AFF8FFF008F0000000000000000E0
:101440000000000000000000003F3F7F7FFF61FFC1
:1014500001FB41F321F361F361F321F341F301FF58
:101460003F7F003F0000000000000000000000007F
:101470000000000000C0C0E0E0F0C0FFFDFF7DFF05
:1014800070FF60F860F870FF7DFFBDFFC0FF00C017
:10149000000000000000000000000000000000004C
:1014A000003F3F7F7FFF61FF01E3018301830183F1
:1014B0000183018301E361FF3F7F003F00000000E3
:1014C0000000000000E040E040E040E0C0E080E0DC
:1014D00060F0E0F0F0F8F0F870F830F830F870F8FC
:1014E000E0F0E0F080E0008000000000000000007C
:1014F0000000000101030103013F3D7F7FFF61FF09
:1015000001E30183018301830183018301E361FF1F
:101510003F7F003F000000000000000000000000CE
:101520000000000000FCDCFEDCFEDCFEDCFFFDFF5A
:10153000DDFF4DFF95FFDCFFFCFEDCFEDCFE00FC6A
:10154000000000000000000000000000000000009B
:10155000003F3F7F7FFF61FF01E301830183018340
:101560000183018301E361FF3F7F003F0000000032
:10157000000000000E100000000000CE8EDF9FFF74
:101580003FFFB9FF2FFFAFFF39FF9FFF00DF0000D4
:101590000000000000000033317F257F143F0B1F47
:1015A000081F0B3F337F387F103F001800000000FA
:1015B000000000CE8EDF9FFF3FFFB9FF2FFFAFFF80
:1015C00039FF9FFF00DF0000000000000007050F4B
:1015D000057F287F337F0B7F087F2B7F337F207F22
:1015E000056F000700000000008080CE8EDF1FFF27
:1015F000BFFFB9FF2FFFAFFF39FF9FFF80DF0080E4
:1016000000000007050F050F001F0B3F337F2B7FE6
:10161000087F2B7F133F001F050F050F00070001F8
:10162000020114100000000000E080000000000033
:101630000080E0000000000000000000000107073B
:101640000E0E0E0E0707010000000000000000F063
:10165000C080000000000000000080C0F00000001A
:101660000000000003070F0F1E1E1E1E0F0F0703B2
:10167000000000007CF0C08080000000000000003E
:101680000000008080C0F07C0001070F0F1F1F3E8C
:101690003E3E3E3E3E1F1F0F0F0701000C1800008C
:1016A00000808080800000000000000000000081B9
:1016B000C3FFFF3C00000000000101010100000029
:1016C00000000000202060E0C0C08000000000009A
:1016D00000000000C3FFFFFF3C00000004040607F9
:1016E00003030100000004040C0C1C78F8F0F0E087
:1016F000800000000000000081FFFFFFFF7E20202F
:101700003030381E1F0F0F070100070800000000CF
:1017100000000000000000000000000000000008C1
:10172000081C0008000000000008081C083E3E7F5E
:10173000083E081C0008081C081C1C7F7FFF1C7F3B
:10174000081C081C081C0008085D5DFF085D0008F7
:10175000081C000000000008081C00080000000031
:101760000000000000000000000001020304050466
:101770000B010B0502000003060E141717191919A7
:101780001A1A1A1A1919191717140E060810003CFC
:101790003C7E64FF03E7C0E726FF3C7E003C003C44
:1017A0003C7E26FFC0E703E764FF3C7E003C081058
:1017B000F8FC18FC08FCE8FCE8FC08FC18FCF8FC49
:1017C0001F3F183F103F173F173F103F183F1F3F65
:1017D000F8FCF8FCD8FC08FC08FCF8FCF8FCF8FC69
:1017E0001F3F1F3F173F103F103F173F1F3F1F3F37
:1017F000F8FCD8FCC8FCE8FC68FC08FC98FCF8FC89
:101800001F3F133F113F143F163F173F173F1F3F26
:10181000F8FCD8FCC8FC68FC68FC08FC98FCF8FCE8
:101820001F3F1B3F133F173F173F103F183F1F3FFE
:10183000F8FC78FC38FCF8FC08FC08FCF8FCF8FC28
:101840001F3F1E3F1E3F1E3F103F103F1E3F1F3FCA
:10185000F8FC08FC08FC68FC68FC68FCE8FCF8FC88
:101860001F3F1B3F133F173F173F103F183F1F3FBE
:10187000F8FC18FC08FC68FC68FC68FCF8FCF8FC48
:101880001F3F183F103F173F173F103F183F1F3FA4
:10189000F8FCC8FCC8FCE8FC68FC08FC88FCF8FC08
:1018A0001F3F1F3F1F3F103F103F1F3F1F3F1F3F66
:1018B000F8FC98FC08FC68FC68FC08FC98FCF8FC48
:1018C0001F3F183F103F173F173F103F183F1F3F64
:1018D000F8FC98FC08FC68FC68FC08FC18FCF8FCA8
:1018E0001F3F1B3F133F173F173F103F183F1F3F3E
:1018F000081000FCFCFEFEFFFEFFFEFFF6FF00FFEF
:10190000F8FC000F0F1F133F133F173F173F103F07
:101910001F3FF8FCF8FCF8FCF8FCF8FCF8FCF8FCBD
:10192000F8FC1F3F1F3F1F3F1F3F1F3F1F3F1F3F31
:101930001F3FF8FCF8FCF8FCF8FCF8FCF8FCF0F8A9
:1019400000F01F3F1FFF5FFF5FFF5FFF5FFF3F7FF5
:10195000003F0912861228130912D7120312130826
:10196000001A181F0016001F000F001F080A021F90
:10197000000A0E000006011501260137014A015D2B
:1019800001720188019F01B801D201EE010B022A08
:10199000024B026E029302BA02E40210033F03708C
:1019A00003A403DC03170455049704DD042705751D
:1019B00005C80520067D06E0064907B8072D08A9D9
:1019C000082D09B9094D0AEA0A900B400CFA0CC01F
:1019D0000D910E6F0F5A1053115B1272139A14D49B
:1019E0001520178018F519801B231DDE1EB420A6B4
:1019F00022B524D5F08D14A1C881CFD9F1AF200034
:101A00005810F0F89C8E8783878E9CF8F00000FEBB
:101A1000FF0303030303070EFCF80000FEFF0303AC
:101A2000030303070EFCF80000FFFF0000000000A6
:101A30000000FFFF0000FEFF8383838383C7EE7CEB
:101A4000380000F8FC0E07030303070EFCF8000043
:101A50003F7FE0C08080C0E07F3FFFFF01010101C8
:101A6000010101FFFF0000FFFF0C0C0C0C1C3E7776
:101A7000E3C100007FFFC0C0C0C0C0E0703F1F00D6
:101A8000001F3F70E0C0C0C0E0703F1F00007FFF3C
:101A9000C1C1C1C1C1E3773E1C00001F3F70E0C05F
:101AA000C0C0E0703F1F000000000001FFFF010008
:101AB0000000EA13B114E113751FCF134B207D15FD
:101AC00082140212080B0002020200000904000046
:101AD0000102020000052400100105240101010497
:101AE00024020605240600010705810310004009B1
:101AF000040100020A00000007050202400000077E
:101B00000583024000000403090412010002EF02F1
:101B100001404123368000010102030141726475D6
:101B2000696E6F204C4C430041726475626F79009E
:101B3000C92711241FBECFEFDAE0DEBFCDBF11E011
:101B4000A0E0B1E0E6EDF5E502C005900D92AA3304
:101B5000B107D9F727E0AAE3B1E001C01D92A3378E
:101B6000B207E1F71DE0C9E9DDE004C02197FE01FD
:101B70000E94E32AC839D107C9F70E94DE270C94D6
:101B8000E92A0C9400008F929F92AF92BF92CF925D
:101B9000DF92EF92FF920F931F93CF936C01411549
:101BA000510509F4E8C0FA011491319694915A0153
:101BB000F2E0AF0EB11CE12EF12C222301F141E045
:101BC00050E0892F877011F450E040E0E92FE6954E
:101BD000E695E695E40FF52FF11DEE9DA001EF9D32
:101BE000500DFE9D500D1124033011F4440F551F6C
:101BF000249FF001259FF00D1124AE0EBF1ED601CB
:101C0000AE0DBF1D1A161B060CF0B5C080E8C81635
:101C1000D1040CF0B0C09B01290F311D1216130620
:101C20000CF0A9C0603471050CF0A5C0A114B1047A
:101C300009F4A1C0C62FC770AB0177FF02C0495F8E
:101C40005F4F23E0559547952A95E1F7242F77FFBD
:101C500004C0CC2311F02FEF240FEE27FF27EC193F
:101C6000FD09D7FC02C0F0E0E0E030E83C19A03804
:101C7000B1050CF4312F3E1B622F022E000C770BA6
:101C8000462F40952F3F0CF040E051E0892F8770A0
:101C900009F450E0969596959695590F650F711D2C
:101CA0006930710514F058E0521B541B240F60E892
:101CB0002603D0011124AC0DBD1DAE0FBF1F149F14
:101CC000E00DF11D1124AE0EBF1E8C2F0C2E000C4A
:101CD000990B0A3F09F45BC00B3F09F486C003303F
:101CE00009F049C0832F90E0EA0DFB1DAD58BC4FB1
:101CF00000E810E0081B190BB701681B790B660F91
:101D0000771F81E090E07C010C2E01C0EE0C0A945C
:101D1000EAF7832E9C2ECF93DF93ED01EF96EF969B
:101D20002296A590C590992059F0AE9C5001CE9C6A
:101D3000600127302CF4F880D094FD20FB28F99224
:101D400022233AF0FC90C094FC20FA28FD920C94D7
:101D5000AA0E11963A9529F75A9551F0382D2395E8
:101D60001124E60FF11DA00FB11DC00FD11DD9CF59
:101D7000DF91CF911124CF911F910F91FF90EF90A0
:101D8000DF90CF90BF90AF909F908F900895D52E09
:101D9000D20ED21681F3AD014D585C4F70E060E079
:101DA000631708F054C0F501E60FF71FE491F0E067
:101DB0004F01082E02C0880C991C0A94E2F727FDF7
:101DC00004C0FA01108118291083CC2349F0273070
:101DD0003CF48A0100581F4FF801C080C928C08216
:101DE0006F5F7F4F4F5F5F4FDBCFD52ED20ED21686
:101DF00009F4C1CFAD014D585C4F70E060E063174E
:101E000060F5F501E60FF71FE491F0E04F01082EB1
:101E100002C0880C991C0A94E2F727FD06C0FA015B
:101E20001081082D009510231083CC2359F0273002
:101E30004CF48A0100581F4FC92CC094F8019080BF
:101E4000C920C0826F5F7F4F4F5F5F4FD8CF2F5F3A
:101E5000AE0CBF1CA058BF4F9CCF2F5FAE0CBF1C59
:101E6000A058BF4FC4CFE3E7F3E0A0E0B8E00080A4
:101E70000EBC8111012C1197A0FDFDCF0192B9F785
:101E80000DB40895FC0180917203882311F13FB7CE
:101E9000F89482E08093E9002091F200822F90E094
:101EA0001816190614F481E090E0882339F0289878
:101EB00044E6409371034091F1004083222339F0BE
:101EC0002091F200211103C02BE62093E8003FBFD0
:101ED00008958FEF9FEF08952FB7F89483E08093D4
:101EE000E9009091E800892F807295FF04C09091DD
:101EF000F20080E4891B2FBF08958091690381114E
:101F00000DC082E08093650384E0809366031092A5
:101F100068031092670381E08093690385E693E08C
:101F20000895CF93DF931F92CDB7DEB76983DC01AD
:101F3000ED91FC910280F381E02D41E050E0BE0183
:101F40006F5F7F4F09950F90DF91CF91089583E0E8
:101F50008093E9008091F200882319F08AE380934E
:101F6000E80008950E946C0F90E00895CF93DF93EE
:101F70001F92CDB7DEB7FC018485958597FD08C01B
:101F80002FEF3FEF358724870F90DF91CF91089592
:101F9000CE0101960E94420F019719F4898190E0C9
:101FA000F3CF8FEF9FEFF0CF0F931F93CF93DF937C
:101FB0001F92CDB7DEB78C01FC018485958597FF14
:101FC0000BC0CE0101960E94420F019771F48981E6
:101FD00090E0F80195878487F801848595850F90B6
:101FE000DF91CF911F910F9108958FEF9FEFF1CF68
:101FF000FC018485958597FD0BC09FB7F89482E01E
:102000008093E9008091F2009FBF90E001960895CF
:102010009FB7F89482E08093E9008091F2009FBF1F
:1020200090E0089540910F035091100320910D030B
:1020300030910E0342175307B4F49091E800957065
:10204000E1F39091E80092FD19C08093F100809136
:102050000F039091100301968F739927892B19F420
:102060008EEF8093E80080910F039091100301960A
:102070009093100380930F0381E0089580E008950A
:10208000DF92EF92FF920F931F93CF93DF93D82E9F
:102090008A01EB017B01E40EF51ECE15DF0559F038
:1020A000D7FE12C0FE0184910E9412102196811168
:1020B000F4CF0FEF1FEFC801DF91CF911F910F9168
:1020C000FF90EF90DF9008958881EECF0F931F93DC
:1020D000CF93DF931F92CDB7DEB782E0898342E4CE
:1020E00050E064EC7AE180E80E9440100E947D0F8D
:1020F000DC0112960D911C910115110589F0D80192
:10210000ED91FC910280F381E02DBE016F5F7F4F66
:10211000C801099597FD04C0F80100851185ECCF31
:1021200089810F90DF91CF911F910F910895615098
:1021300030F02091F100FC0120830196F8CF28981F
:1021400084E68093710308953FB7F8948091090362
:1021500090910A03A0910B03B0910C0326B5A89BA4
:1021600005C02F3F19F00196A11DB11D3FBFBA2F29
:10217000A92F982F8827BC01CD01620F711D811DE9
:10218000911D42E0660F771F881F991F4A95D1F76E
:1021900008958F929F92AF92BF92CF92DF92EF926B
:1021A000FF926B017C010E94A4104B015C01C114E1
:1021B000D104E104F104B9F00E94A410681979096E
:1021C0008A099B09683E73408105910580F321E0EF
:1021D000C21AD108E108F10888EE880E83E0981E43
:1021E000A11CB11CE4CFFF90EF90DF90CF90BF9087
:1021F000AF909F908F9008958F929F92AF92BF92D1
:10220000CF92DF92EF92FF920F931F93CF93DF93C2
:102210006C017B018A0180910F01882309F45CC065
:1022200080917203882309F457C08091140380FFC2
:1022300005C08091E00082608093E000E801B12C4D
:102240008AEFA82E93E0892E2AE3922E209711F48C
:10225000BB20D9F10E946C0F81110AC0AA94AA2058
:10226000D9F161E070E080E090E00E94C910EECF0B
:102270008C171D0611F00CF08C2F9FB7F8948092EC
:10228000E9002091E80025FD02C09FBFDFCF282F85
:1022900030E0C21BD30BF701815020F041914093F5
:1022A000F100FACFE20EF31EBB2021F09092E8007D
:1022B000B12CEBCF8091E80085FDE7CF9092E8004C
:1022C000BB24B394209709F3F3CF5D9884E6809301
:1022D0001303101611063CF081E090E0F6019383A1
:1022E000828310E000E0C801DF91CF911F910F9130
:1022F000FF90EF90DF90CF90BF90AF909F908F9026
:102300000895E82FF0E0EE0FFF1F85919491089556
:102310000F9303E00E94C30D0F9108950F930AEFEE
:102320000E94C30D0F910895BC0190E080E00C94D1
:10233000C9108FB18095807F669B88601C9B8460EC
:102340000895109223023E983F9808953E9A3F9A2E
:1023500081E0809323020895EF92FF920F931F93E1
:10236000CF93DF93CDB7DEB72C970FB6F894DEBFCF
:102370000FBECDBF49835A836B837C839E83EF82DC
:10238000F88609871A872B873C8729813A814F81F4
:102390005885820F932F911D48175907D4F48B85C8
:1023A000840F952F911D281739079CF44B815C8170
:1023B00069857A858E81840F952F911D681779071D
:1023C00044F42C85260F372F311D81E04217530727
:1023D0000CF080E02C960FB6F894DEBF0FBECDBF98
:1023E000DF91CF911F910F91FF90EF900895909101
:1023F0000103982329F490910203982381E009F4C2
:1024000080E008950895109222028FEF8093560184
:1024100008958091FD029091FE0283709927892B87
:1024200029F4809155018F5F80935501809155016A
:10243000813138F0809122028F5F809322021092C6
:1024400055010895EFECF1E02AEE31E090E0828151
:10245000881F8827881F980F33962E173F07B9F7D4
:102460008091C701881F8827881F2091CA01221FD9
:102470002227221F820F2091CD01221F2227221FF7
:10248000820F2091C401221F2227221F820F209138
:10249000BF01221F2227221F820F2091BB01221F72
:1024A0002227221F820F2091B801221F2227221FDC
:1024B000820F2091B501221F2227221F820F890F30
:1024C000EDE8F1E021EB31E09381991F9927991F05
:1024D000890F34962E173F07B9F790918C01991FF9
:1024E0009927991F890F29F4809122028F5F809389
:1024F000220208958091220290915601891721F0BD
:102500008093560181E0089580E008950E947A1238
:10251000882379F080E890E090938A018093890184
:1025200083E280938B0182E980938C0187E0809322
:1025300088018091FD0280FD09C080918901909100
:102540008A01019790938A01809389018091890182
:1025500090918A01803F9F4F14F410928C010C944B
:1025600022128091FD029091FE029C012770332778
:10257000232B29F4209186012F5F20938601EDE81B
:10258000F1E029E081709927009731F44081518171
:10259000415051095183408340815181403F5F4FF9
:1025A0000CF41382215034962111EECF08950E942D
:1025B0007A12882399F180ED8093C70160E870E07A
:1025C0007093C6016093C5018093CA0140EC50E04E
:1025D0005093C9014093C8018093CD0120E031E0C0
:1025E0003093CC012093CB0170938E0160938D01C9
:1025F00094E090938F0180E9809390015093920131
:1026000040939101909393018093940130939601AC
:102610002093950190939701809398018091FD02FA
:1026200080FD10C0E5ECF1E080819181813E2FEFCB
:10263000920764F0019791838083339681E0EE3CAA
:10264000F80791F70E94B1120C9422121282F5CF72
:102650000E947A12882309F448C0EFECF1E080E48C
:1026600091E020E92283918380833396C096803F56
:1026700032E09307B9F7EDE8F1E020E830E09CE1C3
:1026800080E93183208392838383205D3F4F34969A
:10269000203741E03407A9F728E930E03093A20160
:1026A0002093A10194E09093A3018093A40128ECCE
:1026B00030E03093A6012093A5019093A701809369
:1026C000A80128EF30E03093AA012093A90190934C
:1026D000AB018093AC0128E231E03093AE0120934E
:1026E000AD019093AF018093B0012091FD02309134
:1026F000FE02C90169E070E00E94BB2A892B29F41F
:102700008091CE018F5F8093CE01C90163E070E0BC
:102710000E94BB2A892B81F4EFECF1E0808191814A
:10272000813E2FEF920764F0039791838083339665
:1027300031E0EA3EF30791F70E94B1120C942212A5
:102740001282F5CF40910502842F806880930502A4
:10275000942F9370E9F08091F80127E0829FF001B7
:102760001124E651FE4F31E035833483915092833A
:1027700013822091F9019091FB0146FD0AC0275E6A
:1027800020839650918336838F5F81708093F80108
:1027900008952F5F20839E5091831682F5CF20E00D
:1027A00047E257E064E270E080E190E00E948E1121
:1027B0008CE00E94F711882319F081E080930303D5
:1027C00008958CE00E94F711882319F081E080932E
:1027D00003030895CF93C0915501CF5FC093550176
:1027E00020E043E355E064E070E082E290E00E9484
:1027F0008E11C93718F081E080930303CF910895BB
:10280000CF92DF92EF92FF920F931F93CF93DF93BC
:10281000482F262F3091FD029091FE02832F66E013
:1028200070E00E94BB2A892B29F4809188018F5F78
:102830008093880130FD06C0809153018F5F8F77B0
:10284000809353013BE0239F7001112432E1239FC9
:10285000C0011124CD96489F8001499F100D11247D
:1028600037EF3203B00111246A5E7F4F060F171F46
:10287000D0E0C0E08FE0C82ED12CFE01E25DFA4F1F
:10288000E491809188018E0F9927991FB6010E94CB
:10289000CF2AFC01E05AF84E2491FE01E75DFA4F81
:1028A00064916E0D7F2D711D4AE057E1C8010E94B1
:1028B000881121960C5F1F4FC530D105F1F6DF91CD
:1028C000CF911F910F91FF90EF90DF90CF900895DF
:1028D00020E047E251E070E060E090E080E00E949C
:1028E0008E11E091530120E0EB3020F4F0E0E45E43
:1028F000FE4F24914CEA50E06EE270E085E390E0F8
:102900000C948E110E94681420E04EE559E161E2BA
:1029100070E088E190E00E948E1120E04EE559E1E0
:1029200061E270E085E590E00E948E1120E04EE5C6
:1029300059E16CE270E08FE090E00E948E1120E09F
:102940004EE559E16CE270E08EE590E00E948E1158
:1029500080ED0E94F711882319F086E0809303032D
:102960000895CF93DF930E94681420E049ED56E06C
:1029700061E270E088E190E00E948E1121E049ED73
:1029800056E061E270E085E590E00E948E1122E061
:1029900049ED56E06CE270E08FE090E00E948E110D
:1029A00023E049ED56E06CE270E08EE590E00E9495
:1029B0008E11C0915401D09101016C2F8D2F0E9476
:1029C000001480E40E94F711882341F0D11106C061
:1029D00081E080930101DF91CF91089580E20E9410
:1029E000F711882311F0D11115C080E10E94F71171
:1029F000811113C080E80E94F711811114C08CE08E
:102A00000E94F711882339F3CC0FDE5FCD0FC093FE
:102A10000303E1CF10920101DECFC111EBCF81E0C2
:102A200080935401D8CFCC2351F310925401D3CFCB
:102A30000E94A92923E030E040E050E00E94582A9B
:102A400097FD0CC0623071058105910544F062303C
:102A500071058105910511F480E00895089581E0E4
:102A60000895CF930E94A92928E030E040E050E08B
:102A70000E94582A86E0689FA0011124A6E0B2E0D7
:102A800090E080E070E06956774FC8E0FC01E156C5
:102A9000F74FE491F0E01196FC93EE93FC01EB55B7
:102AA000F74FE4911296EC931297FB01249130E0DA
:102AB000082E02C0359527950A94E2F721701396E7
:102AC0002C9313979A01280F391F2F31310521F0CC
:102AD00038F42B31310551F41296CC93129706C07D
:102AE00027323105C9F32B323105B1F30196149623
:102AF0008630910559F6CF9108952F923F924F92CB
:102B00005F926F927F928F929F92AF92BF92CF927D
:102B1000DF92EF92FF920F931F93CF93DF93CDB786
:102B2000DEB7AA970FB6F894DEBF0FBECDBF80ED1B
:102B30000E94F711882319F087E08093030380E255
:102B40000E94F711882319F081E08093030388E045
:102B50000E94F711882381F08091050287FF0E946F
:102B6000A2138091FF01833039F48091050285FD25
:102B700003C080628093050284E00E94F7118823DD
:102B800031F0809105028F77806480930502009177
:102B9000FD021091FE02C80169E070E00E94BB2AAC
:102BA000892B31F48091FE018F5F83708093FE0149
:102BB00020910502C80163E070E00E94BB2A7C01FD
:102BC00025FF17C0892B49F4809102028F5F809303
:102BD000020280E1282720930502809102028F31B2
:102BE00040F080910502109202028F7D80618093F7
:102BF00005028091050286FF91C600FD05C0809107
:102C000001028F5F809301028091FF01813031F4D6
:102C1000809101028B3011F40E94A2138091010275
:102C2000843138F080910502109201028F7B8093ED
:102C300005022091050222FF1FC0C80165E070E077
:102C40000E94BB2A892B49F4809103028F5F8093F5
:102C5000030288E028272093050280910302803137
:102C600058F08091050210920302837F8093050241
:102C7000809100028093FF018091050287FF10C0C0
:102C800000FD05C0909104029F5F90930402909113
:102C900004029B3028F0109204028F778093050283
:102CA00080910502282F237046E0249F9001112473
:102CB0004AEE442E41E0542ED20115969C91159770
:102CC0009923E9F013969C9113979F5F13969C9319
:102CD000139716964C911697442309F42FC64C91DE
:102CE0004F5F4C939217130651F04CF013961C92C1
:102CF000139715961C92159714961C921497179675
:102D000051E0A83FB507C9F62091F9013091FA01C9
:102D10001216130614F01092FD019091FD018C7FA4
:102D2000933008F013C61092FF01913009F00EC6DF
:102D30008F5F8093050203701127012B31F480917E
:102D400087018F5F837080938701EF2821F595E7D6
:102D5000E92E91E0F92E10E000E020EAC22ED12CFD
:102D600030E1832E912CA12CB12C77247394F701A0
:102D7000808191810197813BFFEF9F070CF4F5C59E
:102D8000F701918380830F5F1F4FF2E0EF0EF11C7C
:102D90000330110561F7E0912202F0E0EE0FFF1F12
:102DA000EE5AF64E85919491FC0109956BE7C62E7B
:102DB00061E0D62E75E7872E71E0972EE7E5AE2EFF
:102DC000E1E0BE2EFFE66F2EF1E07F2E22E731E03C
:102DD0003A8F298FF60181916F01F401E190F19012
:102DE0004F01882349F020E04DED59E065E070E0A7
:102DF000C70140960E948E11E98DFA8D8191FA8F5C
:102E0000E98F882349F020E047EC59E064E170E065
:102E1000C70143960E948E11F30181913F018823DF
:102E200051F02091870145E459E064E070E0C7016A
:102E300040960E948E118501312CF801608170E06E
:102E4000832D8695F0E28F9FC0011124F801218126
:102E500043EC58E08E0D9F1D0E948E1133940E5F3F
:102E60001F4FF4E03F12E9CF28E0A20EB11C4EE75D
:102E700051E04C155D0509F0ADCF80918C0184FFC8
:102E80000CC060918B0170E020E04BE15AE0809132
:102E9000890190918A010E948E118091B50184FF71
:102EA0001BC0E091B401F0E0E35CF54F2491E090A9
:102EB000B101F090B2016091B30170E04EE55AE0CB
:102EC000C7010E9488110BEF20E04CE45AE060E358
:102ED00070E0C7010E94C30D8091FD029091FE0237
:102EE0006C0151E0C522DD2480FD09C080917E0186
:102EF00090917F01019790937F0180937E01809153
:102F00007E0190917F0181159E4F34F480E890E01E
:102F100090937F0180937E01E0907E01F0907F018D
:102F200020E04EE55AE067E270E0C7010E94881198
:102F30000BEF20E04CE45AE060E370E0C7010E9430
:102F4000C30D00E811E036E8E32E31E0F32E40E84F
:102F5000A42EB12CC114D10431F4F80180819181E7
:102F6000019791838083F80180819181813C9F4FFB
:102F70001CF4F801B182A08220E040E65BE060E34F
:102F800070E0F801819191918F010E948E11E016FD
:102F9000F10601F725EC31E03AA329A30EEC11E08C
:102FA00038A32F8FEF8DF8A1828184FF09C020E024
:102FB00042EE5BE069E270E0808191810E948811BD
:102FC0002F8D38A12D5F3F4F38A32F8F0217130786
:102FD00049F72DE8222E21E0322E01EB11E03101DC
:102FE000F301838184FF10C0E0918601E770F0E077
:102FF000E458F34F2491F301628170E042E05CE019
:10300000808191810E948811F4E06F0E711C061579
:10301000170531F78091BF0184FF0DC06091BE019B
:1030200070E02091870144E85CE08091BC019091C0
:10303000BD010E9488118091C40184FF0DC0609180
:10304000C20170E02091870144E85CE08091C001FA
:103050009091C1010E9488112FEC31E03A8F298FA5
:103060008901912CF801A280A4FE22C0B090CE016B
:10307000B90CFB2DF170FF8B188EF801E080F18008
:103080006701F2E0CF1AD1086F89788D655E7F4FB6
:1030900020E040E85FE0C6010E9488118A2D83701D
:1030A000813009F4ABC408F499C4823009F4B5C482
:1030B00093940D5F1F4F29E09212D4CF8091BB01F2
:1030C000182F107184FF0BC020E046ED5FE060E236
:1030D00070E08091B9019091BA010E9488118091AD
:1030E000B80184FF0BC020E044EF5FE068E270E0CD
:1030F0008091B6019091B7010E948811112361F06F
:103100008091B9019091BA0120E046E150E160E27E
:1031100070E007960E948811909005028090FF0150
:103120000091FB011091FC01E090F901F090FA018F
:10313000892D807D803509F43AC508F087C4803137
:1031400009F4C5C4F2018581882381F084819681C8
:10315000992309F43DC6882349F0618170E080819C
:1031600022814CE956E190E00E948E11F7E04F0E6B
:10317000511C28EF421621E0520621F7D0908C0115
:10318000D6FE40C08091FD029091FE0266E070E0A4
:103190000E94BB2A892B29F4809188018F5F80933C
:1031A00088010FE617E188E7E82E87E1F82E9FE017
:1031B000A92EB12CF8013296E491809188018E0FEE
:1031C0009927991FB5010E94CF2AFC01E05AF84EB9
:1031D0002491F80131966491F801949170E0605E59
:1031E0007F4FA0918901B0918A014AE057E1FD012A
:1031F000E91BF109CF010E9488110D5F1F4FE016F6
:10320000F106C1F68090F9019090FA01C40103968D
:103210009A8B898B88E08D8B8EE08E8B8091FB0161
:103220009091FC012091050226FFDCC5E09101028E
:10323000F0E0E858F84EE49104978E1B91099C8BBE
:103240008B8B5091F80147E0459FF0011124E65126
:10325000FE4F818190E0208130E03C872B879E8764
:103260008D8788E08F87888B81E0851B4090CE0119
:103270003091FF013F8BC12CE82FF0E0FC8FEB8FEA
:103280004E9FC0014F9F900D112486519E4F9C016F
:103290002B5F3F4F3E8F2D8FAC014C5F5F4F5EA386
:1032A0004DA31CE1512EE98DFA8DA080B180842DB3
:1032B0008C0D81708BA31CA2C50102969A83898311
:1032C0008BA19CA14D969C838B83FEE0FD8322E124
:1032D0002E83ED8DFE8D80818823A1F1E98DFA8DFD
:1032E00082818073803171F5E980FA800B811C81C5
:1032F0002EE032E14B855C856D857E858F859889D2
:103300000E94AC118823F1F020E2E98DFA8D22832E
:10331000ED8DFE8D1082EDA1FEA1108280911E0226
:1033200090911F02A0912002B09121028C509E4FDB
:10333000AF4FBF4F80931E0290931F02A0932002B5
:10334000B0932102E98DFA8D82818073803101F57D
:10335000E980FA800B811C812D813E8149895A893F
:103360006B897C898D899E890E94AC11882381F0AC
:103370008091050285FD41C5FF89F23009F441C500
:103380008062809305028091FD0181508093FD0150
:10339000E98DFA8D8281982F9370913009F036C5AE
:1033A000F2E1AF1AB108BA82A9822BA13CA1265D35
:1033B0003F4F3C832B835D8223E02E8380738031DB
:1033C000F9F4E980FA800B811C812D813E814989C5
:1033D0005A896B897C898D899E890E94AC118823CA
:1033E00079F08091050285FD0BC05F89523041F074
:1033F0008062809305028091FD0181508093FD01E0
:10340000C394898D9A8D03969A8F898F99E0C912FA
:103410004ACFEBE2AE2EB12CF6E0CF2EA8E05A2E2A
:10342000B0E24B2EE9A1FAA18081918104969A83A2
:103430008983BC82AB82CD825E828281807380313F
:1034400001F5E980FA800B811C8126E038E049898A
:103450005A896B897C898D899E890E94AC11882349
:1034600081F08091050285FDE1C4FF89F23009F405
:10347000E1C48062809305028091FD0181508093B8
:10348000FD0129A13AA12D5F3F4F3AA329A34F8DFA
:1034900058A14217530731F68091C20190E004967B
:1034A0002091C0013091C1012E5F3F4F3A832983A3
:1034B0009C838B838CE08D838E838091C401807389
:1034C000803101F5E980FA800B811C812CE03CE021
:1034D00049895A896B897C898D899E890E94AC11A2
:1034E000882381F08091050285FDA8C45F89523050
:1034F00009F4A8C48062809305028091FD01815087
:103500008093FD018091BE0190E004962091BC0162
:103510003091BD012E5F3F4F3A8329839C838B837B
:103520008091BF018073803101F5E980FA800B81C1
:103530001C812D813E8149895A896B897C898D89BD
:103540009E890E94AC11882381F08091050285FD3F
:103550007DC49F89923009F47DC480628093050206
:103560008091FD0181508093FD018091B90190917E
:10357000BA019A83898380E290E09C838B8381E007
:103580008D8380E18E838091BB0180738031F9F45B
:10359000E980FA800B811C8121E030E149895A8958
:1035A0006B897C898D899E890E94AC11882379F072
:1035B0008091050285FD52C4FF89F23009F452C49E
:1035C00021E0821A91089092FA018092F90180918B
:1035D000B6019091B7019A83898388E290E09C8339
:1035E0008B8380E18D8384E08E838091B80180732A
:1035F000803101F5E980FA800B811C8120E134E003
:1036000049895A896B897C898D899E890E94AC1170
:10361000882381F08091050285FD28C44F894230BE
:1036200009F428C48062809305028091FD018150D5
:103630008093FD018091B30190E008962091B10143
:103640003091B2012E5F3F4F3A8329839C838B8355
:103650008CE08D8388E08E8327E0EB8DFC8D2E9FA0
:10366000C0012F9F900D11249C0126513E4F5901FE
:10367000F9018581882379F18091B50180738031CA
:1036800051F5E980FA800B811C812CE038E04B85F4
:103690005C856D857E858F8598890E94AC11882315
:1036A000D1F080E28093B501F501158214828091FA
:1036B0001E0290911F02A0912002B09121028C5015
:1036C0009E4FAF4FBF4F80931E0290931F02A09357
:1036D0002002B0932102C090B5018C2D80738031FF
:1036E00001F5E980FA800B811C812D813E81498999
:1036F0005A896B897C898D899E890E94AC118823A7
:1037000081F08091050285FDB9C3FF89F23009F48B
:10371000B9C38062809305028091FD01815080933E
:10372000FD016AE0C62E70E1B72EF1018281825060
:10373000990B20813181225031093A8329839C835E
:103740008B83CD82BE8283818073803131F5E980A5
:10375000FA800B811C812AE030E149895A896B8902
:103760007C898D899E890E94AC118823B1F080915B
:103770001E0290911F02A0912002B0912102885355
:103780009F4FAF4FBF4F80931E0290931F02A09395
:103790002002B0932102F1011382F4E02F0E311CBC
:1037A0006214730411F680918B0190E020918901DD
:1037B00030918A013A8329839C838B8380E18D83B6
:1037C0008EE08E838D2D8079803999F5E980FA809D
:1037D0000B811C8120E13EE049895A896B897C89F3
:1037E0008D899E890E94AC11882319F180911E0257
:1037F00090911F02A0912002B09121028C509E4F07
:10380000AF4FBF4F80931E0290931F02A0932002E0
:10381000B09321028D2D87708093000280EC8093FD
:103820008C018091050284608093050283E080937F
:10383000FD0106E012E05EE1E52E52E0F52EF80112
:10384000808191810197918380832381222339F0A4
:10385000628170E020E04CE857E10E9488110C5F23
:103860001F4FE016F10659F780911A0290911B0242
:1038700081309F4F14F40E94311520E040EF58E151
:1038800060E370E082E090E00E94881160911E0287
:1038900070911F0280912002909121022AE0AE01D6
:1038A0004F5F5F4F7A010E94012AF70101900020CB
:1038B000E9F731978F010E191F09002E000C110B2B
:1038C000C80143E0880F991F4A95E1F722E040EFD5
:1038D00058E160E370E007960E948811D12C8D2D8D
:1038E00090E0801791070CF0D4C2F701E80FF91FA0
:1038F000208121330CF4CBC220532A3008F0C7C2F8
:1039000033E0880F991F3A95E1F74EEA57E160E3FB
:1039100070E00A960E948811D394E1CF8091F9015A
:103920009091FA01843191050CF083C900FD81C9A1
:1039300001969093FA018093F9017BC911964C91FD
:1039400011974F5F11964C931197CCC9E091FF01ED
:10395000F0E0E555F74FE4918E0F80930502911149
:10396000EAC981E080930303E6C9F701D182C082EE
:103970000E94A929A50194010E94582AD80183E038
:10398000AA0FBB1F8A95E1F7A95ABE4F30E020E08D
:10399000E62FF0E0ED54F74F849190E0022E02C044
:1039A000959587950A94E2F7837011968C931197F9
:1039B0002E5F3F4F12962830310571F70E9418157F
:1039C000F801E558FE4F80838725F801EE58FE4F39
:1039D0008083F801E159FE4F8083D5C9EB2DE37058
:1039E000F0E0E25EF94E249142E15FE06F89788D6C
:1039F000695D7F4FC7010E9488115ACBEB2DE370A0
:103A0000F0E0E25EF94E24914AE15EE06F89788D44
:103A1000695D7F4FC7014297EECFEB2DE370F0E079
:103A2000E25EF94E249146EA5DE06F89788D695D2A
:103A30007F4FC70101970E94881120E046E85DE0B2
:103A40006F89788D615F7F4FC601D5CF803909F4CA
:103A500009C1803D09F076CBC0900102D12CA601AE
:103A60004858584E6A01C701039752E0F601851283
:103A700081C1C490B8016C19710920E046E451E19C
:103A80000E94881193FC12C0E0910102F0E0E85816
:103A9000F84EE491B8016B5071096E1B7109282D25
:103AA00042EB52E1C70104970E948811292D2C7026
:103AB0002C3009F047CBE0910102F0E0E858F84ED5
:103AC000E491B8016B5071096E1B7109FCC09091B3
:103AD000FE01292F30E0A901425E594E6A01FA0128
:103AE000249191709B8F1C8EAB8CBC8CA00EB11E50
:103AF00044E755E1B501C7010E94881193FC0EC04F
:103B0000B801695071092B8D3C8D620F731F282DF0
:103B100042EB52E1C70104970E948811892D8C70F5
:103B20008C3079F4B801695071094B8D5C8D640F4C
:103B3000751F2091000242EB52E1C70104970E94D9
:103B40008811292D23708091FD01823000F12223FC
:103B500071F0F60134912150B5016A5F7F4F4CE757
:103B600052E1C7010D96830F911D0E948811F60145
:103B70002491B8016C5F7F4F4B8D5C8D640F751F76
:103B80004EE052E1C70102970E948811DBCA22234E
:103B900009F4D8CAF601C4902150B5016A5F7F4F7D
:103BA000C7010C964CE752E18C0D911DEDCFC090F2
:103BB0000102D12C96012858384E6901F9018491EF
:103BC000B80162507109681B710920E040EC51E1B5
:103BD000C70103970E94881193FC0EC0F6018491DF
:103BE000B8016B507109681B7109282D42EB52E135
:103BF000C70104970E948811892D8C708C3079F44C
:103C0000F6018491B8016B507109681B710920910C
:103C1000000242EB52E1C70104970E948811292D4E
:103C2000237071F0F60184912150B8016E5F7F4FCF
:103C3000681B71094CE752E1C70140960E94881148
:103C40008091FD01823008F47DCAF601C490B8016C
:103C50006E5F7F4F6C19710920E040E951E1C701A7
:103C6000059792CFF2E08F1235C020E046E451E193
:103C7000B801C70103970E94881193FC13C080917B
:103C8000FE0181708DA31EA2B80169507109EDA1DA
:103C9000FEA16E0F7F1F282D42EB52E1C701049752
:103CA0000E948811292D2C702C3009F04BCA80916C
:103CB000FE0181708FA318A6B801695071092FA168
:103CC00038A5620F731F2091000242EB52E1C70139
:103CD00004975ACF8091FE01E82FF0E0E25EF94EA2
:103CE000249181708D8F1E8E6D8D7E8D600F711F62
:103CF00044E755E1C7010E948811B8016C5F7F4F0E
:103D00002D8D3E8D620F731F392D3370D32E809110
:103D1000FD0120E08230B8F042E151E1C701059792
:103D20000E948811DD2009F4A8CF2FEF2D0DB801D6
:103D30006E5F7F4F4D8D5E8D640F751F4CE752E1B6
:103D4000C701439698CF48EE50E1C70103970E9400
:103D50008811DD2009F491CF2FEF2D0DB8016D5F93
:103D60007F4F8D8D9E8D680F791F4CE752E1C70103
:103D7000419681CF2491B80162507109621B71098B
:103D800020E046EA50E10E948811292D237071F04D
:103D9000F60184912150B801645F7F4F681B71095F
:103DA00044E650E1C70107960E9488118091FD0109
:103DB000823008F467CEF601C490B8016F5F7F4F80
:103DC0006C19710920E04CE350E1C701059758CE0A
:103DD000882309F4CBC9618170E08081228142E2AD
:103DE00056E1C1C92091FE01217029A71AA60297A8
:103DF00029A53AA5820F931F22CA2F89223009F0E4
:103E0000C7CA20E2E98DFA8D2283C2CA923009F036
:103E1000D5CABA82A9822BA13CA12F5E3F4F3C8319
:103E20002B8333E03D8348E14E83C8CA2F8922307B
:103E300009F027CBE9A1FAA1428223CB8F898230F6
:103E400009F060CB80E28093C4015CCBEF89E23063
:103E500009F08BCB80E28093BF0187CB3F89323062
:103E600009F0B5CB80E28093BB01B1CB5F895230C2
:103E700009F0E0CB80E28093B801DCCB2F892230BF
:103E800009F04FCC8C2D80628093B5014ACC20E0A4
:103E900037CD80911E0290911F02A0912002B09117
:103EA00021020196A11DB11D80931E0290931F0255
:103EB000A0932002B0932102AA960FB6F894DEBF19
:103EC0000FBECDBFDF91CF911F910F91FF90EF906B
:103ED000DF90CF90BF90AF909F908F907F906F902A
:103EE0005F904F903F902F9008953F924F925F9236
:103EF0006F927F928F929F92AF92BF92CF92DF92FA
:103F0000EF92FF920F931F93CF93DF938DE0E4E145
:103F1000F1E0A9EFB1E001900D928A95E1F71092DE
:103F2000EF011092EE011092F6011092F50110923D
:103F3000F801109281011092800180E490E090934A
:103F400083018093820180E890E0909385018093C3
:103F5000840185E7C82E81E0D82E9BE7E92E91E009
:103F6000F92E22E7622E21E0722E3FE6432E31E049
:103F7000532E07E511E0D0E0C0E040E1842E912C03
:103F8000A12CB12C33243394F601C193D1936F014A
:103F90000E94A929A50194010E94582A25EA38E027
:103FA000D80190E080E070E06D54774FFB014491C0
:103FB00050E0082E02C0559547950A94E2F74370E9
:103FC00011964C931197F90144914C9302961296D5
:103FD0002F5F3F4F8830910549F70E941815F70170
:103FE00081937F018325F30181933F01F201819346
:103FF0002F01C05BDF4F085F1F4FC03FD10509F0A5
:10400000C3CF0E943115EFECF1E08AEE91E012820D
:1040100033968E179F07D9F71092C7011092CA01E5
:104020001092CD011092C4011092BF011092BB01F9
:104030001092B8011092B501EDE8F1E081EB91E04A
:10404000138234968E179F07D9F710928C01109225
:1040500022028FEF809356011092550110921E029A
:1040600010921F02109220021092210286E080938B
:104070000303DF91CF911F910F91FF90EF90DF909D
:10408000CF90BF90AF909F908F907F906F905F90F8
:104090004F903F900895CF930E94681420E049E428
:1040A00058E061E270E088E190E00E948E1121E02A
:1040B00049E458E061E270E085E590E00E948E11ED
:1040C00022E049E458E06CE270E08FE090E00E946A
:1040D0008E1123E049E458E06CE270E08EE590E058
:1040E0000E948E11C09123026C2F81E00E94001467
:1040F00080E50E94F711882319F0CF910C94A61146
:1041000080EA0E94F711882319F0CF910C94A11135
:104110008CE00E94F711882371F082E090E00E9409
:10412000422AC81729F06C2F82E090E00E944A2AA8
:1041300081E080930303CF9108951F920F920FB6F1
:104140000F9211248F939F938091E1009091E10051
:10415000937F9093E10083FF0FC01092E90091E0FC
:104160009093EB001092EC0092E39093ED0010928C
:10417000720398E09093F00082FF22C093E0909346
:10418000E9009091F200992319F09AE39093E800E6
:1041900090911303992341F09091130391509093C0
:1041A0001303911101C05D9A90917103992341F01D
:1041B00090917103915090937103911101C0289ACD
:1041C00084FF18C08091E2008E7E81608093E200BF
:1041D0008091E1008F7E8093E100809114038E7EB8
:1041E0008061809314039F918F910F900FBE0F9069
:1041F0001F90189580FFF7CF8091E2008E7E80613E
:104200008093E2008091E1008E7E8093E1008091B6
:1042100014038E7E8160E5CF1F920F920FB60F922E
:104220001124CF92DF92EF92FF920F931F932F935F
:104230003F934F935F936F937F938F939F93AF932E
:10424000BF93EF93FF93CF93DF93CDB7DEB76C9718
:10425000DEBFCDBF1092E9008091E80083FF25C04A
:1042600068E0CE0145960E94971082EF8093E800A7
:104270008D8987FF39C09091E80090FFFCCF982F7F
:10428000907609F034C19E894F89588D2F89F88C1A
:10429000911131C0803861F5809112038093F10053
:1042A0001092F1008EEF8093E8006C960FB6F894B0
:1042B000DEBF0FBECDBFDF91CF91FF91EF91BF91D8
:1042C000AF919F918F917F916F915F914F913F91AE
:1042D0002F911F910F91FF90EF90DF90CF900F9053
:1042E0000FBE0F901F9018959EEF9093E800C7CFD8
:1042F0001092F100D5CF913059F48111D3CF4130D4
:10430000510581F6809112038D7F80931203CACFED
:10431000933049F48111C6CF4130510519F680918F
:1043200012038260F2CF953041F48091E80080FF63
:10433000FCCF20682093E300B5CF963009F0A9C0E8
:104340000B8D1C8D22E01092E90010921003109248
:104350000F03F2122EC010920E0310920D030E9452
:1043600066101F8299E09983FA8291E09E8390EA19
:1043700098879AEF998720910F0330911003275F58
:104380003F4F3C832B838D831092E90010921003E2
:1043900010920F0310930E0300930D0349E050E0B9
:1043A000BE016F5F7F4F80E00E9440100E94661048
:1043B00079CF10930E0300930D030E947D0FDC0153
:1043C00012960D911C910115110509F451C1D801E6
:1043D000ED91FC910480F581E02DBE016B5E7F4F75
:1043E000C8010995009709F03EC1F80100851185C3
:1043F000EACFF3E0FF120EC08F89882309F440C092
:10440000823061F440E867E088E29BE10E949627F1
:10441000811148CF81E28093EB0047CF813029F4AE
:1044200040E86BE08CE19BE1F1CF833099F70E948B
:104430007D0FDC011296ED90FC908E010F5F1F4FF7
:104440006801E114F10479F0D701ED91FC91068047
:10445000F781E02DB801C7010995080F111DF7017B
:10446000E084F184EECFD8011C92F6010190002087
:10447000E9F73197BF016C197D0940E0C601C6CF4D
:1044800066E07BE1FB01449150E080E80E9440102F
:1044900009CF973009F4BECF983021F481E08093A2
:1044A000F10000CF993009F0FDCE837009F0B2CF52
:1044B000E2E2F1E081E031E096E32191222371F024
:1044C0008093E9003093EB00DF0111972C9120934A
:1044D000EC009093ED008F5F873079F78EE7809343
:1044E000EA001092EA008F8980937203DBCE8B8DF5
:1044F0009C8D1092E9001092100310920F0390937C
:104500000E0380930D03898D811192C08E899D8940
:10451000913A49F4813209F07DCF47E050E068E0FC
:1045200071E080E0B3CF913209F074CF833269F447
:104530008F89988DB0E0A0E08093040190930501ED
:10454000A0930601B0930701ADCE803269F480914B
:10455000E80082FFFCCF67E088E091E00E949710BE
:104560008BEF8093E8009ECE823209F09BCE8F893C
:1045700080930F01EEEFFFE7859194918B3F9C4D67
:1045800051F1E0E0F8E08091080190910901A091DB
:104590000A01B0910B01803B9440A105B105F1F4F3
:1045A00080910F0180FD1AC0EE3F8AE0F80789F57F
:1045B00087E797E791838083809160008093110360
:1045C00088E19BE00FB6F894A895809360000FBE39
:1045D0009093600067CEEEEFFAE0D5CF80819181B5
:1045E0008737974709F05ECEA89580916000886173
:1045F000809360008091110380936000EE3F2AE079
:10460000F20789F08091FE0A9091FF0A91838083DE
:1046100049CE808191818737980751F29093FF0AA4
:104620008093FE0AC5CF1092FF0A1092FE0A3ACE7E
:104630000E947D0FDC0112960D911C910115110550
:1046400009F4E8CED801ED91FC910190F081E02DC4
:10465000BE016B5E7F4FC8010995811123CEF80121
:1046600000851185EBCF181619060CF41BCED2CE9F
:10467000F1E0FF12BECE6AE07BE104CF1F920F9201
:104680000FB60F9211242F933F938F939F93AF9365
:10469000BF938091050390910603A0910703B09109
:1046A00008033091040323E0230F2D3758F50196BA
:1046B000A11DB11D2093040380930503909306036D
:1046C000A0930703B09308038091090390910A0314
:1046D000A0910B03B0910C030196A11DB11D809315
:1046E000090390930A03A0930B03B0930C03BF91AB
:1046F000AF919F918F913F912F910F900FBE0F908F
:104700001F90189526E8230F0296A11DB11DD2CF48
:104710002F923F924F925F926F927F928F929F92D1
:10472000AF92BF92CF92DF92EF92FF920F931F93BF
:10473000CF93DF933FE3C32E31E0D32EC5E2D2E027
:1047400010E000E05524539446E3442E59E0852EB2
:104750005DE3952E66246A94762CEEA5EE23B9F0DF
:104760008FA59E2F9370891708F4FAC0F0E0F59595
:10477000E795F595E795EE0FFF1FED58F64E8591FD
:104780009491D60112969C938E9311971FA69CA983
:104790009923F9F08DA9292F2F77022E000C330BC6
:1047A000821713060CF4E6C08A8197FFDCC08150A3
:1047B0008A838A818111D9C081E08A83EA81F0E00D
:1047C000EE0FFF1FED58F64E859194919EA38DA399
:1047D0001DAA58A5552321F13AA529A5311119C0C3
:1047E000422F407426FFC9C08DA19EA1850F911D47
:1047F00057FD9A9527FDCDC097FDC9C0442309F404
:10480000BFC0863BB4E29B0714F085EB94E29EA305
:104810008DA381E0830F8AA72F73321708F01AA6A1
:104820009BA5992371F0EA81EE2359F08DA52CA563
:10483000422F4F71382F3F71341708F0ADC08F5F92
:104840008DA749A9442311F13AA9632F607436FF5B
:10485000CFC08DA19EA12BA950E027FFCCC0840F13
:10486000951F97FDD2C0662309F4C8C0863BE4E2D9
:104870009E0714F085EB94E29EA38DA33F71822FD7
:104880008F71831708F0C6C02F5F2BAB89A19AA147
:10489000009709F4C6C08F3F980719F001979AA3B3
:1048A00089A320910201822F90E0002E02C09595ED
:1048B00087950A94E2F780FD0AC0033009F089C2A7
:1048C0008091EE0290E09595879580934E01207F30
:1048D00051F58091450290917B02890F9091B10230
:1048E000890F9091E702890F09F47DC28DEFA82E00
:1048F00082E0B82E95E2E92E92E0F92EF70180A130
:104900000E948111D70111969C938E9392961C92CE
:104910001E929197B6E3EB0EF11CAE14BF0471F733
:1049200080EF809302010F5F1F4FE696B5E0CB0E3C
:10493000D11C0430110509F010CFDF91CF911F91E8
:104940000F91FF90EF90DF90CF90BF90AF909F902E
:104950008F907F906F905F904F903F902F90089531
:104960008F5F8FA714CF8F5F23CF803408F426CFBB
:104970008FE323CF8F5F8DAB2CCF8FA190E036CF0D
:104980008034910514F08FE390E08FA342CF90E044
:1049900080E04423D1F33BCF807EF1F480E28DA709
:1049A0008DA5807E51F09F3F09F1292F22952F7010
:1049B000E20F803411F49F70E90F88A9F0E0E80F4E
:1049C000F11D87FDFA95EE0FFF1FED58F64E85910C
:1049D00094919EA38DA335CF803231F426FD04C07F
:1049E0009F3F11F080E4DBCF1DA6DACFE0E0E1CFFE
:1049F0008FA190E030CF841B950B33CF803491058D
:104A000014F08FE390E08FA339CF90E080E0611144
:104A100033CFF9CF27FF02C01BAA38CF80E88BAB7A
:104A200035CFC8010496352C01C0330C8A95EAF7BE
:104A30002BE1209F5001219FB00C1124409EC0010A
:104A4000419E900D1124DC01AB5DBD4F7D01222400
:104A50002A9488819981BC016F5F7F4F7983688335
:104A6000FC0144914034E8F44A83442319F088A9B6
:104A7000480F4A83EA81F0E0EE0FFF1FED58F64E33
:104A8000859194919EA38DA389A5811102C08FA5C4
:104A90008FA38CA585FD1DA689A19AA10097C9F2B7
:104AA000FACE403A08F007C1A42FA054BB0BAC309B
:104AB000B10509F4BEC00CF04BC0A530B10509F436
:104AC000A1C0ECF4A230B10509F49CC08CF410979D
:104AD00009F490C0119701F7029699838883FB012E
:104AE000649168A780E0413409F080E489A7D4CFBD
:104AF000A330B10509F493C0149771F3CDCFA8305A
:104B0000B10509F462C0A4F4A630B10509F487C068
:104B1000179709F0C1CFFB0164916BA79C012D5F32
:104B20003F4F39832883FC013296E491ECA7B4CF40
:104B3000AA30B10509F47BC002961B970CF471C032
:104B400099838883FB01849168A9680F68ABA4CF1F
:104B5000A331B10509F477C064F5AF30B10509F4AC
:104B600070C0DCF4AD30B10509F469C01E9709F0DE
:104B700093CFFB012591349129AB9C012D5F3F4FD1
:104B800039832883FC0132962591349180E04E349C
:104B900009F080E4820F8AAB7FCFA131B10509F41F
:104BA00050C03CF3029699838883FB0164916CABFF
:104BB00073CFAC35B10509F450C04CF4A431B10544
:104BC00009F443C0559709F067CF1BA665CFAE35F2
:104BD000B10509F45BC00CF453C0AF35B10509F061
:104BE0005BCF809102018325809302011FA27AA2EC
:104BF00069A252CF029699838883FB0164916FA3C7
:104C00006FA74ACFFB01649168A79C012D5F3F4FBE
:104C100039832883FC013296E491E9A73DCF18A699
:104C20003BCF99838883FB0164916EA735CF1EA685
:104C300033CF029699838883FB01649187CF18AAAA
:104C40002BCF19AA29CF1CAA27CF2BA6029699836E
:104C50008883FB0164916CA71FCF02969983888398
:104C6000FB016491E09124026E0F6093240270E0D6
:104C7000C4010E94CF2A70933E0160933D010CCF86
:104C8000029699838883FB016491EFCFA5E2B2E09D
:104C900021E030E0FC01E20FF31FE4919096EC93E9
:104CA00090972F5F3F4FD6962530310599F705969F
:104CB00099838883F1CE403E28F44F59550B5AA36F
:104CC00049A3EACE403EA9F4DE0190E080E096954B
:104CD000982F882797958795ED91FD91E4912E2F38
:104CE0002F77822BE7FDF3CF8F5B9F4F9AA389A38A
:104CF000D3CE4C3F08F4D0CE24E0240F223098F5D8
:104D00004C3F79F1029699838883FB016491E88195
:104D1000F9819F012F5F3F4F39832883E4915CA184
:104D20005E17D1F04F8D842F90E07BA1D701A80FA3
:104D3000B91F51967C93519758965C93D501A80F53
:104D4000B91FAA0FBB1FAB5DBD4F14963C932E93AA
:104D500013974F5F4F8FECA36BA38CA10E9481111F
:104D6000A7CF60E0D4CFDE0190E080E04E3FF9F4C1
:104D70008BA1811119C0EF8DEE2379F3E150EF8FF4
:104D8000F0E0D501AE0FBF1FAA0FBB1FAB5DBD4F3B
:104D900013968D919C9199838883EE0DFF1D8189D7
:104DA0008BA3808D8CA378CE81508BA3D6CF969584
:104DB000982F882797958795ED91FD91E4913E2F47
:104DC0003F77832BE7FDF3CF680F791F79836883E3
:104DD00063CE8DA19EA1D60112969C938E931197BE
:104DE0008FA18C9374CDE5E2F2E088EDDF011D9296
:104DF0008A95E9F71092720096CD2F922FB62F93D5
:104E000020913C01209520933C0109F08BC0BF9379
:104E1000AF930F921F9220914A0100904C01020E15
:104E200000924C0120914B0110904D01121E1092E6
:104E30004D01B12DB7FDB095BB0FA0914901B05800
:104E4000BA02110CA12D2091400100904201020EE6
:104E5000009242012091410110904301121E1092D4
:104E60004301212D220F2121B0913F0127FDB19552
:104E7000AB0F2091450100904701020E00924701BF
:104E80002091460110904801121E10924801B091E5
:104E9000440117FCB195AB0FB1E000904F011090A9
:104EA0005001000C111C17FC0B2616FC0B2600925F
:104EB0004F0110925001B0914E0117FCB195AB0F0C
:104EC000B0910001AB0FA093CF00B0913B01A09136
:104ED0003A01119729F0B0933B01A0933A011EC00B
:104EE000B0913E01A0913D01B0933B01A0933A01E6
:104EF00078943F934F935F936F937F938F939F9398
:104F0000EF93FF9311240E948823FF91EF919F91CB
:104F10008F917F916F915F914F913F911F900F9073
:104F2000AF91BF912F912FBE2F901895EF92FF92C6
:104F30000F931F93CF93DF93F82E192FE62E042F94
:104F400081E0860F880F0E94121083E00E941210E9
:104F5000CF2DD12FEC0EFD2EF11CCE15DF05B9F0B3
:104F600007FF13C0FE0184910E941210182F80E0E9
:104F70000E941210812321968111EFCFDF91CF91F2
:104F80001F910F91FF90EF9008958881EDCF81E000
:104F9000F5CFE5E1F3E01382128288EE93E0A0E022
:104FA000B0E084839583A683B7838CE291E09183FC
:104FB00080838FEF9FEF958784870895789484B5D9
:104FC000826084BD84B5816084BD85B5826085BD05
:104FD00085B5816085BD80916E00816080936E0093
:104FE0001092810080918100826080938100809185
:104FF0008100816080938100809180008160809336
:105000008000809191008260809391008091910056
:1050100081608093910080919000816080939000E6
:105020008091C10084608093C1008091C100826042
:105030008093C1008091C10081608093C100809104
:10504000C30081608093C3008091C0008260809320
:10505000C0008091C20081608093C20080917A007C
:10506000846080937A0080917A00826080937A00D5
:1050700080917A00816080937A0080917A008068C4
:1050800080937A001092720310921203109214030C
:105090008091D70081608093D70080EA8093D80008
:1050A00089B5806189BD89B5826089BD09B400FE7A
:1050B000FDCF61E070E080E090E00E94C910809137
:1050C000D8008F7C80618093D8008091E000807F41
:1050D0008093E0008091E1008E7E8093E1008DE07E
:1050E0008093E200559A209A81EC80937C0085B1F0
:1050F000806F85B984B1877E84B984B1876E84B9A5
:105100005E9A5F988AB1806D8AB9769A6E9881B3FB
:10511000806F81BB899880B38D7080BB80E58CBD2A
:1051200081E08DBD85E090E00E9494115F9A85E05A
:1051300090E00E9494115E985C98E3EFF9E180E0C2
:105140009AE124912EBD00000DB407FEFDCF3196EB
:105150008E179F07B1F75C9A81E880936400809175
:10516000650081608093650082E090E00E94422AA1
:105170008823D1F10E94A61181E090E00E94422A8A
:10518000182F147081E090E00E94422A81FF0BC02A
:1051900011112E98C1EFDFEF0E94991186FF27C0F1
:1051A0002E9A2F9A2D9A80E180930301EE24E394A6
:1051B00003E713E0C0E0D0E0DD24D3948FB7F89488
:1051C0004091050350910603609107037091080315
:1051D0008FBFF090FF02FF2089F11092FF0220970D
:1051E00069F30E940000EACF0E94A111C5CF1123EC
:1051F00029F0C430D10511F42E9A2F9881E00E9435
:10520000330F20E040E05AE1BE0184E190E00E94CB
:105210008E1180E00E94330F8FE090E00E94941185
:105220002196C931D10509F0B7CF112311F02F9A7A
:105230002D9880E991E00E949411B4CF80910003F1
:10524000942F981B892F90910301891738F48F5F51
:10525000891728F6E3BE889513BEC1CFD092FF020E
:10526000409300038091FD029091FE02019690937D
:10527000FE028093FD0280910203809301030E944D
:105280009911809302038F2DF80181118FEF002473
:1052900081938193819381930394D1F7E0910303E8
:1052A000F0E0EE0FFF1FEE54F54E85919491FC0156
:1052B000099580E00E94330F92CF8F929F92AF9218
:1052C000BF92CF92DF92EF92FF92CF93DF93EC01E8
:1052D000688179818A819B816115710581059105BC
:1052E00021F464E279ED8BE597E02DE133EF41E0C5
:1052F00050E00E94582A49015A019B01AC01A7EADB
:10530000B1E40E94772A6B017C01ACEEB4EFA501F9
:1053100094010E94852AC60ED71EE81EF91EF7FECC
:1053200006C081E0C81AD108E10880E8F80AC882FE
:10533000D982EA82FB82C701B6019F77DF91CF91C4
:10534000FF90EF90DF90CF90BF90AF909F908F90A5
:1053500008958F929F92AF92BF92CF92DF92EF9279
:10536000FF92609110017091110180911201909152
:105370001301611571058105910521F464E279ED50
:105380008BE597E02DE133EF41E050E00E94582A91
:1053900049015A019B01AC01A7EAB1E40E94772AB6
:1053A0006B017C01ACEEB4EFA50194010E94852A4B
:1053B000C60ED71EE81EF91EF7FE06C081E0C81A09
:1053C000D108E10880E8F80AC0921001D0921101DA
:1053D000E0921201F0921301C701B6019F77FF908E
:1053E000EF90DF90CF90BF90AF909F908F900895F7
:1053F0006093100170931101809312019093130137
:105400000895BB272A3051F4992342F4BDE29095C8
:105410008095709561957F4F8F4F9F4F0C94112A07
:10542000BB27FA01A62F6217710581059105330B81
:1054300030FB66F0AA27660F771F881F991FAA1FE7
:10544000A21710F0A21B63953850A9F7A05DAA33EC
:1054500008F0A95DA19336F7B111B1931082CA018A
:105460000C94322ADC01FC01672F71917723E1F75C
:10547000329704C07C916D9370836291AE17BF0721
:10548000C8F30895F999FECF92BD81BDF89A992786
:1054900080B50895262FF999FECF1FBA92BD81BD20
:1054A00020BD0FB6F894FA9AF99A0FBE01960895A6
:1054B000052E97FB1EF400940E946F2A57FD07D01B
:1054C0000E948A2A07FC03D04EF40C946F2A509550
:1054D0004095309521953F4F4F4F5F4F08959095E0
:1054E0008095709561957F4F8F4F9F4F08950E94D3
:1054F000AC2AA59F900DB49F900DA49F800D911D87
:1055000011240895B7FF0C94772A0E94772A821BF2
:10551000930B0895A1E21A2EAA1BBB1BFD010DC01F
:10552000AA1FBB1FEE1FFF1FA217B307E407F50753
:1055300020F0A21BB30BE40BF50B661F771F881F2F
:10554000991F1A9469F760957095809590959B01C5
:10555000AC01BD01CF010895A29FB001B39FC0016E
:10556000A39F700D811D1124911DB29F700D811D8F
:105570001124911D0895AA1BBB1B51E107C0AA1F4E
:10558000BB1FA617B70710F0A61BB70B881F991FE4
:105590005A95A9F780959095BC01CD01089597FB88
:1055A000072E16F4009407D077FD09D00E94BB2A7D
:1055B00007FC05D03EF4909581959F4F0895709516
:1055C00061957F4F0895EE0FFF1F0590F491E02D38
:0655D0000994F894FFCFDE
:1055D6008001F010FFFFFFFF00E100000000000067
:1055E600010000001400210001000000000000007E
:1055F6003000C1808100000000000000910FFC1007
:0A560600B20FA70FF80FB60FD40F74
:00000001FF
