:100000000C94DC050C9404060C9404060C94040671
:100010000C9404060C9404060C9404060C94040638
:100020000C9404060C9404060C9408110C9477119B
:100030000C9404060C9404060C9404060C94040618
:100040000C9404060C9404060C9404060C94040608
:100050000C9404060C9404060C9404060C94A91346
:100060000C9404060C9404060C9404060C940406E8
:100070000C9404060C9404060C9404060C940406D8
:100080000C94F3130C9404060C9404060C940406CC
:100090000C9404060C9404060C9404060C940406B8
:1000A0000C9404060C9404060C940406201001031E
:1000B000FBFBFB07070703FEFCF800F070B000C075
:1000C000E0F01030302000C0A0303030E0C0000040
:1000D0007F7F7F00070706030100007E3F1F001F90
:1000E0003F7F40606020001F3F6060602F1F371817
:1000F000F8882868686868E8E8E8E8C88810204058
:100100008081819F9F8181809F9F9591809E9F8507
:100110009F809F9F8284829F80808088949C809C07
:100120008C94809C9498880001FF00FFFFFF00E002
:10013000E0E07F3F1F80C0E46666666EFEFCF8016B
:100140000303F9FCFE0206060400F9F4068686FEA7
:10015000FC0000F8FCF6180CCCEDE5E1F1FF000026
:10016000FFA0AFAFAFA0A0B9B3A7AEACA3A7AEAC92
:10017000ACACA4A3A1AFACA6A0B3A7AFA8ACACA4F1
:10018000A0B3A7ACACACACA4A0A0AFA7A3B0B8BFC1
:10019000BFBFBFBFFF2A18370386BC3C1C641213C5
:1001A000475745474147404043831F1F39293B2854
:1001B000282828203907050426E5C4CE1F39F2C4B3
:1001C000F83C00FF00005A42FFFFBD81FF818181A2
:1001D000BD81C3BDC37E000042566A564200427EC6
:1001E00000008181003C3CFFC38181ECC0613D3C4B
:1001F000382648C8E2EAA2E282E20202C2C1F8F866
:100200009C94DC14141414049CE0A02064A72373B1
:10021000F89C4F231F0C08000000000000000000A5
:100220003810000000000000000030787830000036
:100230000000000880207020000000400010000036
:10024000040000000000000C080000000000000096
:1002500000001C0800000000000000000C1E1E0C26
:1002600000000000001001040E040000000200085D
:100270000000200000000000000B0803030303033C
:100280000303030303033C38000000000080F8FE72
:100290000FE3FB1B0B0B8BFBF3F7F6F6F60606ECF6
:1002A000ECECECECECECECECECECECECECEEE6F688
:1002B000F6F6F7F3FBFBCBCBFBE30FFEF8801E3328
:1002C0002121339E00000080F8FF0FE0F8F9F9F9D2
:1002D000F9F9F9F9F1F3F3F3F3F0F0FFFFFFFFFFA2
:1002E000FFFFFFFFFFFFFFFFFFFFFFFFFFFFFFFF1E
:1002F000FFFFFFFF7F7FFEE00FFFF8800606000094
:100300000000000F3FF0C6070404070707070707B0
:10031000070707070707FFFFFFFFFFFFFFFFFFFFBD
:10032000FFFFFFFFFFFF070707070707878707078D
:1003300026860707C6F03F1F0080800000000000EF
:100340000000030784C4E4E4E4E4E4E4E4E4C49CDB
:10035000000FE7E7E7E7E7E7E7E7E7E7C7870F1F0C
:100360000FC7E7E0ECE4E4E4E5E5E4C404040407D3
:100370000300C040C30311000000000000000000A3
:10038000FFFFFFFFFF393939FFFFFF0FE0E0EFEF1D
:100390000FFFFF183879FFFFF703E0E0EFEF0FFFE3
:1003A000F9F0F0FCFDFDFD0DECE0E0E000000121C6
:1003B00001000000000080C0602060C080000000DC
:1003C000000C0C007EFE803C3E1C1C1C1C1C0C0CFB
:1003D0000E0C0C0C0C0E1E1C1C1C1C3C3E80FE7ECD
:1003E00000000000C0E0E0C00000000003030000C7
:1003F0000E1B3166C680D060311B0E0000382838D5
:100400000001471E3820202020301010D0D01010BE
:1004100090103020202020381E0701000006060022
:1004200000010100000000000000000001087EFF44
:100430001708FE81BD8989BD81BDADA5A581BDA17E
:10044000A181BD95959983FFFFFF81BD9595998108
:10045000BDA1A181BD9595B9819D91B19DC1FFFFC0
:10046000FF81A5BDA581BD8991BD81BD9595858182
:100470009DA5A5B983FFFF7F81BDA5A5A5819DA5EC
:10048000A5B981BD8991BD81BD9585C1FFFFFE8163
:100490008181ADADB5B581BD95958581A58991A5C4
:1004A000818181FFFFFF818181BDA5A5BD81BD95B2
:1004B000958581BD959585818181FFFF7F818181B2
:1004C0008181BDA5A5BD81BD8991BD8181818181CC
:1004D00081FFFF070005011A0109021B020D031C21
:1004E00003110310041503120517031C061A031C3D
:1004F000071E031C88088508830881088308860A6C
:10050000840C820E840C0000000000000000848037
:1005100084808680878088808880888081878180A9
:100520008280838084848583868287818880888096
:10053000888088808187828683858800000000000B
:100540000000114411441144114411041104110418
:10055000110401040104010401040100010001006F
:10056000010001040104010401041044104410447A
:100570001044104010401040104000400040004027
:10058000004000401040104010408000800080007B
:100590008000200020002000200008000800080043
:1005A00008000200020002000200050D0D0D090105
:1005B00001010A1A1A1A12020202153435342504EE
:1005C0000504296869684908090851D4D1D49114EF
:1005D0001114A1A4A1A42124212451445144514423
:1005E000514491849184918491840001010101001E
:1005F00000000103030302000000020606060400D7
:100600000000A0B0B0B0908080805058585848404A
:100610004040282C2C2C24202020145616561250F2
:1006200010500A4B0B4B0948084815451545144412
:100630001444124212421242124211451145114510
:100640001145008080808000000080C0C0C0400054
:10065000000040606060200000003844828985818D
:10066000423C0101010110101010000000000A00BE
:100670000A0000000000000000001B1B1B1B010102
:1006800001010101010111121314000016170000ED
:1006900000000D000C00000000001A1923220106C2
:1006A000201F010101011515151518181818000053
:1006B00000000B000B0000000000212121211E1E64
:1006C0001E1E010101011413121117160000000073
:1006D00000000C000D00000000002223191A1F204A
:1006E0000601010215140F0E1817000000000A0081
:1006F0000A0000000000000000001A192322010671
:10070000201F1313131316161616000000000A00FC
:100710000A000000000000000000212121211E1E0F
:100720001E1E1415010117180E0F000000000A000C
:100730000A0000000000000000002223191A1F20F8
:1007400006010101010110101010000000000A0054
:100750000A0000000000002400001B1B1B1B0101FD
:10076000010101010101111213140000161700000C
:1007700000000D000C00002400001A1923220106BD
:10078000201F010101011515151518181818000072
:1007900000000B000B0000240000212121211E1E5F
:1007A0001E1E2400000000000000010202020300DF
:1007B000000004050505060000000103010304050F
:1007C0000600000000000005081F111F111F171967
:1007D0001919170E1B0F1B0E150B150B151E0D1FD0
:1007E0000D1E0E1D1B1B0E060F1E0F06101C0F07E5
:1007F000030E151F150E1F081D081F1515041115D2
:100800000A1B041B0A17151215171F001F1F111FA3
:100810001F060C1F0A11111B0A1E1D151D1E031792
:100820001F1703141E0F1E14060F1F0D060D161F93
:10083000160D0404040E0A141A1D1A140A111511B7
:100840000A0B1000DCDCFE02FF02FF02FF00FE02CA
:10085000FF02FF02FFDCFE00DC00010103020702D1
:100860000702070003020702070207010300011045
:100870000800FECCFFE2FF4CFF5EFF58FF18FF6E42
:10088000FFE0FFACFEC0FE44FF56FF6AFF34FF00EE
:100890007E00FF99FFC3FF99FFBDFFA5FF24FFDB8B
:1008A000FFC3FF5AFF42FF81FFA5FFDBFF66FF008A
:1008B000FF007F33FF47FF32FF7AFF1AFF18FF76F2
:1008C000FF07FF357F037F22FF6AFF56FF2CFF00E3
:1008D0007E00FF76FF2CFF00FF66FF08FF48FF4EFB
:1008E000FF4CFF62FF48FF62FF34FF007F00000003
:1008F0000000FFC3FF7EFF00FFDBFF24FFA5FF9981
:10090000FF99FFC3FF99FFC3FF66FF00FF000000D0
:100910000000FF6EFF34FF00FF66FF10FF12FF7242
:10092000FF32FF46FF12FF46FF2CFF00FE000000D3
:1009300000007F367F1C7F3C7F26FF70FF26FF660E
:10094000FF10FF1CFF60FE20FE7CFE60FE74FE00B8
:10095000FE00E7C3FF66FF7EFF99FFC3FF99FF9983
:10096000FF42FF7EFFC3FF42FFFFFF81FFC3FF0087
:10097000E700FE6CFE38FE3CFE64FF0EFF64FF667F
:10098000FF08FF387F067F047F3E7F067F2E7F00B3
:100990007F007F36FF5CFF26FF70FF26FF66FF703B
:1009A000FF3CFE00FE68FE6CFE14FE74FE6CFE0052
:1009B000FE00FFC3FF7EFF99FFC3FF99FF99FF422F
:1009C000FF7EFF24FF99FFBDFF24FFE7FFBDFF006F
:1009D000FF00FE6CFF3AFF64FF0EFF64FF66FF0E30
:1009E000FF3C7F007F167F367F287F2E7F3E7F0073
:1009F0007F007E3CFE68FF72FF58FF16FF76FF50B7
:100A0000FF7CFE68FE24FE68FE34FE007E000000CF
:100A10000000FF7EFFA5FFC3FF7EFF5AFFDBFF4202
:100A2000FFE7FFBDFFA5FFBDFF66FF00FF00000061
:100A300000007E3C7F16FF4EFF1AFF68FF6EFF0A24
:100A4000FF3E7F167F247F167F2C7F007E000000F4
:100A50000000FECCFFE2FF4CFF5EFF58FF18FF6E68
:100A6000FF4CFF4CFF62FF48FF62FF347F007E00B7
:100A70000000FF99FFC3FF99FFBDFFA5FF24FFDB27
:100A8000FF99FF99FFC3FF99FFC3FF66FF00FF00B7
:100A900000007F33FF47FF32FF7AFF1AFF18FF760F
:100AA000FF32FF32FF46FF12FF46FF2CFF007E00A1
:100AB000004E0FF30F450F410FE80F71103D0FD897
:100AC0000E6F0B660B650B00000000240027002A48
:100AD000002D00300000000000250028002B002E13
:100AE00000310004040404040304050202020204A9
:100AF00003020202020606060606060404020202B9
:100B0000040404080201104080401020408040800E
:100B10000802040180402010020110801020404093
:100B2000200000000200090F0000030401000C0077
:100B300000000000000000000000000000000000B5
:100B4000080B00020202000009040000010202007A
:100B500000052400100105240101010424020605FA
:100B6000240600010705810310004009040100026A
:100B70000A0000000705020240000007058302404A
:100B800000000403090412010002EF0201404123A6
:100B9000368000010102030141726475696E6F20A5
:100BA0004C4C430041726475626F79000808000084
:100BB000000000000000461411241FBECFEFDAE051
:100BC000DEBFCDBF11E0A0E0B1E0E8E5FEE202C08B
:100BD00005900D92AC33B107D9F727E0ACE3B1E053
:100BE00001C01D92AB35B207E1F715E0CCEDD5E0C1
:100BF00004C02197FE010E942417CB3DD107C9F7FD
:100C00000E9483140C942A170C940000CF93DF9356
:100C1000A1E5B7E0CD91DC9111978881E7E5F7E098
:100C20009081892B8883CD91DC9111978881908167
:100C3000892B8883C0915307D09154079881809164
:100C400058078095892388830D90BC91A02D9C9195
:100C50008081809589238C93DF91CF9108954FB146
:100C60008CB123B190E08095909533E09595879570
:100C70003A95E1F7887030E02095309535952795C5
:100C8000359527952470822B942F9095907F892BF2
:100C90000895CF93C82F0E942F0680915A078C2366
:100CA00029F480915907C82381E009F480E0CF91AD
:100CB00008957F928F929F92AF92BF92CF92DF92D0
:100CC000EF92FF920F931F93CF93DF937C01EA0182
:100CD000FA0114913196549122962223F1F0A1E069
:100CE000B0E0852F877011F4B0E0A0E0E52FE69525
:100CF000E695E695EA0FFB2FF11D1E9FC0011F9F91
:100D0000900D1124033011F4880F991F289FF001D2
:100D1000299FF00D1124CE0FDF1FA12F012E000CF3
:100D2000BB0BF701EA0FFB1F1E161F060CF05FC17D
:100D300080E8E816F1040CF05AC1CB01850F911D33
:100D400057FD9A95181619060CF051C160347105BB
:100D50000CF04DC1209709F44AC1CB0177FF04C0C4
:100D600088279927861B970B382F3770CB0177FD83
:100D7000079623E0959587952A95E1F7282F77FF29
:100D800007C0332329F02FEF280F88E0831B382F6B
:100D9000AA24BB24AE18BF08F7FC02C0B12CA12CBA
:100DA00090E89E19E038F1050CF4912F9A19622F02
:100DB000022E000C770B462F40952F3F0CF040E0A1
:100DC000852F877887FF03C08150886F8F5F9924B4
:100DD000939418160CF0912C57FD595F5595559525
:100DE0005595950E690D711D693071051CF058E01F
:100DF000952E921A941A240F50E82503B00111245D
:100E00006E0D7F1D6A0D7B1D1403F0011124EA0D88
:100E1000FB1DAE014E0F5F1FE32E032E000CFF08DB
:100E2000033009F48FC00A3F09F448C0023009F0CA
:100E3000DEC0CFEFD0E00E2C02C0CC0FDD1F0A9435
:100E4000E2F7C095D0958D2EA058B109461B570BDF
:100E5000920E291509F4CBC08B01E02FE61BE91790
:100E600008F064C0F801E40FF51FA490B12C0E2C1B
:100E700002C0AA0CBB1C0A94E2F727FD0AC0E0914D
:100E80003803F0913903E00FF11FD080DC22DA281B
:100E9000D082332381F0273074F4E0913803F0914D
:100EA0003903680180E8C80ED11CEC0DFD1DD0800F
:100EB000D820DB28D0820F5F1F4FCFCFA058B109B9
:100EC000461B570B920E921609F491C0EB018C2F22
:100ED000861B891788F5FA01EC0FFD1FE491F0E0FD
:100EE0005F010E2C02C0AA0CBB1C0A94E2F727FD7E
:100EF0000AC000913803109139030C0F1D1FF8012F
:100F000080818A298083332379F027306CF4C09064
:100F10003803D09039038E0100581F4F0C0D1D1D52
:100F2000F80180818B2980832196D1CF2F5F605873
:100F30007F4F4A0F5B1F8DCF2F5F60587F4F4A0F47
:100F40005B1FC1CFE0903803F0903903C92FD0E088
:100F5000E40FF51F8701060F171F60587F4F6E0DB6
:100F60007F1D40E850E04C1B5D0BAC1BBD0B7D01B1
:100F7000EE0CFF1CC1E0D0E0032E01C0CC0F0A94A0
:100F8000EAF7D92FB12C90E080E0D12CC12C7D2E36
:100F9000892CD801AC2ECF93DF93C62FD72FC590C5
:100FA0008591332361F0CA9CC02CD12C8A9D802D61
:100FB00027302CF4B8801094B120BD28B992BC9091
:100FC00022231AF08095B822BC28BD92DA9539F711
:100FD0009A9451F0D72D23951124EE0DF11DA40FF5
:100FE000B11DC40FD11DDBCFDF91CF911124DF9153
:100FF000CF911F910F91FF90EF90DF90CF90BF9016
:10100000AF909F908F907F9008950F9302E020E023
:101010004CEA5BE00E9459060F9108950F930AEF86
:101020000E9459060F9108950F9303E00E945906FC
:101030000F910895FC018091E502882311F13FB7DB
:10104000F89482E08093E9002091F200822F90E0F2
:101050001816190614F481E090E0882339F02898D6
:1010600044E64093E4024091F1004083222339F0AA
:101070002091F200211103C02BE62093E8003FBF2E
:1010800008958FEF9FEF08952FB7F89483E0809332
:10109000E9009091E800892F807295FF04C090913B
:1010A000F20080E4891B2FBF08958091DC0281113A
:1010B0000DC082E08093D80284E08093D902109220
:1010C000DB021092DA0281E08093DC0288ED92E08C
:1010D0000895CF93DF931F92CDB7DEB76983DC010C
:1010E000ED91FC910280F381E02D41E050E0BE01E2
:1010F0006F5F7F4F09950F90DF91CF91089583E047
:101100008093E9008091F200882319F08AE38093AC
:10111000E80008950E94440890E00895CF93DF937B
:101120001F92CDB7DEB7FC018485958597FD08C079
:101130002FEF3FEF358724870F90DF91CF910895F0
:10114000CE0101960E941A08019719F4898190E056
:10115000F3CF8FEF9FEFF0CF0F931F93CF93DF93DA
:101160001F92CDB7DEB78C01FC018485958597FF72
:101170000BC0CE0101960E941A08019771F4898173
:1011800090E0F80195878487F801848595850F9014
:10119000DF91CF911F910F9108958FEF9FEFF1CFC6
:1011A000FC018485958597FD0BC09FB7F89482E07C
:1011B0008093E9008091F2009FBF90E0019608952E
:1011C0009FB7F89482E08093E9008091F2009FBF7E
:1011D00090E008954091D2025091D3022091D00224
:1011E0003091D10242175307B4F49091E800957002
:1011F000E1F39091E80092FD19C08093F100809195
:10120000D2029091D30201968F739927892B19F4FA
:101210008EEF8093E8008091D2029091D3020196E4
:101220009093D3028093D20281E0089580E00895E4
:10123000EF92FF920F931F93CF93DF93F82E192F06
:10124000E62E042F81E0860F880F0E94EA0883E0D3
:101250000E94EA08CF2DD12FEC0EFD2EF11CCE15E9
:10126000DF05B9F007FF13C0FE0184910E94EA0870
:10127000182F80E00E94EA08812321968111EFCF88
:10128000DF91CF911F910F91FF90EF90089588818A
:10129000EDCF81E0F5CFDF92EF92FF920F931F9396
:1012A000CF93DF93D82E8A01EB017B01E40EF51E6C
:1012B000CE15DF0559F0D7FE12C0FE0184910E94C1
:1012C000EA0821968111F4CF0FEF1FEFC801DF91DB
:1012D000CF911F910F91FF90EF90DF90089588813B
:1012E000EECF0F931F93CF93DF931F92CDB7DEB74F
:1012F00082E0898342E450E060E47BE080E80E9481
:101300004B090E945508DC0112960D911C910115A4
:10131000110589F0D801ED91FC910280F381E02D57
:10132000BE016F5F7F4FC801099597FD04C0F801AA
:1013300000851185ECCF89810F90DF91CF911F91AE
:101340000F910895615030F02091F100FC0120834D
:101350000196F8CF289884E68093E4020895282F18
:1013600030E0F901EF5DF44F9491F901EE5FF44F35
:1013700084912D51354FF9012491222309F430C075
:101380009923E9F091509F30D0F4E92FF0E0E55334
:10139000F64F0C942417F909FD09DA09F109F5094A
:1013A000DF09DF09DF09000A060A0A0A0E0A140A21
:1013B000DF09180A909180009F7790938000E22FB8
:1013C000F0E0EE0FFF1FEB52F54FA591B4919FB7E0
:1013D000F894EC91611132C080958E238C939FBF5D
:1013E0000895909180009F7DE8CF90918000977F35
:1013F000E4CF94B59F7794BDE2CF94B59F7DFBCFAA
:10140000909190009F7790939000D9CF9091900009
:101410009F7DF9CF90919000977FF5CF9091C0007C
:101420009F779093C000CBCF9091C0009F7DF9CF64
:101430009091C200977F9093C200C1CF8E2BCECFE8
:10144000CF93DF9390E0FC01EE5FF44F24918D5138
:10145000954FFC0184918823C9F090E0880F991F73
:10146000FC01E953F54FA591B491FC01EB52F54F06
:10147000C591D49161110DC09FB7F8948C912095BE
:1014800082238C938881282328839FBFDF91CF916B
:101490000895623051F49FB7F8943C91822F809563
:1014A00083238C93E8812E2BEFCF8FB7F894EC91A8
:1014B0002E2B2C938FBFEACF3FB7F8948091CC02AC
:1014C0009091CD02A091CE02B091CF0226B5A89BFB
:1014D00005C02F3F19F00196A11DB11D3FBFBA2FC6
:1014E000A92F982F8827BC01CD01620F711D811D86
:1014F000911D42E0660F771F881F991F4A95D1F70B
:1015000008958F929F92AF92BF92CF92DF92EF9207
:10151000FF924B015C010E945C0A6B017C010E94FE
:101520005C0A6C197D098E099F09683E734081052C
:101530009105A8F321E0821A9108A108B10888EE6C
:10154000C80E83E0D81EE11CF11C81149104A10493
:10155000B10429F7FF90EF90DF90CF90BF90AF904C
:101560009F908F9008958F929F92AF92BF92CF924B
:10157000DF92EF92FF920F931F93CF93DF936C0153
:101580007B018A0180910C01882309F45CC0809161
:10159000E502882309F457C08091D70280FF05C077
:1015A0008091E00082608093E000E801B12C8AEF36
:1015B000A82E93E0892E2AE3922E209711F4BB20C7
:1015C000D9F10E94440881110AC0AA94AA20D9F135
:1015D00061E070E080E090E00E94810AEECF8C171D
:1015E0001D0611F00CF08C2F9FB7F8948092E90043
:1015F0002091E80025FD02C09FBFDFCF282F30E0FB
:10160000C21BD30BF701815020F041914093F100B0
:10161000FACFE20EF31EBB2021F09092E800B12C2D
:10162000EBCF8091E80085FDE7CF9092E800BB24E6
:10163000B394209709F3F3CF5D9884E68093D602A4
:10164000101611063CF081E090E0F601938382834E
:1016500010E000E0C801DF91CF911F910F91FF9042
:10166000EF90DF90CF90BF90AF909F908F900895B4
:10167000AF92BF92CF92DF92EF92FF920F931F93A0
:10168000CF93DF936C017B018B01040F151FEB01DE
:101690005E01AE18BF08C017D10759F06991D60195
:1016A000ED91FC910190F081E02DC6010995892B07
:1016B00079F7C501DF91CF911F910F91FF90EF90C6
:1016C000DF90CF90BF90AF900895089588E00E947A
:1016D0004906882319F088E08093C60208952F9266
:1016E0003F924F925F926F927F928F929F92AF92B2
:1016F000BF92CF92DF92EF92FF920F931F93CF93FF
:10170000DF93CDB7DEB762970FB6F894DEBF0FBE9A
:10171000CDBFD090B202709155017D0D7A8B709340
:10172000550180915601909157018D0D911D909317
:1017300057018093560181E08093B4028093B502F3
:1017400090915401911107C0E2EAF7E0E491E0932F
:10175000540180935301E0905301EF868E2D90E069
:101760008090AB029090AC028401005F1F4F1C83FD
:101770000B831A89412E512C519441945108B12C5C
:10178000A12C50E040E09C012E55384F38872F8324
:10179000EF81F885EA0DFB1DE491E295EE0FE07E06
:1017A0006E2F70E07A836983A8E0B0E0312C212CA1
:1017B000CD0108979E838D83C201712C612C098114
:1017C0001A810E59194F1A8709879101265C3C4FDF
:1017D0003C872B87E985FA85E60DF71DC4909C01AF
:1017E0008C01085F1F4FC1103AC00217130709F49C
:1017F000A9C06D817E817E876D87ED85FE85EA17A4
:10180000FB0751F12038310510F5ED85E695E69599
:10181000E69560E8E69FF0011124E20FF31FE65C15
:10182000FC4F6D857E8567707727798B688BEE24FA
:10183000E394F12C088802C0EE0CFF1C0A94E2F736
:10184000F98AE88AE888E094F388EF20E38A6D85D6
:101850007E856F5F7F4FCFCF2F5F3F4FC6CF883FD3
:101860007FEF97070CF46EC080389105ECF4EB84A1
:10187000FC84E80EF91E28E0C29EF0011124E81B4A
:10188000F90B9C01BF01665C7A4F7E876D8737FF3D
:10189000D6C02F5F3F4F7FEFE71AF70A20173107B7
:1018A00019F02038310599F7883091050CF44AC0B9
:1018B000EB80FC80E816F9060CF444C02C2D30E0D7
:1018C000220F331F2E503B4FF901E590F490EF2883
:1018D000C9F1F901E590F4902F2D30E0FA0163E0B1
:1018E000EE0FFF1F6A95E1F7ED5AFE4F890174E094
:1018F000159507957A95E1F707701127080F191FBD
:10190000168305838901077011276D817E81060F7B
:10191000171F10870783870134E0159507953A95BF
:10192000E1F70F70112701873E2D3F7032873F2D61
:10193000331F3327331F3387F3FA222720F92487F5
:101940004F5F5F4F7FEF671A770A0896E4E06E16E5
:10195000710409F03FCF09811A810C5F1F4F1A8370
:10196000098310E8210E311C1896A834B10509F03E
:101970001FCF2FEFA21AB20A30E2430E511C65E0CE
:10198000A616B10409F004CF5093590240935802AF
:101990007A897032A0F0109255016F856F5F609365
:1019A0005301809154018450990B681719063CF03B
:1019B00081E080935301109257011092560160917B
:1019C000AD027091AE02DB01189610E080E090E06D
:1019D000E92FF0E0E417F5070CF03EC05F0123E0CB
:1019E000AA0CBB1C2A95E1F7F501E85AFE4F7F01CE
:1019F00020813181EB81FC812E173F07F4F4F70140
:101A00000481200F311D82169306BCF4228133819C
:101A10002A173B0794F40581200F311D62177307C5
:101A200064F4F501ED5AFE4F2485211113C023857E
:101A3000222319F0811101C0122F9F5FC9CFED85BC
:101A4000FE85E20FF31F6491F701F3896F2BF70115
:101A5000638B1FCF822FF1CF8093B7021093B60212
:101A60008091B9029091BA029401205F3F4F821792
:101A70009307ACF49C01205F3F4F821693067CF4E1
:101A80002091BB023091BC022A173B0744F4285F27
:101A90003F4F621773071CF421E02093B802F1E076
:101AA000FD1508F49CC0803891052CF402969093A3
:101AB000BA028093B9028091B9029091BA02803F34
:101AC0009F4F34F480E890E09093BA028093B9027B
:101AD000E091AF02F0E0EF5EFE4F80818F5F809378
:101AE000B002DD20C9F10E942F0687FF18C0809147
:101AF000AD029091AE02181619068CF42091B40232
:101B0000222369F0E091AF02F0E0EF5EFE4F20810A
:101B10002093B00201979093AE028093AD020E9491
:101B20002F0684FF19C08091AD029091AE028833D8
:101B3000910594F42091B502222371F0E091AF0257
:101B4000F0E0EF5EFE4F20812E5F2093B002019601
:101B50009093AE028093AD020E942F0683FF1AC0BD
:101B60008091B2028630B0F49091B302911112C00C
:101B70009091B80291110EC094E19093B3029091AC
:101B8000B7022091B60221110FC18F5F911181E040
:101B90008093B2020E942F0683FD0EC08091B20294
:101BA000882351F09091B302911106C08150809327
:101BB000B2028FE08093B3028091B702882389F04C
:101BC0008091B2028230A8F09091B302911111C0BD
:101BD00081508093B20288E28093B3020AC00197D9
:101BE00066CF8091B602882321F08091B2028330C3
:101BF00058F78091B8028823C9F08091B2028823F7
:101C000029F01092B20289E18093B3022091B302CD
:101C1000222309F450C08091AD029091AE0220FFC2
:101C200048C002969093AE028093AD028091B302B9
:101C3000882319F081508093B302198280915A024F
:101C400019811817D8F5A12EB12C25E02A9DF00195
:101C50002B9DF00D1124E65AFD4FE380F4800181A5
:101C60001281C0905601D090570120E041E458E025
:101C7000B701C8018C199D090E9414083FEFA31AEF
:101C8000B30A65E06A9DF0016B9DF00D1124E65AE0
:101C9000FD4FB7016D5F7F4FC8010396208147EC70
:101CA00057E08C199D090E940E0809810F5F098376
:101CB000C5CF0297B7CF1092B802B8CF6091AD02EE
:101CC0007091AE022091B0024FE658E08091AB02D5
:101CD0009091AC020E9414086091BB027091BC020A
:101CE0002AE04FE658E08091B9029091BA020E9432
:101CF00014088091BB029091BC02843191050CF0D4
:101D000049C01092BE0221E02093BF022091BE0282
:101D1000222361F02091BD02211108C00197909308
:101D2000BC028093BB0283E08093BD028091BF021E
:101D3000882381F08091BD0281110CC08091BB028B
:101D40009091BC0201969093BC028093BB0283E009
:101D50008093BD028091BD02882319F08150809349
:101D6000BD0262960FB6F894DEBF0FBECDBFDF9105
:101D7000CF911F910F91FF90EF90DF90CF90BF9088
:101D8000AF909F908F907F906F905F904F903F901B
:101D90002F9008958D3291050CF4B8CF21E0209357
:101DA000BE021092BF02B2CF9111F1CE82E0F0CE0E
:101DB00088E08093C60280E190E09093AC0280932B
:101DC000AB022CE130E03093AE022093AD021092D2
:101DD000AF021092B00283E08093B1021092B2027F
:101DE0001092B30281E08093B4028093B502109206
:101DF000B6021092B7021092B80240E850E0509339
:101E0000BA024093B9023093BC022093BB02809384
:101E1000BE021092BF021092BD0283ED94E0FC015D
:101E2000649160935A02AAE5B2E030E0AC014C5FE5
:101E30005F4F631709F1FC013196E4911596EC931D
:101E40001597FC01329624913196E491F0E22F9F90
:101E5000C0011124E80FF92FF11D1296FC93EE93A7
:101E60001197FA01849190E014969C938E931397A6
:101E70003F5F1596CA01DACF089587E08093C602C6
:101E8000089586E08093C60208958CE00E9449067A
:101E9000882319F081E08093C6020895CF93C09102
:101EA0005201CF5FC093520120E046E852E064E067
:101EB00070E082E290E00E940E08C53B28F010928C
:101EC000520181E08093C602CF9108950F931F9332
:101ED000CF93DF9380914003909141036AE070E0DB
:101EE0000E941017892B31F4809151018F5F83700C
:101EF00080935101909150019F5F9F719093500189
:101F0000C8E0D0E0C91BD10915E020E049E752E064
:101F10006DE270E0CE010E940E081150A1961111E1
:101F2000F4CFC09151012C2F47E452E062E270E0FF
:101F300087E190E00E940E082C2F45E152E060E31B
:101F400070E087E190E00E940E0803E210E06AE290
:101F500070E0C8010E940508095F1F4F0D3411058C
:101F6000B1F7EC2FF0E0E35FFE4F608170E06F5D52
:101F70007F4F20E045E951E084E290E00E940E08A6
:101F80006AE270E088E690E00E9405086AE270E08C
:101F900080E790E00E9405086AE270E088E790E040
:101FA000DF91CF911F910F910C94050820E04EEE28
:101FB00050E064E070E08BE290E00E940E0820E0C8
:101FC0004CEA50E069E070E088E090E00C940E0884
:101FD0000E94D60F8CE00E944906882319F081E008
:101FE0008093C6020895EF92FF920F931F93CF93B1
:101FF000DF930E94D60F0E94660FCDE0D0E002E092
:1020000010E08EEFF82EF00E80910001801711067F
:10201000C1F12F2D40E354E0BE016D5F7F4F8CE690
:1020200090E00E940E080F5F1F4F299606301105A1
:1020300041F780E10E944906882339F08091000130
:10204000853018F48F5F8093000180E80E94490674
:10205000882339F080910001833018F081508093FB
:10206000000184E00E944906882321F0809100014C
:102070008093C602DF91CF911F910F91FF90EF9057
:102080000895BE018CE690E00E940508BE0184E739
:1020900090E00E940508BE018CE790E00E940508D0
:1020A0002F2D40E354E07E0182E0E80EF11CB701E1
:1020B00089E690E00E940E0820E04CE254E0B7016F
:1020C00089E690E00E941408AECF08958EBD00000E
:1020D0000DB407FEFDCF8EB50895089590E080E021
:1020E00008950E94D60F0E94660F24E040E354E05A
:1020F00069E170E08CE690E00E940E0880913E035A
:10210000882309F45BC025E040E354E062E270E01C
:102110008CE690E00E940E0868E270E08CE690E0A9
:102120000E94050868E270E084E790E00E940508DC
:1021300068E270E08CE790E00E94050826E040E34A
:1021400054E06AE270E089E690E00E940E0820E028
:102150004CE254E06AE270E089E690E00E941408E4
:1021600080E10E944906882359F061E085E00E94E1
:10217000200A61E08DE00E94200A81E080933E0306
:1021800080E80E944906882351F060E085E00E94C3
:10219000200A60E08DE00E94200A10923E038CE04D
:1021A0000E944906882349F060913E0382E090E056
:1021B0000E94021781E08093C602089526E040E362
:1021C00054E06BE270E08CE690E00E940E086FE154
:1021D00070E08CE690E00E9405086FE170E084E713
:1021E00090E00E9405086FE170E08CE790E00E94AB
:1021F000050825E040E354E061E270E089E690E004
:102200000E940E0820E04CE254E061E270E0A4CFAE
:102210001F920F920FB60F9211248F939F9380916C
:10222000E1009091E100937F9093E10083FF0FC064
:102230001092E90091E09093EB001092EC0092E391
:102240009093ED001092E50298E09093F00082FFE9
:1022500022C093E09093E9009091F200992319F045
:102260009AE39093E8009091D602992341F09091DF
:10227000D60291509093D602911101C05D9A90912F
:10228000E402992341F09091E40291509093E4028A
:10229000911101C0289A84FF18C08091E2008E7EBF
:1022A00081608093E2008091E1008F7E8093E10065
:1022B0008091D7028E7E80618093D7029F918F910B
:1022C0000F900FBE0F901F90189580FFF7CF809151
:1022D000E2008E7E80618093E2008091E1008E7E3C
:1022E0008093E1008091D7028E7E8160E5CF1F92BE
:1022F0000F920FB60F921124CF92DF92EF92FF92BE
:102300000F931F932F933F934F935F936F937F93FD
:102310008F939F93AF93BF93EF93FF93CF93DF93ED
:10232000CDB7DEB76C97DEBFCDBF1092E9008091CC
:10233000E80083FF25C068E0CE0145960E94A2090F
:1023400082EF8093E8008D8987FF39C09091E80083
:1023500090FFFCCF982F907609F034C19E894F8969
:10236000588D2F89F88C911131C0803861F580919A
:10237000D5028093F1001092F1008EEF8093E80077
:102380006C960FB6F894DEBF0FBECDBFDF91CF9134
:10239000FF91EF91BF91AF919F918F917F916F913D
:1023A0005F914F913F912F911F910F91FF90EF906F
:1023B000DF90CF900F900FBE0F901F9018959EEF5B
:1023C0009093E800C7CF1092F100D5CF913059F427
:1023D0008111D3CF4130510581F68091D5028D7F97
:1023E0008093D502CACF933049F48111C6CF4130D2
:1023F000510519F68091D5028260F2CF953041F4F3
:102400008091E80080FFFCCF20682093E300B5CFE7
:10241000963009F0A9C00B8D1C8D22E01092E900C6
:102420001092D3021092D202F2122EC01092D10258
:102430001092D0020E9471091F8299E09983FA825A
:1024400091E09E8390EA98879AEF99872091D20233
:102450003091D302275F3F4F3C832B838D831092B3
:10246000E9001092D3021092D2021093D10200938D
:10247000D00249E050E0BE016F5F7F4F80E00E94D4
:102480004B090E94710979CF1093D1020093D002B9
:102490000E945508DC0112960D911C910115110541
:1024A00009F451C1D801ED91FC910480F581E02D32
:1024B000BE016B5E7F4FC8010995009709F03EC1D0
:1024C000F80100851185EACFF3E0FF120EC08F8975
:1024D000882309F440C0823061F440E867E084EA70
:1024E0009BE00E941809811148CF81E28093EB00A4
:1024F00047CF813029F440E86BE088E99BE0F1CFD9
:10250000833099F70E945508DC011296ED90FC90FB
:102510008E010F5F1F4F6801E114F10479F0D701BC
:10252000ED91FC910680F781E02DB801C701099576
:10253000080F111DF701E084F184EECFD8011C9241
:10254000F60101900020E9F73197BF016C197D0970
:1025500040E0C601C6CF62E87BE0FB01449150E059
:1025600080E80E944B0909CF973009F4BECF98301C
:1025700021F481E08093F10000CF993009F0FDCE85
:10258000837009F0B2CFE8E1F1E081E031E096E359
:102590002191222371F08093E9003093EB00DF0159
:1025A00011972C912093EC009093ED008F5F873072
:1025B00079F78EE78093EA001092EA008F89809382
:1025C000E502DBCE8B8D9C8D1092E9001092D30238
:1025D0001092D2029093D1028093D002898D811102
:1025E00092C08E899D89913A49F4813209F07DCF5C
:1025F00047E050E065E071E080E0B3CF913209F050
:1026000074CF833269F48F89988DB0E0A0E0809315
:10261000010190930201A0930301B0930401ADCE98
:10262000803269F48091E80082FFFCCF67E085E0AA
:1026300091E00E94A2098BEF8093E8009ECE823247
:1026400009F09BCE8F8980930C01EEEFFFE7859117
:1026500094918B3F9C4D51F1E0E0F8E080910501B1
:1026600090910601A0910701B0910801803B944030
:10267000A105B105F1F480910C0180FD1AC0EE3F77
:102680008AE0F80789F587E797E79183808380914F
:1026900060008093D40288E19BE00FB6F894A8957F
:1026A000809360000FBE9093600067CEEEEFFAE07B
:1026B000D5CF808191818737974709F05ECEA89565
:1026C000809160008861809360008091D402809343
:1026D0006000EE3F2AE0F20789F08091FE0A9091B7
:1026E000FF0A9183808349CE808191818737980743
:1026F00051F29093FF0A8093FE0AC5CF1092FF0A11
:102700001092FE0A3ACE0E945508DC0112960D91F5
:102710001C910115110509F4E8CED801ED91FC9149
:102720000190F081E02DBE016B5E7F4FC8010995DD
:10273000811123CEF80100851185EBCF18161906FB
:102740000CF41BCED2CEF1E0FF12BECE66E87BE0E9
:1027500004CF1F920F920FB60F9211242F933F9325
:102760008F939F93AF93BF938091C8029091C902BA
:10277000A091CA02B091CB023091C70223E0230F8F
:102780002D3758F50196A11DB11D2093C7028093E6
:10279000C8029093C902A093CA02B093CB02809161
:1027A000CC029091CD02A091CE02B091CF020196C1
:1027B000A11DB11D8093CC029093CD02A093CE02B7
:1027C000B093CF02BF91AF919F918F913F912F9185
:1027D0000F900FBE0F901F90189526E8230F0296BA
:1027E000A11DB11DD2CF1F920F920FB60F921124CF
:1027F0008F939F93AF93BF938091C1029091C20238
:10280000A091C302B091C402892B8A2B8B2B81F13A
:102810009091C002809100008927809300008091F0
:10282000C1029091C202A091C302B091C4021816D5
:1028300019061A061B069CF48091C1029091C202EF
:10284000A091C302B091C4020197A109B10980937C
:10285000C1029093C202A093C302B093C402BF917D
:10286000AF919F918F910F900FBE0F901F90189571
:10287000809171008D7F809371008091C002909152
:1028800000008095892380930000E9CFE6EEF2E016
:102890001382128288EE93E0A0E0B0E084839583F7
:1028A000A683B78382E291E0918380838FEF9FEFCD
:1028B00095878487EAE3F3E01382128284E391E050
:1028C0009183808314828CE385831782168280E152
:1028D00080871186128613861486158616861786BB
:1028E000108A118A128A1092590710925A07A6E389
:1028F000B3E01196FC93EE938DE493E013969C93D2
:102900008E9312970895789484B5826084BD84B5BF
:10291000816084BD85B5826085BD85B5816085BDDA
:1029200080916E00816080936E0010928100809192
:10293000810082608093810080918100816080931A
:10294000810080918000816080938000809191005F
:1029500082608093910080919100816080939100CA
:10296000809190008160809390008091C10084608C
:102970008093C1008091C10082608093C1008091EA
:10298000C10081608093C1008091C3008160809309
:10299000C3008091C00082608093C0008091C2001B
:1029A00081608093C20080917A00846080937A0075
:1029B00080917A00826080937A0080917A008160B1
:1029C00080937A0080917A00806880937A001092D8
:1029D000E5021092D5021092D7028091D700816053
:1029E0008093D70080EA8093D80089B5806189BD43
:1029F00089B5826089BD09B400FEFDCF61E070E059
:102A000080E090E00E94810A8091D8008F7C8061F4
:102A10008093D8008091E000807F8093E0008091D7
:102A2000E1008E7E8093E1008DE08093E200559A74
:102A3000209ACFB7F8948091C502811127C0E4EFA6
:102A4000FAE08491E3E1FBE09491E82FF0E0EE0FEF
:102A5000FF1FE953F54FA591B491EC91E92321F4BF
:102A600061E081E10E94AF0961E081E10E94200AFA
:102A70008CB580618CBD8CB580648CBD61E08FE0CD
:102A80000E94200A61E080E10E94200A8091C50234
:102A90008F5F8093C502CFBF61E084E00E94200A6F
:102AA00061E08CE00E94200A62E084E10E94200A3A
:102AB00062E083E10E94200A62E082E10E94200A33
:102AC00062E085E10E94200A62E087E00E94200A1D
:102AD00062E088E00E94200AEFEEFAE0E491F0E084
:102AE000EE0FFF1FEB52F54F859194919093520793
:102AF00080935107EEE0FBE0E491E0935707E7EEA7
:102B0000FAE0E491F0E0EE0FFF1FEB52F54F8591F4
:102B100094919093540780935307E6E0FBE0E4918F
:102B2000E093580761E086E00E94200A61E086E0B9
:102B30000E94AF0961E070E080E090E00E94810AAD
:102B400060E086E00E94AF096AE070E080E090E01B
:102B50000E94810A61E086E00E94AF090E94060699
:102B60008EEA0E94661085ED0E94661080EF0E943A
:102B7000661088EA0E9466108FE30E94661083ED5B
:102B80000E94661080E00E94661080E40E94661039
:102B90008DE80E94661084E10E94661080E20E9427
:102BA000661080E00E94661081EA0E94661088EC40
:102BB0000E9466108AED0E94661082E10E946610F3
:102BC00081E80E9466108FEC0E94661089ED0E94D9
:102BD000661081EF0E9466108BED0E94661080E403
:102BE0000E94661084EA0E94661086EA0E946610BF
:102BF0008FEA0E9466100E94060680E20E9466101C
:102C000080E00E94661081E20E94661080E00E94CF
:102C100066108FE70E94661082E20E94661080E0D4
:102C20000E94661087E00E946610E0915307F091C1
:102C30005407808190915807892B8083E091510738
:102C4000F091520790818091570780958923808366
:102C50000E942F06807A803A61F4CDE4D3E00DE43F
:102C600017E089910E9466100C171D07D1F700002C
:102C7000FECF82E090E00E94FA16882359F061E0CE
:102C800085E00E94200A61E08DE00E94200A81E038
:102C900080933E0380916400816080936400809102
:102CA00064008260809364008091640080688093F7
:102CB000640080916400806480936400809165006A
:102CC0008160809365008CE380933F0380E1809373
:102CD00042030DE413E02DE4E22E27E0F22EC0E0E3
:102CE000D0E0DD24D3942FB7F8948091C80290915E
:102CF000C902A091CA02B091CB022FBF20914B0311
:102D0000222391F020914303382F321B30934C0340
:102D100020914003309141032F5F3F4F3093410397
:102D20002093400310924B03409147035091480376
:102D30006091490370914A0384179507A607B70766
:102D40009CF4481B423050F083B7817F83BF83B728
:102D5000816083BF889583B78E7F83BF209709F4F6
:102D6000C2CF0E940000BFCF20914203AC01BD0141
:102D7000420F511D611D711D40934703509348033D
:102D80006093490370934A038093430390934403F1
:102D9000A0934503B0934603D0924B03809159070B
:102DA00080935A070E942F068093590780E0B82F1E
:102DB000B111BFEFF8010024B193B193B193B19376
:102DC0000394D1F7E091C602F0E0EE0FFF1FEF543D
:102DD000F54F85919491FC0109959DE4A92E93E00E
:102DE000B92EF50181915F010E946610EA14FB047F
:102DF000C1F7B4CFF999FECF92BD81BDF89A99275A
:102E000080B50895262FF999FECF1FBA92BD81BDD6
:102E100020BD0FB6F894FA9AF99A0FBE019608955C
:102E2000AA1BBB1B51E107C0AA1FBB1FA617B707F0
:102E300010F0A61BB70B881F991F5A95A9F780950C
:102E40009095BC01CD010895EE0FFF1F0590F49100
:082E5000E02D0994F894FFCF76
:102E580003FFFFFFFF00E100000000000000010287
:102E680001000306090C0F00C1808100000000006A
:102E780000006908B30A8A087F08D0088E08AC08E1
:0C2E8800000000006510380B6E106D108B
:00000001FF
