:100000000C944F140C9477140C9477140C9477146C
:100010000C9477140C9477140C9477140C94771434
:100020000C9477140C9477140C9431220C94A02225
:100030000C9477140C9477140C9477140C94771414
:100040000C9477140C9477140C9477140C94771404
:100050000C9477140C9477140C9477140C94E72177
:100060000C9477140C9477140C9477140C947714E4
:100070000C9477140C9477140C9477140C947714D4
:100080000C9477140C9477140C9477140C947714C4
:100090000C9477140C9477140C9477140C947714B4
:1000A0000C9477140C9477140C94771405A84CCD09
:1000B000B2D44EB93836A9020C50B9918688083CA2
:1000C000A6AAAA2ABE000000803F3C38000000001B
:1000D0000080F8FE0FE3FB1B0B0B8BFBF3F7F6F630
:1000E000F60606ECECECECECECECECECECECECEC12
:1000F000ECEEE6F6F6F6F7F3FBFBCBCBFBE30FFEFD
:10010000F8801E332121339E00000080F8FF0FE0AD
:10011000F8F9F9F9F9F9F9F9F1F3F3F3F3F0F0FF7C
:10012000FFFFFFFFFFFFFFFFFFFFFFFFFFFFFFFFDF
:10013000FFFFFFFFFFFFFFFF7F7FFEE00FFFF88065
:10014000060600000000000F3FF0C6070404070782
:1001500007070707070707070707FFFFFFFFFFFF5F
:10016000FFFFFFFFFFFFFFFFFFFF0707070707076F
:100170008787070726860707C6F03F1F0080800095
:10018000000000000000030784C4E4E4E4E4E4E4C5
:10019000E4E4C49C000FE7E7E7E7E7E7E7E7E7E722
:1001A000C7870F1F0FC7E7E0ECE4E4E4E5E5E4C42C
:1001B000040404070300C040C30311000000000052
:1001C00000000000FFFFFFFFFF393939FFFFFF0F7D
:1001D000E0E0EFEF0FFFFF183879FFFFF703E0E0F3
:1001E000EFEF0FFFF9F0F0FCFDFDFD0DECE0E0E0BE
:1001F0000000012101000000000080C0602060C0FC
:1002000080000000000C0C007EFE803C3E1C1C1C8C
:100210001C1C0C0C0E0C0C0C0C0E1E1C1C1C1C3C78
:100220003E80FE7E00000000C0E0E0C00000000054
:10023000030300000E1B3166C680D060311B0E0028
:10024000003828380001471E3820202020301010A8
:10025000D0D0101090103020202020381E07010030
:100260000006060000010100000000000000000080
:1002700014087F417777417F4155555D7F415F5F2E
:100280007F417575717F7F417575717F415F5F7FBC
:10029000417575417F717747717F7F5D415D7F411A
:1002A0007B77417F4175757D7F415D5D417F7F41FA
:1002B0005D5D5D7F415D5D417F417B77417F417544
:1002C000757F7F515555457F4175757D7F4977779E
:1002D000497F000000007F415D5D417F4175757D74
:1002E0007F4175757D7F000000007F415D5D417F2E
:1002F000417B77417F00000000000000000080404B
:1003000000000000000000000000000000000000ED
:1003100000000000000000000000000000000000DD
:1003200000000000000000000000000000000000CD
:100330000000000000000000008080C0C0F0F8F85D
:10034000C0C080800000000000000000000000002D
:10035000000000000000000000000000000000009D
:10036000000000000000000000000000000000008D
:10037000000000000000000000000000000000007D
:10038000000000000000000000000000000000006D
:10039000000000000000000000000000000000005D
:1003A000000000000000000000000000000000004D
:1003B0000000000060389EDEEFE7F7F3FBF9FDF97F
:1003C000FBF3F7E7EFCF3E7880000000000000006D
:1003D000000000000000000000000000000000001D
:1003E000000000000000000000000000000000000D
:1003F00000000000000000000000000000000000FD
:1004000000000000000000000000000000000000EC
:1004100000000000000000000000000000000000DC
:1004200000008080C0E0E0E0C0C0404000E0C0804C
:1004300000000000F1F3E387276767470DF8F0F845
:100440000D4767672787E3F2F8000080C040E0E0CF
:10045000E0800060E0E0E0C0C0C08000000000007C
:10046000000000000000000000000000000000008C
:10047000000000000000000000000000000000007C
:1004800040C0C0C0C0C0C0C0C0C0C0E020F0F0F0DC
:10049000F0F0F0F0F0F0F0F0E0D80C041E1E3F3C5D
:1004A0003C1D1D1D1D1D0C0E0E0E0707070303002E
:1004B0000103060000070F9F3C600E1EBCA9ABA9FC
:1004C000BC1E0E603C9F0F07000081010007070F54
:1004D0000F1F1F1E1E1C3D3D393B3A7A78787C78F1
:1004E000787020A0E0F0F0F0F0F0F0F0F0E0E0E064
:1004F000C0C080808080808080808080808080807C
:100500007F7F7F7F7F7F3F3F3F3F03030080E0E0AF
:10051000E0E0C1C1818183C3C3C3C0C0C0C0C0C04B
:1005200000000000000000C0E0F0F0F8FCFCFEFF5E
:10053000FFFFFFFFF8F0E0030707060E1C010101B3
:100540001C0E0707070300E0F0F8FFFFFEFEFCF8B3
:10055000F0E080000000000000000000F0F0F080FB
:100560008080808707070703018383C3C3C3C1015A
:1005700001010000007F7F7F7F7F7F7F7F7F7F7F04
:10058000F8F8F8FCFC7C7E7E7E7F0000003F3F3F59
:100590003F3F3F1F1F1F1F1F1F1F0F0F0707030195
:1005A000A0F070F0F0E0000101030707078F0F0FC4
:1005B0000F1F1F1F1F3F3F3F3E3838303030303055
:1005C000303030181C1C1E1F1F1F1F0F0F0F8F8F66
:1005D00007070380A0E0E868F0604000070707070E
:1005E000031F1F1F1F1F1F1F1F1F1F1F1F3F3F3FD7
:1005F0003F0000003E3E3C3C7C7C7C7C7C787878F4
:1006000000000000000000000000000000000000EA
:1006100000000000000000000000000000000000DA
:1006200000000003070F1D1E1E1800000C3FFFFEF8
:10063000FCFCF8F8F8F8F8F8F8F8F8FCFCFCFCFC1E
:10064000FCFCFCFCFCFCFEFEFEFEFEFFFF3F1F0769
:10065000000C0E0F0707030100000000000000005F
:10066000000000000000000000000000000000008A
:10067000000000000000000000000000000000007A
:10068000000000000000000000000000000000006A
:10069000000000000000000000000000000000005A
:1006A000000000000000000000000080C0E0F8F939
:1006B000F9F9FBFBFBFFFFFFFFFFFFFFFFFFFFFF62
:1006C000FFFFFFFFFFFFFFFFFFE7C7830000000002
:1006D000000000000000000000000000000000001A
:1006E000000000000000000000000000000000000A
:1006F00000000000000000000000000000000000FA
:100700006018000000000000000000000000000071
:10071000000000000000000000007F415D55577F91
:10072000416D6D517F4155555D7F416D6D417F0537
:100730007D417D057F4155555D7F415D5D633E0097
:100740007F415D55497F117747711F000000000010
:100750000000000000000000000000000000000099
:1007600000000000000000007F416D6D417F007FB0
:100770004175151D7F417F515555457F4177774123
:100780007F007F415D55577F416D6D417F415F50D7
:10079000507F415F50507F4155555D7F415D5D63A6
:1007A0003E007F415F685F417F416D6D417F417BCE
:1007B00077417F415D5D637F416D6D417F0000004A
:1007C0000000007F416D6D417F417B77417F415D3E
:1007D0005D633E007F417D137D417F416D6D417FB3
:1007E000417B77417F117747711F007F417D137DEA
:1007F000417F416D6D417F417B77417F117747712B
:100800001F007F415D5D417F057D417D057F417713
:1008100077417F4155555D7F416D6D517F515555F4
:10082000457F1510008080C080C080C0008000809F
:1008300000000000000000000000000000000000B8
:1008400000000000000000000000000000000007A1
:10085000070F040F0C1F0F1F0F1F1E3F1E3F1C3ED4
:100860001C3E387C387C3078307860F060F040E0B6
:1008700040E000C000000000008080C080C080C058
:1008800080C080C080C080C080C080C080C080C068
:1008900080C0C0E0C0E0C0E0C0E0C0E040E000E0F8
:1008A00000000007070F040F040F070F070F070FC3
:1008B0000307030703070103010301030103000109
:1008C000000100010001000000000000008080C065
:1008D00080C0C0E0C0E0C0E0E0F0E0F0F0F870F808
:1008E000387C183C0C1E040E0207000300010000B7
:1008F0000000000000000007070F040F040F070F9F
:1009000003070307010300010000000000000000CE
:1009100000000000000000000000000000000000D7
:1009200000000000000000000000000000000000C7
:100930000000000000000000000000000000008037
:10094000008080C080C080C000800000000000C027
:1009500040E040E060F060F030783078387C387CFF
:100960001C3E1C3E1E3F1E3F0F1F0F1F0C1F040F7F
:10097000070F0007000000E040E0C0E0C0E0C0E07A
:10098000C0E0C0E080C080C080C080C080C080C0A7
:1009900080C080C080C080C080C080C00080000057
:1009A000000000000001000100010001010301033B
:1009B00001030103030703070307070F070F070FCF
:1009C000040F040F070F00070000000000000000E4
:1009D000000100030207040E0C1E183C387C70F85E
:1009E000F0F8E0F0E0F0C0E0C0E0C0E080C080C01F
:1009F0000080000000000000000000000000000077
:100A000000000000000000000000000101030307D7
:100A10000307070F040F040F070F00070A10FFCF8B
:100A2000337BCDCD7B33CFFFFFFFFFFFFEFEFFFF0C
:100A3000FFFFCF33FDCDB6B6CDFD738FFFFFFEFEBA
:100A4000FDFDFEFEFFFF0808000E061F021F001F2F
:100A5000000E00000000000080E800000000000020
:100A60000000000000000000000000000000000086
:100A70000000000000000000008080C0C0E0E0F046
:100A8000F0F0F8F8F8F8F8F8F8F8F8F8F8F8F8F8F6
:100A9000F8F8F8F8F8F8F8F8F8F8F8F8F8F8F8F8D6
:100AA000F8F8F8F8F8F8F8F8F8F8F8F8F8F8F8F8C6
:100AB000F8F8F8F0F0F0E0C080000000000000005E
:100AC0000000000000000000000000000000000026
:100AD0000000000000000000000000000000000016
:100AE0000000000000000000000000000080C0C006
:100AF000E0F0F8F8FCFEFEFFFFFFFFFFFFFFFFFF47
:100B0000FFFFFFFF7F7F7F3F3F3F3F1F1F1F1F1FD5
:100B10003FFFFFFFFFFFFFFFFFFFFFFFFFFFFFFFA5
:100B2000FFFFFFFFFFFFFFFFFFFFFFFFFFFFFFFFD5
:100B3000FFFFFFFFFFFFFFFFFFFCF0F0F0F0F0F022
:100B4000F0F0F0F0F0F0E0E0C0C0C0808000000005
:100B50000000000000000000000000000000000095
:100B60000000000000000080E0F0F8FCFEFFFFFF46
:100B7000FFFFFFFFFFFF7F3F3F1F0F0F070703032D
:100B80000101000000000000000000000000000063
:100B900000FFFFFFFFFF0301010103FFFFFFFFFF56
:100BA000FFFF0F0707070FFFFFFFFFFFFFFF030117
:100BB000010103FFFFFFFFFFFFFF1F1F3FFFFFFFBD
:100BC000FFFFFFFFFFFFFFFFFFFFFFFFFFFFFEFE37
:100BD000FCF8F0E0800000000000000000000000D1
:100BE0000000C0E0F8FCFFFFFFFFFFFFFFFF7F3FBB
:100BF0001F0F0703010000000000000000000000BC
:100C000000000000000000000000000000000000E4
:100C100000FFFFFFFFFFF8F0F0F0F8FFFFFFFFFF1E
:100C2000FFFFE0C0C0C0E0FFFFFFFFFFFFFFF8F0E5
:100C3000F0F0F8FFFFFFFFFF7F1F0000C0FFFFFF86
:100C4000FFFFFFFFFFFFFFFFFFFFFFFFFFFFFFFFB4
:100C5000FFFFFFFFFFFCE0000000000000000000BD
:100C6000E0FCFFFFFFFFFFFFFFFFFFFF07030000A8
:100C70000000000000000000000000000000000074
:100C80000000000000000000000000000000000064
:100C90000001030707070F0F0F1F1F1F3F3F7FFFB5
:100CA000FFFFFFFFFFFFFFFFFFFFFF7F3F3F1F0F24
:100CB0000F8787C3E3E1F1F0F8FCFCFFFFFFFFFFC4
:100CC000FFFFFFFFFFFFFFFFFFFFFFFFFFFFFFFF34
:100CD000FFFFFFFFFFFFFFFC00000000000000FE21
:100CE000FFFFFFFFFFFFFFFFFFFFFF01000000000E
:100CF00000000000000000000000000000000000F4
:100D00000000000000000000000000000000008063
:100D10008080C0C0C0E0E0E0F0F0F0F8F8F8FCFF40
:100D2000FFFFFF7F3F1F0F87C3E1F0F8FCFCFEFFD2
:100D3000FFFFFFFFFFFFFFFFFFFFFFFFFFFFFFFFC3
:100D4000FFFFFFFFFFFFFFFFFFFFFFFFFFFFFFFFB3
:100D50007F3F3FFFFFFFFFFF000000000000FFFF9D
:100D6000FFFFFFFFFFFFFFFFFFFF0000000000008D
:100D700000000000000000808080C0C0C0E0E0E013
:100D8000F0F0F0F8F8F8FCFCFCFEFEFEFFFFFFFFC1
:100D9000FFFFFFFFFFFFFFFFFF9F8F8F87C3E3E38F
:100DA000F1F1F8F8FCFEFFFFFFFFFFFFFFFFFFFF81
:100DB000FFFFFFFFFFFFFFFFFFFFFFFFFFFFFFFF43
:100DC000FFFFFFFFFFFFFFFFFFFFFFFFFFFF03012D
:100DD000000000FFFFFFFFFF000000000000FFFF1A
:100DE000FFFFFFFFFFFFFFFFFFFFFF000000F0FC22
:100DF000FCFEFEFEFFFFFFFFFFFFFFFFFFFFFFFF09
:100E0000FFFFFFFFFFFFFFFFFFFFFFFFFFFFFFFFF2
:100E1000FFFFFFFFFFFFFFFFFFFFFFFFFFFFFFFFE2
:100E2000FFFFFFFFFFFFFFFFFFFFFFFFFFFFFFFFD2
:100E3000FFFFFFFFFFFFFFFFFFFFFFFFFFFFFFFFC2
:100E4000FFFFFFFFFFFFFFFFFFFFFFFFFFFF0000B0
:100E5000000000FFFFFFFFFF000000000000017F17
:100E6000FFFFFFFFFFFFFFFFFFFFFFFC8000033FCF
:100E7000FFFFFFFFFFFFFFFFFFFFFFFFFFFFFFFF82
:100E8000FFFFFFFFFFFFFFFFFFFFFFFFFFFFFFFF72
:100E9000FFFFFFFFFFFFFFFFFFFFFFFFFFFFFFFF62
:100EA000FFFFFFFFFFFFFFFFFFFFFFFFFFFFFFFF52
:100EB000FFFFFFFFFFFFFFFFFFFFFFFFFFFFFFFF42
:100EC000FFFFFFFFFFFFFFFFFFFFFFFFFFFF000030
:100ED000000000FFFFFFFFFF000000000000000017
:100EE000073FFFFFFFFFFFFFFFFFFFFFFFFCE0806B
:100EF000031F7FFFFFFFFFFFFFFFFFFFFFFFFFFF5E
:100F0000FFFFFFFFFFFFFFFFFFFFFFFFFFFFFFFFF1
:100F1000FFFFFFFFFFFFFFFFFFFFFFFFFFFFFFFFE1
:100F2000FFFFFFFFFFFFFFFFFFFFFFFFFFFFFFFFD1
:100F3000FFFFFFFFFFFFFFFFFFFFFFFFFFFFFFFFC1
:100F4000FFFFFFFFFFFFFFFFFFFFFFFFFFFF0000AF
:100F5000000000FFFFFFFFFF000000000000000096
:100F60000000033FFFFFFFFFFFFFFFFFFFFFFFFF4B
:100F7000FEF8F0F1FFFFFFFFFFFFFFFFFFFFFFFFA6
:100F8000FFFFFFFFFFFFFFFFFFFFFFFFFFFFFFFF71
:100F9000FFFFFFFFFFFFFFFFFFFFFFFFFFFFFFFF61
:100FA000FFFFFFFFFFFFFFFFFFFFFFFFFFFFFFFF51
:100FB000FFFFFFFFFFFFFFFFFFFFFFFF7F7F3F3FC1
:100FC0001F1F3FFFFFFFFFFFFFFFFFFFFFFF0000AF
:100FD000000000FFFFFFFFFF000000000000000016
:100FE0000000000000031F3F7FFFFFFFFFFFFFFF28
:100FF000FFFFFFFFFFFFFFFFFFFFFFFFFFFFFFFF01
:10100000FFFFFFFFFFFFFFFFFFFFFFFFFFFFFFFFF0
:10101000FFFFFFFFFFFFFFFFFFFFFFFFFFFFFFFFE0
:10102000FFFFFFFFFFFFFFFFFFFFFFFFFFFF7F3F10
:101030001F1F0F0F0707030301010000000000003E
:10104000000000FFFFFFFFFFFFFFFFFFFFFF0000AB
:10105000000000FFFFFFFFFF00000000000000C0D5
:10106000E0F0F8FCFCFEFEFEFEFFFFFFFFFFFFFFCF
:10107000FFFFFFFFFFFFFFFFFFFFFFFFFFFFFFFF80
:10108000FFFFFFFFFFFFFFFFFFFFFFFFFFFFFFFF70
:10109000FFFFFFFFFFFFFFFFFFFFFFFF7F7F3F3FE0
:1010A0001F1F0F0F1F3F7F7FFFFFFFFFFFFFFEFC94
:1010B000FCF8F8F0F0E0E0C0C08080000000000024
:1010C000000000FFFFFFFFFFFFFFFFFFFFFF00002B
:1010D000000000FFFFFFFFFF00000000F0FEFFFF29
:1010E000FFFF0F070301000000010103070FFFFFCF
:1010F000FFFFFFFFFFFFFFFFFFFFFFFFFFFFFFFF00
:10110000FFFFFFFFFFFFFFFFFFFFFFFFFFFFFFFFEF
:10111000FFFFFFFFFFFFFFC3010100000000000011
:1011200000000000000000000000010103030707A9
:101130000F0F1F1F3F3F7F7FFFFFFFFFFFFEFEFCE4
:10114000FCFCFEFFFFFFFFFFFFFFFFFFFFFF0000B4
:10115000000000FFFFFFFFFF000000001FFFFFFF78
:10116000FFFFFFFCF0E0E0E0F0F0F8FCFEFFFFFF27
:10117000FFFFFFFFFFFFFFFFFFFFFFFFFFFFFFFF7F
:10118000FFFFFFFFFFFFFFFFFFFFFFFFFFFFFFFF6F
:10119000FFFFFFFFFFFFFFFFFFFCF0C000000000AC
:1011A000000000000000000000000000000000003F
:1011B00000000000000080C0E0F0F9FFFFFFFFFF2B
:1011C000FFFFFFFFFFFFFFFFFFFFFFFFFFFF00002D
:1011D000000000FFFFFFFFFF0000000000010F3FC5
:1011E000FFFFFFFFFFFFFFFFFFFFFFFFFFFFFFFF0F
:1011F000FFFFFFFFFFFFFFFFFFFFFFFFFFFFFFFFFF
:10120000FFFFFFFFFFFFFFFFFFFFFFFFFFFFFFFFEE
:10121000FFFFFFFFFFFFFFFFFFFFFFFFFFFCF0C02F
:10122000000000000000000000000000000080C07E
:10123000E0F0F8FCFEFFFFFFFFFFFFFFFFFFFFFFF7
:10124000FFFFFFFFFFFFFFFFFF1F03010100000083
:10125000000000FFFFFFFFFF000000000000000093
:1012600003073F7FFFFFFFFFFFFFFFFFFFFFFFFFC2
:10127000FFFFFFFFFFFFFFFFFFFFFFFFFFFFFFFF7E
:10128000FFFFFFFFFFFFFFFFFFFFFFFFFFFFFFFF6E
:10129000FFFFFFFFFFFFFFFFFFFFFFFFFFFFFFFF5E
:1012A000FFFCF0C0808080C0E0F0F8FCFEFFFFFF94
:1012B000FFFFFFFFFFFFFFFFFFFFFFFFFFFFFFFF3E
:1012C000FFFFFFFFFFFF1F03000000000000000002
:1012D000000000FFFFFFFFFF000000000000000013
:1012E0000000000081E7FFFFFFFFFFFFFFFFFFFFA0
:1012F000FFFFFFFFFFFFFFFFFFFFFFFFFFFFFFFFFE
:10130000FFFFFFFFFFFFFFFFFFFFFFFFFFFFFFFFED
:10131000FFFFFFFFFFFFFFFFFFFFFFFFFFFFFFFFDD
:10132000FFFFFFFFFFFFFFFFFFFFFFFFFFFFFFFFCD
:10133000FFFFFFFFFFFFFFFFFFFFFFFFFFFFFFFFBD
:10134000FFFFFF3F0700000000000000000000005A
:10135000000000FFFFFFFFFF0000000000F0F8F8B2
:10136000FCFCFEFEFFFFFFFFFFFFFFFFFFFFFFFF95
:10137000FFFFFFFFFFFFFFFFFFFFFFFFFFFFFFFF7D
:10138000FFFFFFFFFFFFFFFFFFFFFFFFFFFFFFFF6D
:10139000FFFFFFFFFFFFFFFFFFFFFFFFFFFFFFFF5D
:1013A000FFFFFFFFFFFFFFFFFFFFFFFFFFFFFFFF4D
:1013B000FFFFFFFFFFFFFFFFFFFFFFFFFFFFFFFF3D
:1013C000FFFFFFFEFCFCFCFCFCFCFCFCFCF800004E
:1013D000000000FFFFFFFFFF0000000000FFFFFF15
:1013E000FFFF7F7FFFFFFFFFFFFFFFFFFFFFFFFF0D
:1013F000FFFFFFFFFFFFFFFFFFFFFFFFFFFFFFFFFD
:10140000FFFFFFFFFFFFFFFFFFFFFFFFFFFFFFFFEC
:10141000FFFFFFFFFFFFFFFFFFFFFFFFFFFFFFFFDC
:10142000FFFFFFFFFFFFFFFFFFFFFFFFFFFFFFFFCC
:10143000FFFFFFFFFFFFFFFFFFFFFFFFFFFFFFFFBC
:10144000FFFFFFFFFFFFFF7F7FFFFFFFFFFF0000AA
:10145000000000FFFFFFFFFF0000000000FFFFFF94
:10146000FFFF0000FFFFFFFFFF030101030F7FFFEE
:10147000FFFFFFFFFFFFFFFFFFFFFFFFFFFFFFFF7C
:10148000FFFFFFFFFFFFFFFFFFFFFFFFFFFFFFFF6C
:10149000FFFFFFFFFFFFFFFFFFFFFFFFFFFFFFFF5C
:1014A000FFFFFFFFFFFFFFFFFFFFFFFFFFFFFFFF4C
:1014B000FFFFFFFFFFFFFFFFFFFFFFFF7F0F0301A6
:1014C0000103FFFFFFFFFF0000FFFFFFFFFF000022
:1014D000000000FFFFFFFFFF0000000000FFFFFF14
:1014E000FFFF0000FFFFFFFFFF0000000000000300
:1014F0001FFFFFFFFFFFFFFFFFFFFFFFFFFFFFFFDC
:10150000FFFFFFFFFFFFFFFFFFFFFFFFFFFFFFFFEB
:10151000FFFFFFFFFFFFFFFFFFFFFFFFFFFFFFFFDB
:10152000FFFFFFFFFFFFFFFFFFFFFFFFFFFFFFFFCB
:10153000FFFFFFFFFFFFFFFFFFFF1F030000000093
:101540000000FFFFFFFFFF0000FFFFFFFFFF0000A5
:10155000000000FFFFFFFFFF0000000000FFFFFF93
:10156000FFFF0000FFFFFFFFFF0000000000000082
:101570000000073FFFFFFFFFFFFFFFFFFFFFFFFF31
:10158000FFFFFFFFFFFFFFFFFFFFFFFFFFFFFFFF6B
:10159000FFFFFFFFFFFFFFFFFFFFFFFFFFFFFFFF5B
:1015A000FFFFFFFFFFFFFFFFFFFFFFFFFFFFFFFF4B
:1015B000FFFFFFFFFFFFFF3F0700000000000000EC
:1015C0000000FFFFFFFFFF0000FFFFFFFFFF000025
:1015D000000000FFFFFFFFFF0000000000FFFFFF13
:1015E000FFFF0000FFFFFFFFFFE0C0C080800000A2
:1015F00000000000010F7FFFFFFFFFFFFFFFFFFF65
:10160000FFFFFFFFFFFFFFFFFFFFFFFFFFFFFFFFEA
:10161000FFFFFFFFFFFFFFFFFFFFFFFFFFFFFFFFDA
:10162000FFFFFFFFFFFFFFFFFFFFFFFFFFFFFFFFCA
:10163000FFFFFFFF7F0F010000000000008080C05F
:10164000C0E0FFFFFFFFFF0000FFFFFFFFFF000004
:10165000000000FFFFFFFFFF0000000000FFFFFF92
:10166000FFFF0000FFFFFFFFFFFFFFFFFFFFFFFF88
:10167000FEFEFCFCF8F8FCFFFFFFFFFFFFFFFFFF93
:10168000FFFFFFFFFFFFFFFFFFFFFFFFFFFFFFFF6A
:10169000FFFFFFFFFFFFFFFFFFFFFFFFFFFFFFFF5A
:1016A000FFFFFFFFFFFFFFFFFFFFFFFFFFFFFFFF4A
:1016B000FFFFFFFFFCF8F8FCFCFEFEFFFFFFFFFF53
:1016C000FFFFFFFFFFFFFF0000FFFFFFFFFF000026
:1016D000000000FFFFFFFFFF0000000000FFFFFF12
:1016E000FFFFF0E0E1C3C387870F0F1F1F3F3F7F5E
:1016F0007FFFFFFFFFFFFFFFFFFFFFFFFFFFFFFF7A
:10170000FFFFFFFFFFFFFFFFFFFFFFFFFFFFFFFFE9
:10171000FFFFFFFFFFFFFFFFFFFFFFFFFFFFFFFFD9
:10172000FFFFFFFFFFFFFFFFFFFFFFFFFFFFFFFFC9
:10173000FFFFFFFFFFFFFFFFFFFF7F7F3F3F1F1FF9
:101740000F0F8787C3C3E1E0F0FFFFFFFFFF00003B
:10175000000000FFFFFFFFFF000000000003070F75
:101760000F1F1F3F3F7F7FFFFFFFFFFEFEFCFCF8C8
:10177000F8F0F0E1E1C3C387870F0F1F1FFFFFFFE2
:10178000FFFFFFFFFFFFFFFFFFFFFFFFFFFFFFFF69
:10179000FFFFFFFFFFFFFFFFFFFFFFFFFFFFFFFF59
:1017A000FFFFFFFFFFFFFFFFFFFFFFFFFFFF1F1F09
:1017B0000F0F8787C3C3E1E1F0F0F8F8FCFCFEFEF1
:1017C000FFFFFFFF7F7F3F3F1F1F0F0F070300003B
:1017D000000000FFFFFFFFFF00000000000000000E
:1017E0000000000000000000000101030307070FD4
:1017F0000F1F1F3F3F7F7FFFFFFFFFFEFEFFFFFF2B
:10180000FFFFFFFFFFFFFFFFFFFFFFFFFFFFFFFFE8
:10181000FFFFFFFFFFFFFFFFFFFFFFFFFFFFFFFFD8
:10182000FFFFFFFFFFFFFFFFFFFFFFFFFFFFFEFECA
:10183000FFFFFFFF7F7F3F3F1F1F0F0F07070303C0
:101840000101000000000000000000000000000096
:101850000000003F3F3F3F3F00000000000000004D
:101860000000000000000000000000000000000078
:1018700000000000000000000001010303070F3F0B
:10188000FFFFFFFFFFFFFFFFFFFFFFFFFFFFFFFF68
:10189000FFFFFFFFFFFFFFFFFFFFFFFFFFFFFFFF58
:1018A000FFFFFFFFFFFFFFFFFFFFFF3F0F070303E8
:1018B0000101000000000000000000000000000026
:1018C0000000000000000000000000000000000018
:1018D00000000000000000000000080B00020202EF
:1018E00000000904000001020200000524001001AC
:1018F0000524010101042402060524060001070550
:10190000810310004009040100020A0000000705DD
:10191000020240000007058302400000040309049E
:1019200012010002EF020140412336800001010252
:10193000030141726475696E6F204C4C4300417223
:101940006475626F7900D5F08D14A1C881CFD9F18B
:10195000AF20005810F0F89C8E8783878E9CF8F09B
:101960000000FEFF0303030303070EFCF80000FE64
:10197000FF0303030303070EFCF80000FFFF000052
:101980000000000000FFFF0000FEFF8383838383CD
:10199000C7EE7C380000F8FC0E07030303070EFCBB
:1019A000F800003F7FE0C08080C0E07F3FFFFF0184
:1019B000010101010101FFFF0000FFFF0C0C0C0CF5
:1019C0001C3E77E3C100007FFFC0C0C0C0C0E07014
:1019D0003F1F00001F3F70E0C0C0C0E0703F1F000D
:1019E000007FFFC1C1C1C1C1E3773E1C00001F3FA2
:1019F00070E0C0C0C0E0703F1F000000000001FFA9
:101A0000FF010000008F193F19361995212419C3D1
:101A100021AE18E819A518A41880E80000000000FD
:101A200000000000000000000000000000000000B6
:101A300000000000000000000000000000000000A6
:101A40000000000000000000000000000000000096
:101A5000FFFFFFFFFFFF010000000000000000E0AB
:101A6000FFFFFFFFFFFF0F0000000000000000F875
:101A7000FFFFFFFFFFFF1F0000000000000000FE4F
:101A8000FFFFFFFFFFFF3F0000000000000080FF9E
:101A9000FFFFFFFFFFFF7F00000000000000E0FFEE
:101AA000FFFFFFFFFFFF7F00000000000000F8FFC6
:101AB000FFFFFFFFFFFF7F00000000000000FCFFB2
:101AC000FFFFFFFFFFFFFF00000000000000FFFF1F
:101AD000FFFFFFFFFFFFFF00000000000080FFFF8F
:101AE000FFFFFFFFFFFFFFFF0F00000000C0FFFF31
:101AF000FFC1FFFFFFFFFFFF3F00000000F0FFFFFF
:101B00001F80FFFFFFFFFFFFFF01000000F8FFFF46
:101B10000380FFFFFFFFFFFFFF07000000F8FFFF4C
:101B20000080FFFFFFFFFFFFFF0F000000FCFF3FF3
:101B300000801FFFFF1FFFFFFF3F000000FEFF0FA1
:101B400000800FFEFF0FFEFFFF7F000000FFFF037E
:101B500000800FFEF10FFEFFFFFF000080FFFF007F
:101B600000800FFEE00FFEFFFFFF0100C0FF7F00BF
:101B700000800FFEE00FFEFCFFFF0300C0FF1F0010
:101B800000800FFEE00FFEF8FFFF0300E0FF0F00F4
:101B900000800FFEE00FFEF8FFFF0700F0FF0700D8
:101BA00000800FFEE00FFEF8FFFF0700F0FF0300CC
:101BB00000800FFEE00FFEF8FFFF0700F8FF0100B6
:101BC00000800FFEE00FFEF8FFFF0F00FCFF00009B
:101BD00000801FFFE01FFFF8FFFF0F00FC7F0000E9
:101BE0000080FFFFE0FFFFF8FFFF0F00FE3F000057
:101BF0000080FFFFF1FF7FF8FFFF1F00FF1F0000C5
:101C00000080FFFFFFFF7FFCFFFF1F00FF0F0000B2
:101C10000080FFFFFFFF3FFCFFFF1F00FF0F0000E2
:101C20000080FFFFFFFF1FFEFFFF1F00FF0F0000F0
:101C30000000FFFFFFFF07FEFFFF1F80FF07000000
:101C40000000FEFFFFFF81FFFFFF3F80FF0300005A
:101C50000000F0FFFF7FC0FFFFFF3F80FF03000099
:101C6000000080FFFF1FF0FFFFFF3FC0FF030000E9
:101C7000000000FCFF0FFCFFFFFF3FC0FF03000060
:101C8000000000F0FF03FEFFFFFF3FC0FF03000066
:101C9000000000E0FF81FFFFFFFF3FC0FF030000E7
:101CA000000000E0FFE0FFFFFFFF3FE0FF0100005A
:101CB000000000E07FF0FFFFFFFF3FE0FF010000BA
:101CC000000000F03FFCFFFFFFFF3FE0FF010000CE
:101CD000000000FE1FFEFFFFFFFF3FE0FF010000CE
:101CE0000000C0FF0FFFFFFFFFFF3FE0FF0100000C
:101CF0000000F8FF87FFFFFFFFFF3FE0FF0100004C
:101D00000000FFFFC3FFFFFFFF7F3EE0FF01000079
:101D100000E0FFFFE1FFFFFFFF3F3EF0FF0000009C
:101D200000FCFFFFF0FFFFFFFF3F3EF0FF00000061
:101D300080FFFF3FF8FFFFFFFF1F3EF0FF000000A6
:101D4000F0FFFF07FCFFFFFFFF0F3EF0FF0000006A
:101D5000FEFFFF03FFFFFFFFFF0F3EF0FF0000C08D
:101D6000FFFFFFC0FFFFFFFFFF0F3EF0FF0000F887
:101D7000FFFF7FF0FFFFFFFFFF0F3EF0FF0000FFC0
:101D8000FFFF7FF8FFFFFFFFFF0F3EF0FF00E0FFC8
:101D9000FFFFFFFFFFFFFFFFFF0F3EF0FF01FCFF14
:101DA000FFFFFFFFFFFFFFFFFF0F3EF0FF81FFFF81
:101DB000FFFFFFFFFFFFFFFFFF0F3EF0FFE1FFFF11
:101DC000FFFFFFFFFFFFFFFFFF0F3EF0FFE1FFFF01
:101DD000FFFFFFFFFFFFFFFFFF0F3EF0FFF1FFFFE1
:101DE000FFFFFFFFFFFFFFFFFF0F3EF0FFF1FFFFD1
:101DF000FFFFFFFFFFFFFFFFFF0F3EF0FFF1FFFFC1
:101E0000FFFFFFFFFFFFFFFFFF0F3EF0FFF1FFFFB0
:101E1000FFFFFFFFFFFFFFFFFF0F3EF0FFF1FFFFA0
:101E2000FFFFFFFFFFFFFFFFFF0F3EE0FFF1FFFFA0
:101E3000FFFFFFFFFFFFFFFFFF0F3EE0FFE3FFFF9E
:101E4000FFFFFFFFFFFFFFFFFF0F3EE0FFE3FFFF8E
:101E5000FFFFFFFFFFFFFFFFFF0F3EE0FFE3FFFF7E
:101E6000FFFFFFFFFFFFFFFFFF0F3EE0FFE3FFFF6E
:101E7000FFFFFFFFFFFFFFFFFF0F3EE0FFC3FFFF7E
:101E8000FFFFFFFFFFFFFFFFFF0F3EC0FFC7FFFF8A
:101E9000FFFFFFFFFFFFFFFFFF0F3EC0FFC7FFFF7A
:101EA000FFFFFFFFFFFFFFFFFF0F3EC0FFC7FFFF6A
:101EB000FFFFFFFFFFFFFFFFFF0F3EC0FF8FFFFF92
:101EC000FFFFFFFFFFFFFFFFFF0F3E80FF8FFFFFC2
:101ED000FFFFFFFFFFFFFFFFFF0F3E80FF8FFFFFB2
:101EE000FFFFFFFFFFFFFFFFFF0F3E80FF1FFFFF12
:101EF000FFFFFFFFFFFFFFFFFF0F3E00FF1FFFFF82
:101F0000FFFFFFFFFFFFFFFFFF0F3E00FF3FFEFF52
:101F1000FFFFFFFFFFFFFFFFFF0F3E00FF3FFEFF42
:101F2000FFFFFFFFFFFFFFFFFF0F3E00FF7FFCFFF4
:101F3000FFFFFFFFFFFFFFFFFF0F3E00FE7FFCFFE5
:101F4000FFFFFFFFFFFFFFFFFF0F3E00FEFFFCFF55
:101F5000FFFFFFFFFFFFFFFFFF0F3E00FEFFFFFF42
:101F6000FFFFFFFFFFFFFFFFFF0F3E00FEFFFFFF32
:101F7000FFFFFFFFFFFFFF3FFF0F3E00FCFFFFFFE4
:101F8000FFFFFFFFFFFFFF0FFE0F3E00FCFFFFFF05
:101F9000FFFFFFFFFFFFFF03FE0F3E00F8FFFFFF05
:101FA000FFFFFFFFFFFFFF00FE0F3E00F8FFFFFFF8
:101FB000FFFFFFFFFFFF3F00FE0F3E00F0FFFFFFB0
:101FC000FFFFFFFFFFFF0F00FE0F3E00F0FFFFFFD0
:101FD000FFFFFFFFFFFF0300FE0F3E00F0FFFFFFCC
:101FE000FFFFFFFFFFFF0000FE0F3E00E0FFFFFFCF
:101FF000FFFFFFFFFF3F0000FE0F3E00C0FFFFFF9F
:10200000FFFFFFFFFF1F0000FE0F3E0080FFFFFFEE
:10201000FFFFFFFFFF0F0000FE0F3E0080FFFFFFEE
:10202000FFFFFFFFFF0F0000FE0F3E00F8FFFFFF66
:10203000FFFFFFFFFF1F0000FE0F3E00FEFFFFFF40
:10204000FFFFFFFFFF7F0000FE0F3E00FFFFFFFFCF
:10205000FFFFFFFFFFFF0100FE0F3E80FFFFFFFFBE
:10206000FFFFFFFFFCFF0700FE0F3EC0FFFFFFFF6B
:10207000FFFFFF3FF8FF1F00FE0F3EE0FFFFFFFFE7
:10208000FFFFFF0FF0FF7F00FE0F3EE0FFFFFFFFAF
:10209000FFFFFF03C0FFFF01FE0F3EF08FFFFFFFBA
:1020A000FFFFFF0000FFFF07FE0F3EF807FEFFFFE8
:1020B000FFFF3F0000FCFF1FFF0F3EF803FCFFFF88
:1020C000FFFF1F0000F0FFFFFF0F3EF801F8FFFFCA
:1020D000FFFF1F0000C0FFFFFF0F3EFC00F0FFFFEF
:1020E000FFFF1F000000FFFFFF0F3EFC00F0FFFF9F
:1020F000FFFF1F000000FCFFFF0F3EFC00F0FFFF92
:10210000FFFF3F000000F0FFFF0F3EFC00F0FFFF6D
:10211000FFFF3F000000C0FFFF0F3EFC01F8FFFF84
:10212000FFFF7F00000000FFFF0F3EFC01FCFFFFF0
:10213000FFFF7F00000000FEFF0F3EFC03FEFFFFDD
:10214000FFFFFF00000000FEFF0F3EFC03FFFFFF4C
:10215000FFFFFF00000000FFFF0F3EFCC7FFFFFF77
:10216000FFFFFF01000080FFFF0F3EF8FFFFFFFFB2
:10217000FFFFFF010000C0FFFF0F3EF8FFFFFFFF62
:10218000FFFFFF030000E0FFFF0F3EF8FFFFFFFF30
:10219000FFFFFF030000F0FFFF0F3EF8FFFFFFFF10
:1021A000FFFFFF070000F8FFFF073EF0FFFFFFFF04
:1021B000FFFFFF070000FCFFFF013EF0FFFFFFFFF6
:1021C000FFFFFF0F0000FEFFFF003EF0FFFFFFFFDD
:1021D000FFFFFF0F0000FFFFFF003EE0FFFFFFFFDC
:1021E000FFFFFF1F0080FFFFFF003EE0FFFFFFFF3C
:1021F000FFFFFF1F00C0FFFF7F003EC0FFFFFFFF8C
:10220000FFFFFF3F00E0FFFF7F003EC0FFFFFFFF3B
:10221000FFFFFF3F00F0FFFF7F003EC0FFFFFFFF1B
:10222000FFFFFF7F00F8FFFF3F003EC0FFFFFFFF03
:10223000FFFFFF7F00FCFFFF3F003E80FFFFFFFF2F
:10224000FFFFFFFF00FEFFFF1F003E00FFFFFFFF3D
:10225000FFFFFFFF00FFFFFF1F003E00FFFFFFFF2C
:10226000FFFFFFFF81FFFFFF1F003E00FFFFFFFF9B
:10227000FFFFFFFFC1FFFFFF0F003E00FEFFFFFF5C
:10228000FFFFFFFFE3FFFFFF0F003E00FCFFFFFF2C
:10229000FFFFFFFFFFFFFFFF0F003E00FCFFFFFF00
:1022A000FFFFFFFFFFFFFFFF07003E00F8FFFFFFFC
:1022B000FFFFFFFFFFFFFFFF07003E00F8FFFFFFEC
:1022C000FFFFFFFFFFFFFFFF07003E00F0FFFFFFE4
:1022D000FFFFFFFFFFFFFFFF03003E00F0FFFFFFD8
:1022E000FFFFFFFFFFFFFFFF03003E00F8FFFFFFC0
:1022F000FFFFFFFFFFFFFFFF03003E00F8FFFFFFB0
:10230000FFFFFFFFFFFFFFFF01003E00FCFFFFFF9D
:10231000FFFFFFFFFFFFFFFF01003E00FCFFFFFF8D
:10232000FFFFFFFFFFFFFFFF01003E00FFFFFFFF7A
:10233000FFFFFFFFFFFFFFFF03003EC0FFFFFFFFA8
:10234000FFFFFFFFFFFFFFFFFF073EF0FFFFFFFF65
:10235000FFFFFFFFFFFFFFFFFF0F3EF8FFFFFFFF45
:10236000FFFFFFFFFFFFFFFFFF0F3EF8FFFFFFFF35
:10237000FFFFFFFFFFFFFFFFFF0F3EF8FFFFFFFF25
:10238000FFFFFFFFFFFFFFFFFF0F3EF8FFFFFFFF15
:10239000FFFFFFFFFFFFFFFFFF0F3EF8FFFFFFFF05
:1023A000FFFFFFFFFFFFFFFFFF0F3EF8FFFFFFFFF5
:1023B000FFFFFFFFFFFFFFFFFF0F3EF8FFFFFFFFE5
:1023C000FFFFFFFFFFFFFFFFFF0F3EF8FFFFFFFFD5
:1023D000FFFFFFFFFFFFFFFFFF0F3EF8FFFFFFFFC5
:1023E000FFFFFFFFFFFFFFFFFF0F3EF8FFFFFFFFB5
:1023F000FFFFFFFFFFFFFFFFFF0F3EF8FFFFFFFFA5
:10240000FFFFFFFFFFFFFFFFFF0F3EF8FCFFFFFF97
:10241000FFFFFFFFFFFFFFFF9F0F3EF8FCFFFFFFE7
:10242000FFFFFFFFFFFFFFFF9F0F3EF8FCFCFFFFDA
:10243000FFFFFFFFFFFFFF9F9F0F3EF87CF8FFFFAE
:10244000FFFFFFFFFFFFFF0F9F0F3EF87CF8FFFF2E
:10245000FFFFFFFFFFFFFF0F9F0F3EF87CF0FFFF26
:10246000FFFFFFFFFFFFFF079F0F3EF87CF0FFFF1E
:10247000FFFFFFFFFFFFFF079F0F3EF87CF0FFFF0E
:10248000FFFFFFFFFFFFFF079F0F3EF87CE0FFFF0E
:10249000FFFFFFFFFFFFFF039F0F3EF87CE0FFFF02
:1024A000FFFFFFFFFFFFFF039F0F3EF87CE0FFFFF2
:1024B000FFFFFFFFFFFFFF039F0F3EF87CC0FFFF02
:1024C000FFFFFFFFFFFFFF019F0F3EF87CC0FFFFF4
:1024D000FFFFFFFFFFFFFF019F0F3EF87CC0FFFFE4
:1024E000FFFFFFFFFFFFFF019F0F3EF87C80FFFF14
:1024F000FFFFFFFFFFFFFF009F0F3EF87C80FFFF05
:10250000FFFFFFFFFFFFFF009F0F3EF87C80FFFFF4
:10251000FFFFFFFFFFFFFF009F0F3EF87C00FFFF64
:10252000FFFFFFFFFFFF7F009F0F3EF87C00FFFFD4
:10253000FFFFFFFFFFFF7F009F0F3EF87C00FFFFC4
:10254000FFFFFFFFFFFF7F009F0F3EF87C00FEFFB5
:10255000FFFFFFFFFFFF3F009F0F3EF87C00FEFFE5
:10256000FFFFFFFFFFFF3F009F0F3EF87C00FEFFD5
:10257000FFFFFFFFFFFF3F009F0F3EF87C00FCFFC7
:10258000FFFFFFFFFFFF1F009F0F3EF87C00FCFFD7
:10259000FFFFFFFFFFFF1F009F0F3EF87C00FCFFC7
:1025A000FFFFFFFFFFFF1F009F0F3EF87C00F8FFBB
:1025B000FFFFFFFFFFFF0F009F0F3EF87C00F8FFBB
:1025C000FFFFFFFFFFFF0F009F0F3EF87C00F8FFAB
:1025D000FFFFFFFFFFFF0F009F0F3EF87C00F0FFA3
:1025E000FFFFFFFFFFFF07009F0F3EF8FC00F0FF1B
:1025F000FFFFFFFFFFFF07809F0F3EF8FC03F0FF88
:10260000FFFFFFFFFFFF07E09F0F3EF8FC0FE0FF1B
:10261000FFFFFFFFFFFF03F89F0F3EF8FC3FE0FFC7
:10262000FFFFFFFFFFFF03FE9F0F3EF8FCFFE0FFF1
:10263000FFFFFFFFFFFF83FF9F0F3EF8FCFFF3FF4D
:10264000FFFFFFFFFFFFE7FF9F0F3EF8FCFFFFFFCD
:10265000FFFFFFFFFFFFFFFF9F0F3EF8FCFFFFFFA5
:10266000FFFFFFFFFFFFFFFF9F0F3EF8FCFFFFFF95
:10267000FFFFFFFFFFFFFFFF9F0F3EF8FCFFFFFF85
:10268000FFFFFFFFFFFFFFFF9F0F3EF8FCFFFFFF75
:10269000FFFFFFFFFFFFFFFF9F0F3EF8FCFFFFFF65
:1026A000FFFFFFFFFFFFFFFF9F0F3EF8F8FFFFFF59
:1026B000FFFFFFFFFFFFFFFF8F0F3EF8E0FFFFFF71
:1026C000FFFFFFFFFFFFFFFF830F3EF880FFFFFFCD
:1026D000FFFFFFFFFFFFFFFF800F3EF801FEFFFF40
:1026E000FFFFFFFFFFFFFF3FC00F3EF807F8FFFFB0
:1026F000FFFFFFFFFFFFFF0FF00F3EF81FE0FFFFA0
:10270000FFFFFFFFFFFFFF03FC0F3EF87F80FFFF8F
:10271000FFFFFFFFFFFFFF00FF0F3EF8FF01FEFF7F
:10272000FFFFFFFFFFFF3FC0FF0F3EF8FF07F8FF6F
:10273000FFFFFFFFFFFF0FF0FF0F3EF0FF1FE0FF67
:10274000FFFFFFFFFFFF03FCFF073EE0FF7F80FF6F
:10275000FFFFFFFFFFFF00FFFF033E80FFFF01FEC3
:10276000FFFFFFFFFF3FC0FFFF003E00FEFF07F837
:10277000FFFFFFFFFF0FF0FF3F003E00F8FF1FF8D5
:10278000FFFFFFFFFF0FFCFF0F003E00E0FF7FF8A1
:10279000FFFFFFFFFF0FFFFF03003E0080FFFFF979
:1027A000FFFFFFFFFFCFFFFF00003E0000FEFFFF27
:1027B000FFFFFFFFFFFFFF3F00003E0000F8FFFFAD
:1027C000FFFFFFFFFFFFFF0F00003E0000E0FFFFE5
:1027D000FFFFFFFFFFFFFF0300003E000080FFFF41
:1027E000FFFFFFFFFFFFFF0000003E000000FEFFB5
:1027F000FFFFFFFFFFFF3F0000003E000000F8FF6B
:10280000FFFFFFFFFFFF0F00000000000000E0FFE0
:10281000FFFFFFFFFFFF030000000000000080FF3C
:10282000FFFFFFFFFFFF000000000000000000FEB0
:10283000FFFFFFFFFF3F000000000000000000F866
:10284000FFFFFFFFFF0F000000000000000000F08E
:10285000FFFFFFFFFF07000000000000000000E096
:10286000FFFFFFFFFF03000000000000000000E08A
:10287000FFFFFFFFFF03000000000000000000C09A
:10288000FFFFFFFFFF01000000000000000000C08C
:10289000FFFFFFFFFF0100000000000005251124DD
:1028A0001FBECFEFDAE0DEBFCDBF11E0A0E0B1E0A8
:1028B000E0E4FAE502C005900D92A832B107D9F71D
:1028C00026E0A8E2B1E001C01D92A933B207E1F70A
:1028D00014E1CFE4D4E104C02197FE010E94182D39
:1028E000CE34D107C9F70E94F0250C941E2D0C940C
:1028F00000006F927F928F929F92AF92BF92CF9281
:10290000DF92EF92FF920F931F93CF93DF93DC013F
:102910007A014115510509F462C1FA011491319609
:102920005491F2E0EF0EF11CC12FD0E0222309F107
:10293000CC24C394D12C852F877011F4D12CC12CB9
:10294000E52FE695E695E695EC0DFD2DF11DEC9F46
:10295000C001ED9F900DFC9F900D1124033011F4E8
:10296000880F991F289FF001299FF00D1124EE0E6A
:10297000FF1EFD01EC0FFD1F1E161F060CF02FC1E0
:10298000A038B1050CF02BC1CB01850F911D181695
:1029900019060CF024C1603471050CF020C1E1145B
:1029A000F10409F41CC1362F3770CB0177FD07966F
:1029B00023E0959587952A95E1F7282F77FF04C0A6
:1029C000332311F02FEF280F662777276A1B7B0B25
:1029D000B7FD02C070E060E090E89A1BE038F105B6
:1029E0000CF4912F961BE22F022E000CFF0BDE2E13
:1029F000D0942F3F0CF0D12C41E0852F877009F443
:102A000040E0B52EB694B694B6944B0DE40FF11D8C
:102A1000399714F048E0421BB42EBD182D0D40E844
:102A20002403F0011124AE0FBF1FA60FB71F1D9D79
:102A3000600D711D1124A701460F571FC32E032ED1
:102A4000000CDD08033009F47EC00A3F09F441C0E0
:102A5000023009F0C4C06FEF70E0032E02C0660FB1
:102A6000771F0A94E2F760957095972E8B2C820E53
:102A7000281509F4B4C08D010E5A1E4FF12CE12C1B
:102A8000E91608F054C0FA01EE0DFF1DE491F0E0E4
:102A90003F010C2C02C0660C771C0A94E2F727FD5C
:102AA00005C0F8018081862386298083332359F06D
:102AB00027304CF45801F0E8AF0EB11CF5018081CD
:102AC000892187298083FFEFEF1AFF0A0F5F1F4FCD
:102AD000D7CFB20E2B1509F482C0BD016E5A7E4FBE
:102AE00010E000E0091748F5FA01E00FF11FE4914A
:102AF000F0E04F010C2C02C0880C991C0A94E2F7FC
:102B000027FD04C0FB01808188298083332351F095
:102B1000273044F47B01F0E8EF0EF11CF7018081CF
:102B2000892980830F5F1F4F6F5F7F4FDBCF2F5F40
:102B30004C0F5D1FA058BF4F9BCF2F5F4C0F5D1FE9
:102B4000A058BF4FC7CFE92EF12CFA01E60FF71FAF
:102B5000AE5ABE4F60E870E06E197F09CE19DF09EA
:102B60008E01000F111F41E050E07A01032E01C0D9
:102B7000EE0C0A94EAF7592F4B2D892E932ECF9302
:102B8000DF93ED01EF96EF962296A590C5909920E0
:102B900059F0AE9C5001CE9C600127302CF4F88097
:102BA000D094FD20FB28F99222233AF0FC90C094A7
:102BB000FC20FA28FD920C94DE1511965A9529F7FF
:102BC0004A9551F0582D23951124E00FF11DA60FC1
:102BD000B11DC60FD11DD9CFDF91CF911124DF9147
:102BE000CF911F910F91FF90EF90DF90CF90BF900A
:102BF000AF909F908F907F906F900895E2E5F1E005
:102C0000A0E0B8E000800EBC8111012C1197A0FD5E
:102C1000FDCF0192B9F70DB40895E9E1FAE12491ED
:102C2000EAE1FAE1E49197FD25C030E082179307CD
:102C30000CF5E6171706F1F0E8F0269FF001279F44
:102C4000F00D369FF00D1124E80FF91F23E0F595E4
:102C5000E7952A95E1F7E55EF54EE491F0E087709F
:102C600099279F0102C0359527958A95E2F7C901FA
:102C70008170089581E00895FC01809151018823BD
:102C800011F13FB7F89482E08093E9002091F200BF
:102C9000822F90E01816190614F481E090E0882342
:102CA00039F0289844E6409350014091F100408368
:102CB000222339F02091F200211103C02BE620934A
:102CC000E8003FBF08958FEF9FEF08952FB7F89466
:102CD00083E08093E9009091E800892F807295FF4E
:102CE00004C09091F20080E4891B2FBF0895809169
:102CF000480181110DC082E08093440184E08093FB
:102D00004501109247011092460181E080934801ED
:102D100084E491E008953FB7F89480914001909148
:102D20004101A0914201B091430126B5A89B05C085
:102D30002F3F19F00196A11DB11D3FBFBA2FA92F3A
:102D4000982F8827BC01CD01620F711D811D911D37
:102D500042E0660F771F881F991F4A95D1F70895A3
:102D60008F929F92AF92BF92CF92DF92EF92FF929B
:102D70006B017C010E948B164B015C01C114D104D4
:102D8000E104F104B9F00E948B16681979098A09E7
:102D90009B09683E73408105910580F321E0C21ACA
:102DA000D108E108F10888EE880E83E0981EA11C86
:102DB000B11CE4CFFF90EF90DF90CF90BF90AF9029
:102DC0009F908F90089540912E0150912F01209156
:102DD0002C0130912D0142175307B4F49091E80073
:102DE0009570E1F39091E80092FD19C08093F10095
:102DF00080912E0190912F0101968F739927892B35
:102E000019F48EEF8093E80080912E0190912F01AC
:102E1000019690932F0180932E0181E0089580E028
:102E20000895DF92EF92FF920F931F93CF93DF935A
:102E3000D82E8A01EB017B01E40EF51ECE15DF05CD
:102E400059F0D7FE12C0FE0184910E94E31621962C
:102E50008111F4CF0FEF1FEFC801DF91CF911F91C8
:102E60000F91FF90EF90DF9008958881EECF0F9340
:102E70001F93CF93DF931F92CDB7DEB782E0898394
:102E800042E450E06AED78E180E80E9411170E9468
:102E90007716DC0112960D911C910115110589F030
:102EA000D801ED91FC910280F381E02DBE016F5FAE
:102EB0007F4FC801099597FD04C0F8010085118571
:102EC000ECCF89810F90DF91CF911F910F910895E1
:102ED000615030F02091F100FC0120830196F8CF81
:102EE000289884E68093500108958F929F92AF9224
:102EF000BF92CF92DF92EF92FF920F931F93CF93E7
:102F0000DF936C017B018A0180910C01882309F415
:102F10005CC080915101882309F457C0809132012F
:102F200080FF05C08091E00082608093E000E801AE
:102F3000B12C8AEFA82E93E0892E2AE3922E2097B7
:102F400011F4BB20D9F10E94661681110AC0AA941F
:102F5000AA20D9F161E070E080E090E00E94B01614
:102F6000EECF8C171D0611F00CF08C2F9FB7F89444
:102F70008092E9002091E80025FD02C09FBFDFCFCD
:102F8000282F30E0C21BD30BF701815020F0419174
:102F90004093F100FACFE20EF31EBB2021F0909295
:102FA000E800B12CEBCF8091E80085FDE7CF90924F
:102FB000E800BB24B394209709F3F3CF5D9884E62F
:102FC00080933101101611063CF081E090E0F6018B
:102FD0009383828310E000E0C801DF91CF911F91BD
:102FE0000F91FF90EF90DF90CF90BF90AF909F90A8
:102FF0008F900895CF93DF931F92CDB7DEB769838B
:10300000DC01ED91FC910280F381E02D41E050E084
:10301000BE016F5F7F4F09950F90DF91CF910895AB
:1030200083E08093E9008091F200882319F08AE31D
:103030008093E80008950E94661690E00895CF936B
:10304000DF931F92CDB7DEB7FC018485958597FD90
:1030500008C02FEF3FEF358724870F90DF91CF9186
:103060000895CE0101960E943C16019719F48981BA
:1030700090E0F3CF8FEF9FEFF0CF0F931F93CF939D
:10308000DF931F92CDB7DEB78C01FC018485958557
:1030900097FF0BC0CE0101960E943C16019771F478
:1030A000898190E0F80195878487F801848595856A
:1030B0000F90DF91CF911F910F9108958FEF9FEFA8
:1030C000F1CFFC018485958597FD0BC09FB7F894DF
:1030D00082E08093E9008091F2009FBF90E001962A
:1030E00008959FB7F89482E08093E9008091F20000
:1030F0009FBF90E008950F930AEF0E9479140F91FB
:103100000895BC0190E080E00C94B0168FB18095DA
:10311000807F669B88601C9B8460089510922B01C1
:103120003E983F9808953E9A3F9A81E080932B0104
:10313000089590913801982329F4909139019823AA
:1031400081E009F480E00895089588E00E949918CC
:10315000882319F087E080933A010895809129012E
:103160008F5F8093290187E080933A0108950F9340
:10317000CF93DF93EC0121E08E81811101C020E02B
:103180006A817B816250710980912A01681B7109F3
:103190008881998102E04CE15AE002970E947914FB
:1031A0008E81813031F082508E83DF91CF910F91EB
:1031B000089580E0F9CFCF92DF92EF92FF920F93C4
:1031C000CF93DF93EC01CE80DF80E884F98421E3A4
:1031D00038E04CE350E4C701B6010E94652A87FD40
:1031E00031C020EB32E740E550E4C701B6010E9450
:1031F000652A881F8827881F998120E019160CF4FA
:1032000023E0280F6C857D856550710980912A0126
:10321000681B7109AA85BB85F0E0E0E0191614F47B
:10322000E4E1F0E003E042E258E0CD018E1B9F0BA9
:103230000E947914DF91CF910F91FF90EF90DF9072
:10324000CF90089582E0D8CF20E040E057E064E2DC
:1032500070E080E190E00E947B188CE00E94991859
:10326000882319F081E080933A0108958CE00E9450
:103270009918882319F081E080933A010895EF921C
:10328000FF920F931F93CF9320E04EEF52E070E038
:1032900060E090E080E00E947B1885E1E82EF12C50
:1032A00002E010E02EEF200FC091000140E752E055
:1032B00068E370E0C017110611F06CE370E0C7011D
:1032C0000E947B180F5F1F4F86E1E80EF11C06304D
:1032D000110541F780E40E949918882329F0C53030
:1032E00018F4CF5FC093000180E20E9499188823F0
:1032F00039F080910001833018F0815080930001F3
:1033000084E00E949918882321F080910001809325
:103310003A01CF911F910F91FF90EF900895CF93B5
:10332000C0912801CF5FC093280120E04AEC50E013
:1033300064E070E082E290E00E947B18C93718F0E8
:1033400081E080933A01CF9108950F931F93CF931B
:10335000DF93EC018B01FB0120813181428153819C
:10336000688179818A819B810E94F92968837983A8
:103370008A839B83F80124813581468157816C8142
:103380007D818E819F810E94F9296C837D838E834C
:103390009F83CE01DF91CF911F910F9108950F93DD
:1033A0001F93FB010081118122813381FC01008385
:1033B000118322833383FB014481558166817781A8
:1033C000FC0144835583668377831F910F91089591
:1033D0008F929F92AF92BF92EF92FF920F931F93A3
:1033E000CF93DF93CDB7DEB7C056D1090FB6F894AF
:1033F000DEBF0FBECDBF88E00E949918882309F474
:103400004FC06BED75E0CE0101960E94CF1920E010
:1034100030E040EF52E469817A818B819C810E9487
:10342000082C1816ECF520E030E04AE553E46D81F5
:103430007E818F8198850E94082C18168CF56BED83
:1034400075E0CE0109960E94CF1920E030E04EEFE2
:1034500052E469857A858B859C850E94652A87FF61
:103460001FC020E030E040E653E46D857E858F8507
:1034700098890E94652A87FF13C019821A821B82CD
:103480001C8280E090E0A0ECBFEB8D839E83AF8335
:10349000B887BE016F5F7F4F83EE95E00E94A5194C
:1034A0000E94861882FF92C081E08093B7050E9437
:1034B000861885FF8EC081E08093C90520E030E04A
:1034C0004AE653E46091DF057091E0058091E105E3
:1034D0009091E2050E94082C181644F580E090E0D7
:1034E000A6EFB2E48093DB059093DC05A093DD05A5
:1034F000B093DE0580E090E0ABE5B3E48093DF05B8
:103500009093E005A093E105B093E2051092E305E6
:103510001092E4051092E5051092E6051092E70579
:103520001092E8051092E9051092EA056BED75E03E
:10353000CE01875A9F4F0E94CF1920E030E0A901A9
:10354000A1966CAD7DAD8EAD9FADA1970E94082C6C
:103550006BED75E087FD40C0CE018F5A9F4F0E94F2
:10356000CF1920E030E040E05FE369966CAD7DADBF
:103570008EAD9FAD69970E94F9290E94E12A6930BA
:10358000714081059105D4F16BED75E0CE0189960E
:103590000E94CF1920E030E0A9016DA57EA58FA57E
:1035A00098A90E94082C87FFE0C06BED75E0CE0162
:1035B00049960E94CF1920E030E040E05FE36D8D36
:1035C0007E8D8F8D98A10E94F829DFC01092B705DB
:1035D0006ECF1092C90572CFCE01875B9F4F0E94BC
:1035E000CF1920E030E040E05FE361966CAD7DAD47
:1035F0008EAD9FAD61970E94F829BFCF6BED75E04E
:10360000CE018F5B9F4F0E94CF1920E030E0A901CF
:1036100029966CAD7DAD8EAD9FAD29970E94082C8B
:103620006BED75E087FD92C0CE01C9960E94CF195F
:1036300020E030E040E05FE321966CAD7DAD8EADE3
:103640009FAD21970E94F9290E94E12A61327105FC
:10365000810591050CF098CF60E060932A01062F58
:1036600010E066277727601B710B20E048E55AE0E1
:1036700090E080E00E947B1889EC95E00E94DB18C6
:1036800087EB95E00E94DB1880EB95E00E94B7186D
:1036900089EA95E00E94B71882EA95E00E94B7187F
:1036A0008090DF059090E005A090E105B090E205E4
:1036B00020E030E0A901C501B4010E94082C20E0FF
:1036C00030E040E05FE387FD9DC0C501B4010E948A
:1036D000F9290E94E12A625071097B01E01AF10A7E
:1036E0008090DB059090DC05A090DD05B090DE05B4
:1036F00020E030E0A901C501B4010E94082C20E0BF
:1037000030E040E05FE387FD82C0C501B4010E9464
:10371000F9290E94E12ACB01029703E020E046E468
:103720005AE0B7010E947914C05ADF4F0FB6F894DF
:10373000DEBF0FBECDBFDF91CF911F910F91FF90E4
:10374000EF90BF90AF909F908F900895CE01C1965B
:103750000E94CF1920E030E040E05FE36DA97EA930
:103760008FA998AD0E94F8296FCF6BED75E0CE015F
:1037700081960E94CF1920E030E040E05FE36DA128
:103780007EA18FA198A50E94F9290E94E12A6930A3
:10379000714081059105A4F56BED75E0CE01419670
:1037A0000E94CF1920E030E0A9016D897E898F89C0
:1037B000988D0E94082C6BED75E087FD12C0CE013C
:1037C00009960E94CF1920E030E040E05FE36D856C
:1037D0007E858F8598890E94F9290E94E12A60528E
:1037E0003CCFCE0101960E94CF1920E030E040E0AE
:1037F0005FE36D817E818F8198850E94F829EDCFEE
:1038000068EE2BCFC501B4010E94F82962CFC50133
:10381000B4010E94F8297DCFCF92DF92EF92FF9200
:103820000F931F93CF93DF938C01EB01FA01C080BC
:10383000D180E280F380A7019601688179818A8135
:103840009B810E940D2C688379838A839B83A701C7
:1038500096016C817D818E819F810E940D2C6C83ED
:103860007D838E839F83BE01C8010E94CF19C8014A
:10387000DF91CF911F910F91FF90EF90DF90CF904C
:103880000895CF92DF92EF92FF920F931F93CF9301
:10389000DF93CDB7DEB7A8970FB6F894DEBF0FBEA3
:1038A000CDBF8C0163EE75E0CE0109960E94CF1961
:1038B000F801208131814281538169857A858B8528
:1038C0009C850E940D2C6B017C01C986DA86EB86F3
:1038D000FC86F80124813581468157816D857E857E
:1038E0008F8598890E940D2C9B01AC012D873E8706
:1038F0004F87588BC701B6010E94F92969A37AA3A3
:103900008BA39CA386E696E6A6EABFE38DA39EA3BF
:10391000AFA3B8A7B801CE0149960E94CF19AE0156
:103920004B5D5F4FBE01675E7F4FCE0141960E94A7
:103930000C1CAE014F5D5F4FBE016F5E7F4FCE012D
:1039400001960E940C1C0BED15E029813A814B81F8
:103950005C81F80160857185828593850E94F829D4
:10396000F80160877187828793872D813E814F811F
:10397000588564857585868597850E94F829F801A4
:103980006487758786879787A8960FB6F894DEBFF9
:103990000FBECDBFDF91CF911F910F91FF90EF90A0
:1039A000DF90CF9008958F929F92AF92BF92CF9267
:1039B000DF92EF92FF920F931F93CF93DF93EC016F
:1039C0008B012BED3FE049EC5FE3FB0166817781E2
:1039D000808591850E94F8294B015C010E947A2C18
:1039E0006B017C01C501B4010E946A2A4B015C0194
:1039F000F8016181062E000C770B880B990B0E9451
:103A0000192BA50194010E940D2C688379838A8368
:103A10009B83F7FAF094F7F8F094CC82DD82EE8283
:103A2000FF82CE01DF91CF911F910F91FF90EF9018
:103A3000DF90CF90BF90AF909F908F9008952F927E
:103A40003F924F925F926F927F928F929F92AF922E
:103A5000BF92CF92DF92EF92FF920F931F93CF937B
:103A6000DF93CDB7DEB7E6970FB6F894DEBF0FBE93
:103A7000CDBF8C01FC01628173818481958120819D
:103A8000222309F462C226EA3BE944E45BE30E9494
:103A9000F929F801628373838483958322813381BA
:103AA0004481558166817781808591850E94F829BE
:103AB000F801668377838087918720E53DE847E2B8
:103AC00050E40E94652A87FF0DC0F801128213821C
:103AD0001482158280E59DE8A7E2B0E4868397838F
:103AE000A087B18721E93DEE44E650E4F801668104
:103AF0007781808591850E94082C18166CF4F80156
:103B0000128213821482158281E99DEEA4E6B0E44C
:103B100086839783A087B187F801C680D780E08429
:103B2000F184C701B6010E946A2A4B015C01F801C9
:103B30006181062E000C770B880B990B0E94192BC4
:103B4000A50194010E940D2C20E030E040EB51E4EF
:103B50000E940D2C4B015C01F80162857385072ED4
:103B6000000C880B990B0E94192B9B01AC01C5011D
:103B7000B4010E94F9290E94E12AF801778766873B
:103B8000C701B6010E947A2C6B017C01F8016485A3
:103B90007585072E000C880B990B0E94192B4B0181
:103BA0005C0120E030E040EB51E4C701B6010E9427
:103BB0000D2C9B01AC01C501B4010E94F8290E94A3
:103BC000E12AF801718B608B6BED75E0CE010196F7
:103BD0000E94CF19C980DA80EB80FC806BED75E024
:103BE000CE0101960E94CF198D809E80AF80B8844F
:103BF000F8012284338466847784261437040CF019
:103C0000ABC1B101032C000C880B990B0E94192B3E
:103C10009B01AC01C701B6010E94082C18160CF0DC
:103C2000A7C1621473040CF09DC1B101032C000CF8
:103C3000880B990B0E94192B9B01AC01C701B6019F
:103C40000E94652A87FF94C1F8010484F585E02D60
:103C5000FAABE9ABF8016089718929A93AA9621B1D
:103C6000730B072E000C880B990B0E94192B6BAB62
:103C70007CAB8DAB9EABB30162197309072E000CB0
:103C8000880B990B0E94192B9B01AC016BA97CA995
:103C90008DA99EA90E946F2A2B013C01B101330C12
:103CA000880B990B0E94192B9B01AC01C701B6012F
:103CB0000E94F8299B01AC01C301B2010E940D2CA6
:103CC0002B013C01E9A9FAA9BF01FF0F880B990B51
:103CD0000E94192B9B01AC01C301B2010E94F9297A
:103CE0002B013C01AC019B01C501B4010E94082CD1
:103CF00087FD3EC120E030E040EA50E4C301B2015C
:103D00000E94F9299B01AC01C501B4010E94652AFA
:103D100087FF2EC1C9A2DAA2EBA2FCA24DA25EA22D
:103D20006FA278A620E030E0A90169A17AA18BA159
:103D30009CA10E94652A81110CC020E030E0A901FD
:103D40006DA17EA18FA198A50E94652A882309F400
:103D5000E3C0B801CE0101960E94D31CCE010196AA
:103D60000E94411C80E090E0A0E0BFE38DA79EA7E9
:103D7000AFA7B8AB6BED75E0CE0101960E94CF19ED
:103D8000F80162857385072E000C880B990B0E9441
:103D9000192B9B01AC0169817A818B819C810E94E6
:103DA000F8299B01AC010E940D2C2B013C016BED0D
:103DB00075E0CE0109960E94CF19F801A484B5845C
:103DC00022843384B5010B2C000C880B990B0E94C4
:103DD000192B6B017C01F801608971896A197B09D3
:103DE000072E000C880B990B0E94192B4B015C01CC
:103DF000F8016685778562197309072E000C880B18
:103E0000990B0E94192B9B01AC01C501B4010E94C2
:103E10006F2A4B015C01B101330C880B990B0E9496
:103E2000192B9B01AC016D857E858F8598890E9439
:103E3000F8299B01AC01C501B4010E940D2CA7011A
:103E400096010E94F929A70196010E94F8299B0179
:103E5000AC010E940D2CA30192010E94F9290E943D
:103E6000882C69A77AA78BA79CA7B801CE010996D1
:103E70000E94D31CAE01475D5F4FBE01675F7F4F5D
:103E8000CE0141960E940C1CA8014E5F5F4FBE01FF
:103E90006F5E7F4FCE0149960E940C1CAE01435DC0
:103EA0005F4FBE01675E7F4FCE0101960E940C1CE2
:103EB000B801CE0141960E94D31CBE016F5D7F4FB9
:103EC000CE0109960E94CF19BE016F5E7F4FCE01D1
:103ED00009960E94A519BC01CE0149960E94CF19EE
:103EE00088E0FE017996ABEDB5E001900D928A95E0
:103EF000E1F7BE016F5F7F4FCE0109960E94CF1997
:103F0000BE01675F7F4F83EE95E00E94A519F8011F
:103F10001282138214821582E6960FB6F894DEBFE1
:103F20000FBECDBFDF91CF911F910F91FF90EF900A
:103F3000DF90CF90BF90AF909F908F907F906F90C9
:103F40005F904F903F902F90089526EA3BE944E41C
:103F50005BE30E94F8299DCDB301072C000C880B70
:103F6000990B54CEB301072C000C880B990B62CE31
:103F700019A21AA21BA21CA21DA21EA21FA218A651
:103F8000D1CE8F929F92AF92BF92CF92DF92EF925B
:103F9000FF92FC016081718182819381C480D58010
:103FA000E680F7809B01AC010E940D2C4B015C0167
:103FB000A7019601C701B6010E940D2C9B01AC011F
:103FC000C501B4010E94F9296B017C0120E030E0B9
:103FD000A9010E94082C181624F0F7FAF094F7F8BB
:103FE000F094C701B601FF90EF90DF90CF90BF90A3
:103FF000AF909F908F900C94882C4F925F926F920D
:104000007F928F929F92AF92BF92CF92DF92EF9268
:10401000FF920F931F93CF93DF93CDB7DEB7A49793
:104020000FB6F894DEBF0FBECDBF8C016BED75E00F
:10403000CE0101960E94CF1969817A818B819C8182
:104040000E94E12A6B016BED75E0CE0109960E949A
:10405000CF196D857E858F859889D801AD90BC90EC
:104060001197CA14DB040CF46AC014962C912A0D23
:104070003B2D311DC216D3060CF061C00E94E12A0F
:10408000D8011296ED91FC9113976E177F070CF4EF
:1040900056C015962C912E0F3F2F311D62177307B6
:1040A0000CF04DC02B014E1A5F0AB3E04B1A5108B9
:1040B000B201550C880B990B0E94192B2B013C0166
:1040C000CA18DB08E3E0CE0ED11CB601DD0C880B6C
:1040D000990B0E94192B4B015C0189869A86AB864D
:1040E000BC864D865E866F86788ACE0109960E94D0
:1040F000C11F6B017C0120E030E0A9010E94652A0C
:10410000882309F4CBC0A7019601C501B4010E9420
:104110006F2A69837A838B839C83A7019601C301ED
:10412000B2010E946F2A6D837E838F839887BE01C0
:104130006F5F7F4FCE0149960E94CF1908C0198E3C
:104140001A8E1B8E1C8E1D8E1E8E1F8E18A220E0B6
:1041500030E0A901698D7A8D8B8D9C8D0E94652A36
:1041600081110CC020E030E0A9016D8D7E8D8F8D16
:1041700098A10E94652A882309F479C0D801129673
:104180006D917C916E5F7F4F072E000C880B990B11
:104190000E94192B6B017C01F801608171816E5FB7
:1041A0007F4F072E000C880B990B0E94192B6983F7
:1041B0007A838B839C83CD82DE82EF82F88680E0D7
:1041C00090E0A0ECB0E489A39AA3ABA3BCA3BE018A
:1041D000675E7F4FCE0109960E94CF19AE014F5DF9
:1041E0005F4FBE01675F7F4FCE0141960E940C1C5E
:1041F000BE016F5E7F4FCE0101960E94A51988E037
:10420000FE013196ABEDB5E001900D928A95E1F794
:10421000BE01675E7F4FCE0109960E94CF19CE0185
:1042200009960E94411C8DEC9CECACE4BEE389A392
:104230009AA3ABA3BCA3BE01675E7F4FCE010996D4
:104240000E94CF19AE014F5D5F4FBE01675F7F4F88
:10425000CE0141960E940C1CBE016F5E7F4F83EE23
:1042600095E00E94A51986E0D80116968C93A49635
:104270000FB6F894DEBF0FBECDBFDF91CF911F9177
:104280000F91FF90EF90DF90CF90BF90AF909F90F5
:104290008F907F906F905F904F900895198E1A8E37
:1042A0001B8E1C8E80E090E0A0E8BFE38D8F9E8F78
:1042B000AF8FB8A34CCFCF92DF92EF92FF92CF9304
:1042C000DF93EC010E94C11F6B017C0120E030E014
:1042D000A9010E94652A81110FC0188219821A82D1
:1042E0001B821C821D821E821F82DF91CF91FF9054
:1042F000EF90DF90CF900895A701960168817981B2
:104300008A819B810E946F2A688379838A839B8339
:10431000A70196016C817D818E819F810E946F2A09
:104320006C837D838E839F83E0CFEBEDF5E080E0AF
:1043300090E0A6EFB2E480839183A283B38380E010
:1043400090E0ABE5B3E484839583A683B7831086BE
:10435000118612861386148615861686178683E2C2
:1043600096E00E945B2183E196E00E945B218BEF47
:1043700095E00E945B218BEE95E00E945B2186E038
:1043800080933A010895CF9380E40E949918811197
:104390000E94931880E20E94991881110E948E1841
:1043A0008CE00E949918882381F0C0912B0182E053
:1043B00090E00E94E229C81729F06C2F82E090E07B
:1043C0000E94EA2981E080933A01CF9108951F92DB
:1043D0000F920FB60F9211242F933F938F939F93B9
:1043E000AF93BF9380913C0190913D01A0913E011C
:1043F000B0913F0130913B0123E0230F2D3758F559
:104400000196A11DB11D20933B0180933C01909327
:104410003D01A0933E01B0933F01809140019091F6
:104420004101A0914201B09143010196A11DB11D2E
:104430008093400190934101A0934201B0934301C6
:10444000BF91AF919F918F913F912F910F900FBE90
:104450000F901F90189526E8230F0296A11DB11DFD
:10446000D2CF1F920F920FB60F9211248F939F936A
:104470008091E1009091E100937F9093E10083FFB0
:104480000FC01092E90091E09093EB001092EC00C5
:1044900092E39093ED001092510198E09093F00018
:1044A00082FF22C093E09093E9009091F20099235B
:1044B00019F09AE39093E80090913101992341F02B
:1044C00090913101915090933101911101C05D9A09
:1044D00090915001992341F0909150019150909307
:1044E0005001911101C0289A84FF18C08091E20008
:1044F0008E7E81608093E2008091E1008F7E8093C8
:10450000E100809132018E7E8061809332019F9123
:104510008F910F900FBE0F901F90189580FFF7CFCF
:104520008091E2008E7E80618093E2008091E100C4
:104530008E7E8093E100809132018E7E8160E5CF96
:104540001F920F920FB60F921124CF92DF92EF922B
:10455000FF920F931F932F933F934F935F936F930C
:104560007F938F939F93AF93BF93EF93FF93CF93DB
:10457000DF93CDB7DEB76C97DEBFCDBF1092E900F9
:104580008091E80083FF25C068E0CE0145960E9437
:10459000681782EF8093E8008D8987FF39C090917A
:1045A000E80090FFFCCF982F907609F034C19E89E7
:1045B0004F89588D2F89F88C911131C0803861F561
:1045C000809133018093F1001092F1008EEF80937F
:1045D000E8006C960FB6F894DEBF0FBECDBFDF913A
:1045E000CF91FF91EF91BF91AF919F918F917F916B
:1045F0006F915F914F913F912F911F910F91FF907C
:10460000EF90DF90CF900F900FBE0F901F901895F6
:104610009EEF9093E800C7CF1092F100D5CF913074
:1046200059F48111D3CF4130510581F68091330186
:104630008D7F80933301CACF933049F48111C6CF67
:104640004130510519F6809133018260F2CF9530E7
:1046500041F48091E80080FFFCCF20682093E300C4
:10466000B5CF963009F0A9C00B8D1C8D22E01092B9
:10467000E90010922F0110922E01F2122EC010921A
:104680002D0110922C010E9437171F8299E0998307
:10469000FA8291E09E8390EA98879AEF9987209119
:1046A0002E0130912F01275F3F4F3C832B838D8359
:1046B0001092E90010922F0110922E0110932D01FB
:1046C00000932C0149E050E0BE016F5F7F4F80E016
:1046D0000E9411170E94371779CF10932D01009374
:1046E0002C010E947716DC0112960D911C91011588
:1046F000110509F451C1D801ED91FC910480F581B7
:10470000E02DBE016B5E7F4FC8010995009709F04F
:104710003EC1F80100851185EACFF3E0FF120EC01B
:104720008F89882309F440C0823061F440E867E053
:104730008EE399E10E94D224811148CF81E28093D7
:10474000EB0047CF813029F440E86BE082E399E148
:10475000F1CF833099F70E947716DC011296ED9025
:10476000FC908E010F5F1F4F6801E114F10479F096
:10477000D701ED91FC910680F781E02DB801C701CA
:104780000995080F111DF701E084F184EECFD801DF
:104790001C92F60101900020E9F73197BF016C19D6
:1047A0007D0940E0C601C6CF6CE179E1FB0144918F
:1047B00050E080E80E94111709CF973009F4BECF6E
:1047C000983021F481E08093F10000CF993009F016
:1047D000FDCE837009F0B2CFEFE0F1E081E031E08F
:1047E00096E32191222371F08093E9003093EB004E
:1047F000DF0111972C912093EC009093ED008F5FD7
:10480000873079F78EE78093EA001092EA008F896B
:1048100080935101DBCE8B8D9C8D1092E90010921C
:104820002F0110922E0190932D0180932C01898DE0
:10483000811192C08E899D89913A49F4813209F0A3
:104840007DCF47E050E065E071E080E0B3CF91328A
:1048500009F074CF833269F48F89988DB0E0A0E0BD
:104860008093010190930201A0930301B09304018E
:10487000ADCE803269F48091E80082FFFCCF67E022
:1048800085E091E00E9468178BEF8093E8009ECE50
:10489000823209F09BCE8F8980930C01EEEFFFE707
:1048A000859194918B3F9C4D51F1E0E0F8E080912F
:1048B000050190910601A0910701B0910801803B8C
:1048C0009440A105B105F1F480910C0180FD1AC05E
:1048D000EE3F8AE0F80789F587E797E791838083C1
:1048E000809160008093300188E19BE00FB6F894DE
:1048F000A895809360000FBE9093600067CEEEEFA6
:10490000FAE0D5CF808191818737974709F05ECE55
:10491000A89580916000886180936000809130014B
:1049200080936000EE3F2AE0F20789F08091FE0A52
:104930009091FF0A9183808349CE8081918187374E
:10494000980751F29093FF0A8093FE0AC5CF109208
:10495000FF0A1092FE0A3ACE0E947716DC011296E8
:104960000D911C910115110509F4E8CED801ED91C6
:10497000FC910190F081E02DBE016B5E7F4FC8017C
:104980000995811123CEF80100851185EBCF18160A
:1049900019060CF41BCED2CEF1E0FF12BECE60E2BF
:1049A00079E104CFEF92FF920F931F93CF93DF93A0
:1049B000F82E192FE62E042F81E0860F880F0E9413
:1049C000E31683E00E94E316CF2DD12FEC0EFD2ECF
:1049D000F11CCE15DF05B9F007FF13C0FE0184916D
:1049E0000E94E316182F80E00E94E316812321968F
:1049F0008111EFCFDF91CF911F910F91FF90EF9039
:104A000008958881EDCF81E0F5CFE2E5F5E01382EE
:104A1000128288EE93E0A0E0B0E084839583A683C1
:104A2000B78389E191E0918380838FEF9FEF958732
:104A30008487E3E3F6E088E581838BE0808312825C
:104A4000138214821582EBE2F6E010821182128248
:104A500013828FE692E1A3E8BBE384839583A68368
:104A6000B783E3E2F6E040E050E060E87FEB4083AC
:104A70005183628373834483558366837783EBE139
:104A8000F6E010821182128213824483558366837A
:104A90007783E3E1F6E080E090E0A0E8BFE3808385
:104AA0009183A283B3834483558366837783EBE04A
:104AB000F6E04083518362837383148215821682E9
:104AC0001782E3E0F6E080839183A283B3831482AC
:104AD000158216821782EBEFF5E0408351836283E3
:104AE000738384839583A683B783E3EFF5E0108215
:104AF00011821282138284839583A683B783EBEE9F
:104B0000F5E080839183A283B38384839583A68316
:104B1000B783EBEDF5E010861186128613861486B6
:104B200015861686178610821182128213821482CD
:104B3000158216821782E9ECF5E08FEF81831282ED
:104B4000138214821582108241E95DEE64E670E4FE
:104B5000468357836087718781E290E093878287DD
:104B600085ED90E095878487E7EBF5E021E02183F0
:104B700012821382148215821082468357836087C3
:104B8000718725E530E03387228795878487E0EBBE
:104B9000F5E08BE290E09183808387E490E093835B
:104BA000828388E0848385831682E9EAF5E02CE33A
:104BB00030E0318320832EE730E033832283848307
:104BC00085831682E2EAF5E026E130E03183208336
:104BD00027E730E033832283848385831682089518
:104BE000CF93DF93CDB7DEB7A8970FB6F894DEBFAB
:104BF0000FBECDBF789484B5826084BD84B58160DA
:104C000084BD85B5826085BD85B5816085BD809197
:104C10006E00816080936E0010928100809181000F
:104C20008260809381008091810081608093810007
:104C300080918000816080938000809191008260EB
:104C40008093910080919100816080939100809188
:104C500090008160809390008091C1008460809377
:104C6000C1008091C10082608093C1008091C10029
:104C700081608093C1008091C30081608093C300F4
:104C80008091C00082608093C0008091C2008160EA
:104C90008093C20080917A00846080937A00809132
:104CA0007A00826080937A0080917A00816080939C
:104CB0007A0080917A00806880937A001092510186
:104CC00010923301109232018091D700816080935D
:104CD000D70080EA8093D80089B5806189BD89B505
:104CE000826089BD09B400FEFDCF61E070E080E024
:104CF00090E00E94B0168091D8008F7C80618093F4
:104D0000D8008091E000807F8093E0008091E100F6
:104D10008E7E8093E1008DE08093E200559A209A88
:104D200081EC80937C0085B1806F85B984B1877EEA
:104D300084B984B1876E84B95E9A5F988AB1806DB8
:104D40008AB9769A6E9881B3806F81BB899880B357
:104D50008D7080BB80E58CBD81E08DBD85E090E0ED
:104D60000E9481185F9A85E090E00E9481185E9809
:104D70005C98E6E4F9E184918EBD00000DB407FE75
:104D8000FDCF319689E1E335F807A9F75C9A81E810
:104D9000809364008091650081608093650082E06B
:104DA00090E00E94E229882309F438C10E949318F8
:104DB00081E090E00E94E2298470F82E81E090E08A
:104DC0000E94E22981FF0BC0F1102E9801EF1FEF26
:104DD0000E94861886FF25C12E9A2F9A2D9A81E26D
:104DE00080930D0184E0809333068CED809334062C
:104DF0001092350610923606109237061092380639
:104E00008FEF9FEF90935F0580935E05412C512CAF
:104E100020E8622E2FE3722E90E0292E90E0392EAA
:104E200080913A01873009F0E0C02FB7F894809163
:104E30003C0190913D01A0913E01B0913F012FBFF7
:104E400040913506509136066091370670913806CC
:104E500084179507A607B7070CF4C7C0209133063F
:104E6000820F911DA11DB11D8093350690933606CA
:104E7000A0933706B09338066BE276E083EE95E0B8
:104E80000E94A51983EE95E00E94C11F20E030E04A
:104E900040E050E40E94082C181664F583EE95E07B
:104EA0000E945B216091E3057091E4058091E50526
:104EB0009091E6059B01AC010E94F9296093E305FE
:104EC0007093E4058093E5059093E6056091E7050E
:104ED0007091E8058091E9059091EA059B01AC018C
:104EE0000E94F9296093E7057093E8058093E9052E
:104EF0009093EA056BED75E0CE0141960E94CF19C3
:104F000063EE75E0CE0141960E94A519BC01CE0169
:104F100049960E94CF1919861A861B861C861D8603
:104F20001E861F86188ACD8CDE8CEF8CF8A020E0C0
:104F300030E0A901C701B6010E94082C20E030E052
:104F400040E05FE387FD95C0C701B6010E94F929E3
:104F50000E94E12A8B01C98CDA8CEB8CFC8C20E05E
:104F600030E0A901C701B6010E94082C20E030E022
:104F700040E05FE387FD82C0C701B6010E94F929C6
:104F80000E94E12ACB01B8010E940D16882309F482
:104F90007AC0BE01675F7F4FCE0181960E94CF1914
:104FA000CE0181960E94C11F20E030E0A9010E943D
:104FB000652A81113DC163EE75E08BED95E00E949D
:104FC000A51987EB95E00E941F1D89EC95E00E94D2
:104FD0001F1D80EB95E00E94FD1F89EA95E00E946D
:104FE000FD1F82EA95E00E94FD1F8FB7F894409163
:104FF0003C0150913D0160913E0170913F018FBF96
:1050000010913601112309F49BC11092360121142D
:10501000310409F405CF0E940000FECE0E948E18D4
:10502000C7CEFF2029F00430110511F42E9A2F98D5
:1050300081E00E94FE1520E043E559E1B80184E1DA
:1050400090E00E947B1880E00E94FE158FE090E0C7
:105050000E9481180F5F1F4F0931110509F0B8CE6A
:10506000FF2011F02F9A2D9880E991E00E9481187D
:10507000B5CEC701B6010E94F8296ACFC701B601B3
:105080000E94F8297DCFCD8CDE8CEF8CF8A020E03B
:1050900030E0A901C701B6010E94082C20E030E0F1
:1050A00040E05FE387FDBAC0C701B6010E94F9295D
:1050B0000E94E12A8B01C98CDA8CEB8CFC8C20E0FD
:1050C00030E0A901C701B6010E94082C20E030E0C1
:1050D00040E05FE387FDA7C0C701B6010E94F92940
:1050E0000E94E12A7B0119821A821B821C821D8286
:1050F0001E821F821886B801C7010E940D168111F9
:1051000072C0480191E0891A91085701E1E0AE1A96
:10511000B108B401C5010E940D16882331F063E285
:1051200076E0CE0101960E94A519B401C7010E9444
:105130000D16882331F06BE176E0CE0101960E94D6
:10514000A5196701FFEFCF1ADF0AB401C6010E945B
:105150000D16882331F063E176E0CE0101960E94BE
:10516000A519B801C5010E940D16882331F06BE026
:1051700076E0CE0101960E94A519B801C6010E94F1
:105180000D16882331F063E076E0CE0101960E948F
:10519000A5190F5F1F4FB801C5010E940D16882386
:1051A00031F06BEF75E0CE0101960E94A519B801B0
:1051B000C7010E940D16882331F063EF75E0CE0120
:1051C00001960E94A519B801C6010E940D168823F8
:1051D00031F06BEE75E0CE0101960E94A519CE016B
:1051E00001960E945B21BE016F5F7F4FCE01099641
:1051F0000E94A519CE0109960E94C11F20E030E04F
:10520000A9010E94652A8111C4CE19A21AA21BA26B
:105210001CA24DA25EA26FA278A6C2CEC701B601A3
:105220000E94F82945CFC701B6010E94F82958CF3E
:105230006BED75E0CE0101960E94CF1963EE75E02B
:10524000CE0101960E94A519BC01CE0109960E94CB
:10525000CF19BE016F5D7F4FCE0109960E94A5193F
:10526000BC01CE0141960E94CF1988E0FE017196E3
:10527000ABEDB5E001900D928A95E1F7C090DF05A6
:10528000D090E005E090E105F090E20520E030E00C
:10529000A901C701B6010E94082C20E030E040E0DF
:1052A0005FE387FD43C0C701B6010E94F9290E9450
:1052B000E12A0E94192B4B015C01C090DB05D090C4
:1052C000DC05E090DD05F090DE0520E030E0A9018E
:1052D000C701B6010E94082C20E030E040E05FE307
:1052E00087FD29C0C701B6010E94F9290E94E12A61
:1052F0000E94192B6093DB057093DC058093DD051C
:105300009093DE058092DF059092E005A092E10582
:10531000B092E205BE016F5D7F4FCE0101960E9403
:10532000CF19CE0101960E94411C4BCEC701B60198
:105330000E94F829BCCFC701B6010E94F829D6CF38
:1053400080913701942F981B892F90910D01891717
:1053500048F48F5F891708F05ACEE1E0E3BF8895E3
:1053600013BE55CEF1E0F0933601409337018091A2
:105370003401909135010196909335018093340169
:1053800080913901809338010E94861880933901F9
:10539000E2E5F1E011111FEF002411931193119335
:1053A00011930394D1F7E0913A01F0E0EE0FFF1F63
:1053B000EB5FF54E85919491FC01099580E00E9488
:1053C000FE1525CEF999FECF92BD81BDF89A992799
:1053D00080B50895262FF999FECF1FBA92BD81BDE1
:1053E00020BD0FB6F894FA9AF99A0FBE0196089567
:1053F0005058BB27AA270E94102A0C94BA2B0E944F
:10540000812B38F00E94882B20F039F49F3F19F44B
:1054100026F40C947E2B0EF4E095E7FB0C94782B8D
:10542000E92F0E94DF2B58F3BA176207730784072E
:10543000950720F079F4A6F50C94012C0EF4E09574
:105440000B2EBA2FA02D0B01B90190010C01CA013E
:10545000A0011124FF27591B99F0593F50F4503EE9
:1054600068F11A16F040A22F232F342F4427585FDB
:10547000F3CF469537952795A795F0405395C9F7F3
:105480007EF41F16BA0B620B730B840BBAF09150AB
:10549000A1F0FF0FBB1F661F771F881FC2F70EC04A
:1054A000BA0F621F731F841F48F48795779567951D
:1054B000B795F7959E3F08F0B0CF9395880F08F009
:1054C0009927EE0F9795879508950E94542B08F41D
:1054D00081E008950E94912BE3950C94CB2B0E94C0
:1054E000832A0C94BA2B0E94882B58F00E94812B9F
:1054F00040F029F45F3F29F00C94782B51110C9463
:10550000022C0C947E2B0E94DF2B68F39923B1F3BD
:10551000552391F3951B550BBB27AA2762177307D9
:10552000840738F09F5F5F4F220F331F441FAA1F6D
:10553000A9F335D00E2E3AF0E0E832D09150504029
:10554000E695001CCAF72BD0FE2F29D0660F771FD7
:10555000881FBB1F261737074807AB07B0E809F0BD
:10556000BB0B802DBF01FF2793585F4F3AF09E3F42
:10557000510578F00C94782B0C94022C5F3FE4F3E7
:10558000983ED4F3869577956795B795F7959F5F85
:10559000C9F7880F911D9695879597F90895E1E0D1
:1055A000660F771F881FBB1F621773078407BA0730
:1055B00020F0621B730B840BBA0BEE1F88F7E0958B
:1055C00008950E94E82A6894B1110C94022C089561
:1055D0000E94E72B88F09F5798F0B92F9927B75171
:1055E000B0F0E1F0660F771F881F991F1AF0BA9587
:1055F000C9F714C0B13091F00E94012CB1E00895B8
:105600000C94012C672F782F8827B85F39F0B93FA9
:10561000CCF3869577956795B395D9F73EF4909539
:105620008095709561957F4F8F4F9F4F0895E894B7
:1056300009C097FB3EF490958095709561957F4FDA
:105640008F4F9F4F9923A9F0F92F96E9BB27939588
:10565000F695879577956795B795F111F8CFFAF498
:10566000BB0F11F460FF1BC06F5F7F4F8F4F9F4FC9
:1056700016C0882311F096E911C0772321F09EE827
:10568000872F762F05C0662371F096E8862F70E08D
:1056900060E02AF09A95660F771F881FDAF7880F67
:1056A0009695879597F90895990F0008550FAA0BBD
:1056B000E0E8FEEF16161706E807F907C0F0121625
:1056C0001306E407F50798F0621B730B840B950B28
:1056D00039F40A2661F0232B242B252B21F408957D
:1056E0000A2609F4A140A6958FEF811D811D08951A
:1056F00097F99F6780E870E060E008959FEF80EC85
:10570000089500240A941616170618060906089527
:1057100000240A94121613061406050608950C9424
:105720007E2B0E94E72BD8F3E894E0E0BB279F573D
:10573000F0F02AED3FE049EC06C0EE0FBB0F661F0C
:10574000771F881F28F0B23A62077307840728F092
:10575000B25A620B730B840BE3959A9572F78038FB
:1057600030F49A95BB0F661F771F881FD2F79048B9
:105770000C94CA2C092E0394000C11F4882352F0C7
:10578000BB0F40F4BF2B11F460FF04C06F5F7F4F6D
:105790008F4F9F4F0895EF93E0FF07C0A2EA2AEDD5
:1057A0003FE049EC5FEB0E94102A0E94BA2B0F9059
:1057B000039401FC9058ECEAF0E00C94DD2C57FDCA
:1057C0009058440F551F59F05F3F71F04795880F6F
:1057D00097FB991F61F09F3F79F087950895121606
:1057E00013061406551FF2CF4695F1DF08C01616B2
:1057F00017061806991FF1CF869571056105089463
:105800000895E894BB2766277727CB0197F9089579
:105810000E94542B08F48FEF08950E94202C0C94C2
:10582000BA2B0E94812B38F00E94882B20F0952300
:1058300011F00C94782B0C947E2B11240C94022CD8
:105840000E94DF2B70F3959FC1F3950F50E0551F19
:10585000629FF001729FBB27F00DB11D639FAA27C5
:10586000F00DB11DAA1F649F6627B00DA11D661F14
:10587000829F2227B00DA11D621F739FB00DA11D35
:10588000621F839FA00D611D221F749F3327A00DEF
:10589000611D231F849F600D211D822F762F6A2F8B
:1058A00011249F5750409AF0F1F088234AF0EE0FF0
:1058B000FF1FBB1F661F771F881F91505040A9F71D
:1058C0009E3F510580F00C94782B0C94022C5F3F86
:1058D000E4F3983ED4F3869577956795B795F79559
:1058E000E7959F5FC1F7FE2B880F911D96958795D1
:1058F00097F908959F930E94912B0F9007FCEE5FFC
:105900000C94CB2B19F416F40C947E2B0C94C82C0D
:105910000E94E72BB8F39923C9F3B6F39F57550BB1
:1059200087FF0E94D62C0024A0E640EA9001805810
:105930005695979528F4805C660F771F881F20F096
:1059400026173707480730F4621B730B840B202996
:1059500031294A2BA69517940794202531254A27EB
:1059600058F7660F771F881F20F02617370748075C
:1059700030F4620B730B840B200D311D411DA0957B
:1059800081F7B901842F9158880F969587950895CE
:105990009F3F31F0915020F4879577956795B795A3
:1059A000880F911D9695879597F9089591505040CD
:1059B000660F771F881FD2F708959F938F937F9369
:1059C0006F93FF93EF939B01AC010E940D2CEF911D
:1059D000FF910E94F12C2F913F914F915F910C9478
:1059E0000D2CDF93CF931F930F93FF92EF92DF92D3
:1059F0007B018C01689406C0DA2EEF010E94202CF6
:105A0000FE01E894A5912591359145915591A6F314
:105A1000EF010E94102AFE019701A801DA9469F7AC
:105A2000DF90EF90FF900F911F91CF91DF9108953C
:105A3000EE0FFF1F0590F491E02D0994F894FFCF2D
:105A400003FFFFFFFF00E10000000000001000C1A5
:105A5000808100000000000000FA1775171B181065
:085A60001861181F183D180021
:00000001FF
