:100000000C945A080C9482080C9482080C94820870
:100010000C9482080C9482080C9482080C94820838
:100020000C9482080C9482080C94F2130C946114C2
:100030000C9482080C9482080C9482080C94820818
:100040000C9482080C943C180C9482080C9482083E
:100050000C9482080C9482080C9482080C949316D9
:100060000C9482080C9482080C9482080C948208E8
:100070000C9482080C9482080C9482080C948208D8
:100080000C94DD160C9482080C9482080C9482085F
:100090000C9482080C9482080C9482080C948208B8
:1000A0000C9482080C9482080C94820840404040D2
:1000B00040404000FFFFFFFF833BFB9396F6E6ECDA
:1000C000ECECECCC0C6CECECECEC2C2CEC8C38F080
:1000D0001858D8D8D8D8D8D8D8D8D8D8D8D8D8D8E0
:1000E000D8D89838F0E000000080C0E07030B098B8
:1000F000D8D8D8D8D8D8D8D8D8D898B8307060C080
:10010000800000C0F03898D8D8D8983060C06030EF
:1001100098CCE673393D65E5FD01FF9E1C38F0E0A3
:10012000C00040404040404040404040FEF2F2FEAF
:10013000028822007FFFFFFFFFFCE10D7D4D4D7D1A
:100140007D7D7DFDFDFCFFFFFFFFFFFF7F7F7C616D
:100150000000E007FFFFFFFFFFFFFFF7F7F7F7F7EC
:10016000F7F7C70600FFE0781EC7F1FCFEFFFF7F30
:100170001F070301010181E3FFFFFFFFE7E7FE38EF
:10018000033F8FE3F8FEFFFFFFFFFFFFFEFCFEFFD4
:10019000FFFFFFFEFCE4E6FF3F80FFFFFFFFFFFFE6
:1001A000FFFF008822882200FEF2F2FEFFFFFFFF21
:1001B000FEF8E28820831FFF8F838080808080008C
:1001C00080E0F8E0830F3FFFFF7F7FFFFEF8E080D5
:1001D00038FFFFFEE00FFF3F3FFFFFFFFFFDFDFD8C
:1001E000FD7D7D7C7973610C7F7F7F7F7F1F07079B
:1001F000070707C7FFFF7F7FFFFFFF3F0F0300E0F9
:10020000F8FEFFFFFFFF3F0F071F7FFFFFFF7F3F4E
:100210001FFFFFFFFFFFFF7F00FFFFFFFFFFFFFF4D
:10022000FF0120882208E0FFFFFFFFFF4F49494FF1
:100230004F4FCFCF6E2862C8C24842480208031E03
:10024000FFFFFFFFFFFE380803020203030101C1A5
:10025000701F073FFF80818181818180C0C0C0C045
:10026000C0C0C0E0606666607F40404040707C7CFB
:10027000FC808383838382828383808080E038F85C
:10028000E080808080828EB8E08080E1C18080C084
:10029000E0C3C387840C0F003F7FFFFFFFFFFFFF1A
:1002A0000F00024842484F4F4F49494F000000009D
:1002B0000E1B3166C680D060311B0E00E0A3E30048
:1002C000013F3F3F3330303030181878F8FC670179
:1002D00000030300010101F1F9FDFDFD3D3C3CFC83
:1002E000FCF8F00000FCFCFCFCFC1C1C3CFCFCF8DA
:1002F000710101E1F9FDFD3D1D1D9DBDBCBCB88036
:100300000101010101076761013179793F0F0F0F89
:1003100007E3A7E707070F0E0E1C1C191B1F1F1F63
:100320000006067050700000000000000000000091
:1003300000000000000000000000000000000000BD
:1003400000000000000000000000000000000000AD
:10035000000000000000001F1F1F1F1F0707071FCE
:100360001F1F011C14151D011F1F03070F1F1F1E38
:10037000001C14151D011F1F1E1E1F1F1F1F011D06
:1003800014141C0000000000000000000000000029
:10039000000000000000000000000000000000005D
:1003A000000000000000000000000000000000004D
:1003B00000000000000000000000000080E0E0708D
:1003C00070303030303030303030303030303030ED
:1003D000303030303030303030303030303030301D
:1003E000303030303030303030303030303030300D
:1003F00030303030303030303030303030303030FD
:1004000030303030303030303030303030303030EC
:10041000303030303030307070E0E080000000006C
:1004200000000000000000000000000000000000CC
:10043000000000000000000000000000FFFF0000BE
:10044000000000000000008040A050A854AA54AA58
:1004500055AA552A552A552A552A552A552A05009E
:10046000000040A855AA55AA55AA55AA542800002C
:1004700000000040FF7FFF400000003C8613C113D6
:10048000C50AFC00000000FF003EC3CF3E00000094
:1004900006FF06FFF1FF80000001FFFF00000000E3
:1004A000000000000000000000000000000000004C
:1004B000000000000000000000000000FFFF00003E
:1004C000000000000080048A55AA55AA55AA55AA22
:1004D00050A850A850A850A850A850A850A850A85C
:1004E00050A854AA55AA158A150A05020000000052
:1004F0000000003CFF3FFF3C0000000007F8FF1F2A
:10050000FFF807000000031FFFFF7E1EDFDF000073
:1005100000FF01FFFFF01F000000FFFF00000000D0
:1005200000000000000000000000000000000000CB
:10053000000000000000000000000000FFFF0000BD
:1005400000A050AA55AA55AA55AA55AA4180418093
:1005500041804180418041000100018041A051AAB9
:1005600055AA55AA55AA550A00000000000000002F
:10057000000000FCFCFCFCC0DCDCDCDCDCDCFCFCAB
:10058000FC380000FCFCFCFC00001C1C1C1C1CDCDF
:10059000DCDC1C1C1C1C1C000000FFFF0000000019
:1005A000000000000000000000000000000000004B
:1005B000000000000000000000000000FFFF00003D
:1005C0000082858A958A958A958A958A958A958AE0
:1005D000958A958A858280808088958A958A150A71
:1005E000050A0502010000000000000000000000F4
:1005F0000000001F1F1F9F809C9C9C9C9C9C9F9F99
:100600008F8780809F9F9F9F808080808080809F39
:100610009F9F8080808080000000FFFF000000001E
:1006200000000000000000000000000000000000CA
:10063000000000000000000000000000FFFF80003C
:1006400000070404FC80FC0404FF809494949CFF45
:1006500080ECECEC80FF8080FE11FE8080FF00FECD
:1006600082DADA82FEA0FE82DADAA2FEA0FE82BA86
:10067000AA8AFEA0E000FF80809C9484FF80ECECBE
:10068000EC80FF8080FE11FE8080FF809494949C1B
:10069000FF9094949484FF000080FFFF000000000E
:1006A000000000000000000000000000000000004A
:1006B0000000000000000000000000008187878E1D
:1006C0008E8C8C8C8C8C8C8C8C0C0C8C8C8C8C8C68
:1006D0008C0C0C0C0C0C8C8C8C8C8C8C8C8C0C0CDA
:1006E0008C8C8C8C8C8C8C8C8C8C8C0C0C0C0C0CCA
:1006F0008C8C8C8C8C8C8C8C8C8C8C8C8C8C8C8C3A
:100700008C8C0C0C0C0C0C8C8C8C8C8C8C8C8C8CA9
:100710008C8C8C8C8C8C8C8E8E878781000000005A
:1007200000000000000000000000000000000000C9
:100730000000000000000000000000003F203B3BE4
:10074000203F202A2A2E3F202F28283F203A0A081F
:100750000F00000000003F203A0A083F202F282801
:100760003F203636203F083B23380F0000000000B2
:100770003F203F203D3B203F203A0A0E3F202E2EB7
:10078000203F00000000003F202E2A2B3F202E2E6D
:10079000203F203D3B203F203A0A0E03000000008E
:1007A0000000000000000000000000000000000049
:1007B0000000000000000000000000000000000039
:1007C000000000007F415D55577F416D6D517F41B5
:1007D00055555D7F416D6D417F057D417D057F41B3
:1007E00055555D7F415D5D633E007F415D55497FAD
:1007F000117747711F00000000000000000000009A
:1008000000000000000000000000000000000000E8
:1008100000007F416D6D417F007F4175151D7F4157
:100820007F515555457F417777417F007F415D5529
:10083000577F416D6D417F415F50507F415F505008
:100840007F4155555D7F415D5D633E007F415F683F
:100850005F417F416D6D417F417B77417F415D5DB0
:10086000637F416D6D417F0000000000007F416D9E
:100870006D417F417B77417F415D5D633E007F41FC
:100880007D137D417F416D6D417F417B77417F11BC
:100890007747711F007F417D137D417F416D6D4121
:1008A0007F417B77417F117747711F007F415D5DFD
:1008B000417F057D417D057F417777417F415555DA
:1008C0005D7F416D6D517F515555457F280800E092
:1008D000F81C0C06060606060606060606060606AA
:1008E00006060606060606060606060606060606A8
:1008F000060C1CF8E00000FFFF00000000000000F4
:1009000000000000000000000000000000000000E7
:100910000000000000000000000000FFFF000007D2
:100920001F38306060606060606060606060606060
:1009300060606060606060606060606060606060B7
:100940006030381F07002020FC0201010101010175
:100950000101010101010101010101010101010187
:1009600001010101010102FCFF0000000000F01084
:10097000F00000F010D0D010F010D0D010F010D057
:10098000D030E000000000FFFF000000000007047E
:100990000505050704050504070406060407040504
:1009A00005060300000000FF3F40808080808080BB
:1009B0008080808080808080808080808080808037
:1009C000808080808080403FFC02010101010101A4
:1009D0000101010101010101010101010101010107
:1009E00001010101010102FCFF0000000000000004
:1009F000C040C0C040C040404040C040C000C040B7
:100A0000C0000000000000FFFF0000000000000028
:100A10001F101E1D101F101515171F10171A171065
:100A20001F000000000000FF3F4080808080808029
:100A300080808080808080808080808080808080B6
:100A4000808080808080403FFC0201010101010123
:100A50000101010101010101010101010101010186
:100A600001010101010102FCFF0000000000E02083
:100A7000A0A0A0E020A0A020E020A0A0A0E020E076
:100A8000E020E000000000FFFF00000000000F0871
:100A90000A0A0B0F080D0D080F0A0A0A080F020EAA
:100AA000080E0300000000FF3F40808080808080AF
:100AB0008080808080808080808080808080808036
:100AC000808080808080403FFC02010101010101A3
:100AD0000101010101010101010101010101010106
:100AE00001010101010102FCFF00C040C0C040C083
:100AF000404040C0404040C04040C04040C04040F6
:100B000040C040C0000000FFFF001F101E1D101F4E
:100B10001017101F101B141F101F041F101F101B75
:100B2000101F1017141C00FF3F40808080808080C1
:100B300080808080808080808080808080808080B5
:100B4000808080808080403FFC0201010101010122
:100B50000101010101010101010101010101010185
:100B600001010101010102FCFF0000000000E02082
:100B7000E0E020E020A0A020E020A0A020E020A035
:100B8000A060C000000000FFFF00000000000F0890
:100B90000E0E080F080D0D080F080D0D0A0F080B9B
:100BA0000B0C0700000000FF3F40808080808080A9
:100BB0008080808080808080808080808080808035
:100BC000808080808080403F1010E0E018F804FCB6
:100BD00002FE02FE01FF01FF41FFE1FF01FF01FFF5
:100BE00002FE02FE04FC18F8E0E00707181F203F91
:100BF000407F407F80FF80FFB2FFB3FF82FF80FF16
:100C0000407F407F203F181F0707E0E018F804FCF2
:100C100002FE02FE01FF01FFA1FFA1FFE1FF01FFB4
:100C200002FE02FE04FC18F8E0E00707181F203F50
:100C3000407F407F80FF80FFB3FFB2FF82FF80FFD5
:100C4000407F407F203F181F0707E0E018F804FCB2
:100C500002FE02FE01FF01FF21FFA1FFE1FF01FFF4
:100C600002FE02FE04FC18F8E0E00707181F203F10
:100C7000407F407F80FF80FFB2FFB2FF83FF80FF95
:100C8000407F407F203F181F0707E0E018F804FC72
:100C900002FE02FE01FF01FFE1FF81FFE1FF01FF14
:100CA00002FE02FE04FC18F8E0E00707181F203FD0
:100CB000407F407F80FF80FFB0FFB0FF83FF80FF59
:100CC000407F407F203F181F0707E0E018F884FCB2
:100CD00082FE02FE01FF01FF41FFE1FF01FF01FF74
:100CE00002FE02FE04FC18F8E0E00707181F213F8F
:100CF000417F407F80FF80FF82FF83FF82FF80FF74
:100D0000407F407F203F181F0707E0E018F884FC71
:100D100082FE02FE01FF01FFA1FFA1FFE1FF01FF33
:100D200002FE02FE04FC18F8E0E00707181F213F4E
:100D3000417F407F80FF80FF83FF82FF82FF80FF33
:100D4000407F407F203F181F0707E0E018F884FC31
:100D500082FE02FE01FF01FF21FFA1FFE1FF01FF73
:100D600002FE02FE04FC18F8E0E00707181F213F0E
:100D7000417F407F80FF80FF82FF82FF83FF80FFF3
:100D8000407F407F203F181F0707E0E018F884FCF1
:100D900082FE02FE01FF01FFE1FF81FFE1FF01FF93
:100DA00002FE02FE04FC18F8E0E00707181F213FCE
:100DB000417F407F80FF80FF80FF80FF83FF80FFB7
:100DC000407F407F203F181F0707E0E018F804FC31
:100DD00002FE02FE01FF01FF4DFFEDFF01FF01FFDB
:100DE00002FE02FE04FC18F8E0E00707181F203F8F
:100DF000407F407F80FF80FF82FF83FF82FF80FF74
:100E0000407F407F203F181F0707E0E018F804FCF0
:100E100002FE02FE01FF01FFADFFADFFE1FF01FF9A
:100E200002FE02FE04FC18F8E0E00707181F203F4E
:100E3000407F407F80FF80FF83FF82FF82FF80FF33
:100E4000407F407F203F181F0707E0E018F804FCB0
:100E500002FE02FE01FF01FF2DFFADFFE1FF01FFDA
:100E600002FE02FE04FC18F8E0E00707181F203F0E
:100E7000407F407F80FF80FF82FF82FF83FF80FFF3
:100E8000407F407F203F181F0707E0E018F804FC70
:100E900002FE02FE01FF01FFEDFF8DFFE1FF01FFFA
:100EA00002FE02FE04FC18F8E0E00707181F203FCE
:100EB000407F407F80FF80FF80FF80FF83FF80FFB7
:100EC000407F407F203F181F0707E0E018F804FC30
:100ED00002FE02FE01FF01FF41FFE1FF01FF01FFF2
:100EE00002FE82FE84FC18F8E0E00707181F203F8E
:100EF000407F407F80FF80FF82FF83FF82FF80FF73
:100F0000407F417F213F181F0707E0E018F804FCED
:100F100002FE02FE01FF01FFA1FFA1FFE1FF01FFB1
:100F200002FE82FE84FC18F8E0E00707181F203F4D
:100F3000407F407F80FF80FF83FF82FF82FF80FF32
:100F4000407F417F213F181F0707E0E018F804FCAD
:100F500002FE02FE01FF01FF21FFA1FFE1FF01FFF1
:100F600002FE82FE84FC18F8E0E00707181F203F0D
:100F7000407F407F80FF80FF82FF82FF83FF80FFF2
:100F8000407F417F213F181F0707E0E018F804FC6D
:100F900002FE02FE01FF01FFE1FF81FFE1FF01FF11
:100FA00002FE82FE84FC18F8E0E00707181F203FCD
:100FB000407F407F80FF80FF80FF80FF83FF80FFB6
:100FC000407F417F213F181F0707000000002400D9
:100FD00027002A002D0030000000000200090F0049
:100FE00000030401000C00000000000000000000ED
:100FF00000000000000000080B00020202000009CF
:101000000400000102020000052400100105240173
:1010100001010424020605240600010705810310CE
:10102000004009040100020A000000070502024016
:1010300000000705830240000004030904120100B8
:1010400002EF020140412336800001010203014109
:10105000726475696E6F204C4C4300417264756216
:101060006F79000408020110408040102040804049
:1010700080080204018040201002011080102040EE
:10108000402000000000250028002B002E00310029
:10109000040404040403040502020202040302021D
:1010A00002020606060606060404020202040403FF
:1010B0000100A71811241FBECFEFDAE0DEBFCDBFBD
:1010C00011E0A0E0B1E0E8E1FAE302C005900D9282
:1010D000AE34B107D9F726E0AEE4B1E001C01D920D
:1010E000A731B207E1F718E0CAE5D8E004C02197BC
:1010F000FE010E94041DC935D107C9F70E94FD18E1
:101100000C940A1D0C9400002F923F924F925F9214
:101110006F927F928F929F92AF92BF92CF92DF9207
:10112000EF92FF920F931F93CF93DF9300D000D0E5
:1011300000D01F92CDB7DEB77B01E7E0EE22FF249F
:10114000E3E075956795EA95E1F7DA012801F3E0A8
:1011500055944794FA95E1F7460E571EFB01F69514
:10116000FE2FEE27F795E795E80FF91F50E040E0D6
:101170008F010F501E4F480100E8602E712C681A35
:10118000790ACF018F589D4F5C0188E090E08C0177
:101190000E191F091F830E83C401840F951F9D83A1
:1011A0008C838501040F151F90E080E01D01280E3F
:1011B000391EF101C4900E2C01C0CC0C0A94EAF740
:1011C000EC81FD81D488CD28C48AE114F104C1F0FA
:1011D00067307105A9F0F10124906801C80ED91E8D
:1011E000312CF1010E8002C0F595E7950A94E2F7E3
:1011F000FA83E983F6012488F9812F2AF601248AEB
:101200000196EC81FD813196FD83EC832817390727
:1012100019F06816790651F66F5F7F4FA20FB31F62
:1012200040585F4F4616570621F06830710509F0A7
:10123000B3CF27960FB6F894DEBF0FBECDBFDF91B8
:10124000CF911F910F91FF90EF90DF90CF90BF90C3
:10125000AF909F908F907F906F905F904F903F9056
:101260002F900895CF93DF93A9E0B6E0CD91DC9164
:1012700011978881EFE0F6E09081892B8883CD91EA
:10128000DC91119788819081892B8883C0910B060E
:10129000D0910C06988180911006809589238883CF
:1012A0000D90BC91A02D9C918081809589238C9379
:1012B000DF91CF9108954FB18CB123B190E080952B
:1012C000909533E0959587953A95E1F7887030E0F1
:1012D0002095309535952795359527952470822B47
:1012E000942F9095907F892B08959091EA019823EF
:1012F00029F49091E901982381E009F480E00895B0
:10130000CF92DF92EF92FF92CF9390919201891743
:1013100080F5E82FF0E0E155FF4EC491C12CD12CAF
:10132000760160E074E284EF90E0A70196010E94EC
:101330008D1CBA01A901415051096109710991E05F
:101340004115510581E06807710578F060E970ED9D
:1013500083E090E0A70196010E948D1CBA01A901CB
:10136000415051096109710993E0C13041F0C33026
:10137000B1F0CF91FF90EF90DF90CF9008958091E2
:101380008100887F892B809381005093890040934E
:10139000880080916F00826080936F00EACF809117
:1013A0009100887F892B80939100509399004093FE
:1013B0009800109291011092900181E080938F012A
:1013C00080917100826080937100D3CF5F926F92A1
:1013D0007F928F929F92AF92BF92CF92DF92EF92C5
:1013E000FF920F931F93CF93DF935901502EEC2D53
:1013F000C02F000FDD0B6E01C80ED91E1C141D047A
:101400000CF093C0803891050CF08FC09B012E0D1D
:10141000311DE7FC3A95121613060CF086C06034B5
:1014200071050CF082C04115510509F47EC09B0185
:1014300077FF04C022273327261B370B022F0770A4
:10144000902E3B0177FF03C017E0610E711C33E063
:10145000759467943A95E1F7F62D77FF07C09920C8
:1014600029F0FFEFF60D28E02919922E662777273D
:10147000681B790B97FD02C070E060E030E8381B14
:1014800020E8C216D1040CF4352D361BCF2E0F2EBA
:10149000000CDD088C2C8094FF3F0CF0812C2E2D4D
:1014A000277827FF03C02150286F2F5FFF24F39474
:1014B00012160CF0F12C2E2DE7FC295F25952595B1
:1014C0002595F20ECF0CD11C09E0C016D1041CF0FA
:1014D00028E0F22EFF1AEF2CE818F80D2F2F10E855
:1014E000210330011124860D971D860F971F082DAB
:1014F000152D1003600111248601060F171F400FE0
:10150000511FA114B10419F0D501A00FB11FA92CCE
:10151000092C000CBB08E33009F43BC1B0F4E13006
:1015200009F487C0E23009F4D4C0DF91CF911F9154
:101530000F91FF90EF90DF90CF90BF90AF909F9072
:101540008F907F906F905F900895EA3FD9F1EB3FC5
:1015500061F7BE0160587109481B590BEF0E2E153B
:1015600021F3DC01EA2FE81BE31708F004C1FD01B9
:10157000E40FF51FE491F0E00A2C02C0EE0FFF1F0C
:101580000A94E2F727FD0BC0C091EF01D091F00162
:10159000CA0FDB1F18810E2F009510231883992086
:1015A00079F027306CF40091EF011091F001ED011A
:1015B000C058DF4FC00FD11FF095E881EF23E883BB
:1015C0001196D0CFBE0160587109481B590BEF0E20
:1015D0002E1509F4AACFDC01EA2FE81BE31708F067
:1015E000C4C0FD01E40FF51FE491F0E00A2C02C035
:1015F000EE0FFF1F0A94E2F727FD09C0C091EF012B
:10160000D091F001CA0FDB1F18811E2B188399207F
:1016100071F0273064F40091EF011091F001ED01B9
:10162000C058DF4FC00FD11FE881EF2BE883119620
:10163000D3CFBE01605871096D01C81AD90A481B81
:10164000590B8E2C8F0E281509F46FCFEC01EC2F5F
:10165000E81BE31708F095C0FE01EC0DFD1DA491F9
:10166000B0E00A2C02C0AA0FBB1F0A94E2F7A095B3
:10167000B095FE01E40FF51FE491F0E03F010A2C64
:1016800002C0660C771C0A94E2F727FD0BC000919C
:10169000EF011091F0010C0F1D1FF801F080FA22EC
:1016A000F628F082992099F027308CF40091EF0110
:1016B0001091F0017E01F0E8EF0EF11C0E0D1F1DE0
:1016C000F801A081EA2FEB23E729D801EC932196BA
:1016D000BECFAFEFB0E00A2C02C0AA0FBB1F0A9426
:1016E000E2F7A095B095DB2EBE0160587109481B4A
:1016F000590BCE2CCF0E2C1509F417CF7C01EE2DF3
:10170000E81BE31760F5F701E40FF51FE491F0E043
:101710000A2C02C0EE0FFF1F0A94E2F727FD0AC051
:10172000C091EF01D091F001CE0DDF1D18811A2379
:101730001E2B1883992079F027306CF4C091EF01AB
:10174000D091F001870100581F4FC00FD11FE881D1
:10175000ED21EF2BE883EFEFEE1AFE0AD0CF2F5FDB
:1017600080589F4F460F571FC6CF2F5F80589F4FFF
:10177000460F571F2DCF2F5F80589F4F460F571F83
:10178000EECE2F5F80589F4FC60ED71E460F571FB5
:101790005ACFC090EF01D090F001632F70E0400F5E
:1017A000511FD601A80FB91F80589F4FC80ED91ED0
:1017B00080E890E0861B970B8E01061B170BB80183
:1017C000660F771F01E010E0092C01C0000F0A949A
:1017D000EAF72E2D1F2FF12CD0E0C0E0B12CA12C68
:1017E000832EFA01CF93DF93CC2DDD2DA590C591EB
:1017F000992061F0A09EA02CB12CC09FC02D173065
:101800002CF4F8801094F120FB28F992FC9011231D
:101810001AF0C095FC22FA28FD923A9539F72A95DC
:1018200051F0382D13951124E60FF11DA80FB11DAD
:10183000C80FD11DDBCFDF91CF91112476CECF928F
:10184000EF920F93CF93DF93DC01FA01049131966D
:10185000E4904E5F5F4F2223D1F0C1E0D0E09E2D97
:10186000977011F4D0E0C0E0EE2DE695E695E69590
:10187000EC0FFD2FF11D0E9FE0010F9FD00D1124E5
:101880002C9FC0012D9F900D1124480F591F8AEFE6
:10189000C82E30E020E0CD010E94E609DF91CF9113
:1018A0000F91EF90CF900895FC01809188018823DB
:1018B00011F13FB7F89482E08093E9002091F200A3
:1018C000822F90E01816190614F481E090E0882326
:1018D00039F0289844E6409387014091F100408315
:1018E000222339F02091F200211103C02BE620932E
:1018F000E8003FBF08958FEF9FEF08952FB7F8944A
:1019000083E08093E9009091E800892F807295FF31
:1019100004C09091F20080E4891B2FBF089580914C
:101920007F0181110DC082E080937B0184E0809370
:101930007C0110927E0110927D0181E080937F01F5
:101940008BE791E00895CF93DF931F92CDB7DEB779
:101950006983DC01ED91FC910280F381E02D41E08F
:1019600050E0BE016F5F7F4F09950F90DF91CF91DF
:10197000089583E08093E9008091F200882319F0B4
:101980008AE38093E80008950E947E0C90E0089519
:10199000CF93DF931F92CDB7DEB7FC018485958589
:1019A00097FD08C02FEF3FEF358724870F90DF9119
:1019B000CF910895CE0101960E94540C019719F41D
:1019C000898190E0F3CF8FEF9FEFF0CF0F931F93BC
:1019D000CF93DF931F92CDB7DEB78C01FC018485D6
:1019E000958597FF0BC0CE0101960E94540C01977C
:1019F00071F4898190E0F80195878487F8018485E6
:101A000095850F90DF91CF911F910F9108958FEFE2
:101A10009FEFF1CFFC018485958597FD0BC09FB7A3
:101A2000F89482E08093E9008091F2009FBF90E0FB
:101A3000019608959FB7F89482E08093E900809121
:101A4000F2009FBF90E0089540917501509176019A
:101A5000209173013091740142175307B4F49091AF
:101A6000E8009570E1F39091E80092FD19C0809331
:101A7000F100809175019091760101968F739927FD
:101A8000892B19F48EEF8093E80080917501909175
:101A900076010196909376018093750181E0089517
:101AA00080E00895EF92FF920F931F93CF93DF93FF
:101AB000F82E192FE62E042F81E0860F880F0E9442
:101AC000240D83E00E94240DCF2DD12FEC0EFD2E8E
:101AD000F11CCE15DF05B9F007FF13C0FE0184919C
:101AE0000E94240D182F80E00E94240D812321964E
:101AF0008111EFCFDF91CF911F910F91FF90EF9068
:101B000008958881EDCF81E0F5CFDF92EF92FF92CB
:101B10000F931F93CF93DF93D82E8A01EB017B01A4
:101B2000E40EF51ECE15DF0559F0D7FE12C0FE01FA
:101B300084910E94240D21968111F4CF0FEF1FEFA5
:101B4000C801DF91CF911F910F91FF90EF90DF902F
:101B500008958881EECF0F931F93CF93DF931F9249
:101B6000CDB7DEB782E0898342E450E067EF7FE0E3
:101B700080E80E94850D0E948F0CDC0112960D9169
:101B80001C910115110589F0D801ED91FC9102809D
:101B9000F381E02DBE016F5F7F4FC801099597FD6E
:101BA00004C0F80100851185ECCF89810F90DF9189
:101BB000CF911F910F910895615030F02091F10065
:101BC000FC0120830196F8CF289884E68093870152
:101BD0000895282F30E0F901E852F04F9491F9016F
:101BE000ED59FF4E849120573F4EF9012491222355
:101BF00009F430C09923E9F091509F30D0F4E92FD7
:101C0000F0E0EB5FF14F0C94041D330E370E140E11
:101C10002B0E2F0E190E190E190E3A0E400E440EF1
:101C2000480E4E0E190E520E909180009F779093A1
:101C30008000E22FF0E0EE0FFF1FEE57FF4EA59160
:101C4000B4919FB7F894EC91611132C080958E23C6
:101C50008C939FBF0895909180009F7DE8CF9091D5
:101C60008000977FE4CF94B59F7794BDE2CF94B581
:101C70009F7DFBCF909190009F7790939000D9CF5C
:101C8000909190009F7DF9CF90919000977FF5CF34
:101C90009091C0009F779093C000CBCF9091C000EF
:101CA0009F7DF9CF9091C200977F9093C200C1CFE2
:101CB0008E2BCECFCF93DF9390E0FC01ED59FF4EFA
:101CC000249180579F4EFC0184918823D1F090E0AD
:101CD000880F991FFC01E653F04FA591B491FC01C8
:101CE000EE57FF4EC591D491623071F49FB7F894CE
:101CF0003C91822F809583238C93E8812E2B28831F
:101D00009FBFDF91CF9108958FB7F894EC912E2B60
:101D10002C938FBFF6CF3FB7F89480916F019091CD
:101D20007001A0917101B091720126B5A89B05C008
:101D30002F3F19F00196A11DB11D3FBFBA2FA92F4A
:101D4000982F8827BC01CD01620F711D811D911D47
:101D500042E0660F771F881F991F4A95D1F70895B3
:101D60008F929F92AF92BF92CF92DF92EF92FF92AB
:101D70004B015C010E948B0E6B017C010E948B0E5B
:101D80006C197D098E099F09683E73408105910594
:101D9000A8F321E0821A9108A108B10888EEC80EC4
:101DA00083E0D81EE11CF11C81149104A104B1044C
:101DB00029F7FF90EF90DF90CF90BF90AF909F906A
:101DC0008F90089580937C0080E280937B0062E096
:101DD00070E080E090E00E94B00E80917A00806414
:101DE00080937A0080917A0086FDFCCF8091780004
:101DF0009091790008958F929F92AF92BF92CF9267
:101E0000DF92EF92FF920F931F93CF93DF936C01BA
:101E10007B018A0180910B01882309F45CC08091C9
:101E20008801882309F457C080917A0180FF05C09A
:101E30008091E00082608093E000E801B12C8AEF9D
:101E4000A82E93E0892E2AE3922E209711F4BB202E
:101E5000D9F10E947E0C81110AC0AA94AA20D9F15E
:101E600061E070E080E090E00E94B00EEECF8C1751
:101E70001D0611F00CF08C2F9FB7F8948092E900AA
:101E80002091E80025FD02C09FBFDFCF282F30E062
:101E9000C21BD30BF701815020F041914093F10018
:101EA000FACFE20EF31EBB2021F09092E800B12C95
:101EB000EBCF8091E80085FDE7CF9092E800BB244E
:101EC000B394209709F3F3CF5D9884E6809379016A
:101ED000101611063CF081E090E0F60193838283B6
:101EE00010E000E0C801DF91CF911F910F91FF90AA
:101EF000EF90DF90CF90BF90AF909F908F9008951C
:101F0000AF92BF92CF92DF92EF92FF920F931F9307
:101F1000CF93DF936C017B018B01040F151FEB0145
:101F20005E01AE18BF08C017D10759F06991D601FC
:101F3000ED91FC910190F081E02DC6010995892B6E
:101F400079F7C501DF91CF911F910F91FF90EF902D
:101F5000DF90CF90BF90AF900895089588E00E94E1
:101F60007509882319F089E0809368010895CF925C
:101F7000EF920F938091E90184FF0FC02091E70158
:101F80003091E8012033310544F41092E4012F5FD1
:101F90003F4F3093E8012093E70185FF10C0209167
:101FA000E5013091E601121613064CF491E090938E
:101FB000E401215031093093E6012093E50187FFC8
:101FC00010C02091E7013091E801121613064CF47D
:101FD00092E09093E401215031093093E80120937D
:101FE000E70186FF0FC08091E5019091E6018037FF
:101FF000910544F423E02093E40101969093E601D7
:102000008093E50188E00E947509882319F08AE031
:10201000809368018091F8019091F90166E070E089
:102020000E94F01C892B29F4809161018F5F8093BD
:10203000610180916101843010F010926101209162
:10204000E401220F220F80916101280F6091E701C6
:102050007091E8018091E5019091E601E8ECFBE0E8
:102060000491E9ECFBE0E4904AEC5BE02223F9F018
:10207000E1E0F0E03E2D377011F4F0E0E0E04E2DAD
:102080004695469546954E0F5F2F511D049FF001D2
:10209000059FF00D112430E0220F331FE29FA001B5
:1020A000E39F500DF29F500D11244653544F23E0EF
:1020B000C22E30E020E00E94E6090F91EF90CF9011
:1020C000089589E080936801089588E0809368010D
:1020D0000895CF93DF93C82FD0E020E04CEC58E078
:1020E0006CE070E0CE010E941F0C21E04CEC58E047
:1020F00064E170E0CE010E941F0C21E04CEC58E03E
:102100006CE170E0CE010E941F0C21E04CEC58E025
:1021100064E270E0CE010E941F0C22E04CEC58E01B
:102120006CE270E0CE01DF91CF910C941F0CCF9345
:1021300022E046E459E060E170E084E090E00E9433
:102140001F0C23E046E459E060E170E08EE290E08D
:102150000E941F0C24E046E459E060E170E088E54D
:1021600090E00E941F0CC09164018AE2C89F802DFC
:1021700011248A520E94691080E40E947509882304
:1021800029F0C33018F4CF5FC093640180E20E944D
:102190007509882339F080916401823018F08150EC
:1021A0008093640184E00E947509882319F087E018
:1021B0008093680188E00E947509882319F083E004
:1021C00080936801CF910895809165019AEC899F71
:1021D000802D1124895B0E94691020E046E459E0BB
:1021E00060E170E085E190E00E941F0C21E046E490
:1021F00059E060E170E08BE490E00E941F0C80E405
:102200000E94750981111092650180E20E94750992
:10221000882319F081E08093650184E00E947509AC
:10222000882339F080916501811103C086E0809395
:10223000680184E00E947509882339F08091650166
:10224000882319F088E08093680188E00E9475096E
:10225000882319F081E08093680108950F931F93FC
:1022600008E110E020E630E04CEA57E064E170E07D
:1022700080E190E00E9484088CE00E947509882328
:1022800019F081E0809368011F910F9108958CE00F
:102290000E947509882319F081E0809368010895F0
:1022A0000F931F9300E410E020E830E04CEA53E085
:1022B00070E060E090E080E00E94840880E40E948A
:1022C0007509882361F080916601909167018530DE
:1022D00091052CF40196909367018093660180E24A
:1022E0000E947509882361F08091660190916701D1
:1022F000833091052CF001979093670180936601DC
:1023000084E00E947509882321F080916601809302
:1023100068011F910F9108950F931F93CF93C09160
:102320006001CF5FC093600100E310E020E830E07F
:102330004CEA50E068E070E090E080E00E948408A1
:10234000C53B18F081E080936801CF911F910F91F8
:102350000895E82FF0E0E155FF4EE491E13019F0E7
:10236000E33089F0089580916F008D7F80936F0036
:1023700080918C01E0918D01F0918E01908180958A
:1023800089238083089510928F0180918901E091C3
:102390008A01F0918B01F2CFCF93DF93909192015C
:1023A000923081F0C82FE92FF0E0E155FF4ED49133
:1023B0009F5F9093920161E00E945A0ED13029F004
:1023C000D33049F1DF91CF9108951092800010929F
:1023D00081008091810088608093810080918100DC
:1023E0008160809381008C2F90E0FC01E057FF4ECC
:1023F000E491F0E0EE0FFF1FEE57FF4E2591349170
:1024000030938E0120938D018D599F4EFC01849154
:1024100080938C01D7CF1092900010929100809100
:1024200091008860809391008091910081608093F9
:1024300091008C2F90E0FC01E057FF4EE491F0E01A
:10244000EE0FFF1FEE57FF4E2591349130938B0115
:1024500020938A018D599F4EFC01849180938901BC
:1024600080E00E94800980E0DF91CF910C94A91157
:10247000DC01E4E6F0E09081977F9083E5E6F0E010
:102480009081977F908381E08C93089560387105E7
:10249000E8F440345105D0F4342F3695369536950E
:1024A000A0E83A9FF0011124E60FF71FE80FF91F8B
:1024B0003489CA018770992741E050E001C0440F78
:1024C0008A95EAF7222319F0432B448B089540950F
:1024D0004323FBCF2F923F924F925F926F927F9256
:1024E0008F929F92AF92BF92CF92DF92EF92FF9224
:1024F0000F931F93CF93DF93CDB7DEB72E970FB611
:10250000F894DEBF0FBECDBF6A3069F5FC01EE5D09
:10251000FB4FDC01AC5DBB4F2C9148E0249F900148
:10252000112440815181240F351F3183208332973C
:10253000118210822E960FB6F894DEBF0FBECDBF6B
:10254000DF91CF911F910F91FF90EF90DF90CF908F
:10255000BF90AF909F908F907F906F905F904F90C3
:102560003F902F9008956D3029F39E878D87805E70
:102570009B4F9E838D83FC01408051804D855E85FD
:102580004C5D5B4F58874F8350E8451651040CF063
:102590008FC0ED85FE85EE5DFB4FE080F18080E42D
:1025A000E816F1040CF084C0EF81F885F081FB831C
:1025B0002F2E312CC20135E0F39F800D911D112487
:1025C000181619060CF074C0C10133E0880F991F6A
:1025D0003A95E1F78E0D9F1D181619060CF068C08C
:1025E00032011C825C81553009F420E08701D12C36
:1025F000C12CC301820D931D9A878987E22FF0E0D9
:10260000FC87EB87A801420D531D5A83498320FFA5
:1026100028C05B8121E0513051F1430189859A85C1
:102620008816990664F5580117FF02C0B12CA12C39
:1026300089819A818134910514F080E490E0A81694
:10264000B9065CF421E0A501B4018D859E850E9448
:1026500046129FEFA91AB90AEBCFEFEF8E1A9E0A26
:10266000DDCFFB814301F13009F060C020E0A7011C
:102670004C0D5D1DB2018D859E850E9446122B85F5
:102680003C85359527955FEFC51AD50A020D131DB8
:1026900088E0C816D10409F0B1CF9FEF491A590A52
:1026A000620C731CEC81EF5FEC83E63009F09ACF8B
:1026B000EF81F8854081242F30E0ED81FE8180811B
:1026C0009181F6E04F9F800D911D1124ED81FE81D7
:1026D00091838083ED85FE85EB5DFB4F4081442334
:1026E00009F428CF6AEF6203A001639F500D112403
:1026F00040585F4F481759070CF01CCF4D855E8539
:102700004E5D5B4F5A83498383E0220F331F8A95C6
:10271000E1F7FA0180819181280F391F31832083ED
:10272000ED81FE8105CF4FEF841A940A29853A8501
:10273000821693060CF0A3CF580117FF02C0B12CEC
:10274000A12C89819A818134910514F080E490E074
:10275000A816B90644F720E0A501B4018D859E8531
:102760000E9446123FEFA31AB30AEBCF8EBD0000C2
:102770000DB407FEFDCF8EB50895089590E080E07A
:10278000089580E10E947509882319F081E0809303
:10279000690180E80E9475098111109269018CE03D
:1027A0000E947509882349F06091F60182E090E06B
:1027B0000E947F1C81E080936801809169018823D9
:1027C00021F086EF91E00C9438121092F60180917E
:1027D00064008860809364008091650088608093C5
:1027E000650008951F920F920FB60F9211248F93D8
:1027F0009F938091E1009091E100937F9093E1009D
:1028000083FF0FC01092E90091E09093EB001092CB
:10281000EC0092E39093ED001092880198E0909381
:10282000F00082FF22C093E09093E9009091F200C3
:10283000992319F09AE39093E800909179019923F4
:1028400041F090917901915090937901911101C0DB
:102850005D9A90918701992341F090918701915061
:1028600090938701911101C0289A84FF18C080912C
:10287000E2008E7E81608093E2008091E1008F7E95
:102880008093E10080917A018E7E806180937A014D
:102890009F918F910F900FBE0F901F90189580FF02
:1028A000F7CF8091E2008E7E80618093E20080917C
:1028B000E1008E7E8093E10080917A018E7E8160BE
:1028C000E5CF1F920F920FB60F921124CF92DF9295
:1028D000EF92FF920F931F932F933F934F935F932A
:1028E0006F937F938F939F93AF93BF93EF93FF93D8
:1028F000CF93DF93CDB7DEB76C97DEBFCDBF10921D
:10290000E9008091E80083FF25C068E0CE0145968C
:102910000E94DC0D82EF8093E8008D8987FF39C02B
:102920009091E80090FFFCCF982F907609F034C189
:102930009E894F89588D2F89F88C911131C080382C
:1029400061F5809178018093F1001092F1008EEF93
:102950008093E8006C960FB6F894DEBF0FBECDBF33
:10296000DF91CF91FF91EF91BF91AF919F918F91A7
:102970007F916F915F914F913F912F911F910F9197
:10298000FF90EF90DF90CF900F900FBE0F901F90B1
:1029900018959EEF9093E800C7CF1092F100D5CF25
:1029A000913059F48111D3CF4130510581F6809196
:1029B00078018D7F80937801CACF933049F48111DB
:1029C000C6CF4130510519F6809178018260F2CF6F
:1029D000953041F48091E80080FFFCCF206820937F
:1029E000E300B5CF963009F0A9C00B8D1C8D22E015
:1029F0001092E9001092760110927501F2122EC029
:102A000010927401109273010E94AB0D1F8299E025
:102A10009983FA8291E09E8390EA98879AEF99874A
:102A20002091750130917601275F3F4F3C832B83C6
:102A30008D831092E9001092760110927501109327
:102A400074010093730149E050E0BE016F5F7F4F56
:102A500080E00E94850D0E94AB0D79CF1093740128
:102A6000009373010E948F0CDC0112960D911C9152
:102A70000115110509F451C1D801ED91FC910480B3
:102A8000F581E02DBE016B5E7F4FC801099500976F
:102A900009F03EC1F80100851185EACFF3E0FF128D
:102AA0000EC08F89882309F440C0823061F440E869
:102AB00067E08BE590E10E94520D811148CF81E2E1
:102AC0008093EB0047CF813029F440E86BE08FE43E
:102AD00090E1F1CF833099F70E948F0CDC011296C0
:102AE000ED90FC908E010F5F1F4F6801E114F1041F
:102AF00079F0D701ED91FC910680F781E02DB801C6
:102B0000C7010995080F111DF701E084F184EECF8C
:102B1000D8011C92F60101900020E9F73197BF011E
:102B20006C197D0940E0C601C6CF69E370E1FB0185
:102B3000449150E080E80E94850D09CF973009F458
:102B4000BECF983021F481E08093F10000CF99301E
:102B500009F0FDCE837009F0B2CFE9E2F1E081E047
:102B600031E096E32191222371F08093E9003093C4
:102B7000EB00DF0111972C912093EC009093ED0076
:102B80008F5F873079F78EE78093EA001092EA0032
:102B90008F8980938801DBCE8B8D9C8D1092E9000C
:102BA00010927601109275019093740180937301D5
:102BB000898D811192C08E899D89913A49F4813223
:102BC00009F07DCF47E050E064E071E080E0B3CFF2
:102BD000913209F074CF833269F48F89988DB0E017
:102BE000A0E08093000190930101A0930201B093B3
:102BF0000301ADCE803269F48091E80082FFFCCF02
:102C000067E084E091E00E94DC0D8BEF8093E800A8
:102C10009ECE823209F09BCE8F8980930B01EEEF1E
:102C2000FFE7859194918B3F9C4D51F1E0E0F8E0F6
:102C30008091040190910501A0910601B0910701D6
:102C4000803B9440A105B105F1F480910B0180FD1A
:102C50001AC0EE3F8AE0F80789F587E797E7918386
:102C60008083809160008093770188E19BE00FB6BC
:102C7000F894A895809360000FBE9093600067CE93
:102C8000EEEFFAE0D5CF808191818737974709F041
:102C90005ECEA895809160008861809360008091ED
:102CA000770180936000EE3F2AE0F20789F080917F
:102CB000FE0A9091FF0A9183808349CE80819181A1
:102CC0008737980751F29093FF0A8093FE0AC5CF89
:102CD0001092FF0A1092FE0A3ACE0E948F0CDC017D
:102CE00012960D911C910115110509F4E8CED80139
:102CF000ED91FC910190F081E02DBE016B5E7F4F64
:102D0000C8010995811123CEF80100851185EBCF0B
:102D1000181619060CF41BCED2CEF1E0FF12BECE6F
:102D20006DE370E104CF1F920F920FB60F92112442
:102D30002F933F938F939F93AF93BF9380916B019A
:102D400090916C01A0916D01B0916E0130916A017A
:102D500023E0230F2D3758F50196A11DB11D2093B7
:102D60006A0180936B0190936C01A0936D01B09305
:102D70006E0180916F0190917001A0917101B091ED
:102D800072010196A11DB11D80936F019093700196
:102D9000A0937101B0937201BF91AF919F918F91F8
:102DA0003F912F910F900FBE0F901F90189526E81E
:102DB000230F0296A11DB11DD2CF1F920F920FB605
:102DC0000F9211242F933F934F935F936F937F93B1
:102DD0008F939F93AF93BF93EF93FF9380918F0156
:102DE000882349F080918901E0918A01F0918B015B
:102DF00090818927808380916201882309F49CC097
:102E000080915C0190915D01A0915E01B0915F01A4
:102E1000892B8A2B8B2B09F48FC080915C019091B8
:102E20005D01A0915E01B0915F010197A109B10917
:102E300080935C0190935D01A0935E01B0935F016C
:102E4000892B8A2B8B2B09F077C080919001909170
:102E5000910190935B0180935A01E0915301F091AD
:102E60005401AF014F5F5F4F5093540140935301A2
:102E70002491922F907F822F8F70903819F40E94A6
:102E8000A911EBCF903951F43296F0935401E093AD
:102E90005301FA0144910E948009DFCF903E29F44A
:102EA0001092540110925301D8CF903F09F078C08E
:102EB00010926201809159018823F1F120915A0109
:102EC00030915B0180919001909191012817390711
:102ED00099F18091550190915601A0915701B091BF
:102EE00058010097A240B10540F080919001909167
:102EF00091018115904408F090C0A0919001B0918B
:102F00009101209155013091560140915701509106
:102F10005801E0915A01F0915B010E94AC1C9F01A5
:102F200050E040E00E94BF1C2093550130935601B1
:102F30004093570150935801809159018823F9F02B
:102F40008091550190915601A0915701B09158017F
:102F5000892B8A2B8B2B99F08091550190915601EA
:102F6000A0915701B09158010197A109B10980932F
:102F7000550190935601A0935701B0935801FF91CA
:102F8000EF91BF91AF919F918F917F916F915F91E1
:102F90004F913F912F910F900FBE0F901F9018955A
:102FA00097FD5BCF3296F0935401E0935301FA0101
:102FB0004491A0919001B0919101322F242F0E9451
:102FC000E11C6C507E4F8F4F9F4F28EE33E040E066
:102FD00050E00E94BF1C20935C0130935D01409340
:102FE0005E0150935F0180915C0190915D01A09121
:102FF0005E01B0915F01892B8A2B8B2B09F05ACF90
:1030000081E090E0A0E0B0E080935C0190935D01EE
:10301000A0935E01B0935F014DCF20915501309197
:1030200056014091570150915801A0919001B091E3
:103030009101E0915A01F0915B012C5F3F4F4F4F9E
:103040005F4F83E056954795379527958A95D1F739
:103050001296B695A795B695A7950E94AC1C9F01B0
:1030600050E040E00E94BF1C65E0220F331F441F68
:10307000551F6A95D1F758CF1F920F920FB60F9236
:1030800011248F939F93AF93BF93EF93FF938091FE
:103090005201882309F452C080914E0190914F0152
:1030A000A0915001B0915101892B8A2B8B2BA1F15A
:1030B00090918C01E0918D01F0918E0180818927A2
:1030C000808380914E0190914F01A0915001B09169
:1030D0005101181619061A061B069CF480914E0120
:1030E00090914F01A0915001B09151010197A10918
:1030F000B10980934E0190934F01A0935001B0937A
:103100005101FF91EF91BF91AF919F918F910F90DE
:103110000FBE0F901F9018951092520180916F0072
:103120008D7F80936F0080918C01E0918D01F091F3
:103130008E019081809589238083E3CF90918C01CB
:10314000E0918D01F0918E0180818927F5CFE3E92F
:10315000F1E01382128288EE93E0A0E0B0E0848375
:103160009583A683B78383E391E0918380838FEF78
:103170009FEF95878487E1EFF1E01382128285E467
:1031800091E09183808315828CE386831086178279
:1031900080E1818712861386148615861686178627
:1031A000108A118A128A138A10921206109211063E
:1031B000109214061092130681E080931506ADEE6E
:1031C000B1E01196FC93EE9385E092E013969C9308
:1031D0008E931297A9EEB1E01C9211961C92119752
:1031E0001396FC93EE931297E3EEF1E084E190E006
:1031F00093838283958384830895789484B58260D1
:1032000084BD84B5816084BD85B5826085BD85B58A
:10321000816085BD80916E00816080936E00109208
:103220008100809181008260809381008091810083
:103230008160809381008091800081608093800014
:1032400080919100826080939100809191008160D3
:103250008093910080919000816080939000809194
:10326000C10084608093C1008091C100826080931E
:10327000C1008091C10081608093C1008091C30032
:1032800081608093C3008091C00082608093C00001
:103290008091C20081608093C20080917A00846036
:1032A00080937A0080917A00826080937A00809186
:1032B0007A00816080937A0080917A0080688093A0
:1032C0007A00109288011092780110927A01809110
:1032D000D70081608093D70080EA8093D80089B5B9
:1032E000806189BD89B5826089BD09B400FEFDCFCA
:1032F00061E070E080E090E00E94B00E8091D80024
:103300008F7C80618093D8008091E000807F8093E3
:10331000E0008091E1008E7E8093E1008DE080935B
:10332000E200559A209ACFB7F894809163018111F9
:1033300027C0E1EAF0E18491E4E7F0E19491E82F1D
:10334000F0E0EE0FFF1FE653F04FA591B491EC9122
:10335000E92321F461E081E10E94E90D61E081E16E
:103360000E945A0E8CB580618CBD8CB580648CBD7A
:1033700061E08FE00E945A0E61E080E10E945A0EE7
:10338000809163018F5F80936301CFBF61E084E030
:103390000E945A0E61E08CE00E945A0E62E084E1C5
:1033A0000E945A0E62E083E10E945A0E62E082E1BE
:1033B0000E945A0E62E085E10E945A0E62E087E0A8
:1033C0000E945A0E62E088E00E945A0E85E00E9438
:1033D000CC118DE00E94CC11ECE9F0E1E491F0E039
:1033E000EE0FFF1FEE57FF4E8591949190930A06C2
:1033F00080930906EFE6F0E1E491E0930F06E4E93B
:10340000F0E1E491F0E0EE0FFF1FEE57FF4E8591E3
:10341000949190930C0680930B06E7E6F0E1E4911B
:10342000E093100661E086E00E945A0E61E086E0BB
:103430000E94E90D61E070E080E090E00E94B00E33
:1034400060E086E00E94E90D6AE070E080E090E0D4
:103450000E94B00E61E086E00E94E90D0E943209F0
:103460008EEA0E94B61385ED0E94B61380EF0E948B
:10347000B61388EA0E94B6138FE30E94B61383ED59
:103480000E94B61380E00E94B61380E40E94B61337
:103490008DE80E94B61384E10E94B61380E20E9478
:1034A000B61380E00E94B61381EA0E94B61388EC3E
:1034B0000E94B6138AED0E94B61382E10E94B613F1
:1034C00081E80E94B6138FEC0E94B61389ED0E942A
:1034D000B61381EF0E94B6138BED0E94B61380E401
:1034E0000E94B61384EA0E94B61386EA0E94B613BD
:1034F0008FEA0E94B6130E94320980E20E94B6133E
:1035000080E00E94B61381E20E94B61380E00E9420
:10351000B6138FE70E94B61382E20E94B61380E0D2
:103520000E94B61387E00E94B613E0910B06F0915B
:103530000C06808190911006892B8083E09109060A
:10354000F0910A06908180910F06809589238083EF
:103550000E945B09807A803A59F4C5E0D2E08991F3
:103560000E94B61336E0C530D307C9F70000FECF7E
:103570001092620182E090E00E94771C882321F083
:1035800086EF91E00E943812809164008160809300
:103590006400809164008260809364008091640084
:1035A00080688093640080916400806480936400EC
:1035B000809165008160809365008CE38093F701C2
:1035C00080E18093FA011092680183E090E090938B
:1035D00067018093660110926501C1E0C0936401A8
:1035E00082E090E00E94771C8111C0936901809174
:1035F00064008E7F8093640087EC0E94E20E8C0151
:103600008EE50E94E20EEC010E948B0E0095109553
:10361000C095D0950C9FD0010D9FB00D1C9FB00D93
:1036200011249B01AC0120953095409550950E9446
:10363000AC1C6B017C010E948B0E6C0D7D1D8E1DE0
:103640009F1D611571058105910511F00E946E1C89
:103650008091640081608093640005E012E025E0C1
:10366000E22E26E0F22EC0E0D0E0DD24D3942FB786
:10367000F89480916B0190916C01A0916D01B091D3
:103680006E012FBF20910302222391F02091FB01B4
:10369000E82FE21BE09304022091F8013091F90138
:1036A0002F5F3F4F3093F9012093F80110920302EE
:1036B0004091FF015091000260910102709102025D
:1036C00084179507A607B7079CF4481B423050F0B3
:1036D00083B7817F83BF83B7816083BF889583B7BA
:1036E0008E7F83BF209709F4C2CF0E940000BFCF16
:1036F0002091FA01AC01BD01420F511D611D711DE8
:103700004093FF0150930002609301027093020204
:103710008093FB019093FC01A093FD01B093FE0107
:10372000D09203028091E9018093EA010E945B0933
:103730008093E90180916901882341F186EF91E04E
:103740000E94381280E0B82FB111BFEFF8010024B9
:10375000B193B193B193B1930394D1F7E091680120
:10376000F0E0EE0FFF1FE05FFE4F0190F081E02DD3
:10377000099595E0A92E92E0B92EF50181915F019E
:103780000E94B613EA14FB04C1F7ACCF1092F60105
:1037900080916400886080936400809165008860F7
:1037A00080936500CFCF8F929F92AF92BF92CF92BE
:1037B000DF92EF92FF92CF93DF93EC0168817981E2
:1037C0008A819B81611571058105910521F464E26F
:1037D00079ED8BE597E02DE133EF41E050E00E9479
:1037E0008D1C49015A019B01AC01A7EAB1E40E947A
:1037F000AC1C6B017C01ACEEB4EFA50194010E94FE
:10380000BA1CC60ED71EE81EF91EF7FE06C081E0E0
:10381000C81AD108E10880E8F80AC882D982EA8289
:10382000FB82C701B6019F77DF91CF91FF90EF90A8
:10383000DF90CF90BF90AF909F908F9008958F9220
:103840009F92AF92BF92CF92DF92EF92FF926091E0
:103850000C0170910D0180910E0190910F01611585
:1038600071058105910521F464E279ED8BE597E01E
:103870002DE133EF41E050E00E948D1C49015A01D7
:103880009B01AC01A7EAB1E40E94AC1C6B017C0176
:10389000ACEEB4EFA50194010E94BA1CC60ED71E6F
:1038A000E81EF91EF7FE06C081E0C81AD108E1083B
:1038B00080E8F80AC0920C01D0920D01E0920E014E
:1038C000F0920F01C701B6019F77FF90EF90DF9054
:1038D000CF90BF90AF909F908F90089560930C0110
:1038E00070930D0180930E0190930F010895F99943
:1038F000FECF92BD81BDF89A992780B50895262FF5
:10390000F999FECF1FBA92BD81BD20BD0FB6F894C4
:10391000FA9AF99A0FBE01960895052E97FB1EF4A8
:1039200000940E94A41C57FD07D00E94BF1C07FCF6
:1039300003D04EF40C94A41C5095409530952195DD
:103940003F4F4F4F5F4F08959095809570956195CB
:103950007F4F8F4F9F4F08950E94E11CA59F900DB0
:10396000B49F900DA49F800D911D11240895B7FF61
:103970000C94AC1C0E94AC1C821B930B0895A1E21A
:103980001A2EAA1BBB1BFD010DC0AA1FBB1FEE1FD9
:10399000FF1FA217B307E407F50720F0A21BB30B24
:1039A000E40BF50B661F771F881F991F1A9469F7A0
:1039B00060957095809590959B01AC01BD01CF01FC
:1039C0000895A29FB001B39FC001A39F700D811DF8
:1039D0001124911DB29F700D811D1124911D089518
:1039E000AA1BBB1B51E107C0AA1FBB1FA617B70725
:1039F00010F0A61BB70B881F991F5A95A9F7809541
:103A00009095BC01CD010895EE0FFF1F0590F49134
:083A1000E02D0994F894FFCFAA
:103A1800FFFFFFFF00E100000000000001000000C0
:103A28008C1150114711E4102E11C1139710651015
:103A38006110B70FAE0FAD0F00C18081000000000C
:103A4800000000A30CFB0EC40CB90C0A0DC80CE650
:0E3A58000C000000006A12800FBE13BD1300A8
:00000001FF
