:100000000C945D0B0C94850B0C94850B0C94850B58
:100010000C94850B0C94850B0C94850B0C94850B20
:100020000C94850B0C94850B0C94BF1C0C942E1D0A
:100030000C94850B0C94850B0C94850B0C94850B00
:100040000C94850B0C94850B0C94850B0C94850BF0
:100050000C94850B0C94850B0C94850B0C94601FF1
:100060000C94850B0C94850B0C94850B0C94850BD0
:100070000C94850B0C94850B0C94850B0C94850BC0
:100080000C94850B0C94850B0C94850B0C94850BB0
:100090000C94850B0C94850B0C94850B0C94850BA0
:1000A0000C94850B0C942C230C94850B2B180000BE
:1000B00000820287068F8ADF92FFF6FF46FF8CFFE1
:1000C000CCFED8FED0FC20F8A8FCD0FCE4FEE4FE78
:1000D000ECFEE8FCB8FCB0F8B0F8E0F0E0F0C0F0FE
:1000E000E0F0A0F060F060F0E0F0C0E040E040E060
:1000F00040E080E080C00080008000000000000040
:10010000000000000007071F1F3F3FFFFEFFFEFF2C
:10011000FCFFFDFFF3FF07FFCFFF3FFF1E3F1C3F2C
:10012000397F39FF73FF53FF97FF17BF2F7F2E7F54
:100130005CFF5CFFB8FF39FF31FF31FF23FFC2FFD7
:1001400015FF35FF6DFFEDFFDAFFAAFF53FF85DFD7
:10015000068F060F040E040E0004000000000000CD
:100160000000000101030307070F0C1F1F3F001FC2
:10017000000000000000000000000000000000017E
:100180000000000000000000000000010103010366
:100190000207010300010103010302070207040F24
:1001A000091F0B1F163F153F123F1C3E003C00006D
:1001B0000408000000000001000002010000060920
:1001C00000000408080000080804000008060000F9
:1001D00000030208000003000302030602060006F3
:1001E000000C0008081000000101010100000000DF
:1001F00000000000000000030303030301000000EF
:1002000000000000000003070707070703010000C4
:1002100000000000000003070F1F0F0F0701000080
:1002200000000000000003073F7F1F070F010000D0
:10023000000000000000031FFF7F1F0F07010000E8
:10024000030000000000031FFF7F1F0F0701001EB7
:10025000030000000000030FFF7F1F0F0701F81FBE
:1002600003000000000003CFFFFF3F0F070138FF2E
:1002700003000000000003CFFFFF3F0F0701F8FF5E
:100280000F000000000003CFFFFF3F0F0701F8F34E
:10029000070000000000031FFF7F0F070301E0F0CD
:1002A000030000000000030FFF3F0F070301E0C041
:1002B00000000000000003070F1F0F0F070180C0A0
:1002C000000000000000010307070F070301808002
:1002D000000000000000000103070303010080008C
:1002E0000000000000000408000000000000010100
:1002F00000020301000207030006070208060600C9
:10030000180C00003000000058100703030B0F0703
:10031000070F2F1F1F1F0F3F3F3FFF7F3F3F7FFFF5
:10032000FF7F7FFFFFFFFFFFFFFFFFFFFFFFFFFFDD
:10033000FFFFFFFFFFFFFFFFFFFFFFFFFFFFFFFFCD
:10034000FFFFFFFFFFFFFFFFFFFFFFFFFF3F7F7F7D
:100350007FFF7FFFAF0F1F1F0F0307070705010375
:10036000010100000000000000000000000000008B
:100370000000000000000000000000030101010077
:10038000000001010307010103030703030F070333
:1003900003030307070F0B0101010103070100011C
:1003A0000103000000000000000100000000000048
:1003B0000000000000000000000046200F03C1F113
:1003C000F8F83CBCDCDCDCDCDCDCDCDCDCDCDC00D1
:1003D00000FCFCFC00FCFCFC0000DCDCDCDCDCDC0D
:1003E000DCDCDCDCDCBC3CF8F8F1C1030F0703E12A
:1003F000F0F8FC3CBCDCDCDCDCDCDCDCDCDCDCDCAD
:1004000000000000FFFFFF00DFDFDFDDDDDDDDDD01
:10041000DDDDDD01010000FFFFFF00FFFFFF000049
:10042000FFFFFF01FDFDFDFDDD9F5FEFE7F87F3F73
:100430001F070000FFFFFFFF00BFBFBFBBBBBBBB71
:10044000BBBBBBBB030300000000FFFFFF00FFFFBF
:10045000FF0101F9F9F9F9F9F9F8F80000FFFFFFD8
:1004600000FFFFFF0000FFFFFF00FFFFFF0003078B
:100470001F3CFBE7DF3CF8E0C0001FFFFFFFE09FF1
:10048000BF7F7B7B7B7B7B7B7B7B78780000000066
:100490000707070007070700001F1F1F1F1F1F1F59
:1004A0001F000007070700070707000007070700EE
:1004B00007070700001F1C180001070706010707B0
:1004C00006000103070707070707070707070707CE
:1004D000070700003C203F0F03C3F1F1F838BCDCF4
:1004E000DCDCDCDCDCDCDCDCDCDC0000FCFCFC0080
:1004F000FCFCFC00000000FCFCFC00FCFCFC000020
:10050000DCDCDCDCDCDCDCDCDCDCBC3CF8F8F1C1B9
:10051000030FC0000F3FFFFFF0EFDFDFBFBD7979B2
:10052000F1F1E1E181010000FFFFFF00FFFFFF00AB
:10053000000000FFFFFF00FFFFFF0000FDFDFD01C9
:10054000FDFDFD0103FFFFFF00FFFFFF00000303B0
:100550007070707071717373777F7FBF9EE1FFFF62
:100560007F1E0000FFFFFF803F7F7F787070787FE5
:100570007F3FC0FFFFFF0000FFFFFF00FFFFFF0006
:1005800000FFFFFF00FFFFFF000000000707070755
:1005900007070707070707070303111118181810A3
:1005A00000030707070707070707070707070707E6
:1005B00003000000070707000707070000070707F9
:1005C0000007070700000810FFFFFFFFFFFFFFFF06
:1005D00007070707070707073C38000000000080EF
:1005E000F8FE0FE3FB1B0B0B8BFBF3F7F6F6F6069F
:1005F00006ECECECECECECECECECECECECECECEE1F
:10060000E6F6F6F6F7F3FBFBCBCBFBE30FFEF88049
:100610001E332121339E00000080F8FF0FE0F8F91F
:10062000F9F9F9F9F9F9F1F3F3F3F3F0F0FFFFFF5A
:10063000FFFFFFFFFFFFFFFFFFFFFFFFFFFFFFFFCA
:10064000FFFFFFFFFFFF7F7FFEE00FFFF880060642
:1006500000000000000F3FF0C6070404070707076B
:100660000707070707070707FFFFFFFFFFFFFFFF5A
:10067000FFFFFFFFFFFFFFFF07070707070787874A
:10068000070726860707C6F03F1F0080800000008E
:1006900000000000030784C4E4E4E4E4E4E4E4E4E8
:1006A000C49C000FE7E7E7E7E7E7E7E7E7E7C78787
:1006B0000F1F0FC7E7E0ECE4E4E4E5E5E4C404045D
:1006C00004070300C040C303110000000000000045
:1006D0000000FFFFFFFFFF393939FFFFFF0FE0E0A8
:1006E000EFEF0FFFFF183879FFFFF703E0E0EFEFC0
:1006F0000FFFF9F0F0FCFDFDFD0DECE0E0E0000087
:10070000012101000000000080C0602060C0800066
:100710000000000C0C007EFE803C3E1C1C1C1C1CBF
:100720000C0C0E0C0C0C0C0E1E1C1C1C1C3C3E80DD
:10073000FE7E00000000C0E0E0C0000000000303F7
:1007400000000E1B3166C680D060311B0E000038E1
:1007500028380001471E3820202020301010D0D02B
:10076000101090103020202020381E0701000006B5
:100770000600000101000000000000000000370832
:100780007F4555517F415D417F417F4155417F000C
:10079000000007057D417D057F416D6D517F415D05
:1007A0005D417F415D5D637F415D5D417F51555599
:1007B000457F515555457F04084122140815087F8F
:1007C000417777417F4155555D7F415F50507F4173
:1007D0007515111F7F417515117F415F50507F4185
:1007E0006D6D417F117747711F7F5D415D7F417B5B
:1007F000776F417F4175151D7F415D5D417F7F4171
:100800005D5D5F7F415D5D417F417B77417F4175EC
:10081000151D077F515555457F4175151D7F49773A
:1008200077497F00000000007F415D5D417F417599
:10083000151D7F4175151D0700000000007F415DFB
:100840005D417F417B77417F000000000000000098
:100850000000F9FAFBFCFDFEFF000102030405069F
:100860000708FAFBFCFDFDFEFF0000010203030484
:100870000506FCFDFDFEFEFFFF0000010102020374
:100880000304FDFDFEFEFFFFFF0000010101020267
:100890000303FEFEFFFFFFFF000000000101010156
:1008A0000202FFFFFFFFFF00000000000001010146
:1008B0000101000000000000000000000000000036
:1008C00000000101010101000000000000FFFFFF26
:1008D000FFFF02020101010100000000FFFFFFFF16
:1008E000FEFE030302020101010000FFFFFFFEFE06
:1008F000FDFD040303020201010000FFFFFEFEFDF7
:10090000FDFC060504030302010000FFFEFDFDFCE3
:10091000FBFA080706050403020100FFFEFDFCFBCD
:10092000FAF9080800020000000000008000000042
:1009300000000000000000010000000000000000B6
:100940000000000000000000000000000080000027
:100950000080800000000000000000000400000093
:100960000000000000000000000000000040000047
:1009700000004040000400000001000000000000F2
:1009800000000000000000000000000000008040A7
:100990004000808002020000000109000000000009
:1009A00000000008000000000000000000002030EF
:1009B00000401000020001010B02000000000000D6
:1009C0000000000000000000000000008898900077
:1009D000446020000101020206060400000000003D
:1009E00000000000000000000000000040203080F7
:1009F0009000203000010100010C05000000000003
:100A00000000000000000000000000000090983886
:100A1000B06010800001000008000000000000002D
:100A200000000000000200000000000080C000D0B4
:100A300080301000050000C06002000000000000CF
:100A400000000000000000000000000040644000C2
:100A50008030B01003030100010008000000000016
:100A60000000000000000000000000000080900076
:100A700080206040010101000031301200080000B8
:100A80000000000000020000000000000C8C2800A4
:100A900000301024000000000100110100000000DF
:100AA00000000000000000000000000000602400C2
:100AB00080307838001101000206000000000000BC
:100AC000000000000000000000000000000000C066
:100AD0002000801000000200100000000000000054
:100AE00000000010000000400000000040C00000B6
:100AF0004000800000000200000000000000000034
:100B00000000000000000002000000002020800023
:100B10000000400000000000000000000000000095
:100B2000000000000808000000100800000000009D
:100B30000C14180000000030587C2C180000000C29
:100B40003E5A7E6C38001010000000008080C0C04B
:100B5000C0C0800000000000000000070A0D1A114C
:100B60000A080D06000000000000C0E0A0F068B810
:100B70005830A04080000000000000010306050876
:100B8000080A0804030000000000C070C868BC5CCC
:100B9000345C2C9408F00000000003070409080AE4
:100BA0000B080402010000000078CCA4D66EBE5AE7
:100BB000AA5E2C14B84080000000070F122542895D
:100BC000D49A4C4155201F0008080000183C3C18DE
:100BD00000000000001818000000000000100000D5
:100BE000000008083C7E73BDCE7E3C0018366F6F57
:100BF0007B7B360C00001C5A380000000008101CDB
:100C00001C0408000808005A245A5A245A000018E4
:100C1000245A5A24180018A55ABDBD5AA5181824DC
:100C20005ABDBD5A2418101000000080C0000000FA
:100C3000000000C080000000020302050207020558
:100C4000050207020502030210307050AC70A0903C
:100C500090A070AC50703010000000000001010343
:100C6000030101000000000000008000E0C02050EF
:100C70005020C0E00080000004060302050E0609B3
:100C800009060E05020306042020303038A0D8DC07
:100C900080683040E07000000000000000000101AA
:100CA000000106070201070C000070E04030688078
:100CB000DCD8A038303020200C07010207060100E4
:100CC000010100000000000010304E54B0C8C8B050
:100CD000B694C87030301010000000000000000111
:100CE00001030303000000001010303070C894B6F8
:100CF000B0C8C8B0544E3010000000000303030118
:100D000001000000000000001010000000008080C2
:100D10004080804080800000000000000101000150
:100D20000102020101000101000000000080C0007A
:100D30000000000000C08000000002030102040760
:100D4000060909060704020103020000669EBCF8BA
:100D5000F4E4F8E49474743C1C0400001F0C0E05C9
:100D600003050701020300000000041C3C74749496
:100D7000E4F8E4F4F8BC9E66000000000000030202
:100D800001070503050E0C1F0000201800000000DD
:100D9000008080C000A0D0C8C8D0AC2EACD0D0C8D5
:100DA000C8D02080808000000000000080C06090DB
:100DB000E1F1F9FCFDFDFDFDFDFDFD00FDFDFDFD8D
:100DC000FDFDFDFCF9F1C1B060C08000030003032C
:100DD0000B1B1B3B3B3B3B3B3B3B3320333B3B3BFE
:100DE0003B3B3B3B1B1B0B0303000303181800009A
:100DF00000000000808080C0C0E0D05050A88A6A07
:100E0000F67228983000B0783C9ECEEFE6F6FA7A7B
:100E10003D9DDCDD01773B1B0006070F0E1800012E
:100E20000202060405050604010303070704000087
:100E30000000000000000000000000000020106022
:100E4000747A7A602A0B6B75787A1AE4C080000095
:100E50000080E0F0F4F7F7F7F73707E1F4F7F7F77A
:100E6000F7F7670000012010060717373777776715
:100E700040686F6F6F6F2F2F0F07000F1E18101035
:100E80000040C0C04040C0C0408040A0B0305000D2
:100E90000000000001030201000100010103020043
:100EA00040C0C060A0A0D0D050986CACB4A050306E
:100EB0000002060402060A0D0C09030001030200E9
:100EC00010100088B060F070A0D8A070D06090883A
:100ED00000000000100B0507020D02070F0B1000A9
:100EE000000092BC6CF63656FCE8CB7C6E36F66C95
:100EF000BC92241E1B37373A1F6D0D1F3A37371B24
:100F00001E24008008E4309000E0E4C490306004C7
:100F100088000019200C1813464E0D04110C2610E1
:100F2000010018087ED581000000000000000000CC
:100F300000000000000000000081D57E18087EBD82
:100F4000A59981B995B981BD85B9819DA5B181BDAD
:100F5000B581BD95AD7E00425A667E466A467E42A8
:100F60007A467E625A4E7E424A7E426A5200101093
:100F7000FF3F3F3F7FBFBF3F7FFFFFFFFFFFFFFF01
:100F8000F1C2DE9CB8391F0E1F207DC39F7FFFFF7B
:100F9000FFFF0FB7F7E7030303F7EF5F3FFFFFFF25
:100FA000FFFFF88107070F0EC7F3CBB4BB7CFFFF31
:100FB000FFFFFFFF7F7FBFBFBF3F1F1F3FFFFFFF41
:100FC000FFEF13240992C5E0B33F9ECEE3F8FFFF85
:100FD000FFFF7F7F3F1F1F3F7F7F7FFFFFFFFFFFE1
:100FE000FFF8C38F1E1C38387D7F9E60FFFFFFFF18
:100FF000FF7FBFBF1F0F0F0F1FBF7FFFFFFFFFFF51
:10100000FFE0061F1F3870383E9F8360FFFFFFFF21
:10101000801500008040A05028DC6CB4BABABABB7E
:10102000BBBBBBBBBBBBBBABBBABABABBBBBBBBB50
:10103000BBBBBBABABBBBBB36BD73767464ECC8C34
:101040009898B0B0B0B0F0B0F0F0F0F0F0F0F0F090
:10105000F0F0F0F0F0F0F0F0F0F0F0F0F0B0F0B010
:10106000B0B0B0909888CC4C6636D66BB3BBBBABF7
:10107000ABBBBBBBBBBBBBBBBBABABABABBBABBB20
:10108000BBBBBBBBBBBBBABAB46CDC2850A04080B6
:101090000000C2310C030000000FFCFF0000000044
:1010A0000000000000000000000000000000000040
:1010B00000000000000000FFFC0F00000000000125
:1010C00003070F1E7CF8FFFFFFFFFFFFFFFFFFFF7F
:1010D000FFFFFFFFFFFFFFFFFFFFFFFFFFFFFFFF20
:1010E000781C0E070301000000000FFCFF00000049
:1010F00000000000000000000000000000000000F0
:101100000000000000000000FFFC0F000000030CC6
:1011100031C20000000000000000031F00000000BA
:1011200000000000000000000000000000000000BF
:10113000000000000000001F03000000000000008D
:101140000000000000031F1F1F1F1F1F1F1F1F1F66
:101150001F1F1F1F1F1F1F1F1F1F1F1F1F1F1F03BB
:101160000000000000000000000000031F0000005D
:10117000000000000000000000000000000000006F
:1011800000000000000000001F030000000000003D
:10119000000008080F030101000000000101030F17
:1011A000000000000F0C08080000000008080C0FE9
:1011B000000000000000081408000000582800008B
:1011C000000000000000000000000000000000001F
:1011D0000080C0E0F07078787C7C7E7E3E3E9E6E23
:1011E000361E0E0E06224280E04080E00000E060E5
:1011F0004080204080E00000E0A0808000000000EF
:1012000000000000000000000000000000000000DE
:10121000000000000000000000000040004080804E
:101220002060A02020284C5E7FFBBBC57EBFBFDFB7
:10123000DFEFEFEFEDEDEDCA860A12E200000000ED
:10124000040C14141010040C1414141810040C14AE
:10125000041814041810040C140C000418101000C6
:101260001C141010040C1404001C14101000004175
:10127000004141004141D5E355368041417F634102
:1012800041DDFFBE7FFFFFE3C1FFFFFFFFF7E3E3A9
:10129000E32241C14141495D5D5D5D5D2A2A2A220B
:1012A000141C00000000000000000000000000000E
:1012B000000000000000000000000000000000002E
:1012C000000000000000000000000001000100001C
:1012D00002030202020A193D7FEFEED1BF7E7E7D3E
:1012E0007D7B7B7B5B5BDB293028242300000000B7
:1012F000000000000000000000000000010B0D0DC8
:10130000080107090908030D090B0C010F05060860
:1013100001070D09080000000000000000000000A7
:1013200000000000000000000000000000000000BD
:101330000000010307070F0F1F1F3F3F3E3E3C3BCE
:10134000363C38383020200000000000000000004B
:10135000000000000000000000000000000000008D
:10136000000000000000000000000000000000007D
:101370000000000000005828000004080810102099
:1013800020408080000080402010080402091120C5
:1013900040000000008040F0086874747A3ABA4255
:1013A0003A342448C830C81C142444C99214111279
:1013B0001410218A088580874C483191E224489096
:1013C0001060800000000000004020201008080489
:1013D000000000000000000080C0F01C07010202B5
:1013E000040408101020204040800000001F609E70
:1013F00023410181C13118981830E01007C0306FC7
:1014000040C080804041C18181C14D5B112C5C5E38
:10141000BEFCFAFDFCFCFDEDEBE6ECD9326CF040D5
:101420008000000000202020000000000080F0FE6E
:101430000F0380808080404040202000804020209A
:101440002040C0E07030B0D0D18E8CC03F9695E582
:10145000390E87E0F9FCFEFEFEFEFEFEFEE2C2C093
:101460001416262F47478382804347476727371341
:101470001319090C060301000FFEF08000000000A4
:1014800008080404F8FFFF010101808080609010CB
:10149000103E53A1C103061C3860800001071F3FA6
:1014A0003F1800000384FF38C00E3F7F7F7F7F7F9F
:1014B0007F7FBF9FDFCFCFC30110180C063FEF1116
:1014C0003C7A7AF4E4C8D090202041828204040857
:1014D0000810FFFFF8408080201090C8CFE7E7F2A7
:1014E000F2FDF87831312122448800000103040024
:1014F00000000101000000000000000080CF313832
:101500000EC3663D391333E7CF8F6FEFE7E3F3F890
:10151000FCFCF00000003967C0C080000103070F29
:101520001F3F3E7CF8F9F2E2C4C48F1F3F202040E9
:10153000000006011501260137014A015D01720113
:1015400088019F01B801D201EE010B022A024B0271
:101550006E029302BA02E40210033F037003A40375
:10156000DC03170455049704DD0427057505C80539
:1015700020067D06E0064907B8072D08A9082D09B1
:10158000B9094D0AEA0A900B400CFA0CC00D910EF5
:101590006F0F5A1053115B1272139A14D41520173F
:1015A0008018F519801B231DDE1EB420A622B52449
:1015B000D5F08D14A1C881CFD9F1AF20005D1026E0
:1015C0001C5410FA10141C781C5F114F11DD100808
:1015D0000B000202020000090400000102020000E8
:1015E000052400100105240101010424020605243C
:1015F0000600010705810310004009040100020AEA
:1016000000000007050202400000070583024000B9
:10161000000403090412010002EF020140412336D5
:101620008000010102030141726475696E6F204CF4
:101630004C430041726475626F79000B000010002A
:10164000180019001D0023002D00370042004D0036
:101650005E00000102039D189E0001020340204E1F
:10166000030FFD07079F403F41F0FD07089F9FFDC7
:101670002F069F4020A04000FE4904402041F8A3CF
:101680004A43FEFC04A2FC05A7FC04AEFE4C00FD90
:10169000020A4CFEFD020AFE4C00FD02094CFEFD52
:1016A0000209FE14A314A31BA314A31CA314A31BBD
:1016B000A314A3FE14BFFE00C52311241FBECFEF49
:1016C000DAE0DEBFCDBF11E0A0E0B1E0EAE7FDE483
:1016D00002C005900D92A433B107D9F727E0A4E327
:1016E000B1E001C01D92AC33B207E1F71BE0CDE5DC
:1016F000DBE004C02197FE010E94B526CC35D1075E
:10170000C9F70E94E7230C94BB260C9400006F924B
:101710007F928F929F92AF92BF92CF92DF92EF9281
:10172000FF920F931F93CF93DF93DC01FA01149183
:10173000319654913196C12FD0E0222309F1CC2467
:10174000C394D12C852F877011F4D12CC12CE52E98
:10175000E694E694E694EC0CFD2CF11CEC9EC001A2
:10176000ED9E900DFC9E900D1124033011F4880F16
:10177000991F289F7001299FF00C1124EE0DFF1D69
:101780007D01EC0EFD1E1E141F040CF06BC0A03872
:10179000B1050CF067C0CB01850F911D1816190615
:1017A0000CF060C0603471050CF05CC0309709F437
:1017B00059C0362F3770CB0177FD079623E09595FA
:1017C00087952A95E1F7282F77FF04C0332311F07E
:1017D0002FEF280F662777276A1B7B0BB7FD02C008
:1017E00070E060E090E89A1B40E8E416F1040CF425
:1017F000912F961BE22E022E000CFF08DE2CD094B7
:101800002F3F0CF0D12C41E0852F877009F440E088
:10181000B52EB694B694B6944B0DE40EF11C89E047
:10182000E816F10414F048E0421BB42EBD182D0D4B
:1018300040E8240370011124AE0DBF1DA60FB71F91
:101840001D9D600D711D1124AF01460F571FC32E42
:10185000032E000CDD08033009F4C7C090F40230F9
:1018600009F474C0DF91CF911F910F91FF90EF9019
:10187000DF90CF90BF90AF909F908F907F906F90B0
:1018800008950A3FA1F1B20E0B3F61F72B1551F3FA
:10189000BD016F517D4F10E000E0091708F09FC0B7
:1018A000FA01E00FF11FE491F0E04F010C2C02C0AF
:1018B000880C991C0A94E2F727FD06C0FB01808181
:1018C000F82CF0948F218083332361F0273054F477
:1018D0007B01F0E8EF0EF11CA92CA094F7018081A8
:1018E0008A2180830F5F1F4F6F5F7F4FD6CFB20E6D
:1018F0002B1509F4B7CFBD016F517D4F10E000E00B
:10190000091708F066C0FA01E00FF11FE491F0E05A
:101910004F010C2C02C0880C991C0A94E2F727FD99
:1019200004C0FB01808188298083332351F0273054
:1019300044F47B01F0E8EF0EF11CF7018081892966
:1019400080830F5F1F4F6F5F7F4FDACF6FEF70E0C5
:10195000032E02C0660F771F0A94E2F76095709518
:10196000972E8B2C820E281509F47CCF8D010F51F8
:101970001D4FF12CE12CE91630F5FA01EE0DFF1D9B
:10198000E491F0E03F010C2C02C0660C771C0A9435
:10199000E2F727FD05C0F801808186238629808330
:1019A000332359F027304CF45801F0E8AF0EB11C46
:1019B000F5018081892187298083FFEFEF1AFF0AD3
:1019C0000F5F1F4FD8CF2F5F4C0F5D1FA058BF4F29
:1019D000CACF2F5F4C0F5D1FA058BF4F89CF2F5F1D
:1019E0004C0F5D1FA058BF4F51CFE92EF12CFA01CB
:1019F000E60FF71FAF51BD4F60E870E06E197F0929
:101A0000CE19DF098E01000F111F41E050E07A016D
:101A1000032E01C0EE0C0A94EAF7592F4B2D892EA4
:101A2000932ECF93DF93ED01EF96EF962296A5903C
:101A3000C590992059F0AE9C5001CE9C6001273092
:101A40002CF4F880D094FD20FB28F99222233AF060
:101A5000FC90C094FC20FA28FD920C94300D119655
:101A60005A9529F74A9551F0582D23951124E00FE6
:101A7000F11DA60FB11DC60FD11DD9CFDF91CF919A
:101A80001124F0CE90913707982329F490913607CE
:101A9000982381E009F480E008950F93242F0BEF41
:101AA000AB0162E070E00E94870B0F910895FC018A
:101AB00080910302882311F13FB7F89482E080936C
:101AC000E9002091F200822F90E01816190614F414
:101AD00081E090E0882339F0289844E640930202A0
:101AE0004091F1004083222339F02091F20021112E
:101AF00003C02BE62093E8003FBF08958FEF9FEFD0
:101B000008952FB7F89483E08093E9009091E8005E
:101B1000892F807295FF04C09091F20080E4891BA8
:101B20002FBF08958091FA0181110DC082E080934A
:101B3000F60184E08093F7011092F9011092F80108
:101B400081E08093FA0186EF91E00895CF93DF93CF
:101B50001F92CDB7DEB76983DC01ED91FC91028065
:101B6000F381E02D41E050E0BE016F5F7F4F0995AA
:101B70000F90DF91CF91089583E08093E9008091E9
:101B8000F200882319F08AE38093E80008950E9408
:101B9000810D90E00895CF93DF931F92CDB7DEB70C
:101BA000FC018485958597FD08C02FEF3FEF3587B1
:101BB00024870F90DF91CF910895CE0101960E9466
:101BC000570D019719F4898190E0F3CF8FEF9FEFC4
:101BD000F0CF0F931F93CF93DF931F92CDB7DEB754
:101BE0008C01FC018485958597FF0BC0CE01019681
:101BF0000E94570D019771F4898190E0F801958753
:101C00008487F801848595850F90DF91CF911F918E
:101C10000F9108958FEF9FEFF1CFFC01848595859B
:101C200097FD0BC09FB7F89482E08093E900809104
:101C3000F2009FBF90E0019608959FB7F89482E06C
:101C40008093E9008091F2009FBF90E00895409159
:101C5000F0015091F1012091EE013091EF01421716
:101C60005307B4F49091E8009570E1F39091E80087
:101C700092FD19C08093F1008091F0019091F101E3
:101C800001968F739927892B19F48EEF8093E800C2
:101C90008091F0019091F10101969093F101809370
:101CA000F00181E0089580E00895EF92FF920F9394
:101CB0001F93CF93DF93F82E192FE62E042F81E088
:101CC000860F880F0E94270E83E00E94270ECF2DDB
:101CD000D12FEC0EFD2EF11CCE15DF05B9F007FF5C
:101CE00013C0FE0184910E94270E182F80E00E94ED
:101CF000270E812321968111EFCFDF91CF911F9184
:101D00000F91FF90EF9008958881EDCF81E0F5CF9E
:101D1000DF92EF92FF920F931F93CF93DF93D82E12
:101D20008A01EB017B01E40EF51ECE15DF0559F0AB
:101D3000D7FE12C0FE0184910E94270E21968111C8
:101D4000F4CF0FEF1FEFC801DF91CF911F910F91DB
:101D5000FF90EF90DF9008958881EECF0F931F934F
:101D6000CF93DF931F92CDB7DEB782E0898342E441
:101D700050E06FEC75E180E80E94880E0E94920DA1
:101D8000DC0112960D911C910115110589F0D80105
:101D9000ED91FC910280F381E02DBE016F5F7F4FDA
:101DA000C801099597FD04C0F80100851185ECCFA5
:101DB00089810F90DF91CF911F910F91089561500C
:101DC00030F02091F100FC0120830196F8CF289893
:101DD00084E68093020208953FB7F8948091EA0167
:101DE0009091EB01A091EC01B091ED0126B5A89B7B
:101DF00005C02F3F19F00196A11DB11D3FBFBA2F9D
:101E0000A92F982F8827BC01CD01620F711D811D5C
:101E1000911D42E0660F771F881F991F4A95D1F7E1
:101E200008958F929F92AF92BF92CF92DF92EF92DE
:101E3000FF926B017C010E94EC0E4B015C01C1140E
:101E4000D104E104F104B9F00E94EC0E681979099B
:101E50008A099B09683E73408105910580F321E062
:101E6000C21AD108E108F10888EE880E83E0981EB6
:101E7000A11CB11CE4CFFF90EF90DF90CF90BF90FA
:101E8000AF909F908F90089565E070E080E090E0C3
:101E90000C94110F8F929F92AF92BF92CF92DF92CC
:101EA000EF92FF920F931F93CF93DF936C017B010F
:101EB0008A0180910F01882309F45CC0809103029C
:101EC000882309F457C08091F50180FF05C08091F7
:101ED000E00082608093E000E801B12C8AEFA82E38
:101EE00093E0892E2AE3922E209711F4BB20D9F19A
:101EF0000E94810D81110AC0AA94AA20D9F161E043
:101F000070E080E090E00E94110FEECF8C171D066C
:101F100011F00CF08C2F9FB7F8948092E90020917B
:101F2000E80025FD02C09FBFDFCF282F30E0C21B95
:101F3000D30BF701815020F041914093F100FACF8B
:101F4000E20EF31EBB2021F09092E800B12CEBCF03
:101F50008091E80085FDE7CF9092E800BB24B39420
:101F6000209709F3F3CF5D9884E68093F40110166F
:101F700011063CF081E090E0F6019383828310E04B
:101F800000E0C801DF91CF911F910F91FF90EF907A
:101F9000DF90CF90BF90AF909F908F90089590E08A
:101FA000880F991FE0910602F0910702E80FF91FD0
:101FB000859194912091040230910502820F931F24
:101FC00008950F930AEF0E94870B0F9108950F93C6
:101FD00002E00E94870B0F9108958FB18095807F5A
:101FE000669B88601C9B846008951092E3013E9874
:101FF0003F9808953E9A3F9A81E08093E3010895C7
:102000000895CF93DF93CDB7DEB764970FB6F894FA
:10201000DEBF0FBECDBF91E0909369012AE0E9E8F1
:10202000F1E0DE011B9601900D922A95E1F7885FA1
:102030008D876E8782E38F87198A9C8B8AE0FE01E9
:102040003B96DE01119601900D928A95E1F78AE0A8
:10205000FE013196A9E8B1E001900D928A95E1F771
:1020600064960FB6F894DEBF0FBECDBFDF91CF915F
:102070000895EF920F9390916A013AE09302F00174
:102080001124E559FE4F9083818362834383168236
:10209000248380E2878305831086E1869F5F909387
:1020A0006A010F91EF9008958CE00E94420D882301
:1020B00019F081E08093E4010895CF93C09150011D
:1020C000CF5FC093500120E048ED55E064E070E040
:1020D00082E290E00E94E10FC93718F081E080931E
:1020E000E401CF910895EF92FF920F931F93CF9346
:1020F000DF931092720081E090E090934C01809306
:102100004B01E9E0F2E028EDDF011D922A95E9F7A5
:1021100020EF2093100129E12093080221E732E00B
:1021200030934A01209349019093460180934501E1
:102130009093D1028093D00282E48093C00081E02A
:102140008093C1008FEF8093D10080E88093CF000F
:10215000EBE3F6E1C4918CE396E190930702809360
:102160000602D0E0CC0FDD1FC45CD94ECE01049630
:10217000909305028093040299E0E92E92E0F92EF3
:1021800010E000E0FE01E00FF11F84910E94CF0FEC
:10219000F701918380830F5F1F4FF6E3EF0EF11C71
:1021A0000430110579F784E080937200DF91CF91BC
:1021B0001F910F91FF90EF90089520E046E753E1C3
:1021C00068E070E084E190E00E94E10F8CE00E9402
:1021D000420D882371F0EBE6F1E088E7DF011D9204
:1021E0008A95E9F710926A0181E08093E4010C94EA
:1021F00073100895EF920F9310927200E9E0F2E0ED
:1022000088EDDF011D928A95E9F780EF8093100138
:1022100010926901E12C02E020E040E060E081E002
:102220000E94391020E040E060E081E00E94391017
:1022300020E040E060E082E00E943910EE24E39468
:1022400020E040E060E083E00E94391021E040E2BD
:1022500060E480E00E94391001E02AE040E060E0A4
:102260008AE00E9439102AE142E160E28BE00E949C
:10227000391084E6E82E20E240E260E28CE00E9421
:102280003910E9E5F1E088E08193B1E0E936FB0738
:10229000D9F786E08093E4010F91EF90089520E054
:1022A0004CEB51E168E070E084E190E00E94E10FC6
:1022B0008CE00E94420D81110C94FA1008952F9227
:1022C0003F924F925F926F927F928F929F92AF92C6
:1022D000BF92CF92DF92EF92FF920F931F93CF9313
:1022E000DF93CDB7DEB7C45DD1090FB6F894DEBF7A
:1022F0000FBECDBF809134079091350763E070E049
:102300000E948D26892B31F48091030191E0892769
:10231000809303011092580181E0809302010E9492
:10232000ED0F86FF0DC0909157018091560122E07C
:102330002093020196300CF03BC19F5F90935701B0
:102340000E94ED0F85FF0CC09091570180915601BE
:10235000109202019B3F0CF432C1915090935701AF
:102360000E94ED0F84FF0DC08091550193E0909382
:102370000201893F34F08150809355018FEF8093A3
:1023800058010E94ED0F87FF0DC08091550194E028
:1023900090930201803134F48F5F8093550181E086
:1023A000809358010E94ED0F82FF48C08AE0EBE65F
:1023B000F1E0DE01119601900D928A95E1F780918E
:1023C0006F0181113BC080E28B838C8390E59D83FC
:1023D0009AE0FE013196DE01A154BF4F01900D92AB
:1023E0009A95E1F79AE0FE01E154FF4FABE6B1E0C8
:1023F00001900D929A95E1F79AE0E5E7F1E0DE01B0
:10240000119601900D929A95E1F790E69B838C834B
:1024100081E58D838AE0FE013196DE01A753BF4F2F
:1024200001900D928A95E1F78AE0FE01E753FF4F94
:10243000A5E7B1E001900D928A95E1F70E94ED0FBA
:1024400083FF2AC08AE0EFE7F1E0DE0111960190F8
:102450000D928A95E1F78091830181111DC080E47E
:102460008B8388E18C8382E58D831F8280E288875D
:102470008AE0FE013196DE01AB54BF4F01900D9210
:102480008A95E1F78AE0FE01EB54FF4FAFE7B1E038
:1024900001900D928A95E1F7E090570186E08E0D4C
:1024A00020E18202C0011124B9E5CB2EB1E0DB2E80
:1024B000D60130E020E08E5A974FFC01E20FF31F67
:1024C000E491ED932F5F3F4F20313105B1F79091AB
:1024D000550129E631E0E9E5F1E08191DF0111974D
:1024E000890F8C932E173F07C1F7B12CA12C812C9B
:1024F000D6010D916D01002E000C110B912C282D91
:10250000290D8091560142E259E0B801F501E80F2A
:10251000F11D87FDFA95CF010E94E70F085F1F4F5D
:102520009394F4E09F12EBCF8F0E28E0A20EB11C23
:1025300030E8A316B104E1F630905801D12C109187
:102540006A01D1160CF026C70D2D0D2C000C110BB5
:102550002AE04D2D4202C001112485599E4F209F33
:10256000F001219FF00D1124E559FE4F218121300A
:1025700009F460C02AE0DE01A555BF4F01900D921D
:102580002A95E1F7DC0112962C91129713963C9153
:10259000139714965C91149717964C915523E1F07C
:1025A0001E140CF030C1B3E0BE1584F4215010C0ED
:1025B000813F0CF4C5CE815080935601C1CE80314D
:1025C0000CF0CECE8F5F80935601CACE40FFEECF87
:1025D00013140CF023C13F5FC355DF4F2883CD5A3E
:1025E000D040C255DF4F3883CE5AD040C155DF4F5F
:1025F0005883CF5AD040CE54DF4F4883C25BD0407F
:102600002AE0FE01E555FF4FDE01AF55BF4F0190B7
:102610000D922A95E1F72AE0209FD001219FB00D6D
:102620001124A559BE4FFE01EF55FF4F01900D92A9
:102630002A95E1F7C09069014090510150905201F4
:102640006090530170905401EBE6F1E0BFE7AB2ED0
:10265000B1E0BB2E4AE0409F9001419F300D112414
:1026600025593E4FA901475F5F4FCD52DF4F598338
:102670004883C35DD04048505109B9016C5F7F4F1A
:10268000A3E68A2E2A5F3F4F94809920E1F196803D
:10269000A1E0A915C0F5DC0111969C90B2E0B91536
:1026A00090F5DC0114969C90992069F1B3E69B1695
:1026B00051F1DC0113969C90B0EF9B0EA0E22A2E04
:1026C000291408F1DC0112969C90B0ED9B0E2914A0
:1026D000D0F0CD52DF4FA881B981C35DD0409C902E
:1026E0009A949C9291100FC0DA019C90B3E09B12D7
:1026F00001C0C12CDB018C92D9011C92B2E34B0EBC
:10270000511C611C711C3A96AE16BF0609F0BCCF75
:1027100040925101509252016092530170925401C3
:10272000C092690120918301222309F44BC02091BA
:102730008501223008F446C0FC012181233008F4D1
:1027400041C024812223F1F12336E1F1438150E09D
:1027500020918201022E000C330BBA01605F7F4F83
:10276000621773077CF1205F3F4F2417350754F140
:10277000428150E020918101022E000C330BBA01FE
:10278000605F7F4F62177307ECF0205F3F4F2417A5
:102790003507C4F02AE0209FF001219FF00D11249D
:1027A000E559FE4F2181233011F4109269012AE08E
:1027B000209FF001219FF00D1124E559FE4F23E6E3
:1027C000248316822AE0209FF001219FF00D11241E
:1027D000E559FE4F8180FDE0F81508F4ADC0E82D05
:1027E000F0E0EB50FC4E0C94B5261314C7153C16C4
:1027F000A1169C149C149C149C149C149C142917C2
:1028000031181D191015EE2009F4E2CEEDEFEE1689
:1028100014F42F5FDDCE40FDDBCEFBCF332009F477
:10282000DBCE3150D9CE2AE0209FF001219FF00D60
:102830001124E559FE4FDE01A956BF4F01900D92BC
:102840002A95E1F7DC0111965C9011971296AC90F5
:1028500012971396BC90139714969C901497159604
:102860006C9015971696CC90169717967C901797A4
:1028700018968C919920F1F08611CBC0772009F43D
:102880005DC07A94B2E09B1609F478C0B91508F4DB
:1028900058C0E1E09E1609F486C0511009C06B2DA6
:1028A00070E02C2D44E25BE08A2D90E00E94E10F65
:1028B00081E0880DC856DF4F5882C859D040C756AE
:1028C000DF4FA882C959D040C656DF4FB882CA59D7
:1028D000D040C556DF4F9882CB59D040C456DF4F09
:1028E0006882CC59D040C356DF4FC882CD59D04002
:1028F000C256DF4F7882CE59D040C156DF4F888311
:10290000CF59D0408AE0FE01E956FF4FDE01A357C0
:10291000BF4F01900D928A95E1F78AE0809FD00128
:10292000819FB00D1124A559BE4FFE01E357FF4F03
:1029300001900D928A95E1F7D39401CE70E2772E43
:10294000A1CFF3E09F1609F441C064E0262E921057
:10295000A4CFA394A394BDE3BB1508F448C0B394DB
:10296000B394E8E2EB1508F056C0F0E3FB1508F06D
:1029700054C058E3252E2B1498F025C0A394A3949B
:1029800022E02B15A0F5BA94BA9437E13B1508F470
:1029900042C04FE04B1508F440C057E05B1598F07B
:1029A00043E0C42E7ACFAA94AA9462E06B15F8F49F
:1029B000BA94BA9487E18B1570F19FE09B1568F18A
:1029C000A7E0AB1568F782E0C82E67CFAA94AA9457
:1029D0002DE32B1560F0B394B39438E23B15D8F493
:1029E00040E34B15D0F458E35B15D0F2ECCF0E94D6
:1029F000B02524E030E040E050E00E941E269924FB
:102A00009394960E90E2792E20E2B22E30E4A32E1B
:102A100044CF882E42CFC82C40CFCC24C3943DCF86
:102A20002AE0209FF001219FF00D1124E559FE4F6F
:102A3000DE01AD57BF4F01900D922A95E1F7DC0101
:102A400012969C9012971396AC9013971496BC9084
:102A5000149715965C9015971696CC901697179626
:102A60002C91179718968C90BB2079F1581067C05D
:102A7000222331F077247A94720E20E0612C0CC06E
:102A8000C394B3E0BC1508F05DC010926901B12C8D
:102A9000B0E27B2E6624639488248394820EBB204C
:102AA00089F06A2D70E0892D90E0E3E62C2DBE12AE
:102AB00069C040EC5EE00E94E10FF1E0FC1508F413
:102AC00044C0C394272D611042C0CB57DF4F98827A
:102AD000C558D040CA57DF4FA882C658D040C95702
:102AE000DF4FB882C758D040C857DF4F5882C85808
:102AF000D040C757DF4FC882C958D040C657DF4FB4
:102B00002883CA58D040C557DF4F8882CB58D04061
:102B10008AE0FE01ED57FF4FDE01A758BF4F01903D
:102B20000D928A95E1F78AE0809FD001819FB00DD8
:102B30001124A559BE4FFE01E758FF4FF9CE722E62
:102B4000282D9CCFA0E27A2E99CF109269010E9485
:102B5000B02520E530E040E050E00E941E2670E302
:102B6000972E960E0E94B02524E130E040E050E020
:102B70000E941E26E0E1AE2EA60E20E2C12CF4E556
:102B8000BF2EA3CF46E45BE00E94E10F9BCF2AE07B
:102B9000209FF001219FF00D1124E559FE4FDE0129
:102BA000A159BF4F01900D922A95E1F7DC011296D1
:102BB000CC90129713969C9013971496AC90B12CCE
:102BC000AA20B9F19A94B0E5AB1629F0E1E5AE166A
:102BD000E9F0B12C11C0FFE3FC1548F160E3262EAB
:102BE00052E0B52E2C1430F0BB24B39420E22C1507
:102BF00008F0B12C34E0C30E692D70E02B2D48ECA9
:102C00005BE08C2D90E00E94E10F13C040E44C1576
:102C100070F45FE442E0B42E5C1530F4BB24B3944E
:102C20006FE56C1508F4B12C8CEFC80EE5CFB12C14
:102C3000A12CE296CFAEE297E3969FAEE397E4969F
:102C4000AFAEE497E696BFAEE6978AE0FE01E159A3
:102C5000FF4FDE01AB59BF4F01900D928A95E1F70E
:102C60008AE0809FD001819FB00D1124A559BE4FED
:102C7000FE01EB59FF4F5CCE2AE0209FF001219F1F
:102C8000F00D1124E559FE4FDE01A55ABF4F01900A
:102C90000D922A95E1F7DC011296AC9012971396EB
:102CA0009C9013971496CC9014971696BC901697F8
:102CB00017968C91CC2009F441C0882381F0882498
:102CC0008A94880E282D21702B0D692D70E042EE1C
:102CD0005BE08A2D90E00E94E10F8C2D09C0B2E5E7
:102CE000CB1609F4F7C3E3E530E2832ECE12EACF28
:102CF0006E96AFAE6E976F969FAE6F97A0968FAFA2
:102D0000A097A296BFAEA297A3968FAEA3978AE094
:102D1000FE01E55AFF4FDE01AF5ABF4F01900D9201
:102D20008A95E1F78AE0809FD001819FB00D112440
:102D3000A559BE4FFE01EF5AFF4FFACD882E80E015
:102D4000D7CF2AE0209FF001219FF00D1124E559F3
:102D5000FE4FDE01A95BBF4F01900D922A95E1F76E
:102D6000DC0112969C9012971396AC9013971496D0
:102D7000CC9014971696BC90169717968C90CC20F2
:102D8000E1F1882081F08A9488EF890D813718F06D
:102D900010926901C12C88EF8A0D8133D8F010920E
:102DA0006901C12C2AC0B2E3CB1669F0E3E3CE1669
:102DB00019F020E2822EE8CF1092690188E080931A
:102DC000E401C12CF6CFB0E28B2E82E0B82E93E363
:102DD000C92EDACFCC2089F06A2D70E0892D90E0E1
:102DE000F3E6CF122EC02B2D40EC5EE00E94E10FE7
:102DF000222423942B1498F2B3942A969FAE2A97F8
:102E00002B96AFAE2B972C96CFAE2C972E96BFAEAF
:102E10002E972F968FAE2F978AE0FE01E95BFF4F2A
:102E2000DE01DD9601900D928A95E1F78AE0809FA0
:102E3000D001819FB00D1124A559BE4FFE01FD9612
:102E400077CD282D21702B0D44E05CE00E94E10F2E
:102E5000D4CF2AE0209FF001219FF00D1124E559E5
:102E6000FE4FDE01D39601900D922A95E1F7DC0129
:102E70001296CC9012971396BC9013971496AC9020
:102E8000149715969C90159716967C901697179602
:102E90008C90179719966C90AA2009F432C3B3E668
:102EA000AB1609F42EC38820E9F08A94E6EFEA0D08
:102EB000E03108F073C0F0E0EE59F84E892D90E053
:102EC0000C94B5268017AC1791178717E717BF1713
:102ED000D517DF17DF17BF17D517E7178717AC17F9
:102EE000911780170E94B02528E030E040E050E0C4
:102EF0000E941E26F2E1AF2EA60EA0E28A2ED6CFA9
:102F00009C012C0D311D203831054CF4C90C8B0D62
:102F1000911D803491050CF0F3C2B90C09C0A12CAD
:102F2000F6CF8C0D911D803891050CF0E9C2C90CCB
:102F3000E9E2EC1508F4EEC2F6E1AF1621F0EDE09F
:102F40002E2EA210E1C22FE064E0F62E2B1508F41D
:102F5000E1C275E0F72EDEC29C012B0D311D20343D
:102F600031055CF4B90C2B2D30E0281B390B1216FF
:102F700013060CF0C5C2B918DBCFA12CF4CF2C2D51
:102F800030E0281B390B121613066CF4C9188B0D90
:102F9000911D803491050CF0B3C2B90CA9E2AC15B7
:102FA00008F4B8C2CCCFA12CF2CF2C2D30E0281BD6
:102FB000390B121613060CF0A3C2C918EFCF2C2D33
:102FC00030E0281B390B121613065CF4C9182B2DA0
:102FD00030E0281B390B121613060CF091C2B918F9
:102FE000DDCFA12CF4CF65E56C1508F0A3C28EE00F
:102FF000A81609F475C295E1A91609F471C2AFE0EB
:1030000034E0F32EAB1508F495C296E0F92E92C287
:103010000E94B02522E030E040E050E00E941E26F1
:103020009AE0A92EA60EFAE0AF1659F08BE0282EF2
:10303000A21471F06624639460E2862E79E0A72ED4
:103040008DC266246394B0E28B2EB12CC12C86C253
:1030500066246394E0E28E2EF2E1BF2EACE7CA2E26
:103060007DC22AE0209FF001219FF00D1124E55937
:10307000FE4FDE015F9601900D922A95E1F7DC018B
:103080001296AC90129713969C9013971496CC902E
:10309000149715968C901597CC2009F473C016964A
:1030A000BC90169717967C90179719966C9077207E
:1030B00039F17A9482EE8C0D823008F07DC0282D93
:1030C00030E08A2D90E0821B930B492D50E0421B8B
:1030D000530B141615060CF051C098182EE1C212AD
:1030E00058C2181619060CF04DC0A818692D70E0CA
:1030F0002B2D48E05DE08A2D90E00E94E10F6EC02C
:10310000BBE1CB16F1F0BC1530F0EAE1CE1679F157
:1031100040E2742ECFCFFCE1CF16D1F05DE1252E39
:10312000C210F6CF80916901811104C0692D8A2DEA
:103130000E94011060E2762E73E0B72EEFE1CE2EF2
:10314000B9CF20E2722EBB24B3943DE1C32EB2CF9F
:1031500080916901811104C0692D8A2D0E9401109E
:10316000F0E27F2EA2E0BA2EBEE1CB2EA3CF80E20A
:10317000782EBB24B3949CE1C92E9CCF8038910556
:103180000CF4A80C0E94B02522E030E040E050E0B2
:103190000E941E265AE1C52EC60E5AE1C516C9F177
:1031A0006BE1C61609F43FC066246394F0E27F2EFB
:1031B000B12CA9E1CA2E12C0CC2021F333E6C312F0
:1031C00095CF692D70E02B2D40EC5EE08A2D90E0CC
:1031D0000E94E10F41E04B15A8F2B394A9A29AA274
:1031E000CBA28CA2BDA27EA268A68AE0FE017F9639
:1031F000DE01559601900D928A95E1F78AE0809F55
:10320000D001819FB00D1124A559BE4FFE017596C6
:103210008FCB6624639420E2722EB12C32E1932E80
:1032200040E2A42EDBCF66246394B0E27B2EB12C67
:1032300082E1982E90E5A92ED1CF2AE0209FF001BF
:10324000219FF00D1124E559FE4FDE011B960190E0
:103250000D922A95E1F7DC0112969C901297139635
:10326000AC9013971496BC9014971696CC90169722
:1032700017968C90BB2009F455C0882081F08A9461
:1032800088EF890D813718F010926901B12C88EF11
:103290008A0D8133A0F110926901B12C43C0B1E2D3
:1032A000BB1671F0E2E2BE16C1F0F0E2BF1205C03B
:1032B000C394222423942C14E0F040E2842EE0CF27
:1032C000C39421E02C15C8F781E080936901C12CDB
:1032D00070E2872EE2E2BE2ED3CFC39431E03C15DC
:1032E00060F781E08093690188E08093E401B12C6C
:1032F000E4CFC12C50E2852E61E2B62EC1CFBB20B7
:1033000089F043E6B41227C06A2D70E02C2D40EC02
:103310005EE0892D90E00E94E10F51E05C1508F419
:10332000BACFC3949D86AE86BF86C98A8A8A8AE050
:10333000FE013B96DE01119601900D928A95E1F710
:103340008AE0809FD001819FB00D1124A559BE4F06
:10335000FE013196EDCA61E2B61681F082E2B8163E
:1033600099F090E2B912DECF6A2D70E02C2D4EE775
:103370005EE0892D90E00E94E10FD4CF6A2D70E0CD
:103380002C2D4CEE5DE0F5CF6A2D70E020E04AE890
:103390005DE0EFCF20E042E951E162E170E080E3DF
:1033A00090E00E94E10F21E042E951E162E170E02A
:1033B00080E590E00E94E10F22E042E951E162E203
:1033C00070E080E390E00E94E10F23E042E951E1E8
:1033D00062E270E080E590E00E94E10F24E042E9C3
:1033E00051E169E170E08FE390E00E94E10F20E09D
:1033F00040E150E16BE270E090E080E00E94E70F76
:10340000209102014EE65FE060E370E088E390E027
:103410000E94E70F80916901882319F1209103012F
:103420004CE35FE066E370E08CE090E0CC52DF4F6D
:103430000FB6F894DEBF0FBECDBFDF91CF911F91C5
:103440000F91FF90EF90DF90CF90BF90AF909F9043
:103450008F907F906F905F904F903F902F900C9443
:10346000E70F20E042E25FE066E370E08CE090E08E
:103470000E94E70FEBE6F1E030E040E131170CF09D
:1034800090C0818196EF980F923010F08D30F9F452
:10349000838186958695869590E0C69680349105C1
:1034A000B4F42281269526952695205F51E081FD72
:1034B00054E080FD550F82FD5295887F489FD001D2
:1034C0001124A20FAF51BD4F8C91852B8C933F5F80
:1034D0003A96D4CFB82C20E2822E33E5C32EF2CB1D
:1034E000BFE0BB1508F091CD23E0F22E6B2D70E00C
:1034F0002F2D46E25CE08C2D90E00E94E10F2EC063
:10350000A12CE9E2EC1530F03FE053E0F52E3B153D
:1035100008F01FCD86ED8C0D8C3208F064CD4FE0A5
:10352000FF24F3944B1530F45FE1F12C5B1510F49C
:1035300042E0F42EAA2009F46BCDB3E6AB12D6CF4D
:103540006B2D70E0272D40EC5EE08C2D90E00E940A
:10355000E10FE1E0E71508F45BCD7394CDAABEAAB4
:10356000AFAA98AE79AE8AAE6CAE8AE0FE01F39651
:10357000DE01999601900D928A95E1F78AE0809F8D
:10358000D001819FB00D1124A559BE4FFE01B996FF
:10359000CFC9803891050CF0F5CDA80C8FE1C82E6D
:1035A000A5CDCC52DF4F0FB6F894DEBF0FBECDBF16
:1035B000DF91CF911F910F91FF90EF90DF90CF900F
:1035C000BF90AF909F908F907F906F905F904F9043
:1035D0003F902F900895CF92DF92EF92FF920F933A
:1035E0001F93CF93DF930E94B02522E0C22ED12CEF
:1035F000E12CF12CA70196010E941E2660934F0139
:103600000E94B025A70196010E941E26062F6093F6
:103610004E01809134079091350783709927892B4B
:1036200029F480914D018F5F80934D01D0E0C0E07F
:1036300020E046EC55E070E060E0CE010E94E10F32
:103640002896C038D105A1F720E044ED54E06BE0A6
:1036500070E090E080E00E94E10F20E04AEB53E050
:103660006BE070E08AE390E00E94E10F20E048E028
:1036700053E068E270E082E190E00E94E10F109177
:103680004D01812F6CE00E948126983008F090E077
:10369000292F46EE52E068E270E08FE090E00E9451
:1036A000E10F212F2F73203108F020E044EE51E08C
:1036B0006BE270E089E190E00E94E10FC12FD0E061
:1036C0009E012C5F3F4F2770332742ED51E06CE2A3
:1036D00070E089E190E00E94E10F212F2F702830E7
:1036E00008F020E040EB51E06EE270E080E290E014
:1036F0000E94E10F812F6DE00E948126983008F032
:1037000090E0292F46EE52E060E370E088E290E01E
:103710000E94E10F7E0182E0E80EF11CC7016AE021
:1037200070E00E94A126282F42ED51E062E370E094
:103730008AE390E00E94E10FCE01039668E170E019
:103740000E94A126883091050CF080E0282F40EBE4
:1037500051E062E370E08EE390E00E94E10F259675
:10376000CE016FE070E00E94A126883091050CF038
:1037700080E0282F42ED51E062E370E084E490E0C5
:103780000E94E10FC7016FE070E00E94A12688301F
:1037900091050CF080E0282F46EE52E06FE270E0D9
:1037A00083E590E00E94E10F212F277042ED51E068
:1037B0006EE270E089E590E00E94E10F9E012F70BB
:1037C0003327283031050CF020E040EB51E06BE26C
:1037D00070E080E690E00E94E10F812F6BE00E9494
:1037E0008126983008F090E0292F46EE52E069E2F9
:1037F00070E086E690E00E94E10F602F70E06F5D60
:103800007F4F80914F0190E003E020E04CEA50E0D0
:103810008A960E94870BDF91CF911F910F91FF90A5
:10382000EF90DF90CF9008950E94EB1A40E06EE792
:1038300077E085E290E00E944D0D8CE00E94420D01
:10384000882319F081E08093E4010895CF930E94CA
:10385000EB1A40E06DEB77E08DE090E00E944D0DBB
:1038600041E06DEB77E089E290E00E944D0D42E08F
:103870006DEB77E085E490E00E944D0D43E06DEB49
:1038800077E081E690E00E944D0DC09101018C2F00
:103890008250990B9C014BE1429FC001439F900DC8
:1038A000112440E067EB77E009960E944D0D80E41B
:1038B0000E94420D882329F0C53018F4CF5FC093D1
:1038C000010180E20E94420D882339F080910101BC
:1038D000833018F081508093010184E00E94420DF2
:1038E000882321F0809101018093E401CF91089514
:1038F000CF930E94EB1A44E06DEB77E08FE190E00C
:103900000E944D0D45E06DEB77E08BE390E00E9467
:103910004D0D46E06DEB77E087E590E00E944D0DA0
:103920008091E3012CE1829FC001112440E067EB0C
:1039300077E0C6960E944D0D80E40E94420D8111F1
:103940000E94FA0F80E20E94420D81110E94F50F41
:103950008CE00E94420D882381F0C091E30182E057
:1039600090E00E940826C81729F06C2F82E090E0B2
:103970000E94102681E08093E401CF9108951F9268
:103980000F920FB60F9211248F939F938091E100B5
:103990009091E100937F9093E10083FF0FC010921C
:1039A000E90091E09093EB001092EC0092E3909389
:1039B000ED001092030298E09093F00082FF22C085
:1039C00093E09093E9009091F200992319F09AE323
:1039D0009093E8009091F401992341F09091F401C3
:1039E00091509093F401911101C05D9A909102025F
:1039F000992341F09091020291509093020291110B
:103A000001C0289A84FF18C08091E2008E7E8160F8
:103A10008093E2008091E1008F7E8093E1008091AD
:103A2000F5018E7E80618093F5019F918F910F90BB
:103A30000FBE0F901F90189580FFF7CF8091E20086
:103A40008E7E80618093E2008091E1008E7E809383
:103A5000E1008091F5018E7E8160E5CF1F920F928B
:103A60000FB60F921124CF92DF92EF92FF920F9335
:103A70001F932F933F934F935F936F937F938F93F6
:103A80009F93AF93BF93EF93FF93CF93DF93CDB704
:103A9000DEB76C97DEBFCDBF1092E9008091E800E1
:103AA00083FF25C068E0CE0145960E94DF0E82EFBD
:103AB0008093E8008D8987FF39C09091E80090FFDE
:103AC000FCCF982F907609F034C19E894F89588D8C
:103AD0002F89F88C911131C0803861F58091F30104
:103AE0008093F1001092F1008EEF8093E8006C96C5
:103AF0000FB6F894DEBF0FBECDBFDF91CF91FF911F
:103B0000EF91BF91AF919F918F917F916F915F9155
:103B10004F913F912F911F910F91FF90EF90DF9068
:103B2000CF900F900FBE0F901F9018959EEF90931F
:103B3000E800C7CF1092F100D5CF913059F4811130
:103B4000D3CF4130510581F68091F3018D7F809371
:103B5000F301CACF933049F48111C6CF41305105EA
:103B600019F68091F3018260F2CF953041F4809193
:103B7000E80080FFFCCF20682093E300B5CF9630AB
:103B800009F0A9C00B8D1C8D22E01092E900109263
:103B9000F1011092F001F2122EC01092EF0110927A
:103BA000EE010E94AE0E1F8299E09983FA8291E0A5
:103BB0009E8390EA98879AEF99872091F00130913F
:103BC000F101275F3F4F3C832B838D831092E900E7
:103BD0001092F1011092F0011093EF010093EE01A9
:103BE00049E050E0BE016F5F7F4F80E00E94880E89
:103BF0000E94AE0E79CF1093EF010093EE010E9468
:103C0000920DDC0112960D911C910115110509F41C
:103C100051C1D801ED91FC910480F581E02DBE01E8
:103C20006B5E7F4FC8010995009709F03EC1F8010E
:103C300000851185EACFF3E0FF120EC08F8988233B
:103C400009F440C0823061F440E867E083E396E124
:103C50000E94550E811148CF81E28093EB0047CF3F
:103C6000813029F440E86BE087E296E1F1CF8330C0
:103C700099F70E94920DDC011296ED90FC908E0156
:103C80000F5F1F4F6801E114F10479F0D701ED9146
:103C9000FC910680F781E02DB801C7010995080F56
:103CA000111DF701E084F184EECFD8011C92F601DA
:103CB00001900020E9F73197BF016C197D0940E0C0
:103CC000C601C6CF61E176E1FB01449150E080E896
:103CD0000E94880E09CF973009F4BECF983021F4A6
:103CE00081E08093F10000CF993009F0FDCE837020
:103CF00009F0B2CFE6E1F1E081E031E096E3219115
:103D0000222371F08093E9003093EB00DF011197DB
:103D10002C912093EC009093ED008F5F873079F722
:103D20008EE78093EA001092EA008F898093030265
:103D3000DBCE8B8D9C8D1092E9001092F1011092D8
:103D4000F0019093EF018093EE01898D811192C073
:103D50008E899D89913A49F4813209F07DCF47E0FF
:103D600050E068E071E080E0B3CF913209F074CFA9
:103D7000833269F48F89988DB0E0A0E080930401CC
:103D800090930501A0930601B0930701ADCE803258
:103D900069F48091E80082FFFCCF67E088E091E061
:103DA0000E94DF0E8BEF8093E8009ECE823209F0F6
:103DB0009BCE8F8980930F01EEEFFFE78591949161
:103DC0008B3F9C4D51F1E0E0F8E08091080190912B
:103DD0000901A0910A01B0910B01803B9440A1051B
:103DE000B105F1F480910F0180FD1AC0EE3F8AE029
:103DF000F80789F587E797E79183808380916000D2
:103E00008093F20188E19BE00FB6F894A895809327
:103E100060000FBE9093600067CEEEEFFAE0D5CF62
:103E2000808191818737974709F05ECEA895809170
:103E300060008861809360008091F201809360004F
:103E4000EE3F2AE0F20789F08091FE0A9091FF0A86
:103E50009183808349CE808191818737980751F281
:103E60009093FF0A8093FE0AC5CF1092FF0A10922A
:103E7000FE0A3ACE0E94920DDC0112960D911C9121
:103E80000115110509F4E8CED801ED91FC910190DE
:103E9000F081E02DBE016B5E7F4FC8010995811155
:103EA00023CEF80100851185EBCF181619060CF406
:103EB0001BCED2CEF1E0FF12BECE65E176E104CF9B
:103EC0001F920F920FB60F9211242F933F938F934F
:103ED0009F93AF93BF938091E6019091E701A091EA
:103EE000E801B091E9013091E50123E0230F2D377E
:103EF00058F50196A11DB11D2093E5018093E601BF
:103F00009093E701A093E801B093E9018091EA0161
:103F10009091EB01A091EC01B091ED010196A11DF2
:103F2000B11D8093EA019093EB01A093EC01B09353
:103F3000ED01BF91AF919F918F913F912F910F9084
:103F40000FBE0F901F90189526E8230F0296A11D13
:103F5000B11DD2CF2F923F924F925F926F927F927C
:103F60008F929F92AF92BF92CF92DF92EF92FF9289
:103F70000F931F93CF93DF9335E3C32E31E0D32EFE
:103F8000C9E0D2E010E000E05524539446E3242E2B
:103F900059E0852E5DE3952E66246A94762CEEA575
:103FA000EE23B9F08FA59E2F9370891708F4FAC0FD
:103FB000F0E0F595E795F595E795EE0FFF1FE05DCD
:103FC000FA4E85919491D60112969C938E931197F7
:103FD0001FA69CA99923F9F08DA9292F2F77022ECE
:103FE000000C330B821713060CF4E6C08A8197FF8E
:103FF000DCC081508A838A818111D9C081E08A83A3
:10400000EA81F0E0EE0FFF1FE05DFA4E859194919A
:104010009EA38DA31DAA58A5552321F13AA529A534
:10402000311119C0422F407426FFC9C08DA19EA135
:10403000850F911D57FD9A9527FDCDC097FDC9C0ED
:10404000442309F4BFC0863BB4E29B0714F085EB20
:1040500094E29EA38DA381E0830F8AA72F7332176A
:1040600008F01AA69BA5992371F0EA81EE2359F076
:104070008DA52CA5422F4F71382F3F71341708F0B2
:10408000ADC08F5F8DA749A9442311F13AA9632FD1
:10409000607436FFCFC08DA19EA12BA950E027FFF1
:1040A000CCC0840F951F97FDD2C0662309F4C8C009
:1040B000863BE4E29E0714F085EB94E29EA38DA379
:1040C0003F71822F8F71831708F0C6C02F5F2BAB13
:1040D00089A19AA1009709F4C6C08F3F980719F0EB
:1040E00001979AA389A320911001822F90E0002EBE
:1040F00002C0959587950A94E2F780FD0AC00330C7
:1041000009F096C28091D20290E0959587958093B0
:104110004401207F51F58091290290915F02890F1F
:1041200090919502890F9091CB02890F09F48AC270
:1041300081EEA82E82E0B82E99E0E92E92E0F92EC9
:10414000F70180A10E94CF0FD70111969C938E9307
:1041500092961C921E929197B6E3EB0EF11CAE1450
:10416000BF0471F780EF809310010F5F1F4FE69639
:10417000B5E0CB0ED11C0430110509F010CFDF9152
:10418000CF911F910F91FF90EF90DF90CF90BF9054
:10419000AF909F908F907F906F905F904F903F90E7
:1041A0002F9008958F5F8FA714CF8F5F23CF803418
:1041B00008F426CF8FE323CF8F5F8DAB2CCF8FA159
:1041C00090E036CF8034910514F08FE390E08FA318
:1041D00042CF90E080E04423D1F33BCF807EF1F4E6
:1041E00080E28DA78DA5807E51F09F3F09F1292F98
:1041F00022952F70E20F803411F49F70E90F88A987
:10420000F0E0E80FF11D87FDFA95EE0FFF1FE05D6E
:10421000FA4E859194919EA38DA335CF803231F4CF
:1042200026FD04C09F3F11F080E4DBCF1DA6DACF4E
:10423000E0E0E1CF8FA190E030CF841B950B33CF2E
:104240008034910514F08FE390E08FA339CF90E094
:1042500080E0611133CFF9CF27FF02C01BAA38CF0E
:1042600080E88BAB35CFC8010496452C01C0440CC7
:104270008A95EAF72BE1209F5001219FB00C112471
:10428000209EC001219E900D1124DC01A75FBD4F2F
:104290007D0133243A9488819981BC016F5F7F4FFF
:1042A00079836883FC0144914034E8F44A834423D1
:1042B00019F088A9480F4A83EA81F0E0EE0FFF1F4A
:1042C000E05DFA4E859194919EA38DA389A58111FD
:1042D00002C08FA58FA38CA585FD1DA689A19AA1DB
:1042E0000097C9F2FACE403A08F007C1A42FA054B3
:1042F000BB0BAC30B10509F4BEC00CF04BC0A5300F
:10430000B10509F4A1C0ECF4A230B10509F49CC0D8
:104310008CF4109709F490C0119701F702969983D5
:104320008883FB01649168A780E0413409F080E450
:1043300089A7D4CFA330B10509F493C0149771F3C2
:10434000CDCFA830B10509F462C0A4F4A630B10500
:1043500009F487C0179709F0C1CFFB0164916BA7DF
:104360009C012D5F3F4F39832883FC013296E491F5
:10437000ECA7B4CFAA30B10509F47BC002961B9715
:104380000CF471C099838883FB01849168A9680F3C
:1043900068ABA4CFA331B10509F477C064F5AF30A1
:1043A000B10509F470C0DCF4AD30B10509F469C0A1
:1043B0001E9709F093CFFB012591349129AB9C0105
:1043C0002D5F3F4F39832883FC013296259134912C
:1043D00080E04E3409F080E4820F8AAB7FCFA131B8
:1043E000B10509F450C03CF3029699838883FB0120
:1043F00064916CAB73CFAC35B10509F450C04CF48B
:10440000A431B10509F443C0559709F067CF1BA645
:1044100065CFAE35B10509F45BC00CF453C0AF35C0
:10442000B10509F05BCF80911001842580931001C4
:104430001FA27AA269A252CF029699838883FB01B8
:1044400064916FA36FA74ACFFB01649168A79C0199
:104450002D5F3F4F39832883FC013296E491E9A711
:104460003DCF18A63BCF99838883FB0164916EA74B
:1044700035CF1EA633CF029699838883FB016491C2
:1044800087CF18AA2BCF19AA29CF1CAA27CF3BA6C2
:10449000029699838883FB0164916CA71FCF0296D3
:1044A00099838883FB016491E09108026E0F609309
:1044B000080270E0C4010E94A12670934A01609333
:1044C00049010CCF029699838883FB016491EFCF59
:1044D000A9E0B2E021E030E0FC01E20FF31FE4913B
:1044E0009096EC9390972F5F3F4FD69625303105ED
:1044F00099F7059699838883F1CE403E28F44F5969
:10450000550B5AA349A3EACE403EA9F4DE0190E040
:1045100080E09695982F882797958795ED91FD9146
:10452000E4912E2F2F77822BE7FDF3CF8F5B9F4FE8
:104530009AA389A3D3CE4C3F08F4D0CE24E0240F15
:10454000223008F039C04C3FA9F102969983888344
:10455000FB016491E881F9819F012F5F3F4F39830F
:104560002883E4915CA15E1701F14F8D842F90E0C8
:104570007BA1D701A80FB91F51967C9351975896EC
:104580005C93D501A80FB91FAA0FBB1FA75FBD4F32
:104590008091040290910502281B390B14963C93DC
:1045A0002E9313974F5F4F8FECA36BA38CA10E94A8
:1045B000CF0FA0CF60E0CECFDE0190E080E04E3F95
:1045C00029F58BA181111FC0EF8DEE2379F3E15006
:1045D000EF8FF0E0D501AE0FBF1FAA0FBB1FA75F83
:1045E000BD4F809104029091050213962D913C914C
:1045F000820F931F99838883EE0DFF1D81898BA302
:10460000808D8CA36BCE81508BA3D0CF9695982FA5
:10461000882797958795ED91FD91E4913E2F3F77FF
:10462000832BE7FDF3CF680F791F7983688356CE1C
:104630008DA19EA1D60112969C938E9311978FA166
:104640008C9367CDE9E0F2E088EDDF011D928A9559
:10465000E9F71092720089CD2F922FB62F932091F7
:10466000340120952093340109F08BC0BF93AF93A0
:104670000F921F922091400100904201020E009281
:1046800042012091410110904301121E10924301FA
:10469000B12DB7FDB095BB0FA0913F01B058BA0244
:1046A000110CA12D2091360100903801020E0092CC
:1046B00038012091370110903901121E10923901F2
:1046C000212D220F2121B091350127FDB195AB0F8E
:1046D00020913B0100903D01020E00923D0120918E
:1046E0003C0110903E01121E10923E01B0913A0121
:1046F00017FCB195AB0FB1E0009045011090460159
:10470000000C111C17FC0B2616FC0B260092450111
:1047100010924601B091440117FCB195AB0FB091D6
:104720000001AB0FA093CF00B0914C01A0914B01C1
:10473000119729F0B0934C01A0934B011EC0B0918A
:104740004A01A0914901B0934C01A0934B01789488
:104750003F934F935F936F937F938F939F93EF93C9
:10476000FF9311240E94AA1FFF91EF919F918F91B7
:104770007F916F915F914F913F911F900F90AF91FB
:10478000BF912F912FBE2F901895E1EEF6E0138286
:10479000128288EE93E0A0E0B0E084839583A68344
:1047A000B78380E291E0918380838FEF9FEF9587BD
:1047B0008487E1E3F7E082E391E0918380831582CF
:1047C000168280E18783148213821186089578947B
:1047D00084B5826084BD84B5816084BD85B5826006
:1047E00085BD85B5816085BD80916E0081608093B7
:1047F0006E00109281008091810082608093810020
:10480000809181008160809381008091800081602F
:1048100080938000809191008260809391008091CC
:1048200091008160809391008091900081608093DD
:1048300090008091C10084608093C1008091C1008C
:1048400082608093C1008091C10081608093C1002B
:104850008091C30081608093C3008091C00082601A
:104860008093C0008091C20081608093C2008091DB
:104870007A00846080937A0080917A0082608093CD
:104880007A0080917A00816080937A0080917A002A
:10489000806880937A00109203021092F3011092C4
:1048A000F5018091D70081608093D70080EA8093E2
:1048B000D80089B5806189BD89B5826089BD09B498
:1048C00000FEFDCF61E070E080E090E00E94110FFB
:1048D0008091D8008F7C80618093D8008091E00027
:1048E000807F8093E0008091E1008E7E8093E100E4
:1048F0008DE08093E200559A209A81EC80937C00B1
:1049000085B1806F85B984B1877E84B984B1876EA3
:1049100084B95E9A5F988AB1806D8AB9769A6E98EA
:1049200081B3806F81BB899880B38D7080BB80E537
:104930008CBD81E08DBD0E94440F5F9A0E94440FA0
:104940005E985C98E0EBF5E18DEB95E124912EBD4E
:1049500000000DB407FEFDCF31968E179F07B1F70B
:104960005C9A81E880936400809165008160809307
:10497000650082E090E00E940826882309F45DC06B
:104980000E94FA0F81E280933807809164008E7F45
:104990008093640080917A00806480937A00809193
:1049A0007A0086FDFCCFC0917800D09179000E94FA
:1049B000EC0EAB01BC01CE01B0E0A0E0DC01992718
:1049C00088278C019D01040F151F261F371FC90161
:1049D000B801209164002160209364006115710585
:1049E0008105910511F00E94FF250E947310EE24AD
:1049F000E394C1EED2E000E010E0DD24D3948FB761
:104A0000F8944091E6015091E7016091E8017091BE
:104A1000E9018FBF80913907242F281B822FF09046
:104A20003A07FF2069F020933B0710923A070115DF
:104A3000110529F30E940000E2CF0E94F50FA2CFDA
:104A400090913807291738F48F5F891780F7E3BEF4
:104A5000889513BEECCFD0923A07409339078091E6
:104A6000340790913507019690933507809334076A
:104A700080913607809337070E94ED0F80933607A9
:104A80008F2DFE0181118FEF0024819381938193FB
:104A900081930394D1F7E091E401F0E0EE0FFF1F62
:104AA000E354FA4E85919491FC010995FE0180E052
:104AB00098E000800EBCF110012C019780FDFDCF25
:104AC0000192B9F70DB4B3CF8F929F92AF92BF927C
:104AD000CF92DF92EF92FF92CF93DF93EC01688148
:104AE00079818A819B81611571058105910521F488
:104AF00064E279ED8BE597E02DE133EF41E050E0A2
:104B00000E941E2649015A019B01AC01A7EAB1E4AB
:104B10000E943D266B017C01ACEEB4EFA50194012F
:104B20000E944B26C60ED71EE81EF91EF7FE06C0D1
:104B300081E0C81AD108E10880E8F80AC882D98261
:104B4000EA82FB82C701B6019F77DF91CF91FF9088
:104B5000EF90DF90CF90BF90AF909F908F9008958F
:104B60008F929F92AF92BF92CF92DF92EF92FF927D
:104B700060911101709112018091130190911401C3
:104B8000611571058105910521F464E279ED8BE5EC
:104B900097E02DE133EF41E050E00E941E264901ED
:104BA0005A019B01AC01A7EAB1E40E943D266B01CA
:104BB0007C01ACEEB4EFA50194010E944B26C60E19
:104BC000D71EE81EF91EF7FE06C081E0C81AD108FC
:104BD000E10880E8F80AC0921101D0921201E09237
:104BE0001301F0921401C701B6019F77FF90EF9077
:104BF000DF90CF90BF90AF909F908F90089560937B
:104C00001101709312018093130190931401089580
:104C1000F999FECF92BD81BDF89A992780B5089584
:104C2000262FF999FECF1FBA92BD81BD20BD0FB6C8
:104C3000F894FA9AF99A0FBE01960895052E97FBFB
:104C40001EF400940E94352657FD07D00E9450267E
:104C500007FC03D04EF40C943526509540953095C2
:104C600021953F4F4F4F5F4F0895909580957095D8
:104C700061957F4F8F4F9F4F08950E947226A59F89
:104C8000900DB49F900DA49F800D911D1124089547
:104C9000B7FF0C943D260E943D26821B930B08957E
:104CA000A1E21A2EAA1BBB1BFD010DC0AA1FBB1F30
:104CB000EE1FFF1FA217B307E407F50720F0A21BA2
:104CC000B30BE40BF50B661F771F881F991F1A940F
:104CD00069F760957095809590959B01AC01BD0139
:104CE000CF010895A29FB001B39FC001A39F700D93
:104CF000811D1124911DB29F700D811D1124911DE4
:104D00000895991B79E004C0991F961708F0961B27
:104D1000881F7A95C9F780950895AA1BBB1B51E19E
:104D200007C0AA1FBB1FA617B70710F0A61BB70B1B
:104D3000881F991F5A95A9F780959095BC01CD01C0
:104D4000089597FB072E16F4009407D077FD09D03D
:104D50000E948D2607FC05D03EF4909581959F4FCB
:104D60000895709561957F4F0895EE0FFF1F059090
:0A4D7000F491E02D0994F894FFCFB0
:104D7A0080030101FFFFFFFF00E1000000000000C7
:104D8A00F00100000000C180810000000000000066
:104D9A00A60D4A0FC70DBC0D0D0ECB0DE90D000077
:044DAA0000000010F5
:00000001FF
