:100000000C9424040C944C040C944C040C944C0458
:100010000C944C040C944C040C944C040C944C0420
:100020000C944C040C944C040C946C0C0C94DB0C51
:100030000C944C040C944C040C944C040C944C0400
:100040000C944C040C944C040C944C040C944C04F0
:100050000C944C040C944C040C944C040C94220C02
:100060000C944C040C944C040C944C040C944C04D0
:100070000C944C040C944C040C944C040C944C04C0
:100080000C940D0F0C944C040C944C040C944C04E4
:100090000C944C040C944C040C944C040C944C04A0
:1000A0000C944C040C944C040C944C042C081F1F0E
:1000B0001F1F1F0707071F1F1F011C14151D011FEE
:1000C0001F03070F1F1F1E001C14151D011F1F1EDD
:1000D0001E1F1F1F1F011D14141C202840404040DC
:1000E00040404000FFFFFFFF833BFB9396F6E6ECAA
:1000F000ECECECCC0C6CECECECEC2C2CFEF2F2FE10
:10010000028822007FFFFFFFFFFCE10D7D4D4D7D4A
:100110007D7D7DFDFDFCFFFFFFFFFFFFFFFFFFFF7C
:10012000FEF8E28820831FFF8F838080808080001C
:1001300080E0F8E0830F3FFFFF7F7FFF4F49494F8B
:100140004F4FCFCF6E2862C8C24842480208031EF4
:10015000FFFFFFFFFFFE380803020203000000005C
:100160000E1B3166C680D060311B0E00E0A3E30099
:10017000013F3F3F3330303030181878EC8C38F086
:100180001858D8D8D8D8D8D8D8D8D8D8D8D8D8D82F
:10019000D8D89838F0E000000080C0E07F7F7C6114
:1001A0000000E007FFFFFFFFFFFFFFF7F7F7F7F79C
:1001B000F7F7C70600FFE0781EC7F1FCFEF8E08005
:1001C00038FFFFFEE00FFF3F3FFFFFFFFFFDFDFD9C
:1001D000FD7D7D7C7973610C7F7F7F7F030101C191
:1001E000701F073FFF80818181818180C0C0C0C0B6
:1001F000C0C0C0E0606666607F404040F8FC6701B8
:1002000000030300010101F1F9FDFDFD3D3C3CFC53
:10021000FCF8F00000FCFCFCFCFC1C1C7030B098EE
:10022000D8D8D8D8D8D8D8D8D8D898B8307060C04E
:10023000800000C0F03898D8D8D89830FEFFFF7FF3
:100240001F070301010181E3FFFFFFFFE7E7FE381E
:10025000033F8FE3F8FEFFFFFFFFFFFF7F1F07074E
:10026000070707C7FFFF7F7FFFFFFF3F0F0300E088
:10027000F8FEFFFFFFFF3F0F071F7FFF40707C7CF2
:10028000FC808383838382828383808080E038F84C
:10029000E080808080828EB8E08080E13CFCFCF8C9
:1002A000710101E1F9FDFD3D1D1D9DBDBCBCB88086
:1002B00001010101010767610131797960C0603096
:1002C00098CCE673393D65E5FD01FF9E1C38F0E0F2
:1002D000C00040404040404040404040FEFCFEFFE7
:1002E000FFFFFFFEFCE4E6FF3F80FFFFFFFFFFFF95
:1002F000FFFF008822882200FEF2F2FEFFFF7F3F10
:100300001FFFFFFFFFFFFF7F00FFFFFFFFFFFFFF5C
:10031000FF0120882208E0FFFFFFFFFFC18080C0AF
:10032000E0C3C387840C0F003F7FFFFFFFFFFFFF89
:100330000F00024842484F4F4F49494F3F0F0F0FA0
:1003400007E3A7E707070F0E0E1C1C191B1F1F1F33
:1003500000060670507000000000000014087F4185
:100360007777417F4155555D7F415F5F7F4175756F
:10037000717F7F417575717F415F5F7F4175754109
:100380007F717747717F7F5D415D7F417B77417FE3
:100390004175757D7F415D5D417F7F415D5D5D7F25
:1003A000415D5D417F417B77417F4175757F7F5125
:1003B0005555457F4175757D7F497777497F0000A9
:1003C00000007F415D5D417F4175757D7F417575A1
:1003D0007D7F000000007F415D5D417F417B774173
:1003E0007F00000000000000000060180000000016
:1003F00000000000000000000000000000000000FD
:10040000000000007F415D55577F416D6D517F4178
:1004100055555D7F416D6D417F057D417D057F4176
:1004200055555D7F415D5D633E007F415D55497F70
:10043000117747711F00000000000000000000005D
:1004400000000000000000000000000000000000AC
:1004500000007F416D6D417F007F4175151D7F411B
:100460007F515555457F417777417F007F415D55ED
:10047000577F416D6D417F415F50507F415F5050CC
:100480007F4155555D7F415D5D633E007F415F6803
:100490005F417F416D6D417F417B77417F415D5D74
:1004A000637F416D6D417F0000000000007F416D62
:1004B0006D417F417B77417F415D5D633E007F41C0
:1004C0007D137D417F416D6D417F417B77417F1180
:1004D0007747711F007F417D137D417F416D6D41E5
:1004E0007F417B77417F117747711F007F415D5DC1
:1004F000417F057D417D057F417777417F4155559E
:100500005D7F416D6D517F515555457F4828007085
:100510007070F0F0F0007070701000008000C0E0AB
:10052000F0F0F0E00804E4F2F2F2C2820101F1F12D
:10053000F10107F0F1F10181E1F2F2321202F4F47B
:10054000F0707070707060400070707070F0E0C09B
:1005500080000000000000000000FFFFFF0080603E
:100560001884E2F17C3F3F3F39FBFBFB0000FF3F7B
:10057000DF21171726D02FDF9F40405F5F5F404786
:100580009F3FFCF0C080FFFFFFE0EEEEEEE2602058
:1005900000FFFFFFF8E0E3E7FFFEFC700000040C43
:1005A0000C2C2C2C2C2C2DACACACAC2C2C2C2C2CAA
:1005B0002C2C2C2C2C2C2C2C89C244042209080D08
:1005C00013179489D3DFDFDECC432EACB090A42C7C
:1005D0006CEC4C8C2C2C2C2C2C2C2C2C2CAD2C2C5A
:1005E0002C2C2C0C0C04000000000000000000016A
:1005F00006081020408080008040000014565745B7
:100600000090A02000200014353535353505015106
:100610005456570757073319400608428000008098
:100620004020110D03010000000000000000000048
:1006300000000000000000000000000000000001B9
:1006400000020404040808081010101010202020D4
:1006500020203C0020202020111111111009080831
:100660000404040202010000000000000C000C0061
:1006700004000C00040008080010D6BABAD66C00BA
:100680003074C8B6B64C38003C64583E58643C00E0
:100690001C265B5B643A180000366B5D5D6B0800DE
:1006A0001C326D6D132E0C003C261A7C1A263C0061
:1006B0000C2E136D6D321C00080800000018180085
:1006C000000000000000000000000000000000002A
:1006D000000001010101010101010101010101010C
:1006E0000101010000000000000101000000000005
:1006F00000010100000101000000000000010100F4
:1007000000010100000001000000000000010000E5
:1007100000010100000101000000000000010100D3
:1007200000010100000000000001010000000000C5
:1007300000010101010101010101010101010101AA
:10074000010108087E81BDB9B1A5817E080B0002B8
:10075000020200000904000001020200000524005A
:1007600010010524010101042402060524060001EC
:100770000705810310004009040100020A0000007F
:100780000705020240000007058302400000040341
:10079000090412010002EF020140412336800001EA
:1007A0000102030141726475696E6F204C4C430075
:1007B00041726475626F7900260AD609CD09100965
:1007C000BB09EB0B07095E0AFE08FD0800000000EC
:1007D000240027002A002D00300000000000250022
:1007E00028002B002E003100040404040403040537
:1007F00002020202040302020202060606060606BE
:1008000004040202020404040802011040804010A3
:100810002040804080080204018040201002011026
:100820008010204040200000000200090F0000035B
:100830000401000C000000000000000000000000A7
:10084000000000000000600F11241FBECFEFDAE0AF
:10085000DEBFCDBF11E0A0E0B1E0ECEDF6E202C0FA
:1008600005900D92A234B107D9F725E0A2E4B1E0DA
:1008700001C01D92AC3FB207E1F714E0C4E2D4E03E
:1008800004C02197FE010E946613C332D107C9F745
:100890000E949D0F0C946C130C940000CF93DF9377
:1008A000A2EFB5E0CD91DC9111978881E8EFF5E0FA
:1008B0009081892B8883CD91DC91119788819081DB
:1008C000892B8883C091F405D091F505988180919A
:1008D000F9058095892388830D90BC91A02D9C916A
:1008E0008081809589238C93DF91CF9108954FB1BA
:1008F0008CB123B190E08095909533E095958795E4
:100900003A95E1F7887030E0209530953595279538
:10091000359527952470822B942F9095907F892B65
:100920000895CF93C82F0E9477048091FB058C23F4
:1009300029F48091FA05C82381E009F480E0CF9181
:100940000895BF92CF92DF92EF92FF920F931F9381
:10095000CF93DF93DC01FA01D4903196E4914E5F9E
:100960005F4F2223D1F0C1E0D0E09E2F977011F4A9
:10097000D0E0C0E08E2F8695869586958C0F9D2FB2
:10098000911DD89EE001D99ED00D11242C9FC0014D
:100990002D9F900D1124480F591F0D2D0D2C000C6B
:1009A000110B7D01E00EF11E1E141F040CF0B7C0E8
:1009B000A038B1050CF0B3C0CB018E0F911DE7FD3F
:1009C0009A95181619060CF0AAC0603471050CF03F
:1009D000A6C04115510509F4A2C09B0177FF04C0D0
:1009E00022273327261B370B2770CB0177FD07966D
:1009F00033E0959587953A95E1F7F82F77FF07C093
:100A0000222329F0FFEFF80F88E0821B282FCC2744
:100A1000DD27CA1BDB0BB7FD02C0D0E0C0E0BD2C58
:100A2000BC1A30E8E316F10424F030E83A1BB32E88
:100A3000BC1AEF2E0F2E000CFF086E2D6095FF3FA5
:100A40000CF060E09E2F977897FF03C09150986F4D
:100A50009F5F81E019160CF080E0E7FDE95FE59506
:100A6000E595E595E80FEE0EF11C39E0E316F1048B
:100A700014F0E8E0EF1BFF2EF60E7F2D30E8730335
:100A8000C00111248A0F9B1F8C0F9D1FA22F022EC5
:100A9000000CBB0B005811093D2D3603B001112489
:100AA0006C0F7D1F460F571F481B590BEF2EEE0E84
:100AB000FE14A9F1BC01E62FE81BEB1550F5FA0175
:100AC000E60FF71FE491F0E00A2E02C0EE0FFF1FC1
:100AD0000A94E2F7F7FC09C0C091D901D091DA017C
:100AE000C60FD71FD880DE2AD882222379F036E0BD
:100AF0003F1564F0C090D901D090DA01EB01C058E5
:100B0000DF4FCC0DDD1DE881EF2BE8836F5F7F4F5A
:100B1000D2CFF39480589F4F400F511FC9CFDF9120
:100B2000CF911F910F91FF90EF90DF90CF90BF90EA
:100B30000895FC0180918401882311F13FB7F89456
:100B400082E08093E9002091F200822F90E0181655
:100B5000190614F481E090E0882339F0289844E6DF
:100B6000409383014091F1004083222339F020918A
:100B7000F200211103C02BE62093E8003FBF089547
:100B80008FEF9FEF08952FB7F89483E08093E900EB
:100B90009091E800892F807295FF04C09091F20037
:100BA00080E4891B2FBF089580917B0181110DC0C6
:100BB00082E08093770184E08093780110927A013B
:100BC0001092790181E080937B0187E791E008959D
:100BD000282F30E0F901EA5DF74F9491F901E95FC0
:100BE000F74F84912851384FF9012491222309F4B9
:100BF00030C09923E9F091509F30D0F4E92FF0E014
:100C0000EC5FF94F0C9466133206360613062A067B
:100C10002E0618061806180639063F06430647062C
:100C20004D0618065106909180009F7790938000A2
:100C3000E22FF0E0EE0FFF1FE652F84FA591B491BE
:100C40009FB7F894EC91611132C080958E238C93FC
:100C50009FBF0895909180009F7DE8CF9091800084
:100C6000977FE4CF94B59F7794BDE2CF94B59F7DF5
:100C7000FBCF909190009F7790939000D9CF909167
:100C800090009F7DF9CF90919000977FF5CF909144
:100C9000C0009F779093C000CBCF9091C0009F7D04
:100CA000F9CF9091C200977F9093C200C1CF8E2B55
:100CB000CECFCF93DF9390E0FC01E95FF74F249113
:100CC0008851984FFC0184918823C9F090E0880FE7
:100CD000991FFC01E453F84FA591B491FC01E65231
:100CE000F84FC591D49161110DC09FB7F8948C91C4
:100CF000209582238C938881282328839FBFDF91AE
:100D0000CF910895623051F49FB7F8943C91822FAF
:100D1000809583238C93E8812E2BEFCF8FB7F894A7
:100D2000EC912E2B2C938FBFEACF3FB7F894809194
:100D3000730190917401A0917501B091760126B56F
:100D4000A89B05C02F3F19F00196A11DB11D3FBF03
:100D5000BA2FA92F982F8827BC01CD01620F711DD2
:100D6000811D911D42E0660F771F881F991F4A95CC
:100D7000D1F708958F929F92AF92BF92CF92DF9258
:100D8000EF92FF924B015C010E9495066B017C0182
:100D90000E9495066C197D098E099F09683E734073
:100DA00081059105A8F321E0821A9108A108B108F4
:100DB00088EEC80E83E0D81EE11CF11C811491045A
:100DC000A104B10429F7FF90EF90DF90CF90BF907E
:100DD000AF909F908F90089580937C0080E28093E5
:100DE0007B0062E070E080E090E00E94BA068091B3
:100DF0007A00806480937A0080917A0086FDFCCF2F
:100E00008091780090917900089540916601509109
:100E10006701209164013091650142175307B4F4D2
:100E20009091E8009570E1F39091E80092FD19C06F
:100E30008093F100809166019091670101968F7314
:100E40009927892B19F48EEF8093E8008091660131
:100E5000909167010196909367018093660181E00C
:100E6000089580E00895EF92FF920F931F93CF9320
:100E7000DF93F82E192FE62E042F81E0860F880FBE
:100E80000E94050783E00E940507CF2DD12FEC0EAD
:100E9000FD2EF11CCE15DF05B9F007FF13C0FE01D2
:100EA00084910E940507182F80E00E940507812386
:100EB00021968111EFCFDF91CF911F910F91FF907C
:100EC000EF9008958881EDCF81E0F5CFDF92EF922A
:100ED000FF920F931F93CF93DF93D82E8A01EB01DC
:100EE0007B01E40EF51ECE15DF0559F0D7FE12C0CA
:100EF000FE0184910E94050721968111F4CF0FEF26
:100F00001FEFC801DF91CF911F910F91FF90EF90DC
:100F1000DF9008958881EECF0F931F93CF93DF93D7
:100F20001F92CDB7DEB782E0898342E450E06CE4E3
:100F300077E080E80E9466070E94D405DC011296E3
:100F40000D911C910115110589F0D801ED91FC91CD
:100F50000280F381E02DBE016F5F7F4FC8010995CC
:100F600097FD04C0F80100851185ECCF89810F90B1
:100F7000DF91CF911F910F910895615030F0209132
:100F8000F100FC0120830196F8CF289884E6809335
:100F900083010895AF92BF92CF92DF92EF92FF92BA
:100FA0000F931F93CF93DF936C017B018B01040F91
:100FB000151FEB015E01AE18BF08C017D10759F02D
:100FC0006991D601ED91FC910190F081E02DC6016F
:100FD0000995892B79F7C501DF91CF911F910F9169
:100FE000FF90EF90DF90CF90BF90AF9008958F92D9
:100FF0009F92AF92BF92CF92DF92EF92FF920F93A8
:101000001F93CF93DF936C017B018A0180911801BC
:10101000882309F45CC080918401882309F457C0B7
:1010200080916A0180FF05C08091E000826080931A
:10103000E000E801B12C8AEFA82E93E0892E2AE384
:10104000922E209711F4BB20D9F10E94C305811183
:101050000AC0AA94AA20D9F161E070E080E090E093
:101060000E94BA06EECF8C171D0611F00CF08C2FE3
:101070009FB7F8948092E9002091E80025FD02C016
:101080009FBFDFCF282F30E0C21BD30BF701815069
:1010900020F041914093F100FACFE20EF31EBB2005
:1010A00021F09092E800B12CEBCF8091E80085FD13
:1010B000E7CF9092E800BB24B394209709F3F3CFD5
:1010C0005D9884E680936901101611063CF081E07A
:1010D00090E0F6019383828310E000E0C801DF9185
:1010E000CF911F910F91FF90EF90DF90CF90BF9025
:1010F000AF909F908F900895CF93DF931F92CDB7BD
:10110000DEB76983DC01ED91FC910280F381E02D73
:1011100041E050E0BE016F5F7F4F09950F90DF9176
:10112000CF91089583E08093E9008091F2008823B5
:1011300019F08AE38093E80008950E94C30590E0C7
:101140000895CF93DF931F92CDB7DEB7FC0184855E
:10115000958597FD08C02FEF3FEF358724870F90C7
:10116000DF91CF910895CE0101960E9499050197D4
:1011700019F4898190E0F3CF8FEF9FEFF0CF0F93B9
:101180001F93CF93DF931F92CDB7DEB78C01FC0185
:101190008485958597FF0BC0CE0101960E94990525
:1011A000019771F4898190E0F80195878487F801AF
:1011B000848595850F90DF91CF911F910F910895B0
:1011C0008FEF9FEFF1CFFC018485958597FD0BC0D4
:1011D0009FB7F89482E08093E9008091F2009FBF6E
:1011E00090E0019608959FB7F89482E08093E9001B
:1011F0008091F2009FBF90E00895089588E00E94DA
:101200009104882319F087E080936D0108958091FF
:1012100057018F5F8093570187E080936D01089598
:1012200086E080936D018FEF9FEF90939401809300
:10123000930160E087E891E00E947C086FEF87E807
:1012400091E00C947C0867FD695F659565956595EF
:1012500068308CF490E16902F001112487FD895F08
:10126000859585958595E80FF11D87FDFA95EE53D7
:10127000F94F8491089580E00895CF93C82F862F69
:10128000642F8093860140938501C830A8F4EC2F29
:101290000C2E000CFF0BE15BF64F0C946613A009BB
:1012A000AA0957095E0972097E098A0994096150E1
:1012B0000E942309882369F0C0E011C06150885F53
:1012C0000E9423098111F8CF809186018F5F80935E
:1012D000860180918501815080938501C1E08C2F2A
:1012E000CF9108956C5F885F0E9423098111E4CF3C
:1012F000809186018F5F80938601F0CF685F885F61
:101300000E9423098111D8CF809185018F5F80933E
:101310008501EECF685F8C5F0E9423098111CCCFDD
:10132000809185018F5FD8CF685F81500E9423092B
:101330008111C2CF80918601815080938601F0CFC8
:101340006C5F81500E9423098111B6CF8091860184
:101350008150D1CF615081500E9423098111ACCFBF
:101360008091860181508093860180918501815012
:1013700080938501B4CF20E04AEE53E064E270E050
:1013800080E190E00E94A1048CE00E9491048823F7
:1013900019F081E080936D0108958CE00E94910422
:1013A000882319F081E080936D010895EF92FF92F8
:1013B0000F931F93CF9320E04CE055E068E070E07E
:1013C0008CE190E00E94A10485E1E82EF12C02E07E
:1013D00010E02EEF200FC09100014CE553E068E3D0
:1013E00070E0C017110611F06CE370E0C7010E94B5
:1013F000A1040F5F1F4F86E1E80EF11C06301105B6
:1014000041F780E40E949104882329F0C53018F444
:10141000CF5FC093000180E20E949104882339F0DD
:1014200080910001833018F081508093000184E0A6
:101430000E949104882321F08091000180936D0126
:10144000CF911F910F91FF90EF9008950F931F93ED
:10145000CF93DF93C0915601CF5FC093560110E048
:1014600000E0D0E02D2F4AED50E06AE070E0C801C6
:101470000E94A104DF5F005E1F4FD43099F720E087
:101480004CEA50E062E370E08BE290E00E94A1043D
:10149000C53B18F081E080936D01DF91CF911F91E2
:1014A0000F91089508958EBD00000DB407FEFDCF85
:1014B0008EB50895089590E080E00895CF92DF9270
:1014C000EF92FF920F931F93CF93DF93C8E5D1E084
:1014D00016E087E891E00E94E308892BC1F087E8D5
:1014E00091E00E94A10890915E01E92FF0E0E85A96
:1014F000FE4F80839F5F90935E01973050F3109270
:101500005E01FE01812F11928A95E9F7E2CF0E94D8
:101510007704C0E085FF08C0809105018111B0C04B
:1015200087E080930501C1E00E94770486FF09C02F
:10153000809105018F5F883008F0A4C08093050179
:10154000C1E00E94770482FF36C080910C018111B6
:1015500032C000910101909102011091030180912C
:101560000401D091050121E020930C0100930601B4
:1015700090930701109308018093090110920B01C9
:10158000D0930A0162E087E891E00E947C08602F16
:1015900087E891E00E947C08612F87E891E00E9433
:1015A0007C086D2F87E891E00E947C086FEF87E848
:1015B00091E00E947C080E947704182F111F1127C8
:1015C000111FD09105011123E1F0409103016091B9
:1015D00001018D2F0E943D09882399F08091860199
:1015E000082E000C990B90930201809301018091C9
:1015F0008501082E000C990B909304018093030140
:10160000C12F0E94770484FF40C040910301609184
:10161000010184E08D0F87700E943D098823A9F1A4
:1016200080918601082E000C990B90930201809303
:10163000010180918501082E000C990B9093040103
:1016400080930301C09103011091010161E087E8DB
:1016500091E00E947C08612F87E891E00E947C085D
:101660006C2F87E891E00E947C086D2F87E891E05D
:101670000E947C086FEF87E891E00E947C0807C019
:1016800081504FCF109205015BCFC111DBCF88E0B5
:101690000E949104882319F088E080936D01809165
:1016A0000C018823F1F0C0910A014091080160917A
:1016B00006018C2F0E943D09882309F45FC08091A8
:1016C0008601082E000C990B909307018093060168
:1016D00080918501082E000C990B9093090180934D
:1016E000080160910301709104012091050146E712
:1016F00056E080910101909102010E94A104809125
:101700000C01882369F0609108017091090120E0C3
:1017100048EB56E080910601909107010E94A104D8
:10172000F12CE12C10E000E0D0E0C0E0F801EE5335
:10173000F94F6F01FE01EE0FFF1FEC0DFD1DE4914F
:101740001E163CF420E042E457E0BE01C7010E94AF
:10175000A1042896C034D10569F70F5F1F4FF8E048
:10176000EF0EF11C00311105F9F6DF91CF911F91B9
:101770000F91FF90EF90DF90CF90089580910B0133
:101780008F5F80930B01843010F010920C01C830F1
:1017900008F0A7CFEC2FF0E0E053F44F0C94661361
:1017A000D80BDC0BDE0BE00BE20BE50BE70BE90BD8
:1017B00084E080930A0195CF87E0FBCF86E0F9CFE4
:1017C00085E0F7CF10920A018CCF83E0F2CF82E060
:1017D000F0CF81E0EECF20E04CE055E068E070E033
:1017E0008CE190E00E94A10480E40E94910488238F
:1017F00059F061E085E00E94590661E08DE00E94A9
:10180000590681E08093DF0180E20E9491048823E1
:1018100051F060E085E00E94590660E08DE00E9492
:1018200059061092DF018CE00E949104882349F050
:101830006091DF0182E090E00E94F51281E08093E8
:101840006D0108951F920F920FB60F9211242F93DE
:101850003F938F939F93AF93BF9380916F0190912C
:101860007001A0917101B091720130916E0123E07D
:10187000230F2D3758F50196A11DB11D20936E0140
:1018800080936F0190937001A0937101B0937201E6
:101890008091730190917401A0917501B0917601CE
:1018A0000196A11DB11D8093730190937401A093C3
:1018B0007501B0937601BF91AF919F918F913F9148
:1018C0002F910F900FBE0F901F90189526E8230FB1
:1018D0000296A11DB11DD2CF1F920F920FB60F928B
:1018E00011248F939F938091E1009091E100937F69
:1018F0009093E10083FF0FC01092E90091E0909374
:10190000EB001092EC0092E39093ED0010928401B2
:1019100098E09093F00082FF22C093E09093E9005A
:101920009091F200992319F09AE39093E800909136
:101930006901992341F09091690191509093690157
:10194000911101C05D9A90918301992341F090918A
:101950008301915090938301911101C0289A84FFD3
:1019600018C08091E2008E7E81608093E2008091B9
:10197000E1008F7E8093E10080916A018E7E80611C
:1019800080936A019F918F910F900FBE0F901F90CF
:10199000189580FFF7CF8091E2008E7E8061809362
:1019A000E2008091E1008E7E8093E10080916A01E7
:1019B0008E7E8160E5CF1F920F920FB60F92112499
:1019C000CF92DF92EF92FF920F931F932F933F934B
:1019D0004F935F936F937F938F939F93AF93BF9337
:1019E000EF93FF93CF93DF93CDB7DEB76C97DEBF56
:1019F000CDBF1092E9008091E80083FF25C068E028
:101A0000CE0145960E94BD0782EF8093E8008D8944
:101A100087FF39C09091E80090FFFCCF982F907617
:101A200009F034C19E894F89588D2F89F88C911106
:101A300031C0803861F580916B018093F100109284
:101A4000F1008EEF8093E8006C960FB6F894DEBF3D
:101A50000FBECDBFDF91CF91FF91EF91BF91AF91BD
:101A60009F918F917F916F915F914F913F912F91B6
:101A70001F910F91FF90EF90DF90CF900F900FBECE
:101A80000F901F9018959EEF9093E800C7CF10928B
:101A9000F100D5CF913059F48111D3CF41305105A8
:101AA00081F680916B018D7F80936B01CACF93305B
:101AB00049F48111C6CF4130510519F680916B016F
:101AC0008260F2CF953041F48091E80080FFFCCF36
:101AD00020682093E300B5CF963009F0A9C00B8DA4
:101AE0001C8D22E01092E9001092670110926601AD
:101AF000F2122EC010926501109264010E948C07B0
:101B00001F8299E09983FA8291E09E8390EA9887F8
:101B10009AEF99872091660130916701275F3F4FC7
:101B20003C832B838D831092E90010926701109201
:101B30006601109365010093640149E050E0BE0125
:101B40006F5F7F4F80E00E9466070E948C0779CF0D
:101B500010936501009364010E94D405DC01129684
:101B60000D911C910115110509F451C1D801ED9198
:101B7000FC910480F581E02DBE016B5E7F4FC801B2
:101B80000995009709F03EC1F80100851185EACF5B
:101B9000F3E0FF120EC08F89882309F440C0823021
:101BA00061F440E867E080EB97E00E943307811121
:101BB00048CF81E28093EB0047CF813029F440E8A1
:101BC0006BE084EA97E0F1CF833099F70E94D40567
:101BD000DC011296ED90FC908E010F5F1F4F6801A3
:101BE000E114F10479F0D701ED91FC910680F781C1
:101BF000E02DB801C7010995080F111DF701E08418
:101C0000F184EECFD8011C92F60101900020E9F793
:101C10003197BF016C197D0940E0C601C6CF6EE85F
:101C200077E0FB01449150E080E80E94660709CF0D
:101C3000973009F4BECF983021F481E08093F10011
:101C400000CF993009F0FDCE837009F0B2CFEEE1FC
:101C5000F1E081E031E096E32191222371F080935D
:101C6000E9003093EB00DF0111972C912093EC00F9
:101C70009093ED008F5F873079F78EE78093EA00CD
:101C80001092EA008F8980938401DBCE8B8D9C8D2E
:101C90001092E9001092670110926601909365011D
:101CA00080936401898D811192C08E899D89913ABA
:101CB00049F4813209F07DCF47E050E061E171E005
:101CC00080E0B3CF913209F074CF833269F48F8909
:101CD000988DB0E0A0E080930D0190930E01A09349
:101CE0000F01B0931001ADCE803269F48091E8000D
:101CF00082FFFCCF67E081E191E00E94BD078BEF9E
:101D00008093E8009ECE823209F09BCE8F8980932B
:101D10001801EEEFFFE7859194918B3F9C4D51F1B7
:101D2000E0E0F8E08091110190911201A09113017F
:101D3000B0911401803B9440A105B105F1F480916C
:101D4000180180FD1AC0EE3F8AE0F80789F587E7A1
:101D500097E791838083809160008093680188E198
:101D60009BE00FB6F894A895809360000FBE909307
:101D7000600067CEEEEFFAE0D5CF808191818737A2
:101D8000974709F05ECEA8958091600088618093A6
:101D900060008091680180936000EE3F2AE0F207C6
:101DA00089F08091FE0A9091FF0A9183808349CE49
:101DB000808191818737980751F29093FF0A809331
:101DC000FE0AC5CF1092FF0A1092FE0A3ACE0E9478
:101DD000D405DC0112960D911C910115110509F431
:101DE000E8CED801ED91FC910190F081E02DBE018B
:101DF0006B5E7F4FC8010995811123CEF8010085E4
:101E00001185EBCF181619060CF41BCED2CEF1E0DB
:101E1000FF12BECE62E977E004CF1F920F920FB699
:101E20000F9211248F939F93AF93BF938091600182
:101E300090916101A0916201B0916301892B8A2B7D
:101E40008B2B81F190915F01809100008927809315
:101E500000008091600190916101A0916201B091B8
:101E60006301181619061A061B069CF4809160017E
:101E700090916101A0916201B09163010197A10964
:101E8000B1098093600190936101A0936201B093C6
:101E90006301BF91AF919F918F910F900FBE0F90F3
:101EA0001F901895809171008D7F809371008091B3
:101EB0005F01909100008095892380930000E9CF15
:101EC000E7E8F1E01382128288EE93E0A0E0B0E050
:101ED00084839583A683B78388E291E0918380838E
:101EE0008FEF9FEF95878487EBEDF1E013821282ED
:101EF0008AE391E09183808314828CE38583178247
:101F0000168280E1808711861286138614861586D4
:101F100016861786108A118A128A1092FA05109274
:101F2000FB05A7EDB1E01196FC93EE938EEE91E0E8
:101F300013969C938E9312970895789484B582603B
:101F400084BD84B5816084BD85B5826085BD85B55D
:101F5000816085BD80916E00816080936E001092DB
:101F60008100809181008260809381008091810056
:101F700081608093810080918000816080938000E7
:101F800080919100826080939100809191008160A6
:101F90008093910080919000816080939000809167
:101FA000C10084608093C1008091C10082608093F1
:101FB000C1008091C10081608093C1008091C30005
:101FC00081608093C3008091C00082608093C000D4
:101FD0008091C20081608093C20080917A00846009
:101FE00080937A0080917A00826080937A00809159
:101FF0007A00816080937A0080917A008068809373
:102000007A001092840110926B0110926A01809103
:10201000D70081608093D70080EA8093D80089B58B
:10202000806189BD89B5826089BD09B400FEFDCF9C
:1020300061E070E080E090E00E94BA068091D800F4
:102040008F7C80618093D8008091E000807F8093B6
:10205000E0008091E1008E7E8093E1008DE080932E
:10206000E200559A209ACFB7F89480916C018111C3
:1020700027C0E9EFF7E08491E8E1F8E09491E82FD8
:10208000F0E0EE0FFF1FE453F84FA591B491EC91EF
:10209000E92321F461E081E10E94E80561E081E14A
:1020A0000E9459068CB580618CBD8CB580648CBD56
:1020B00061E08FE00E94590661E080E10E945906CC
:1020C00080916C018F5F80936C01CFBF61E084E0F1
:1020D0000E94590661E08CE00E94590662E084E1AA
:1020E0000E94590662E083E10E94590662E082E1A3
:1020F0000E94590662E085E10E94590662E087E08D
:102100000E94590662E088E00E945906E4EFF7E079
:10211000E491F0E0EE0FFF1FE652F84F85919491A5
:102120009093F3058093F205E3E1F8E0E491E09306
:10213000F805ECEEF7E0E491F0E0EE0FFF1FE65259
:10214000F84F859194919093F5058093F405EBE019
:10215000F8E0E491E093F90561E086E00E94590619
:1021600061E086E00E94E80561E070E080E090E0D8
:102170000E94BA0660E086E00E94E8056AE070E02E
:1021800080E090E00E94BA0661E086E00E94E805E7
:102190000E944E048EEA0E94530A85ED0E94530A63
:1021A00080EF0E94530A88EA0E94530A8FE30E943C
:1021B000530A83ED0E94530A80E00E94530A80E490
:1021C0000E94530A8DE80E94530A84E10E94530A38
:1021D00080E20E94530A80E00E94530A81EA0E9432
:1021E000530A88EC0E94530A8AED0E94530A82E146
:1021F0000E94530A81E80E94530A8FEC0E94530AFE
:1022000089ED0E94530A81EF0E94530A8BED0E94D0
:10221000530A80E40E94530A84EA0E94530A86EA21
:102220000E94530A8FEA0E94530A0E944E0480E2E1
:102230000E94530A80E00E94530A81E20E94530ADE
:1022400080E00E94530A8FE70E94530A82E20E94B4
:10225000530A80E00E94530A87E00E94530AE091EB
:10226000F405F091F50580819091F905892B808323
:10227000E091F205F091F30590818091F805809549
:10228000892380830E947704807A803A59F4CEEEC5
:10229000D1E089910E94530A35E0CE3ED307C9F7B9
:1022A0000000FECF82E090E00E94ED12882359F0FA
:1022B00061E085E00E94590661E08DE00E945906C8
:1022C00081E08093DF0180916400816080936400ED
:1022D00080916400826080936400809164008068D3
:1022E0008093640080916400806480936400809196
:1022F00065008160809365008EE18093E00181E25A
:102300008093E301809164008E7F8093640087EC6A
:102310000E94EC068C018EE50E94EC06EC010E9406
:10232000950600951095C095D0950C9FD0010D9FF6
:10233000B00D1C9FB00D11249B01AC012095309570
:10234000409550950E9422136B017C010E949506D6
:102350006C0D7D1D8E1D9F1D6115710581059105FB
:1023600011F00E94E4128091640081608093640007
:102370000EEE11E02EEEE22E25E0F22EC0E0D0E0CF
:10238000DD24D3942FB7F89480916F019091700160
:10239000A0917101B09172012FBF2091EC01222315
:1023A00091F02091E401E82FE21BE093ED012091F0
:1023B000E1013091E2012F5F3F4F3093E201209322
:1023C000E1011092EC014091E8015091E901609126
:1023D000EA017091EB0184179507A607B7079CF4F3
:1023E000481B423050F083B7817F83BF83B7816041
:1023F00083BF889583B78E7F83BF209709F4C2CFB0
:102400000E940000BFCF2091E301AC01BD01420F4B
:10241000511D611D711D4093E8015093E9016093C6
:10242000EA017093EB018093E4019093E501A0939E
:10243000E601B093E701D092EC018091FA05809318
:10244000FB050E9477048093FA0580E0B82FB11154
:10245000BFEFF8010024B193B193B193B19303940A
:10246000D1F7E0916D01F0E0EE0FFF1FE854F84F57
:1024700085919491FC0109959EEEA92E91E0B92ECB
:10248000F50181915F010E94530AEA14FB04C1F730
:10249000B4CF8F929F92AF92BF92CF92DF92EF9282
:1024A000FF92CF93DF93EC01688179818A819B81D0
:1024B000611571058105910521F464E279ED8BE5E3
:1024C00097E02DE133EF41E050E00E940313490112
:1024D0005A019B01AC01A7EAB1E40E9422136B01EF
:1024E0007C01ACEEB4EFA50194010E943013C60E3E
:1024F000D71EE81EF91EF7FE06C081E0C81AD108F3
:10250000E10880E8F80AC882D982EA82FB82C70122
:10251000B6019F77DF91CF91FF90EF90DF90CF9042
:10252000BF90AF909F908F9008958F929F92AF929F
:10253000BF92CF92DF92EF92FF926091190170915A
:102540001A0180911B0190911C0161157105810593
:10255000910521F464E279ED8BE597E02DE133EF0D
:1025600041E050E00E94031349015A019B01AC0174
:10257000A7EAB1E40E9422136B017C01ACEEB4EF38
:10258000A50194010E943013C60ED71EE81EF91E45
:10259000F7FE06C081E0C81AD108E10880E8F80A11
:1025A000C0921901D0921A01E0921B01F0921C0115
:1025B000C701B6019F77FF90EF90DF90CF90BF905B
:1025C000AF909F908F9008956093190170931A01B6
:1025D00080931B0190931C010895F999FECF92BD41
:1025E00081BDF89A992780B50895262FF999FECFD5
:1025F0001FBA92BD81BD20BD0FB6F894FA9AF99A20
:102600000FBE01960895052E97FB1EF400940E94BC
:102610001A1357FD07D00E94351307FC03D04EF460
:102620000C941A1350954095309521953F4F4F4F7C
:102630005F4F089590958095709561957F4F8F4F6E
:102640009F4F08950E945713A59F900DB49F900D22
:10265000A49F800D911D11240895B7FF0C9422139F
:102660000E942213821B930B0895A1E21A2EAA1B2B
:10267000BB1BFD010DC0AA1FBB1FEE1FFF1FA21732
:10268000B307E407F50720F0A21BB30BE40BF50B2F
:10269000661F771F881F991F1A9469F760957095B8
:1026A000809590959B01AC01BD01CF010895A29F3B
:1026B000B001B39FC001A39F700D811D1124911D16
:1026C000B29F700D811D1124911D0895EE0FFF1F03
:0C26D0000590F491E02D0994F894FFCFE0
:1026DC0003700020000010001000040000FFFFFF3A
:1026EC00FF00E10000000000000100000000C180BC
:1026FC0081000000000000007C08F7079D0892088C
:10270C00E308A108BF0800000000520ACA075B0AD0
:02271C005A0A57
:00000001FF
