:100000000C94F0070C9418080C9418080C94180819
:100010000C9418080C9418080C9418080C941808E0
:100020000C9418080C9418080C94C5120C943413F2
:100030000C9418080C9418080C9418080C941808C0
:100040000C9418080C940F170C9418080C941808AA
:100050000C9418080C9418080C9418080C94661545
:100060000C9418080C9418080C9418080C94180890
:100070000C9418080C9418080C9418080C94180880
:100080000C94B0150C9418080C9418080C941808CB
:100090000C9418080C9418080C9418080C94180860
:1000A0000C9418080C9418080C9418084040404010
:1000B00040404000FFFFFFFF833BFB9396F6E6ECDA
:1000C000ECECECCC0C6CECECECEC2C2CEC8C38F080
:1000D0001858D8D8D8D8D8D8D8D8D8D8D8D8D8D8E0
:1000E000D8D89838F0E000000080C0E07030B098B8
:1000F000D8D8D8D8D8D8D8D8D8D898B8307060C080
:10010000800000C0F03898D8D8D8983060C06030EF
:1001100098CCE673393D65E5FD01FF9E1C38F0E0A3
:10012000C00040404040404040404040FEF2F2FEAF
:10013000028822007FFFFFFFFFFCE10D7D4D4D7D1A
:100140007D7D7DFDFDFCFFFFFFFFFFFF7F7F7C616D
:100150000000E007FFFFFFFFFFFFFFF7F7F7F7F7EC
:10016000F7F7C70600FFE0781EC7F1FCFEFFFF7F30
:100170001F070301010181E3FFFFFFFFE7E7FE38EF
:10018000033F8FE3F8FEFFFFFFFFFFFFFEFCFEFFD4
:10019000FFFFFFFEFCE4E6FF3F80FFFFFFFFFFFFE6
:1001A000FFFF008822882200FEF2F2FEFFFFFFFF21
:1001B000FEF8E28820831FFF8F838080808080008C
:1001C00080E0F8E0830F3FFFFF7F7FFFFEF8E080D5
:1001D00038FFFFFEE00FFF3F3FFFFFFFFFFDFDFD8C
:1001E000FD7D7D7C7973610C7F7F7F7F7F1F07079B
:1001F000070707C7FFFF7F7FFFFFFF3F0F0300E0F9
:10020000F8FEFFFFFFFF3F0F071F7FFFFFFF7F3F4E
:100210001FFFFFFFFFFFFF7F00FFFFFFFFFFFFFF4D
:10022000FF0120882208E0FFFFFFFFFF4F49494FF1
:100230004F4FCFCF6E2862C8C24842480208031E03
:10024000FFFFFFFFFFFE380803020203030101C1A5
:10025000701F073FFF80818181818180C0C0C0C045
:10026000C0C0C0E0606666607F40404040707C7CFB
:10027000FC808383838382828383808080E038F85C
:10028000E080808080828EB8E08080E1C18080C084
:10029000E0C3C387840C0F003F7FFFFFFFFFFFFF1A
:1002A0000F00024842484F4F4F49494F000000009D
:1002B0000E1B3166C680D060311B0E00E0A3E30048
:1002C000013F3F3F3330303030181878F8FC670179
:1002D00000030300010101F1F9FDFDFD3D3C3CFC83
:1002E000FCF8F00000FCFCFCFCFC1C1C3CFCFCF8DA
:1002F000710101E1F9FDFD3D1D1D9DBDBCBCB88036
:100300000101010101076761013179793F0F0F0F89
:1003100007E3A7E707070F0E0E1C1C191B1F1F1F63
:100320000006067050700000000000000000000091
:1003300000000000000000000000000000000000BD
:1003400000000000000000000000000000000000AD
:10035000000000000000001F1F1F1F1F0707071FCE
:100360001F1F011C14151D011F1F03070F1F1F1E38
:10037000001C14151D011F1F1E1E1F1F1F1F011D06
:1003800014141C0000000000000000000000000029
:10039000000000000000000000000000000000005D
:1003A000000000000000000000000000000000004D
:1003B00000000000000000000000000080E0E0708D
:1003C00070303030303030303030303030303030ED
:1003D000303030303030303030303030303030301D
:1003E000303030303030303030303030303030300D
:1003F00030303030303030303030303030303030FD
:1004000030303030303030303030303030303030EC
:10041000303030303030307070E0E080000000006C
:1004200000000000000000000000000000000000CC
:10043000000000000000000000000000FFFF0000BE
:10044000000000000000008040A050A854AA54AA58
:1004500055AA552A552A552A552A552A552A05009E
:10046000000040A855AA55AA55AA55AA542800002C
:1004700000000040FF7FFF400000003C8613C113D6
:10048000C50AFC00000000FF003EC3CF3E00000094
:1004900006FF06FFF1FF80000001FFFF00000000E3
:1004A000000000000000000000000000000000004C
:1004B000000000000000000000000000FFFF00003E
:1004C000000000000080048A55AA55AA55AA55AA22
:1004D00050A850A850A850A850A850A850A850A85C
:1004E00050A854AA55AA158A150A05020000000052
:1004F0000000003CFF3FFF3C0000000007F8FF1F2A
:10050000FFF807000000031FFFFF7E1EDFDF000073
:1005100000FF01FFFFF01F000000FFFF00000000D0
:1005200000000000000000000000000000000000CB
:10053000000000000000000000000000FFFF0000BD
:1005400000A050AA55AA55AA55AA55AA4180418093
:1005500041804180418041000100018041A051AAB9
:1005600055AA55AA55AA550A00000000000000002F
:10057000000000FCFCFCFCC0DCDCDCDCDCDCFCFCAB
:10058000FC380000FCFCFCFC00001C1C1C1C1CDCDF
:10059000DCDC1C1C1C1C1C000000FFFF0000000019
:1005A000000000000000000000000000000000004B
:1005B000000000000000000000000000FFFF00003D
:1005C0000082858A958A958A958A958A958A958AE0
:1005D000958A958A858280808088958A958A150A71
:1005E000050A0502010000000000000000000000F4
:1005F0000000001F1F1F9F809C9C9C9C9C9C9F9F99
:100600008F8780809F9F9F9F808080808080809F39
:100610009F9F8080808080000000FFFF000000001E
:1006200000000000000000000000000000000000CA
:10063000000000000000000000000000FFFF80003C
:1006400000070404FC80FC0404FF809494949CFF45
:1006500080ECECEC80FF8080FE11FE8080FF00FECD
:1006600082DADA82FEA0FE82DADAA2FEA0FE82BA86
:10067000AA8AFEA0E000FF80809C9484FF80ECECBE
:10068000EC80FF8080FE11FE8080FF809494949C1B
:10069000FF9094949484FF000080FFFF000000000E
:1006A000000000000000000000000000000000004A
:1006B0000000000000000000000000000107070E1D
:1006C0000E0C0C0C0C0C0C0C0C0C0C0C0C0C0C0C68
:1006D0000C0C0C0C0C0C0C0C0C0C0C0C0C0C0C0C5A
:1006E0000C0C0C0C0C0C0C0C0C0C0C0C0C0C0C0C4A
:1006F0000C0C0C0C0C0C0C0C0C0C0C0C0C0C0C0C3A
:100700000C0C0C0C0C0C0C0C0C0C0C0C0C0C0C0C29
:100710000C0C0C0C0C0C0C0E0E070701000000005A
:1007200000000000000000000000000000000000C9
:1007300000000000000000000000000000000000B9
:1007400000000000000000000000000000000000A9
:100750000000000000000000000000000000000099
:100760000000000000000000000000000000000089
:100770000000000000000000000000000000000079
:100780000000000000000000000000000000000069
:100790000000000000000000000000000000000059
:1007A0000000000000000000000000000000000049
:1007B0000000000000000000000000000000000039
:1007C000000000007F415D55577F416D6D517F41B5
:1007D00055555D7F416D6D417F057D417D057F41B3
:1007E00055555D7F415D5D633E007F415D55497FAD
:1007F000117747711F00000000000000000000009A
:1008000000000000000000000000000000000000E8
:1008100000007F416D6D417F007F4175151D7F4157
:100820007F515555457F417777417F007F415D5529
:10083000577F416D6D417F415F50507F415F505008
:100840007F4155555D7F415D5D633E007F415F683F
:100850005F417F416D6D417F417B77417F415D5DB0
:10086000637F416D6D417F0000000000007F416D9E
:100870006D417F417B77417F415D5D633E007F41FC
:100880007D137D417F416D6D417F417B77417F11BC
:100890007747711F007F417D137D417F416D6D4121
:1008A0007F417B77417F117747711F007F415D5DFD
:1008B000417F057D417D057F417777417F415555DA
:1008C0005D7F416D6D517F515555457F151000007D
:1008D0000000000000000000000000000000000018
:1008E0000000000000000000000000000000000008
:1008F0000000000000000000008080E0E0F8F8FE4A
:10090000FEFFFEFFFEFFFEFFFEFFFEFFFEFFFEFFFF
:10091000FEFFFEFFFEFFFEFFFEFF7E7F1E1F06079F
:10092000000100000000000000E080F8A8FC90FC3E
:10093000A8FC90FCA8FC90FCA8FC90FCA8FC90FCF7
:10094000A8FC10FCA8FC90FCE0FC00FC008000E08F
:1009500000F800FF3FFF3FFF3FFF3FFF3FFF3FFF2C
:100960003FFF3FFF3FFF3FFF3FFF3FFF00FF1F7F76
:10097000071F01070001808080C090F0A8FC90FC58
:10098000A8FC90FCA8FC90FCA8FC90FCA8FC90FCA7
:10099000A8FC90FCA8FC10FCA8FC90FCE0FC00FC6F
:1009A0003FFF3FFF3FFF3FFF3FFF3FFF3FFF3FFF57
:1009B0003FFF3FFF3FFF3FFF3FFF3FFF3FFF3FFF47
:1009C00000FF1F7F071F01070001808080C090F09B
:1009D000A8FC90FCA8FC90FCA8FC90FCA8FC90FC57
:1009E000A8FC90FCA8FC90FC08FCE0FC00FC0000CB
:1009F000000000003FFF3FFF3FFF3FFF3FFF3FFF83
:100A00003FFF3FFF3FFF3FFF3FFF3FFF3FFF3FFFF6
:100A10003FFF00FF03FF007F001F000700010000F1
:100A20000000008080E040F8A8FC50FCA8FC50FCCE
:100A3000A8FC50FCA8FC50FCA8FC50FC88FC00FC66
:100A40000004000000000000008000E000FFFEFF46
:100A5000FFFFFEFFFFFFFEFFFFFFFEFFFFFFFEFFAA
:100A6000FFFFFEFF7EFF1FFF00FF007F001F00074C
:100A7000000100000000008080E040F8A8FE54FF64
:100A8000AAFF55FFAAFF55FFAAFF55FFAAFF55FF72
:100A90008AFFE5FFF8FF7EFF00000000008000E015
:100AA00000FFFEFFFFFFFEFFFFFFFEFFFFFFFEFF59
:100AB000FFFFFEFFFFFFFEFF7FFF1FFF07FF017F1E
:100AC000001F0007000100000000000000E080F8A7
:100AD000A8FE94FFAAFF95FFAAFF95FFAAFF95FF26
:100AE000AAFF95FF0AFFE5FFF8FF7EFF0000000068
:100AF000008000E000F800FF3FFF3FFF3FFF3FFFA7
:100B00003FFF3FFF3FFF3FFF3FFF3FFF3FFF00FF34
:100B100007FF017F001F00070001000000000080A8
:100B200080E040F8A8FC50FCA8FC50FCA8FC50FC5D
:100B3000A8FC50FCA8FC50FCA8FC90FC28FC90FCF5
:100B400000FC0000008000E000FFFEFFFFFFFEFF52
:100B5000FFFFFEFFFFFFFEFFFFFFFEFFFFFFFEFFA9
:100B600000FF3FFF3FFF007F071F0007000180805D
:100B7000A0E090F8A8FC90FCA8FE94FFAAFF95FFC7
:100B8000AAFF95FFAAFF95FFAAFF95FF0AFFE5FFC1
:100B9000F8FF7EFF000000003FFF3FFF3FFF3FFFE9
:100BA0003FFF3FFF3FFF3FFF3FFF3FFF3FFF3FFF55
:100BB0003FFF3FFF3FFF00FF07FF017F001F0007D0
:100BC00000018080A0E010F8A8FC50FCA8FC50FCBC
:100BD000A8FC50FCA8FC50FCA8FC50FCA8FC50FC55
:100BE00088FC00FC00040000000000003FFF3FFF05
:100BF00000FFFEFFFFFFFEFFFFFFFEFFFFFFFEFF08
:100C0000FFFFFEFFFFFFFEFF7EFF1FFF00FF007FD5
:100C1000001F0007000100000000000000E080F855
:100C2000A8FE94FFAAFF95FFAAFF95FFAAFF95FFD4
:100C3000AAFF95FFAAFF95FF28FF92FF00FC000086
:100C4000008000E000F800FF3FFF3FFF3FFF3FFF55
:100C50003FFF3FFF3FFF3FFF3FFF3FFF3FFF3FFFA4
:100C60003FFF007F071F000700018080A0E010F811
:100C7000A8FC50FCA8FE54FFAAFF55FFAAFF55FF91
:100C8000AAFF55FFAAFF55FFAAFF95FF28FF92FF75
:100C900000FC00003FFF3FFF00FFFEFFFFFFFEFFE5
:100CA000FFFFFEFFFFFFFEFFFFFFFEFFFFFFFEFF58
:100CB00000FF3FFF3FFF007F071F0007000180800C
:100CC000A0E090F8A8FC90FCA8FE94FFAAFF95FF76
:100CD000AAFF95FFAAFF95FFAAFF95FFAAFF95FF20
:100CE00028FF92FF00FC00003FFF3FFF3FFF3FFF58
:100CF0003FFF3FFF3FFF3FFF3FFF3FFF3FFF3FFF04
:100D00003FFF3FFF3FFF3FFF3FFF007F071F000701
:100D1000000100000000008080E040F8A8FE54FFC1
:100D2000AAFF55FFAAFF55FFAAFF55FFAAFF55FFCF
:100D3000AAFF95FF28FF92FF00FC0000008000E062
:100D400000FFFEFFFFFFFEFFFFFFFEFFFFFFFEFFB6
:100D5000FFFFFEFFFFFFFEFF00FF3FFF3FFF007FA3
:100D6000071F000700018080A0E010F8A8FC50FCDD
:100D7000A8FC50FCA8FC50FCA8FC50FCA8FC50FCB3
:100D8000A8FC50FCA8FC90FC28FC90FC00FC000097
:100D90003FFF3FFF00FFFEFFFFFFFEFFFFFFFEFFE5
:100DA000FFFFFEFFFFFFFEFFFFFFFEFF00FF3FFF15
:100DB0003FFF007F071F000700018080A0E010F8C0
:100DC000A8FC50FCA8FE54FFAAFF55FFAAFF55FF40
:100DD000AAFF55FFAAFF55FF8AFFE5FFF8FF7EFF38
:100DE000000000003FFF3FFF00FFFEFFFFFFFEFF90
:100DF000FFFFFEFFFFFFFEFFFFFFFEFFFFFFFEFF07
:100E000000FF1FFF07FF017F001F00070001000513
:100E100000050005000A0208000A0208000500009B
:100E200000000000000000050007020900010E0399
:100E30000006000A02080000050000000000000093
:100E4000000006000103000703000000000000008E
:100E5000000500000002020300040006000100007B
:100E60000000000500000000000000002400270032
:100E70002A002D0030000000000200090F000003CE
:100E80000401000C00000000000000000000000051
:100E90000000000000080B0002020200000904002C
:100EA00000010202000005240010010524010101D7
:100EB00004240206052406000107058103100040F2
:100EC00009040100020A00000007050202400000B8
:100ED000070583024000000403090412010002EF29
:100EE0000201404123368000010102030141726486
:100EF00075696E6F204C4C430041726475626F7966
:100F00000014087F417777417F4155555D7F415FF0
:100F10005F7F417575717F7F417575717F415F5F3F
:100F20007F417575417F717747717F7F5D415D7F3F
:100F3000417B77417F4175757D7F415D5D417F7F5D
:100F4000415D5D5D7F415D5D417F417B77417F41DB
:100F500075757F7F515555457F4175757D7F497703
:100F600077497F000000007F415D5D417F417575DD
:100F70007D7F4175757D7F000000007F415D5D4193
:100F80007F417B77417F00000000000000000004EB
:100F90000802011040804010204080408008020478
:100FA00001804020100201108010204040200000ED
:100FB0000000250028002B002E003100040404044A
:100FC00004030405020202020403020202020606EE
:100FD00006060606040402020204040301007A174E
:100FE00011241FBECFEFDAE0DEBFCDBF11E0A0E0DD
:100FF000B1E0E0E8F7E302C005900D92AC34B10730
:10100000D9F726E0ACE4B1E001C01D92AC30B207E4
:10101000E1F717E0C0EFD7E004C02197FE010E947E
:10102000B81BCF3ED107C9F70E94C8170C94BE1B4E
:101030000C9400002F923F924F925F926F927F929A
:101040008F929F92AF92BF92CF92DF92EF92FF92D8
:101050000F931F93CF93DF9300D000D000D01F9247
:10106000CDB7DEB77B01E7E0EE22FF24E3E0759524
:101070006795EA95E1F7DA012801F3E05594479482
:10108000FA95E1F7460E571EFB01F695FE2FEE2767
:10109000F795E795E80FF91F50E040E08F010A51FE
:1010A0001E4F480100E8602E712C681A790ACF01A2
:1010B0008A599D4F5C0188E090E08C010E191F0950
:1010C0001F830E83C401840F951F9D838C8385012C
:1010D000040F151F90E080E01D01280E391EF1015C
:1010E000C4900E2C01C0CC0C0A94EAF7EC81FD816F
:1010F000D488CD28C48AE114F104C1F067307105A9
:10110000A9F0F10124906801C80ED91E312CF1011B
:101110000E8002C0F595E7950A94E2F7FA83E98319
:10112000F6012488F9812F2AF601248A0196EC81A0
:10113000FD813196FD83EC832817390719F0681675
:10114000790651F66F5F7F4FA20FB31F40585F4F74
:101150004616570621F06830710509F0B3CF27967F
:101160000FB6F894DEBF0FBECDBFDF91CF911F91B8
:101170000F91FF90EF90DF90CF90BF90AF909F9036
:101180008F907F906F905F904F903F902F90089539
:10119000CF93DF93AEEFB5E0CD91DC9111978881CD
:1011A000E4E0F6E09081892B8883CD91DC91119762
:1011B00088819081892B8883C0910006D091010697
:1011C0009881809105068095892388830D90BC9134
:1011D000A02D9C918081809589238C93DF91CF9164
:1011E00008954FB18CB123B190E08095909533E094
:1011F000959587953A95E1F7887030E02095309580
:1012000035952795359527952470822B942F9095A9
:10121000907F892B08959091DF01982329F4909174
:10122000DE01982381E009F480E00895CF92DF92F7
:10123000EF92FF92CF9390918D01891780F5E82F5F
:10124000F0E0E552F04FC491C12CD12C760160E062
:1012500074E284EF90E0A70196010E94551BBA0149
:10126000A901415051096109710991E041155105E8
:1012700081E06807710578F060E970ED83E090E047
:10128000A70196010E94551BBA01A90141505109BD
:101290006109710993E0C13041F0C330B1F0CF91E1
:1012A000FF90EF90DF90CF90089580918100887F2C
:1012B000892B80938100509389004093880080910E
:1012C0006F00826080936F00EACF80919100887FE9
:1012D000892B80939100509399004093980010922D
:1012E0008C0110928B0181E080938A0180917100C2
:1012F000826080937100D3CF6F927F928F929F9282
:10130000AF92BF92CF92DF92EF92FF920F931F9313
:10131000CF93DF93FB0159012C2DA02F002E000C41
:10132000BB0B4D01880E991E181419040CF08BC0CC
:10133000803891050CF087C06E0D711DE7FC7A9521
:10134000161617060CF07FC04115510509F47BC035
:10135000BF01F7FF04C0662777276E1B7F0B762F30
:1013600077706F01F7FF03C017E0C10ED11C63E077
:10137000D594C7946A95E1F71C2DF7FF07C0772332
:1013800029F01FEF1C0D68E0671B762FEE27FF2763
:10139000E81BF90B97FD02C0F0E0E0E030E88316AF
:1013A000910414F000E8081B0E1BC1E01E3F09F079
:1013B000C0E06E2D677867FF03C06150686F6F5F94
:1013C00031E016160CF030E06E2DE7FC695F659594
:1013D00065956595630FC62ED12CC10ED11C17FDE6
:1013E000DA9439E0C316D10414F068E0611BE62EEC
:1013F000EC1A1C0F612F30E8130340011124880DF3
:10140000991D8E0F9F1FD0E0CA9F4001CB9F900C6B
:10141000DA9F900C1124E80DF91D4E0F5F1FA114E7
:10142000B10419F035016E0E7F1EC72F072E000C78
:10143000DD0B233009F444C1A8F4213009F490C035
:10144000223009F4D7C0DF91CF911F910F91FF9007
:10145000EF90DF90CF90BF90AF909F908F907F9054
:101460006F9008952A3F09F440C02B3F61F7A058C0
:10147000B109481B590BE10E6E1529F39C01E22FAF
:10148000E81BE01708F00EC1F901E40FF51FE49125
:10149000F0E04F010C2E02C0880C991C0A94E2F770
:1014A00067FD0CC0C090E401D090E501C20ED31ED0
:1014B000F6011081F82CF0941F211083772391F00E
:1014C000673084F4A090E401B090E5016901F0E890
:1014D000CF0ED11CCA0CDB1C192D1095F601F08023
:1014E0001F2110832F5F3F4FCACFA058B109481B5F
:1014F000590BE10E6E1509F4A6CF9C01E22FE81BF3
:10150000E01708F0C9C0F901E40FF51FE491F0E01D
:101510004F010C2E02C0880C991C0A94E2F767FD5B
:101520000AC0C090E401D090E501C20ED31EF601BE
:10153000108118291083772381F0673074F4A0900C
:10154000E401B090E5016901F0E8CF0ED11CCA0CAE
:10155000DB1CF6011081192910832F5F3F4FCECF7E
:10156000A058B109681A790A481B590BC12ECE0C34
:101570006C1509F468CF9C01E22FE81BE01708F016
:1015800097C0F301E20FF31F8490912C0C2E02C040
:10159000880C991C0A94E2F780949094FA01E20F67
:1015A000F31FE490F12C0C2E02C0EE0CFF1C0A94E9
:1015B000E2F767FD0AC0E091E401F091E501E20F76
:1015C000F31FD080D820DE28D082772381F06730C7
:1015D00074F4E091E401F091E501590110E8A10EE5
:1015E000B11CEA0DFB1DE080E920FE28F0822F5F90
:1015F0003F4FC2CFAA24AA94B12C0C2E02C0AA0C31
:10160000BB1C0A94E2F7A094B0947B2CA058B109BB
:10161000481B590B6E2C610E661509F414CF9C0102
:10162000E22FE81BE01790F5F901E40FF51FE491B4
:10163000F0E06F010C2E02C0CC0CDD1C0A94E2F726
:1016400067FD0BC0E090E401F090E501E20EF31EAF
:10165000F70110811A211C2910837723A1F067302C
:1016600094F4E090E401F090E5014901F0E88F0E78
:10167000911CE80CF91CF7011081E12FE7211E2FC6
:101680001D29F70110832F5F3F4FCACF6F5F80582E
:101690009F4F4A0F5B1FC0CF6F5F80589F4F4A0F0D
:1016A0005B1F28CF6F5F80589F4F4A0F5B1FE4CEB0
:1016B0006F5F80589F4F6A0E7B1E4A0F5B1F58CF8B
:1016C000A090E401B090E501C02FD0E0E40FF51F39
:1016D000A501480F591F80589F4FA80EB91E80E8DA
:1016E00090E08C1B9D0BAC1BBD0B4D01880C991C15
:1016F000C1E0D0E0072E01C0CC0F0A94EAF76E2DAE
:10170000D0E030E020E0712C612CD02EDA01FC2EEC
:10171000CF93DF93CA2DDB2D65902591772361F060
:101720006F9C602C712C2F9D202D17302CF4D881AC
:101730001094D121D729D993DC9111231AF0209547
:10174000D223D629DD930A9539F76A9551F00D2DEC
:1017500013951124E80DF11DA80FB11DC80FD11D5F
:10176000DBCFDF91CF9111246ECECF92EF920F930A
:10177000E1E0FFE00491E2E0FFE0E490442329F19E
:10178000E1E0F0E03E2D377011F4F0E0E0E02E2DC6
:101790002695269526952E0F3F2F311D029FF0018D
:1017A000039FF00D11244E9F90014F9F300D112487
:1017B000A9014D5F504F2AEFC22E30E020E00E9479
:1017C0007C090F91EF90CF90089543E05FE0F3CF55
:1017D000FC0180918301882311F13FB7F89482E0E6
:1017E0008093E9002091F200822F90E018161906EC
:1017F00014F481E090E0882339F0289844E640937F
:1018000082014091F1004083222339F02091F200BF
:10181000211103C02BE62093E8003FBF08958FEF0E
:101820009FEF08952FB7F89483E08093E90090919B
:10183000E800892F807295FF04C09091F20080E447
:10184000891B2FBF089580917A0181110DC082E01C
:101850008093760184E08093770110927901109251
:10186000780181E080937A0186E791E00895CF9333
:10187000DF931F92CDB7DEB76983DC01ED91FC9158
:101880000280F381E02D41E050E0BE016F5F7F4FA9
:1018900009950F90DF91CF91089583E08093E9003F
:1018A0008091F200882319F08AE38093E80008957C
:1018B0000E94120C90E00895CF93DF931F92CDB752
:1018C000DEB7FC018485958597FD08C02FEF3FEFBB
:1018D000358724870F90DF91CF910895CE0101962F
:1018E0000E94E80B019719F4898190E0F3CF8FEF04
:1018F0009FEFF0CF0F931F93CF93DF931F92CDB73E
:10190000DEB78C01FC018485958597FF0BC0CE0165
:1019100001960E94E80B019771F4898190E0F8012B
:1019200095878487F801848595850F90DF91CF9105
:101930001F910F9108958FEF9FEFF1CFFC018485E8
:10194000958597FD0BC09FB7F89482E08093E900DE
:101950008091F2009FBF90E0019608959FB7F894A0
:1019600082E08093E9008091F2009FBF90E00895AB
:10197000409170015091710120916E0130916F0181
:1019800042175307B4F49091E8009570E1F39091F9
:10199000E80092FD19C08093F10080917001909150
:1019A000710101968F739927892B19F48EEF80931B
:1019B000E8008091700190917101019690937101FE
:1019C0008093700181E0089580E00895EF92FF9286
:1019D0000F931F93CF93DF93F82E192FE62E042F2A
:1019E00081E0860F880F0E94B80C83E00E94B80C3B
:1019F000CF2DD12FEC0EFD2EF11CCE15DF05B9F049
:101A000007FF13C0FE0184910E94B80C182F80E0DC
:101A10000E94B80C812321968111EFCFDF91CF91E5
:101A20001F910F91FF90EF9008958881EDCF81E095
:101A3000F5CFDF92EF92FF920F931F93CF93DF9337
:101A4000D82E8A01EB017B01E40EF51ECE15DF05D1
:101A500059F0D7FE12C0FE0184910E94B80C219665
:101A60008111F4CF0FEF1FEFC801DF91CF911F91CC
:101A70000F91FF90EF90DF9008958881EECF0F9344
:101A80001F93CF93DF931F92CDB7DEB782E0898398
:101A900042E450E065E97EE080E80E94190D0E9472
:101AA000230CDC0112960D911C910115110589F092
:101AB000D801ED91FC910280F381E02DBE016F5FB2
:101AC0007F4FC801099597FD04C0F8010085118575
:101AD000ECCF89810F90DF91CF911F910F910895E5
:101AE000615030F02091F100FC0120830196F8CF85
:101AF000289884E6809382010895282F30E0F90128
:101B0000EA58F14F9491F901E157F04F8491245430
:101B1000304FF9012491222309F430C09923E9F0D0
:101B200091509F30D0F4E92FF0E0E756F24F0C943B
:101B3000B81BC70DCB0DA80DBF0DC30DAD0DAD0D61
:101B4000AD0DCE0DD40DD80DDC0DE20DAD0DE60DB5
:101B5000909180009F7790938000E22FF0E0EE0F4D
:101B6000FF1FE255F04FA591B4919FB7F894EC9107
:101B7000611132C080958E238C939FBF0895909100
:101B800080009F7DE8CF90918000977FE4CF94B54F
:101B90009F7794BDE2CF94B59F7DFBCF909190004D
:101BA0009F7790939000D9CF909190009F7DF9CF2F
:101BB00090919000977FF5CF9091C0009F77909380
:101BC000C000CBCF9091C0009F7DF9CF9091C20013
:101BD000977F9093C200C1CF8E2BCECFCF93DF9350
:101BE00090E0FC01E157F04F24918454904FFC01A8
:101BF00084918823D1F090E0880F991FFC01E85967
:101C0000F14FA591B491FC01E255F04FC591D491EB
:101C1000623071F49FB7F8943C91822F80958323B2
:101C20008C93E8812E2B28839FBFDF91CF9108955D
:101C30008FB7F894EC912E2B2C938FBFF6CF3FB734
:101C4000F89480916A0190916B01A0916C01B09120
:101C50006D0126B5A89B05C02F3F19F00196A11D67
:101C6000B11D3FBFBA2FA92F982F8827BC01CD01E6
:101C7000620F711D811D911D42E0660F771F881F45
:101C8000991F4A95D1F708958F929F92AF92BF9274
:101C9000CF92DF92EF92FF924B015C010E941F0EE8
:101CA0006B017C010E941F0E6C197D098E099F0932
:101CB000683E734081059105A8F321E0821A9108DE
:101CC000A108B10888EEC80E83E0D81EE11CF11C03
:101CD00081149104A104B10429F7FF90EF90DF90E3
:101CE000CF90BF90AF909F908F90089580937C008D
:101CF00080E280937B0062E070E080E090E00E94F0
:101D0000440E80917A00806480937A0080917A00FA
:101D100086FDFCCF809178009091790008958F9294
:101D20009F92AF92BF92CF92DF92EF92FF920F936A
:101D30001F93CF93DF936C017B018A0180910B018C
:101D4000882309F45CC080918301882309F457C07B
:101D50008091750180FF05C08091E00082608093D2
:101D6000E000E801B12C8AEFA82E93E0892E2AE347
:101D7000922E209711F4BB20D9F10E94120C8111F0
:101D80000AC0AA94AA20D9F161E070E080E090E056
:101D90000E94440EEECF8C171D0611F00CF08C2F14
:101DA0009FB7F8948092E9002091E80025FD02C0D9
:101DB0009FBFDFCF282F30E0C21BD30BF70181502C
:101DC00020F041914093F100FACFE20EF31EBB20C8
:101DD00021F09092E800B12CEBCF8091E80085FDD6
:101DE000E7CF9092E800BB24B394209709F3F3CF98
:101DF0005D9884E680937401101611063CF081E032
:101E000090E0F6019383828310E000E0C801DF9147
:101E1000CF911F910F91FF90EF90DF90CF90BF90E7
:101E2000AF909F908F900895AF92BF92CF92DF9224
:101E3000EF92FF920F931F93CF93DF936C017B017F
:101E40008B01040F151FEB015E01AE18BF08C01710
:101E5000D10759F06991D601ED91FC910190F08183
:101E6000E02DC6010995892B79F7C501DF91CF9146
:101E70001F910F91FF90EF90DF90CF90BF90AF90A8
:101E80000895089588E00E940B09882319F088E0DE
:101E90008093630108952F923F924F925F926F92C9
:101EA0007F928F929F92AF92BF92CF92EF920F93B9
:101EB000CF93DF9388E00E940B09882319F089E013
:101EC00080936301D0E0C0E0912C812C58EF652E07
:101ED00077247A946DEC262E68E0362EB12CA12C56
:101EE000C401825F914F2C012497F201EA0DFB1D82
:101EF0002491C50144E0880F991F4A95E1F78C0FA2
:101F00009D1FECECF8E00491F101E4904EEC58E0F8
:101F1000222301F161E070E03E2D377011F470E092
:101F200060E04E2D469546954695460F572F511D1C
:101F3000049FB001059F700D1124E22FF0E0EE0F19
:101F4000FF1F6E9FA0016F9F500D7E9F500D1124AB
:101F50004253574F23E0C22E30E020E0B3010E94ED
:101F60007C09FFEFAF1ABF0A8AE0A816B10409F096
:101F7000BCCF98E0690E711CEAE08E0E911CFAE568
:101F80008F16910409F0AACFDF91CF910F91EF90B6
:101F9000CF90BF90AF909F908F907F906F905F9009
:101FA0004F903F902F90089588E0809363010895AB
:101FB00087E080936301089586E08093630108952C
:101FC0000F931F9308E110E020E630E04CEA57E061
:101FD00064E170E080E190E00E941A088CE00E94C9
:101FE0000B09882319F081E0809363011F910F9101
:101FF00008958CE00E940B09882319F081E08093FA
:1020000063010895EF92FF920F931F93CF93DF9395
:1020100000E410E020E830E04CEA53E070E060E0DB
:1020200090E080E00E941A0885E1E82EF12C02E0A1
:1020300010E04EEF400FC0916101D091620168E362
:1020400070E00C171D0711F06CE370E0C7010E94EF
:10205000B50B0F5F1F4F86E1E80EF11C063011052E
:1020600041F780E40E940B09882341F0C530D10577
:102070002CF42196D0936201C093610180E20E940A
:102080000B09882361F08091610190916201833096
:1020900091052CF00197909362018093610184E097
:1020A0000E940B09882321F08091610180936301D4
:1020B000DF91CF911F910F91FF90EF9008950F93B3
:1020C0001F93CF93C0915E01CF5FC0935E0100E389
:1020D00010E020E830E04CEA50E068E070E090E08A
:1020E00080E00E941A08C53B18F081E080936301EC
:1020F000CF911F910F910895E82FF0E0E552F04F36
:10210000E491E13019F0E33089F0089580916F0097
:102110008D7F80936F0080918701E0918801F0911D
:1021200089019081809589238083089510928A0186
:1021300080918401E0918501F0918601F2CFCF93E7
:10214000DF9390918D01923081F0C82FE92FF0E05C
:10215000E552F04FD4919F5F90938D0161E00E9412
:10216000EE0DD13029F0D33049F1DF91CF910895B0
:10217000109280001092810080918100886080938D
:102180008100809181008160809381008C2F90E09C
:10219000FC01E454F04FE491F0E0EE0FFF1FE25534
:1021A000F04F259134913093890120938801815714
:1021B000904FFC01849180938701D7CF10929000BB
:1021C000109291008091910088608093910080919D
:1021D00091008160809391008C2F90E0FC01E45489
:1021E000F04FE491F0E0EE0FFF1FE255F04F259124
:1021F000349130938601209385018157904FFC01E3
:1022000084918093840180E00E94160980E0DF9130
:10221000CF910C947C10DC01E4E6F0E09081977F94
:102220009083E5E6F0E09081977F908381E08C9346
:10223000089560387105E8F440345105D0F4342F26
:10224000369536953695A0E83A9FF0011124E60FB1
:10225000F71FE80FF91F3489CA018770992741E0F9
:1022600050E001C0440F8A95EAF7222319F0432B6E
:10227000448B089540954323FBCF2F923F924F927A
:102280005F926F927F928F929F92AF92BF92CF9206
:10229000DF92EF92FF920F931F93CF93DF93CDB70F
:1022A000DEB72E970FB6F894DEBF0FBECDBF6A30F3
:1022B00069F5FC01EE5DFB4FDC01AC5DBB4F2C9181
:1022C00048E0249F9001112440815181240F351F43
:1022D000318320833297118210822E960FB6F894A4
:1022E000DEBF0FBECDBFDF91CF911F910F91FF9049
:1022F000EF90DF90CF90BF90AF909F908F907F90A6
:102300006F905F904F903F902F9008956D3029F31C
:102310009E878D87805E9B4F9E838D83FC014080CE
:1023200051804D855E854C5D5B4F58874F8350E8EB
:10233000451651040CF08FC0ED85FE85EE5DFB4F18
:10234000E080F18080E4E816F1040CF084C0EF81B5
:10235000F885F081FB832F2E312CC20135E0F39FED
:10236000800D911D1124181619060CF074C0C101BE
:1023700033E0880F991F3A95E1F78E0D9F1D1816CF
:1023800019060CF068C032011C825C81553009F4DA
:1023900020E08701D12CC12CC301820D931D9A87A7
:1023A0008987E22FF0E0FC87EB87A801420D531DDF
:1023B0005A83498320FF28C05B8121E0513051F1CD
:1023C000430189859A858816990664F5580117FF97
:1023D00002C0B12CA12C89819A818134910514F01D
:1023E00080E490E0A816B9065CF421E0A501B401F0
:1023F0008D859E850E9419119FEFA91AB90AEBCF0E
:10240000EFEF8E1A9E0ADDCFFB814301F13009F018
:1024100060C020E0A7014C0D5D1DB2018D859E8539
:102420000E9419112B853C85359527955FEFC51ABC
:10243000D50A020D131D88E0C816D10409F0B1CFEA
:102440009FEF491A590A620C731CEC81EF5FEC8311
:10245000E63009F09ACFEF81F8854081242F30E0F3
:10246000ED81FE8180819181F6E04F9F800D911D6D
:102470001124ED81FE8191838083ED85FE85EB5DE6
:10248000FB4F4081442309F428CF6AEF6203A00187
:10249000639F500D112440585F4F481759070CF0A7
:1024A0001CCF4D855E854E5D5B4F5A83498383E02B
:1024B000220F331F8A95E1F7FA0180819181280F5D
:1024C000391F31832083ED81FE8105CF4FEF841AC0
:1024D000940A29853A85821693060CF0A3CF5801F9
:1024E00017FF02C0B12CA12C89819A8181349105FA
:1024F00014F080E490E0A816B90644F720E0A501A6
:10250000B4018D859E850E9419113FEFA31AB30A6D
:10251000EBCF8EBD00000DB407FEFDCF8EB5089544
:10252000089590E080E0089580E10E940B098823DF
:1025300019F081E08093640180E80E940B09811109
:10254000109264018CE00E940B09882349F060918D
:10255000EB0182E090E00E94471B81E080936301E1
:1025600080916401882321F08BEE91E00C940B1193
:102570001092EB01809164008860809364008091E8
:10258000650088608093650008951F920F920FB6D2
:102590000F9211248F939F938091E1009091E1001D
:1025A000937F9093E10083FF0FC01092E90091E0C8
:1025B0009093EB001092EC0092E39093ED00109258
:1025C000830198E09093F00082FF22C093E0909303
:1025D000E9009091F200992319F09AE39093E800B2
:1025E00090917401992341F09091740191509093CE
:1025F0007401911101C05D9A90918201992341F07B
:1026000090918201915090938201911101C0289A7A
:1026100084FF18C08091E2008E7E81608093E2008A
:102620008091E1008F7E8093E100809175018E7E24
:102630008061809375019F918F910F900FBE0F90D5
:102640001F90189580FFF7CF8091E2008E7E806109
:102650008093E2008091E1008E7E8093E100809182
:1026600075018E7E8160E5CF1F920F920FB60F929B
:102670001124CF92DF92EF92FF920F931F932F932B
:102680003F934F935F936F937F938F939F93AF93FA
:10269000BF93EF93FF93CF93DF93CDB7DEB76C97E4
:1026A000DEBFCDBF1092E9008091E80083FF25C016
:1026B00068E0CE0145960E94700D82EF8093E8009D
:1026C0008D8987FF39C09091E80090FFFCCF982F4B
:1026D000907609F034C19E894F89588D2F89F88CE6
:1026E000911131C0803861F5809173018093F100C0
:1026F0001092F1008EEF8093E8006C960FB6F8947C
:10270000DEBF0FBECDBFDF91CF91FF91EF91BF91A3
:10271000AF919F918F917F916F915F914F913F9179
:102720002F911F910F91FF90EF90DF90CF900F901E
:102730000FBE0F901F9018959EEF9093E800C7CFA3
:102740001092F100D5CF913059F48111D3CF41309F
:10275000510581F6809173018D7F80937301CACFFB
:10276000933049F48111C6CF4130510519F680915B
:1027700073018260F2CF953041F48091E80080FFD0
:10278000FCCF20682093E300B5CF963009F0A9C0B4
:102790000B8D1C8D22E01092E900109271011092B5
:1027A0007001F2122EC010926F0110926E010E9401
:1027B0003F0D1F8299E09983FA8291E09E8390EA0F
:1027C00098879AEF99872091700130917101275F66
:1027D0003F4F3C832B838D831092E900109271014F
:1027E0001092700110936F0100936E0149E050E068
:1027F000BE016F5F7F4F80E00E94190D0E943F0D68
:1028000079CF10936F0100936E010E94230CDC01BD
:1028100012960D911C910115110509F451C1D801B1
:10282000ED91FC910480F581E02DBE016B5E7F4F40
:10283000C8010995009709F03EC1F801008511858E
:10284000EACFF3E0FF120EC08F89882309F440C05D
:10285000823061F440E867E089EF9EE00E94E60C78
:10286000811148CF81E28093EB0047CF813029F47A
:1028700040E86BE08DEE9EE0F1CF833099F70E9447
:10288000230CDC011296ED90FC908E010F5F1F4F20
:102890006801E114F10479F0D701ED91FC91068013
:1028A000F781E02DB801C7010995080F111DF70147
:1028B000E084F184EECFD8011C92F6010190002053
:1028C000E9F73197BF016C197D0940E0C601C6CF19
:1028D00067ED7EE0FB01449150E080E80E94190D15
:1028E00009CF973009F4BECF983021F481E080936E
:1028F000F10000CF993009F0FDCE837009F0B2CF1E
:10290000E7E2F1E081E031E096E32191222371F0EA
:102910008093E9003093EB00DF0111972C91209315
:10292000EC009093ED008F5F873079F78EE780930E
:10293000EA001092EA008F8980938301DBCE8B8DB1
:102940009C8D1092E9001092710110927001909389
:102950006F0180936E01898D811192C08E899D894E
:10296000913A49F4813209F07DCF47E050E064E0CC
:1029700071E080E0B3CF913209F074CF833269F413
:102980008F89988DB0E0A0E08093000190930101C1
:10299000A0930201B0930301ADCE803269F480911F
:1029A000E80082FFFCCF67E084E091E00E94700DB8
:1029B0008BEF8093E8009ECE823209F09BCE8F8908
:1029C00080930B01EEEFFFE7859194918B3F9C4D37
:1029D00051F1E0E0F8E08091040190910501A091AF
:1029E0000601B0910701803B9440A105B105F1F4C7
:1029F00080910B0180FD1AC0EE3F8AE0F80789F54F
:102A000087E797E7918380838091600080937201CC
:102A100088E19BE00FB6F894A895809360000FBE04
:102A20009093600067CEEEEFFAE0D5CF8081918180
:102A30008737974709F05ECEA8958091600088613E
:102A4000809360008091720180936000EE3F2AE0E5
:102A5000F20789F08091FE0A9091FF0A91838083AA
:102A600049CE808191818737980751F29093FF0A70
:102A70008093FE0AC5CF1092FF0A1092FE0A3ACE4A
:102A80000E94230CDC0112960D911C910115110579
:102A900009F4E8CED801ED91FC910190F081E02D90
:102AA000BE016B5E7F4FC8010995811123CEF801ED
:102AB00000851185EBCF181619060CF41BCED2CE6B
:102AC000F1E0FF12BECE6BED7EE004CF1F920F92BD
:102AD0000FB60F9211242F933F938F939F93AF9331
:102AE000BF938091660190916701A0916801B091B8
:102AF00069013091650123E0230F2D3758F50196C8
:102B0000A11DB11D2093650180936601909367011B
:102B1000A0936801B093690180916A0190916B0163
:102B2000A0916C01B0916D010196A11DB11D809322
:102B30006A0190936B01A0936C01B0936D01BF91FA
:102B4000AF919F918F913F912F910F900FBE0F905A
:102B50001F90189526E8230F0296A11DB11DD2CF14
:102B60001F920F920FB60F9211242F933F934F9302
:102B70005F936F937F938F939F93AF93BF93EF93E5
:102B8000FF9380918A01882349F080918401E0912C
:102B90008501F091860190818927808380915F0172
:102BA000882309F49CC080915A0190915B01A09107
:102BB0005C01B0915D01892B8A2B8B2B09F48FC0AE
:102BC00080915A0190915B01A0915C01B0915D01EF
:102BD0000197A109B10980935A0190935B01A093D9
:102BE0005C01B0935D01892B8A2B8B2B09F077C098
:102BF00080918B0190918C019093590180935801A1
:102C0000E0915101F0915201AF014F5F5F4F50933E
:102C10005201409351012491922F907F822F8F7007
:102C2000903819F40E947C10EBCF903951F4329611
:102C3000F0935201E0935101FA0144910E94160968
:102C4000DFCF903E29F41092520110925101D8CF5B
:102C5000903F09F078C010925F018091570188235E
:102C6000F1F1209158013091590180918B0190919F
:102C70008C012817390799F18091530190915401E3
:102C8000A0915501B09156010097A240B10540F0C6
:102C900080918B0190918C018115904408F090C037
:102CA000A0918B01B0918C0120915301309154017E
:102CB0004091550150915601E0915801F091590110
:102CC0000E94741B9F0150E040E00E94871B2093EC
:102CD0005301309354014093550150935601809114
:102CE00057018823F9F08091530190915401A091EC
:102CF0005501B0915601892B8A2B8B2B99F080912D
:102D0000530190915401A0915501B0915601019742
:102D1000A109B1098093530190935401A0935501E7
:102D2000B0935601FF91EF91BF91AF919F918F9119
:102D30007F916F915F914F913F912F910F900FBEB7
:102D40000F901F90189597FD5BCF3296F09352012C
:102D5000E0935101FA014491A0918B01B0918C0153
:102D6000322F242F0E94A91B6C507E4F8F4F9F4FF4
:102D700028EE33E040E050E00E94871B20935A0188
:102D800030935B0140935C0150935D0180915A0147
:102D900090915B01A0915C01B0915D01892B8A2B20
:102DA0008B2B09F05ACF81E090E0A0E0B0E0809357
:102DB0005A0190935B01A0935C01B0935D014DCFEC
:102DC0002091530130915401409155015091560189
:102DD000A0918B01B0918C01E0915801F0915901C3
:102DE0002C5F3F4F4F4F5F4F83E056954795379588
:102DF00027958A95D1F71296B695A795B695A7957A
:102E00000E94741B9F0150E040E00E94871B65E018
:102E1000220F331F441F551F6A95D1F758CF1F92B9
:102E20000F920FB60F9211248F939F93AF93BF937E
:102E3000EF93FF9380915001882309F452C0809151
:102E40004C0190914D01A0914E01B0914F01892B01
:102E50008A2B8B2BA1F190918701E0918801F09151
:102E6000890180818927808380914C0190914D0157
:102E7000A0914E01B0914F01181619061A061B06B3
:102E80009CF480914C0190914D01A0914E01B09124
:102E90004F010197A109B10980934C0190934D0115
:102EA000A0934E01B0934F01FF91EF91BF91AF916D
:102EB0009F918F910F900FBE0F901F9018951092B9
:102EC000500180916F008D7F80936F00809187010A
:102ED000E0918801F0918901908180958923808318
:102EE000E3CF90918701E0918801F0918901808181
:102EF0008927F5CFEEE8F1E01382128288EE93E0A5
:102F0000A0E0B0E084839583A683B78381E391E05A
:102F1000918380838FEF9FEF95878487E6EEF1E0C2
:102F20001382128283E491E09183808315828CE383
:102F300086831086178280E1818712861386148625
:102F4000158616861786108A118A128A138A10929D
:102F5000070610920606109209061092080681E0F4
:102F600080930A06A2EEB1E01196FC93EE938AEFED
:102F700091E013969C938E931297AEEDB1E01C9264
:102F800011961C9211971396FC93EE931297089545
:102F9000789484B5826084BD84B5816084BD85B534
:102FA000826085BD85B5816085BD80916E00816040
:102FB00080936E00109281008091810082608093E6
:102FC00081008091810081608093810080918000E8
:102FD0008160809380008091910082608093910055
:102FE0008091910081608093910080919000816038
:102FF000809390008091C10084608093C100809193
:10300000C10082608093C1008091C1008160809383
:10301000C1008091C30081608093C3008091C00093
:1030200082608093C0008091C20081608093C20062
:1030300080917A00846080937A0080917A00826027
:1030400080937A0080917A00816080937A008091E9
:103050007A00806880937A00109283011092730145
:10306000109275018091D70081608093D70080EA2B
:103070008093D80089B5806189BD89B5826089BD9A
:1030800009B400FEFDCF61E070E080E090E00E94B6
:10309000440E8091D8008F7C80618093D80080910D
:1030A000E000807F8093E0008091E1008E7E80933D
:1030B000E1008DE08093E200559A209ACFB7F89412
:1030C00080916001811127C0EDECFFE08491E0EA7E
:1030D000FFE09491E82FF0E0EE0FFF1FE859F14F69
:1030E000A591B491EC91E92321F461E081E10E9482
:1030F0007D0D61E081E10E94EE0D8CB580618CBD9B
:103100008CB580648CBD61E08FE00E94EE0D61E0C3
:1031100080E10E94EE0D809160018F5F80936001DD
:10312000CFBF61E084E00E94EE0D61E08CE00E9480
:10313000EE0D62E084E10E94EE0D62E083E10E9408
:10314000EE0D62E082E10E94EE0D62E085E10E94F8
:10315000EE0D62E087E00E94EE0D62E088E00E94E2
:10316000EE0D85E00E949F108DE00E949F10E8EC1C
:10317000FFE0E491F0E0EE0FFF1FE255F04F859184
:1031800094919093FF058093FE05EBE9FFE0E491B5
:10319000E0930406E0ECFFE0E491F0E0EE0FFF1FA7
:1031A000E255F04F8591949190930106809300062B
:1031B000E3E9FFE0E491E093050661E086E00E9428
:1031C000EE0D61E086E00E947D0D61E070E080E040
:1031D00090E00E94440E60E086E00E947D0D6AE06F
:1031E00070E080E090E00E94440E61E086E00E9482
:1031F0007D0D0E94C8088EEA0E94891285ED0E940A
:10320000891280EF0E94891288EA0E9489128FE356
:103210000E94891283ED0E94891280E00E94891227
:1032200080E40E9489128DE80E94891284E10E9444
:10323000891280E20E94891280E00E94891281EA4C
:103240000E94891288EC0E9489128AED0E948912DC
:1032500082E10E94891281E80E9489128FEC0E940B
:10326000891289ED0E94891281EF0E9489128BEDEB
:103270000E94891280E40E94891284EA0E948912C5
:1032800086EA0E9489128FEA0E9489120E94C80869
:1032900080E20E94891280E00E94891281E20E94ED
:1032A000891280E00E9489128FE70E94891282E2CF
:1032B0000E94891280E00E94891287E00E94891290
:1032C000E0910006F0910106808190910506892B1E
:1032D0008083E091FE05F091FF05908180910406C6
:1032E0008095892380830E94F108807A803A59F47E
:1032F000CAEFD1E089910E94891235E0CA3FD30715
:10330000C9F70000FECF10925F0182E090E00E94BA
:103310003F1B882321F08BEE91E00E940B118091DE
:103320006400816080936400809164008260809377
:1033300064008091640080688093640080916400E0
:103340008064809364008091650081608093650053
:103350008CE38093EC0180E18093EF011092630194
:1033600083E090E0909362018093610182E090E0BD
:103370000E943F1B882319F081E0809364018091B3
:1033800064008E7F8093640087EC0E94760E8C012F
:103390008EE50E94760EEC010E941F0E009510959E
:1033A000C095D0950C9FD0010D9FB00D1C9FB00D06
:1033B00011249B01AC0120953095409550950E94B9
:1033C000741B6B017C010E941F0E6C0D7D1D8E1DF8
:1033D0009F1D611571058105910511F00E94361B35
:1033E000809164008160809364000AEF11E02AEF0D
:1033F000E22E25E0F22EC0E0D0E0DD24D3942FB7FA
:10340000F8948091660190916701A0916801B09154
:1034100069012FBF2091F801222391F02091F00142
:10342000E82FE21BE093F9012091ED013091EE01CC
:103430002F5F3F4F3093EE012093ED011092F80182
:103440004091F4015091F5016091F6017091F701FE
:1034500084179507A607B7079CF4481B423050F025
:1034600083B7817F83BF83B7816083BF889583B72C
:103470008E7F83BF209709F4C2CF0E940000BFCF88
:103480002091EF01AC01BD01420F511D611D711D65
:103490004093F4015093F5016093F6017093F701A6
:1034A0008093F0019093F101A093F201B093F301A6
:1034B000D092F8018091DE018093DF010E94F10833
:1034C0008093DE0180916401882341F18BEE91E0CD
:1034D0000E940B1180E0B82FB111BFEFF80100245A
:1034E000B193B193B193B1930394D1F7E091630198
:1034F000F0E0EE0FFF1FE05FFE4F0190F081E02D46
:1035000009959AEFA92E91E0B92EF50181915F01FD
:103510000E948912EA14FB04C1F7ACCF1092EB01B0
:103520008091640088608093640080916500886069
:1035300080936500CFCF8F929F92AF92BF92CF9230
:10354000DF92EF92FF92CF93DF93EC016881798154
:103550008A819B81611571058105910521F464E2E1
:1035600079ED8BE597E02DE133EF41E050E00E94EB
:10357000551B49015A019B01AC01A7EAB1E40E9425
:10358000741B6B017C01ACEEB4EFA50194010E94A9
:10359000821BC60ED71EE81EF91EF7FE06C081E08C
:1035A000C81AD108E10880E8F80AC882D982EA82FC
:1035B000FB82C701B6019F77DF91CF91FF90EF901B
:1035C000DF90CF90BF90AF909F908F9008958F9293
:1035D0009F92AF92BF92CF92DF92EF92FF92609153
:1035E0000C0170910D0180910E0190910F016115F8
:1035F00071058105910521F464E279ED8BE597E091
:103600002DE133EF41E050E00E94551B49015A0182
:103610009B01AC01A7EAB1E40E94741B6B017C0121
:10362000ACEEB4EFA50194010E94821BC60ED71E1A
:10363000E81EF91EF7FE06C081E0C81AD108E108AD
:1036400080E8F80AC0920C01D0920D01E0920E01C0
:10365000F0920F01C701B6019F77FF90EF90DF90C6
:10366000CF90BF90AF909F908F90089560930C0182
:1036700070930D0180930E0190930F010895F999B5
:10368000FECF92BD81BDF89A992780B50895262F67
:10369000F999FECF1FBA92BD81BD20BD0FB6F89437
:1036A000FA9AF99A0FBE01960895052E97FB1EF41B
:1036B00000940E946C1B57FD07D00E94871B07FCDB
:1036C00003D04EF40C946C1B509540953095219589
:1036D0003F4F4F4F5F4F089590958095709561953E
:1036E0007F4F8F4F9F4F08950E94A91BA59F900D5C
:1036F000B49F900DA49F800D911D11240895B7FFD4
:103700000C94741B0E94741B821B930B0895A1E2FE
:103710001A2EAA1BBB1BFD010DC0AA1FBB1FEE1F4B
:10372000FF1FA217B307E407F50720F0A21BB30B96
:10373000E40BF50B661F771F881F991F1A9469F712
:1037400060957095809590959B01AC01BD01CF016E
:103750000895A29FB001B39FC001A39F700D811D6A
:103760001124911DB29F700D811D1124911D08958A
:10377000EE0FFF1F0590F491E02D0994F894FFCF10
:10378000FFFFFFFF00E1000000000000010000005B
:103790005F100210F90FDC0FE00F9412D80FD40F56
:1037A0004B0F420F410F00C180810000000000005C
:1037B00000370C8F0E580C4D0C9E0C5C0C7A0C00D4
:0C37C0000000003D11140F911290120047
:00000001FF
