:100000000C94240F0C944C0F0C944C0F0C944C0F2C
:100010000C944C0F0C944C0F0C944C0F0C944C0FF4
:100020000C944C0F0C944C0F0C94DC1A0C944E1B3B
:100030000C944C0F0C944C0F0C944C0F0C944C0FD4
:100040000C944C0F0C944C0F0C944C0F0C944C0FC4
:100050000C944C0F0C944C0F0C944C0F0C94761E7B
:100060000C944C0F0C944C0F0C944C0F0C944C0FA4
:100070000C944C0F0C944C0F0C944C0F0C944C0F94
:100080000C94781F0C944C0F0C944C0F0C944C0F48
:100090000C944C0F0C944C0F0C944C0F0C944C0F74
:1000A0000C944C0F0C944C0F0C944C0F6D23A32309
:1000B00062329F240025C82562328531A23117198A
:1000C0001B19201926192C193119441944194419DE
:1000D0004419441944194419441944194419441938
:1000E0004419441937193D19D5F08D14A1C881CF91
:1000F000D9F1AF20005810F0F89C8E8783878E9C32
:10010000F8F00000FEFF0303030303070EFCF800F2
:1001100000FEFF0303030303070EFCF80000FFFFCC
:1001200000000000000000FFFF0000FEFF8383834B
:100130008383C7EE7C380000F8FC0E070303030737
:100140000EFCF800003F7FE0C08080C0E07F3FFFF2
:10015000FF01010101010101FFFF0000FFFF0C0C85
:100160000C0C1C3E77E3C100007FFFC0C0C0C0C0C4
:10017000E0703F1F00001F3F70E0C0C0C0E0703F54
:100180001F00007FFFC1C1C1C1C1E3773E1C000059
:100190001F3F70E0C0C0C0E0703F1F0000000000C3
:1001A00001FFFF01000000C72018020400015400F5
:1001B0000000000000155400000000000005500081
:1001C000000000000001500000000000000150008D
:1001D00000000000000140000000000000000000DE
:1001E000000555540FF55F03FC01555003F55C0005
:1001F00000000540000550000000004000055000D0
:10020000000000000005540000000000000554003C
:10021000000000000005540000000000000555002B
:10022000000000000005550000000000001550000F
:100230000000000000155000000000000005500004
:10024000000555000005400000155550000100153F
:10025000555555554001555AAAAAAA95540056A974
:10026000555555AA5555565555555556555527105A
:10027000080204000155555555555555555500155D
:100280005150000041400000010000000555557F1D
:100290005555555555E7103802040001555555552B
:1002A0005415405550000015400000054000000561
:1002B000000FC0015F0000005C00003D5000000D19
:1002C00050FFFC014000000140000001000003F568
:1002D0007C0000F570FFC01540000055400001553E
:1002E00040000155400FC155400000557F000055AA
:1002F00040000055400FC0554000001543C00005A8
:1003000040000001500FC00040000035000003F520
:100310007C00003D700FC001400000017F0003D54C
:100320005C000015500FC001400000017F0003F584
:100330005C000015500FC001400000015F0003F594
:100340005C0000D5500FC015500000157F0003F56C
:100350007C000005403FC0004000001554000055DF
:100360005400055550FC05554000155540015555A4
:10037000005555555555555555555555872010021D
:10038000040001555555555555555540000000057B
:100390005401555000550000500015540015000040
:1003A000100005540007FC00000000A5000000003C
:1003B00000037569000000FC0FC0F569FC00000037
:1003C000000035550000000140001550003F0005B9
:1003D0004000155000000015500005500000055564
:1003E0005000054000001555540001401555555565
:1003F000554005555AAAAAAA95541555595555550B
:100400009555556730080204000155555555555509
:100410005555555555555555000000054155540045
:1004200001555540000000000055400000155000E7
:10043000015550000015000000054000055554000E
:1004400000050055000140015556940000010014BC
:1004500000010055AAAA955400000000000055555F
:10046000955555555555555555558720100204003D
:1004700001640010000005555564000000000141B2
:100480005564000000000100156400000000000039
:100490000564001554000000056500055550000175
:1004A000556500005555055555A5FC000000005543
:1004B00055550000000000115550003F000000009D
:1004C0001550000000155000055000000555500063
:1004D000054015401555540001405555555555409A
:1004E00005015AAAAAAA9554155559555555955519
:1004F00055C73010020400015555555555555555F1
:10050000555555555541000140015555400055552B
:100510005540000000001550000011555500000026
:100520000000004000000015550000000000000021
:1005300000000005550000541540000000000000B8
:1005400055400154055000001550FFF5457C015001
:100550000554000015400055417C0F5001154154D1
:100560000540001540000040000500500040000517
:100570000000004140000000000000015543F00071
:100580000000000000000001550000000000000015
:100590000000000555000000000000005540000567
:1005A00055FFFFFFFFFFFFD555500155AAAAAAAA84
:1005B000AAAAAA9555555555874008020400015529
:1005C00055555555555555555555555555555554DC
:1005D000014050541550554405500555555555503A
:1005E000000040000540010001400150544055F01A
:1005F0000000000004400000004000401000050022
:10060000000000000000000000000040000001FFAA
:10061000F00000000000000000000000000000AA40
:100620005FC0000000000000000000005555555656
:100630005555555555555555555555555555558738
:10064000201002040001555555555555555540008B
:10065000000005540155500055000050001554008D
:10066000150000100005540015550000000557F056
:100670000155500000F555C0001555FFC03555C057
:100680000000557C003555C00000055C03D555C001
:1006900000000154001555C000000057C0057FC080
:1006A00000000054000F6AC0000000000F0062FF4D
:1006B000FFFFFFFFFFFF6AAAAAAAAAAAAAAA555586
:1006C00055555555555547200802040001555555B7
:1006D000555555559544055000005555AA40000004
:1006E000000014405540000003F00000057FFFFFAC
:1006F0000040000001540000015400000000000010
:1007000005554001555555555555555555A7102872
:100710000204000155555555AAAAAAAA5555555582
:100720004041401540000005000000015400000059
:10073000550003D557C000155400001A500FC019BA
:1007400040000019400003D97C000019700FC01947
:10075000400000197F0003D95C000019500FC01938
:1007600040000019400003D9000000197C0FC01997
:1007700050000019500003D9500000D9500FC01983
:10078000500000195F0003D95C000019503FC019E8
:1007900050000019540000595400055950000559E3
:1007A000400015590001555955555559AAAAAAA9ED
:1007B000555555558720100204000155555555557E
:1007C000555555AAAAAAAAAAAAAAA95FFFFFFFFF80
:1007D000FFFFF97C0FFFFC000000F97003FFF00041
:1007E0000000394000FFC0FC00003900003F00005D
:1007F0000000395C000F00000000395FC00F0000EE
:10080000000039AC000FFFFFF000396C000FFFFF54
:10081000C0FFF96CFF000000003FF96C3C000000D5
:1008200003FFF96FFFFFFFFFFFFFF96AAAAAAAAA59
:10083000AAAAA9555555555555555567300802046E
:100840000001555555555555555555555555555402
:10085000055555455005555010155400015540019A
:1008600040005040000550000000000040004000E3
:1008700000015001555555400000000000004005A2
:1008800055AA5550000000000055001555965555C5
:1008900000000055555555555596555555555555C6
:1008A0005555671018020400010ED555550ED55543
:1008B000550EFFFFFD0EC0000D0EC0000D0EC00056
:1008C0000D0EC000000EC00FD50EC000D50EFF00EB
:1008D000D50EC000D50EC00FD50EC000F50EFF001E
:1008E000F50EC000150EC00F540EC001550EFF01CD
:1008F000550ED40F550ED400153ED540153E55501B
:10090000057E5554005655555567300802040001C0
:1009100055400000155550000000005555000000DE
:1009200001455005500000155400005000014001E1
:100930004000000550000040000040004000000161
:100940005000000000000000000000014000000016
:100950000000000000000001000000000000000096
:10096000000000005555555555555555555555558B
:1009700087201002040001555555555555555555BC
:10098000555555400055555400155000001155401F
:1009900000004000000015400000000000000500BD
:1009A000000000000000055FF500001550FFF55045
:1009B00005400011401555400100540140015540CB
:1009C000000550004001054000000000000001400B
:1009D00001400000000001500150000000000555DA
:1009E0000555555555555555555555555555555507
:1009F000555555555555558720100204000156553B
:100A0000555555565555AAAAAAAAAAAA515555559B
:100A1000555555554015550000000010000554006F
:100A200000000000000055503FFFFFFFFFF555405C
:100A3000003FFFFFFFF55500000003FF777555FCF1
:100A4000000000FF775550003F00003D5555500015
:100A50000000000D555550FF000000000115543CEA
:100A60000000000000155555540000000055555574
:100A70005555555555595555555555555555874005
:100A800008020400015555555555555555555555B0
:100A900055555555555FFD40505414055544055066
:100AA00005555555555EAC00400000014100014020
:100AB00001505440555EEC00000000000000004072
:100AC00000401000055EAFFC0000000000000000C8
:100AD00000400000015FFD710FFC00FAAF00000054
:100AE00000000000005555714000143BEC05550016
:100AF000000055555555555555555559655555553C
:100B00005555555555C730100204000155555555DA
:100B100055555555555555555541000140015555AB
:100B2000400055555540000000001550000011557B
:100B300055000000000000400000001555000000B6
:100B400000000000000000055500007FFFFD400090
:100B5000000540055540017C000D500015555555C8
:100B6000FFFC01500001500015555555FFFC0F507A
:100B70000001555405555015F0000040000D555426
:100B800000451005000000414001555500010001DD
:100B9000FFC3F0000005555540000001550000005E
:100BA000015555555000000055FFFFFF555555554F
:100BB00055555555AAAAAAAAAAAAAAAAAAAAAAAAE9
:100BC0005555555555555555555555558720100270
:100BD0000400015555555555559557AAAAAAAAAAD4
:100BE000AABFFF6FFFFFFFFFFFF0006C00000000D7
:100BF00000003F6C000000000000396C00000000A5
:100C00000000396A000000000000AA6C000000002B
:100C10000000396C00003FFC0000396C000000004F
:100C20000000396A000000000000A96C00FC000010
:100C30003F00396C000000000003396FFFFFFFFF29
:100C4000FFFFF9AAAAAAAAAAAAAAAA5555555555B4
:100C50005555550808000000000000000000000085
:100C60000000000000000000000000000000000084
:100C70000000000000000000000000000000000074
:100C80000000000000000000000000000000000064
:100C90000000000000000000000000000000000054
:100CA0000000000000000000000000000000000044
:100CB0000000000000000000000000000000000034
:100CC0000000000000000000000000000000000024
:100CD00000000000001E0F77639FCF471E00030334
:100CE0001B30453D0D1E0F77639FCFD7CF3F1F6B46
:100CF0007085DDDD58FEFF07639F0FFFFEFFFF7B62
:100D00007085DDFFFFFEFF07639FCFD7CFFFFF7B1F
:100D10007085DDDDD8D78F77639FCF471EDB837B60
:100D20007085CD471FD78F77639FCFD7CFDB837B6E
:100D30007085DDDDD8D78F77639F0FFFFEDB837B68
:100D40007085DDFFFFD78F77639FCFD7CFDB837BA6
:100D50007085DDDDD87EFFC183C5A3FF7E7FD5C84A
:100D6000C0C0C4EA7F7EFFC183C5A3C183FFEDD0AD
:100D7000A0C081C283FE578B030347ABFEFF552201
:100D8000000011AAFFFFB70B0503018381FF552265
:100D90000000018283C5A3C183C5A3FF7E83C182F6
:100DA000C0A0D0EDFFC5A3C183C5A3C183C3A1C2A9
:100DB00080C0A1C283C3810303050B57FFC3810217
:100DC000000011AAFFC583010305038183C38102CB
:100DD0000000018283FFC3A78B93A7C3FF01030514
:100DE00009090503010103070B132743FF0103074B
:100DF0000B132743FFFFC3A78B93A7C3FFFFC3A515
:100E00008991A5C3FFFFC3A78B93A7C3FFFFC3A50A
:100E10008991A5C3FFFF4327130B070301FF432756
:100E2000130B070301FFC3A78B93A7C3FFFFC3A542
:100E30008991A5C3FFFFC3A78B93A7C3FFFFC3A5DA
:100E40008991A5C3FFFFC3A78B93A7C3FFFFC3A5CA
:100E50008991A5C3FFDC00640000001900580264FA
:100E600000000019007003F40100801A060000065B
:100E70000E020006010000140C02001401011F05FF
:100E80000F011F15020A0200000506050E040136B7
:100E90000D0000050000000C1002000C0100001CF9
:100EA0000300003507010F0604010F1A06010F2E7B
:100EB00009150708011506110115081D01150B2755
:100EC00001150330011A06011F0402140501011463
:100ED000110101141602011510050116050C011E61
:100EE0000700000602012F0605140901011419016B
:100EF0000114260501152703011723060122080006
:100F0000000E04140B060114130701150E0301153E
:100F10000C0801161A05010A1E0401041E04012A08
:100F20000A00000A02012F0501140801011416012C
:100F300001141D030114250101150C0401151404ED
:100F4000011521050117070D012208000004080101
:100F50003F050214060101141A0101141A010114BB
:100F6000270301170F0601172006010E03011F0CAE
:100F700007021F0C0118050C011A060000060201E9
:100F80001F050A14050101140A01011417020117B3
:100F90000203012A0A0000050900001511020015CC
:100FA000010000241202002401010F060B15070D99
:100FB00001150515011509190115051F012609005F
:100FC00000060A1505070115090901150C0B011585
:100FD0000D0C0115140B01151A0C01161004010853
:100FE0001C080122080000060D02000601012F0462
:100FF00000022F040114090101141D01011428012C
:1010000001161806011E07010F060E020F06010148
:101010000F160C020F1601150D0501150A0A011510
:10102000060E011E070000060D02000601012F0634
:1010300000022F060114150101170C0601172006E6
:10104000011E070000050014050201140D03011420
:1010500014010116030C01161D0C01091E05011EC9
:1010600007011F0402021F040115080401150607E9
:1010700001140F0701160B0D01161B0D01260901A6
:101080003F050A023F050114190101142D01011445
:10109000370201152004011628060117080301066E
:1010A0000703012A0A00000A1302000A01012F0C9B
:1010B0000A022F0C011405010114150101142A085C
:1010C0000115190401160C0C01170C04011A060174
:1010D0001F0212021F02011903060119030A011956
:1010E0001B06FF191B0AFF08080000000000181863
:1010F0003C183C00180000000000000018183C3CA0
:101100007E3C7E183C001800000018183C183C1863
:101110003C183C183C183C00180808000000242427
:101120007E183C183C247E00240000004242EF0858
:101130007E207C043E107E42F7004208083C7E423E
:10114000FF99FFBDFFBDFF99FF42FF3C7E10083CA9
:101150007E7EFF7EFF42FF3C7E7EFF7EFF42FF3CA5
:101160007E247E247E7EFFDBFFA5FFA5FF40E53CBD
:101170007E7EFF7EFF42FF3C7E7EFF7EFF42FF3C85
:101180007E247E247E7EFF5AFF5AFF5AFF247E0073
:10119000A5A5FFA5FFDBFF7EFF247E247E3C7E42CB
:1011A000FF7EFF7EFF3C7E42FF7EFF7EFF3C7E0097
:1011B0005A5AFF5AFF5AFF7EFF247E247E3C7E420D
:1011C000FF7EFF7EFF3C7E42FF7EFF7EFF3C7E1067
:1011D00008000000E0E0F0F0F8F8FCFCFEFEFFFE86
:1011E000FFF6FFF6FFFCFEF8FCF0F8E0F000E00090
:1011F00000000000F0F0F8F8FCFCFEFCFEFEFFFE34
:10120000FFFEFFF6FFF4FEFCFEF8FCF0F800F00035
:1012100000007070F8F8FCFCFEFCFEFCFEFCFEFC1E
:10122000FEFCFEFCFEECFEECFEFCFEF8FC70F800A2
:1012300070000000F0F0F8F8FCFCFEFCFEFEFFFE83
:10124000FFFEFFF6FFF4FEFCFEF8FCF0F800F000F5
:101250000000000000007878FCFCFEFEFFFFFFFFAE
:10126000FFFBFFFBFFFEFFFCFE78FC0078000000A8
:1012700000080800181CBEBCFE7AFFFFFFFFFFBE7F
:10128000FF1CFE1C7E6EFFFEFFFDFFBFFF7FFF7693
:10129000FF387E387C1C7F7DFFFFFFFFFFBEFF38DD
:1012A000FE1C3E66FFF3FFBFFF3EFF7CFFFDFFCF4E
:1012B000FF66FF1CFEBEFFFFFFFFFF7AFFBCFE1CA8
:1012C000BE001C387F76FF7FFFBFFFFDFFFEFF6E75
:1012D000FF1C7F1C3E38FEBEFFFFFFFFFF7DFF1C93
:1012E000FF387C66FFCFFFFDFF7CFF3EFFBFFFF3B3
:1012F000FF66FF0808F0FE0EFF083E3078307808E1
:101300003E0EFFF0FEE0F010FE0E3F307E307E0E0F
:101310003F10FEE0F8C0E020FC1C7E70FC70FC1C5E
:101320007E20FCC0F0F8FF07FF041F183C183C04A7
:101330001F07FFF8FF080810383078387C387C3CED
:101340007E3C7E3C7E387C387C3C7E3C7E3C7E38DD
:101350007C387C3078103808080001010303070747
:101360000F070F03070103000100000007070F0F1D
:101370001F0F1F070F000700000018183C0C1E0667
:101380000F060F0C1E000C0000008080C0C0E0E0C3
:10139000F0E0F0C0E080C00080000000E0E0F0F08D
:1013A000F8F0F8E0F000E000000808003C3C7E6641
:1013B000FF5AFF5AFF66FF3C7E003CDBFF83FF7B4A
:1013C000FF70FF85FFDDFFDDFFD8FF003E1CFFBE85
:1013D000FF00FF14FFBEFF1CFF003E183C247E24CC
:1013E0007E183C083C387C083C387C003C3C7E7EC7
:1013F000FF76FF42FF7EFF3C7E003C003C3C7E7E51
:10140000FF4AFF52FF7EFF3C7E003C083E227F08E1
:101410007F5DFF087F227F083E00080808081C0C3B
:101420001E0C1E0E1F0E1F0C1E0C1E081C000000A2
:1014300000000000FFFFFF7EFF187E00181038300C
:1014400078307870F870F8307830781038001818E4
:101450007E7EFFFFFF00FF0000000000000808FF85
:10146000FFA5FFFFFF00FF000000000000000000DC
:101470000000000000000000FFFFFFA5FFFFFF07C6
:101480000F050F070F050F050F070F050F070FE0DB
:10149000F0A0F0E0F0A0F0A0F0E0F0A0F0E0F000AC
:1014A000FFFFFFA5FFFFFFFFFFA5FFFFFF00FF7E80
:1014B000FF5AFF7EFF5AFF5AFF7EFF5AFF7EFF084A
:1014C00008048E84EEE4FF13FFB5FFC6FF00C600DC
:1014D00000040E040E04BFB3FFF5FF26FF60FE00FC
:1014E00060040E046E64FFD3FFF5FF06FF000600E4
:1014F00000040E042E247F53FF35FFC6FF00C600F4
:1015000000000000C6C6FFB5FF13FFE4FF84EE0431
:101510008E006060F626FFF5FFB3FF04BF040E04E3
:101520000E0000008606FFF5FFD3FF64FF046E0483
:101530000E000000C6C6FF35FF53FF247F042E04B3
:101540000E05080E1915130E00121F10001915159F
:101550001512111515150A0704041E041715151583
:10156000090E1515150801011905030A1515150AA7
:10157000021515150E10106060ACEC94FC04FC0410
:10158000FC04FC14FC1CFC10F020E020E020E02017
:10159000E0A0E0A0E0606003031A1B141F101F10FE
:1015A0001F101F141F1C1F04070203020302030263
:1015B00003020302030303000000006060B8F808A0
:1015C000F808F828F838F820E020E0A0E0A0E06073
:1015D000600000000000000000000003030E0F0880
:1015E0000F080F0A0F0E0F02030203020302030388
:1015F000030000000000000000000000000000E008
:10160000E020E020E060E040C040C0C0C00000003A
:1016100000000000000000000000000000000003C7
:1016200003020302030303010101010101000000A1
:1016300000000000000000202000000000000080EA
:1016400080C0C0E0E0F0F0F8F8F8F8FCFCFCFCFE2C
:10165000FEDEFE0EFE06FE12FE00FE04FE0CFE0E78
:10166000FE1CFC1CFC38F838F8F0F0E0E0C0C0804C
:101670008000000000000000000000F8F8FEFEFFFF
:10168000FFFFFFFFFFFFFFFFFFFFFFFFFFFFFFBFAA
:10169000FF3FFF08FF00FF00FF00FF80FF80FFE328
:1016A000FFFBFFF8FFFEFFFEFFFFFFFFFFFFFFFF57
:1016B000FF7EFE38F8C0C0000000000F0F3F3F3F24
:1016C000FF3FFF7FFFFFFFFFFFFFFFFFFF3FFF3FEA
:1016D000FF3EFF3CFF70FFC0FFCEFFFFFFFFFFFF9D
:1016E000FFFFFF7FFF07FF03FF01FF01FFC3FFC0F5
:1016F000FFF0FF3F3F070700000000000000000070
:101700000000010003000F010F031F031F043F042B
:101710003F043F043F097F067F077F073F0F3F27B6
:101720003F333F383F1C1F1C1F0F0F0707030301E8
:1017300001000000000000000054484520504C41CA
:101740004E4554204F46205455524E41580A484168
:101750005320455854454E53495645204D494E4512
:1017600052414C0A4445504F53495453204F462050
:10177000484947480A56414C554520544F20544843
:10178000450A494E544552504C414E4554415259D8
:1017900020414C4C4945440A434F4E46454445522E
:1017A0004154494F4E202849504143292E0A524561
:1017B00043454E5420554E414E544943495041549F
:1017C00045440A41545441434B53204259205052FE
:1017D000494D41544956450A5350454349455320C4
:1017E000484156452050524F56454E0A44414D41BE
:1017F00047494E4720544F204D494E494E470A4FC6
:101800005045524154494F4E532E20006009C800A4
:101810006400C8006009C8006400E803280AC80022
:101820006400C800280AC8006400E803C409C800AE
:101830006400C800C409C8006400E8030000640034
:101840006400E80300800808FF9F83F9CDC1FFFF13
:101850008008B8A8E800F820F800F8887000F84080
:10186000F800F840F800C8A89800F868B800F888B0
:1018700070000000000000000000000000000000F8
:101880000000000000000000000000000000000058
:101890000000000000000000000000000000000048
:1018A000000000F820D800F880F800F868B800F8C8
:1018B00088F800F870F800F888F800F840F800F8A8
:1018C00028F800F8888800F820F800F828F800F8D0
:1018D00070F828400000000000000000000080C0F8
:1018E000C0E0E0E0F0F070707070F0F0E0E0E0C0B8
:1018F000C0800000000000000000000000000000A8
:101900000000E0FCFEFFFFFFFF3F07031140600007
:101910000060401103073FFFFFFFFFFEFCE00000F7
:1019200000000000000002020303043F7CFCFCFFF7
:10193000FCE30300230B1B00001B0B230003E3FC51
:10194000FFFCFC7C3F0403030202000000000000D7
:10195000000010F0E0C0C1C3E3E7FFFEFC000000A0
:10196000000000FCFEFFE7E3C3C1C0E0E0F01000B0
:10197000000000000000000000000000FC04F4145F
:10198000F404F4244424F404F4541404F414D404A7
:10199000F494F404FC0000000000000000000000CB
:1019A000FE02FA22FB00F989F900F968B8400188C3
:1019B000F98901C8A99901F889F801F83342FA02B6
:1019C000FE000000000000000382C262B2525252C8
:1019D00052B2624242424242424242424242424247
:1019E00042424242C2020202030000000000000024
:1019F000001F306FD0A6A9A9A0D06F405D555340FD
:101A00005F515F40405F404041415F407F000000C8
:101A100000000000C800C8009001C800C800C8004D
:101A20009001C8004B02C8009600640000006400EA
:101A300096006400000064009600640000006400EA
:101A4000C800C8009001C800C800C8009001C800C4
:101A50001003C80096006400000064009600640053
:101A6000000064009600640000006400C800C80024
:101A70009001C800C800C8009001C8004B02C8000F
:101A8000960064000000640096006400000064009A
:101A900096006400000064000080404000000000E8
:101AA0000000000000000000000000000000000036
:101AB0000000000000000000000000000000000026
:101AC0000000000000000000000000000000000016
:101AD0000000000000000000000000000000000006
:101AE0000000000000007777770070707000000041
:101AF0000000777777000077777700070707000700
:101B000007070000707777070007777770000000FD
:101B100000000000000000000000000000000000C5
:101B2000000000000000777777000000070777705B
:101B30007000777777000077777700070707000056
:101B400000000000777777000000777777000000CB
:101B50000000000000000000000000000000000085
:101B60000000000000000707070000000000000060
:101B7000000007070700000707070007070700071F
:101B8000070700000007070700070707000000001D
:101B900000000000000000000000000000777777E0
:101BA0000007070700DCDCDC000077777700070719
:101BB0000700070707000007070700777777000788
:101BC000070700007777770007070700DCDCDC00F9
:101BD00000707777070007777770000000777777D6
:101BE000000707777071010100007777770007071A
:101BF0000700000000000000000000777777000079
:101C00000000000077777700070777707101010007
:101C100000777777000000777777000000070707E5
:101C2000000000000007070700000707070007077C
:101C30000700070707000000000000070707000073
:101C4000000000000707070000000000070707006A
:101C5000000007070700070707000000000000005A
:101C60000000000000000000000000000000000074
:101C70000000000000000000000000000000000064
:101C80000000000000000000000000000000000054
:101C90000000000000000000000000009600580254
:101CA0000000C800640058020000C8003200E803C9
:101CB0000080DC006400000019005802640000008D
:101CC00019007003F40100002C01580264000000A8
:101CD0001900DC00640000001900580264000000D4
:101CE0001900DC00640000001900E80358020080BD
:101CF000780064000080010204081020408000B0D9
:101D00000000A170E150964F26900F1D070C009621
:101D100069004AE44A0048444000806810000F9976
:101D2000FB8F99BDBBF977D4D4DF1F1A1AFE7F5DF4
:101D30005DFF805A0000A0A4AA0010BA3400FF5929
:101D400053F3FF9B9B9EFFB9B996FF9595D19FF4E6
:101D5000940FFC295F91FF1838F8FF9294FFFF95CC
:101D6000D5F77FD5DDD7F18F81F1F788C8F779C630
:101D7000467909FD9B090196F800828182805071A5
:101D800062007756560076763700A2B77301077265
:101D900006007827500073347400775176007F5521
:101DA000F70047711000324772007364730015A288
:101DB000750061679400009F6060F4F2F6F2080B12
:101DC00000020202010009040000010202000005F5
:101DD0002400100105240101010424020605240643
:101DE00000010705810310004009040100020A00F8
:101DF00000000705020240000007058302400000C2
:101E00000403090441726475696E6F204C4C4300F1
:101E100041726475696E6F204C656F6E6172646F9C
:101E20000012010002000000404123368000010141
:101E300002030112010002EF02014041233680003B
:101E40000101020301009D3311241FBECFEFDAE030
:101E5000DEBFCDBF28E0AEECB1E001C01D92A230E4
:101E6000B207E1F711E0A0E0B1E0E4EBFEE602C06A
:101E700005900D92AE3CB107D9F71FE0C4E2DFE058
:101E800004C02197FE010E94BA34C332D107C9F7BA
:101E90000E942D210C9458370C9400008F929F9231
:101EA000AF92BF92CF92DF92EF92FF920F931F9368
:101EB000CF93DF938C016B0198E0E92EF12CE42F96
:101EC000E695E695E695F0E0CA0187709927892B9B
:101ED000C1F5D8011696CD91DC911797C6019927C7
:101EE000BE010E94A634D80150964D915C91519745
:101EF000992714966D917C911597452B91F4EC9F41
:101F0000A001ED9F500DFC9F500D1124840F951FD3
:101F1000FB01E80FF91FC22FC09520812C232083DD
:101F200032C0EC9FA001ED9F500DFC9F500D11247D
:101F3000840F951FFB01E80FF91FC081C22BC083DE
:101F400022C0C22FD0E04770A42EB12C4F0183E0F5
:101F5000880C991C8A95E1F79E0101C0220F4A95D1
:101F6000EAF7A401B601C8010E944E0FC7018A1901
:101F70009B0902C0D595C7958A95E2F72C2FA4013D
:101F8000485F5F4F9CCFDF91CF911F910F91FF90E2
:101F9000EF90DF90CF90BF90AF909F908F9008957B
:101FA0008F929F92AF92BF92CF92DF92EF92FF9269
:101FB0001F93CF93DF93EC016A3061F48C859D858C
:101FC0009B878A872B898E859F85820F911D9F878E
:101FD0008E875EC0AA84BB84693031F489E0A80E84
:101FE000B11CBB86AA8654C0EE84FF849DEFA9165F
:101FF0009FEFB90654F48A8990E004962A853B85C0
:10200000820F931F9B878A8743C08E819F81A8166A
:10201000B9068CF78DEFE8168FEFF80664F3888524
:102020009985E816F9063CF7603208F46FE780EE10
:10203000860F9FE9960F9A3118F49FEFE91AF90A73
:102040008C3011F08B3119F49FEFE91AF90A86955B
:1020500094E0899F60011124812C912C162F11701E
:10206000F401EC0DFD1DE250F34E24911111229567
:102070002F70B4016A0D7B1DA701CE010E944E0F87
:102080008FEF881A980A94E08916910449F7B3CF24
:1020900081E090E0DF91CF911F91FF90EF90DF9072
:1020A000CF90BF90AF909F908F9008954F925F9286
:1020B0006F927F928F929F92AF92BF92CF92DF9258
:1020C000EF92FF920F931F93CF93DF9300D000D036
:1020D000CDB7DEB749012C2DA02EB12CDC01AA0D05
:1020E000BB1D1A161B060CF0B3C1803891050CF00D
:1020F000AFC1FB01EE0DF11D1E161F060CF0A8C1AD
:10210000603471050CF0A4C14115510509F4A0C15A
:10211000FB0177FF04C0EE27FF27E61BF70B3E2FDE
:102120003770732EFB0177FD379633E0F595E79511
:102130003A95E1F73E2F77FF07C0772029F03FEF70
:102140003E0F68E06719762E97FF05C0EE27FF2740
:10215000E81BF90B02C0E0E0F0E0A038B10524F084
:1021600060E8F62EF81A01C0F02EFE1A632F032E37
:10217000000C770B3F3F1CF4A62FA09501C0A0E0F8
:1021800011E0BE2DB77009F410E0E694E694E694F1
:10219000E10E6E0D711D693071051CF068E0E62ED0
:1021A000E31AEA1A3A0F60E83603800D911D1124F4
:1021B0008E0F9F1FA09FE00DF11D11244E0F5F1F7A
:1021C00061E070E0072C02C0660F771F0A94E2F707
:1021D000233009F4FCC098F4213009F4AEC0223059
:1021E00009F036C12FEF269F8001279F100D112483
:1021F000009510951C830B835C80E30E27C02A3F5B
:1022000029F02B3F09F024C1E30E83C0E30E4EC03A
:10221000FA01EC0DFD1DE491E69F4001E79F900C53
:1022200011249A82898237FD04C02C912023822AAE
:102230008C92711014C0EFEFCE1ADE0A1196CF14F3
:1022400038F33F5F4A0D5B1D80589F4F3E1509F4E0
:10225000FFC0DC01AE53BC4FC12CD12CF0CF3730C6
:1022600054F7FD01E058FF4F208125219A8029294C
:102270002083E1CFFA01E00FF11FE491E69F6001B6
:10228000E79FD00C1124DA82C98237FD03C02C915C
:10229000C22ACC92711013C00F5F1F4F11960F15F9
:1022A00048F33F5F4A0D5B1D80589F4F3E1509F470
:1022B000CFC0DC01AE53BC4F00E010E0F0CF3730B0
:1022C0005CF7FD01E058FF4FD0802A812D29208343
:1022D000E3CFFA01EC0DFD1DE491E69FD001E79FED
:1022E000B00D1124BA83A98337FD05C0A095F8016C
:1022F0002081A223A083711015C0FFEFCF1ADF0A3F
:102300000F5F1F4FCF1428F33F5F4A0D5B1D8058AE
:102310009F4F3E1509F49CC08C010E531C4FC12CDD
:10232000D12CF0CF37304CF7F801E058FF4F2A811D
:102330002095A0812A232083E0CFD401AE0FBF1FB8
:10234000E30E3E1509F484C0FC01EE53FC4F4F012F
:10235000C12CD12CCF1498F5FD01EC0DFD1DE4919D
:10236000E69F8001E79F100D1124009510951C83B6
:102370000B83FA01EC0DFD1DE491E69F2001E79F20
:10238000500C11245A82498237FD05C0F401208186
:102390000223402A4082772059F037304CF4F40170
:1023A000E058FF4F10812C8121231A81212B20839B
:1023B000FFEFCF1ADF0A2FEF821A920ACBCF3F5FCF
:1023C0004A0D5B1DAA0DBB1D80589F4FBACFCF2C65
:1023D000D12CE40FF51FDC01AE53BC4FAC014E5BBA
:1023E0005B4F00E810E00C191D09AC18BD08AA0CE1
:1023F000BB1C6F2C2E2DCF93DF93EA018590C590E7
:10240000772059F0869E4001C69E600137302CF43B
:102410009881D0949D219929999333233AF09C91E6
:10242000C0949C2198299D930C9417121196FA94AC
:1024300029F7EA9451F0F62C33951124EA0DF11D99
:10244000A00FB11DC00FD11DD9CFDF91CF911124A5
:102450000F900F900F900F90DF91CF911F910F91E0
:10246000FF90EF90DF90CF90BF90AF909F908F90B4
:102470007F906F905F904F9008958091D70108955D
:102480000895CF92DF92EF920F931F93CF93DF9334
:102490004115510591F1FA0104913196E4904E5F96
:1024A0005F4F222321F130E0220F331FC02FD0E0F5
:1024B000AE2DA695A695A695EA2FF0E0A1E0B0E096
:1024C0001E2D177011F4A0E0B0E0AE0FBF1FCA9F21
:1024D0006001CB9FD00CDA9FD00C11242C9DF00111
:1024E0002D9DF00D3C9DF00D11244E0F5F1F23E03C
:1024F000C22E20E030E00E945610DF91CF911F9154
:102500000F91EF90DF90CF900895CF92DF92EF92EE
:102510000F93CF93DF934115510569F1FA010491AF
:102520003196E4904E5F5F4F2223F9F0C02FD0E048
:10253000AE2DA695A695A695EA2FF0E0A1E0B0E015
:102540003E2D377011F4A0E0B0E0AE0FBF1FCA9F60
:102550006001CB9FD00CDA9FD00C11242C9DF00190
:102560002D9DF00D11244E0F5F1F2AEFC22E20E08B
:1025700030E00E945610DF91CF910F91EF90DF90E5
:10258000CF9008952D9A0895BC0180E090E00C94BE
:10259000B01D8FB12CB193B130E0209530952074EF
:1025A0003327A90123E0559547952A95E1F7292F6F
:1025B00030E0209530952071332735952795359556
:1025C0002795242B8095807F822B089583B7817F68
:1025D00083BF83B7816083BF889583B78E7F83BFB6
:1025E00008958EBD00000DB407FEFDCF0895CF9372
:1025F000DF931F92CDB7DEB76091D70182E090E004
:1026000069830E94DF366981681739F082E090E0C3
:102610000F90DF91CF910C94E7360F90DF91CF911F
:1026200008951092D7013E983F9808953E9A3F9A98
:1026300081E08093D701089560387105D0F440346B
:102640005105B8F4E6EFFCE180E1849FD001A07869
:102650001124A60F4770E40FF11DE491AE53BC4F57
:10266000222319F04C91E42B03C0E0954C91E42314
:10267000EC930895982F93702091D5013091D60155
:1026800086958695F901E955FE4F911112C0E491A6
:10269000E695E695A9016E9F400D511D1124FA01A2
:1026A000E80FF11DE355FE4F84918295869586953E
:1026B0003BC09130A9F4E491E695E695A9016E9F9F
:1026C000400D511D1124FA01E80FF11DE355FE4F95
:1026D000849190E034E0959587953A95E1F724C090
:1026E0009230A1F4E491E695E695A9016E9F400D24
:1026F000511D1124FA01E80FF11DE355FE4F84919D
:1027000090E095958795959587950EC0E491E6950F
:10271000E695A9016E9F400D511D1124FA01E80FA5
:10272000F11DE355FE4F8491837008959C0137FF9E
:1027300004C088279927821B930BBC018038910520
:102740002CF037FD3AC060E470E03CC08430910565
:102750006CF1B9012F3F8FEF38079CF037FF02C0B3
:102760006F5F7F4F75956795072E000C880B990B4F
:102770000E94653520E030E040E05FE30E94C13414
:1027800012C037FF02C06F5F7F4F75956795072EA8
:10279000000C880B990B0E94653520E030E040E08A
:1027A0005FE30E94C0340E942D350CC0892B51F08C
:1027B00037FD06C061E070E005C060EC7FEF02C04D
:1027C0006FEF7FEFCB010895E4E5FCE08491E091A9
:1027D000D501F091D601E855FE4FE4918E9FC001DE
:1027E00011240895E3E5FCE08491E091D501F09196
:1027F000D601E955FE4FE4918E9FC0011124089542
:10280000CF93DF9300D000D000D0CDB7DEB723E167
:10281000829FC0011124FC01E359FD4F878584315B
:1028200054F4808191819A838983828193819C83EE
:102830008B8388E063C0843161F48081918101964B
:102840009A8389838281938101969C838B8386E01E
:1028500036C0853159F4808191819A838983828140
:10286000938102969C838B8388E038C0863161F423
:102870008081918101969A838983828193810196D7
:102880009C838B8387E03AC0873161F4808191819A
:1028900001969A8389838281938102969C838B839C
:1028A00087E01CC0883171F48081918101969A8300
:1028B00089838281938101969C838B838EE08D83B3
:1028C00087E01DC0893169F4808191819A83898371
:1028D0008281938101969C838B8380E18D8386E046
:1028E0000EC08A31B1F48081918101969A838983E7
:1028F0008281938101969C838B8386E08D838E8376
:1029000029813A814B815C816D817E8180E090E0FC
:1029100000C026960FB6F894DEBF0FBECDBFDF9184
:10292000CF910895E7E7F2E0A0E0B0E09081911147
:1029300054C093E19A9FF0019B9FF00D1124E3593D
:10294000FD4F268771836083538342838787258762
:1029500091E0928713861086118A1486823089F45A
:10296000672B11F4948702C083E0848783E18A9FF8
:10297000F0018B9FF00D1124E359FD4F81E0838717
:102980000895843111F483E018C0853111F485E095
:1029900014C0863111F488E010C0873111F48AE048
:1029A0000CC0883121F482E0818B8EE106C0893130
:1029B00031F484E08093000184E6868308958A31AF
:1029C00091F496838091AB039091AC0323E09595AD
:1029D00087952A95E1F78687089511967396AE300C
:1029E000B10509F0A3CF08950F931F93CF93DF9301
:1029F000082F082E000C110B93E18902F00111241D
:102A0000E359FD4F8785873119F4918991117AC077
:102A100093E1909FE001919FD00D1124C359DD4FA8
:102A20009E81961B9E8321E02B8797FF6BC01A86A1
:102A30008831C1F44A815B814850510968817981AC
:102A400020E087E00E9492144A815B81688179814D
:102A500020E08BE10E9492148091D8018F7B8093BB
:102A6000D80150C0893101F580EF9CE10E94D81F48
:102A70004A815B816881798120E08BE10E94921418
:102A80008091000181508093000181113BC08091B1
:102A9000D8018F778093D80182EB9CE10E94D81FE8
:102AA00088E08093DA012EC0843164F180EF9CE1EC
:102AB0000E94D81F0E949C3623E030E040E050E0A6
:102AC0000E94F536672B682B692B41F44A815B81A4
:102AD0006881798120E083E00E94921483E1809FE5
:102AE000F001819FF00D1124E359FD4F4281538184
:102AF0006081718120E08BE1DF91CF911F910F9177
:102B00000C949214DF91CF911F910F910895BF9271
:102B1000CF92DF92EF92FF920F931F93CF93DF93A9
:102B2000CDB7DEB72C970FB6F894DEBF0FBECDBF82
:102B300026E0FE013796DF01322F1D923A95E9F724
:102B40002B8727E02C87029698878F836F5F7F4FB4
:102B50007A8769878CE7C82E82E0D82EB12CF601DF
:102B600035978081882311F18B2D0E940014B22F9C
:102B7000A32FF42FE52FCB01EF80F88409851A8568
:102B80002B853C854B2F5A2F6F2F7E2F0E941E20A6
:102B9000882361F0D6019C91923031F4F60134978C
:102BA0009081911103C00AC0943041F0B394B3E115
:102BB000CB0ED11CEEE0BE12D2CF80E02C960FB629
:102BC000F894DEBF0FBECDBFDF91CF911F910F9163
:102BD000FF90EF90DF90CF90BF90089592E0909398
:102BE000B00396EF9093B2039091AD03191614F1D0
:102BF0009091BC03911181502091B5033091B6039F
:102C0000082E000C990B821793076CF441E0409357
:102C1000BE03281B390B3093B6032093B5038CE316
:102C20008093AD0308958CE99CE10E94D81F87E052
:102C30008093DA0108952F923F924F925F926F92A4
:102C40007F928F929F92AF92BF92CF92DF92EF923C
:102C5000FF920F931F93CF93DF93CDB7DEB76297A9
:102C60000FB6F894DEBF0FBECDBF4D875E876F876E
:102C7000788B898B9A8BC901E3E5FCE0649170E065
:102C80000E94A634072E000C880B990B0E94653514
:102C90000E94A0350E942D35562E84E5C82E8CE06A
:102CA000D82EF6012491622F70E0C8010E94A6344C
:102CB000072E000C880B990B0E9465350E94A035E9
:102CC0000E942D35362EA52C052C000CBB08FFEFDD
:102CD000AF1ABF0A862E660F990833E0830E911C47
:102CE000652C052C000C7708A614B7040CF457C00B
:102CF000432C242D042C000C330B821693060CF469
:102D00004CC02090AE03FE013D96DE01179686E092
:102D100001900D928A95E1F747FC3DC08091D50165
:102D20009091D601FC01E855FE4FE491F0E02E179A
:102D30003F070CF030C057FC2EC0FC01E955FE4F98
:102D4000E491F0E06E167F0634F5E3E5FCE02491B3
:102D5000352D3203C0011124E82E9A838983F601B0
:102D60002491342D3203C0011124082F9C838B83BE
:102D7000E3E5FCE024912D83F60134913E83FA8053
:102D80001C814F81588569857A858B859C850E9439
:102D90001E20811106C04394ACCF5394A1CF81E093
:102DA00008C0422D642D852D0E943A1318169CF7F9
:102DB00080E062960FB6F894DEBF0FBECDBFDF9104
:102DC000CF911F910F91FF90EF90DF90CF90BF9028
:102DD000AF909F908F907F906F905F904F903F90BB
:102DE0002F9008950F931F93CF93DF9300D000D0BF
:102DF00000D0CDB7DEB79B0163E18602C00111248C
:102E0000FC01E359FD4F8785843134F43A832983EB
:102E10005C834B8388E053C0843151F4C90101962F
:102E20009A838983CA0101969C838B8386E02DC097
:102E3000853141F43A832983CA0102969C838B83AE
:102E400088E02FC0863151F4C90101969A838983A5
:102E5000CA0101969C838B8387E031C0873151F48E
:102E6000C90101969A838983CA0102969C838B8348
:102E700087E017C0883161F4C90101969A8389837C
:102E8000CA0101969C838B838EE08D8387E018C0F6
:102E9000893151F43A832983CA0101969C838B833B
:102EA00080E18D8386E00CC08A3159F4C901019616
:102EB0009A838983CA0101969C838B8386E08D83E4
:102EC0008E838A0149815A816B817C818D819E81AB
:102ED0000E941B1626960FB6F894DEBF0FBECDBF1C
:102EE000DF91CF911F910F910895CF92DF92EF92D2
:102EF000FF920F931F93CF93DF939091D90790FD8B
:102F000053C0082F83E10802E0011124C359DD4FAB
:102F100018856E01111624F0E2E0CE0ED11C27C0F8
:102F2000F2E0CF0ED11CE12E012E000CFF08F601BD
:102F3000408151814E0D5F1D68817981802F0E94F3
:102F4000F216882369F0F60180819181E80EF91E5E
:102F5000F182E08288858F5F81312CF180E123C08E
:102F60001130F9F01150DFCF1F3FDCF41F5FE12E6D
:102F7000012E000CFF08F601408151814E0D5F1DAE
:102F800068817981802F0E94F216882369F3F60107
:102F900080819181E80EF91EF182E08288858F5F41
:102FA00002C0188601C08887DF91CF911F910F91D1
:102FB000FF90EF90DF90CF9008950F931F93CF93E2
:102FC000DF9300D000D000D0CDB7DEB78B01FE017B
:102FD000319626E0DF011D922A95E9F79C012E5FCC
:102FE0003F4F422F3A8329839B012F5F3F4F622F30
:102FF0003C832B839C015A817C8184E097E00E9472
:103000001B1626960FB6F894DEBF0FBECDBFDF911C
:10301000CF911F910F9108952F923F924F925F92FF
:103020006F927F928F929F92AF92BF92CF92DF92D8
:10303000EF92FF920F931F93CF93DF939AE5C92EE0
:1030400092E0D92E09E512E028E0222E312C412C05
:10305000512CF60180818C5F8083813464F00E9462
:103060009C3620E830E040E050E00E94F536F80160
:103070006083F60110820E949C36A20191010E9499
:10308000F536613071058105910529F4F8018081DB
:10309000815087FF8083F601C0810C2E000CDD0B70
:1030A0007E01F2E0EF0EF11CF8016080062C000CAE
:1030B0007708EC16FD062CF49C2F8D2FE701E92EE6
:1030C000F82E47018C1A9D0A540197FE03C0FFEFAA
:1030D000AF1ABF0AB594A794EC16FD0684F021E060
:1030E000AE01B30186ED97E00E941C13B7FE05C048
:1030F00081E0681A7108A80CB91C2196EDCFE2E0B6
:10310000CE0ED11C0E5F1F4FF2E00D361F0709F0E7
:10311000A0CFDF91CF911F910F91FF90EF90DF90A3
:10312000CF90BF90AF909F908F907F906F905F9067
:103130004F903F902F9008958F929F92AF92BF92A1
:10314000CF92DF92EF92FF920F931F93CF93DF9373
:10315000C0E0D0E080E8882E912CA12CB12C90E426
:10316000C92ED12CE12CF12C0E949C368E01075ADD
:103170001D4FA50194010E94F536F80160830E945D
:103180009C36A70196010E94F536F80161832296CC
:10319000C431D10549F7DF91CF911F910F91FF9075
:1031A000EF90DF90CF90BF90AF909F908F90089559
:1031B0000F931F93CF93DF9380E090E0FC01E359DE
:1031C000FD4F128643968A3021E09207B9F710929C
:1031D0007D03109287031092910310929B0310922B
:1031E000A5038091AE0390E0C0E0D0E0FE0100971F
:1031F00039F0E559F14FE491CE0FD11D0197F6CF8B
:10320000E459F14F1491C059D14F00E0011709F46E
:1032100050C0DE011397FD01449150E0FA0135974B
:10322000E531F10588F5E15AFF4F0C94BA349091DD
:10323000D801917027C09091D8019695917022C0C5
:103240009091D80192FB992790F91CC09091D801D8
:1032500093FB992790F916C09091D801929591709F
:1032600011C09091D80195FB992790F90BC09091CE
:10327000D80196FB992790F905C09091D801991F24
:103280009927991F992391F0FE0124913197449138
:1032900031976491FD018491F8E04F9FA0011124C2
:1032A00098E0699FB00111240E9492140F5F249648
:1032B000ADCF8091AE03882321F08E3011F08530A0
:1032C00031F481E08093D9010E949C1802C01092D1
:1032D000D9012091AE0330E080E090E02115310566
:1032E00049F0FC01E955FE4FE4918E0F911D2150EC
:1032F0003109F4CF01969093D6018093D501DF91E7
:10330000CF911F910F9108954091020250910302B5
:10331000209100023091010242175307B4F49091BA
:10332000E8009570E1F39091E80092FD19C0809358
:10333000F100809102029091030201968F73992708
:10334000892B19F48EEF8093E8008091020290910E
:1033500003020196909303028093020281E0089594
:1033600080E00895DF92EF92FF920F931F93CF9327
:10337000DF93D82E8A017B01E40EF51EEB01CE15FA
:10338000DF0571F0D7FE03C0FE01849101C0888182
:103390000E94841921968111F2CF8FEF9FEF01C017
:1033A000C801DF91CF911F910F91FF90EF90DF90B7
:1033B0000895615030F02091F100FC0120830196C6
:1033C000F8CF289884E6809305020895CF92DF9283
:1033D000EF92FF920F931F93CF93DF936C017A01CB
:1033E0008B01C0E0D0E0CE15DF0589F0D8016D91EA
:1033F0008D01D601ED91FC910190F081E02DC60187
:103400000995892B11F47E0102C02196ECCFC701EA
:10341000DF91CF911F910F91FF90EF90DF90CF90B0
:103420000895CF93DF931F92CDB7DEB76983DC0198
:10343000ED91FC910280F381E02D41E050E0BE016E
:103440006F5F7F4F09950F90DF91CF91089583E0D3
:103450008093E9008091F200882319F08AE3809339
:10346000E8000895FC018485958597FD0BC09FB702
:10347000F89482E08093E9008091F2009FBF90E091
:10348000019608959FB7F89482E08093E9008091B7
:10349000F2009FBF90E008958091F301E091F10167
:1034A000F091F201882349F0CF0102969093F20146
:1034B0008093F101859194910895CF0102969093A4
:1034C000F2018093F1018081918108950E94493633
:1034D0000F931F93CF93DF931F92CDB7DEB782E098
:1034E000898342E450E06EEB7DE180E80E94B219EE
:1034F0000E941921DC0112960D911C911397011560
:10350000110569F0D801ED91FC910280F381E02D65
:10351000BE016F5F7F4FC801099597FF07C0898182
:103520000F90DF91CF911F910F910895F8010085C1
:103530001185E5CF0F931F93CF93DF931F92CDB7E4
:10354000DEB78C01FC018485958597FF0EC0CE0106
:1035500001960E94EF20019719F4298130E002C002
:103560002FEF3FEFF80135872487F8018485958593
:103570000F90DF91CF911F910F910895CF93DF931B
:103580001F92CDB7DEB7FC018485958597FD05C0F8
:103590002FEF3FEF358724870BC0CE0101960E94A5
:1035A000EF20019719F4898190E002C08FEF9FEF1F
:1035B0000F90DF91CF9108951F920F920FB60F9247
:1035C00011248F939F938091E1009091E100937F6C
:1035D0009093E10083FF0FC01092E90091E0909377
:1035E000EB001092EC0092E39093ED001092060233
:1035F00098E09093F00082FF20C093E09093E90060
:103600009091F200992319F09AE39093E800909139
:103610000402992339F0909104029150909304028E
:10362000992389F190910502992339F0909105022F
:10363000915090930502992341F184FF10C080912D
:10364000E2008E7E81608093E2008091E1008F7EB7
:103650008093E1008091CF018E7E806111C080FF58
:1036600016C08091E2008E7E80618093E20080919E
:10367000E1008E7E8093E1008091CF018E7E81609B
:103680008093CF0104C05D9ACDCF289AD6CF9F9169
:103690008F910F900FBE0F901F9018951F920F9251
:1036A0000FB60F921124CF92DF92EF92FF920F93F9
:1036B0001F932F933F934F935F936F937F938F93BA
:1036C0009F93AF93BF93EF93FF93CF93DF93CDB7C8
:1036D000DEB76C97DEBFCDBF1092E9008091E800A5
:1036E00083FFFAC168E0CE0145960E94D91982EFA6
:1036F0008093E8008D8987FF05C09091E80090FFD6
:10370000FCCF03C09EEF9093E800982F907609F0CD
:10371000C6C09E892F89188D91110CC0803829F45C
:103720008091D0018093F10002C01092F1001092BC
:10373000F10047C1422F50E0512B913051F48111DB
:1037400040C14130510509F03CC18091D0018D7FCD
:103750000BC0933061F4811134C14130510509F03F
:1037600030C18091D00182608093D0012AC1953010
:1037700041F48091E80080FFFCCF20682093E300B3
:1037800020C1963009F05FC0EB8CFC8C1092E900F0
:103790001092030210920202123091F5109201026F
:1037A000109200020E94681A99E0BE016F5F7F4F7D
:1037B000DB01E92F1D92EA95E9F799831A8391E0DD
:1037C0009E8390EA98879AEF998720910202309120
:1037D0000302275F3F4F3C832B838D831092E900C8
:1037E0001092030210920202F0920102E092000293
:1037F00049E050E080E00E94B2190E94681AE1C0DE
:10380000F0920102E09200020E941921DC0112965E
:10381000ED90FC901397E114F10409F4C0C0D701B6
:10382000ED91FC910480F581E02DBE016B5E7F4F30
:10383000C7010995009719F00CF0C3C0C6C0F70185
:10384000E084F184E8CF973009F4BFC0983021F4C8
:1038500081E08093F100B5C0993009F0B2C0837067
:1038600009F0B3C0E2E1F1E081E021E036E39081CC
:10387000992361F08093E9002093EB00919190935C
:10388000EC003093ED008F5F873089F78EE78093EF
:10389000EA001092EA008F898093060292C08B8D15
:1038A0009C8D1092E90010920302109202029093F4
:1038B000010280930002898D811156C08E899D89F5
:1038C000913A59F4813209F080C047E050E065E058
:1038D00071E080E00E94B21974C0913209F075C0A5
:1038E000833289F4888D90E0982F88272F89822B46
:1038F000A0E0B0E08093010190930201A093030146
:10390000B09304015EC0803269F48091E80082FFC8
:10391000FCCF67E085E091E00E94D9198BEF80939E
:10392000E80006C0823209F04CC08F8980930C01F8
:103930008091CE01882319F0EEEFFAE002C0E0E0BA
:10394000F8E08091050190910601A0910701B091E6
:103950000801803B9440A105B10509F088C0809121
:103960000C0180FFA0C083C00E941921DC011296C7
:103970000D911C9113970115110539F1D801ED91A5
:10398000FC910190F081E02DBE016B5E7F4FC8017C
:103990000995811116C0F80100851185ECCF113011
:1039A000C1F0133091F48F89882309F455C0823017
:1039B000E9F440E860E180E19EE10E946033882301
:1039C00021F08EEF8093E80087C081E28093EB00C6
:1039D00083C08B8D9C8D089711F41093FF0180910B
:1039E000FF01811136C061E27EE138C0813029F4E7
:1039F00040E86BE084E09EE1E0CF833031F70E9445
:103A00001921DC011296ED90FC9013978E010F5F47
:103A10001F4F6801E114F10479F0D701ED91FC9199
:103A20000680F781E02DB801C7010995080F111D27
:103A3000F701E084F184EECFD8011C92F6010190E9
:103A40000020E9F73197BF016C197D0940E0C601FC
:103A5000B4CF63E37EE102C060E07EE161157105F1
:103A600009F4B3CFFB01449150E080E833CF0FB6A7
:103A7000F894A8958091600088618093600010920E
:103A800060000FBEA895EE3F2AE0F20739F0809162
:103A9000FE0A9091FF0A9183808393CF1092FF0AD0
:103AA0001092FE0A8ECFEE3F8AE0F80731F0808157
:103AB00091819093FF0A8093FE0A87E797E79183AD
:103AC00080839BE088E10FB6F894A895809360000E
:103AD0000FBE9093600075CF6C960FB6F894DEBF62
:103AE0000FBECDBFDF91CF91FF91EF91BF91AF910D
:103AF0009F918F917F916F915F914F913F912F9106
:103B00001F910F91FF90EF90DF90CF900F900FBE1D
:103B10000F901F9018953FB7F8948091FB019091FA
:103B2000FC01A091FD01B091FE0126B5A89B05C046
:103B30002F3F19F00196A11DB11D3FBFBA2FA92F2C
:103B4000982F8827820F911DA11DB11DBC01CD01A9
:103B500042E0660F771F881F991F4A95D1F7089595
:103B60008F929F92AF92BF92CF92DF92EF92FF928D
:103B70006B017C010E948B1D4B015C01C114D104BF
:103B8000E104F104F1F00E948B1DDC01CB018819E6
:103B90009909AA09BB09883E9340A105B10570F3B4
:103BA00021E0C21AD108E108F10888EE880E83E00E
:103BB000981EA11CB11CC114D104E104F10419F731
:103BC000DDCFFF90EF90DF90CF90BF90AF909F90B0
:103BD0008F9008958F929F92AF92BF92CF92DF9273
:103BE000EF92FF920F931F93CF93DF935C016B01D2
:103BF0008A0180910C01882309F45EC0809106023D
:103C0000882309F459C08091CF0180FF05C08091BD
:103C1000E00082608093E000E8018AEFF82E93E0F4
:103C2000E92E2FE3822E3AE3932E209709F43DC02C
:103C30008FB7F894E092E9009091E80095FF06C0F4
:103C40009091F200282D291B922F01C090E08FBF88
:103C500091110AC0FA94FF2079F161E070E080E0F0
:103C600090E00E94B01DE1CF292F30E0C217D307AA
:103C70000CF49C2F8FB7F894E092E9002091E800B3
:103C800025FF11C0292F30E0C21BD30BF601915044
:103C900020F041914093F100FACFC20ED31E9091D3
:103CA000E80095FF13C08FBFC0CF5D9884E6809376
:103CB00004021016110644F081E090E0F5019383B0
:103CC000828380E090E005C0C80103C09092E800C4
:103CD000EACFDF91CF911F910F91FF90EF90DF908E
:103CE000CF90BF90AF909F908F9008951F920F92AA
:103CF0000FB60F9211242F933F938F939F93AF93FF
:103D0000BF938091D1019091D201A091D301B09144
:103D1000D4013091FA0123E0230F2D3720F40196CE
:103D2000A11DB11D05C026E8230F0296A11DB11DDE
:103D30002093FA018093D1019093D201A093D301F3
:103D4000B093D4018091FB019091FC01A091FD0101
:103D5000B091FE010196A11DB11D8093FB019093CE
:103D6000FC01A093FD01B093FE01BF91AF919F9123
:103D70008F913F912F910F900FBE0F901F9018952C
:103D8000E1E7F0E080818D7F80831092910046987A
:103D900047981092F0010895CF92DF92EF92FF9230
:103DA0000F931F93CF93DF930E944C1A811520E845
:103DB000920751F4DF91CF911F910F91FF90EF90F7
:103DC000DF90CF900C94C01E21E02093F001813051
:103DD00020E8920751F48091EE019091EF019093C9
:103DE000F2018093F1010E944C1A97FD05C02091C9
:103DF000ED01222309F440C02091EC0121113CC0C7
:103E000021E02093F401EC01DF77209769F481E051
:103E10008093F50146983FE9C32E3FE0D32EE12C75
:103E2000F12CCAEFD0E014C08E0120E030E060E455
:103E300072E48FE090E0A90198010E94F5366901D3
:103E40007A0181E0C81AD108E108F1081092F50161
:103E5000E0915702F09158020995811103C081E069
:103E60008093F5018091F401882309F43FC080918B
:103E7000F50181113BC003C01092F401C4CF4699F3
:103E800035C0479A0E944C1A009771F09C01DE01E0
:103E90000E944937DC01CB0129E0B595A79597959C
:103EA00087952A95D1F703C08FEF9FEFDC01109221
:103EB00090002AE020939100D0929900C09298003F
:103EC0008093F6019093F701A093F801B093F90164
:103ED00080917100826080937100DF91CF911F917A
:103EE0000F91FF90EF90DF90CF9008954798CACF41
:103EF0001F920F920FB60F9211242F933F934F935F
:103F00005F936F937F938F939F93AF93BF93EF9341
:103F1000FF938091F6019091F701A091F801B09183
:103F2000F901892B8A2B8B2B81F18091F50181116D
:103F30000BC098B180E4892788B98091F401882367
:103F400019F088B1805888B98091F6019091F701F5
:103F5000A091F801B091F901181619061A061B066E
:103F6000B4F48091F6019091F701A091F801B0911D
:103F7000F9010197A109B1098093F6019093F70126
:103F8000A093F801B093F90102C00E94CC1EFF91EA
:103F9000EF91BF91AF919F918F917F916F915F91C1
:103FA0004F913F912F910F900FBE0F901F9018953A
:103FB0009C01E1E7F0E090819D7F908381E0809318
:103FC000F3013093F2012093F1013093EF0120933C
:103FD000EE010C94CC1E009769F0FC0101900020CA
:103FE000E9F73197AF01481B590BBC0182EC97E010
:103FF0000C94E61980E090E008958091C2038EBD94
:10400000E3ECF3E081910DB407FEFDCF8EBD87E0B8
:10401000E23CF807B9F70DB407FEFDCF089520E0A4
:1040200082EC93E0B22FB111BFEFFC010024B193F9
:10403000B193B193B1930394D1F70895EF92FF92A6
:104040000F931F93CF93DF93CDB7DEB72C970FB6A7
:10405000F894DEBF0FBECDBF49835A836B837C8348
:104060009E83EF82F88609871A872B873C87E98130
:10407000FA816B817C814F81588529853A85DF01E2
:10408000A80FB11D4A175B07A4F48B85480F511D7B
:10409000E417F50774F48E81AB01480F511D241706
:1040A00035073CF48C85280F311D81E062177307BA
:1040B0000CF080E02C960FB6F894DEBF0FBECDBF9B
:1040C000DF91CF911F910F91FF90EF900895209174
:1040D000DC07282329F49091DB07982381E009F479
:1040E00080E008950C94EB1F8F929F92AF92BF9245
:1040F000CF92DF92EF92FF920F931F93CF93DF93B4
:10410000CDB7DEB7A1970FB6F894DEBF0FBECDBF17
:104110006C01990FEE08FF08F7FE31C0E091C2076D
:10412000F091C3070190F081E02D6DE282EC97E001
:1041300009958C0122273327A9012C193D094E0925
:104140005F0919A2CE0181967C019AE0892E912CFB
:10415000A12CB12CCA01B901A50194010E942737F5
:10416000605DF70162937F0121153105410551051D
:1041700089F7CF010E94EB1F800F911F1DC0A7017F
:10418000960119A28E010F5D1F4F8AE0C82ED12C17
:10419000E12CF12CCA01B901A70196010E94273731
:1041A000605DF80162938F012115310541055105CC
:1041B00089F7CF010E94EB1FA1960FB6F894DEBFDE
:1041C0000FBECDBFDF91CF911F910F91FF90EF9068
:1041D000DF90CF90BF90AF909F908F900895FC019B
:1041E00080910602811103C08FEF9FEF08959FB762
:1041F000F89482E08093E9002091F20030E01216FA
:10420000130614F421E030E02115310559F0289807
:1042100084E6809305028091F10080838091F20012
:10422000882319F09FBFC90108958BE68093E800A9
:10423000F9CF8091EC0781110DC082E08093E807EF
:1042400084E08093E9071092EB071092EA0781E07F
:104250008093EC0788EE97E00895CF93DF93CDB776
:10426000DEB7A3970FB6F894DEBF0FBECDBF78942C
:1042700084B5826084BD84B5816084BD85B582606B
:1042800085BD85B5816085BD80916E00816080931C
:104290006E00109281008091810082608093810085
:1042A0008091810081608093810080918000816095
:1042B0008093800080919100826080939100809132
:1042C0009100816080939100809190008160809343
:1042D00090008091C10084608093C1008091C100F2
:1042E00082608093C1008091C10081608093C10091
:1042F0008091C30081608093C3008091C000826080
:104300008093C0008091C20081608093C200809140
:104310007A00846080937A0080917A008260809332
:104320007A0080917A00816080937A0080917A008F
:10433000806880937A00109206021092D001109249
:10434000CF018091D70081608093D70080EA80936D
:10435000D80089B5806189BD89B5826089BD09B4FD
:1043600000FEFDCF61E070E080E090E00E94B01DB3
:104370008091D8008F7C80618093D8008091E0008C
:10438000807F8093E0008091E1008E7E8093E10049
:104390008DE08093E200559A209AEEEFFFE7859139
:1043A00094918B3F9C4D19F481E08093CE0181EC78
:1043B00080937C0085B1806F85B9249884B1866E26
:1043C00084B95E9A5F988AB1806D8AB9769A6E9840
:1043D00081B3806F81BB899880B38D7080BB80E58D
:1043E0008CBD81E08DBD85E090E00E94C4125F9A93
:1043F00085E090E00E94C4125E985C9808EE10E0A0
:10440000FDE0FF2EF00EF80184910E94F1120F5F83
:104410001F4FF012F8CF5C9A81E88093640081E02E
:104420008093650000E014E080E00E94F1120150EA
:104430001109D1F70E94C91287FF1FC05C9885EA55
:104440000E94F1125C9A2E982F982D98809164000A
:104450008062809364000E94E612FDCF2D980E9436
:10446000C9128478843871F00E94C9128471843131
:1044700031F188EC90E00E94C4120E94C91282FDC2
:10448000EDCF3AC00E94C21288EC90E00E94C412A4
:104490002F9882E090E00E94DF368F3F29F06FEF87
:1044A00082E090E00E94E73684EF91E00E94C4121F
:1044B0002F9A0E94C91284788438D9F3D5CF0E94EC
:1044C000C21288EC90E00E94C4122E9882E090E024
:1044D0000E94DF36882329F060E082E090E00E94AD
:1044E000E73684EF91E00E94C4122E9A0E94C9120E
:1044F00084718431D9F3BDCF0E94C21282E090E072
:104500000E94DF36882319F00E94161302C00E9411
:1045100011132E980EEE1FEF0E94C91286FF04C0E1
:104520002E9A2F9A2D9A2FC00C3FFFEF1F0719F4D8
:104530002E9A2F9805C00831110511F42F9A2D9845
:104540000E940F2020E045EF50E0B80184E190E0A8
:104550000E9485120E94FD1F8BE190E00E94C41210
:10456000003F2FEF120721F48AEF90E00E94C4125F
:104570000F5F1F4F0931110579F68CEB92E00E9415
:10458000C4120E94C21282E390E00E94C4120E94F0
:10459000C9128111F8CF809164008E7F80936400EE
:1045A00080917A00806480937A0080917A0086FD01
:1045B000FCCF00917800109179000E948B1D20E0C3
:1045C00030E0980111270027600F711F821F931F91
:1045D000611571058105910511F00E94A136809148
:1045E00064008160809364001092DA01AE01495F3B
:1045F0005F4F5E8B4D8BCE0101969C8B8B8B2FB7C3
:10460000F8948091D1019091D201A091D301B09101
:10461000D4012FBF4091E2075091E3076091E40776
:104620007091E5072091E607222349F02091DE07EB
:10463000821B8093E7071092E6070C947032841770
:104640009507A607B70748F4481B423010F40C94AE
:1046500070320E94E6120C94703221E02093E6073B
:104660008093DE079093DF07A093E007B093E10704
:104670002091DD07820F911DA11DB11D8093E207DE
:104680009093E307A093E407B093E5078091D907DF
:104690009091DA0701969093DA078093D907809179
:1046A000DB078093DC070E94C9128093DB0710911F
:1046B000DA01123009F4B2C00E940F20812F110FCD
:1046C000990BAA0BBB0B8930910510F00C94623248
:1046D000FC01EA5AFF4F0C94BA3420E04AE95AE14F
:1046E00060E070E080E290E00E9485128091EA0133
:1046F0009091EB0101969093EB018093EA01853B49
:1047000091057CF084E19AE10E94D81F1092EB01A0
:104710001092EA0181E08093DA018093D9010E942E
:104720009C1880E20E946720882311F40C94623266
:104730008FEF9FEF909314028093130281E0809398
:10474000E9010C9462320E940C1880E80E946720F4
:10475000882341F00E9416130E94F71284E19AE127
:104760000E94D81F80E10E946720882321F00E94C8
:1047700011130E94F71220E042ED58E160E070E072
:104780008CE290E00E94851220E040E558E160E074
:1047900070E080E090E00E9485128091D70188232C
:1047A00049F020E046E458E168E370E080E090E002
:1047B0000E94851281E790E09093CF078093CE0707
:1047C0009093CD078093CC078BE390E09093D10733
:1047D0008093D0078CE391E00E94722088E00E94D1
:1047E0006720882311F40C9462321092EB0110922E
:1047F000EA011092E8011092E7011092E60110928E
:10480000E50181E090E09093E4018093E3010E9450
:104810000F2082E08093DA010C9462320091EA0169
:104820001091EB018091E3019091E401080F191FB1
:104830001093EB010093EA0188E00E946720811148
:104840000C947A3284E00E94672081110C947A32B1
:1048500005381340ACF01092EB011092EA010E946F
:10486000C01E1092DF011092E0011092E10110923F
:10487000E20183E08093DA018CE098E10E94D81F86
:104880002091EA013091EB01C90137FD039695951E
:10489000879595958795823D910514F081ED90E07F
:1048A000FC01E75CF84E649123703327232B39F524
:1048B000813D910521F18091E5019091E6016A30F9
:1048C00039F42BEF3FEF3093E8012093E70112C05A
:1048D0002091E7013091E8012B5F3F4F2E373105E2
:1048E0002CF43093E8012093E70109C01092E8010D
:1048F0001092E70105969093E6018093E5012091DF
:10490000E5013091E6018091E7019091E8019093F3
:10491000CF078093CE079093CD078093CC07309339
:10492000D1072093D007E091C207F091C30701900F
:10493000F081E02D82EC97E009950C9462320091B1
:10494000EA011091EB010F5F1F4F1093EB010093F1
:10495000EA0188E00E94672081110C9491320D32A7
:10496000114014F00C9491320AE210E01093CF073A
:104970000093CE071093CD070093CC0788E090E01A
:104980009093D1078093D00780E491E00E94722039
:1049900080E190E09093CF078093CE079093CD076E
:1049A0008093CC0780E290E09093D1078093D0076A
:1049B0008AE491E00E9472201093CF070093CE0703
:1049C0001093CD070093CC0785E290E09093D10738
:1049D0008093D0078EE591E00E9472208AE190E0FA
:1049E0009093CF078093CE079093CD078093CC0709
:1049F0001093D1070093D00788E691E00C946032C1
:104A00008091EA019091EB0101968D32B1E09B0714
:104A10002CF49093EB018093EA0146C01092EB01D5
:104A20001092EA0180E494E09093AA038093A90392
:104A30009093AC038093AB031092AD031092AE033E
:104A40001092AF031092B0031092B1031092B20310
:104A500084E18093B30388E08093B40384E690E01C
:104A60009093B6038093B5039093B8038093B703F4
:104A700081E08093B9031092BA031092BB031092A5
:104A8000BC031092BD031092BE031092BF0310929C
:104A9000C1038FEF8093D80184E0809300010E94CE
:104AA000D81885E08093DA0120E047E356E168E01A
:104AB00070E080E390E00E9441128091A903909100
:104AC000AA039C0163E0359527956A95E1F72131AA
:104AD0003105BCF406969093AA038093A9036091D4
:104AE000AB037091AC03635071097093AC03609396
:104AF000AB0353E0759567955A95E1F72091C00394
:104B00002AC0213231059CF421E02093C003049691
:104B10009093AA038093A9036091AB037091AC03B7
:104B2000625071097093AC036093AB030FC02B33D9
:104B30003105D4F422E02093C00302969093AA0397
:104B40008093A9036091AB037091AC0343E075952A
:104B500067954A95E1F745E755E133E095958795E7
:104B60003A95E1F70E94411280E290E09093CF07DE
:104B70008093CE079093CD078093CC0788E390E095
:104B80009093D1078093D00788E791E00C9460322E
:104B90008091DF019091E001A091E101B091E201EB
:104BA0008F3FEFEF9E07AE07BE0759F00196A11D9C
:104BB000B11D8093DF019093E001A093E101B093D8
:104BC000E2018091D90181110E940C181091AE036D
:104BD000C090AB03D090AC0383E0D594C7948A9582
:104BE000E1F7F4E2CF1AD108E090DB01F090DC01AC
:104BF0008091A9039091AA0323E0959587952A9522
:104C0000E1F7845491098E199F090E949613E80ECA
:104C1000F91EF092DC01E092DB01A090DD01B09082
:104C2000DE01C6018A199B090E9496136501C80E10
:104C3000D91ED092DE01C092DD01F7FE04C01092B1
:104C4000DC011092DB01812F0E94F2138F57910932
:104C50002091DB013091DC01281739074CF0812FBE
:104C60000E94F213805891099093DC018093DB013C
:104C7000D7FE04C01092DE011092DD01812F0E9448
:104C8000E413CF972091DD013091DE012817390719
:104C90004CF0812F0E94E413805491099093DE011F
:104CA0008093DD01E3E5FCE0249164918091DB01D8
:104CB0009091DC01821B910970E00E94A634072EBE
:104CC000000C880B990B0E9465350E94A0350E944C
:104CD0002D356B017C01E4E5FCE034912491809159
:104CE000DD019091DE01831B9109622F70E00E942B
:104CF000A634072E000C880B990B0E9465350E9484
:104D0000A0350E942D35D7FE02C0C12CD12C1B012D
:104D100077FF02C0212C312C2601F2E14F0E511CED
:104D20008091D5019091D601FC01E955FE4F249167
:104D300030E0241535051CF4E4914E2E512C9101E0
:104D4000265F3F4F388F2F8BFC01E855FE4F849133
:104D500090E0821793070CF097C0E4914E2F50E03B
:104D6000588F4F8B91C0E3E5FCE084918C9D9001BE
:104D70008D9D300D11248091DB019091DC01A90102
:104D8000481B590B58A34F8FE4E5FCE08491889DA4
:104D90009001899D300D11248091DD019091DE01FB
:104DA000A901481B590B5AA349A3082D412F682D6F
:104DB0008F2D0E943A13E82E8D7F682C082C000C52
:104DC000770881117DC018140CF074C0412F6FEF6B
:104DD000680D8F2D0E943A1321E08E1120E0A090E3
:104DE000D501B090D601F501E955FE4FE491F0E010
:104DF000898D9A8D8E179F070CF05EC0412F602F12
:104E00008D8D2BA30E943A132BA18E1509F454C04B
:104E1000F501E855FE4FE4919FEF691A790AF0E039
:104E20006E167F060CF04AC0412F61E0600F8F2D97
:104E30002BA30E943A132BA18E1509F43FC01F1417
:104E40000CF086C0412F602F8B8D2BA30E943A134C
:104E50002BA18E1509F47CC0E0E1EE9E200D1124FB
:104E600043E55CE069A17AA18F8D98A10E9485122B
:104E7000FFEF8F1A9F0A2F89388D821693060CF444
:104E800072CF3FEFC31AD30AC414D5040CF062C02A
:104E90004101FC2C8C2D0C2C000C990BAC014F5FAC
:104EA0005F4F5A8F498F3FEF3C0D3B8F31E03C0DF8
:104EB0003D8FE1CF21E093CF2E5FAACF2C5FBFCFF4
:104EC00018145CF4412F6FEF680D8F2D0E943A1378
:104ED00021E018161CF020E001C021E0A090D501CF
:104EE000B090D601F501E955FE4FE491F0E0A98DAF
:104EF000BA8DAE17BF074CF4412F602F8D8D2BA3B9
:104F00000E943A132BA118160CF42E5FF501E855F8
:104F1000FE4FE491BFEF6B1A7B0AF0E06E167F063E
:104F200054F4412F61E0600F8F2D2BA30E943A13A0
:104F30002BA118160CF42C5F1F1454F4412F602F72
:104F40008B8D2BA30E943A132BA118160CF084CF43
:104F5000285F82CF8091AD0318161CF48150809396
:104F6000AD030E94C91285FF05C081E08093BA039A
:104F70008093BD030E94C91286FF05C081E0809323
:104F8000BA031092BD030E94C91283FF07C080912B
:104F9000BF03811103C081E08093BF0384E00E94BE
:104FA0006720882309F46EC08091B003811104C08A
:104FB00081E08093B00366C0823009F063C08091C5
:104FC000AB039091AC03B3E095958795BA95E1F763
:104FD0002091A9033091AA0313E0359527951A95DE
:104FE000E1F746E0AD89BE89E42F1D92EA95E9F725
:104FF0004B8747E04C872E5F3F4F38872F830596BE
:105000009A8789870CE7C02E02E0D02EB12CF601DA
:1050100035978081882301F18B2D0E940014B22FD7
:10502000A32FF42FE52FCB01B983AA83FB83EC8355
:105030006D839E83EF80F88409851A852B853C85D6
:105040004B2F5A2F6F2F7E2F0E941E20882321F076
:10505000D6018C91843144F4B394B3E1CB0ED11CCE
:10506000EEE0BE12D4CF0EC08091B3038195809341
:10507000B2038091BD03882311F40C94A43283E021
:105080008093C0030E94C91286FD12C00E94C912FB
:1050900085FD0EC01092BA038091B003811108C043
:1050A0008091BD03882311F40C94A7321092C003A1
:1050B0008091B003813009F041C06091AB037091E1
:1050C000AC03F3E075956795FA95E1F76E5F7F4F56
:1050D0008091A9039091AA03A3E095958795AA953D
:1050E000E1F70E94DD178823C1F06091AB03709156
:1050F000AC0353E0759567955A95E1F76E5F7F4F66
:105100008091A9039091AA03E3E095958795EA958C
:10511000E1F70E948715882389F082E08093B0032D
:105120008091B30381958093B2038091BD0388235E
:1051300011F40C94AC3283E08093C0038091B203ED
:105140008093B10318160CF049C000E28091B103BE
:105150006091AB037091AC03680F711D87FD7A9568
:1051600033E0759567953A95E1F78091A9039091A1
:10517000AA0343E0959587954A95E1F70E94DD17CC
:105180001091B103882311F40C94B332E090AB0377
:10519000F090AC03E10EF11C17FDFA94B70183E027
:1051A000759567958A95E1F78091A9039091AA0377
:1051B00023E0959587952A95E1F70E94871581113F
:1051C0000C94B33250C01F3F14F00C94C2321F5FD6
:1051D0001093B1038091B10387FF59C08091B1034F
:1051E0006091AB037091AC03680F711D87FD7A95D8
:1051F000A3E075956795AA95E1F78091A903909131
:10520000AA03B3E095958795BA95E1F70E94DD175B
:105210001091B1038823B9F2E090AB03F090AC0396
:10522000E10EF11C17FDFA94B701E3E0759567955F
:10523000EA95E1F78091A9039091AA03F3E095958F
:105240008795FA95E1F70E9487158111BCCFF092FE
:10525000AC03E092AB038091B2038F5F8093B20303
:105260001092B103B7CFF092AC03E092AB03809100
:10527000B2038F5F813214F40C94AF320093B20307
:105280001092B1038091B10318160CF45FCF809196
:10529000BA03882309F47BC08091B0033091BD0329
:1052A000823001F18091D9079091DA0765E070E0D2
:1052B0000E949234892BB1F48091C0038F5F332315
:1052C00029F083306CF01092C0030CC087300CF0D2
:1052D00084E08093C0038091C00384301CF484E098
:1052E0008093C0038091A9039091AA036091AB03BE
:1052F0007091AC032091B40353E0759567955A956E
:10530000E1F73323C1F0821B910927FD939543E018
:10531000959587954A95E1F70E94DD178823B9F1A5
:105320008091B4030091A9031091AA03081B1109ED
:1053300087FD139517C0820F911D27FD9A9533E0C5
:10534000959587953A95E1F70E94DD178823F9F046
:105350008091B4030091A9031091AA03080F111DB5
:1053600087FD1A956091AB037091AC03B3E075951E
:105370006795BA95E1F7C80123E0959587952A9539
:10538000E1F70E948715882311F40C94CA328091AA
:10539000A9039091AA03E3E095958795EA95E1F733
:1053A0004C01F2E08F0E911C4090AB035090AC0387
:1053B000F3E055944794FA95E1F732012FEF621A22
:1053C000720A47E752E05C8F4B8FABE7AA2EA2E050
:1053D000BA2E6A01312C22242394DC011896B88F4E
:1053E000AF8BB8E04B0E511CF6018081882309F485
:1053F000F3C0832D0E940014B22FA32FF42FE52FAA
:10540000CB01B983AA83FB83EC836D839E83E82C55
:105410009E868D86062D788A6F8626E0298B37E05A
:105420003A8BFE8418894B2F5A2F6F2F7E2F0E94A4
:105430001E20882309F4D0C0D60115968C918230A5
:10544000ECF497FE02C00C94D03277FE02C00C94AC
:10545000D0328091AE030E94F213EF89F88D8E173F
:105460009F0714F40C94D0328091AE030E94E41391
:105470008415950514F40C94D032AEC0823009F432
:10548000ABC08330E1F485E59EE00E94D81FD601D1
:105490001C928091B5039091B60305969093B60344
:1054A0008093B5032091B7033091B80328173907CB
:1054B0000CF092C03093B6032093B5038DC08430B6
:1054C00009F48AC0853051F485E59EE00E94D81F1A
:1054D000F60110828091D8018E7F0BC0863001F5D5
:1054E00085E59EE00E94D81FD6011C928091D801CC
:1054F0008D7F8093D8018091B5039091B6038C592C
:105500009F4F9093B6038093B5038091B70390911A
:10551000B8038C599F4F9093B8038093B7035CC036
:10552000873071F485E59EE00E94D81FF601108255
:105530008091D8018B7F8093D8012092BB034CC00F
:10554000883069F485E59EE00E94D81FD6011C9240
:105550008091D801877F8093D80183E00EC0893085
:1055600079F485E59EE00E94D81FF60110828091B3
:10557000D8018F7E8093D80185E08093B9032CC039
:105580008A3071F485E59EE00E94D81FD6011C92F6
:105590008091D8018F7D8093D8012092BC031CC0DC
:1055A000843111F482E013C0853111F483E00FC01F
:1055B000863111F484E00BC0873111F485E007C017
:1055C000883111F488E003C0893121F480E00E9421
:1055D000EE1502C08A3191F33394B3E1CB0ED11CA6
:1055E000E3E1AE0EB11CFEE03F12FECE8091C1039E
:1055F00081508093C1039091BF03923021F418161B
:1056000014F01092BF038091BF03813009F04AC0AB
:105610008AE08093C1036091BD034091A90350913A
:10562000AA0323E0559547952A95E1F72091AB030E
:105630003091AC0373E0359527957A95E1F72150C9
:1056400031097091B903EDE7F3E080E090E0A081CB
:10565000A11120C0AAE0A89FF001A99FF00D11247C
:10566000E958FC4F5183408333832283662319F02A
:1056700021E0278301C017822AE0289FF001299F9B
:10568000F00D1124E958FC4F81E08683718784E096
:10569000808705C001963A9685309105C1F682E073
:1056A0008093BF031DE7A12E13E0B12E27E733E05F
:1056B000388F2F8B00E8802E03E0902E690186E062
:1056C000382E94E0492ED5018C91882309F49BC093
:1056D000F4013297808131962081882351F0F601C0
:1056E00080819181821B910927FD9395918380830D
:1056F0000AC0D6018D919C911197820F911D27FDB3
:105700009A958D939C93ED89FE89232D11922A956C
:10571000E9F74B864C86D6018D919C9111970296A4
:1057200098878F8312968D919C91139702969A87F2
:105730008987BCE76B2EB2E07B2E512CF3013597A5
:1057400080818823B1F1852D0E940014B22FA32FF0
:10575000F42FE52FCB01B983AA83FB83EC836D8300
:105760009E83EF80F88409851A852B853C854B2F15
:105770005A2F6F2F7E2F0E941E208823D1F0F30115
:105780008081823029F48091BB03882391F00AC084
:10579000843029F48091B90383305CF003C08451D4
:1057A000863038F4D4016C91852D0E94F414F501F3
:1057B00010825394F3E16F0E711C2EE05212BECF93
:1057C000D60112960D911C9113972D913C914F810A
:1057D000588569857A858B859C850E941B16811169
:1057E00002C0F5011082D6010D911C9117FF02C075
:1057F000F50110828091AE030E94F2138017910789
:1058000014F4D5011C92BAE0AB0EB11CEAE0CE0E46
:10581000D11CFAE08F0E911C2FEAA21623E0B206EB
:1058200009F051CF4DE652E05E8F4D8FEEE74E2EE0
:10583000E2E05E2E85E792E09A8F898FFAE78F2E5D
:10584000F2E09F2EA9E76A2EA2E07A2E53016A01A8
:10585000312C22242394AB8DBC8D8C91882309F4A8
:10586000A0C3F20132978081823009F045C0F50172
:105870008291F8A3EF8F882309F47FC386E0AD8976
:10588000BE891D928A95E9F788E08B878C87809185
:10589000A9039091AA0363E0959587956A95E1F72E
:1058A00098878F838091AB039091AC0373E09595BB
:1058B00087957A95E1F79A878987832D0E9400144E
:1058C000B22FA32FF42FE52FCB01B983AA83FB833B
:1058D000EC836D839E83EF80F88409851A8528E028
:1058E00038E04B2F5A2F6F2F7E2F0E941E208111E0
:1058F00044C3EF8DF8A140C39DEF980F913120F480
:10590000832D0E94751739C3843109F0C0C0D201BC
:105910001C9111113AC08091D9079091DA076FE07C
:1059200070E00E949234892B41F4F50180818F5FF1
:10593000823014F4808301C010828091AB03909177
:10594000AC0353E0959587955A95E1F7F6012281CE
:105950003381281739070CF010C38091A903909167
:10596000AA0343E0959587954A95E1F72081318117
:10597000AC01495F5F4F421753070CF4FEC2079713
:10598000281739070CF4F9C261C11130D1F422E0B3
:10599000F5012083832D0E947517D60112964D9133
:1059A0005C9113974F5F5F4F6D917C91832D0E94A7
:1059B000F2168111E2C222E0F2012083D4011C938D
:1059C000DCC2123009F0D9C2832D0E9475172091D4
:1059D000D9079091DA07822F6FE070E00E9492342D
:1059E000892B51F4F50190819F5F953014F49083D9
:1059F00003C0E3E0D501EC9320FDBFC2D6016D9159
:105A00007C9111978091A9039091AA0333E0959519
:105A100087953A95E1F768177907A4F4F401208295
:105A200012964D915C9113976F5F7F4F832D0E946B
:105A3000F216882339F0D6018D919C911197019629
:105A40008D939C93F601608171818091A90390915F
:105A5000AA0323E0959587952A95E1F7861797077E
:105A60000CF08BC2EFEFD401EC93D60112964D915E
:105A70005C91139761507109832D0E94F21688235F
:105A800009F47BC2F60180819181019703C68531BB
:105A9000A1F5D60112964D915C911397F401808186
:105AA0006D917C91680F711D87FD7A95832D0E9401
:105AB000F216882309F4DFC5D4018C91F601008128
:105AC0001181080F111D87FD1A958091AE030E9468
:105AD000F2130897081719070CF0CDC5D4012C91C3
