:100000000C94450E0C946D0E0C946D0E0C946D0EAC
:100010000C946D0E0C946D0E0C946D0E0C946D0E74
:100020000C946D0E0C946D0E0C94541B0C94C31B0D
:100030000C946D0E0C946D0E0C946D0E0C946D0E54
:100040000C946D0E0C946D0E0C946D0E0C946D0E44
:100050000C946D0E0C946D0E0C946D0E0C94F51D9D
:100060000C946D0E0C946D0E0C946D0E0C946D0E24
:100070000C946D0E0C946D0E0C946D0E0C946D0E14
:100080000C943F1E0C946D0E0C946D0E0C946D0E22
:100090000C946D0E0C946D0E0C946D0E0C946D0EF4
:1000A0000C946D0E0C946D0E0C946D0EB8017D00C9
:1000B000DC007D000080DC03D400BA02D4007003B1
:1000C000D400DC03D4007003D400BA02D4002705A6
:1000D000D4000000D4002705D400DC03D40097042A
:1000E000D4002705D4009704D400DC039F0000004F
:1000F0003500DC03D4000000D40000800E0800FEB0
:10010000A6DAFADAA6FEFEFEFEFEFEFE0F0800FEEE
:10011000FEFEFEFEFEFEFEFEFEFEFEFE000000FCFB
:10012000FEFFFFFFFFFFFFFEFC00000000000000DD
:100130000000000000000098FDFFFFFFFFFFFFFD33
:10014000980000000000000000000000000203030F
:10015000030303030303030303030200000000007F
:10016000000000000018120000FC028181818181E2
:100170008102FC0000000000000000000000000000
:10018000009865AA41838341AA6598000000000099
:10019000000000000000000201000101000000005A
:1001A000010100010200000000000000000000004A
:1001B00000FC02E1B5D5D5B5E102FC00000000006D
:1001C0000000000000000000009865AA4182824102
:1001D000AA65980000000000000000000000000276
:1001E0000100010100000000010100010200000007
:1001F0000000000000000000000000060F1F3F3F4D
:100200003F3F3F7FFFFFFF7F3F1F1F0F06000000A4
:1002100000000000000000060F1F1F3F7FFFFFFFD0
:100220007F3F3F3F3F3F1F0F060000000000001CC4
:1002300008000000000609162F2F2F3F235DBFBFC7
:10024000BF5B271F16090600000000000000000029
:10025000000609161F275BBFBFBF5D233F2F2F2F4F
:100260001609060000000000002B2000000000001E
:10027000FF0100000000000000000000FCFFFFE0A4
:100280009F3F1F5FEFF783BF808080CF473B67FFB3
:10029000FFFFFFFFFFFF0000000000000000000064
:1002A00000000000000000030701030FFFFFFFFE36
:1002B000FEFE3EFEFEFE7E3FC7FCFFFFFFFFFFFF90
:1002C000FF0000000000000000000000000000002F
:1002D000000000000020381F9FDFCFE7F3F0F9FD9A
:1002E000FEFEFFFFFFFFFFFFFFFFFFFFE0E0E0F08C
:1002F000F0F0783C0C808080C0C0E0F0F8F8FCFCA6
:10030000FEFEFFFFFFFFFFFFFFFFFFFFFFFFFFFFFF
:10031000FFFFFFFFFFFFFF0000000000FF010000E4
:10032000000000000000000000FCFF00FEFFFFFFD7
:10033000FCF3FFFC00000FF0FFFFFFFFFFFFFFFFDC
:10034000FFFF0000000000000000000000000000AF
:10035000000000FFFF7FF8E7CFC7D7BBBDA0AFA06D
:10036000A0A0B3D1CE19FFFFFFFFFFFFFF000000E9
:10037000000000000000000000000000000000017C
:10038000000003FFFFFFFFFFFF0F7F7FBF9FCFF145
:10039000FFFFFFFFFFFFFFFFE0E0E0F0F0F0783C41
:1003A0000C808080C0C0E0F0F8FCCEC1C8EEE7E76A
:1003B000F7F3F9FCFCFEFFFFFFFFFFFFFFFFFFFF6E
:1003C000FFFFFF5030FFFFFFFFFFFFFFFFFFFFFFBB
:1003D000FF0000FC0000FFFFFFFFFFFFFF0000FE2B
:1003E0000000FF3F0F83631189C8E4F4F4F4E4C80C
:1003F000891163830F1FFC0000F83061C78F1F3F16
:100400007FFF0000FC0000FCFFFFFFFFFFFFFFFF7E
:10041000FFFFFFFFFFFFFFFFFFFFFFFFFFFFFFFFEC
:10042000FF0000FF80809F9F9F9F1F1FFF0000FF16
:100430000000FFF0C0871820234F4F9F9F9F4F4F12
:1004400043201887C0F0FF0000FF0000F0E1C386E2
:100450000C183060FF0000FFFFFFFFFFFFFFFFFFF2
:10046000FFFFFFFFFFFF3F3F1F1717171717171754
:10047000173434F4F4F4F474743414143774F4F456
:10048000F4F4F7F777171716163674F4F4F4F4F457
:10049000763617171777F4F4F4F4141415171717A2
:1004A0001716141494F4F4F477171717171717176F
:1004B0001F1F3F7FFFF8FCFEFEFF0F0000FCFFFF49
:1004C000FEFCFE7F0F030170383C3E3E3C380001CD
:1004D000077FFFFF000000FCF8E0800003070180B9
:1004E000E0F8FC000000FFFFFF1F00000C8E8F876C
:1004F0000787EEFEFFFFFFFF0000003E3F1F1F0FBC
:100500000680E0F0FFFFFFFFFFFF0000001FFFFF7E
:10051000FFFFFF00000038FCFEFEFEFEFE7E1E0018
:100520000000FFFF0000000FFFFFFFFCF0F0F8FFEE
:10053000FFFF0F000000FFFFFF0000001F3F3F3FD5
:100540003F1F1F0F3FFFFFFF0000003CFEFEFEF8B5
:10055000C00001073FFFFFFFFFFFFEFEFEFEFFFFA3
:10056000FFFFFFFFFEFEFEFEFFFFFFFFFFFEFEFEA2
:10057000FEFFFFFFFFFEFEFEFEFFFFFFFFFFFFFF90
:10058000FFFFFEFEFEFFFFFFFFFEFEFEFEFEFEFE85
:10059000FEFEFEFEFEFFFFFFFFFEFEFEFFFFFFFF73
:1005A000FFFEFEFEFED5F08D14A1C881CFD9F1AFBC
:1005B00020000068FCFEFEFFFFFFFFFEFEFC00C007
:1005C000E0F1FBFFFFFFFFFFFFFF01030303030356
:1005D0000303030303030C120068946AEAD1F5E1F4
:1005E000A1C202FC00C020110A959B8C807C03FEF6
:1005F0000102010200000202020000030FFFFFFFE0
:10060000FFFFFFFFFCE00000000000000000000012
:100610000000000FFFFFFFFFFFFFFFFEF080000064
:10062000000000000000000000010F7FFFFFFFFF3F
:10063000FFFFFFF8C0000000000000000000000005
:1006400000077FFFFFFFFFFFFFFFFEE0000000004D
:100650000000000000000000077FFFFFFFFFFFFF1A
:10066000FFFFF8800000000000000000000000070D
:100670003FFFFFFFFFFFFFFFFFFC00000000000047
:10068000000000000000033FFFFFFFFFFFFFFF002F
:100690000000000000000000000000000003FFFF59
:1006A000FFFFFFFF15400FF00014A8010CE31CE052
:1006B000000000000000000000000000000FF00239
:1006C00015000006718E7080000000000000000020
:1006D000000000010E70800A54A00738C738C0001F
:1006E00000000000000000000000000778800A54AD
:1006F00000031EE11EE000000000000000000000FA
:100700000000077880000050811FF8877880000083
:100710000000000000000000000738C0012A50A0BF
:100720000F0C03FC000000000000000000000000AF
:10073000033CC0010A000000FF00000000000000B0
:100740000000000000000003FC00000000FF4B4020
:10075000FFFFFFFFFFFFFFFFFFFFFF7F7F7F7F7F29
:100760007F7F7F7F7F7F7F7F7F7F7F7F7F7F7F7F99
:100770007F7F7F7F7F7F7F7F7F7F7F7F7F7F7F7F89
:100780007F7F7F7F7F7F7F7F7F7F7F7F7F7F7F7F79
:10079000FFFFFFFFFFFFFFFFFFFFFFFFFFFFFFFF69
:1007A000FFFFFFFFFFFEFFFFFFFFFFFFFFABFEFFAF
:1007B000FFFFFFFFFFFFBFEAFFFFFFFFFFFFFFFF9E
:1007C000AAFFFFFFFFFFFFFFFFEABFFFFFFFFFFFE3
:1007D000FFFFFEABFFFFFFFFFFFFFFFEFFFFFFFF7F
:1007E000FFFFFFFFFFFFFFFFFFFFFFFFFF9FC7DFD1
:1007F000DFDFDFDFDFDFDF4BDEDFDFDFDFDFDFDF9E
:10080000DF4ADFDFDFDFDFDFDFDFDF4ADFDFDFDF22
:10081000DFDFDFDFDF4ADFDFDFDFDFDFDFDFDE4B12
:10082000DFDFDFDFDFDFDFDFC79FFFFFFFFFFFFF70
:10083000FFFFFFFFFFFFFFFFFFFFFFFFFFFFFFFFC8
:10084000FF55FFFFFFFFFFFFFFFFFF5FF5FFFFFF0C
:10085000FFFFFFFFFFFF55FFFFFFFFFFFFFFFFFF52
:10086000F55FFFFFFFFFFFFFFFFFFF55FFFFFFFFEC
:10087000FFFFFFFFFFFFFFFFFFFFFFFFFFFFFFFF88
:100880007FFFFFFFFFFFFFFFFFFFFF55FFFFFFFFA2
:10089000FFFFFFFFFFFF55FFFFFFFFFFFFFFFFFF12
:1008A000FF55FFFFFFFFFFFFFFFFFFFF55FFFFFFAC
:1008B000FFFFFFFFFFFFFF55FFFFFFFFFFFFFFFFF2
:1008C000FFFF7FFFFFFFFFFFFFFFF1FCFDFDFDFDD1
:1008D000FDFDFDFDFDA9FDFDFDFDFDFDFDFDFDFD9C
:1008E000BDE9FDFDFDFDFDFDFDFDFDFDA9FDFDFDE0
:1008F000FDFDFDFDFDFDFDE9BDFDFDFDFDFDFDFD7C
:10090000FDFDFDA9FDFDFDFDFDFDFDFDFDFCF1FF76
:10091000FFFFFFFFFFFFFFFFFFFFFFFFFFFFFFAA3C
:10092000FFFFFFFFFFFFFFFFFFFFFFAAFFFFFFFF2C
:10093000FFFFFFFFFFFFFFAAFFFFFFFFFFFFFFFF1C
:10094000FFFFFFAAFFFFFFFFFFFFFFFFFFFFFFAA61
:10095000FFFFFFFFFFFFFFFFFFFFFFFFFFBF8FBF97
:10096000BFBFBFBFBFBFBFBFBFAABFBFBFBFBFBFAC
:10097000BFBFBFBFBFBFAABFBFBFBFBFBFBFBFBF9C
:10098000BFBFAABFBFBFBFBFBFBFBFBFBFBFAABFA1
:10099000BFBFBFBFBFBFBFBFBFBFBFAABFBFBFBF7C
:1009A000BFBFBFBFBFBF8FBF1638C31D36CE76B621
:1009B00075B3EF1FFFFFFFFFFFFFFFFFFFFFFFFF0D
:1009C000FFFFFEFCFDFDFDFDFCFCFCFDFFFFFFFF4E
:1009D000FFFFFFFFFFFFFFFFFFFFFFFFFF1F67FBA3
:1009E000DDBDBEDEDE3E3D9DB3A79F7FFFFFFFFF67
:1009F000FFFFFFFAF1E3E2E58558FEB76F6FB7B787
:100A00006F6FFFFFFFFFFFFFFFFFFFFFFFFFFEFC1A
:100A1000F8F8F9F9F8F8F9F9FFFFFFFFFFFFFFFF1A
:100A2000FFFFFFFFFFFFFFFFFFFFFF3FDFEFFFFFC6
:100A3000FFFFFFFFFFFFFFFFFFFFFFFFFFFFFFFFC6
:100A4000D08B1F161638FFFFFFFFFFFFFFFFFFFFD2
:100A5000FFFF1FEFB375B676CE361DC3FFFFFFFF56
:100A6000FFFFFFFFFFFFFDFCFCFCFDFDFDFDFCFEAD
:100A7000FFFF7F9FA7B39D3D3EDEDEBEBDDDFB6772
:100A80001FFFFFFFFFFFFFFF6F6FB7B76F6FB7FE6F
:100A90005885E5E2E3F1FAFFFFFFFFFFFFFFF9F9F9
:100AA000F8F8F9F9F8F8FCFEFFFFFFFFFFFFFFFF82
:100AB000FFFFFFFFEFDF3FFFFFFFFFFFFFFFFFFF36
:100AC000FFFFFFFFFFFFFFFFFFFF161F8BD0FFFFA2
:100AD000FFFFFFFFFFFFFFFFFFFFFFFFFFFFFFFF26
:100AE000FFFFFFFFFFFFFFFFFFFFFFFFFFFFFFFF16
:100AF000FFFFFFF81F1F3F3F3F3F3F3F3F3F3F3F4D
:100B00003F3F3F3F3F3F3F3F140EFF01FDFDFDFDD7
:100B1000FDEDF5B54DFDFDFDFDFDFD0107FC1F10D3
:100B20003727272727262525262727272727272052
:100B3000203FFF01FDFDFDFDFDED75B5CDFDFDFD8A
:100B4000FDFDFD0107FC1F1037272727272425253A
:100B50002527272727272720203FFF01FDFDFDFD13
:100B6000FDFDED05FDFDFDFDFDFDFD0107FC1F107B
:100B70003727272727272524252727272727272003
:100B8000203FFF01FDFD0DF5B52DFD0DF5F50DFD2A
:100B900005FDFD0107FC1F103727262525262726E2
:100BA0002525262725272720203FFFFFFFFFFFFFC2
:100BB000FFFFFFFFFFFFFFFFFFFFFFFFFFFFFFFF45
:100BC000FFFFFFFFFFFFFFFFFFFFFFFFFFFFFFFF35
:100BD000FFFFFFFFFFFFFFFFFFFFFFFFFFFFFFFF25
:100BE000FFFFFFFFFFFC1F1F3F3F3F3F3F3F3F3FD8
:100BF0003F3F3F3F3F3F3F3F3F3F3F3F3F3F3F3F05
:100C00003F3F3F3F3F3F3F3F3F3F3F3F3F3F3F3FF4
:100C10003F3F3F3F3F3F3F3F3F3F3F3F3F3F3F3FE4
:100C20003F3F3C0EFF01FDFDFDFDFD0DF5B52DFD2A
:100C30000DB5B50DFD05EDDDED05FD05B5B5F5FD14
:100C4000FDFD0DF5F50DFD05FDFDFD05FD05B5B53C
:100C5000F5FD05B5B54DFDFDFDFDFDFDFD0107FCF7
:100C60001F1037272727272625252627242727242F
:100C70002724272727242724252525272727262516
:100C80002526272726252627272425252527242707
:100C900027242727272727272720203F00081CFE57
:100CA000FEFCFCFEFEFCC0C0C0800002070F0F0768
:100CB00007030307070707030060F0F0F0F0FEFFEB
:100CC000FFFF9E00000000060F1F0F0707070F1F02
:100CD0000F06000070F8F8F8F8F0F0F8F8FCFC38AF
:100CE0001000000000000F1F1F0F0F1F1F0E040039
:100CF0000000187CFEFCF8F8F8FCFEFC98000000F0
:100D0000001E3F3F3F1F0303030301000E0E0008B8
:100D100014EA0AF414FA82BC404040800002050A3A
:100D20000A05050202050505040300609050D05035
:100D30004E719D619E00000000060916090505051B
:100D40000916090600007088A8A86850D028E81481
:100D5000D4281000000000000F10170A0B14150A09
:100D60000400000018649A64A8A8A8E49A64980093
:100D70000000001E212E231C02020202010080C07E
:100D8000C0C0FCFEFEFCFCFEFE1C080003070707BB
:100D900007030307070F0F0702000000009EFFFF75
:100DA000FFFEF0F0F0F060000000060F1F0F0707D5
:100DB000070F1F0F0600001038FCFCF8F8F0F0F8E1
:100DC000F8F8F87000040E1F1F0F0F1F1F0F000010
:100DD00000000098FCFEFCF8F8F8FCFE7C1800000F
:100DE0000001030303031F3F3F3F1E0000000E0EE0
:100DF00080404040BC82FA14F40AEA14080003045C
:100E0000050505020205050A0A0502000000009E0C
:100E1000619D714E50D05090600000000609160987
:100E20000505050916090600001028D414E828D085
:100E30005068A8A8887000040A15140B0A17100F30
:100E4000000000000098649AE4A8A8A8649A6418B6
:100E500000000001020202021C232E211E000000DD
:100E6000030102010808FF9F91FDFD9D91FF7F9FF7
:100E700091EDF59D91FE03081F111F001F001D1528
:100E80001711151F07041F17151D1F151D01011F21
:100E90001F151F17151F0D08E0FBE0FFE0FFF1EE27
:100EA000E2FFE0FBE01808E1FAE1FFFFFBFBFFFFD8
:100EB000E0EAEEFFE1FAE1FFEDEAF6FFFCE3FCE039
:100EC000EAF5FFFFFBFBFFFFE0FBE0FFE1FAE1FFDC
:100ED000E0FAE5FFE0EEF14230FFFFFFFFFFFFFF2A
:100EE000FFFFFFFFFFFFFFFFFFFFFFFFFFFFFFFF12
:100EF000FFFFFFFF7F3F1F0F07070FFFFFFFFFFFF2
:100F00003F0703C7FFFFFF1F0F070F1F3FFFFFFF35
:100F1000FFFFFFFFFFFFFFFFFFFFFFFFFFFFFFFFE1
:100F2000FFFFFFFFFF7F7F3F3F1F0F0707078FEF89
:100F3000FF3F1F0F0301000000000000FFFFFF7FC5
:100F40000F010000F8FFFF7F070000C0E0C0800035
:100F5000033FFFFFFF0103070F1FFFFFFFFFFFFF1F
:100F6000FF7F3F0F83C0F0F0F87C380080E0FC7F0B
:100F70000F0380C0F8FCFEFF3E0000C0F8FFFF1F1B
:100F800003C0000000FCFFFF3F000040FE7F3F1F4A
:100F90000300E0FCFFFFFF000000E0FCFFFFFFFF9D
:100FA000FFFF0300800407070341E0E0FCFFFF9F11
:100FB000030080F8FFFFFF7F3F010000F8FF3F07BD
:100FC00000F0FE7F0000F8FFFF1F0000800000001F
:100FD00018FCFEFFFFFFFF8780E0FCFFFFFFFFFF25
:100FE000FFFFE7C080C0FFFFF8F000000307FFFF2E
:100FF0008100000003070F07030080C0F87F0F0186
:1010000000000001000000F0FF1F010080F0FFF071
:1010100000000001E3FFFFF7E3C1E3FFFFFFFFFF75
:10102000FFFFFFFFFFFFFFFFFFFFFFFFFEFCFCFFD7
:10103000FFFFFFFCC0808080C0F0F8FCFFC783C0CA
:10104000E0FCFEFEFCC080C0E0DF8FC0C0F0FFFF10
:10105000FFFFFEFCFEFFFFFFFFFFFFFFFFFFFFFFA5
:10106000FFFFFFFFFF2B20000000000000000040FA
:10107000C0E0E0E0F0F0F0F0F0F0F0E0A0E0C0D090
:10108000F0F0376F1F7FFFFFFFFFFFFFFFFFFFFF46
:10109000FFFF010101000000000000040E1F3F7F60
:1010A000FEF2F0F0F6FAF8F6F0F0F2F7F7EFEFBE36
:1010B0007E7E3E1E1E1D1D190B0BE79F7F808080CC
:1010C000C0C0C0C0E0E0E020000000000001030359
:1010D00003030100010137337B7F7FBFBF9F5F2F79
:1010E000171F8B083B7781FC0707070703F3FF1FD8
:1010F0000700000000000000000080E03886F1E0FA
:10110000E89060E0800007C130CCF0FEFFFFFFFEFA
:10111000FFFFFF000000000000000040C0E0E0E032
:10112000F0F0F0F0F0F0F0E0A0E0C0D0F0F0376FB9
:101130001F7FFFFFFFFFFFFFFFFFFFFFFFFF01011B
:1011400001000000000000040E1F3F7FFEFBF9F9C4
:10115000FBFBFBFBF9F9F3F7F7EFEFBE7E7E3E1EDC
:101160001E1D1D190B0BE79F7F808080C0C0C0C073
:10117000E0E0E020000000000001030303030100A1
:10118000010137337B7F7FBFBF9F5F2F171F8B0806
:101190003B7781FC0707070703F3FF1F07000000E9
:1011A00000000000000080E03886F1E0E89060E098
:1011B000800007C130CCF0FEFFFFFFFEFFFFFF5CA9
:1011C00008C0DDDDE3FFDEC0DFFFE3DDDDE3FFE3DD
:1011D000DDDDEBFFC0F7EBDDFFDBC2DFFFC1FBFDB9
:1011E000C3FFB3ADADC1FFFFFFFFFDE0DDDFFFC01B
:1011F000FBFBC7FFE3D5D5D3FFDBC2DFFFC1FBFDA0
:10120000FBFFFFFFFFE3D5D5D3FFC9F7F7C9FFDB2E
:10121000C2DFFDE0DDDFFFDBD5D5EDFFDF4B08F7FB
:1012200081F6FEFFC1FBFDFBFFE3DDDDE3FFC1FB5C
:10123000FBC1FFFFFFFFFFE3D5D5D3FFDBD5D5ED26
:10124000FFE3DDDDEBFFEFD5D5C3FF81DDDDE3FFA0
:10125000DBC2DFFFC1FBFDC3FFB3ADADC1FFFFFFCD
:10126000FFC0DDDDE3FFB1AFAFC15008C0F6F6F956
:10127000FFC1FBFDFBFFE3D5D5D3FFF1EFDFE1FFBE
:10128000E3D5D5D3FFC1FBFDC3FFFDE0DDDFFFFFED
:10129000FFFFFDE0DDDFFFC0FBFBC7FFE3D5D5D3DC
:1012A000FFFFFFFFFFDEC0DFFFDBC2DFFFE3DDDDAF
:1012B000E3FFC1FBFDC3FFDBD5D5EDFF0A1001FE47
:1012C000FE86EA86FEFE0103FFFEFCFCFCFCFCFC45
:1012D000FCFE0A1001FEF6E6C6E6F6FE0103FFFE7E
:1012E000FCFCFCFCFCFCFCFE00C0E0F0F8F8F8F8AC
:1012F000F8F8F0E0C000000000000000000080806E
:1013000000000000000F1F3F3F7FFFFFFFFFFFFFB8
:10131000FFFFFEFEFEFEFEFEFEFFFFFF3F1E0C0077
:1013200000004040C0C0F0FFFFFFFFFFFFFFFFFFD6
:10133000FFFFFFFFFFFFFFFFFEFC40400080C0E01B
:10134000F0F0F0F0F0F0E0C08000000000000000DD
:101350000000000080000000001F3F7F7FFFFFFFB4
:10136000FFFFFFFFFFFEFEFEFEFEFEFEFEFCFEFF99
:101370003F1F0E00004040C0C0C0F1FFFFFFFFFF55
:10138000FFFFFEDCC9E1F1FFFFFFFFFFFEFC404075
:101390000000C0E0F0F8F8F8F8F8F8F0E0C000005D
:1013A00000000000000000000000000000071F3FD8
:1013B000FFFFFFFFFFFFFFFFFFFFFFFEFEFCF8F850
:1013C000F0F0F8FCFCF8F00000404247CFC7CFFF38
:1013D000FFFFFFFFFFFFFFFFFFFFFFFFFFFFFFFF1D
:1013E000FFFF7C4000000000808000000000000043
:1013F000000000C0E0F0F8F8F8F8F8F8F0E0C000FD
:10140000000C1E3FFFFFFFFEFEFEFEFEFEFEFFFF86
:10141000FFFFFFFFFFFF7F3F3F1F0F004040FCFE2D
:10142000FFFFFFFFFFFFFFFFFFFFFFFFFFFFFFFFCC
:10143000FFF0C0C04040000000000080000000003D
:101440000000000000000080C0E0F0F0F0F0F0F0DC
:10145000E0C08000000E1F3FFFFEFCFEFEFEFEFE11
:10146000FEFEFEFFFFFFFFFFFFFFFF7F7F3F1F002E
:101470004040FCFEFFFFFFFFFFF1E1C9DCFEFFFF84
:10148000FFFFFFFFFFF1C0C0C040400000000000B0
:1014900000000000000000000000C0E0F0F8F8F8D4
:1014A000F8F8F8F0E0C0000000F0F8FCFCF8F0F00C
:1014B000F8F8FCFEFEFFFFFFFFFFFFFFFFFFFFFF4F
:1014C0003F1F0700407CFFFFFFFFFFFFFFFFFFFF05
:1014D000FFFFFFFFFFFFFFFFFFCFC7CF47424000E7
:1014E0000000000000000080C0E0F0F0F0F0F0F03C
:1014F000F0E0C080000000000000000000000000DC
:101500000000069FFFFFFFFFFFFFFFFFFFFFFF9FA2
:10151000060000000000000000000000000000774E
:10152000FFFFFFFFFFFFFFFFFFFFFF77000000004F
:10153000000000000000000000000080C0E0F0F0AB
:10154000F0F0F0F0F0E0C0800000000000000000CB
:10155000000000000000069FFFFFFFFFFFFFFFFFEE
:10156000FFFFFF9F060000000000000000000000D9
:1015700000000077FFFFFFFFFFFFFFFFFFFFFF7788
:1015800000000000000000001C1700C02050C848E8
:1015900088C8C8081020C00000000000000000003B
:1015A000808000000000000916292D47830100C03B
:1015B000C0F0FC7B7A7AFAFAFAFA1A17549A2D12CA
:1015C0000C00000000000000300F300F310C082923
:1015D0001B28371F2D120C380801023C0000008028
:1015E00040A09090109090102040800000000000DB
:1015F000000000000000800000000C132C525B8EE5
:101600000703018080E0F9F67A7AFAFAFAFAFA1416
:1016100056992E110E00000000000000310E00014E
:10162000310D0B320C08000020100D0B363D023C32
:1016300000000000C06010C848C888C8081020C05A
:101640000000000000000000000000000000020593
:10165000182AD35D47830100C0C0F0FC7B7A7AF47E
:10166000E8E8D0D0B8A4D4689060000002050A056C
:1016700001310E300F310C02211728371F2F1700B0
:1016800030020C033C0000000000808000000000DD
:101690000000000000C0201008C8C88848C85020BA
:1016A000C000000C122D9A54171AFAFAFAFA7A7A34
:1016B0007BFCF0C0C0000183472D29160900000003
:1016C0003C020108380C122D1F37281B29080C3149
:1016D0000F300F300000000000000000008000000C
:1016E00000000000000000000080402010909010DA
:1016F0009090A0408000000E112E995614FAFAFA2C
:10170000FAFA7A7AF6F9E080800103078E5B522CB0
:10171000130C00003C023D360B0D10200000080C9D
:10172000320B0D3101000E310000000000000000FE
:10173000000000000000000000000000C0201008B1
:10174000C888C848C81060C00000609068D4A4B8B9
:10175000D0D0E8E8F47A7A7BFCF0C0C0000183477F
:101760005DD32A180502003C030C023000172F1F1E
:1017700037281721020C310F300E3101050A0502FE
:1017800000000000000000000080402010909090B9
:101790009090102040800000000000000000000039
:1017A0000000000006996083860F1A131A0F8683C3
:1017B000609906000000000000000000000000002A
:1017C000003708373F032A2A2A033F37083700002B
:1017D000000000000000000000000000008040A0A9
:1017E00010101010101010A0408000000000000029
:1017F000000000000000000006996081C0C0C0C069
:10180000C0C0C08160990600000000000000000018
:1018100000000000003708373F032D122E113F371C
:1018200008370000000000000000002070F8F8F009
:10183000F0F8F8F00068FCFEFEFFFFFFFFFEFEFC84
:10184000000000081C3F3F1F1F0F0F1F1F1EBFFF80
:10185000FFFFFFFFFFFFC38000000000000000004B
:101860000000000002030303030303030303030355
:1018700003022070F8F8F0F0F8F8F0000068FCFEC1
:10188000FEFFFFFFFFFEFEFC0000081C3F3F1F1F86
:101890000F0F1F1F1E1EBFFFFFFFFFFFFFFFC380B5
:1018A000000000000000000000000000020303032D
:1018B000030303030303030303021812002050A8C9
:1018C00028D050E808F00068946AEAD1F5E1A1C296
:1018D00002FC00000008142B2817140B0A1615121E
:1018E000AD6DA2559B8C40BC438000000000000001
:1018F00000000000000002010001010000000001E2
:10190000010001022050A828D050E808F00000682B
:10191000946AEAD1F5E1A1C202FC000008142B2868
:1019200017140B0A16151212AD6DA2559B8C40BCF4
:1019300043800000000000000000000000000201E1
:101940000001010000000001010001020000FCFE96
:10195000FEFFFFFFFFFEFEFC6800F0F8F8F0F0F875
:10196000F8702000000080C3FFFFFFFFFFFFFFBFF4
:101970001E1F1F0F0F1F1F3F3F1C08000203030302
:10198000030303030303030303020000000000003A
:10199000000000000000FCFEFEFFFFFFFFFEFEFC5B
:1019A000680000F0F8F8F0F0F8F87020000080C34C
:1019B000FFFFFFFFFFFFFFBF1E1E1F1F0F0F1F1F99
:1019C0003F3F1C0802030303030303030303030352
:1019D00003020000000000000000000018120000D8
:1019E000FC02C2A1E1F5D1EA6A946800F008E8506F
:1019F000D028A850200000008043BC408C9B55A2FA
:101A00006DAD1215160A0B1417282B1408000201CD
:101A100000010100000000010100010200000000BF
:101A20000000000000000000FC02C2A1E1F5D1EAC4
:101A30006A94680000F008E850D028A85020000000
:101A40008043BC408C9B55A26DAD121215160A0B3B
:101A50001417282B140802010001010000000001E6
:101A600001000102000000000000000000000A1058
:101A700001FEFE82AAD6FEFE0103FFFEFCFCFCFC7A
:101A8000FCFCFCFE0A1001FEFEFEFEFEFEFE010353
:101A9000FFFEFCFCFCFCFCFCFCFE0A1001FEDECEA2
:101AA000C6CEDEFE0103FFFEFCFCFCFCFCFCFCFEE3
:101AB0000208D4D205077F7F3E1C08411FFE0105A6
:101AC000F1F1F111D1B1D111F151515151515151A6
:101AD000515151515151510000FF00007F7F0909C0
:101AE0000F06007F7F19396F46007F7F49494141CA
:101AF00000266F49497B3200266F49497B32FF003F
:101B000000FFFFFFFEFFFEFF0279CD95A5CD790115
:101B100011111101F9F901010000FF00007F7F0997
:101B2000090F06007F7F40404040007C7E0B0B7E0B
:101B30007C00070F78780F0700000000000000FF0E
:101B400000001F3F3F33333333333E36363E363E9D
:101B5000363E36363E36363E360000FF00003E7FCB
:101B600041417F3E007F7F0E1C7F7F000000000010
:101B70000000000000000000000000000000000065
:101B80003F405040404078464141595941414141D0
:101B90005959414141414141414100007F0000010B
:101BA000017F7F0101007C7E0B0B7E7C007F7F0923
:101BB000090F06007F7F49494141000000000000F5
:101BC00000E402F0013F034801A403F60000000115
:101BD000013F03F60000000101A403A000DC03F0B4
:101BE00001A40348013F03A20000005501E402A242
:101BF00000000055013F03A000A40348012A02A2EF
:101C000000000055012A02A200000055012A02A08E
:101C10000000000C002A02E0010080080B00020214
:101C20000200000904000001020200000524001067
:101C30000105240101010424020605240600010710
:101C400005810310004009040100020A000000079A
:101C5000050202400000070583024000000403095A
:101C60000412010002EF020140412336800001010D
:101C700002030141726475696E6F204C4C43004150
:101C8000424C313130360000DB1E11241FBECFEF35
:101C9000DAE0DEBFCDBF14E0A0E0B1E0E0EFF1E5B7
:101CA00002C005900D92AE34B107D9F728E0AEE43A
:101CB000B4E001C01D92AE3FB207E1F71EE0C5E4FB
:101CC000DEE004C02197FE010E94E928C434D10758
:101CD000C9F70E94121F0C94F6280C940000809102
:101CE000DC0808959091F908982329F49091F80858
:101CF000982381E009F480E00895ECE8F4E0A0E0A6
:101D0000B8E000800EBC8111012C1197A0FDFDCF21
:101D10000192B9F70DB40895E1E0F0E00E94A10E40
:101D2000319728F068517C4F8F4F9F4FF9CFAB010F
:101D3000FC010E94A10E641775078E079F07C8F368
:101D40000895A4E6B4E02FB7F8947D918D919C910D
:101D500066B52FBFA89B05C06F3F18F47F5F8F4FFC
:101D60009F4F22E0660F771F881F991F2A95D1F792
:101D70000895FC0180918B04882311F13FB7F894FA
:101D800082E08093E9002091F200822F90E0181603
:101D9000190614F481E090E0882339F0289844E68D
:101DA00040938A044091F1004083222339F020912E
:101DB000F200211103C02BE62093E8003FBF0895F5
:101DC0008FEF9FEF08952FB7F89483E08093E90099
:101DD0009091E800892F807295FF04C09091F200E5
:101DE00080E4891B2FBF08958091820481110DC06A
:101DF00082E080937E0484E080937F0410928104CB
:101E00001092800481E0809382048EE794E008952C
:101E10008F929F92AF92BF92CF92DF92EF92FF92FA
:101E20000F931F93CF93DF936C017B018A01809105
:101E30005303882309F458C080918B04882309F444
:101E400053C080917D0480FF05C08091E0008260D6
:101E50008093E000E801B12C8AEFA82E93E0892E50
:101E60002AE3922E209711F4BB20B9F10E94E30ED1
:101E7000811106C0AA94AA20B9F10E948C0EF2CF5B
:101E80008C171D0611F00CF08C2F9FB7F8948092E0
:101E9000E9002091E80025FD02C09FBFE3CF282F75
:101EA00030E0C21BD30BF701815020F041914093E9
:101EB000F100FACFE20EF31EBB2021F09092E80071
:101EC000B12CEBCF8091E80085FDE7CF9092E80040
:101ED000BB24B394209709F3F3CF5D9884E68093F5
:101EE0007C04101611063CF081E090E0F60193832B
:101EF000828310E000E0C801DF91CF911F910F9124
:101F0000FF90EF90DF90CF90BF90AF909F908F9019
:101F10000895CF93DF931F92CDB7DEB76983DC01BD
:101F2000ED91FC910280F381E02D41E050E0BE0193
:101F30006F5F7F4F09950F90DF91CF91089583E0F8
:101F40008093E9008091F200882319F08AE380935E
:101F5000E80008950E94E30E90E00895CF93DF9388
:101F60001F92CDB7DEB7FC018485958597FD08C02B
:101F70002FEF3FEF358724870F90DF91CF910895A2
:101F8000CE0101960E94B90E019719F4898190E063
:101F9000F3CF8FEF9FEFF0CF0F931F93CF93DF938C
:101FA0001F92CDB7DEB78C01FC018485958597FF24
:101FB0000BC0CE0101960E94B90E019771F4898180
:101FC00090E0F80195878487F801848595850F90C6
:101FD000DF91CF911F910F9108958FEF9FEFF1CF78
:101FE000FC018485958597FD0BC09FB7F89482E02E
:101FF0008093E9008091F2009FBF90E001960895E0
:102000009FB7F89482E08093E9008091F2009FBF2F
:1020100090E00895409178045091790420917604DD
:102020003091770442175307B4F49091E80095700B
:10203000E1F39091E80092FD19C08093F100809146
:1020400078049091790401968F739927892B19F45C
:102050008EEF8093E8008091780490917904019646
:10206000909379048093780481E0089580E0089546
:10207000EF92FF920F931F93CF93DF93F82E192FB8
:10208000E62E042F81E0860F880F0E940A1083E05D
:102090000E940A10CF2DD12FEC0EFD2EF11CCE1573
:1020A000DF05B9F007FF13C0FE0184910E940A10FA
:1020B000182F80E00E940A10812321968111EFCF12
:1020C000DF91CF911F910F91FF90EF90089588813C
:1020D000EDCF81E0F5CFDF92EF92FF920F931F9348
:1020E000CF93DF93D82E8A01EB017B01E40EF51E1E
:1020F000CE15DF0559F0D7FE12C0FE0184910E9473
:102100000A1021968111F4CF0FEF1FEFC801DF9164
:10211000CF911F910F91FF90EF90DF9008958881EC
:10212000EECF0F931F93CF93DF931F92CDB7DEB700
:1021300082E0898342E450E06BE17CE180E80E9428
:102140006B100E94F40EDC0112960D911C9101158A
:10215000110589F0D801ED91FC910280F381E02D09
:10216000BE016F5F7F4FC801099597FD04C0F8015C
:1021700000851185ECCF89810F90DF91CF911F9160
:102180000F910895615030F02091F100FC012083FF
:102190000196F8CF289884E680938A0408956F9278
:1021A0007F928F929F92AF92BF92CF92DF92EF92E7
:1021B000FF920F931F93CF93DF934C01CB013A0112
:1021C0007C2DFA01649131965491F2E06F0E711CEE
:1021D000C62FD0E0211102C0EE2009F1E1E0F0E0CD
:1021E000352F377011F4F0E0E0E0A52FA695A69505
:1021F000A695AE0FBF2FB11DAC9FF001AD9FF00DA6
:10220000BC9FF00D1124733009F08BC0EE0FFF1F3F
:102210002E9FD0012F9FB00D11246A0E7B1ED4017A
:10222000AC0FBD1F1A161B060CF06CC020E88216FE
:1022300091040CF067C09C01250F311D1216130686
:102240000CF060C0803491050CF05CC06114710426
:1022500009F458C0382F3770FC0197FD379623E0FA
:10226000F595E7952A95E1F72E2F97FF04C03323C4
:1022700011F02FEF2E0FEE27FF27E819F90997FC31
:1022800002C0F0E0E0E090E89819A038B1050CF445
:10229000962F9E1BA22F022E000CBB0B4A2F40959F
:1022A0002F3F0CF040E0DD24D394852F877009F494
:1022B000D12C569556955695D50EAD0DB11D199745
:1022C0001CF058E0D52ED21AD41A240F50E825035A
:1022D000D0011124A80DB91DAE0FBF1F649FE00DE2
:1022E000F11D11246E0E7F1EE32E032E000CFF083D
:1022F000733009F423C108F5713009F4D6C0723087
:1023000009F484C0DF91CF911F910F91FF90EF905E
:10231000DF90CF90BF90AF909F908F907F906F9005
:1023200008950115110509F473CFEE9ED001EF9EBB
:10233000B00D11240A0F1B1F6BCF7A3FB1F10D2D89
:10234000020F7B3FF9F62017E9F2BD0164577B4F7E
:10235000D12CC12CC91608F0A2C0F301EC0DFD1D53
:10236000E491F0E0AF010E2C02C0440F551F0A9417
:10237000E2F727FD06C0FB018081142F1095812311
:102380008083332361F0273054F45B01F0E8AF0E13
:10239000B11C452F4095F501808184238083FFEF98
:1023A000CF1ADF0A6F5F7F4FD5CF0D2D020F201799
:1023B00009F4A8CFBD0164577B4FD12CC12CC9169D
:1023C00008F067C0F301EC0DFD1DE491F0E0AF01F2
:1023D0000E2C02C0440F551F0A94E2F727FD04C0DB
:1023E000FB018081842B8083332351F0273044F418
:1023F0005B01F0E8AF0EB11CF5018081852B808375
:10240000FFEFCF1ADF0A6F5F7F4FD9CF6FEF70E01A
:10241000032E02C0660F771F0A94E2F7609570954D
:10242000972E8D2C820E281509F46CCF8D01045740
:102430001B4FD12CC12CC91630F5F301EC0DFD1D3D
:10244000E491F0E0AF010E2C02C0440F551F0A9436
:10245000E2F727FD05C0F80180818623842B808365
:10246000332359F027304CF45801F0E8AF0EB11C7B
:10247000F50180818921852B8083FFEFCF1ADF0A48
:102480000F5F1F4FD8CF2F5F6C0E7D1EA058BF4F20
:10249000CACF2F5F6C0E7D1EA058BF4F88CF2F5F15
:1024A0006C0E7D1EA058BF4F4ECF0E0F1F1F8D2DDF
:1024B000820F281709F426CFBD0164577B4FD12C1A
:1024C000C12CC91698F5F801EC0DFD1DA490B12C96
:1024D0000E2C02C0AA0CBB1C0A94E2F7A094B09484
:1024E000F301EC0DFD1D8490912C0E2C02C0880C84
:1024F000991C0A94E2F727FD08C0FB014081E42FF4
:10250000EA214E2F4829FB014083332349F027302D
:102510003CF4FB01E058FF4FA080BA20B928B082FC
:10252000FFEFCF1ADF0A6F5F7F4FCBCF2F5F6C0EAD
:102530007D1E0C0F1D1FA058BF4FBBCFE92EF12CE5
:10254000E60DF71DA457BB4F60E870E06E197F09D8
:10255000CE19DF09AE01440F551FC1E0D0E07E0166
:10256000032E01C0EE0C0A94EAF7192F0D2D892EC7
:10257000932ECF93DF93ED01EF96EF962296A590E1
:10258000C590992059F0AE9C5001CE9C6001273037
:102590002CF4F880D094FD20FB28F99222233AF005
:1025A000FC90C094FC20FA28FD920C94D81211964D
:1025B0001A9529F70A9551F0182D23951124E40F47
:1025C000F11DA60FB11DC60FD11DD9CFDF91CF913F
:1025D000112498CECF92EF920F931F9332E0C32E27
:1025E000E12C10E000E00E94CF101F910F91EF90BE
:1025F000CF900895CF92EF920F931F93F901202F60
:10260000CC24C3948F010E94CF101F910F91EF90A3
:10261000CF900895BC0190E080E0AB01FC010E94E6
:10262000A10E41505109E109F10928F068517C4F90
:102630008F4F9F4FF6CFAB01FC010E94A10E641794
:1026400075078E079F07C8F308958FB18095807F27
:10265000669B88601C9B846008951092DC083E98FD
:102660003F9808953E9A3F9A81E08093DC08089550
:1026700020E191E061FD94E060FD990F62FD92958B
:10268000687F269FD0011124A80FA457BB4F8C91BF
:10269000442319F0892B8C93089590958923FBCFBF
:1026A000089520915A04E0915804F0915904CF0103
:1026B00002969093590480935804222319F085912F
:1026C00094910895808191810895E1E7F0E08081FF
:1026D0008D7F808382E08093910081E080939000E1
:1026E0004698109257040895CF92DF92EF92FF928E
:1026F000CF930E945113811520E8920739F4CF91AE
:10270000FF90EF90DF90CF900C94651321E0209321
:102710005704813020E8920751F48091550490913C
:10272000560490935904809358040E9451139F7744
:10273000009709F075C081E080935D0446988AEFA8
:1027400090E09C0150E040E060E079E08DE390E0B3
:102750000E94522869017A0181E0C81AD108E10873
:10276000F108C1E0C114D10421E0E206F10454F003
:10277000CD2CDE2CEF2CFF2481E0C81AD108E10813
:10278000F108C4E0E091EB08F091EC0809958111A3
:1027900003C081E080935D040E9451139C018FEF80
:1027A0009FEFDC012115310579F04FB7F894809146
:1027B000680490916904A0916A04B0916B044FBFC2
:1027C000820F931FA11DB11D80935E0490935F043F
:1027D000A0936004B0936104D0929700C0929600D9
:1027E0008091940090919500B0E0A0E0C816D906C1
:1027F000EA06FB0620F4D0929500C0929400C061D6
:10280000C093910080E1809390008091710082607C
:1028100080937100CF91FF90EF90DF90CF9008955B
:1028200010925D048F3F2FE7920709F08ACF81E075
:1028300080935C0484EB90E084CF9C01E1E7F0E0BE
:1028400090819D7F908381E080935A043093590456
:102850002093580430935604209355040C94741319
:102860009C01E1E7F0E090819D7F908310925A04F3
:10287000EDEDF8E0F0935904E0935804F09356041A
:10288000E0935504318320837383628380E090E872
:10289000958384830C947413CF93C62F882349F0B7
:1028A00020E043EC53E06AE070E08BE290E00E94AD
:1028B000EA122C2F49E652E060E270E090E080E0FE
:1028C000CF910C94EA128F929F92AF92BF92CF92C7
:1028D000DF92EF92FF920F931F93CF93DF9300D07D
:1028E0001F92CDB7DEB77C01D62E20E04CE051E040
:1028F00068E370E08FEF9FEF0E94EA1220E04CEF58
:1029000050E068E370E082E790E00E94EA122AE07B
:1029100030E0C701B9010E94C1288983CB01B90108
:102920000E94C1288A83C70164E670E00E94C12822
:10293000CB01B9010E94C1288B834E0184E0880E2F
:10294000911CAA24A394B12C9BEFC92EE12C10E07A
:1029500000E0F40122914F0146E75EE06AE370E097
:10296000C5010E94CF10F4E0AF0EB11C8DE0A81697
:10297000B10451F71EE7DD20B1F0A12EB12C8AE39E
:10298000E82EF12C17FD05C040E0B701C5010E94FB
:102990003813EFEFEE1AFE0AFFE3EF16F10491F79A
:1029A0001250DA94E8CF0F900F900F90DF91CF91F3
:1029B0001F910F91FF90EF90DF90CF90BF90AF905D
:1029C0009F908F90089586EB90E00E941D1487EFF2
:1029D00087BD88E080936F04809145038150809388
:1029E000450308958CEA90E00E941D1487EF87BD8F
:1029F00088E080936F048091700490917104019637
:102A000090937104809370040895FC01808588235D
:102A100081F1838594859230D9F048F49923A9F007
:102A2000913071F08F5F873019F18387089593316A
:102A3000E1F09431B1F09231A9F79285915002C042
:102A400092859F5F9287863069F79185915007C084
:102A5000928591509287863029F791859F5F918763
:102A6000E1CF92859F5F9287DDCF92859F5FF2CF06
:102A700013860895FC018085811110C08681813004
:102A800019F0823031F008958781E80FF11D8081BF
:102A900008958781E80FF11D838108958185089548
:102AA000FC018085811106C0878195E1899F802D79
:102AB00011240895828508958F929F92AF92BF92BC
:102AC000CF92DF92EF920F93CF93DF93EC015B01F4
:102AD0006A018091F6089091F7088770992704970A
:102AE00098F48F8190910802981305C09091070285
:102AF00001E0963050F090919201981305C001E0EA
:102B0000809191018F3008F400E0CE010E945015B1
:102B1000882E880F9908CE010E943A1590E02885EA
:102B2000211111C0E02E9601A501B4010E94FA12F4
:102B3000DF91CF910F91EF90DF90CF90BF90AF904A
:102B40009F908F9008952C85213019F000E023315B
:102B500009F401E02E81ECE0F0E0223011F0F0E029
:102B6000E0E0E12C2DE131E045E651E0B4018E0FCB
:102B70009F1FDCCFFC01EF58FF4F2081222309F477
:102B800056C034962081222319F0215020830895C5
:102B9000DC01AC58BF4F2C91FC01E759FF4F30814D
:102BA000323071F148F43323D1F03130F9F02F5F36
:102BB0002730E1F12C930895333191F1343151F103
:102BC0003231A9F7FC01ED58FF4F3081315030838D
:102BD000263069F73197808181508083E8CFFC01EE
:102BE000EE58FF4F908191509083E1CFFC01ED585A
:102BF000FF4F30813F5F30832630C9F63197F2CFE7
:102C0000FC01ED58FF4F308131503083263079F68A
:102C1000319703C0FC01ED58FF4F90819F5FE4CFD7
:102C2000FC01ED58FF4F30813F5FEFCF1C920895BC
:102C3000FC01E559FF4F2081213081F030F0223036
:102C4000D1F02330B1F486E00895FC01E759FF4F3D
:102C5000E081E80FF92FF11D87AD0895FC01E759D8
:102C6000FF4FE081E80FF92FF11DEC5AFF4F8081F3
:102C7000089580E0089587E00895CF93DF9300D012
:102C80001F92CDB7DEB72091580330915903409180
:102C90005A0329833A834B83FC01EF58FF4F20816D
:102CA000211132C03797E081EC0FFD2FF11D2181FA
:102CB000FC01E559FF4F3081323049F03330B1F03B
:102CC000822F0F900F900F90DF91CF910895DC012C
:102CD000A159BF4FFC01E259FF4F9C918081981B85
:102CE000892F99EF899F200D1124EACFDC01A1598A
:102CF000BF4FFC01E259FF4F9C918081981BE7E098
:102D00009E9F200D1124DCCF8D589F4FFC01208108
:102D1000D7CFCF92DF92EF920F93CF93DF93EC0157
:102D20000E941816082FCE010E943D16682F880FAA
:102D3000770B6E0121E7C20ED11CF6018081811153
:102D400049C0379780813197E0819E0145E1849F9A
:102D5000200D311D1124E20FF32FF11D8081E02E93
:102D600028EE32E148E855E1082E000C990B0E944C
:102D7000FA12F6018081882331F1FE01E759FF4FF5
:102D800080818F7E8230F9F48091F6089091F70867
:102D90008370992701E0029708F000E0CE010E94BD
:102DA0003D16682F880F770B685E7F4FCE58DF4F38
:102DB0008881E02E27EF31E04FE252E0082E000C30
:102DC000990B0E94FA12DF91CF910F91EF90DF9053
:102DD000CF900895FE01EE58FF4FC0CFEF92FF92C3
:102DE0000F931F93CF93DF93EC01E62EF42E8C010B
:102DF0000F581F4FF8018081DE01AE58BF4F81117F
:102E000027C0379780813197E0819E0145E1849FFB
:102E1000200D311D1124E20FF32FF11D80818C93C1
:102E2000CE010E943D16FE01ED58FF4F8083319682
:102E30001082F801E08280E0F11080E1CB58DF4F92
:102E40008883DF91CF911F910F91FF90EF900895AC
:102E50008C91E5CF81E00E947D0E40E054E06FEF61
:102E600070E08CE894E00C94EF280F931F93CF93BD
:102E7000DF938C01EB010E943C288883C8010196F6
:102E80000E943C288983CE01DF91CF911F910F9141
:102E90000895CF92DF92EF92FF926B017C01C114F3
:102EA000D104E104F10441F00E94E427A701960156
:102EB0000E9452286B017C01C701B601FF90EF9080
:102EC000DF90CF900895CF93DF93EC01FC01E5599B
:102ED000FF4F608365E070E080E090E00E9449175A
:102EE000C359DF4F6A5F7F4F8F4F9F4F6883DF91DA
:102EF000CF9108951F93CF93DF9384E08093F208DE
:102F000080931B0110926C04E1E0F1E011E0168364
:102F100017821086DAE0D487EEE0F1E0C2E0C683E3
:102F2000C7831086D487D093070210920C021092A8
:102F30000D0260E08EE991E00E9463171092080292
:102F400010930E0218E010930B0240E060E08EE94F
:102F500091E00E94EE1610921302D093910110920C
:102F600096011092970161E088E291E00E94631758
:102F7000C0939201C09398011093950140E060E0E6
:102F800088E291E00E94EE1610929D01DF91CF91B0
:102F90001F910895FC01E259FF4F23E020833196F1
:102FA00020833397408332972081213021F4665962
:102FB0007F4FFB01208162E0211101C063E00C948E
:102FC0006317FF920F931F93CF93DF93EC018B0155
:102FD000F42EFC01E659FF4F8081813019F158F041
:102FE0008230B1F1C459DF4FF882DF91CF911F9148
:102FF0000F91FF90089563E0CE010E946317F801DE
:10300000E659FF4F8081813059F010F0823051F73E
:1030100083E0FE01E259FF4F808331968083E2CF47
:1030200086E0F7CF83E0FE01E259FF4F80833196BF
:103030008083FB01E659FF4F8081823020F082308F
:1030400089F662E001C063E0CE010E946317CACF37
:1030500062E0D2CFCF92DF92EF92FF920F931F9355
:10306000CF93DF93EC018B01DC01A559BF4F3C915D
:10307000313009F475C168F1343000F5FC01E259D2
:10308000FF4F208121502083822F63E00E94B528CA
:1030900091110AC031968081835080833597808159
:1030A0003330A9F081508083211108C0FE01E1591D
:1030B000FF4F1082C459DF4F88818C93DF91CF91ED
:1030C0001F910F91FF90EF90DF90CF9008958F5F49
:1030D000EACF7C0129E6E20EF11CF701D080F9E08D
:1030E000FD1508F439C1ED2DF0E0E758F74E0C94CA
:1030F000E928601960196019551948191C19D11867
:1031000083188318831866E070E080E090E00E94E6
:103110004917F7015081611571058105910511F578
:10312000F801E759FF4F2081E52FE21BFF0B9F01BC
:103130003497C4F0F801E559FF4F4081413029F040
:10314000263031057CF041110DC041E0B801CE01BF
:10315000DF91CF911F910F91FF90EF90DF90CF9073
:103160000C94E117F801E659FF4F2081213049F016
:10317000319620812250223020F0672B682B692B5A
:1031800019F08FEF850F47C041E0B801CE01DF9104
:10319000CF911F910F91FF90EF90DF90CF900C9403
:1031A000CA17FC01E659FF4F9081809108019B01ED
:1031B00027593F4F6901981329C063E070E080E010
:1031C00090E00E944917F60120812A3058F032968B
:1031D00020812250223030F0611571058105910562
:1031E00009F4B3CFF801E659FF4F2081213049F0AF
:1031F000319620812250223020F0672B682B692BDA
:1032000019F2F70180818150808358CFF9018081C4
:10321000863018F085E0F701F7CF87E0F70180836B
:1032200061E0CE01DF91CF911F910F91FF90EF9060
:10323000DF90CF900C946317FC01E659FF4F90810B
:10324000809108019813DDCF8091700490917104F2
:103250008436910590F4F70180818F5F808361E06F
:10326000CE010E946317DF91CF911F910F91FF90C4
:10327000EF90DF90CF900C94F21462E070E080E069
:1032800090E00E944917672B682B692B21F3B9CF77
:10329000FC01E659FF4F908180910801981303C00B
:1032A00085E0F701DBCF83E0B6CFC659DF4F9881C9
:1032B00080910801891710F482E0ADCF81E0ABCF97
:1032C00010921B01FC01E059FF4F808180936C0438
:1032D000319680818111F2CE81E091E00E943A1511
:1032E00080930A0181E091E00E94501580930B01C8
:1032F00010920C0181E080930901D0920D0181E0D0
:1033000091E00E945015182F81E091E00E943A153B
:10331000825F8093EE081E5F1093EF081092F20810
:103320001092F00888E08093F10841E0FE01E65930
:10333000FF4F908180910801981340E061E0CE0139
:103340000E94EE16DF91CF911F910F91FF90EF90A9
:10335000DF90CF900C94E314DA94F701D082AECED4
:103360007C01F9E6EF0EF11CF701D080E5EFED0DE1
:10337000EA3008F014C1F0E0E054F64E0C94E9286D
:10338000CA19CA19CA19031A671A871A941A9F1AEE
:103390009F1A9F1A66E070E080E090E00E94491753
:1033A000F70150816115710581059105C9F4F80196
:1033B000E759FF4F2081E52FE21BFF0B9F012D3FB7
:1033C000FFEF3F076CF4F801E559FF4F40814423BC
:1033D00029F02B3F3F4F24F4413011F440E0B6CEAA
:1033E000F801E659FF4F2081213049F031962081C4
:1033F0002250223020F0672B682B692B11F081E0DE
:10340000C1CE40E0C2CE63E070E080E090E00E9478
:10341000491720916E04F801E759FF4F213099F5C3
:103420002081FE01E659FF4F408130911501431381
:1034300020C02B3060F4F801E559FF4F2081225065
:10344000223028F0611571058105910539F2F801E6
:10345000E659FF4F2081213049F0319620812250DA
:10346000223020F0672B682B692B59F2F7018081FD
:1034700004C0F70180812F3010F48F5FC5CE8150DA
:10348000808360E0CECE20812B3068F4F801E559CE
:10349000FF4F20812250223030F0611571058105E7
:1034A000910509F49BCFF801E659FF4F20812130A7
:1034B00051F0319620812250223028F0672B682B62
:1034C000692B09F49ECFF70180818150D9CFFC018F
:1034D000E659FF4F9081809115019813C7CF8091D5
:1034E0007004909171048436910530F4F701808165
:1034F0008150808360E0B4CE62E070E080E090E0D4
:103500000E944917672B682B692B81F3AFCFFC0111
:10351000E659FF4F908180911501981303C08FE009
:10352000F701E7CF81E177CEC659DF4F98818091CF
:103530001501891710F482E16ECE83E16CCE11E0A3
:1035400010931B01FC01E059FF4F808180936C04B4
:10355000319680818111B2CD8EE091E00E943A15C2
:10356000809317018EE091E00E945015809318011E
:103570001092190110931601D0921A018EE091E079
:103580000E945015082F8EE091E00E943A1580931A
:10359000EE080E5F0093EF081093F208C1CED394AB
:1035A000DCCEFF920F931F93CF93DF93EC01F62EA7
:1035B00008811981C8010E943C28F81621F06F2D5E
:1035C000C8010E944428CE01DF91CF911F910F9135
:1035D000FF900895EF92FF920F931F93CF93DF9385
:1035E00000D0CDB7DEB78C017B019A838983FB01C4
:1035F0006081CE0101960E94D11A0F5F1F4F1A837E
:103600000983F7016181CE0101960E94D11AC70199
:103610000F900F90DF91CF911F910F91FF90EF903E
:1036200008950F931F93CF93DF9300D000D0CDB7B1
:10363000DEB7182F8EEC90E00E943C28082F8FEC0C
:1036400090E00E943C280C3421F4843511F41123BD
:1036500011F11C821B828EEC90E09A8389836CE4CA
:10366000CE0101960E94D11A8FEC90E09A83898353
:1036700064E5CE0101960E94D11ABE016D5F7F4FB5
:1036800080ED90E00E94EA1ABE016D5F7F4F82EDEF
:1036900090E00E94EA1A0F900F900F900F90DF9128
:1036A000CF911F910F9108951F920F920FB60F9215
:1036B00011248F939F938091E1009091E100937F7B
:1036C0009093E10083FF0FC01092E90091E0909386
:1036D000EB001092EC0092E39093ED0010928B04BB
:1036E00098E09093F00082FF22C093E09093E9006D
:1036F0009091F200992319F09AE39093E800909149
:103700007C04992341F090917C04915090937C0427
:10371000911101C05D9A90918A04992341F0909192
:103720008A04915090938A04911101C0289A84FFD1
:1037300018C08091E2008E7E81608093E2008091CB
:10374000E1008F7E8093E10080917D048E7E806118
:1037500080937D049F918F910F900FBE0F901F90CB
:10376000189580FFF7CF8091E2008E7E8061809374
:10377000E2008091E1008E7E8093E10080917D04E3
:103780008E7E8160E5CF1F920F920FB60F921124AB
:10379000CF92DF92EF92FF920F931F932F933F935D
:1037A0004F935F936F937F938F939F93AF93BF9349
:1037B000EF93FF93CF93DF93CDB7DEB76C97DEBF68
:1037C000CDBF1092E9008091E80083FF25C068E03A
:1037D000CE0145960E94C21082EF8093E8008D8949
:1037E00087FF39C09091E80090FFFCCF982F90762A
:1037F00009F034C19E894F89588D2F89F88C911119
:1038000031C0803861F580917B048093F100109283
:10381000F1008EEF8093E8006C960FB6F894DEBF4F
:103820000FBECDBFDF91CF91FF91EF91BF91AF91CF
:103830009F918F917F916F915F914F913F912F91C8
:103840001F910F91FF90EF90DF90CF900F900FBEE0
:103850000F901F9018959EEF9093E800C7CF10929D
:10386000F100D5CF913059F48111D3CF41305105BA
:1038700081F680917B048D7F80937B04CACF933047
:1038800049F48111C6CF4130510519F680917B046E
:103890008260F2CF953041F48091E80080FFFCCF48
:1038A00020682093E300B5CF963009F0A9C00B8DB6
:1038B0001C8D22E01092E900109279041092780495
:1038C000F2122EC010927704109276040E9491108A
:1038D0001F8299E09983FA8291E09E8390EA98870B
:1038E0009AEF99872091780430917904275F3F4FB0
:1038F0003C832B838D831092E900109279041092FF
:103900007804109377040093760449E050E0BE01F8
:103910006F5F7F4F80E00E946B100E94911079CF03
:1039200010937704009376040E94F40EDC01129643
:103930000D911C910115110509F451C1D801ED91AA
:10394000FC910480F581E02DBE016B5E7F4FC801C4
:103950000995009709F03EC1F80100851185EACF6D
:10396000F3E0FF120EC08F89882309F440C0823033
:1039700061F440E867E08FE79CE10E943810811114
:1039800048CF81E28093EB0047CF813029F440E8B3
:103990006BE083E79CE1F1CF833099F70E94F40E4E
:1039A000DC011296ED90FC908E010F5F1F4F6801B5
:1039B000E114F10479F0D701ED91FC910680F781D3
:1039C000E02DB801C7010995080F111DF701E0842A
:1039D000F184EECFD8011C92F60101900020E9F7A6
:1039E0003197BF016C197D0940E0C601C6CF6DE576
:1039F0007CE1FB01449150E080E80E946B1009CF0C
:103A0000973009F4BECF983021F481E08093F10023
:103A100000CF993009F0FDCE837009F0B2CFE0E31A
:103A2000F4E081E031E096E32191222371F080936C
:103A3000E9003093EB00DF0111972C912093EC000B
:103A40009093ED008F5F873079F78EE78093EA00DF
:103A50001092EA008F8980938B04DBCE8B8D9C8D36
:103A60001092E900109279041092780490937704F0
:103A700080937604898D811192C08E899D89913AB7
:103A800049F4813209F07DCF47E050E06CE473E007
:103A900080E0B3CF913209F074CF833269F48F891B
:103AA000988DB0E0A0E08093480390934903A093E1
:103AB0004A03B0934B03ADCE803269F48091E800A5
:103AC00082FFFCCF67E08CE493E00E94C2108BEF92
:103AD0008093E8009ECE823209F09BCE8F8980933E
:103AE0005303EEEFFFE7859194918B3F9C4D51F18D
:103AF000E0E0F8E080914C0390914D03A0914E03DB
:103B0000B0914F03803B9440A105B105F1F4809141
:103B1000530380FD1AC0EE3F8AE0F80789F587E776
:103B200097E7918380838091600080937A0488E195
:103B30009BE00FB6F894A895809360000FBE909319
:103B4000600067CEEEEFFAE0D5CF808191818737B4
:103B5000974709F05ECEA8958091600088618093B8
:103B6000600080917A0480936000EE3F2AE0F207C3
:103B700089F08091FE0A9091FF0A9183808349CE5B
:103B8000808191818737980751F29093FF0A809343
:103B9000FE0AC5CF1092FF0A1092FE0A3ACE0E948A
:103BA000F40EDC0112960D911C910115110509F41A
:103BB000E8CED801ED91FC910190F081E02DBE019D
:103BC0006B5E7F4FC8010995811123CEF8010085F6
:103BD0001185EBCF181619060CF41BCED2CEF1E0EE
:103BE000FF12BECE61E67CE104CF0F920FB68F9339
:103BF0009F93EF93FF93809163048D5F8D3708F05F
:103C00008D5780936304E8E6F4E080818E4F8083D3
:103C100091819F4F918382818F4F828383818F4FC8
:103C20008383E4E6F4E080818F5F808381818F4F1E
:103C3000818382818F4F828383818F4F83838FB172
:103C40008F6066991C9B88278F3681F4809162046F
:103C5000981B963068F0E0E0F8E087E78083818386
:103C600088E180936000F0936000FFCF909362043E
:103C7000FF91EF919F918F910FBE0F9018951F921A
:103C80000F920FB60F9211242F933F934F935F9390
:103C90006F937F938F939F93AF93BF93EF93FF9314
:103CA0002FB7F8948091680490916904A0916A04F8
:103CB000B0916B042FBF40915E0450915F046091FE
:103CC00060047091610484179507A607B70708F090
:103CD00064C080915D04811138C080915C048823A8
:103CE00009F456C0809196009091970088399A43C4
:103CF00038F480915B04811103C081E080935B0400
:103D000080915B048823A1F08091960090919700A8
:103D1000855B9F4F90939700809396008091000160
:103D20008C306CF0809100018150809300010DC0B7
:103D300080919600909197008B549109EBCF8091E0
:103D400000018B3099F410920001FF91EF91BF9127
:103D5000AF919F918F917F916F915F914F913F9123
:103D60002F910F900FBE0F901F901895809100011A
:103D70008A3011F48CE0D9CF809100018A302CF781
:103D800088B190E4892788B9809100018F5FCDCFF9
:103D900088B190E4892788B9D8CF80915C048823C2
:103DA00039F010925C0410925B0486EF809300015E
:103DB0000E947413CACFECE8F8E01382128288EEF6
:103DC00093E0A0E0B0E084839583A683B7838AE381
:103DD00094E0918380838FEF9FEF95878487E3EF53
:103DE000F8E01582168280E187831482138211869F
:103DF0008CE494E0918380838FE69EE09093EC08BE
:103E00008093EB0880E090E89093EA088093E908BB
:103E100046983E9A84E08093F2088091DC08809373
:103E2000ED080895CDB7DEB7C45DD109DEBFCDBFC3
:103E3000789483E084BD83E085BD81E080936E004B
:103E4000E1E8F0E083E08083E0E881E08083E1E97D
:103E500083E08083E0E981E08083E1EC87E0808398
:103E6000E3EC81E08083E0EC82E08083E2EC81E0BF
:103E70008083EAE787E080838068808310928B04E8
:103E800010927B0410927D048091D7008160809312
:103E9000D70080EA8093D80089B5806189BD89B553
:103EA000826089BD09B400FEFDCF0E948C0E809116
:103EB000D8008F7C80618093D8008091E000807F63
:103EC0008093E0008091E1008E7E8093E1008DE0A0
:103ED0008093E200559A209A81EC80937C0085B112
:103EE000806F85B984B1877E84B984B1876E84B9C7
:103EF0005E9A5F988AB1806D8AB9769A6E9881B31E
:103F0000806F81BB899880B38D7080BB80E58CBD4C
:103F100081E08DBD85E090E00E940A135F9A85E004
:103F200090E00E940A135E985C98E5EAF5E08491BF
:103F30008EBD00000DB407FEFDCF319605E0E23BDB
:103F4000F007A9F75C9A81E880936400809165008E
:103F50008160809365000E94251302E010E087FFD6
:103F600010C05C9885EA8EBD00000DB407FEFDCF41
:103F70005C9A2E982F982D9881E083BF889513BE68
:103F8000FCCF0E94251382FF3EC02D980E9425136E
:103F900084788438B9F42D9A88EC90E00E940A1352
:103FA0002F981A8309836FEFCE0101960E94D11AD0
:103FB00084EF91E00E940A132F9A0E9425138478BF
:103FC0008438D9F30E94251384718431B9F42D9A71
:103FD00088EC90E00E940A132E981A83098360E00F
:103FE000CE0101960E94D11A84EF91E00E940A133B
:103FF0002E9A0E94251384718431D9F388EC90E0C5
:104000000E940A13BECF2D9A82E090E00E943C28C5
:10401000882309F468C00E943213809164008E7F67
:104020008093640080917A00806480937A0080910C
:104030007A0086FDFCCF00917800109179000E94F3
:10404000A10EAB01BC01C801B0E0A0E0DC019927E2
:1040500088278C019D01040F151F261F371FC901DA
:10406000B8012091640021602093640061157105FE
:104070008105910511F00E94332889E18093FA08A7
:1040800083E884BD8FEF87BD81EF8093800010921D
:10409000880010928A0080E00E94111B63E0662E67
:1040A000712C7AE0A72EB12C8FB7F8944091680458
:1040B0005091690460916A0470916B048FBF809184
:1040C000FB08142F181B812F1091FC08112371F08D
:1040D0008093FD081092FC0880E090E0892B21F38A
:1040E0000E940000DBCF0E942D1397CF9091FA0819
:1040F000891740F48F5F891778F781E083BF88952F
:1041000013BEEACF81E08093FC084093FB088091C6
:10411000F6089091F70801969093F7088093F608B7
:104120008091F8088093F9080E9425138093F8087D
:10413000E0917504E83080F6F0E0EF55FF4D0C9407
:10414000E928A920B320A322C4223F2148217E25AB
:10415000962590E19093FA08109247031092460337
:1041600091E0909375049091F9089095892329F135
:1041700080914603909147031816190634F480E2A3
:1041800090E090934703809346038091460390917B
:104190004703892B91F46DE270E08EE690E00E9477
:1041A00030146DE270E08CE290E00E94301481E007
:1041B00090E090934703809346038091460390914B
:1041C00047031816190654F40196909347038093F9
:1041D0004603819719F482E08093750420E04BEB4D
:1041E0005AE161E170E080E290E00E94EA12809181
:1041F000F6089091F70860E670E00E94C1288834C4
:1042000088F48033C0F58831E0F420E044EB5AE1D3
:1042100069E170E08BE590E00E94EA1280E00E9484
:104220007D0E5ACF803688F720E040EB5AE16CE1F2
:1042300070E08DE290E00E94EA1241E060E270E0FE
:1042400015C020E040EB5AE16CE170E08DE290E0B7
:104250000E94EA1220E044EB5AE169E170E08BE54C
:1042600090E00E94EA1241E06EE170E084E390E0A9
:104270000E943813D3CF41E06FE170E0F7CF109286
:104280006F04109247031092460385E080937504F3
:1042900085E3EBE5F3E0DE01A056BF4F01900D9200
:1042A0008A95E1F785E3E0E9F3E0DE01A559BF4F28
:1042B00001900D928A95E1F785E3E5ECF3E0DE01EC
:1042C000D69601900D928A95E1F785E3EAEFF3E047
:1042D000DE01119601900D928A95E1F788E00E9427
:1042E000720E811105C084E00E94720E882319F0BD
:1042F00086E08093750480916F048F5F8B3E09F494
:10430000FDC080936F048091F6089091F708877044
:104310009927892B69F48091460390914703019670
:104320008533910509F4EDC09093470380934603CC
:104330004090460350904703C2014A9665E370E0FF
:104340000E94D5284C01382EE1E0F0E0EC0FFD1F73
:10435000E40DF51D008120E04AE95AE1013011F435
:1043600044E85AE161E070E083E090E00E94EA12E4
:104370009924E1E0F0E0EC0FFD1FE80DF91D10813C
:1043800020E04EE65AE1113011F444E85AE161E0D0
:1043900070E083E790E00E94EA1281E0033009F0C8
:1043A00080E0E6E3F0E0EC0FFD1FE40DF51D608119
:1043B00070E0E82E082F2CE439E14CED59E182E061
:1043C00090E00E94FA1201E0133009F000E0E6E309
:1043D000F0E0EC0FFD1FE80DF91D608170E0E02EAC
:1043E0002AE238E14AEB58E186E690E00E94FA12B0
:1043F000EBE6F0E0EC0FFD1FE40DF51D80818093EE
:10440000070261E02BE1421651040CF060E08EE9F6
:1044100091E00E946317EBE6F0E0EC0FFD1FE80D62
:10442000F91D8081809391013AE161E0331508F430
:1044300060E088E291E00E9463178EE991E00E94BB
:1044400018164090460350904703E0EAF0E0EC0F66
:10445000FD1FE40DF51DE081F0E0E82E082F28EEA9
:1044600032E148E855E163E070E0CF0101960E9437
:10447000FA1288E291E00E941816E0EAF0E0EC0FF0
:10448000FD1FE80DF91DE081F0E0E82E082F28EE71
:1044900032E148E855E16BE170E0CF0101960E94FE
:1044A000FA12E1E0F0E0EC0FFD1FE40DF51D808154
:1044B00020E042ED52E1823011F444E85AE165E334
:1044C00070E083E090E00E94EA1220E04CEB52E1C1
:1044D000123011F444E85AE165E370E083E790E0BC
:1044E0000E94EA1280916F04803A80F48A3518F5B0
:1044F0008F508C33B0F00E942A17EECD10926F04CB
:1045000002CF109247031092460312CF8F5A8C337A
:1045100090F720E04FEB51E167E370E082E190E03B
:1045200007C020E04AE652E167E370E087E190E0EF
:104530000E94EA12E0CF20E04DE152E167E370E033
:1045400089E190E0F5CF83E0809375042FEF3FEF92
:1045500030934703209346031092740480934503DD
:104560001092730480E18093FA081092720481EC37
:104570009BE10E941D14E5E1F2E081E88483369618
:1045800093E0E134F907D1F7809146039091470316
:1045900097FD05C001969093470380934603809151
:1045A0007204882319F081508093720480917404FE
:1045B0008F5F863A09F4F2C0809374048091F60804
:1045C0009091F7086FEF70E00E94C12821E08031E0
:1045D00008F020E045E650E170E060E090E080E027
:1045E0000E94EA1288E00E94720E8111DAC084E013
:1045F0000E94720E882389F181E080936E0480917D
:10460000460390914703019609F0CDC00E946513BF
:10461000109247031092460384EB90E090931D01A3
:1046200080931C0121E030E030931F0120931E0194
:1046300029EC30E030932101209320019093230155
:10464000809322018CE290E09093250180932401D5
:1046500081E0809326011092270180E80E94720E6B
:10466000811105C080E10E94720E8823B1F0809113
:10467000DC08882309F49BC00E942D136091DC089C
:1046800082E090E09A838983CE0101960E94D11A3C
:104690001093ED0880E1809372040E94251385FD3C
:1046A00094C010926D0410928A00109288000091BC
:1046B0004603109147030B30110509F4FAC00CF0C2
:1046C0009EC00A3011050CF0B4C017FFADC060E009
:1046D0000F3F1F4F09F4EBC08091460390914703B1
:1046E00097FF0BC0809174048F3038F0853508F443
:1046F00001C18456823408F410C180917204882369
:1047000061F02091ED0881E0282744E65EE067E350
:1047100070E087E790E00E94EA1295E1892E92E02E
:10472000992E2401D20114968C91149718167CF4BA
:1047300012966D917C9113978D919C91E12C00E0E4
:1047400020E63EE041E65EE001960E94FA12B6E005
:104750004B0E511CE1E4F3E0E415F50519F7209147
:10476000F6083091F708C901B3010E94C128A901D8
:1047700041705527D40114962C91149722383CF09F
:104780002F3F09F00CF448C129370CF449C1F6E079
:104790008F0E911C4814590469F7ADCE1092740421
:1047A0000DCF80E02ACF84E08093750456CF0E941D
:1047B00032136091DC0882E090E09A838983CE0115
:1047C00001960E94D11A11E063CF0E94251386FF43
:1047D00068CF80916D048F5F80936D048093880013
:1047E00080916D04803809F062CF81E00E94111B36
:1047F00080916D0480938A0010926D0458CF033825
:10480000110534F4093711050CF46EC061E00DC0D8
:104810000338110509F060CF60E081E00E944C147C
:1048200084E08093750458CF60E080E00E944C14CF
:1048300053CF83E290E0909342038093410390939F
:1048400044038093430305E112E06EE070E080E0F2
:1048500090E00E944917645E7F4FF8017183608386
:104860006EE070E080E090E00E944917645E7F4F48
:10487000D80113967C936E9312976FE170E080E0FD
:1048800090E00E9449176095F801648369E070E048
:1048900080E090E00E944917D80115966C930A5F5A
:1048A0001F4FE1E4F3E0E017F10779F661E081E002
:1048B000BDCF6EEE72E08FEF9FE70E94301461E093
:1048C00080E00E944C148091460390914703B3010D
:1048D0000E94D528BC016B5F7F4F20E047ED5EE072
:1048E000C3960E94EA12F8CE61E080E00E944C1468
:1048F000C801EDCF20E045EA5EE066E370E08BE3BF
:1049000090E00E94EA1221E045EA5EE066E370E092
:1049100088E590E00E94EA12F0CE20E046E95EE0F1
:1049200066E370E080E490E00E94EA121A82198245
:10493000BE016F5F7F4F80ED90E00E9435172981A7
:104940003A81C901B5010E94C1288983CB01B50113
:104950000E94C1288A83C90164E670E00E94C128D0
:10496000CB01B5010E94C1288B831E01F4E02F0EFC
:10497000311C210151E5852E912C4BEFC42EE12CE9
:1049800010E000E0D2012E912D0146E75EE066E3E3
:1049900070E0C4010E94CF10B4E08B0E911CEDE5D5
:1049A0008E16910451F71FAA1EAABE016A5C7F4FA2
:1049B00082ED90E00E9435172EA93FA9C901B501EB
:1049C0000E94C1288983CB01B5010E94C1288A8336
:1049D000C90164E670E00E94C128CB01B5010E94C4
:1049E000C1288B8330E6832E912C2BEFC22EE12C35
:1049F00010E000E0D1012E911D0146E75EE066E384
:104A000070E0C4010E94CF10B4E08B0E911CECE664
:104A10008E16910451F771CE2F5FF4012483B7CE27
:104A20002F5F14962C9314971596EC911597E930F7
:104A300008F0ADCEF0E0EE5DFA4D2D913C9111976E
:104A40000C94E9282B25372546254E256E2558251B
:104A500063256B2574252E5F3F4FF401318320833E
:104A600022813381225031093383228390CE411534
:104A7000510571F4D40112966D917C911397625097
:104A8000710913967C936E93129702C0009791F36D
:104A90002E5F3F4FF4013183208379CE41155105BC
:104AA000B9F712966D917C91139761507109E9CF16
:104AB0004115510599F4F401628173816F5F7F4F55
:104AC000738362830BC0009749F4F40162817381A0
:104AD0006E5F7F4FF5CF41155105B9F32E5F3F4F04
:104AE000D4012D933C9353CE2E5F3F4FF40131837D
:104AF0002083228133812E5F3F4FB6CF89E180939F
:104B0000FA080E947A1784E18093FA0887E080937C
:104B1000750482E3809314020FE910E010934703B9
:104B20000093460310927104109270041091F908DA
:104B30000091F808809146039091470318161906D2
:104B40002CF40197909347038093460380916F0460
:104B5000882349F0815080936F04811104C0109222
:104B60008A008FEF87BD8091F608837009F18091EC
:104B7000F1088823E9F09091EE082091F2082130A5
:104B800009F0AAC12EEF920F9093EE0880FD05C0A8
:104B90009091EF089F5F9093EF0881508093F10808
:104BA0008091F0088F5F843009F498C18093F008F9
:104BB00050900F02552039F08EE991E00E943D1689
:104BC000885D8D3870F450909901552051F088E23D
:104BD00091E00E943D16885D552453948D3808F469
:104BE000512C8091450381110DC0552059F08091C1
:104BF0001B01843039F00E94251383FF03C082E03B
:104C0000809375048090460390904703811491042B
:104C100051F580911B01843031F51095012303FF7C
:104C200007C080911501823019F08F5F80931501C4
:104C300002FF07C080911501882319F081508093ED
:104C4000150107FF07C080910801882319F08150E2
:104C50008093080104FF07C080910801823019F099
:104C60008F5F8093080180917304811108C08EE9E1
:104C700091E00E94BA1588E291E00E94BA15892855
:104C800091F580911B01843021F080916C0481307A
:104C900089F460910B0270E08091F6089091F7081A
:104CA0000E94C128892B31F468E271E08EE991E01D
:104CB0000E942A1880911B01843021F080916C049D
:104CC000823089F46091950170E08091F6089091AE
:104CD000F7080E94C128892B31F46EE971E088E25F
:104CE00091E00E942A1820E044E45AE070E060E07D
:104CF00090E080E00E94EA1220E048EA59E070E08B
:104D000060E08AE690E00E94EA1220E04EE457E07C
:104D100070E060E08BE190E00E94EA1210916E0476
:104D2000111116C0E12C00E02CEF35E044EA56E00A
:104D300070E060E08BE590E00E94FA1222EB35E033
:104D400046ED55E06EE170E080E790E00E94FA12D7
:104D50008EE991E00E94891688E291E00E9489160E
:104D600080917304811108C081E091E00E940515D3
:104D70008EE091E00E9405154CE459E16CED79E17B
:104D800081E091E00E945C15113041F44AE258E163
:104D90006AEB78E18EE091E00E945C158091090158
:104DA00081110CC080911601811108C060914503EA
:104DB00080917004909171040E9463148091F208B4
:104DC00081110FC00091F0086091EF0870E08091B0
:104DD000EE08E02E2EE73DE04EEE5DE090E00E9412
:104DE000FA128091F208813079F40091F008609114
:104DF000EF0870E08091EE08E02E2CE93CE04CE0FA
:104E00005DE090E00E94FA125520D9F180911B01DB
:104E10008430B9F180914503811166C0E12C00E036
:104E20002AEA3BE042E25CE068E170E082E290E086
:104E30000E94FA1281E08093730480907004909035
:104E400071041FAA1EAA11114CC000ED10E0BE0192
:104E50006A5C7F4FC8010E9435178EA99FA98815EB
:104E6000990538F41A830983682DCE0101960E94B2
:104E7000D11A6091450380917004909171040E9451
:104E80006314809146039091470380359105ACF5FA
:104E90008D3291050CF048C0059703E08397C0F16F
:104EA000609170047091710483E0769567958A959E
:104EB000E1F720911402CB0188962817190609F40E
:104EC0001ACB685D6093140270E088EE93E00E9454
:104ED000D5286093FA080FCB22E055CE1092F00847
:104EE00067CE02ED10E0B3CF0E947A172FE930E0D1
:104EF0003093470320934603C4CF8535910584F250
:104F0000883791059CF08D57910900E0839740F612
:104F1000E12C20EE3AE048E05BE068E170E087E3F6
:104F200090E00E94FA12BCCF02E0F2CF01E0F0CF95
:104F30008F929F92AF92BF92CF92DF92EF92FF92A9
:104F4000CF93DF93EC01688179818A819B81611520
:104F500071058105910521F464E279ED8BE597E017
:104F60002DE133EF41E050E00E94522849015A01FF
:104F70009B01AC01A7EAB1E40E9471286B017C019E
:104F8000ACEEB4EFA50194010E947F28C60ED71E97
:104F9000E81EF91EF7FE06C081E0C81AD108E10834
:104FA00080E8F80AC882D982EA82FB82C701B6018A
:104FB0009F77DF91CF91FF90EF90DF90CF90BF90E0
:104FC000AF909F908F9008958F929F92AF92BF92D3
:104FD000CF92DF92EF92FF9260915403709155034C
:104FE00080915603909157036115710581059105D4
:104FF00021F464E279ED8BE597E02DE133EF41E0B8
:1050000050E00E94522849015A019B01AC01A7EAD5
:10501000B1E40E9471286B017C01ACEEB4EFA501F4
:1050200094010E947F28C60ED71EE81EF91EF7FEC7
:1050300006C081E0C81AD108E10880E8F80AC092E9
:105040005403D0925503E0925603F0925703C701E0
:10505000B6019F77FF90EF90DF90CF90BF90AF9019
:105060009F908F900895609354037093550380939D
:105070005603909357030895F999FECF92BD81BDD1
:10508000F89A992780B50895262FF999FECF1FBA6F
:1050900092BD81BD20BD0FB6F894FA9AF99A0FBE61
:1050A00001960895052E97FB1EF400940E9469282E
:1050B00057FD07D00E94842807FC03D04EF40C94BF
:1050C000692850954095309521953F4F4F4F5F4F40
:1050D000089590958095709561957F4F8F4F9F4F64
:1050E00008950E94A628A59F900DB49F900DA49F9F
:1050F000800D911D11240895B7FF0C9471280E9412
:105100007128821B930B0895A1E21A2EAA1BBB1BC8
:10511000FD010DC0AA1FBB1FEE1FFF1FA217B30783
:10512000E407F50720F0A21BB30BE40BF50B661F99
:10513000771F881F991F1A9469F76095709580955D
:1051400090959B01AC01BD01CF010895A29FB001D4
:10515000B39FC001A39F700D811D1124911DB29FAB
:10516000700D811D1124911D0895991B79E004C0D3
:10517000991F961708F0961B881F7A95C9F7809596
:105180000895AA1BBB1B51E107C0AA1FBB1FA6178E
:10519000B70710F0A61BB70B881F991F5A95A9F7E0
:1051A00080959095BC01CD01089597FB072E16F4CC
:1051B000009407D077FD09D00E94C12807FC05D0D4
:1051C0003EF4909581959F4F0895709561957F4F1E
:1051D0000895EE0FFF1F0590F491E02D0994DC0176
:1051E00001C06D9341505040E0F70895F894FFCF0F
:1051F000F60D09055B5F630000000000000A0D0961
:10520000055B5F630000000000000A04B4000100B9
:10521000C900B4002C0001000C0C0C2426282A2CF8
:105220002E3034383A3C3E40425A5A5A5A080808FE
:105230001E2124272A2D3034383B3E4344474A5E02
:105240005E5E040404141A2024282C3034383C40B8
:1052500044484C50616161020607020202000100ED
:10526000010001000100010000000000000000003A
:1052700004030403040304030403040505050706EB
:10528000050A0000000800000000000000000C0CEF
:105290000C2426282A2C2E3034383A3C3E40425AE0
:1052A0005A5A5A0808081E2124272A2D3034383B20
:1052B0003E4344474A5E5E5E040404141A202428D8
:1052C0002C3034383C4044484C5061616102060740
:1052D00002020200010001000100010001000000C3
:1052E000000000000000040304030403040304039B
:1052F000040505050706050A000000080000000077
:105300000000000032000000008100000000008169
:10531000000000000081000000000081000000008B
:1053200000810000000000810000000000810000FA
:1053300000000081000000000081000000000081EA
:10534000000000000081000000000081000000005B
:1053500000810000000000810000000000810000CA
:1053600000000081000000000081000000000081BA
:10537000000000000081000000000081000000002B
:10538000008100000000008100000000008100009A
:10539000000000810000000000810000000000818A
:1053A00000000000008100000000008100000000FB
:1053B000008100000000008100000000008100006A
:1053C000000000810000000000810000000000815A
:1053D00000000000008100000000008100000000CB
:1053E000008100000000008100000000008100003A
:1053F000000000810000000000810000000000812A
:10540000000000000081000000000081000000009A
:105410000081000000000081000000000081000009
:1054200000000081000000000081000000000081F9
:105430000000000000030A00FFFFFFFF00E1000082
:105440000000000001000000FC10251A1C1E202294
:105450002426282A2C2E30323436383A3C3E40421C
:10546000444648484848464442403E3C3A38363430
:1054700032302E2C2A28262422201E1C1A1A1A1AF0
:105480000809080908090809080908090809080994
:10549000080908090809080F0F0F0F0B0C0B0C0B5C
:1054A0000C0B0C0B0C0B0C0B0C0B0C0B0C0B0C0B44
:1054B0000C030303030C0C1111111616161B1B1BF6
:1054C00020202020202020202020202020202020DC
:1054D0002020201B1B1B1616161111110C0C0C0C76
:1054E0000C0C0C0C0C0C0C0C0C0C00000200000240
:1054F00000000200000000000000000000000003A7
:10550000000300030003000001000001000001008F
:10551000000100000000030003000300030002007C
:10552000C1808100000000000000890F080FAA0F51
:0E5530009F0FF00FAE0FCC0F000000005013C5
:00000001FF
