:100000000C94D40F0C94FC0F0C94FC0F0C94FC0F6C
:100010000C94FC0F0C94FC0F0C94FC0F0C94FC0F34
:100020000C94FC0F0C94FC0F0C9494210C94032260
:100030000C94FC0F0C94FC0F0C94FC0F0C94FC0F14
:100040000C94FC0F0C94FC0F0C94FC0F0C94FC0F04
:100050000C94FC0F0C94FC0F0C94FC0F0C943524A6
:100060000C94FC0F0C94FC0F0C94FC0F0C94FC0FE4
:100070000C94FC0F0C94FC0F0C94FC0F0C94FC0FD4
:100080000C947F240C94FC0F0C94FC0F0C94FC0F2C
:100090000C94FC0F0C94FC0F0C94FC0F0C94FC0FB4
:1000A0000C94FC0F0C94FC0F0C94FC0F3C380000DB
:1000B00000000080F8FE0FE3FB1B0B0B8BFBF3F73C
:1000C000F6F6F60606ECECECECECECECECECECEC1E
:1000D000ECECECEEE6F6F6F6F7F3FBFBCBCBFBE352
:1000E0000FFEF8801E332121339E00000080F8FFB0
:1000F0000FE0F8F9F9F9F9F9F9F9F1F3F3F3F3F09D
:10010000F0FFFFFFFFFFFFFFFFFFFFFFFFFFFFFF0E
:10011000FFFFFFFFFFFFFFFFFFFF7F7FFEE00FFFFF
:10012000F880060600000000000F3FF0C607040438
:10013000070707070707070707070707FFFFFFFF6F
:10014000FFFFFFFFFFFFFFFFFFFFFFFF070707079F
:1001500007078787070726860707C6F03F1F008027
:100160008000000000000000030784C4E4E4E4E42D
:10017000E4E4E4E4C49C000FE7E7E7E7E7E7E7E748
:10018000E7E7C7870F1F0FC7E7E0ECE4E4E4E5E526
:10019000E4C4040404070300C040C30311000000CA
:1001A000000000000000FFFFFFFFFF393939FFFFAB
:1001B000FF0FE0E0EFEF0FFFFF183879FFFFF703C5
:1001C000E0E0EFEF0FFFF9F0F0FCFDFDFD0DECE0DE
:1001D000E0E00000012101000000000080C060207C
:1001E00060C080000000000C0C007EFE803C3E1CC5
:1001F0001C1C1C1C0C0C0E0C0C0C0C0E1E1C1C1CB9
:100200001C3C3E80FE7E00000000C0E0E0C000001C
:100210000000030300000E1B3166C680D060311B56
:100220000E00003828380001471E382020202030DA
:100230001010D0D0101090103020202020381E0731
:10024000010000060600000101000000000000009F
:1002500000005A087F417777417F4155555D7F41C6
:100260005F50507F417515111F000000003E0A0AC3
:100270000E003E202020003E12123E000E08380ED6
:1002800000000000003E003E04083E003E0A0A0254
:10029000003E22223E00000000003E222222003EBC
:1002A00022223E003E04083E003E0A0A0200003EB2
:1002B00008083E003E2A2A22003E202020003E0A56
:1002C0000A0E000000007F417515117F415F5050FC
:1002D0007F416D6D417F117747711F000000003E27
:1002E000003E04083E003E0A0A02003E22223E0072
:1002F000000000003E222222003E22223E003E0458
:10030000083E003E0A0A0200003E08083E003E2A5F
:100310002A22003E202020003E0A0A0E0000000093
:10032000003E0A0A0E003E202020003E12123E002F
:100330000E08380E000000007F417F417B77417F2F
:100340004175151D7F415D5D417F000000003E222B
:100350002222003E22223E003E04083E003E0A0ABF
:100360000200003E08083E003E2A2A22003E2020CD
:1003700020003E0A0A0E00000000003E0A0A0E009D
:100380003E202020003E12123E000E08380E0000D3
:100390000000003E003E04083E003E0A0A02003E05
:1003A00022223E000000007F415D55577F415D5D88
:1003B000417F417B77417F4175151D07573F30A72E
:1003C0005C39756A25EDAA7156A7B729B9EEAAAFAF
:1003D000CEC5EC94EB743ABD55553156B6D456495A
:1003E000558A3625D3DBD4B9C8F4F65529BB1D4D43
:1003F0003B55B54DBFDD9EDA2A279369575BE76C05
:10040000B6DA266DAEC271155FD5399B4B5E35826B
:1004100092554529235AA5F86C4C955413C5545749
:100420008ED239B22657A4EA8F90F7E854A72F5CF2
:1004300025EF8EB06DDA46942DBEE457D98A9134FB
:10044000EC85A64B2EF331E5945C56321DDD36A2C9
:10045000EC769B55524925E3DD6E278B28A9A4D263
:10046000C9FC763B96D6D96DB4CA66B7DBED484A6F
:100470002BA9A4B25B25B7DBD0B4DD8EDD25E5EA80
:100480005CB9194F27EF8A51B9AE5C4595AB229301
:10049000CA459DAF4AD1761DA54D775D97738A57A2
:1004A000554747282B9D4AF1F1A5D124958B3A5FFA
:1004B0009562FC3A9B4D55956BA5EA5C5A395D7582
:1004C000A4AB56B7924A71A652291B9173A5942AE0
:1004D000A62C674EE52A2F552B5D49E988B24F14AB
:1004E000539D55DB88B6645F6A1B91EAE52AC5E82F
:1004F000A29411A5DD6D09952B3E19A3DD6E27CAC7
:100500003E514C75566D23DAF2292595BA4F7D2B55
:1005100046AA6A5E29EBA2EB955E5656C9ED76D6E1
:10052000ED76BB54763BD956D9ED76BBCECEBE5DCB
:100530002AA9A4B2DBED6CF9ECB44965475B769D62
:100540005D479BDDA6B7DBED3AD67552D96D3EB659
:10055000ED76BB5476ABE8D2D9EC76BDAA52B9BCE5
:100560002CA25CD9883AC7572E5936A62C553A5733
:100570007C691B8A52753EAA53DB4B1165ABBC529A
:10058000652BEF545C2A3CAA8AA8927C3EAA1C5791
:10059000371BAF8C69D52AF5DF517D8EAF5CB26C0D
:1005A0004C59C6AAA3727B595955E955AD7CE574DF
:1005B00057B54EBFABEA96B55437B35DF552A59229
:1005C000E9582BA77ABB95EAD497DBAA4BA5E2FAA8
:1005D0002EA5AC923873CA955C3A556FBF557CB561
:1005E000B29FB2E9955356C669BFCA5672BB8EA96F
:1005F000AA75FA5D55B7ACA5BAC972AA9454A76C8E
:100600000A54087F515555457F415D5D417F415FEB
:100610005F417F417B77417F415D5D633E007F416C
:100620005D5D417F4175151D7F4175151D070000FA
:1006300000002E2A2A3A003E22223E003E20203E82
:10064000003E04083E003E22221C0000003E222202
:100650003E003E04083E00002E2A2A3A003E222296
:100660003E003E20203E003E04083E003E22221C6A
:100670000000003E22223E003E0A0A02003E0A0A14
:1006800002000000007F515555457F415D5D417F6F
:10069000415F5F417F417B77417F415D5D633E000C
:1006A0007F415D5D417F417B77417F7F3F295529B8
:1006B000A9A4524E59E7F2933B27D5525965B7CEBC
:1006C0003939ED4AAA5BDD6AABA492524957D96821
:1006D00073E5B65B25A5A2CFB9EDE5B6CA512B6986
:1006E000B7DB5DADE45A6E9574E36BBB4E077929B9
:1006F00059C96DE52A79B94A3A59D9753A74669754
:10070000CA39259573A5942396EBFCEAD456C9CA39
:10071000C5152161F6AA88E34F958DA92A4558B9D8
:10072000A64B1E7B57B1EF955494BB28552A7E6289
:100730001F9D8C304FBF55B29297BB9C2AA5CAA96A
:1007400052AA9C2AA5CAA952AA9C734E2AA9EC882F
:10075000D36D4F57F7AEEC4EE9A4B22955D7B52B60
:10076000CDA4D76B4925B7916593A96E55D96CE88F
:10077000D29FEA2BA9A4B259652756A5545FCEAEE5
:10078000774E6E678AAF94B2D94FE9F4F6743A5552
:10079000F4F9B6DB5DB9645A2AE7E2EA53DB65E1B6
:1007A00028A752E9644925972ED7E964D9309FCF0D
:1007B00056927FE994DD6E97CA29E575BADCD57546
:1007C000AEAB3EF5559FFA56F74A2A49659D74D25D
:1007D000B794CA6E95AA2534E9DCE52A7939252F24
:1007E000A764ED2A59BB4A762A954AA552A9743ABC
:1007F0009D4E77AE94EADC7E495455555555555576
:100800005555555555555555555555555555555598
:1008100055551551D5AA6A55CA9572D2D9F19A0E75
:100820007D59259D22CC39E79C73CE39E79C5352E4
:1008300049256D9C2BA9EC3A9D4E67D3E9743A9DEE
:100840004E87A6ED76BBDD2E95545249E59C73CEBE
:1008500039E79C73CE39E79C73CE3925957CAB6A1A
:1008600055A5AEAAABEAAABAAAAEAAABEAAABAAA98
:10087000AEAAABEAAABAAABAAAAB7295ABAAAB5413
:10088000B72AD925EDE752C94A55A5AA5255A9AAB2
:100890005455AA2A5595AA4A55A5AA52155157E565
:1008A000AAABB25557D996BE56A5B2E9743A9D4D3A
:1008B000A552A9542A954AA552A954A752A954EA67
:1008C00053A9542A554C76BBF5E5D3F6542AB54ABC
:1008D000A5524C5249259954AF7AD52BA94AA95211
:1008E000AA94924A5EEE72DBCB5DEE72DBCBE92C12
:1008F0005755AA2A5595AA4A55A5AA5255A9AA54A8
:1009000055AA2A5595AA4A55A5AA5255A9AA545599
:10091000B252D9AAAEAAEAAAABAAAB5257A9CB55F2
:10092000FDD59FBAFAEEE465ABBAB2B58A48A9BC68
:100930003B6DCFEA93E75252A72463CB54555555EC
:10094000555555A5AA5255A9AA5455AA2A5595AA4E
:100950004A55A5AA62AACA55E52A5BD97C44E9B2E0
:100960004C3A3A4F4BA4D36922BBCD9EB6DB747B85
:10097000BB65B24C96B2AAAAAAAAAAAAAAAAAAAA6D
:10098000AAAAAAAAAAAAAAAAAAAAAAAAAAAAAAAAC7
:10099000AAAAAAAAAAAAAA52559DABAAAEAA7C360E
:1009A0009FAD5CADAA72755555B9ABAAAAAAAAAA01
:1009B000AAAAAAAAAAAAAAAAAAAAAAAAAAAAAAAA97
:1009C000AAAAAA4A5655B6AAABAAABBAAABAAAAB61
:1009D000AAABBA2A57B964AE52EA56A5D4AD6A7723
:1009E000B9DA5DAE9695547DD52B592FAB7BD5AB3F
:1009F0005EA5D3E9743A9D4EA7D3E97474B9AA549D
:100A0000E7BE552975B97ABBEAAFCA75AA7295ECEB
:100A1000D4E53E75B96F55CAD5CEB94A2A5949258C
:100A20002BA9ECA74E7DEA4F6D9D93CECE964EA797
:100A3000D3A9542A954AA55255C9AA4A5555555580
:100A40005555555555555555555555555555555556
:100A500055555555B22E5B5557D55575555D55575E
:100A6000D55575555D55D9AA4A55555555555555C0
:100A700055555555555555555560B8AAAAAA2A59E0
:100A800055C9AAAAAAAAAAAAAAAAAAAAAAAAAAAAFC
:100A9000AAAAAAAAAAAAAAAAAAAAAA0A080800FFEF
:100AA00000FF00FF00FF00FF00FF00FF00FFAAFFA4
:100AB00000FFAAFF00FF00FF00FF00FF00FFAAFFEA
:100AC00000FFAAFF00FFAAFF00FF00FF00FFAAFF30
:100AD00000FFAAFF00FFAAFF00FFAAFF00FF00FF20
:100AE00000FF00FF00FFA8FF00FFAAFF00FF00FFBC
:100AF00000FF00FF00FFAAFF00FFAAFF00FFA8FF02
:100B000000FF00FF00FFAAFF00FFAAFF00FFAAFFEF
:100B100000FF00FF00FF00FF00FF00FF00FFAAFF33
:100B200000FFAAFF00FFA8FF00FFA0FF00FFAAFF31
:100B300000FFA8FF00FFA8FF00FFA8FF00FFA0FF25
:100B400000FFA0FF00FF00FF00FF00FF00FFAAFF63
:100B500000FFAAFF00FFA0FF00FFA0FF00FF80FF33
:100B600000FFAAFF00FFA8FF00FFAAFF00FF00FF91
:100B700000FFAAFF00FF00FF00FF00FF00FFA0FF33
:100B800000FFA8FF00FFAAFF00FFAAFF00FFA8FFC9
:100B900000FFA0FF00FF00FF00FF00FF00FF0000BC
:100BA00000000000000000000000000E030800002C
:100BB00000000000070307000000000E0F00000304
:100BC00003030000000D00040803090A0A0D0003D6
:100BD000010D0003030300070002010503030301E5
:100BE000010C0B0303020A030303050200020206C1
:100BF0000303030B0103030303020B0303030303B8
:100C00000B020303030303030303030303030303AD
:100C100003030303030300070007000000000008AC
:100C2000090800000000010101010004040404009F
:100C30000000070007000000000008080000007E18
:100C400062FFABFF63FFABFF62FF007E387E7EFF7B
:100C5000A3FF6BFF63FFEAFF30FE1038387E7EFF94
:100C600063FFABFFE3FF6AFF30FE1038387E7EFF84
:100C7000E3FF6BFF23FFEAFF30FE1038103830FE31
:100C8000EAFF63FF6BFFA3FF7EFF387E1038307EE4
:100C90006AFFE3FFABFF63FF7EFF387E103830FE54
:100CA000EAFF23FF6BFFE3FF7EFF387E0000007E3C
:100CB00062FFA3FF63FFA3FF62FF007E0000007ED0
:100CC00042FFEBFF63FFEBFF42FF007E0000107E60
:100CD00062FFEBFF63FFEBFF62FF107E0102030286
:100CE00004050605100804040004000000000000CC
:100CF00000000000000008000814000008002200A6
:100D00000800001400410402040600000000000076
:100D100000000000000006060600060000000000BB
:100D2000000000000000081611120C000000000076
:100D300000000000000004040400000000000000A7
:100D40000000000000000400040400000000000097
:100D5000000000000000410014000008002200080C
:100D6000000014080008060402040000000000004F
:100D7000000000000000060006060600000000005B
:100D80000000000000000C12111608000000000016
:100D90000000000000000404040000000000000047
:100DA00000000000000010100000303010100000A3
:100DB000000000000000E0E0C0C080800000C0C073
:100DC000808000003030606000007878FEFEFFFF19
:100DD000CEFEE4FCF2FEFDFFF8FFF7FFCFFFF3FFCE
:100DE000F7FFCFFF7E7E3C3C0000101000008080AB
:100DF000000000000000F0F06060C0C08080E0E013
:100E0000C0C08080101020203C3C7E7EFFFFFFFF92
:100E100066E6F0F0F9F9FEFEDCFCBBFFF7FFF8FF39
:100E2000FDFFFBFFE7FF7E7E000000008080C0C06A
:100E30000000000000003030606080800000E0E0D2
:100E400040400000000010101C1C3F3F7F7FFFFF50
:100E5000B3F37CFCFCFCBFFFCEFEDDFDB8F8FFFF6A
:100E6000FEFEFDFD72723C3C0000000080802020F0
:100E70000000000000009090202000000000E0E052
:100E80000000000000000000000018183E3EFFFFB8
:100E90008EFEDCFCBCFCCFFFF3FFEEFEDCFC9FFF14
:100EA000FFFF7E7E38380000000000006060B0B0B8
:100EB000000000000000C0C0000000000000C0C032
:100EC000000000000000000000003030FCFC8FFF3C
:100ED000DEFEECFCF6FEFBFFF9FFF6FEEFFF8FFFF8
:100EE000FFFF787800000000000000003030909094
:100EF00000008080C0C0F0F000008080E0E0C0C052
:100F0000808000000000000000007C7CFFFFCFFF1D
:100F1000B3FFFBFFFDFFF8FFFBFFFDFFFBFF77FFCC
:100F200083FFFFFF60600000000000009090C0C0E1
:100F300000000000808060E080808080C0C08080F1
:100F400000000000000000007E7ECFFFB7FFF9FF29
:100F5000FBFFFDFFFEFFFCFFFDFFFEFFF9FFFBFFB8
:100F6000B7FFC2FE7F7F3C3C000080808080C0C015
:100F7000606000008080C0C000008080E0E0C0C0F1
:100F8000808000008080000027277B7BFDFDFEFE27
:100F9000FCFCBFFFDFFFEFFFBFFFBEFEFCFCFBFB67
:100FA0007C7C393907073F3F8080C0C0404020200B
:100FB000D0D000000000808000004040F0F02020F1
:100FC00040408080C0C0808003033C3CFEFEFFFFA9
:100FD0003FFFDFFFEEFEC7FFDFFFDEFEBDFDFEFED3
:100FE000FFFF7E7E3B3B0707808060602020101063
:100FF000808000000000C0C0808000003030C0C091
:1010000080804040E0E0C0C0000018187E7EFFFFF6
:101010009FFFEEFEF7FFE3FFEFFFE7FFEEFE9FFF10
:10102000FFFF7F7F3C3C03030000202010100000E6
:1010300000000000000080800000000000000000B0
:101040000000303060600000000000007878FCFC98
:10105000CEFEF6FEFBFFF1FFFEFEF6FEEFFFFEFE0C
:10106000FCFC787800000000000010100000000078
:101070000000000000000000000000000000000070
:1010800000001010202000000000000030307878B0
:10109000E4FCFAFEFCFC7FFFB8F8FAFAF4FCFCFC76
:1010A00078783030000000000000000000000000F0
:1010B0000000000000000000000000000000000030
:1010C0000000000010100000000000007878FCFC18
:1010D000FCFCFEFEBEFEC7FFECFCDEFEFCFCFCFCE6
:1010E000F8F8707000000000000000000000000030
:1010F00000000000000080800000000000000000F0
:10110000000000000000000000007A7AFDFDFCFCF9
:10111000FEFEFEFE9FFFE3FFF6FECEFEEFFFDEFECD
:10112000FCFCFCFC7B7B0E0E0000C0C0606000007D
:10113000000000008080C0C000000000000080802F
:1011400000000000E0E0C0C0000000007878FEFE73
:10115000FCFC9EFEEFFFF1FFFBFFF6FEEFFFF7FF4B
:10116000CFFFFEFE7C7C01010C10C0C0A0E050F05F
:1011700090F050F090F050F010F010F010F020E0EF
:10118000C0C07F7FEAFFD5FFAAFFD5FF82FF417F66
:10119000333F617FB4FFA4FF7F7FC0C060E090F069
:1011A00050F090F050F010F010F010F010F020E03F
:1011B000C0C07F7FD5FFAAFFD5FF82FF417F333FAD
:1011C000213F343F647FB1FFFFFFC0C0A0E050F07B
:1011D00090F050F010F010F010F010F010F020E04F
:1011E000C0C07F7FEAFFD5FF82FF417F333F213FB1
:1011F000343F243F717F83FF7F7FC0C060E090F069
:1012000050F090F050F010F010F010F010F020E0DE
:10121000C0C07F7FD5FFAAFFD5FF82FF417F333F4C
:10122000213F343F647FB1FFFFFFC0C020E010F0DA
:1012300010F010F050F090F050F090F050F0A0E06E
:10124000C0C07F7FA4FFB4FF617F333F417F82FF37
:10125000D5FFAAFFD5FFEAFF7F7FC0C020E010F0D6
:1012600010F010F010F050F090F050F090F060E0BE
:10127000C0C0FFFFB1FF647F343F213F333F417F58
:1012800082FFD5FFAAFFD5FF7F7FC0C020E010F00E
:1012900010F010F010F010F050F090F050F0A0E0CE
:1012A000C0C07F7F83FF717F243F343F213F333FA6
:1012B000417F82FFD5FFEAFF7F7FC0C020E010F0B2
:1012C00010F010F010F050F090F050F090F060E05E
:1012D000C0C0FFFFB1FF647F343F213F333F417FF8
:1012E00082FFD5FFAAFFD5FF7F7F08100000008096
:1012F0000080008000800080008000003E7F43FF6F
:10130000C9FF81FFD1FF81FFCBFF7EFF00000000FE
:101310000000000000000000000000003C7E46FFCE
:10132000D2FF82FFE2FF82FFD6FF7CFE008080C0FA
:1013300080C080C080C080C080C000801F3F217FEF
:10134000647F407F687F407F657F3F7F80C0C0E0D3
:1013500040E040E040E040E0C0E080C00F1F103FB0
:10136000327F207F347F207F327F1F3F000000804C
:101370000080008000800080008000007EFFCBFFA6
:1013800081FFD1FF81FFC9FF43FF3E7F00000000C6
:101390000000000000000000000000007CFED6FFFE
:1013A00082FFE2FF82FFD2FF46FF3C7E008080C0CA
:1013B00080C080C080C080C080C000803F7F657FCB
:1013C000407F687F407F647F217F1F3F80C0C0E0F7
:1013D00040E040E040E040E0C0E080C01F3F327F9E
:1013E000207F347F207F327F103F0F1F0608383860
:1013F00044FCD4FC64FCD4FC3838383844FCD4FCBD
:10140000E4FC54FC3838383844FC14FCE4FC54FC4C
:101410003838383844FCD4FC24FC54FC383838388C
:10142000D4FC64FCD4FC44FC3838383854FCE4FC6C
:10143000D4FC44FC3838383854FCE4FC14FC44FC3C
:101440003838383854FC24FCD4FC44FC38380808BC
:1014500077FFFFFF77FF75FF75FF77FFFFFF77FFD0
:10146000080800000000000000000000000000006C
:101470000000FFFFAAFF53FF02FF53FF02FFFFFF21
:10148000FEFF0303F2F313F31EFF13F312F313F340
:1014900012F313F312F313F312F313F312F313F320
:1014A00012F313F312F313F31EFF13F3F2F3030318
:1014B0000203030302030303020303030203030300
:1014C000020303030203FFFF0203030302030303F8
:1014D0000203030302030303020303030203FFFFE8
:1014E0000203F3F312F31FFF12F313F312F313F3D8
:1014F00012F313F312F313F312F31FFF12F3F3F3C8
:101500000203FFFFAAFF00FF00FF00FF00FFFFFF35
:10151000FFFFFFFFAAFF94FF80FF94FF80FFFFFF04
:10152000FFFF0000FFFF80FF80FF80FF80FF80FF44
:1015300080FF80FF80FF80FF80FF80FF80FF80FFB3
:1015400080FF80FF80FF80FF80FF80FFFFFF0000A3
:1015500000001F1F101F101F101F101F101F101F33
:10156000101F101F101F101F101F101F101F101F03
:10157000101F101F101F101F101F101F101F1F1FE4
:10158000000000000000000000008080808080805B
:1015900080808080C0C0FFFFC0C08080808080804D
:1015A000808080808080808080808080808080803B
:1015B000808080808080808080808080C0C0FFFFAD
:1015C000C0C080808080808080808080000000009B
:1015D0000000030302030303FEFF0BFFFEFF0303F0
:1015E0000203808080808080FFFFA0FFFFFF80805B
:1015F00080800102030405050600000705050803B5
:1016000009010A0C0D0E00141314141514000F1008
:10161000110A0A0000000005060505070500000084
:10162000000A0B14141414141300001514141414C9
:10163000140B010505050505050000050505050553
:1016400005010A0000000014141414141400000012
:10165000000A0A0000000005170505170500000034
:10166000000A0B1414141414180000181414141481
:10167000140B1008000000007A7C2C1C0C0C0C0CC5
:101680000000000078783A3C1C1C2C2C1C0C0C1C14
:101690001C1C1C0C00E0F07A1C2E1A1A0E06060602
:1016A0000606070006CFFF3E2E1E0E0E1E7EE686A5
:1016B00006060702627A1E060A060202FAFEFA020D
:1016C000070707070C0C0C1C2C7C7A00007A7C2C7A
:1016D0001C0C0C0C7F3F292BEBD4ED9C724E492542
:1016E0009D7352C99AAE4B39A9E456C9CB39A72488
:1016F000AE9C734A92679D73CED9E992CA3925553B
:1017000029A5A492CA3AE7A4A2945BE79CBB945390
:1017100076AB64589257B54EA7D3DBED76ABA49267
:101720004A2AA9A473CE39E79C7352492595547669
:10173000BBDD6ED7E9743A1D7C577DA7224CDB5583
:101740002959C5759F3A22558EDB69C795CBDA5862
:10175000FB88A2D29175A58A304998DE4A25952B3F
:10176000E9A473A79C73CA4628E7554A7E4A950C9C
:10177000534A2A59D9CAD5B272B5BB5C55EA56AAA2
:10178000D4AD547FD5AA77B5EA5DA7AA729DAC5CAB
:1017900074F1A7D7E9ED3A3CA5D36925753A1DDC6C
:1017A000945291B64B6FD39F8AB69254319E524A4F
:1017B00066E74B978BAE5CA73BB96A95CA5E7366CA
:1017C000B99D93CA3969D72B6EC27233F5574A2A2D
:1017D000BBDD0E7F3155455455515545559D5497A8
:1017E00053CEA9A2CB55B642957252D96D259D2BE9
:1017F0009B929754B2764E5ECEC94A3A1DDED2F91C
:101800006565C35E3A9D4E479FDD6ED3E9AC72B508
:101810005355D55B57CA39B954769B4E2A59C99846
:10182000D2F96CBA92958C7E9B4EA7D3E9743E0890
:101830004BBE934E25EF6FB5A48B4D4BE594735C77
:1018400069656B55A57295AD10B7D4E1CF79079551
:101850007D2A455455F9B9D6F34657915555FECAD8
:101860008D30A9AA52524925955452492595545272
:1018700049259574CE39E79C73CE39E79C73CE39F0
:10188000E79C73CE39A9F0E8F9764E75CEA9B4BCC1
:1018900073F2AE9657A5AA5A9E4EA7D34CD2B94B17
:1018A0002AA9A492CA6EB7DBD099B73E3466D3BBDF
:1018B0004A3A9B8F2E7CC5D55655E594BA5CAF2E1F
:1018C00077ABCB497539ABAADAAA70B7DE2AA9A4DF
:1018D00092CA39554A49556AAB4A392795735249D4
:1018E000E7E456A97297BBDCAD5C27635D3AE73A43
:1018F00097EA9D934A2AA9A472CE71D1D9ABDAAEE8
:101900006AB95472A9E4365FB9AAEAAABAAAAEAA19
:10191000ABEAAACA55B6B221309D4EA7D3DBED760D
:10192000ABA4E2928A3445545511C5B58E38BA8AB3
:10193000ACAA22AA92C1639F4A1155557EAEF5BC4E
:10194000D155645595BF72632DBF2CA5A452A5A493
:1019500052A5A44AF7AADCA5D359E5D35BE7A49224
:101960004EC9ED36E6EC5249259D5355B9AAAEAAAB
:10197000AEAAABEAAABAAABA2A5711259573CE39EC
:10198000A7A4924A6EB7E974E84BDBAB2AA756A529
:101990007E7529D5AB5276554A5755A5AB547AF882
:1019A0002CAEB6AA2AA7D4E57A75B95B5D4EAACB50
:1019B0005955D556A5D2435069259DB3EBF4B65E73
:1019C0005572BB0DCDE9743A680A122040E098FCCC
:1019D000FCF41C1C14147CF4FEF5D808000000F87C
:1019E000BFFFFFEF0000000271EBFFFFFE8E8000E3
:1019F0000219FEFFFFFF000000006FDFFFFFFF0086
:101A0000000000287F5F7F1F7868707161F5BF7FDD
:101A10002718000000000000101CFEFEFEEE78E01B
:101A2000900000000000000000004020FFFFFFFFCA
:101A3000EF00180000000000000000000020FFFF81
:101A4000FFFBF30C88000000000000000000208372
:101A50003F7F7F7F3F2506440000000000F8F4FC34
:101A6000FEFF1E1C1F1BF8F8FEFC98000020000162
:101A70000B0303090580C0E9EAFFFFFF3F200000D8
:101A800000000080C0F8FDFB7F3F1F3713030100FB
:101A9000000000789E7D7FFF7D7B39787878F8B8EC
:101AA000380000000078F87C7CFE1A302E0B1DFBFD
:101AB000FCE4F84000000000010303E3C0E0E0E4C0
:101AC000F9FFFFBFBF000000102870F0F4F9000319
:101AD00003012BF7FFFFFF6000000018073F3F3FA7
:101AE0007C1830283C3F3F3F3F00000000008080D2
:101AF00000C2FCF0FEFE3C0200000000000080007E
:101B00008878ECE3FF6F0D0320E0E0E0A000000028
:101B1000E4FCFFFFFFCDE2F0F0A0FEFBFFFFFCC006
:101B20003800000101010001010101017F7F1F3F19
:101B3000DC090000000020F6FEFCFC1C1C1C1C1C28
:101B4000BC2C1C0000000000657FFFFF7F7060F070
:101B5000F0F0F070B0A0000000008060E0E0E00372
:101B6000030000FF7FFFFEFF02000000053E3F7FF5
:101B70003F785858787B7F3F7FBD1000000080FC85
:101B8000FCFAFC1C0E0C161A1E1E1C0000000000A5
:101B900030DFFFFFFF72797878F8F8F8F0F0000096
:101BA0000088EEFFFFCDCF00020041BF7FFFFFFBAB
:101BB000000000030F7F9F3F9FBC8C58383F7F5F22
:101BC0003F2F00000000003E1E3E5C3D3C3CFCFC04
:101BD000FCFC7C3C00000000000000008040B0FFE6
:101BE0007FFFCF15234000000000000050D0FDFD16
:101BF000FDFF1F03010000000000000027493FFF18
:101C0000FF7F3F07000000000000000000A4FEF27C
:101C1000FEFE3C3C3C1C34FCFCD4F40000000008FC
:101C200037BFFFDF6440C0F0C0FFFFFFBFA09B00D5
:101C300000D1ECFEFFFFBF411111297FFFBFFF0E56
:101C4000000000041B7FBF3FB372A1A2F3FF7F7FA0
:101C50003F5F20006000B7FDF2FE7EA61E0A1EFE5A
:101C6000FEFC58C080002080FDF7CFF93508002821
:101C7000B5FCFFE7BF1009070031171F2B1D170E1A
:101C800016AA7DFFFFFFFF08000000003878787873
:101C90006C78787B3C7F5F5F2E28000003081F1163
:101CA0001F121F101D151711151F07041F17151DD3
:101CB0001F151D01011F1F151F17151F7F1FD87628
:101CC0006EABE476E79C5356D54A2A3BA6526E5932
:101CD000DB6D25B79554A5B65787A9CEA9DE6E95BD
:101CE00054A55C85A79CDBA6D7D5FDAAA3934A552E
:101CF0002595544A95729754F272A3B1725529A949
:101D0000E44A2AA9A4934A3AF52BE93A46572B2BE1
:101D1000955C5AA563CCA594B3CA39452A95AA4ABD
:101D20002AA9942AE52EA9E4E5664AA952CE4925B6
:101D300095545229E99C7276BB55B7533ADDC71AC0
:101D400015692D9DB33BE75CC7EE5475B15F5272C8
:101D5000E5B2CEE9F8553E1455F2AA9D9B34F66AD9
:101D6000D292F12E9D935B2515FE56AA3C533ED789
:101D7000CF16D5CED5555CA914BF9276A6A4AB5D7F
:101D80005E45DA39E692F12E9D935B2515B1CE467C
:101D90006C77A5EE7B59D15D1F6177AB78BB28F3DB
:101DA0004FBC948AAF762ED9155F6AE7B618924A6F
:101DB00045974F21483BA7634BA572F61A41CC5576
:101DC0002B1757D53563785D1E574C9572E98B29D3
:101DD00055672FB22459CC9D3C159FABA72D345588
:101DE000AD5C5C55D78CA12AC595AAEDDAC9EE3851
:101DF000CB293B6156C9CB29299DB2EBECD239A73F
:101E0000A472EE439173CA2AA7F45CE9F4E59C73CB
:101E1000CEB998E274CE39E71C773E5AE56AA7A49A
:101E2000734EC62A955495ACA5724E2A594965C77A
:101E30005D6D93B5535249574A955B2A79A9CB39C1
:101E4000E77097AEA473CE3957C9D025955495AC99
:101E5000A5724E2A594965E74CE59473CE395594DD
:101E6000B573CE39259D545CD5F08D14A1C881CFB2
:101E7000D9F1AF2000F0F89C8E8783878E9CF8F014
:101E80000000FEFF0303030303070EFCF80000FE3F
:101E9000FF0303030303070EFCF80000FFFF00002D
:101EA0000000000000FFFF0000FEFF8383838383A8
:101EB000C7EE7C380000F8FC0E07030303070EFC96
:101EC000F800003F7FE0C08080C0E07F3FFFFF015F
:101ED000010101010101FFFF0000FFFF0C0C0C0CD0
:101EE0001C3E77E3C100007FFFC0C0C0C0C0E070EF
:101EF0003F1F00001F3F70E0C0C0C0E0703F1F00E8
:101F0000007FFFC1C1C1C1C1E3773E1C00001F3F7C
:101F100070E0C0C0C0E0703F1F000000000001FF83
:101F2000FF010000002017E716D916C116C516C11B
:101F3000181318FA18B2160521080B000202020045
:101F40000009040000010202000005240010010540
:101F5000240101010424020605240600010705816D
:101F60000310004009040100020A000000070502F6
:101F70000240000007058302400000040309041228
:101F8000010002EF020140412336800001010203FB
:101F90000141726475696E6F204C4C43004172645C
:101FA00075626F790000132511241FBECFEFDAE0B0
:101FB000DEBFCDBF11E0A0E0B1E0EEE8F3E502C086
:101FC00005900D92AC32B107D9F726E0ACE2B1E052
:101FD00001C01D92A13BB207E1F71FE0C4EDDFE0B5
:101FE00004C02197FE010E94BF29C33DD107C9F754
:101FF0000E94C0250C94C5290C94000080915C01BE
:102000000895E1E9F1E0A0E0B8E000800EBC8111A4
:10201000012C1197A0FDFDCF0192B9F70DB40895E1
:10202000FC0180919001882311F13FB7F89482E080
:102030008093E9002091F200822F90E01816190693
:1020400014F481E090E0882339F0289844E6409326
:102050008F014091F1004083222339F02091F2005A
:10206000211103C02BE62093E8003FBF08958FEFB6
:102070009FEF08952FB7F89483E08093E900909143
:10208000E800892F807295FF04C09091F20080E4EF
:10209000891B2FBF08958091870181110DC082E0B7
:1020A0008093830184E080938401109286011092D2
:1020B000850181E08093870183E891E00895CF93C3
:1020C000DF931F92CDB7DEB76983DC01ED91FC9100
:1020D0000280F381E02D41E050E0BE016F5F7F4F51
:1020E00009950F90DF91CF91089583E08093E900E7
:1020F0008091F200882319F08AE38093E800089524
:102100000E943A1090E00895CF93DF931F92CDB7CD
:10211000DEB7FC018485958597FD08C02FEF3FEF62
:10212000358724870F90DF91CF910895CE010196D6
:102130000E941010019719F4898190E0F3CF8FEF7E
:102140009FEFF0CF0F931F93CF93DF931F92CDB7E5
:10215000DEB78C01FC018485958597FF0BC0CE010D
:1021600001960E941010019771F4898190E0F801A6
:1021700095878487F801848595850F90DF91CF91AD
:102180001F910F9108958FEF9FEFF1CFFC01848590
:10219000958597FD0BC09FB7F89482E08093E90086
:1021A0008091F2009FBF90E0019608959FB7F89448
:1021B00082E08093E9008091F2009FBF90E0089553
:1021C00040917D0150917E0120917B0130917C01F5
:1021D00042175307B4F49091E8009570E1F39091A1
:1021E000E80092FD19C08093F10080917D019091EB
:1021F0007E0101968F739927892B19F48EEF8093B6
:10220000E80080917D0190917E01019690937E017E
:1022100080937D0181E0089580E00895DF92EF9240
:10222000FF920F931F93CF93DF93D82E8A01EB0178
:102230007B01E40EF51ECE15DF0559F0D7FE12C066
:10224000FE0184910E94E01021968111F4CF0FEFDE
:102250001FEFC801DF91CF911F910F91FF90EF9079
:10226000DF9008958881EECF0F931F93CF93DF9374
:102270001F92CDB7DEB782E0898342E450E069E384
:102280007FE180E80E940E110E944B10DC01129643
:102290000D911C910115110589F0D801ED91FC916A
:1022A0000280F381E02DBE016F5F7F4FC801099569
:1022B00097FD04C0F80100851185ECCF89810F904E
:1022C000DF91CF911F910F910895615030F02091CF
:1022D000F100FC0120830196F8CF289884E68093D2
:1022E0008F0108953FB7F89480917701909178011C
:1022F000A0917901B0917A0126B5A89B05C02F3F26
:1023000019F00196A11DB11D3FBFBA2FA92F982F1B
:102310008827BC01CD01620F711D811D911D42E016
:10232000660F771F881F991F4A95D1F708958F92DE
:102330009F92AF92BF92CF92DF92EF92FF926B018A
:102340007C010E9472114B015C01C114D104E104B3
:10235000F104B9F00E947211681979098A099B0980
:10236000683E73408105910580F321E0C21AD108CF
:10237000E108F10888EE880E83E0981EA11CB11CCC
:10238000E4CFFF90EF90DF90CF90BF90AF909F9001
:102390008F9008958F929F92AF92BF92CF92DF92CB
:1023A000EF92FF920F931F93CF93DF936C017B010A
:1023B0008A0180910D01882309F45CC0809190010D
:1023C000882309F457C08091820180FF05C0809165
:1023D000E00082608093E000E801B12C8AEFA82E33
:1023E00093E0892E2AE3922E209711F4BB20D9F195
:1023F0000E943A1081110AC0AA94AA20D9F161E082
:1024000070E080E090E00E949711EECF8C171D06DF
:1024100011F00CF08C2F9FB7F8948092E900209176
:10242000E80025FD02C09FBFDFCF282F30E0C21B90
:10243000D30BF701815020F041914093F100FACF86
:10244000E20EF31EBB2021F09092E800B12CEBCFFE
:102450008091E80085FDE7CF9092E800BB24B3941B
:10246000209709F3F3CF5D9884E6809381011016DD
:1024700011063CF081E090E0F6019383828310E046
:1024800000E0C801DF91CF911F910F91FF90EF9075
:10249000DF90CF90BF90AF909F908F900895209144
:1024A0006401E0916201F0916301CF010296909383
:1024B000630180936201222319F08591949108951C
:1024C000808191810895CF92DF92EF92FF92CF9316
:1024D000DF930E944F12811520E8920791F48091BA
:1024E00071008D7F809371001092910046984798FB
:1024F00010926101DF91CF91FF90EF90DF90CF902C
:10250000089521E020936101813020E8920751F481
:1025100080915F01909160019093630180936201CB
:102520000E944F1297FD05C020915E01222309F4FD
:1025300054C020915D01211150C021E0209365011C
:10254000EC01DF77209709F04BC081E080936601B2
:1025500046983FE9C32E3FE0D32EE12CF12CCAEF81
:10256000D0E0E091EF05F091F0050995811103C0ED
:1025700081E08093660180916501882329F0809134
:102580006601882309F43FC047980E944F120097C4
:10259000F1F19C01DE010E949C29DC01CB0129E0C4
:1025A000B595A795979587952A95D1F710929000A4
:1025B0002AE020939100D0929900C09298008093D5
:1025C000670190936801A0936901B0936A018091BB
:1025D00071008260809371008DCF10926501B0CF41
:1025E0009E0150E040E060E472E48FE090E00E94E1
:1025F000482969017A0181E0C81AD108E108F10887
:1026000010926601AECF4699BFCF479ABECF8FEFEB
:102610009FEFDC01CBCF9C01E1E7F0E090819D7F53
:10262000908310926401E1EEF5E0F0936301E09392
:102630006201F0936001E0935F0131832083738333
:10264000628380E090E8958384830C9463124F92B8
:102650005F926F927F928F929F92AF92BF92CF9232
:10266000DF92EF92FF920F931F93CF93DF934C0172
:102670005901FC2DC02FD0E0CE01880D991D1816F0
:1026800019060CF06CC020E8821691040CF067C0AB
:102690009B012E0D311D121613060CF060C0603424
:1026A00071050CF05CC04115510509F458C0E62FC6
:1026B000E770FE2EDB0177FD179633E0B595A79501
:1026C0003A95E1F73A2F77FF04C0FF2011F03FEF72
:1026D0003A0F662777276819790997FC02C070E0DE
:1026E00060E0803891050CF44BC090E89819961B77
:1026F000A32F032E000CBB0B1A2F10953F3F0CF09D
:1027000010E021E08E2D877009F420E0E694E69435
:10271000E694E20EAE0DB11D19971CF028E0E22EF2
:10272000E31AE11A310F20E83203D0011124A80D79
:10273000B91DA60FB71F019F600D711D1124460F13
:10274000571F0F2D0F2C000C110BF33009F41CC177
:10275000C8F4F13009F4D0C0F23009F47CC0DF9144
:10276000CF911F910F91FF90EF90DF90CF90BF908E
:10277000AF909F908F907F906F905F904F90089553
:10278000902FB5CFFA3FB1F1232F2E0DFB3F39F734
:10279000321729F3BD016F567E4FD12CC12CC916BB
:1027A00008F0A4C0FA01EC0DFD1DE491F0E04F012A
:1027B000002E02C0880C991C0A94E2F737FD06C06F
:1027C000FB018081E82CE0948E218083FF2061F062
:1027D000373054F45B01F0E8AF0EB11CE92CE09403
:1027E000F50180818E218083FFEFCF1ADF0A6F5FB2
:1027F0007F4FD5CF232F2E0D321709F4B0CFBD0157
:102800006F567E4FD12CC12CC91608F069C0FA0151
:10281000EC0DFD1DE491F0E04F01002E02C0880C8C
:10282000991C0A94E2F737FD04C0FB0180818829D6
:102830008083FF2051F0373044F45B01F0E8AF0EA5
:10284000B11CF501808189298083FFEFCF1ADF0A4F
:102850006F5F7F4FD9CF6FEF70E00F2C02C0660F14
:10286000771F0A94E2F760957095772E232F2E0D2F
:10287000321709F474CFFD01EF56FE4F6F01B12CF2
:10288000A12CA91638F5FA01EA0DFB1DE491F0E040
:102890002F01002E02C0440C551C0A94E2F737FDAC
:1028A00005C0F6018081862384298083FF2059F0AA
:1028B00037304CF44601F0E88F0E911CF401808112
:1028C000872185298083FFEFAF1ABF0A8FEFC81ACF
:1028D000D80AD7CF3F5F4C0F5D1FA058BF4FC8CF5E
:1028E0003F5F4C0F5D1FA058BF4F86CF3F5F4C0F1F
:1028F0005D1FA058BF4F4CCF6A0D7B1D232F2E0D9F
:10290000321709F42CCFFD01EF56FE4F6F01B12CA9
:10291000A12CA91688F5FB01EA0DFB1D8490912CD2
:10292000002E02C0880C991C0A94E2F780949094BF
:10293000FA01EA0DFB1D6490712C002E02C0660C9A
:10294000771C0A94E2F737FD05C0F60180818821E3
:1029500086298083FF2049F037303CF4F601E058A7
:10296000FF4F8081892187298083FFEFAF1ABF0A3B
:102970008FEFC81AD80ACDCF3F5F4C0F5D1F6C0F89
:102980007D1FA058BF4FBCCFC92ED12CFA01E60F36
:10299000F71FAF56BE4F00E810E00C191D09CC1907
:1029A000DD09BE01660F771F41E050E06A010F2C80
:1029B00001C0CC0C0A94EAF7592F2E2D792ECF9313
:1029C000DF93ED01EF96EF9622968590A590FF207C
:1029D00059F08C9C4001AC9C500137302CF4E880BD
:1029E000B094EB20E928E99233233AF0EC90A094DC
:1029F000EA20E828ED920C94FE1411965A9529F7D6
:102A00002A9551F0572D33951124E60FF11DA00F93
:102A1000B11DC00FD11DD9CFDF91CF9111249FCE11
:102A2000CF92EF920F93FA0104913196E4904E5FAA
:102A30005F4F2223F9F0A1E0B0E03E2D377011F492
:102A4000B0E0A0E0EE2DE695E695E695EA0FFB2FC7
:102A5000F11D0E9FD0010F9FB00D112430E0220F09
:102A6000331FA29FF001A39FF00DB29FF00D112420
:102A70004E0F5F1F23E0C22E30E020E00E9427139C
:102A80000F91EF90CF900895CF92EF920F93CF9345
:102A9000DF93DC01FA0104913196E4904E5F5F4FC1
:102AA0002223D1F0C1E0D0E09E2D977011F4D0E048
:102AB000C0E0EE2DE695E695E695EC0FFD2FF11DB5
:102AC0000E9FE0010F9FD00D11242C9FC0012D9F60
:102AD000900D1124480F591F8AEFC82E30E020E0D6
:102AE000CD010E942713DF91CF910F91EF90CF90EE
:102AF00008952D9A0895BC0190E080E00C94971100
:102B00008FB18095807F669B88601C9B8460089550
:102B100010925C013E983F9808953E9A3F9A81E05A
:102B200080935C01089590916F01982329F490910E
:102B30007001982381E009F480E00895CF93C82FB5
:102B40000E948015982F9C2381E09C1380E0CF91F8
:102B500008951F93CF93DF93DC0130E020E050E035
:102B600040E011E0C1E0D0E02617370791F114965C
:102B70008C911497811115C014961C93149712967A
:102B80008D919C911397ED91FC911197E80FF91F8E
:102B9000E4911596EC931597019613969C938E935A
:102BA000129714969C91149715968C9115978923DA
:102BB00049F0FE01022E02C0EE0FFF1F0A94E2F759
:102BC0004E2B5F2B990F14969C9314972F5F3F4FBA
:102BD000CBCFCA01DF91CF911F9108952F923F92E1
:102BE0004F925F926F927F928F929F92AF92BF921D
:102BF000CF92DF92EF92FF920F931F93CF93DF93C9
:102C000000D000D000D0CDB7DEB75C017A836983F5
:102C10001C821B821D821E8268E070E0CE0101963C
:102C20000E94A91501963C0168E070E0CE01019672
:102C30000E94A9158C0161E070E0CE0101960E940E
:102C4000A91593012A0D3B1D121613060CF071C035
:102C500098012F5F3F4F121613060CF06AC06901EE
:102C6000E3E0D594C794EA95E1F727703327232B47
:102C700019F09FEFC91AD90A382E44244394512CD5
:102C800010E000E0F12CE12C22242394EC14FD044C
:102C90000CF04FC088248394912C61E070E0CE0149
:102CA00001960E94A915892B21F482E0880E911CBF
:102CB000F4CFB401CE0101960E94A915019630E02F
:102CC00020E02817390798F531105428A42DAA0FB1
:102CD00059F5A7014F5F5F4F49305105A8F4B50181
:102CE000600F711F6038710578F4F701F695FE2FBB
:102CF000EE27F795E795EA0DFB1DE00FF11FEF5664
:102D0000FE4F6081562A50820F5F1F4F4424439428
:102D1000061517052CF07A014424439410E000E0D6
:102D20002F5F3F4F5A2ECDCF4A2EA52DF9CF3224FB
:102D3000ADCF26960FB6F894DEBF0FBECDBFDF91A4
:102D4000CF911F910F91FF90EF90DF90CF90BF90A8
:102D5000AF909F908F907F906F905F904F903F903B
:102D60002F90089564ED76E190E080E00E94EE15EA
:102D700080E80E949315882319F087E08093710101
:102D8000089586E08093710108956CEB73E084E10F
:102D900090E00E94EE1588E00E949315811105C015
:102DA00084E00E949315882319F081E080937101DB
:102DB000089588E00E949315811105C084E00E9467
:102DC0009315882319F081E0809371010895CF93C2
:102DD0006BEA76E090E080E00E94EE15C091000181
:102DE0002EEF2C0F42E552E068E370E084E190E0C2
:102DF0000E94441580E40E949315882329F0C53071
:102E000018F4CF5FC093000180E20E9493158823DD
:102E100039F080910001833018F0815080930001D7
:102E200088E00E949315811105C084E00E949315EB
:102E3000882321F08091000180937101CF91089542
:102E4000CF93C0912C01CF5FC0932C0120E04CEABE
:102E500050E064E070E082E290E00E944415C53BDF
:102E600028F010922C0181E080937101CF91089598
:102E7000CF92DF92EF92FF920F931F93CF93DF9346
:102E80002091510130E03093300120932F01809147
:102E9000520190E0DC011197B0933201A09331010F
:102EA00048E04093330140933401E7E3F1E0CFE49D
:102EB000D1E08901085F1F4F0796C080D180E28072
:102EC000F38064814581C016D1067CF46C0D7D2DA4
:102ED000711D261737074CF4E816F90634F44E0D29
:102EE0005F2D511DA417B50774F03696CE17DF0776
:102EF00021F780E0DF91CF911F910F91FF90EF902C
:102F0000DF90CF90089581E0F5CFCF92DF92EF92DE
:102F1000FF92CF93DF93C091510636E0C32ED12CA0
:102F2000E12CF12C80915106C81309C00E94A528FC
:102F3000A70196010E94482960935106F3CFC091E2
:102F40005206D091530628E0C22ED12CE12CF12C50
:102F500080915206C8131CC080915306D81318C024
:102F60000E94A528A70196010E94482970E0FB0154
:102F7000EE0FFF1FEF5AF94F838180935206660FC1
:102F8000771FFB01EB5AF94F808180935306E0CF06
:102F9000DF91CF91FF90EF90DF90CF900895CF9386
:102FA000DF93EC010E94A5282CE330E040E050E0E4
:102FB0000E944829645C7F4F8F4F9F4F69878881AB
:102FC000813051F050F1823079F482E090E09887BE
:102FD0008F8386E08C8307C083E090E098878F839F
:102FE00088E08C8389E08D831B861A8683E0898341
:102FF00080E48A831B820E94A52822E030E040E022
:1030000050E00E94482921E0672B682B692B09F4C6
:1030100020E02E83DF91CF91089585E090E098879E
:103020008F838CE0D7CF0F931F93CF93DF931092B2
:103030005B0110925A01109259011092580188E5D3
:1030400092E090936B0680936A0681E080936E060F
:103050009EE190936C0610926D0693E090936F063C
:10306000109270061092710624E02093730622E0FD
:103070002093740690937506109276061092770648
:10308000109278061092790680937A06EAE6F6E0C6
:1030900094E082E0D3E0C1E0938B848BD68B178AD7
:1030A000C08F118E399626E0E03AF207A9F70E9408
:1030B0008517C0935301D093540188E18093510147
:1030C00086E2809352011092F105C093FD05C093F2
:1030D0000906C1EFD5E001E516E0CE010E94CF1749
:1030E000109257012C960C171D07B9F71092380152
:1030F000109237012FE130E030933A0120933901EB
:1031000097E390933B0182E080933C0148E450E0D8
:1031100050933E0140933D013093400120933F0185
:10312000909341018093420128E230E030934401C2
:10313000209343014FE050E05093460140934501F6
:103140009FE2909347018093480130934A01209376
:1031500049012FE230E030934C0120934B019093D2
:103160004D0180934E011092500110924F01109228
:103170002D0187E080937101DF91CF911F910F9115
:103180000895CF936BEA76E090E080E00E94EE1520
:1031900020915C0141E056E068E370E086E190E058
:1031A0000E94441580E40E94931581110E948D15A0
:1031B00080E20E94931581110E94881588E00E9488
:1031C0009315811105C084E00E949315882381F036
:1031D000C0915C0182E090E00E943229C81729F07A
:1031E0006C2F82E090E00E943A2981E08093710187
:1031F000CF9108952F923F924F925F926F927F925C
:103200008F929F92AF92BF92CF92DF92EF92FF92F6
:103210000F931F93CF93DF93CDB7DEB72A970FB6E7
:10322000F894DEBF0FBECDBF80E80E9493158823BF
:1032300019F088E08093710180E40E949E15882334
:1032400071F11092550110922D0110924F01809151
:103250006B0190916C0166E070E00E94AB29892BB4
:1032600039F4809150018F5F8430B0F48093500125
:1032700010E080915301082E000C990B18171906C5
:1032800074F40E943817811105C0809151018F5F3D
:10329000809351011F5FEDCF10925001E9CF80E282
:1032A0000E949E15882379F181E080935501109248
:1032B0002D0110924F0180916B0190916C0166E09D
:1032C00070E00E94AB29892B39F4809150018F5F07
:1032D0008430B0F48093500110E080915301082EA7
:1032E000000C990B1817190674F40E9438178111F5
:1032F00005C0809151018150809351011F5FEDCF36
:1033000010925001E9CF0E94801580FD29C02091C4
:103310006B0130916C01C9016CE370E00E94AB2934
:10332000892B29F480912D018F5F80932D0180914D
:103330002D018630A8F082E08093550186E08093CD
:103340002D01C9016FE070E00E94AB29892B41F487
:1033500080914F018F5F843208F012C180934F013A
:1033600088E00E949E158823A1F010922D0188E02C
:103370000E949E15882309F406C1809158019091FE
:103380005901039709F0FFC000917106002309F469
:103390000CC184E00E9493158823C9F080912E010E
:1033A0008823A9F080915201853018F081508093D4
:1033B000520187E090E0909336018093350110929E
:1033C0002E0164E670E08CE390E00E940B13809184
:1033D00035019091360101978E3F7FEF97070CF4EE
:1033E00041C29093360180933501E0903501F09011
:1033F00036010091510110E01E141F040CF035C27B
:10340000D12CC12C0E943817811107C08091520124
:10341000833018F08150809352018FEFC81AD80A78
:10342000EC14FD0479F78091520690E09801285F32
:103430003F4F821793079CF50896081719077CF5EC
:103440002091520130E08091530690E0A901485F3D
:103450005F4F841795071CF5089628173907FCF469
:1034600080915A0190915B018C599F4F90935B0121
:1034700080935A0164E670E08CE291E00E940B13A5
:1034800080915106823009F40BC308F048C28823AA
:1034900009F48DC2813009F4C8C20E948517809159
:1034A0005201833340F08091510185538F3018F4DD
:1034B00089E08093710111EF612E15E0712E01E515
:1034C000202E06E0302E7301D70113968C911397AE
:1034D0008034B0F01B968C911B9781110AC0E1E0FB
:1034E0001B96EC931B9711968C9111978150119616
:1034F0008C93E0E4D7011296EC93129713961C92EA
:10350000D7011A960C911A97002309F40AC412964F
:10351000BC918B2E912CF70183819581A92EB12C22
:103520009501280F311DA481E7E3F1E010E02401AB
:103530004A0E511C4081518162817381C480D580C3
:103540004415550574F44C0D511D841695064CF424
:103550002617370734F06D0D711D261737070CF449
:10356000102F369641E0EF34F40721F7111159C3BB
:103570002F3331050CF051C38F5FF701838351C3A3
:1035800010924F01EDCE88E00E949E15882339F0FD
:103590008091580190915901049709F4F5CE88E083
:1035A0000E9493158111F0CEF4CE809172068F5F48
:1035B000863009F4BFC080937206E091720619E06C
:1035C0001E9FF0011124E659F94F81E0818F80910F
:1035D0006C06858BC0907906D12C2FEFC21AD20AC7
:1035E0000D2C000CEE08FF080E94A528A090720682
:1035F0001A9D90011124A9014659594F5A01A7015A
:1036000096010E944829D50157966C930E94A528DF
:1036100022E030E040E050E00E944829613051F45F
:10362000E09172061E9FF0011124E659F94F878937
:103630008195878B80916F068093710680915801E8
:10364000909159018230910509F48AC008F075C043
:10365000009709F479C0019709F47BC010917706AF
:103660000E94A52822E030E040E050E00E94482976
:10367000613009F41195E0917206B9E0EB9FF00119
:103680001124E659F94F809152018E5F810F828B90
:103690008091760690E001966C01092E000CEE08F0
:1036A000FF0841E050E060E070E0019781F00E9487
:1036B000A528A701960121503109410951090E940D
:1036C0004829AB01BC014F5F5F4F6F4F7F4F909117
:1036D0005501E92FF0E0EE0FFF1F21E030E02E1B37
:1036E0003F0BE091720689E0E89FF0011124E65952
:1036F000F94F322F330F330F330F80915101830F66
:10370000818B80917506841B829F802D1124868B6E
:10371000192F110F80917006081778F50E9438173D
:10372000811106C0809151018150810F8093510118
:103730000F5FF0CF1092720640CF84309105D1F028
:10374000A0F0059709F08ACF64E670E084E690E087
:1037500004C06CE271E08CE890E00E940B137ECF15
:103760006CE271E08EEB90E0F8CF64E670E088E701
:1037700090E0F3CF60E570E0E9CF8091580190913F
:103780005901059709F005CE809172068F5F8093ED
:103790007206863011F410927206E091720619E0FA
:1037A0001E9FF0011124E659F94F81E0818F80912D
:1037B0006C06858BC0907906D12C9FEFC91AD90A67
:1037C0000D2C000CEE08FF080E94A528A0907206A0
:1037D0001A9D90011124D901A659B94F5D01A70185
:1037E00096010E944829F501678B0E94A52822E0D6
:1037F00030E040E050E00E944829E09172066130DC
:1038000059F41E9FD0011124A659B94F57968C9197
:103810005797819557968C9329E0E29FF0011124E8
:10382000E659F94F809152018D5F828B809155014D
:1038300090E03091730620915101389F200D1124A2
:10384000218B4091750621E030E0B901641B7109BC
:10385000AB01880F991F281B390B429F202D112483
:10386000268B97CD8EEF9FEFBCCDE114F10409F4C8
:10387000DACD90905201D801119680902E0130E05F
:1038800020E09FE4A92E91E0B92E680197E0C90ECF
:10389000D11C892D90E0BC016F5F7F4FE7E3F1E021
:1038A0000996408151814C155D058CF47480470D5B
:1038B000511DA417B5075CF442815381481759077D
:1038C00034F47580470D511D6417750704F146E304
:1038D000491500F13696AE16BF0619F7939421509C
:1038E0003109E216F306A9F69092520180922E0158
:1038F000B0933001A0932F01709332016093310196
:1039000086E08093330188E0809334018CCD882455
:103910008394E5CF8824839487E3982EE0CF843086
:1039200009F43FC108F4FCC0853009F0B6CD85E04C
:1039300090E0909359018093580188E592E090932C
:103940006B0680936A0681E080936E069EE19093F9
:103950006C0610926D0693E090936F0610927006BD
:103960001092710624E02093730622E020937406DF
:10397000909375061092760610927706109278064C
:103980001092790680937A06EAE6F6E080EA96E0FD
:1039900054E042E033E021E0538B448B368B178AAE
:1039A000208F118E39968E179F07B1F776CD109222
:1039B00059011092580188E592E090936B0680932C
:1039C0006A0681E080936E069EE190936C061092E9
:1039D0006D0693E090936F06109270061092710638
:1039E00024E02093730622E02093740690937506DA
:1039F0001092760610927706109278061092790649
:103A000080937A06EAE6F6E080EA96E054E042E047
:103A100033E021E0538B448B368B178A208F118E35
:103A200039968E179F07B1F738CD21E030E03093FB
:103A300059012093580128E532E030936B0620931A
:103A40006A0680936E0620E120936C0610926D0644
:103A500098E290936F0698E090937006109271062A
:103A600020937306909374068093750610927806DF
:103A7000109277061092790685E080937A06EAE63E
:103A8000F6E030E128E091E0338B248B968B178AA7
:103A9000808F118E399656E0E03AF507A9F7FDCCF4
:103AA00022E030E0309359012093580128E532E0BC
:103AB00030936B0620936A0691E090936E0693E232
:103AC00090936C0610926D0694E190936F0694E0CB
:103AD000909370061092710695E09093730693E0B0
:103AE000909374069093750610927606109278065D
:103AF000109277061092790680937A06EAE6F6E04D
:103B000020EA36E045E083E092E0438B848B868BAD
:103B1000178A908F118E39962E173F07B1F7BDCCBB
:103B200083E090E0909359018093580188E592E0FA
:103B300090936B0680936A0681E080936E069EE107
:103B400090936C0610926D0698E090936F0695E046
:103B500090937006109271069093730693E0909381
:103B6000740694E09093750610927606109278068B
:103B7000809377061092790680937A06EAE6F6E05B
:103B800080EA96E055E043E034E021E0538B448B3B
:103B9000368B178A208F118E39968E179F07B1F7B3
:103BA0007CCC24E030E0309359012093580128E583
:103BB00032E030936B0620936A0623E020936E0672
:103BC00096E090936C0610926D0680936F061092AB
:103BD000710610927006909373069093740620936A
:103BE000750682E0809376061092780691E09093B5
:103BF00077069093790680937A06EAE6F6E086E007
:103C000092E0838B848B268B178A908F118E399646
:103C100066E0E03AF607A9F740CCB653BF3008F4A7
:103C2000ABCCA4014F5F5F4FF701C380D12C209133
:103C3000510130E0B9016A5F7F4F46175707FCF426
:103C40002E5F3F4FA1504A0F511D24173507BCF47A
:103C5000A6014F5F5F4F2091520130E0B9016A5FCA
:103C60007F4F461757075CF42E5F3F4F9150490F27
:103C7000511D241735071CF4F9E0F09371010AE691
:103C800016E0AC0CBD1CD80159968C91599788232D
:103C900009F43FC051968C91519790E08415950599
:103CA000C4F553962C915397820F911D881699064F
:103CB00084F552968C91529790E08A159B054CF5AD
:103CC00054962C915497820F911DC816D9060CF565
:103CD00058962C91F70187819085821B91099087D6
:103CE00087831816190664F080915A0190915B0140
:103CF000019690935B0180935A01C7010E94CF17F0
:103D00008091580190915901019719F0D801599665
:103D10001C92075F1F4FE0EAF6E0E017F10709F099
:103D2000B2CFFCE0EF0EF11C2E143F0409F0CCCB17
:103D300050906B0140916C0101EF15E028E730E0F5
:103D4000E1E0D80111966C9170E0852D942F0E94CE
:103D5000AB29892B39F5D80119968C9119978823AD
:103D600009F4DAC1815019968C93D80112969C916E
:103D7000129714968C911497B901681B71099617C4
:103D8000170639F034F016968C9116978E271696F2
:103D90008C93983038F4D80116968C9116978E270C
:103DA00016968C93045F1F4F0E151F0551F6852D37
:103DB000942F66E070E00E94AB29892B29F4809152
:103DC00057018F5F8093570180915701843010F025
:103DD0001092570160916E0670E0852D942F0E941D
:103DE000AB29892B09F071C020916A0630916B06CE
:103DF0002150310930936B0620936A068091710639
:103E0000882319F0815080937106AAE6B6E040EA53
:103E100056E0FD01818D882371F085898150858B65
:103E2000811101C0118E81899689890F818B8289C8
:103E30009789890F828B39964E175F0759F71216AB
:103E400013060CF442C0109259011092580188E5F3
:103E500092E090936B0680936A0681E080936E06F1
:103E60009EE190936C0610926D0693E090936F061E
:103E7000109270061092710624E02093730622E0DF
:103E8000209374069093750610927606109277062A
:103E9000109278061092790680937A0634E0539651
:103EA0003C93539754962C93549756969C935697BD
:103EB00057961C92579758968C93589759961C92E0
:103EC00059971996EA17FB0751F7AEE9AA2EABE00E
:103ED000BA2EB0E1EB2EF12C4501F8E0CF2ED12C1B
:103EE000F401249140905101842D869586954CE9EA
:103EF0005AE0B701D601A81BB109CD010E941015E7
:103F0000BFEF8B1A9B0AE8E0CE0ED11CF8EACF1661
:103F1000D10431F724E1A20EB11C38E0E30EF11C0C
:103F200040E4E416F104C1F657E0541518F088E0B7
:103F30008093510180915101813718F080E780937F
:103F40005101F09055016091520170E08091510152
:103F500090E0A2E0FA12EFC0E0914F01F0E0EA5EDB
:103F6000F34F24914AE35CE00E9410158F2D880FD7
:103F7000F80EFF0C7AE6C72E76E0D72EE0EAAE2EDA
:103F8000E6E0BE2EF601818D882359F0209158017C
:103F90002F0D628970E0818944EE5CE090E00E9420
:103FA0004415F9E0CF0ED11CAC14BD0459F750FCF8
:103FB00005C0809156018F5F809356018091560114
:103FC0008F3010F0109256012091560146EA5DE0C4
:103FD00060E370E088E390E00E941015D3011A9628
:103FE0008C911A978823E1F08C91813009F4AFC04D
:103FF00008F4BBC08230A1F416962C911697220FBC
:10400000220F80915701280F13966C9113976250DD
:10401000770B12968C914CEE53E190E00E941015B4
:10402000BCE06B0E711C06151705C1F660915306B6
:1040300070E08091520620E04EE454E190E00E944E
:10404000101562EFC62E65E1D62E10E000E0560195
:10405000F12CE12CF501249140E654E1B801C701AF
:104060000E941015FFEFAF1ABF0A28E0E20EF11C04
:1040700030E8E316F10471F740E1C40ED11C085F8B
:104080001F4F0034110519F74AE0BE016F5F7F4FE3
:104090007B0180915A0190915B010E94FD28F701FC
:1040A00001900020E9F73197EE19FF09CE2E05E0C7
:1040B0000E1BD12C002E000C110B8D2D90E08017C3
:1040C00091070CF464C0000F111F000F111F0E594F
:1040D0001F4FB12C0C2C000CDD088B2D90E08C15A3
:1040E0009D050CF065C0F701E80FF91F2081213311
:1040F0000CF45CC020532A3008F058C0880F991F78
:10410000880F991F4CE95CE166E070E0800F911F19
:104110000E944415B394E1CF12968C9112978F5F51
:1041200016969C911697990F891B12968C9312974D
:104130001A96EC931ACEE0915001B4E0FB9E9001E8
:104140001124E20FF32FF11DE452F34F0ACFF301D4
:104150002681220F220F80915701280F638167501B
:10416000770B82814AEE52E158CF16962C91169722
:10417000220F220F80915701280F13966C911397ED
:104180006450770B12968C9148E651E146CF880F28
:10419000991F880F991F20E04CE95CE166E070E010
:1041A0008E599F4F0E944415D39487CF20E0A6CF0D
:1041B0002091580142E756E166E070E08BE090E024
:1041C0000E94441580917101893031F464EF71E0EF
:1041D00080E090E00E9497112A960FB6F894DEBF17
:1041E0000FBECDBFDF91CF911F910F91FF90EF9048
:1041F000DF90CF90BF90AF909F908F907F906F9007
:104200005F904F903F902F9008958F929F92AF9222
:10421000BF92CF92DF92EF92FF920F931F93CF93B3
:10422000DF93CDB7DEB72A970FB6F894DEBF0FBE87
:10423000CDBF6CEB7CE190E080E00E94EE154AE09F
:10424000CE0101967C01BC0180915A0190915B01E5
:104250000E94FD28F70101900020E9F73197EE193F
:10426000FF09AE2E05E00E1B10E0802E002E000C84
:10427000990894E1D92E181519043CF194E109022A
:1042800080011124025F1F4FD12C0A2C000CBB08A7
:1042900084E1C82E8D2D90E08A159B052CF58E0D9E
:1042A0009F1DFC0120812133ECF020532A30D0F4F3
:1042B0004AEC59E160E270E0C801DC9C800D911D80
:1042C00011240E944415D394E5CF1D9DC0011124F3
:1042D00020E04AEC59E160E270E00E960E9444153D
:1042E0001F5FC9CF20E0E4CF88E00E9493158111C1
:1042F00005C084E00E949315882319F081E0809323
:1043000071012A960FB6F894DEBF0FBECDBFDF91C4
:10431000CF911F910F91FF90EF90DF90CF90BF90C2
:10432000AF909F908F9008951F920F920FB60F92AB
:1043300011248F939F938091E1009091E100937FEE
:104340009093E10083FF0FC01092E90091E09093F9
:10435000EB001092EC0092E39093ED00109290012C
:1043600098E09093F00082FF22C093E09093E900E0
:104370009091F200992319F09AE39093E8009091BC
:104380008101992341F09091810191509093810195
:10439000911101C05D9A90918F01992341F0909104
:1043A0008F01915090938F01911101C0289A84FF41
:1043B00018C08091E2008E7E81608093E20080913F
:1043C000E1008F7E8093E100809182018E7E80618A
:1043D000809382019F918F910F900FBE0F901F903D
:1043E000189580FFF7CF8091E2008E7E80618093E8
:1043F000E2008091E1008E7E8093E1008091820155
:104400008E7E8160E5CF1F920F920FB60F9211241E
:10441000CF92DF92EF92FF920F931F932F933F93D0
:104420004F935F936F937F938F939F93AF93BF93BC
:10443000EF93FF93CF93DF93CDB7DEB76C97DEBFDB
:10444000CDBF1092E9008091E80083FF25C068E0AD
:10445000CE0145960E94651182EF8093E8008D8918
:1044600087FF39C09091E80090FFFCCF982F90769D
:1044700009F034C19E894F89588D2F89F88C91118C
:1044800031C0803861F5809180018093F1001092F5
:10449000F1008EEF8093E8006C960FB6F894DEBFC3
:1044A0000FBECDBFDF91CF91FF91EF91BF91AF9143
:1044B0009F918F917F916F915F914F913F912F913C
:1044C0001F910F91FF90EF90DF90CF900F900FBE54
:1044D0000F901F9018959EEF9093E800C7CF109211
:1044E000F100D5CF913059F48111D3CF413051052E
:1044F00081F6809180018D7F80938001CACF9330B7
:1045000049F48111C6CF4130510519F680918001DF
:104510008260F2CF953041F48091E80080FFFCCFBB
:1045200020682093E300B5CF963009F0A9C00B8D29
:104530001C8D22E01092E90010927E0110927D0104
:10454000F2122EC010927C0110927B010E94341155
:104550001F8299E09983FA8291E09E8390EA98877E
:104560009AEF998720917D0130917E01275F3F4F1F
:104570003C832B838D831092E90010927E01109270
:104580007D0110937C0100937B0149E050E0BE0166
:104590006F5F7F4F80E00E940E110E94341179CF2F
:1045A00010937C0100937B010E944B10DC0112965A
:1045B0000D911C910115110509F451C1D801ED911E
:1045C000FC910480F581E02DBE016B5E7F4FC80138
:1045D0000995009709F03EC1F80100851185EACFE1
:1045E000F3E0FF120EC08F89882309F440C08230A7
:1045F00061F440E867E08DE99FE10E94E0248111C9
:1046000048CF81E28093EB0047CF813029F440E826
:104610006BE081E99FE1F1CF833099F70E944B1065
:10462000DC011296ED90FC908E010F5F1F4F680128
:10463000E114F10479F0D701ED91FC910680F78146
:10464000E02DB801C7010995080F111DF701E0849D
:10465000F184EECFD8011C92F60101900020E9F719
:104660003197BF016C197D0940E0C601C6CF6BE7E9
:104670007FE1FB01449150E080E80E940E1109CFD8
:10468000973009F4BECF983021F481E08093F10097
:1046900000CF993009F0FDCE837009F0B2CFE3E18D
:1046A000F1E081E031E096E32191222371F08093E3
:1046B000E9003093EB00DF0111972C912093EC007F
:1046C0009093ED008F5F873079F78EE78093EA0053
:1046D0001092EA008F8980939001DBCE8B8D9C8DA8
:1046E0001092E90010927E0110927D0190937C015E
:1046F00080937B01898D811192C08E899D89913A29
:1047000049F4813209F07DCF47E050E066E071E086
:1047100080E0B3CF913209F074CF833269F48F898E
:10472000988DB0E0A0E08093020190930301A093E4
:104730000401B0930501ADCE803269F48091E800A8
:1047400082FFFCCF67E086E091E00E9465118BEF6D
:104750008093E8009ECE823209F09BCE8F898093B1
:104760000D01EEEFFFE7859194918B3F9C4D51F148
:10477000E0E0F8E08091060190910701A091080126
:10478000B0910901803B9440A105B105F1F48091FD
:104790000D0180FD1AC0EE3F8AE0F80789F587E732
:1047A00097E7918380838091600080937F0188E107
:1047B0009BE00FB6F894A895809360000FBE90938D
:1047C000600067CEEEEFFAE0D5CF80819181873728
:1047D000974709F05ECEA89580916000886180932C
:1047E000600080917F0180936000EE3F2AE0F20735
:1047F00089F08091FE0A9091FF0A9183808349CECF
:10480000808191818737980751F29093FF0A8093B6
:10481000FE0AC5CF1092FF0A1092FE0A3ACE0E94FD
:104820004B10DC0112960D911C910115110509F434
:10483000E8CED801ED91FC910190F081E02DBE0110
:104840006B5E7F4FC8010995811123CEF801008569
:104850001185EBCF181619060CF41BCED2CEF1E061
:10486000FF12BECE6FE77FE104CF1F920F920FB60B
:104870000F9211242F933F938F939F93AF93BF93E6
:104880008091730190917401A0917501B0917601AE
:104890003091720123E0230F2D3758F50196A11DA9
:1048A000B11D209372018093730190937401A093C2
:1048B0007501B09376018091770190917801A09174
:1048C0007901B0917A010196A11DB11D8093770104
:1048D00090937801A0937901B0937A01BF91AF9141
:1048E0009F918F913F912F910F900FBE0F901F902E
:1048F000189526E8230F0296A11DB11DD2CF1F9255
:104900000F920FB60F9211242F933F934F935F9303
:104910006F937F938F939F93AF93BF93EF93FF9387
:104920008091670190916801A0916901B0916A013D
:10493000892B8A2B8B2B09F440C080916601811151
:104940000BC088B190E4892788B9809165018823DC
:1049500019F088B1805888B98091670190916801F9
:10496000A0916901B0916A01181619061A061B0672
:104970009CF48091670190916801A0916901B091C8
:104980006A010197A109B1098093670190936801B9
:10499000A0936901B0936A01FF91EF91BF91AF912C
:1049A0009F918F917F916F915F914F913F912F9147
:1049B0000F900FBE0F901F9018950E946312ECCFBE
:1049C000EF92FF920F931F93CF93DF93F82E192F3F
:1049D000E62E042F81E0860F880F0E94E01083E00E
:1049E0000E94E010CF2DD12FEC0EFD2EF11CCE1524
:1049F000DF05B9F007FF13C0FE0184910E94E010AB
:104A0000182F80E00E94E010812321968111EFCFC2
:104A1000DF91CF911F910F91FF90EF9008958881C2
:104A2000EDCF81E0F5CF109294051092930588EEBA
:104A300093E0A0E0B0E08093950590939605A09355
:104A40009705B09398058DE191E09093920580933E
:104A500091058FEF9FEF90939E0580939D058EEFBC
:104A60009FE09093F0058093EF0580E090E89093AD
:104A7000EE058093ED0546983E9A47983F9A88E563
:104A800092E090936B0680936A0687E180936C06B0
:104A900010926D0681E080936E0693E090936F060E
:104AA00010927006109271061092720624E0209304
:104AB0007306809374069093750610927606109292
:104AC0007706109278061092790680937A06EAE6C5
:104AD000F6E0238B848B158A968B178A808F118E34
:104AE000399636E0E03AF307A1F78FE28093540657
:104AF00087E0809355069AE4909356068093570674
:104B00002AE02093580687E18093590637E23093D4
:104B10005A0680935B0692E590935C0680935D064F
:104B20009EE690935E0680935F068CE3809360061A
:104B3000309361062093620687E38093630629E23F
:104B4000209364068093650620E520936606809393
:104B5000670690936806809369060E948517E1EFC7
:104B6000F5E022E093E086E02083918384838583CF
:104B7000128613863C9636E0E135F307A9F70895CF
:104B8000789484B5826084BD84B5816084BD85B528
:104B9000826085BD85B5816085BD80916E00816034
:104BA00080936E00109281008091810082608093DA
:104BB00081008091810081608093810080918000DC
:104BC0008160809380008091910082608093910049
:104BD000809191008160809391008091900081602C
:104BE000809390008091C10084608093C100809187
:104BF000C10082608093C1008091C1008160809378
:104C0000C1008091C30081608093C3008091C00087
:104C100082608093C0008091C20081608093C20056
:104C200080917A00846080937A0080917A0082601B
:104C300080937A0080917A00816080937A008091DD
:104C40007A00806880937A0010929001109280011F
:104C5000109282018091D70081608093D70080EA12
:104C60008093D80089B5806189BD89B5826089BD8E
:104C700009B400FEFDCF61E070E080E090E00E94AA
:104C800097118091D8008F7C80618093D8008091AB
:104C9000E000807F8093E0008091E1008E7E809331
:104CA000E1008DE08093E200559A209A81EC809398
:104CB0007C0085B1806F85B984B1877E84B984B169
:104CC000876E84B95E9A5F988AB1806D8AB9769A48
:104CD0006E9881B3806F81BB899880B38D7080BBE3
:104CE00080E58CBD81E08DBD85E090E00E947B1564
:104CF0005F9A85E090E00E947B155E985C98E8E6FC
:104D0000FEE185E79EE124912EBD00000DB407FE73
:104D1000FDCF31968E179F07B1F75C9A81E880939B
:104D200064008091650081608093650080E00E944E
:104D3000011080E80E949E158823A9F05C9885EAFE
:104D40008EBD00000DB407FEFDCF5C9A2E982F9803
:104D50002D988091640080628093640081E083BF1D
:104D6000889513BEFCCF84E00E949E15882309F429
:104D700048C02D9884E80E949E158823E1F00E9487
:104D8000791588EC90E00E947B152F9882E090E0E6
:104D90000E9432298F3F29F06FEF82E090E00E945D
:104DA0003A2984EF91E00E947B152F9A84E80E94B3
:104DB0009E158111FBCF84E10E949E158823E1F0AE
:104DC0000E94791588EC90E00E947B152E9882E075
:104DD00090E00E943229882329F060E082E090E090
:104DE0000E943A2984EF91E00E947B152E9A84E17B
:104DF0000E949E158111FBCF88EC90E00E947B15EC
:104E0000B2CF0E94791582E090E00E943229882377
:104E100009F47AC00E948D1581E090E00E94322949
:104E20008470B82E81E090E00E94322981FF12C088
:104E3000B1102E98C1EFDFEF08E010E078E5A72E63
:104E400080E40E949E15882309F461C02E9A2F9A4F
:104E50000E94791582E390E00E947B150E948015E4
:104E60008111F8CF80E180930101809164008E7FF1
:104E70008093640080917A00806480937A008091AE
:104E80007A0086FDFCCFC0917800D09179000E9415
:104E90007211AB01BC01CE01B0E0A0E0DC019927AA
:104EA00088278C019D01040F151F261F371FC9017C
:104EB000B8012091640021602093640061157105A0
:104EC0008105910511F00E94F428EE24E39401E994
:104ED00011E0C0E0D0E0DD24D3948FB7F894409186
:104EE00073015091740160917501709176018FBFCB
:104EF000F0906D01FF2009F49CC010926D01209785
:104F000061F30E940000E9CF0E94881585CFBB2085
:104F100029F0C430D10511F42E9A2F9881E00E9417
:104F200001109E01D7FF04C0222733272C1B3D0B05
:104F300027703327CE01D7FD079663E095958795B7
:104F40006A95E1F7D7FF05C00197A801421B530BF3
:104F50009A01BC017695762F6627779567956F56EF
:104F60007E4FF12CE12C3801621A730A8E3F5FEFFD
:104F7000950709F43DC0AE9CD001AF9CB00D112443
:104F800050E040E0AB58B14E4B01E0E88E0E911C72
:104F90008F3F980791F0FD01E40FF51FE4916B013D
:104FA000C40ED51EF0E02F01022E01C0440C0A945D
:104FB000EAF7F60154884528448A2115310599F00D
:104FC000FD01E40FF51FE4916401C40ED51EF0E06D
:104FD0002F01062C02C0559447940A94E2F7F6017B
:104FE00054884528448A4F5F5F4F4835510581F604
:104FF000019660587F4FEA94EF28B9F480E00E9450
:1050000001108FE090E00E947B152196C931D105F7
:1050100009F016CFBB2011F02F9A2D9880E991E06E
:105020000E947B150E94791515CFEE24E394F12C94
:105030009DCF80916E01242F281B822F909101011A
:10504000291740F48F5F891708F059CFE3BE889580
:1050500013BE55CFD0926D0140936E0180916B01CC
:1050600090916C01019690936C0180936B018091FB
:10507000700180936F010E948015809370018F2DC5
:10508000F80181118FEF00248193819381938193A3
:105090000394D1F7E0917101F0E0EE0FFF1FEB5D9B
:1050A000F04E85919491FC01099580E00E940110D9
:1050B00026CF8F929F92AF92BF92CF92DF92EF92C4
:1050C000FF92CF93DF93EC01688179818A819B8184
:1050D000611571058105910521F464E279ED8BE597
:1050E00097E02DE133EF41E050E00E94482949016B
:1050F0005A019B01AC01A7EAB1E40E9467296B0148
:105100007C01ACEEB4EFA50194010E947529C60E96
:10511000D71EE81EF91EF7FE06C081E0C81AD108A6
:10512000E10880E8F80AC882D982EA82FB82C701D6
:10513000B6019F77DF91CF91FF90EF90DF90CF90F6
:10514000BF90AF909F908F9008958F929F92AF9253
:10515000BF92CF92DF92EF92FF9260910E01709119
:105160000F01809110019091110161157105810568
:10517000910521F464E279ED8BE597E02DE133EFC1
:1051800041E050E00E94482949015A019B01AC01CD
:10519000A7EAB1E40E9467296B017C01ACEEB4EF91
:1051A000A50194010E947529C60ED71EE81EF91E9E
:1051B000F7FE06C081E0C81AD108E10880E8F80AC5
:1051C000C0920E01D0920F01E0921001F0921101F5
:1051D000C701B6019F77FF90EF90DF90CF90BF900F
:1051E000AF909F908F90089560930E0170930F0180
:1051F00080931001909311010895BB274A3031F438
:10520000992322F4BDE2909581959F4F0C94092932
:10521000BB27FB015527AA27880F991FAA1FA41790
:1052200010F0A41B83955051B9F7A05DAA3308F084
:10523000A95DA193009779F7B111B1931192CB01B8
:105240000C942229DC01FC01672F71917723E1F78F
:10525000329704C07C916D9370836291AE17BF0743
:10526000C8F30895F999FECF92BD81BDF89A9927A8
:1052700080B50895262FF999FECF1FBA92BD81BD42
:1052800020BD0FB6F894FA9AF99A0FBE01960895C8
:10529000052E97FB1EF400940E945F2957FD07D04E
:1052A0000E947A2907FC03D04EF40C945F29509594
:1052B0004095309521953F4F4F4F5F4F0895909502
:1052C0008095709561957F4F8F4F9F4F08950E94F5
:1052D0009C29A59F900DB49F900DA49F800D911DBA
:1052E00011240895B7FF0C9467290E946729821B37
:1052F000930B0895A1E21A2EAA1BBB1BFD010DC042
:10530000AA1FBB1FEE1FFF1FA217B307E407F50775
:1053100020F0A21BB30BE40BF50B661F771F881F51
:10532000991F1A9469F760957095809590959B01E7
:10533000AC01BD01CF010895A29FB001B39FC00190
:10534000A39F700D811D1124911DB29F700D811DB1
:105350001124911D0895AA1BBB1B51E107C0AA1F70
:10536000BB1FA617B70710F0A61BB70B881F991F06
:105370005A95A9F780959095BC01CD010895EE0F3F
:0E538000FF1F0590F491E02D0994F894FFCFE3
:10538E000310FFFFFFFF00E100000000000001001E
:10539E00000000C18081000000000000005F10CA04
:0C53AE001180107510C6108410A21000B1
:00000001FF
