:100000000C943B0F0C94630F0C94630F0C94630FD0
:100010000C94630F0C94630F0C94630F0C94630F98
:100020000C94630F0C94630F0C9447230C94B62329
:100030000C94630F0C94630F0C94630F0C94630F78
:100040000C94630F0C94630F0C94630F0C94630F68
:100050000C94630F0C94630F0C94630F0C94E825BD
:100060000C94630F0C94630F0C94630F0C94630F48
:100070000C94630F0C94630F0C94630F0C94630F38
:100080000C9432260C94630F0C94630F0C94630F42
:100090000C94630F0C94630F0C94630F0C94630F18
:1000A0000C94630F0C94630F0C94630F0808001CEE
:1000B0001C3E3E7F3A7F327F1C3E001C0000000C3D
:1000C0000C1E1E3F1A3F0C1E000C00000000000614
:1000D000060F060F000600000000000000000838B0
:1000E00000000008F0C0000000C0F03E0FE08000FB
:1000F0000000078FE03C8F0000003F7F0080FF1C66
:1001000000F0FC1E03F9E0000003C7F03C0F0700FD
:100110003EFFC1007FFC800000000008F0C000002E
:100120000000C0F03F0FE0800000078FE03C870137
:10013000003C7F0380FC1F0000F0FC1F03F8E00080
:1001400000C7F03C0F0700003EFFC1007FFC8000AD
:100150000000000008F0C0000000C0F03E0FE0808A
:1001600000078FE03C870100003F7F0080FF1C00FC
:10017000F0FC1E03F9E0000003C7F03C0F0700008D
:1001800000FFFF0000FFFC000000000080F84000BE
:1001900000C0F03E0FE1800000078FE03C870100C7
:1001A0003E7F0180FC1F0000F0FC1F03F8E0000010
:1001B0000003C7F03C0F070000FEFF0100FFFC003A
:1001C00000000000F0C8000000C0F03E0FE000009A
:1001D000008FE03C8F0300003F7F0080FF1C000089
:1001E00000F0FC1F03F8E0000003C7F03C0F07001D
:1001F00000C0FF1F00C0FF3C00000080F04800006E
:10020000C0F03E0FE1800000078FE03C8701000056
:10021000003F7F0080FF1C0000F0FC1F03F8E0009F
:10022000000003C7F03C0F0700C0FE1F01C0FF3CE9
:10023000000000F0C8000000C0F03E0FE0800000A9
:100240000007CFE03C870000003F7F0080FF1C00DC
:100250000000F0FC1F03F8E0000003C7F03C0F07AC
:1002600000FEFF0100FFFC00000000F8C0000000DD
:1002700000C0F03F0FE0800000078FE03C870100E6
:1002800000003F7F0080FF1C0000F0FC1F03F8E02F
:100290000003C7F03C0F070000FEFF0100FFFC0059
:1002A000080800C000E000FC00F000C000E000FC16
:1002B00000F040806080708C40B040A04084788026
:1002C000609040A048B040906080408020C038C01E
:1002D00030C000C000E000FC00F010C000C020F8FA
:1002E00004E03C38000000000080F8FE0FE3FB1B38
:1002F0000B0B8BFBF3F7F6F6F60606ECECECECECEE
:10030000ECECECECECECECECECEEE6F6F6F6F7F301
:10031000FBFBCBCBFBE30FFEF8801E332121339E8A
:1003200000000080F8FF0FE0F8F9F9F9F9F9F9F9A0
:10033000F1F3F3F3F3F0F0FFFFFFFFFFFFFFFFFF29
:10034000FFFFFFFFFFFFFFFFFFFFFFFFFFFFFFFFBD
:100350007F7FFEE00FFFF880060600000000000F20
:100360003FF0C60704040707070707070707070743
:100370000707FFFFFFFFFFFFFFFFFFFFFFFFFFFF7D
:10038000FFFF07070707070787870707268607076F
:10039000C6F03F1F0080800000000000000003073F
:1003A00084C4E4E4E4E4E4E4E4E4C49C000FE7E7A8
:1003B000E7E7E7E7E7E7E7E7C7870F1F0FC7E7E0EC
:1003C000ECE4E4E4E5E5E4C4040404070300C0400D
:1003D000C30311000000000000000000FFFFFFFF4A
:1003E000FF393939FFFFFF0FE0E0EFEF0FFFFF1894
:1003F0003879FFFFF703E0E0EFEF0FFFF9F0F0FCD3
:10040000FDFDFD0DECE0E0E0000001210100000039
:10041000000080C0602060C080000000000C0C0064
:100420007EFE803C3E1C1C1C1C1C0C0C0E0C0C0C80
:100430000C0E1E1C1C1C1C3C3E80FE7E000000009E
:10044000C0E0E0C000000000030300000E1B3166A6
:10045000C680D060311B0E00003828380001471ECE
:100460003820202020301010D0D0101090103020D4
:10047000202020381E0701000006060000010100B0
:100480000000000000000000170800FF7FFF41FF90
:1004900077FF77FF41FF7FFF41FF55FF55FF5DFF6E
:1004A0007FFF41FF5FFF50FF50FF7FFF41FF75FF60
:1004B00015FF113F1F3F003F00FF7FFF41FF75FF0A
:1004C00015FF11FF7FFF41FF5FFF50FF50FF7FFFD0
:1004D00041FF6DFF6DFF41FF7FFF11FF77FF47FF7A
:1004E00071FF1FFF003F00FF77FF5DFF41FF5DFFD2
:1004F0007FFF41FF7BFF36FF6FFF41FF7FFF41FF23
:1005000075FF15FF1DFF7FFF41FF5DFF5DFF41FF91
:100510007FFF00FF00FF7FFF41FF5DFF55FF57FF9B
:100520007FFF41FF5DFF5DFF41FF7FFF41FF3AFF1E
:1005300077FF41FF7FFF41FF75FF15FF1D3F073F1D
:10054000000F4F081F09091F001F090917000101AB
:100550001F0101000A000000000E1911170600001B
:10056000000810101F001F10101F001715151D0088
:1005700001011F010100111F11001F0204081F00CB
:1005800010101010001F1111110007041C07001F8C
:100590000909171E080E191117060000000810108F
:1005A0001F001F11111F0015151F001F090917003B
:1005B000111F114B081F111111001F11111F001FD6
:1005C00011110E001F151511000A000000000E1970
:1005D0001117060000001F11151D001F09091F003B
:1005E0000F10100F001F151511001F0204081F0027
:1005F0001F11111F00121F1000121F10001D1517D0
:1006000064100606FFFFFF0707030000FEFFFF87D9
:1006100083C3FEFC0000E0FC3E0F070FFFFE00005E
:1006200000FFFF3E00000000000000FFFF3E000052
:10063000000000000F7FF8C0E0FE1F070000000070
:100640000000000086FFFF8787870703000006FF82
:10065000FF070000003C7EE7C3871E0C0000E0FFA0
:10066000FF808080FEFF0000FFFF7F000000000091
:10067000FFFF7F031FFFF9E000003F7FF8F0F0F875
:100680007F1F0000FEFFFFE0E0E0E0600000FEFFF3
:10069000FFE0E0E0E06000000000FFFF7F000000FE
:1006A0000000000000000000FFFF7F0101000000CB
:1006B0000000C0FFFFE000003078F8E0E1F77F3E87
:1006C0000000FFFF7F010101FF7F130800FF7FFF94
:1006D00051FF55FF55FF45FF7FFF41FF75FF15FF98
:1006E0001DFF7FFF5DFF49FF63FF49FF5DFF77FF50
:1006F00000FF00FF7FFF41FF5DFF5DFF41FF7FFFC8
:1007000041FF75FF15FF1DFF7FFF41FF75FF15FFBF
:100710001D3F073F000F000000FF7FFF41FF5DFF0F
:100720005DFF41FF7FFF41FF7BFF36FF6FFF41FF12
:100730007FFF00FF000000000000000000002040DC
:10074000000100F0E0800018180000400002E0F016
:10075000D090E00000400C0C80C0E0F0F078783CD5
:100760000000C080072F7E78E0C0081870E0E0F13C
:10077000F1D9F8FC7E3E1E0FE73309C170188EE3F5
:10078000E0F0707FDCF0C1050D4F4F4E4C59F10386
:1007900007670300FC0300FC0700F80F00F01F00D0
:1007A000FF9C9BFB7C0F0350D0F27A1E8EC763F038
:1007B000F89C9EFCF0E0C04F0080DFD0C0CFD8D0C6
:1007C0007F3F1F8340A4A3D3D3D0D0D2D323A3D3BE
:1007D000F189017179F9FCFEFFFFFFFFFFFFFF7F49
:1007E000C0801F201F4FC703FFFFE307C1FE3FC7A5
:1007F000FFFFC1C2FEFCFCFC04FCFCFC3C0CC4265C
:10080000FF7FFFE3C08817285F9F9F8640639C7F20
:100810007F7F0139FB47BE7E78271F3F7EF8F7F4C4
:10082000FFE7DBBDB5DBE7FEFCBCE4E4FCDC88D91C
:10083000F1F2F2B1F8CCC8F9F1F2F2F1F1F2E2E43E
:100840001C1C1E4E6666677373F3C3833E3E3C708A
:10085000800010000060620000081C08000098186A
:10086000311CC6E3F9FCFEFEFF7EBEDEDE5F5FBE2E
:100870007839C2469C3CF8F838D8ECAC2CDC3CFC0F
:10088000E0FFFFFFFFFFFF7FBFB8B7AFACACADB776
:10089000585C5B9A8A0061FFFE6D7BFBFBFD9E83CB
:1008A000C38F7FFFFFFFFFFCFBF4E8D0D0D0D0D098
:1008B000D050A8088760787F3C3B1B9C1F33337E59
:1008C0003F1F8FE4C34FCFCFE7E7E72727C7CB4DC5
:1008D000CE9F9F9880847804FAFDFDFEFDFDFA040A
:1008E0001317E71F07F8FFFFFF7F0300F8E71FC09C
:1008F000FFFFFF3F01807C807FFFFFFFFFFFC0C045
:10090000F4FB7C7F201FBF7FFFFCF8F7F4FBE0DFE8
:10091000BFFFFFF8F0F7F4F4FBFAF9FBFBF707E78A
:10092000E4E4E4E4E2F1F0F1E2E4E4C5C9C9C9C9F0
:10093000C9C8C5C9C98B939393939393919188C563
:100940000000307868300000000000000000000067
:100950000000000000000000000000000000000097
:10096000F87002C7C2000000000000000000000094
:100970000000000000000000000000000000000077
:1009800080C2E0787CFC98000000000000000000BD
:100990000000000000000000000000000000000057
:1009A0007F79362F2D36393F3F6E7EFCDC8CD8F8B0
:1009B000B8F87070707070606070F0F0F0B8E9FFB7
:1009C00008FCC23DFDFDFDFDFAF20C0870C121914D
:1009D000E8F4F4FAFAFAFAFAFAF4F4E8C9A968F4CD
:1009E000BC83E3FCC3FFFFFFFF3F0000C07C8BF331
:1009F000FFFFFFFEC1B9E98B5367AFCF07C3E0FF2D
:100A0000FFFFFFFF0703E3111088C4E20103FC03AB
:100A1000FFFFFFFFE707E72351B07D7DF8FFFFFFF2
:100A2000CB8B9393919089C6E0F0FF9F9CF8F8F1EF
:100A3000E4C5C9C9C8C8C4E3F0D8F1F2E2E4E4E40B
:100A400000000000000000000000000000000000A6
:100A5000000000000000000000000000001038103E
:100A60000000000000000000000000000000000086
:100A700000000000000000000000000000011898C5
:100A80001000C0C0000000000000000000000000D6
:100A90000000000000000000C0E0A0C0001CF7FF44
:100AA000CEB4B4CCF8B8F0E0E0E0C0C0C0C0C0C084
:100AB000808080C0C0C0C0E030D9E9A8D83CFFFF2A
:100AC000F4E8E9E9E9D32353D1E9E9E9E9E9E9D32C
:100AD000A327A7A7448C47A7A7A6A5458E1F3F7F9E
:100AE000FF0307EF0FCFC3C0C38363535757EF070D
:100AF00043E0F0FFC0C0A0DFFFFFC10078870030F7
:100B0000FF78783B3D0C844165797B7B7F3F3E01DC
:100B100080BF3F3F3901C1B9BF3F1F00807F000048
:100B2000E4E4E4A2F2F19899F1F2F2F2F2F2B2F90D
:100B3000F8F8F9C9C9F9F8ECF8F9F9D988DCFEFF39
:100B40000C10E0F030F810F810F8E0FC1CFE22FF6A
:100B50004DFF45FF41FF227F1C3E000101030103C1
:100B600001030007060F090F090F060F000600001A
:100B7000000080D312BF34FEF0FCF8FEFEFFF8FE4A
:100B8000F0FC34FE12BF80D3008000010007030791
:100B90000307010F0C0F010F0307030700070001F4
:100BA0000000E0F0F0F8F8FCFCFE3AFF11BF8ADF2D
:100BB000C4EEA0F410F8A0F040E00307070F0F0FF9
:100BC0000F0F0F0F0F0F0F0F070F03070103000188
:100BD00000002073227704AE008C0003030700039B
:100BE000008C04AE22772073007000060207010318
:100BF0000001000E060F000E0001010302070006AF
:100C00000000F0FC0CFE42FF1A7F1D3F0D1F010F7C
:100C1000018382C7028F0CFEF0FC00030307040F60
:100C2000040E080C080C080D090F050F040F03072C
:100C300000033C7E46FFBAFF7AFFF4FEE8FCF4FEB8
:100C40007AFFBAFF46FF3C7E003C00000000000136
:100C500001030207050F0207010300010000000065
:100C6000000000C040F070FC7CFF7FFFFFFFF7FF3B
:100C7000F3FF71FB30791038001800000000000805
:100C8000080E060F0307010300010000000000002A
:100C90000000F8FF06FF02FF01FF01FF3DFF41FFDB
:100CA00081FF02FF06FFF8FE00F80C0F0B0F020F8A
:100CB000040F040F040F040F040F020F0B0F0C0F8F
:100CC000000C0D08001C083E1C3E083E007E247FE0
:100CD0003E7F207F007F3E7F227F3E7F007F001C83
:100CE000083E1C3E083E007F3A7F2A7F2E7F007F11
:100CF0003E7F227F3E7F007F001C083E1C3E083E58
:100D0000007F227F2A7F3E7F007F3E7F227F3E7FC3
:100D1000007F001C083E1C3E083E001F0E1F087F7F
:100D20003E7F007F3E7F227F3E7F007F001C083E8B
:100D30001C3E083E007F2E7F2A7F3A7F007F3E7F49
:100D4000227F3E7F007F06080C0C121E253F213FAC
:100D5000121E0C0C1818000011A67CFAFCE800000A
:100D6000080C0F183070E09090F808040200424719
:100D70006F6F0000C10100000000000000000001D2
:100D80000101EF86820210804824361F131010F0F4
:100D900030100804040C3E02060F132448800102A0
:100DA000860C1440C098E9000007081C3E61C0C0D2
:100DB00020000800000110123AFE0101038100002A
:100DC00000000000000000010101E24200000202F8
:100DD00021170C041E131030101010080444EE46A6
:100DE0000E091000400042040880000013E00003D8
:100DF00004080C1B2060E0F0300804C25060008042
:100E0000C2FF0000C101000000000000000000015E
:100E100001016220200001412103021D13703010E6
:100E200010100804040486020607081000000400DD
:100E300000122478F1F808080C0E08102040C0C0F9
:100E4000E010080020108082C7C7008081000000E9
:100E5000000000000000000101C23C1808088000EA
:100E6000004221103F1010101010080404061E024A
:100E70000508102040001818000000C0C0E020F055
:100E80001038081C04CEC4EE64FE22F702270207C5
:100E9000020702070207040E040E040E081C103895
:100EA00020F0C0E000C00000007E7EFF81FF0081D6
:100EB0000000008787CF01870001000000000000CC
:100EC0000000000000000000000000000000000022
:100ED000008181FF7EFF007E000000030307040FF6
:100EE000081C103921732377227740E240E040E06C
:100EF00040E040E040E02070207020701038081C76
:100F0000040F0307000300001010F0F8C0F080E0A9
:100F1000C0E161FF77FFFBFFFBFF9AFF28FE08FCA3
:100F200090F8E0F0C0E000E0C0E00F1F030F01C345
:100F300043FF74FF6BFF6AFF5FFF1F7F1B3F153F7F
:100F4000153F0D1F0E1F0B1F010F00E0C0E080C0FA
:100F5000C0E0E0F171FF7BFFFBFFFAFF98FE28FC89
:100F600090F8E0F0C0E000E0C0E0003F1F3F071F46
:100F700001C743FF74FF6BFF5AFF5FFF1F7F1B3FDB
:100F8000153F051F0E1F0F1F010FF0F8C0F080C0A6
:100F9000C0E161F777FFFBFFFBFF9AFF28FE08FC2B
:100FA00090F8E0F0C0E000E0C0E00F1F030F01C3C5
:100FB00043FF74FF6BFF6AFF5FFF1F7F1B3F153FFF
:100FC000153F0D1F0E1F0B1F010FF8FCE0F880E00E
:100FD00060F070FFFBFFFBFF9BFF2AFF08FE98FC01
:100FE000F0F8E0F000E0C0E000C0070F03070107E1
:100FF00004FF6BFF6AFF5FFF5BFF157F153F153F27
:101000000D1F0E1F0B1F010F0003150800000080AD
:1010100080C080C10183002120700020000000807A
:101020000084040E00040000008080C000800018CE
:10103000183C183C0018000000C0C0E0C0E000C12F
:10104000001010380010008080C080C202870002AB
:101050000000004040E00040000C0C1E0C1E000C84
:101060000000006060F060F000600008081C00886C
:1010700080C0C0E040E181C30081000000202070FA
:1010800000200006060F068F0006000000303078B2
:10109000307800300004040E00C4C0E0E0F0A0F09E
:1010A000C0E100C0000000101038001000030387EA
:1010B00083C7008300000018183C183C0018000289
:1010C0000207006260F0F0F8D0F860F00060000005
:1010D0000008081C00080001014341E30041000032
:1010E000000C0C1E0C1E008C000101030031307836
:1010F00078FC68FC3078003000000004040E000426
:10110000000000212071002000000006060F068F5D
:1011100080C6008000010018183C3C7E347E183CDC
:101120000018000000020207000200000010103842
:101130000010000000030307034740E300400000E5
:10114000000C0C1E1E3F1A3F0C9E000C00000001FC
:101150000103000100000008081C00080000000155
:10116000010301232071002000000006060F0F1F5D
:101170000D9F86CF008600000000000100000000E7
:101180000084048E000400000000000100111038EB
:101190000010000000030307070F064F43E700435A
:1011A0000000000000000000008080C282C70082B2
:1011B0000000000000000008081C0008008000017A
:1011C0000103030703272173002100000000000032
:1011D000000000C0C0E1C1E300C100000000000049
:1011E0000004040E008480C000800001010301138C
:1011F000103900100000000000000000006060F0E6
:1012000060F10060000000000080008202070042E0
:1012100040E00040000000010009081C0008000038
:10122000000000800000003030783078003007087F
:101230000C0CD8D878782E3E3B3B6868444450105C
:101240000000000000000080008080C0C0E040E09E
:10125000A0F060F0E0F0E0F0E0F060F0E0F060F0CE
:1012600060F060F0E0F0E0F0C0E0C0E0C0E0C0F0AE
:10127000C0F0D0F8D0F850F8B0F8B0F830F830F846
:10128000B0F8B0F8D8FC58FC2CFEECFEECFE8CFE5E
:101290008CFEECFEECFE2CFE58FCD8FCD8FC58FC76
:1012A000D8FCD8FC58FC58FCD0F8D0F810F850F80E
:1012B000B0F8B0F8B0F8B0F860F040E040E0A0F06E
:1012C000A0F0A0F0A0F0A0F0A0F0A0F0A0F0A0F09E
:1012D00060F060F0C0E080C000800000000000000E
:1012E0000000000E0C1F0B1F173F1B3F163F153F42
:1012F0001D3F0E1F0F1F0F1F071F081F0E1F0B1F65
:101300000B1F0B1F0C1F0F1F0F1F0F1F0F1F0F1F78
:10131000173F173F173F173F2F7F2F7F2E7F2E7FBF
:101320002F7F2F7F2F7F163F0B1F0B1F0B1F0B1FB6
:101330000B1F0B1F0B1F0B1F173F173F173F173FAD
:10134000173F173F163F163F173F173F173F173FEF
:101350002F7F2C7F2D7F2F7F2E7F2F7F2F7F2F7F23
:101360002F7F2F7F2F7F2F7F173F173F173F173F6D
:10137000173F1B3F0A1F091F0F1F0E1F001E0000F3
:101380000000000000000080008080C0C0E040E05D
:10139000A0F060F0E0F0E0F0E0F060F0E0F060F08D
:1013A000A0F0A0F060F0E0F0C0E0C0E0C0E0C0F06D
:1013B000C0F0D0F8D0F850F8B0F8B0F830F830F805
:1013C000B0F8B0F8B0F8B0F858FCD8FCD8FC18FC6D
:1013D00018FCD8FCD8FC58FC2CFEECFEECFEACFE55
:1013E000ECFEECFE2CFE6CFED8FCD8FC18FC58FC85
:1013F000D8FC50F8D0F8D0F8A0F0A0F0A0F0A0F001
:1014000060F060F040E040E0A0F0A0F0A0F0A0F0BC
:1014100060F040E040E0C0E0C0E080C0008000003C
:101420000000000E0C1F0B1F173F1B3F163F153F00
:101430001D3F0E1F0F1F0F1F071F081F0E1F0B1F23
:101440000B1F0D1F0E1F0F1F0F1F0F1F0F1F0F1F33
:10145000173F173F173F173F2F7F2F7F2E7F2E7F7E
:101460002F7F2F7F2F7F2C7F163F173F173F173F70
:10147000173F173F173F163F0B1F0B1F0B1F0B1F6D
:101480000B1F0B1F0B1F0B1F173F173F173F173F5C
:10149000173F163F163F173F2E7F2F7F2F7F2F7F3F
:1014A000173F173F173F173F0B1F0B1F0B1F0B1F3C
:1014B0000D1F050F050F060F0307030701030003A8
:1014C0000000000000000080008080C0C0E040E01C
:1014D000A0F060F0E0F0E0F0E0F060F0E0F060F04C
:1014E00060F060F0E0F0E0F0C0E0C0E0C0E0C0F02C
:1014F000C0F0D0F8D0F850F8B0F8B0F830F830F8C4
:10150000B0F8B0F8B0F8B0F8B0F8B0F8B0F830F81B
:1015100030F8B0F8B0F8B0F858FCD8FCD8FC58FC5B
:10152000D8FCD8FC58FC58FCECFEECFE8CFEACFE63
:10153000ECFE2CFE6CFEECFE58FCD8FCD0F8D0F88B
:10154000D0F8D0F8D0F8D0F8D0F8B0F8A0F0A0F0EB
:1015500060F060F0C0E0C0E080C080C0008000802B
:101560000000000E0C1F0B1F173F1B3F163F153FBF
:101570001D3F0E1F0F1F0F1F071F081F0E1F0B1FE2
:101580000B1F0B1F0C1F0F1F0F1F0F1F0F1F0F1FF6
:10159000173F173F173F173F2F7F2F7F2E7F2E7F3D
:1015A0002F7F2F7F2F7F2C7F2C7F2F7F2F7F2E7FD2
:1015B0002E7F2F7F2F7F2C7F163F173F173F173F20
:1015C000173F173F163F163F0B1F0B1F0B1F0B1F1D
:1015D0000B1F0B1F0B1F0B1F0B1F0B1F0B1F0B1FBB
:1015E000173F173F173F173F173F173F173F173F4B
:1015F0000B1F0B1F0A1F0C1F070F070F030700030A
:101600000000000000000080008080C0C0E040E0DA
:10161000A0F060F0E0F0E0F0E0F060F0E0F0E0F08A
:10162000E0F0E0F0E0F0E0F0C0E0C0E0C0E0C0F0EA
:10163000C0F0D0F8D0F850F8B0F8B0F830F830F882
:10164000B0F8B0F8B0F8B0F858FCD8FCD8FC18FCEA
:1016500018FCD8FCD8FC58FC58FCD8FCD8FC58FC2A
:10166000D8FCD8FC58FC58FCD8FCD8FC18FC58FC1A
:10167000D8FC58FCD8FCD8FC58FCD8FCD0F8D0F8E2
:10168000D0F8D0F8D0F8D0F8A0F0A0F0A0F060F03A
:10169000C0E080C080C000800000000000000000AA
:1016A0000000000E0C1F0B1F173F1B3F163F153F7E
:1016B0001D3F0E1F0F1F0F1F071F081F0E1F0A1FA2
:1016C000061F061F091F0F1F0F1F0F1F0F1F0F1FC2
:1016D000173F173F173F173F2F7F2F7F2E7F2E7FFC
:1016E0002F7F2F7F2F7F2E7F163F173F173F173FEC
:1016F000173F173F173F163F163F173F173F173F3C
:10170000173F173F163F163F173F173F173F173F2B
:10171000173F163F163F173F0B1F0B1F0B1F0B1FCB
:101720000B1F0B1F0B1F0B1F173F173F173F173FB9
:10173000163F163F153F1B3F0E1F0C1E001C0000DE
:101740001018000000E0E0F818FC04FE9AFFCDFF3E
:10175000E1FFE1F3C1E382C7049E18FCE0F800E07A
:10176000000000000003030704FFF4FF07FFF7FF7A
:1017700003FF03FFF7FF07FFF4FF04FF0307000366
:101780000000000000000000001F1F3F00FFFFFFDF
:1017900000FF00FFFFFF00FF1F3F001F00000000D1
:1017A0000000008080E060F010F828FCB8FC94FE97
:1017B00084DE84CE84CE88DC089C10F860F080E063
:1017C00000800007070F081F08FFEFFF0FFFE7FF6C
:1017D00007FF07FFE7FF0FFFEFFF08FF081F070FD7
:1017E0000007000C081C081C040F03F770FF0F7F94
:1017F000000F000F0F7F70FF03F7040F081C081C79
:10180000000C008080C040E0A0F060F050F810783C
:1018100010381038103810382070207040E080C028
:1018200000800F1F103F103F18FFDCFF0EFFCEFFA0
:101830000EFF0EFFCEFF0EFFDCFF18FE103F103F25
:101840000F1F040E040E046E2277113B081F070FB2
:1018500000070007070F081F113B2277046E040ED4
:10186000040E008080E060F010F828FCB8FC94FEC4
:1018700084DE84CE84CE88DC089C10F860F080E0A2
:1018800000800007070F081F08FFEFFF0FFFE7FFAB
:1018900007FF07FFE7FF0FFFEFFF08FF081F070F16
:1018A0000007001C0C1E020F01632071103F0F1F68
:1018B000000F000F0F1F103F20710163020F0C1E5D
:1018C000001C1010008080E0A0F070F8D8FC8CFEA6
:1018D000A4FFCDFFFDFFABFF29FF48FD70F870FCB2
:1018E000FCFE00FE000000010103030702070307DE
:1018F00002070307010702070307030700030000AD
:101900000001000180E0A0F070F8D8FC8CFEA4FF7C
:10191000CDFFFDFFADFFABFFD9FF70F960F0F0F830
:10192000F8FC00FC0001010303070207030702079C
:1019300003070307050F060F060F000E0000000146
:101940000103000380F070F8D8FC8CFEA4FFCDFFEB
:10195000FDFFADFFABFF99FFF0F960F0E0F0F0F8AC
:1019600000F8000000010103020703070207030754
:101970000307050F0E0F0D0F000F00010107070FE2
:10198000000F000080E0A0F070F8D8FC8CFEA4FFEF
:10199000CDFFFDFFADFFABFFD9FF70F960F0F0F8B0
:1019A000F8FC00FC0001010303070207030702071C
:1019B00003070307050F060F060F000E00000001C6
:1019C0000103000393F36EFEF4FC8AFE42FE61FF06
:1019D00072FF8BFFFBFFB7FF2AFFD5F7BAFAACEC1B
:1019E000D2F210F00000E1E192F3ADFFB3FF5F7FB0
:1019F0002F3FEFFF557FB6FFB3FF8DFFFBFF373F54
:101A0000415F9E9F00383A7E78FCFCFE9CFE4CFEB7
:101A10006AFF9AFFFBFFB7FF63F7D0F3B8F884C4FF
:101A200080C001C10000000000C040E161FF3F7FB5
:101A30000F3F0F3F357F75FF0AFF191F273F4F7F6D
:101A4000010F0001008684CEC4EEA4FE74FEBCFE2D
:101A5000DCFFFCFF5AFF56FF30FFE0F060F0E0F0E3
:101A6000F0F800F80000000101030207030F0A0F5D
:101A7000090F0B0F0B0F0D0F010F000100000001EC
:101A80000107000708081C3E227F41FF4DFF49FF68
:101A9000227F1C3E001C60FCBCFE92FF65FFA1FF84
:101AA00052FF0C5E000C1C3E227F4DFF45FF41FFA4
:101AB000227F1C3E001C0E1F1F3F3F7F7EFF3F7F8B
:101AC0001F3F0E1F000E0C9F8FFFEFFF7FFF3B7F1E
:101AD000193F081D0008387C7CFE6EFF75FF3A7FB9
:101AE000143E081C00083010FEFFFF8783C3FEFC75
:101AF000000000F0FE1F03FFFF800000FEFF00005B
:101B000000FEFFFF0000003C7EE7C3871E0C0000C4
:101B100086FFFF8787870703FFFF7F03030301001B
:101B20000000FFFF070703FFFFFF00003F7FF0E01B
:101B3000E0FF7F1F00003078F8E0E1F77F3E000013
:101B4000FFFFFFE1E1E0E0600810E0FC3E0F070F5F
:101B5000FFFE3F7FF8F0F0F87F1F00001CFEFFFF44
:101B600000000000E0FFFF7F6000001C1E0783C72D
:101B7000FF7EF0FCEEE7E3617070000E0F87C3E7B5
:101B8000BF1E70F8F8F0E0F17F3FC0F0FC8F83FFDC
:101B9000FEC003030303FFFF7F0000FEFEC7C7C7AD
:101BA000C78378F8F0E0E0F17F3FE0F8BCCEC7C330
:101BB00080003F7FF1E0E0F17F3F0E0F0F07C7F39A
:101BC0007F0F0000F0FE1F030000007CFEE7C3E76C
:101BD0007F3E3E7FF3E1E1F37F3EFCFE8F07078F00
:101BE000FEFC0001C3E3733D1F070808007C7CFE78
:101BF000FEFFC7FFE3FF7FFF3E7F003E00000006C1
:101C000006CFC6FFFFFFFFFF07FF000700C0C0E6CB
:101C1000E6FFF7FFFBFFDFFF0EDF000E00000042D4
:101C200042E7E7FFDBFFFFFF7EFF007E006060F81A
:101C300078FE7EFFE7FFFFFF67FF006700000050B0
:101C400050FFDFFFDFFFFBFF73FF0073007070F8D2
:101C5000F8FECEFFCFFF7FFF79FF0079008080C3C1
:101C6000C3F7F3FF7FFF1F7F071F0007007070FFA0
:101C7000FEFFDFFFCBFFFFFF7EFF007E0000009E28
:101C80009EFFDFFFF3FF3FFF1E3F001E5410E0FCEE
:101C90003E0F073F3F1E000000F0FE1F03FFFF80C6
:101CA0000000FFFFF0C0C0F8FFFF000086FFFF87C5
:101CB000878707030000000000000000E0FC3E0FE3
:101CC000070FFFFE00001FFFFF0080FEFF1F000048
:101CD00086FFFF87878707030000FEFFFF8783C318
:101CE000FEFC3F7FF0E0E6E77FFF0000FFFF070715
:101CF00003FFFFFF0000FFFF010F0F01FFFF0000C8
:101D0000FFFFFFE1E1E0E0600000000000000000F4
:101D10003F7FF8F0F0F87F1F00000007FFFC7F0F07
:101D200000000000FFFFFFE1E1E0E0600000FFFFD6
:101D30007F031FFFF9E0D5F08D14A1C881CFD9F141
:101D4000AF2000F0F89C8E8783878E9CF8F000000F
:101D5000FEFF0303030303070EFCF80000FEFF036E
:101D600003030303070EFCF80000FFFF0000000060
:101D7000000000FFFF0000FEFF8383838383C7EE24
:101D80007C380000F8FC0E07030303070EFCF80084
:101D9000003F7FE0C08080C0E07F3FFFFF01010186
:101DA00001010101FFFF0000FFFF0C0C0C0C1C3EA9
:101DB00077E3C100007FFFC0C0C0C0C0E0703F1F1C
:101DC00000001F3F70E0C0C0C0E0703F1F00007FF8
:101DD000FFC1C1C1C1C1E3773E1C00001F3F70E0DD
:101DE000C0C0C0E0703F1F000000000001FFFF0105
:101DF0000000000F171D1514151015AC1765160DF2
:101E0000199B199517B422080B0002020200000961
:101E10000400000102020000052400100105240155
:101E200001010424020605240600010705810310B0
:101E3000004009040100020A0000000705020240F8
:101E4000000007058302400000040309041201009A
:101E500002EF0201404123368000010102030141EB
:101E6000726475696E6F204C4C43004172647562F8
:101E70006F790000C62611241FBECFEFDAE0DEBF67
:101E8000CDBF11E0A0E0B1E0ECE6F6E502C00590C0
:101E90000D92A035B107D9F727E0A0E5B1E001C068
:101EA0001D92A63FB207E1F71FE0CBE3DFE004C0DD
:101EB0002197FE010E942E2BCA33D107C9F70E9439
:101EC000EB260C94342B0C94000080916003089551
:101ED000E6E9F3E0A0E0B8E000800EBC8111012C3F
:101EE0001197A0FDFDCF0192B9F70DB40895FC0143
:101EF00080919503882311F13FB7F89482E0809395
:101F0000E9002091F200822F90E01816190614F4CF
:101F100081E090E0882339F0289844E640939403C8
:101F20004091F1004083222339F02091F2002111E9
:101F300003C02BE62093E8003FBF08958FEF9FEF8B
:101F400008952FB7F89483E08093E9009091E8001A
:101F5000892F807295FF04C09091F20080E4891B64
:101F60002FBF089580918C0381110DC082E0809372
:101F7000880384E08093890310928B0310928A0374
:101F800081E080938C0388E893E00895CF93DF93FA
:101F90001F92CDB7DEB76983DC01ED91FC91028021
:101FA000F381E02D41E050E0BE016F5F7F4F099566
:101FB0000F90DF91CF91089583E08093E9008091A5
:101FC000F200882319F08AE38093E80008950E94C4
:101FD000A10F90E00895CF93DF931F92CDB7DEB7A6
:101FE000FC018485958597FD08C02FEF3FEF35876D
:101FF00024870F90DF91CF910895CE0101960E9422
:10200000770F019719F4898190E0F3CF8FEF9FEF5D
:10201000F0CF0F931F93CF93DF931F92CDB7DEB70F
:102020008C01FC018485958597FF0BC0CE0101963C
:102030000E94770F019771F4898190E0F8019587EC
:102040008487F801848595850F90DF91CF911F914A
:102050000F9108958FEF9FEFF1CFFC018485958557
:1020600097FD0BC09FB7F89482E08093E9008091C0
:10207000F2009FBF90E0019608959FB7F89482E028
:102080008093E9008091F2009FBF90E00895409115
:102090008203509183032091800330918103421782
:1020A0005307B4F49091E8009570E1F39091E80043
:1020B00092FD19C08093F100809182039091830377
:1020C00001968F739927892B19F48EEF8093E8007E
:1020D0008091820390918303019690938303809370
:1020E000820381E0089580E00895DF92EF92FF92ED
:1020F0000F931F93CF93DF93D82E8A01EB017B01BF
:10210000E40EF51ECE15DF0559F0D7FE12C0FE0114
:1021100084910E94471021968111F4CF0FEF1FEF99
:10212000C801DF91CF911F910F91FF90EF90DF9049
:1021300008958881EECF0F931F93CF93DF931F9263
:10214000CDB7DEB782E0898342E450E067E07EE10C
:1021500080E80E9475100E94B20FDC0112960D916A
:102160001C910115110589F0D801ED91FC910280B7
:10217000F381E02DBE016F5F7F4FC801099597FD88
:1021800004C0F80100851185ECCF89810F90DF91A3
:10219000CF911F910F910895615030F02091F1007F
:1021A000FC0120830196F8CF289884E6809394035D
:1021B00008953FB7F89480917C0390917D03A0919E
:1021C0007E03B0917F0326B5A89B05C02F3F19F071
:1021D0000196A11DB11D3FBFBA2FA92F982F8827A7
:1021E000BC01CD01620F711D811D911D42E0660F82
:1021F000771F881F991F4A95D1F708958F929F9254
:10220000AF92BF92CF92DF92EF92FF926B017C016F
:102210000E94D9104B015C01C114D104E104F10406
:10222000B9F00E94D910681979098A099B09683E9A
:1022300073408105910580F321E0C21AD108E108BD
:10224000F10888EE880E83E0981EA11CB11CE4CF33
:10225000FF90EF90DF90CF90BF90AF909F908F90C6
:1022600008958F929F92AF92BF92CF92DF92EF929A
:10227000FF920F931F93CF93DF936C017B018A0131
:1022800080912A01882309F45CC0809195038823FA
:1022900009F457C08091870380FF05C08091E0005A
:1022A00082608093E000E801B12C8AEFA82E93E0D1
:1022B000892E2AE3922E209711F4BB20D9F10E9497
:1022C000A10F81110AC0AA94AA20D9F161E070E09F
:1022D00080E090E00E94FE10EECF8C171D0611F0FA
:1022E0000CF08C2F9FB7F8948092E9002091E800C1
:1022F00025FD02C09FBFDFCF282F30E0C21BD30BCC
:10230000F701815020F041914093F100FACFE20EA5
:10231000F31EBB2021F09092E800B12CEBCF80910E
:10232000E80085FDE7CF9092E800BB24B3942097A6
:1023300009F3F3CF5D9884E68093860310161106A7
:102340003CF081E090E0F6019383828310E000E0AE
:10235000C801DF91CF911F910F91FF90EF90DF9017
:10236000CF90BF90AF909F908F9008952091680379
:10237000E0916603F0916703CF01029690936703A3
:1023800080936603222319F08591949108958081AA
:1023900091810895CF92DF92EF92FF92CF93DF93D6
:1023A0000E94B611811520E8920791F48091710086
:1023B0008D7F8093710010929100469847981092FB
:1023C0006503DF91CF91FF90EF90DF90CF9008955C
:1023D00021E020936503813020E8920751F4809139
:1023E00063039091640390936703809366030E9454
:1023F000B61197FD05C020916203222309F454C051
:1024000020916103211150C021E020936903EC0168
:10241000DF77209709F04BC081E080936A034698EC
:102420003FE9C32E3FE0D32EE12CF12CCAEFD0E0E0
:10243000E091F407F091F5070995811103C081E05F
:1024400080936A0380916903882329F080916A034D
:10245000882309F43FC047980E94B6110097F1F114
:102460009C01DE010E94EB2ADC01CB0129E0B5953D
:10247000A795979587952A95D1F7109290002AE015
:1024800020939100D0929900C092980080936B03A2
:1024900090936C03A0936D03B0936E0380917100D1
:1024A0008260809371008DCF10926903B0CF9E013E
:1024B00050E040E060E472E48FE090E00E94972AF0
:1024C00069017A0181E0C81AD108E108F108109287
:1024D0006A03AECF4699BFCF479ABECF8FEF9FEF2B
:1024E000DC01CBCF9C01E1E7F0E090819D7F908300
:1024F00010926803E6EEF7E0F0936703E09366035B
:10250000F0936403E09363033183208373836283D6
:1025100080E090E8958384830C94CA114F925F9277
:102520006F927F928F929F92AF92BF92CF92DF92E3
:10253000EF92FF920F931F93CF93DF934C015901BA
:10254000FC2DC02FD0E0CE01880D991D181619065C
:102550000CF06CC020E8821691040CF067C09B015F
:102560002E0D311D121613060CF060C0603471057B
:102570000CF05CC04115510509F458C0E62FE77016
:10258000FE2EDB0177FD179633E0B595A7953A95BA
:10259000E1F73A2F77FF04C0FF2011F03FEF3A0F29
:1025A000662777276819790997FC02C070E060E018
:1025B000803891050CF44BC090E89819961BA32F16
:1025C000032E000CBB0B1A2F10953F3F0CF010E0B0
:1025D00021E08E2D877009F420E0E694E694E694DD
:1025E000E20EAE0DB11D19971CF028E0E22EE31AA1
:1025F000E11A310F20E83203D0011124A80DB91DD2
:10260000A60FB71F019F600D711D1124460F571FA4
:102610000F2D0F2C000C110BF33009F41CC1C8F462
:10262000F13009F4D0C0F23009F47CC0DF91CF91D1
:102630001F910F91FF90EF90DF90CF90BF90AF90E0
:102640009F908F907F906F905F904F900895902F04
:10265000B5CFFA3FB1F1232F2E0DFB3F39F73217DB
:1026600029F3BD016A567C4FD12CC12CC91608F044
:10267000A4C0FA01EC0DFD1DE491F0E04F01002E25
:1026800002C0880C991C0A94E2F737FD06C0FB01D2
:102690008081E82CE0948E218083FF2061F0373028
:1026A00054F45B01F0E8AF0EB11CE92CE094F501A5
:1026B00080818E218083FFEFCF1ADF0A6F5F7F4F0B
:1026C000D5CF232F2E0D321709F4B0CFBD016A5696
:1026D0007C4FD12CC12CC91608F069C0FA01EC0D51
:1026E000FD1DE491F0E04F01002E02C0880C991C02
:1026F0000A94E2F737FD04C0FB01808188298083BA
:10270000FF2051F0373044F45B01F0E8AF0EB11C0C
:10271000F501808189298083FFEFCF1ADF0A6F5F7F
:102720007F4FD9CF6FEF70E00F2C02C0660F771F7D
:102730000A94E2F760957095772E232F2E0D3217AD
:1027400009F474CFFD01EA56FC4F6F01B12CA12CA6
:10275000A91638F5FA01EA0DFB1DE491F0E02F010E
:10276000002E02C0440C551C0A94E2F737FD05C048
:10277000F6018081862384298083FF2059F0373039
:102780004CF44601F0E88F0E911CF4018081872102
:1027900085298083FFEFAF1ABF0A8FEFC81AD80AC6
:1027A000D7CF3F5F4C0F5D1FA058BF4FC8CF3F5FD3
:1027B0004C0F5D1FA058BF4F86CF3F5F4C0F5D1F72
:1027C000A058BF4F4CCF6A0D7B1D232F2E0D321703
:1027D00009F42CCFFD01EA56FC4F6F01B12CA12C5E
:1027E000A91688F5FB01EA0DFB1D8490912C002EA3
:1027F00002C0880C991C0A94E2F780949094FA0124
:10280000EA0DFB1D6490712C002E02C0660C771C33
:102810000A94E2F737FD05C0F601808188218629F8
:102820008083FF2049F037303CF4F601E058FF4F39
:102830008081892187298083FFEFAF1ABF0A8FEF3C
:10284000C81AD80ACDCF3F5F4C0F5D1F6C0F7D1F9C
:10285000A058BF4FBCCFC92ED12CFA01E60FF71FED
:10286000AA56BC4F00E810E00C191D09CC19DD096F
:10287000BE01660F771F41E050E06A010F2C01C0D6
:10288000CC0C0A94EAF7592F2E2D792ECF93DF9393
:10289000ED01EF96EF9622968590A590FF2059F0D6
:1028A0008C9C4001AC9C500137302CF4E880B094F3
:1028B000EB20E928E99233233AF0EC90A094EA2047
:1028C000E828ED920C94651411965A9529F72A95EB
:1028D00051F0572D33951124E60FF11DA00FB11DB6
:1028E000C00FD11DD9CFDF91CF9111249FCECF92B0
:1028F000EF920F93FA0104913196E4904E5F5F4F8F
:102900002223F9F0A1E0B0E03E2D377011F4B0E0E1
:10291000A0E0EE2DE695E695E695EA0FFB2FF11D7A
:102920000E9FD0010F9FB00D112430E0220F331FF6
:10293000A29FF001A39FF00DB29FF00D11244E0F46
:102940005F1F23E0C22E30E020E00E948E120F9124
:10295000EF90CF900895CF92EF920F93CF93DF93A4
:10296000DC01FA0104913196E4904E5F5F4F22231F
:10297000D1F0C1E0D0E09E2D977011F4D0E0C0E01E
:10298000EE2DE695E695E695EC0FFD2FF11D0E9FD9
:10299000E0010F9FD00D11242C9FC0012D9F900DA1
:1029A0001124480F591F8AEFC82E30E020E0CD01D6
:1029B0000E948E12DF91CF910F91EF90CF900895EA
:1029C0002D9A0895BC0190E080E00C94FE108FB128
:1029D0008095807F669B88601C9B84600895109220
:1029E00060033E983F9808953E9A3F9A81E0809315
:1029F0006003089590917303982329F490917403D0
:102A0000982381E009F480E00895CF93C82F0E94B5
:102A1000E714982F9C2381E09C1380E0CF910895C8
:102A200086E08093750308958CE00E94FA14882351
:102A300019F081E08093750308950F931F93CF934E
:102A400010E000E0C0E02C2F4EE357E070E060E0C3
:102A5000C8010E94AB14CF5F005E1F4FC43099F7CE
:102A600020E048E854E062E070E089E490E00E94F1
:102A7000771421E048E854E062E070E083E690E0FB
:102A80000E94771422E048E854E06EE070E089E4A8
:102A900090E00E94771423E048E854E06EE070E094
:102AA00083E690E00E947714C091530110910201D7
:102AB0002CE0C29FB00111246E5F7F4F2AE1129F6C
:102AC000C0011124209176034AE050E1875B9F4FBB
:102AD0000E94771480E40E94FA14811130C080E2D1
:102AE0000E94FA14882329F080910201811110922A
:102AF000020180E10E94FA14882329F0C11103C069
:102B000081E08093530180E80E94FA14882329F021
:102B1000809153018111109253018CE00E94FA14AC
:102B2000882349F080915301880F909102019E5FA4
:102B3000890F80937503CF911F910F910895111103
:102B4000CECF81E080930201CACFCF92DF92EF9285
:102B5000FF920F931F939AE0499F600111240D2C5F
:102B6000000CEE08FF0800915C0310915D032091BA
:102B70005E0330915F030C0D1D1D2E1D3F1D009344
:102B80005C0310935D0320935E0330935F03E6EADA
:102B9000F1E030E020E09381911118C0220F331F43
:102BA000220F331FF901EA55FE4F91E09383808392
:102BB000618342838091CA018F5F8093CA011F9114
:102BC0000F91FF90EF90DF90CF9008952F5F3F4FD0
:102BD000349629303105F9F6F2CF1F93CF93DF9366
:102BE000809171039091720387709927892B51F41A
:102BF00080910101909151019F5F909351018F5FEE
:102C00008093010180915101883010F010925101A0
:102C100080910101883010F010920101C8E0D0E0ED
:102C200010915101212F40EA52E068E370E0CE019B
:102C30000E94AB142896C837D10591F7212F4EED8D
:102C400050E068E070E090E080E00E94AB14C0913A
:102C500001012C2F4EED50E068E070E085E090E03F
:102C60000E94AB14212F4EED50E068E070E083E746
:102C700090E00E94AB142C2F4EED50E068E070E025
:102C800088E790E0DF91CF911F910C94AB14E2E1C3
:102C9000F2E028E030E09081911110C0F90193E05A
:102CA000EE0FFF1F9A95E1F7E453FE4F8083618397
:102CB0008EEF848381E08683278308952F5F3F4FC3
:102CC00038962332310539F708950F931F93CF9328
:102CD00010E000E0C0E02C2F4EE357E070E060E031
:102CE000C8010E94AB14CF5F005E1F4FC43099F73C
:102CF00020E04AEC56E062E070E088E590E00E9457
:102D0000771421E04AEC56E06EE070E08EE490E04B
:102D10000E94771422E04AEC56E06EE070E086E60E
:102D200090E00E9477148091600326E1829FC001A9
:102D30001124209176034AE050E16EE070E0845B5C
:102D40009F4F0E94771480E40E94FA1481110E9420
:102D5000F41480E20E94FA1481110E94EF148CE0B6
:102D60000E94FA14882381F0C091600382E090E011
:102D70000E94812AC81729F06C2F82E090E00E94FF
:102D8000892A81E080937503CF911F910F91089557
:102D9000CF92DF92EF92FF926B017C01C114D104BC
:102DA000E104F10441F00E94E829A70196010E9484
:102DB000972A6B017C01C701B601FF90EF90DF906D
:102DC000CF900895CF93DF93EC0120E92603B00163
:102DD000112468587F4F072E000C880B990B0E9416
:102DE000C816688360E470E080E090E00E94C81636
:102DF0007A83698363E070E080E090E00E94C81607
:102E00006F5F7F4F8F4F9F4F6B8363E070E080E079
:102E100090E00E94C8166C83DF91CF910895CF9304
:102E2000DF93C0915201CF5FC093520120E042EE88
:102E300052E064E070E082E290E00E94AB14C53B97
:102E400080F010925201C4E5D1E060E0CE010E9412
:102E5000E216259681E0C43AD807B9F781E080935D
:102E60007503DF91CF910895BF92CF92DF92EF92D9
:102E7000FF920F931F93CF93DF93B82E282F36EF37
:102E80003203E00111242F96D12C03E010E085E0FD
:102E9000C82EED2CF12CCE15DF05ECF180917103DD
:102EA00090917203B8010E94062B892B71F4CE9C7D
:102EB000F001CF9CF00D1124EC5AFE4F238181814B
:102EC0009281821B910992838183CE9CF001CF9CD9
:102ED000F00D1124EC5AFE4F81819281883F9F4F63
:102EE00044F4DC9CC00111246B2D8C5A9E4F0E942F
:102EF000E216CE9CF001CF9CF00D1124EC5AFE4F4F
:102F000061817281808124814CEA50E090E00E94CE
:102F10007714D394BECFDF91CF911F910F91FF9083
:102F2000EF90DF90CF90BF90089520E046EE5AE1F9
:102F300064E170E088E290E00E94AB140E94ED151D
:102F400080E00E94341788E00E94FA14882319F068
:102F500087E080937503089520E040E056E068E044
:102F600070E08EE090E00E94AB1420E043EB55E06F
:102F70006EE170E08AE190E00E94AB1420E043E94A
:102F800055E066E270E083E390E00E94AB1420E03D
:102F900042E455E062E370E08EE190E00E94AB1401
:102FA0000E94ED1580E00E9434178CE00E94FA1414
:102FB000882319F081E08093750308958130C1F072
:102FC00030F0823089F1833009F444C00895ECEC8C
:102FD000F1E0AFE2B1E088E721E080839D919C5071
:102FE00091832683805F3896883FB9F788E12FC0A8
:102FF0006BE270E080E090E00E94C816ECECF1E03B
:10300000AFE2B1E098E73BEA675021E090838D9111
:10301000839F812D11248695860F81832683905F5F
:103020003896983F99F7E2CF6CE270E080E090E04C
:103030000E94C816665FECECF1E088E791E08083BF
:1030400061839683805F3896883FC9F788E08093D4
:10305000000108956EE170E080E090E00E94C816E3
:10306000665FECECF1E080E021E0982F9370915FD7
:10307000990F990F990F9083982F96959695990F80
:10308000990F990F960F918326838F5F389688301A
:1030900061F7109200010895FC01808180588083BF
:1030A000809100018823F1F097819830D8F4815005
:1030B00080930001ECECF1E081E09681911180E0D9
:1030C000389692E0EC30F907C1F7882351F08091EF
:1030D00050010E94DE17809150018F5F83708093B2
:1030E000500108951682E6CFCF93DF93813009F027
:1030F0003FC02091EE02022E000C330B9091040190
:103100009217130691F18CF1EFEEF2E030E020E03F
:103110009385911157C09CE0929FE001939FD00D41
:103120001124C151DD4F91E09B878A879CEF9E83DC
:103130001F8290E19C839EE09D8370E07B836A8385
:10314000853001F58DEF8E8364E070E080E090E0E3
:103150000E94C816DC01CB010297A109B1092A819E
:103160003B81820F931F9B838A83DF91CF910895C8
:10317000823051F62091ED02022E000C330B90911B
:103180000301BECF813061F48EEF8F8384E18D83A4
:103190008DEF8E838091EE028F5F8093EE02E5CFFC
:1031A000823019F78EEF8E838CE48C838AE08D83D6
:1031B00080E990E0998388838091ED028F5F80930E
:1031C000ED02D3CF2F5F3F4F3C962930310509F0F8
:1031D0009FCFCBCFCF93DF93EC010E94E8292CE067
:1031E00030E040E050E00E94972A60577F4F79839B
:1031F00068838A85813049F48091EE028150809302
:10320000EE021B86DF91CF9108958230D1F7809135
:10321000ED0281508093ED02F4CFBF92CF92DF9206
:10322000EF92FF920F931F93CF93DF9310925C0363
:1032300010925D0310925E0310925F031092EB02F6
:103240001092EC028CE390E09093100180930F01B8
:103250001092CB01ECECF1E030E828E09AE08EEF40
:103260003083118222839383848315821682389659
:1032700042E0E43EF407A1F780E00E94DE17E6EAB0
:10328000F1E01082118212821382349681E0EA3CCE
:10329000F807B9F710925B031092A5011092E602AD
:1032A0001092E7021092E8021092E90210920D01CA
:1032B000CFEED2E08DEFB82E0EE018E09AE0C92EE6
:1032C000D12CE12CF12CBE82CE010E94EA180C8395
:1032D0001D830E94E829A70196010E94972A68870A
:1032E00062E370E080E090E00E94C816665F7F4F66
:1032F0008F4F9F4F69871B861A862C9643E0CB35EC
:10330000D40709F7C4E5D1E000E911E061E0CE019E
:103310000E94E21625960C171D07C1F787E08093DF
:103320007503DF91CF911F910F91FF90EF90DF9088
:10333000CF90BF9008952F923F924F925F926F92DD
:103340007F928F929F92AF92BF92CF92DF92EF9235
:10335000FF920F931F93CF93DF93CDB7DEB72B97D9
:103360000FB6F894DEBF0FBECDBF80E80E940515F2
:10337000882361F08091190190911A01893091059B
:103380002CF0019790931A018093190180E10E941B
:103390000515882361F08091190190911A018C33F1
:1033A00091052CF4019690931A018093190188E0FD
:1033B0000E94FA14882319F088E08093750384E052
:1033C0000E94FA148111A5C080915B0387FFDEC0C3
:1033D0008091050190910601181619060CF4B0C1F0
:1033E00020915C0330915D0340915E0350915F0337
:1033F000232F342F452F5527211531054105510520
:1034000021F421E030E040E050E064EB70E080E047
:1034100090E00E94C92A20563F4F30930601209326
:1034200005010E94E82922E030E040E050E00E94DF
:10343000972A672B682B692B01F580910D0181116B
:1034400016C01091A50181E080930D018EE9809353
:1034500007016EE270E080E090E00E94C8166C5FA9
:103460007F4F8F4F9F4F6093080110930E01809103
:10347000A5018F5F87708093A50180915C03909177
:103480005D03A0915E03B0915F038D3D35E093072E
:10349000A105B10508F490C020910F0130911001F1
:1034A0002C33310509F07CC026E430E03093100164
:1034B00020930F012EE020931E01893B4BE09407DF
:1034C000A105B10548F020E530E0309310012093CC
:1034D0000F012CE020931E012AE02093040123E039
:1034E00020930301853F9140A105B10508F472C006
:1034F0000E94E82923E030E040E050E00E94972A53
:1035000089E1689F602D11246C5F85E00E9474182A
:1035100061C08091EB02882351F09091E5029111F6
:1035200006C081508093EB0288E08093E502809191
:10353000EC02882309F448CF90911701911144CFF0
:1035400090E190931101909119019093120195E0EF
:10355000909315011092160191E0909317018150FC
:103560008093EC020CEB12E061E070E0C8010E9475
:10357000721261E070E080E090E00E94FE100A505C
:103580001109003921E0120779F71ECF809105015A
:10359000909106010197909306018093050118CF41
:1035A000893B5BE09507A105B10508F495CF26346A
:1035B000310509F091CF87CF813263E09607A105ED
:1035C000B10508F089CF813971E09707A105B105F0
:1035D00008F085CF80915C0390915D03A0915E031C
:1035E000B0915F03893C9105A105B10580F00E946F
:1035F000E82923E030E040E050E00E94972A89E18A
:10360000689F602D11246C5F82E00E947418809185
:103610005C0390915D03A0915E03B0915F03893ECE
:103620009340A105B10520F060E282E00E94741889
:1036300080915C0390915D03A0915E03B0915F0364
:1036400081399140A105B10520F18091A40120911B
:10365000190130911A01203231050CF0FCC0815063
:103660008093A40160E08091A4018F5F833008F013
:10367000F7C00E94E82922E030E040E050E00E94DC
:10368000972A8FE3689F602D11246C5F81E00E9470
:10369000741880915C0390915D03A0915E03B091DA
:1036A0005F03813D9740A105B10580F00E94E829A4
:1036B00023E030E040E050E00E94972A89E1689FD3
:1036C000602D11246C5F85E00E94741880915C036A
:1036D00090915D03A0915E03B0915F03883E93409B
:1036E000A105B10508F0BFC00E94E82923E030E041
:1036F00040E050E00E94972A89E1689F602D1124E4
:103700006C5F80E00E94741880915C0390915D036F
:10371000A0915E03B0915F03C397A105B10580F04E
:103720000E94E82923E030E040E050E00E94972A20
:1037300089E1689F602D11246C5F80E00E947418FD
:10374000809171039091720363E070E00E94062BF8
:10375000892BE9F480915B03E6EEF2E090E02191A1
:10376000222381F02150DF0111972C9321110AC0EF
:10377000923009F487C0933009F488C0913009F47D
:1037800083C08F779F5F943051F780935B03809164
:103790000D01882309F48FC08091070190910B01DE
:1037A000890F80930701833010F410920D0100916E
:1037B000080110E0E82EF12C68E10E94FA2A92310B
:1037C00050F420910E0140E45BE0B80161507109B2
:1037D000C7010E947714E0911901F0911A018091BC
:1037E0001B0120911C0140910A01609109016E0D9D
:1037F0007F2D711D653171050CF45DC090E044961C
:10380000E816F9060CF057C0400F512F511DE41770
:10381000F5070CF050C02E0F3F2F311D0217130774
:103820000CF049C010910E0166E970E084E195E06A
:103830000E947212183008F037C0E12FF0E0ED5D01
:10384000F34E0C942E2B481C4C1E891E921EC61E35
:10385000CF1EDD1EEA1E8F5F8093A40161E003CFBF
:103860001092A4010ECF0E94E82923E030E040E04E
:1038700050E00E94972A89E1689F602D11246C5FB7
:1038800085E040CF8F7B7ECF8F7E7CCF8B7F7ACFC2
:103890008091EB028111F9C189E08093EC02809163
:1038A0005B03816080935B0310920D01809107019F
:1038B000805880930701ACECEA2EA1E0FA2E870134
:1038C000D12CB4E1AB2EB12CD80116968C91882363
:1038D00009F470C080915B0382FD04C0B7E0BD15A0
:1038E00008F04FC08091710380FD4BC0F8018081CA
:1038F0009501281B31091216130614F0843348F57C
:10390000D80111969C9111972091190130911A01BB
:10391000921713061CF49F5F11969C93F8019181F6
:103920009217130619F014F091509183843118F412
:103930008F5FD8018C93F8018081853110F0815020
:103940008083D8018C919501281B3109121613062A
:1039500014F08E33B0F4D80111968C911197209108
:10396000190130911A01821713061CF48F5F11960A
:103970008C93F80181818217130619F014F081509D
:103980008183D8018C9114969C911497890F8C9304
:10399000833028F4C8010E944C181092CB01F80122
:1039A00061816150770B808120E04EE252E190E02E
:1039B0000E947714D394085F1F4FF3E2DF1284CF85
:1039C000C0907103B09072038091CA0181110BC243
:1039D0008091170181113BC28C2D9B2D63E070E01B
:1039E0000E94062B892B09F461C2A0901901B090A6
:1039F0001A0100911B01C0901C01E4EE8E2EE2E042
:103A00009E2E10E00C5E1F4FCA0CDB2CD11CD70180
:103A10002C9130E011968C91119713964C9113973D
:103A200012966C91620F732F711D65317105C4F18F
:103A300020173107ACF590E0480F592F511DA416FF
:103A4000B50674F58C159D055CF568E270E08CE2B6
:103A500091E00E94721280915C0390915D03A091AD
:103A60005E03B0915F030196A11DB11D80935C03BD
:103A700090935D03A0935E03B0935F03C7010E9420
:103A80004C188091CB018F5F8093CB01883040F040
:103A900041E0609119018CE10E94A5151092CB01C3
:103AA000B8E0EB0EF11C8E149F0409F0B0CF8091AA
:103AB00071039091720363E070E00E94062B892BE2
:103AC00079F48091E502882359F069E170E084E897
:103AD00093E00E9472128091E50281508093E5028A
:103AE000E0907103F0907203C70165E070E00E94FE
:103AF000062B892B39F480911D01882319F0815000
:103B000080931D0180E80E940515882309F420C3D5
:103B100062E070E086E090E00E941A2BC7010E94EC
:103B2000062B892B29F48091E4028F5F8093E402B5
:103B30008091E402843010F01092E40280911D0123
:103B4000882311F0837071F06091190170911A014E
:103B5000685071092091E40248E05FE08EE090E057
:103B60000E94771400915B0304FF13C08091E70269
:103B70008D3310F480FD0DC06091190170911A0110
:103B80006C50710920E046E75EE08AE090E00E9418
:103B900077141091E502112371F060911901709171
:103BA0001A016C5071092091E40244E55DE08AE05D
:103BB00090E00E94AB14C70166E070E00E94062B03
:103BC000892B29F48091EA028F5F8093EA02809129
:103BD000EA02843008F407FD1092EA028091E602BE
:103BE000893208F0BCC28770863008F4B8C2609190
:103BF0005C0370915D0380915E0390915F032AE006
:103C0000FE0131967F01AF010E94402AF701019029
:103C10000020E9F73197EE19FF09AE2E06E00E1BE2
:103C200010E0802E002E000C9908B7E0DB2E18154E
:103C300019040CF41EC3E7E00E02800111240A5A95
:103C40001F4FD12C0A2C000CBB0887E0C82E8D2DED
:103C500090E08A159B050CF01CC38E0D9F1DDC01A6
:103C60002C9121330CF413C320532A3008F00FC3D6
:103C70004AEE5BE170E060E0C801DC9C800D911DC4
:103C800011240E947714D394E2CF42E0609119018D
:103C900088E20E94A51508CE0FEE12E0D8011B960F
:103CA0008C911B97882331F12D913C9111972738E6
:103CB000310504F51A968C91813019F59091EE0238
:103CC00091509093EE02F80162816D5F822F0E9405
:103CD0004716D8018C9112966C918A5F0E94471604
:103CE000F80162816A5F80818D5F0E944716C8017A
:103CF0000E94EA18045F1F4FF3E00B351F0771F6AF
:103D0000D3CD823001F79091ED0291509093ED0266
:103D1000DACF80915B03846080935B038FEF8093A5
:103D2000E902C2CD0FEE12E084E0F82ED8011B9616
:103D30008C911B978823E1F08D919C911197873886
:103D40009105B4F412966C911297685F1A962C91B3
:103D5000213021F0223099F041E006C09091EE022E
:103D600091509093EE0242E00E94A515F801F28670
:103D7000045F1F4FF3E00B351F07C1F695CD9091FF
:103D8000ED0291509093ED0244E0EECF80915B0301
:103D9000806180935B038FEF8093E70285CD109164
:103DA0005B0315FF06C045E06091190184E10E94A4
:103DB000A515106210935B0377CD8091EC02811101
:103DC00064CF80915B03806480935B0388E0809381
:103DD000EB026ACD80915B03806880935B0389E985
:103DE0008093E60261CDC0FCF3CD06EA11E0FAEC67
:103DF0008F2EF1E09F2ED80113968C911397882374
:103E000001F11196DC901197DA941196DC921197DA
:103E100012962C91129721506D2D0D2C000C770BC2
:103E20008C9142EC5CE0082E000C990B0E947714F8
:103E3000D7FE07C0F80113828091CA018150809398
:103E4000CA010C5F1F4F80169106A9F6C1CD3091B3
:103E50001501E0911101E30FE0931101409116016A
:103E600060911201242F260F20931201213410F0AB
:103E7000109217018C2D9B2D66E070E00E94062B9E
:103E8000892B41F4131634F431503093150141500D
:103E900040931601422F4150550BBA0120E046E4F1
:103EA0005DE08E2F90E00E94771496CD80915B03A9
:103EB00087FD9BCD0FEE12E08BE5C82E83E0D82E58
:103EC00093E0A92EB12C2AE3822E912C34E1732E9B
:103ED0005524539446E0642E5AE0452E6BE1362E6D
:103EE0007FE0272ED8011B968C911B97882309F41D
:103EF0003EC01A96EC911A97E73050F5F0E0ED5776
:103F0000F04E0C942E2B8A1FED1F432077209A2011
:103F1000C91F5020F8018085181684F596812081EC
:103F20003181290F311D97FD3A95318320838150CE
:103F300080878091E502882359F0D8011A966C9207
:103F40001A9741E012966C9112978C910E94A515D8
:103F5000D80114968C911497F501E81BF1092D9165
:103F60003C912E173F071CF4C8010E94EA18045F19
:103F70001F4FC016D10609F0B5CF37CD19968C91D9
:103F80001997815019F019968C93D3CF718620869A
:103F9000D0CFF80180851816ACF49681208131814C
:103FA000290F311D97FD3A953183208381508087F9
:103FB0008091E502882361F2D8011A966C921A97D3
:103FC00042E0C0CF19968C911997815019F019963B
:103FD0008C93EECF41863086EBCFF801908520811F
:103FE000318187814281538119160CF5BA01680F1E
:103FF000711D87FD7A95CB01738362834681240FFF
:10400000311D47FD3A95318320838D3F9F4F0CF43E
:104010005086D80118968C911897815018161CF468
:1040200018968C9395CFF8011086718691CF215008
:10403000310911963C932E9319969C9119979150A2
:1040400019969C9387FD8F5F8595481B510987FDC5
:104050005395F8015383428325812695B401621B51
:104060007109641775070CF41186D80119968C91A3
:10407000199718160CF46CCFE9E01896EC93189782
:1040800019961C9265CF16962C9116978D919C913E
:104090001197820F911D27FD9A958D939C9358CF70
:1040A000F8012281338121503109338322838581B4
:1040B00090E0919581959109281739070CF048CF28
:1040C000C8010E94EA1880915C0390915D03A09161
:1040D0005E03B0915F030196A11DB11D80935C0347
:1040E00090935D03A0935E03B0935F0331CF809103
:1040F0005B0382FF19C012968D919C9113972091BA
:10410000190130911A01821793072CF40196139626
:104110009C938E931297F801828193812817390717
:104120001CF4019793838283D8018D919C91119700
:104130000497B3CFF801828193810197938382839F
:10414000181619060CF404CFC8010E94EA1800CF13
:1041500080E10E9405158111DBCC61E0DACCF6E04C
:104160005F2E112321F01170A4E05A2E510E5FEE44
:10417000E52E52E0F52E6BE5C62E63E0D62E7DE0EF
:10418000A72EB12CEAE08E2E912CD7011A96EC9135
:104190001A97E73008F048C0F0E0E852FF4D129659
:1041A0000D911C9113976D907C9011970C942E2B70
:1041B000DF20EF201C2124212B21DF203421F701D7
:1041C000208512160CF421E08091EA02289F202D10
:1041D0001124B8016150710942EC58E122C01896CF
:1041E0008C91189720E01816BCF019968C91082E27
:1041F000000C990B97FD0196959587959C01220FD0
:10420000331F820F931F23E0843191052CF4B401F6
:104210000E941A2B21E0260FB8016450710940E476
:1042200057E1C3010E947714BCE0EB0EF11CCE14E1
:10423000DF0409F0AACFDBCCB801635071092091EB
:10424000EA024EE352E1EDCFB8016150710920E07E
:104250004EE252E1E6CFC801B5010E941A2B282F89
:104260004AE050E1B801DDCFB80161507109252D58
:10427000B3CF1D9DC001112420E04AEE5BE170E048
:1042800060E08A5A9F4F0E9477141F5FD0CC20E0D5
:10429000EFCC0E94ED1581E00E94341700915B0382
:1042A00010E007FF0AC020E044E85AE161E070E056
:1042B00081E090E00E94771418E000FF1AC0F090AF
:1042C000EC02FF20B1F0812F90E021E044E85AE1B8
:1042D00061E070E001960E94771488E0810F90E021
:1042E0002F2D4AEE5BE161E070E001960E947714A9
:1042F000105FB02FB071EB2E04FF0BC0812F90E048
:1043000022E044E85AE161E070E001960E947714EF
:10431000185F05FF0BC0812F90E023E044E85AE1CD
:1043200061E070E001960E947714185F06FF1AC0E2
:10433000F090EB02FF20B1F0812F90E024E044E800
:104340005AE161E070E001960E94771488E0810FE5
:1043500090E02F2D4AEE5BE161E070E001960E9453
:104360007714105F02FF0AC0812F90E025E044E837
:104370005AE161E070E001960E947714E110A6C056
:104380006090190170901A0120901B0140901C014F
:104390000FEE12E0B12CA12C312CE4E12E0E311CD9
:1043A000460C572C511CD8011A964C911A97842F01
:1043B0008D7F843009F4CDC0ED90FC90119712965A
:1043C000CD90DC9013971596BC91BB87F801848043
:1043D0008E0C9F2C911C809117018823F1F1209164
:1043E000110130E09091120180911301509114015C
:1043F0002815390594F5280F311DE216F3066CF5E2
:10440000892F90E096012B0F311D821793072CF511
:10441000850F911DC816D90604F568E06C0D423071
:1044200009F46DC0453009F471C0413009F070C025
:104430008091EE0281508093EE0243E08E2D0E9427
:10444000A51562E370E088EC90E00E947212E4E04F
:10445000D8011A96EC9310921701F5E18F1691048A
:104460000CF477C0E214F3040CF073C0C6012B8582
:10447000820F911D681679060CF06BC0C414D50428
:104480000CF067C080915B0385FF44C062E370E07D
:1044900088E191E00E94721280915B038F7D80938E
:1044A0005B032CE02A9DC0012B9D900D11248151AE
:1044B0009D4FDC012D913C911197205231092D9394
:1044C0003C930E94EA1884E280931D012B960FB65C
:1044D000F894DEBF0FBECDBFDF91CF911F910F913A
:1044E000FF90EF90DF90CF90BF90AF909F908F9014
:1044F0007F906F905F904F903F902F9008958091A4
:10450000ED0281508093ED0245E098CF42E096CFD6
:1045100041E094CF80E180931E018CE390E0909382
:10452000100180930F0100E911E06CE271E0C80115
:104530000E9472126FE070E080E090E00E94FE1036
:104540000A5011090436110581F789E0809375033B
:10455000BDCFBFEFAB1ABB0A045F1F4FE9E0AE1639
:10456000B10409F020CFB2CF8F929F92AF92BF9249
:10457000CF92DF92EF92FF920F931F93CF93DF932F
:10458000CDB7DEB72A970FB6F894DEBF0FBECDBF0A
:1045900020E04CE85CE168E070E08AE190E00E9495
:1045A000AB140E94ED1560915C0370915D038091E6
:1045B0005E0390915F032AE0AE014F5F5F4F7A0187
:1045C0000E94402AF70101900020E9F73197EE1987
:1045D000FF09AE2E06E00E1B10E0802E002E000C10
:1045E00099089AE0D92E181519043CF15AE00502F1
:1045F00080011124005E1F4FD12C0A2C000CBB0837
:104600008AE0C82E8D2D90E08A159B052CF58E0D25
:104610009F1DFC0120812133ECF020532A30D0F47F
:1046200048E45BE164E270E0C801DC9C800D911D10
:1046300011240E94AB14D394E5CF1D9DC001112419
:1046400020E048E45BE164E270E080960E94AB14F5
:104650001F5FC9CF20E0E4CF8CE00E94FA148823CA
:1046600019F081E0809375032A960FB6F894DEBFA7
:104670000FBECDBFDF91CF911F910F91FF90EF90B3
:10468000DF90CF90BF90AF909F908F9008951F9232
:104690000F920FB60F9211248F939F938091E10098
:1046A0009091E100937F9093E10083FF0FC01092FF
:1046B000E90091E09093EB001092EC0092E390936C
:1046C000ED001092950398E09093F00082FF22C0D5
:1046D00093E09093E9009091F200992319F09AE306
:1046E0009093E80090918603992341F0909186037E
:1046F000915090938603911101C05D9A909194031B
:10470000992341F0909194039150909394039111C7
:1047100001C0289A84FF18C08091E2008E7E8160DB
:104720008093E2008091E1008F7E8093E100809190
:1047300087038E7E8061809387039F918F910F9076
:104740000FBE0F901F90189580FFF7CF8091E20069
:104750008E7E80618093E2008091E1008E7E809366
:10476000E100809187038E7E8160E5CF1F920F92DA
:104770000FB60F921124CF92DF92EF92FF920F9318
:104780001F932F933F934F935F936F937F938F93D9
:104790009F93AF93BF93EF93FF93CF93DF93CDB7E7
:1047A000DEB76C97DEBFCDBF1092E9008091E800C4
:1047B00083FF25C068E0CE0145960E94CC1082EFB1
:1047C0008093E8008D8987FF39C09091E80090FFC1
:1047D000FCCF982F907609F034C19E894F89588D6F
:1047E0002F89F88C911131C0803861F58091850353
:1047F0008093F1001092F1008EEF8093E8006C96A8
:104800000FB6F894DEBF0FBECDBFDF91CF91FF9101
:10481000EF91BF91AF919F918F917F916F915F9138
:104820004F913F912F911F910F91FF90EF90DF904B
:10483000CF900F900FBE0F901F9018959EEF909302
:10484000E800C7CF1092F100D5CF913059F4811113
:10485000D3CF4130510581F6809185038D7F8093C0
:104860008503CACF933049F48111C6CF4130510539
:1048700019F6809185038260F2CF953041F48091E2
:10488000E80080FFFCCF20682093E300B5CF96308E
:1048900009F0A9C00B8D1C8D22E01092E900109246
:1048A000830310928203F2122EC0109281031092A1
:1048B00080030E949B101F8299E09983FA8291E005
:1048C0009E8390EA98879AEF99872091820330918E
:1048D0008303275F3F4F3C832B838D831092E90036
:1048E000109283031092820310938103009380033C
:1048F00049E050E0BE016F5F7F4F80E00E9475107D
:104900000E949B1079CF10938103009380030E9433
:10491000B20FDC0112960D911C910115110509F4DD
:1049200051C1D801ED91FC910480F581E02DBE01CB
:104930006B5E7F4FC8010995009709F03EC1F801F1
:1049400000851185EACFF3E0FF120EC08F8988231E
:1049500009F440C0823061F440E867E08BE69EE1F4
:104960000E949326811148CF81E28093EB0047CFCC
:10497000813029F440E86BE08FE59EE1F1CF833090
:1049800099F70E94B20FDC011296ED90FC908E0117
:104990000F5F1F4F6801E114F10479F0D701ED9129
:1049A000FC910680F781E02DB801C7010995080F39
:1049B000111DF701E084F184EECFD8011C92F601BD
:1049C00001900020E9F73197BF016C197D0940E0A3
:1049D000C601C6CF69E47EE1FB01449150E080E866
:1049E0000E94751009CF973009F4BECF983021F49A
:1049F00081E08093F10000CF993009F0FDCE837003
:104A000009F0B2CFE8E3F1E081E031E096E32191F3
:104A1000222371F08093E9003093EB00DF011197BE
:104A20002C912093EC009093ED008F5F873079F705
:104A30008EE78093EA001092EA008F8980939503B5
:104A4000DBCE8B8D9C8D1092E90010928303109227
:104A500082039093810380938003898D811192C09A
:104A60008E899D89913A49F4813209F07DCF47E0E2
:104A700050E063E271E080E0B3CF913209F074CF8F
:104A8000833269F48F89988DB0E0A0E080931F0194
:104A900090932001A0932101B0932201ADCE8032EA
:104AA00069F48091E80082FFFCCF67E083E291E047
:104AB0000E94CC108BEF8093E8009ECE823209F0EA
:104AC0009BCE8F8980932A01EEEFFFE78591949129
:104AD0008B3F9C4D51F1E0E0F8E0809123019091F3
:104AE0002401A0912501B0912601803B9440A105AD
:104AF000B105F1F480912A0180FD1AC0EE3F8AE0F1
:104B0000F80789F587E797E79183808380916000B4
:104B10008093840388E19BE00FB6F894A895809376
:104B200060000FBE9093600067CEEEEFFAE0D5CF45
:104B3000808191818737974709F05ECEA895809153
:104B4000600088618093600080918403809360009E
:104B5000EE3F2AE0F20789F08091FE0A9091FF0A69
:104B60009183808349CE808191818737980751F264
:104B70009093FF0A8093FE0AC5CF1092FF0A10920D
:104B8000FE0A3ACE0E94B20FDC0112960D911C91E2
:104B90000115110509F4E8CED801ED91FC910190C1
:104BA000F081E02DBE016B5E7F4FC8010995811138
:104BB00023CEF80100851185EBCF181619060CF4E9
:104BC0001BCED2CEF1E0FF12BECE6DE47EE104CF6B
:104BD0001F920F920FB60F9211242F933F938F9332
:104BE0009F93AF93BF938091780390917903A091A5
:104BF0007A03B0917B033091770323E0230F2D37A5
:104C000058F50196A11DB11D209377038093780379
:104C100090937903A0937A03B0937B0380917C03F4
:104C200090917D03A0917E03B0917F030196A11D19
:104C3000B11D80937C0390937D03A0937E03B0937A
:104C40007F03BF91AF919F918F913F912F910F90D3
:104C50000FBE0F901F90189526E8230F0296A11DF6
:104C6000B11DD2CF1F920F920FB60F9211242F9326
:104C70003F934F935F936F937F938F939F93AF93E4
:104C8000BF93EF93FF9380916B0390916C03A0917E
:104C90006D03B0916E03892B8A2B8B2B09F440C0D6
:104CA00080916A0381110BC088B190E4892788B98B
:104CB00080916903882319F088B1805888B9809160
:104CC0006B0390916C03A0916D03B0916E03181665
:104CD00019061A061B069CF480916B0390916C03D5
:104CE000A0916D03B0916E030197A109B109809362
:104CF0006B0390936C03A0936D03B0936E03FF91CD
:104D0000EF91BF91AF919F918F917F916F915F9143
:104D10004F913F912F910F900FBE0F901F901895BC
:104D20000E94CA11ECCFEF92FF920F931F93CF9383
:104D3000DF93F82E192FE62E042F81E0860F880FBF
:104D40000E94471083E00E944710CF2DD12FEC0E18
:104D5000FD2EF11CCE15DF05B9F007FF13C0FE01D3
:104D600084910E944710182F80E00E9447108123F1
:104D700021968111EFCFDF91CF911F910F91FF907D
:104D8000EF9008958881EDCF81E0F5CFE6E9F7E077
:104D90001382128288EE93E0A0E0B0E084839583D2
:104DA000A683B78382E491E0918380838FEF9FEFA6
:104DB0009587848785E69FE09093F5078093F407B5
:104DC00080E090E89093F3078093F20746983E9A2C
:104DD00047983F9A0895789484B5826084BD84B5DD
:104DE000816084BD85B5826085BD85B5816085BDE6
:104DF00080916E00816080936E001092810080919E
:104E00008100826080938100809181008160809325
:104E1000810080918000816080938000809191006A
:104E200082608093910080919100816080939100D5
:104E3000809190008160809390008091C100846097
:104E40008093C1008091C10082608093C1008091F5
:104E5000C10081608093C1008091C3008160809314
:104E6000C3008091C00082608093C0008091C20026
:104E700081608093C20080917A00846080937A0080
:104E800080917A00826080937A0080917A008160BC
:104E900080937A0080917A00806880937A001092E3
:104EA000950310928503109287038091D70081604B
:104EB0008093D70080EA8093D80089B5806189BD4E
:104EC00089B5826089BD09B400FEFDCF61E070E064
:104ED00080E090E00E94FE108091D8008F7C80617D
:104EE0008093D8008091E000807F8093E0008091E3
:104EF000E1008E7E8093E1008DE08093E200559A80
:104F0000209A81EC80937C0085B1806F85B984B153
:104F1000877E84B984B1876E84B95E9A5F988AB1BE
:104F2000806D8AB9769A6E9881B3806F81BB8998BB
:104F300080B38D7080BB80E58CBD81E08DBD85E048
:104F400090E00E94E2145F9A85E090E00E94E214F3
:104F50005E985C98E6E3FDE183E49DE124912EBD3B
:104F600000000DB407FEFDCF31968E179F07B1F7F5
:104F70005C9A81E8809364008091650081608093F1
:104F8000650080E00E94680F80E80E940515882374
:104F9000A9F05C9885EA8EBD00000DB407FEFDCF38
:104FA0005C9A2E982F982D9880916400806280934F
:104FB000640081E083BF889513BEFCCF84E00E942B
:104FC0000515882309F448C02D9884E80E9405152A
:104FD0008823E1F00E94E01488EC90E00E94E21443
:104FE0002F9882E090E00E94812A8F3F29F06FEF96
:104FF00082E090E00E94892A84EF91E00E94E2140E
:105000002F9A84E80E9405158111FBCF84E10E944C
:1050100005158823E1F00E94E01488EC90E00E94DE
:10502000E2142E9882E090E00E94812A882329F0E1
:1050300060E082E090E00E94892A84EF91E00E9483
:10504000E2142E9A84E10E9405158111FBCF88ECB1
:1050500090E00E94E214B2CF0E94E01482E090E05F
:105060000E94812A882309F47FC00E94F41481E001
:1050700090E00E94812A8470B82E81E090E00E9426
:10508000812A81FF12C0B1102E98C1EFDFEF08E036
:1050900010E078E5A72E80E40E940515882309F426
:1050A00066C02E9A2F9A0E94E01482E390E00E943C
:1050B000E2140E94E7148111F8CF80E180931E0171
:1050C000809164008E7F8093640080917A00806478
:1050D00080937A0080917A0086FDFCCFC0917800A1
:1050E000D09179000E94D910AB01BC01CE01B0E093
:1050F000A0E0DC01992788278C019D01040F151F72
:10510000261F371FC901B801209164002160209338
:105110006400611571058105910511F00E94372A1F
:10512000DD24D39406E010E0C12C96E9E92E93E04B
:10513000F92EC0E0D0E0BB24B3948FB7F89440912F
:1051400078035091790360917A0370917B038FBF4C
:1051500080916F03882309F49CC010926F032097FD
:1051600061F30E940000E9CF0E94EF1480CFBB20C2
:1051700029F0C430D10511F42E9A2F9881E00E94B5
:10518000680F9E01D7FF04C0222733272C1B3D0B3D
:1051900027703327CE01D7FD079663E09595879555
:1051A0006A95E1F7D7FF05C00197A801421B530B91
:1051B0009A01BC017695762F6627779567956A5692
:1051C0007C4FF12CE12C3801621A730A8E3F5FEF9D
:1051D000950709F43DC0AE9CD001AF9CB00D1124E1
:1051E00050E040E0AD5BB24E4B01E0E88E0E911C0A
:1051F0008F3F980791F0FD01E40FF51FE4916B01DB
:10520000C40ED51EF0E02F01022E01C0440C0A94FA
:10521000EAF7F60154884528448A2115310599F0AA
:10522000FD01E40FF51FE4916401C40ED51EF0E00A
:105230002F01062C02C0559447940A94E2F7F60118
:1052400054884528448A4F5F5F4F4835510581F6A1
:10525000019660587F4FEA94EF28B9F480E00E94ED
:10526000680F8FE090E00E94E2142196C931D105C9
:1052700009F011CFBB2011F02F9A2D9880E991E011
:105280000E94E2140E94E01410CFEE24E394F12C6B
:105290009DCF80917003242F281B822F90911E0197
:1052A000291740F48F5F891708F059CFD3BE88952E
:1052B00013BE55CFB0926F0340937003809071037B
:1052C000909072033FEF831A930A90927203809238
:1052D000710380917403809373030E94E714809399
:1052E0007403C401B8010E94062B892B29F4809114
:1052F00076038F5F80937603809176038D3010F074
:10530000109276038C2DF70181118FEF0024819389
:105310008193819381930394D1F7E0917503F0E039
:10532000EE0FFF1FED50F24E85919491FC0109950F
:1053300080E00E94680F13CF8F929F92AF92BF922E
:10534000CF92DF92EF92FF92CF93DF93EC016881CF
:1053500079818A819B81611571058105910521F40F
:1053600064E279ED8BE597E02DE133EF41E050E029
:105370000E94972A49015A019B01AC01A7EAB1E4B6
:105380000E94B62A6B017C01ACEEB4EFA50194013A
:105390000E94C42AC60ED71EE81EF91EF7FE06C0DC
:1053A00081E0C81AD108E10880E8F80AC882D982E9
:1053B000EA82FB82C701B6019F77DF91CF91FF9010
:1053C000EF90DF90CF90BF90AF909F908F90089517
:1053D0008F929F92AF92BF92CF92DF92EF92FF9205
:1053E00060912B0170912C0180912D0190912E01E3
:1053F000611571058105910521F464E279ED8BE574
:1054000097E02DE133EF41E050E00E94972A4901F7
:105410005A019B01AC01A7EAB1E40E94B62A6B01D4
:105420007C01ACEEB4EFA50194010E94C42AC60E23
:10543000D71EE81EF91EF7FE06C081E0C81AD10883
:10544000E10880E8F80AC0922B01D0922C01E0928A
:105450002D01F0922E01C701B6019F77FF90EF90CA
:10546000DF90CF90BF90AF909F908F900895609302
:105470002B0170932C0180932D0190932E010895A0
:10548000BB272A3051F4992342F4BDE290958095D0
:10549000709561957F4F8F4F9F4F0C94502ABB277B
:1054A000FA01A62F6217710581059105330B30FBB8
:1054B00066F0AA27660F771F881F991FAA1FA217D9
:1054C00010F0A21B63953850A9F7A05DAA3308F02D
:1054D000A95DA19336F7B111B1931082CA010C9462
:1054E000712ADC01FC01672F71917723E1F7329774
:1054F00004C07C916D9370836291AE17BF07C8F3AF
:105500000895F999FECF92BD81BDF89A992780B58B
:105510000895262FF999FECF1FBA92BD81BD20BDF7
:105520000FB6F894FA9AF99A0FBE01960895052ECF
:1055300097FB1EF400940E94AE2A57FD07D00E94EC
:10554000C92A07FC03D04EF40C94AE2A509540951E
:10555000309521953F4F4F4F5F4F0895909580951F
:10556000709561957F4F8F4F9F4F08950E94EB2A52
:10557000A59F900DB49F900DA49F800D911D1124A7
:105580000895B7FF0C94B62A0E94B62A821B930B8B
:105590000895A1E21A2EAA1BBB1BFD010DC0AA1F74
:1055A000BB1FEE1FFF1FA217B307E407F50720F08C
:1055B000A21BB30BE40BF50B661F771F881F991F07
:1055C0001A9469F760957095809590959B01AC0150
:1055D000BD01CF010895A29FB001B39FC001A39F59
:1055E000700D811D1124911DB29F700D811D11241C
:1055F000911D0895991B79E004C0991F961708F032
:10560000961B881F7A95C9F780950895AA1BBB1B26
:1056100051E107C0AA1FBB1FA617B70710F0A61BB2
:10562000B70B881F991F5A95A9F780959095BC01D3
:10563000CD01089597FB072E16F4009407D077FD4F
:1056400009D00E94062B07FC05D03EF49095819569
:105650009F4F0895709561957F4F0895EE0FFF1F3E
:0C5660000590F491E02D0994F894FFCF20
:10566C000303010101140080200E0EFF0000003C1A
:10567C000000000A0A02000000200002040010FFD3
:10568C00FFFFFF00E1000000000000010000001718
:10569C002029303630292000C18081000000000014
:1056AC000000C60F3111E70FDC0F2D10EB0F0910A6
:00000001FF
